:020000040000FA
:100000000C9462010C9493010C9493010C94930151
:100010000C9493010C9493010C9493010C94930110
:100020000C9493010C94FC0F0C94FC0F0C94FC0F9B
:100030000C9493010C9493010C9493010C949301F0
:100040000C9493010C9493010C9493010C949301E0
:100050000C9493010C9493010C9493010C94B20FA3
:100060000C9493010C947C0F0C94520F0C949301FC
:100070000C9493010C9493010C9493010C949301B0
:100080000C9493010C9493010C9493010C949301A0
:100090000C941C0F0C94F20E0C9493010C9406100B
:1000A0000C9493010C9493010C9493010C94930180
:1000B0000C9493010C9493010C9493010C94930170
:1000C0000C9493010C9493010C9493010C94930160
:1000D0000C9493010C9493010C9493010C94930150
:1000E0000C9493010C9484070C94AD030C947C0342
:1000F0000C9495210C9480030C9498050C94B107F2
:100100000C9471050C9497030C94B7030C94B303EF
:100110000C945B070C94E0010C9478030C94C708D2
:100120000C9478020C9487030C9472030C9455047D
:100130000C9478050C948D030C945A070C947D074D
:100140000C94E4030C9486050C94A9030C9404020B
:100150000C94DF010C94E3090C946A020C949F0345
:100160000C942A110C941A020C9407030C94940515
:100170000C94B2030C9447020C948D050C946A07FE
:100180000C949B030C94A5030C9415040C94BA02D4
:100190000C9484030C9456020C9491030C949605D1
:1001A00000002100240027002A002D003000330029
:1001B00001010000040107010A01000022002500DE
:1001C00028002B002E003100340002010000050140
:1001D00008010B01000020002300260029002C004C
:1001E0002F0032000001000003010601090105058E
:1001F0000505070508080808020202020A0A08089D
:1002000004040404010101010101010103030303CA
:1002100003030303040707070C0C0C0C0C0C0C0C59
:100220000202020206060606060606060B0B0B0B6A
:100230000B0B0B0B0102102020080810204010208F
:10024000408002010201080402010102040810209A
:100250004080804020100804020180040201804098
:100260002010080402010804020101020408102001
:100270004080010204081020408000000A0B02099F
:100280000C0D0E0807030401000000000000000030
:10029000000000000000000000000000000000005E
:1002A000000000000000121110000000000000001B
:1002B000000000000000000000000000000000003E
:1002C0002A11952111241FBECFEFD1E2DEBFCDBF91
:1002D00000E00CBF2BE0AAE4B8E001C01D92A239F7
:1002E000B207E1F718E0A0E0B2E0E2E0F9E400E0F4
:1002F0000BBF02C007900D92AA34B107D9F711E0E5
:10030000C1E6D1E000E006C021970109802FFE017F
:100310000E942B22C036D10780E00807A9F70E946F
:1003200042120C946F240C940000FC01A089B18946
:1003300082E08C93A485B5851C92A685B7858FEC49
:100340008C93108EA489B58986E08C93A289B38999
:100350008C9180618C93A289B3898C9188608C93F5
:10036000A289B3898C9180688C930288F389E02DEF
:1003700080818F7D8083089596E0899FD00111242C
:10038000A351B54F90967C936E935F9791E09196B1
:100390009C939197E0915A0BF0915B0B9091590BC4
:1003A000992339F0309751F0811108C08091090BE1
:1003B0001994309719F05C968C91FACF08950895AE
:1003C0000895FC01248135816217730748F4808108
:1003D0009181009729F0860F971FFC018081089575
:1003E00080E00895FC01248135816217730720F4B1
:1003F00080819181009729F41092070987E099E0A4
:100400000895860F971F08950895DC01ED91FC91E2
:100410000190F081E02D1994DB0114964D915C91CF
:1004200015976D917C91DC01ED91FC910280F38137
:10043000E02D1994AF92BF92CF92DF92EF92FF928C
:100440000F931F93CF93DF936C017B018B01040FFC
:10045000151FEB015E01AE18BF08C017D10759F098
:100460006991D601ED91FC910190F081E02DC601DA
:100470001995892B79F7C501DF91CF911F910F91C4
:10048000FF90EF90DF90CF90BF90AF900895FC0168
:10049000538D448D252F30E0842F90E0821B930BE9
:1004A000541710F0CF96089501970895FC01918D8F
:1004B000828D981761F0A28DAE0FBF2FB11D5D9692
:1004C0008C91928D9F5F9F73928F90E008958FEF34
:1004D0009FEF0895FC01918D828D981731F0828DE8
:1004E000E80FF11D858D90E008958FEF9FEF08953F
:1004F000FC01918D228D892F90E0805C9F4F821BA3
:1005000091098F73992708958BE999E00E947802E9
:1005100021E0892B09F420E0822F089588E39AE0F6
:100520000E94780221E0892B09F420E0822F0895AF
:10053000FC01A48DA80FB92FB11DA35ABF4F2C9158
:10054000848D90E001968F739927848FA689B7894F
:100550002C93A089B1898C91837080648C93938D46
:10056000848D981306C00288F389E02D80818F7DE9
:1005700080830895EF92FF920F931F93CF93DF93A1
:10058000EC0181E0888F9B8D8C8D98131AC0E889CF
:10059000F989808185FF15C09FB7F894EE89FF899E
:1005A0006083E889F98980818370806480839FBF3C
:1005B00081E090E0DF91CF911F910F91FF90EF903C
:1005C0000895F62E0B8D10E00F5F1F4F0F7311274C
:1005D000E02E8C8D8E110CC00FB607FCFACFE88987
:1005E000F989808185FFF5CFCE010E949802F1CF75
:1005F000EB8DEC0FFD2FF11DE35AFF4FF0829FB7FB
:10060000F8940B8FEA89FB8980818062CFCFCF93EA
:10061000DF93EC01888D8823B9F0AA89BB89E8892A
:10062000F9898C9185FD03C0808186FD0DC00FB6D0
:1006300007FCF7CF8C9185FFF2CF808185FFEDCF4E
:10064000CE010E949802E9CFDF91CF91089580E01A
:1006500090E0892B29F00E948E0281110E940000F7
:1006600080E090E0892B29F00E94840281110E9491
:10067000000080E090E0892B49F080E090E0892B39
:1006800029F00E94000081110E94000080E090E0AB
:10069000892B49F080E090E0892B29F00E9400002E
:1006A00081110C94000008958150823108F05AC0E5
:1006B000E82FF0E08827E05AFC4F8F4F0C942B2254
:1006C00080038403720378037C03B20387038D03E2
:1006D000910397039B039F03A503A903B203AD03F3
:1006E000B303B703809180008F77809380000895D3
:1006F000809180008F7DF9CF80918000877FF5CF3A
:1007000084B58F7784BD089584B58F7DFBCF8091AC
:10071000B0008F778093B00008958091B0008F7DF6
:10072000F9CF809190008F77809390000895809109
:1007300090008F7DF9CF80919000877FF5CF8091D9
:10074000A0008F778093A00008958091A0008F7DF6
:10075000F9CF8091A000877FF5CF809120018F771E
:10076000809320010895809120018F7DF9CF8091A1
:100770002001877FF5CFCF93DF93282F30E0F90159
:10078000E658FD4F8491F901EC5CFD4FD491F901DD
:10079000E251FE4FC491CC23A1F081110E94540379
:1007A000EC2FF0E0EE0FFF1FEC52FE4FA591B4913D
:1007B000EC91ED2381E090E009F480E0DF91CF91AE
:1007C000089580E090E0FACF862F0C94BB031F932E
:1007D000CF93DF93282F30E0F901E658FD4F849145
:1007E000F901EC5CFD4FD491F901E251FE4FC49147
:1007F000CC23A9F0162F81110E945403EC2FF0E0B6
:10080000EE0FFF1FE654FE4FA591B4918FB7F894F9
:10081000EC91111108C0D095DE23DC938FBFDF91DE
:10082000CF911F910895DE2BF8CF862F642F0C9463
:10083000E703CF93DF9390E0FC01EC5CFD4F249144
:1008400082519E4FFC0184918823C9F090E0880F6B
:10085000991FFC01E056FE4FA591B491FC01E654AE
:10086000FE4FC591D49161110DC09FB7F8948C9142
:10087000209582238C938881282328839FBFDF9132
:10088000CF910895623051F49FB7F8943C91822F34
:10089000809583238C93E8812E2BEFCF8FB7F8942C
:1008A000EC912E2B2C938FBFEACF862F642F0C94C4
:1008B00019043FB7F8948091030990910409A0911D
:1008C0000509B091060926B5A89B05C02F3F19F070
:1008D0000196A11DB11D3FBFBA2FA92F982F8827C0
:1008E000BC01CD01620F711D811D911D42E0660F9B
:1008F000771F881F991F4A95D1F708958F929F926D
:10090000AF92BF92CF92DF92EF92FF926B017C0188
:100910000E9459044B015C01C114D104E104F104AB
:10092000B9F00E945904681979098A099B09683E3F
:1009300073408105910580F321E0C21AD108E108D6
:10094000F10888EE880E83E0981EA11CB11CE4CF4C
:10095000FF90EF90DF90CF90BF90AF909F908F90DF
:1009600008952FB7F8946091FF0870910009809165
:100970000109909102092FBF08950F931F93809151
:100980005C0B90915D0BDC01ED91FC910084F18595
:10099000E02D1995892B09F4D5C060E070E0CB01FA
:1009A0000E947E0420917A0B80915C0B90915D0BEC
:1009B000DC01ED91FC910284F385E02D21110BC047
:1009C00019958093660B8E37D1F680917A0B8F5FE5
:1009D00080937A0BD4CF199590917A0BE92FF0E0A0
:1009E000E45AF44F82879230B9F09930D9F09130BF
:1009F000A9F48F3F99F010927A0B81E080937C0BE1
:100A000010927F0B10927E0B8093800B1092810BC3
:100A100080E01F910F910895863069F79F5F909352
:100A20007A0BADCF8F3E39F78091680B9091670BB1
:100A3000890F9927991FE091690B9C012E0F311D99
:100A400080916A0B820F932F911D40916B0B50E0A8
:100A5000840F951F20916C0B30E060916D0B70E05E
:100A6000762F6627F0916E0B6F0F711D820F931F0B
:100A70009195819591096817790709F0BCCF10927B
:100A80007A0BE13419F41092810B3DC0E0937D0B99
:100A9000542F4427240F351F30937F0B20937E0B58
:100AA000EA53E63108F044C0F0E08827E55AFA4FEF
:100AB0008F4F0C942B2286058D05960571059605A2
:100AC000780594059805960596059605960596056C
:100AD000960596059605980596059605960596053C
:100AE000960585E080937C0B81E08093800B0BC0A2
:100AF00089E020FDF7CF84E021FDF4CF2370332778
:100B00008AE0232B79F78091800B83CF87E020FD4B
:100B1000E9CF82E021FDE6CFF6CF88E020FDE2CFED
:100B200083E021FDDFCFEFCF86E0DCCF8BE0DACFB3
:100B300081E080937C0B10927F0B10927E0B809350
:100B4000800BA1CF8091810B8823E9F20E94B10430
:100B500000915E0B10915F0B2091600B3091610B47
:100B6000601B710B820B930B0091620B1091630B56
:100B70002091640B3091650B601771078207930712
:100B800010F210927A0B10927C0B10927F0B109245
:100B90007E0B81E039CF8093730B272F30E0709369
:100BA000750B6093760B4091720B9091710B490F0E
:100BB0005527551F840F952F911D4091740B840F5D
:100BC000911D820F931F680F792F711D719561958B
:100BD00071097093770B6093780B442361F08091D7
:100BE000810B882341F060E070E0CB010E947E041D
:100BF0000E94BD04F4CF80915C0B90915D0BDC01F1
:100C0000ED91FC910280F381E02D4AE050E060E735
:100C10007BE019950E94B10460935E0B70935F0BAB
:100C20008093600B9093610B8091740B91E0811124
:100C300001C090E09093810B811106C06AE070E0E2
:100C400080E090E00C947E040895BC0183E00C9455
:100C5000CB050F931F93CF93DF93C82FD62F86E03A
:100C6000C89FF0011124E351F54F11A2878D90A187
:100C700081309105F1F058F082309105F1F1039740
:100C800009F440C0DF91CF911F910F910895662321
:100C9000C9F361E070E08C2F0E94BC010E94B10496
:100CA0006093450B7093460B8093470B9093480BD2
:100CB000E9CF0E94B1040091450B1091460B2091A1
:100CC000470B3091480BAB01BC01401B510B620B31
:100CD000730B8091570B9091580BB0E0A0E08417F4
:100CE0009507A607B70748F462E070E08C2FDF9104
:100CF000CF911F910F910C94BC0163E070E0D11172
:100D0000C1CFF4CF70E060E0F1CF0F931F930E944A
:100D1000B1046093400A7093410A8093420A909311
:100D2000430A88E39AE00E94560297FF1DC00E9482
:100D3000B1040091400A1091410A2091420A309179
:100D4000430A601B710B820B930B00913C0A1091BC
:100D50003D0A20913E0A30913F0A601771078207D1
:100D60009307F8F28FEF9FEF1F910F9108958F92E5
:100D70009F92AF92BF92CF92DF92EF92FF92CF936A
:100D80006B017C010E94B1044B015C01C114D104D0
:100D9000E104F10441F4C090620BD090630BE09049
:100DA000640BF090650B0E94BD04C82F811111C027
:100DB0000E94B104681979098A099B09C616D706E9
:100DC000E806F90630F060E070E0CB010E947E0496
:100DD000EACF8C2FCF91FF90EF90DF90CF90BF9014
:100DE000AF909F908F90089520918B08260F332706
:100DF000331F21323105ECF42091D408FC0190E03E
:100E000080E0243069F082E00895A0918B08219160
:100E1000AC014559574FA40FB52FB11D2C93019626
:100E2000861798F380918B08680F60938B0880E099
:100E3000089581E008951092D40881E08093D3084A
:100E40001092AE0861E084E10E94E70361E085E171
:100E50000E94E703E9EBF0E080818E7F8083808150
:100E60008D7F808388E48093B80085E48093BC0004
:100E70000895CF93DF9391E090936A088823B9F0A7
:100E8000C091B800D091BA008091BC008A7B809359
:100E9000BC0060E084E10E94E70360E085E10E941D
:100EA000E7030E941B07D093BA00C093B800DF91FC
:100EB000CF9108950895E0910F0980910E09E817E8
:100EC00030F4F0E0E65BF74F808190E008958FEF1B
:100ED0009FEF089590910F0980910E092FEF3FEF3A
:100EE000981748F4E92FF0E0E65BF74F208130E0F7
:100EF0009F5F90930F09C901089580910E09909109
:100F00000F09891B990B0895CF92DF92EF92FF9200
:100F10000F931F93CF93DF937C01CB018A01209124
:100F2000DA08222389F0EB016B01C40ED51ECC1523
:100F3000DD0569F06991D701ED91FC910190F08197
:100F4000E02DC7011995F3CF642F0E94F406C80164
:100F5000DF91CF911F910F91FF90EF90DF90CF9095
:100F60000895CF93DF931F92CDB7DEB769832091A9
:100F7000DA082223F9F020910C09203258F021E000
:100F800030E0FC013383228390E080E00F90DF911A
:100F9000CF91089580910D09E82FF0E0E552F74FC9
:100FA000998190838F5F80930D0980930C0981E074
:100FB00090E0ECCF61E0CE0101960E94F406F7CFFD
:100FC000CF92DF92EF92FF920F931F93CF93DF9315
:100FD000FC01C48121E02093DA08C093FB08109241
:100FE0000D0910920C098385682B85ED9AE00E940B
:100FF000B107D0910C09D13208F092C00E94590477
:101000006B017C018091D408811165C082E08093DE
:10101000D40881E08093D3088FEF8093D208109298
:10102000D108D093D008ABEDB8E0E0EBF8E080E079
:10103000D81385C01092AF088091AF08CC0FC82B91
:10104000C093AF088091AE08813009F07CC0109247
:10105000AE080E9459046B017C018091AF08809317
:10106000BB008091D6089091D708A091D808B09184
:10107000D908892B8A2B8B2B99F00E945904009157
:10108000D6081091D7082091D8083091D9086C194A
:101090007D098E099F090617170728073907E0F110
:1010A0008091BC0083FDD9CF85EC8093BC000E9469
:1010B00059046B017C018091D408823009F445C049
:1010C0008091D2088F3F61F18091D208803241F146
:1010D0008091D20825C08091D6089091D708A09120
:1010E000D808B091D908892B8A2B8B2B09F48ACF89
:1010F0000E9459040091D6081091D7082091D80871
:101100003091D9086C197D098E099F0906171707B8
:101110002807390708F076CF8091D5080E94390753
:1011200010920D0910920C091092DA08DF91CF91FC
:101130001F910F91FF90EF90DF90CF9008959D91B8
:1011400091938F5F75CF85EEB0CF8091D608909147
:10115000D708A091D808B091D908892B8A2B8B2B5E
:1011600009F4A9CF0E9459040091D6081091D7081C
:101170002091D8083091D9086C197D098E099F09F2
:10118000061717072807390708F095CFC5CF90E055
:1011900080E008958091900990919109A091920921
:1011A000B091930940913009509131096091320911
:1011B00070913309841B950BA60BB70B8093900994
:1011C00090939109A0939209B093930908950F9376
:1011D0001F93CF93DF93C8EDD2E08E01F801808199
:1011E0000E5F1F4F61E00E94E703F2E0023E1F071F
:1011F000A9F764EF71E080E090E00E947E048881AE
:10120000229660E00E94E70382E0C23ED807B9F769
:10121000DF91CF911F910F9108950F931F93CF935B
:101220008C01C62F0E94E0076C2F6460C8010E94E9
:10123000E0076C2F6B7FC8010E94E00783EC90E011
:101240000197F1F7CF911F910F9108950F931F937D
:10125000CF93DF938C01D62FC42F607F642B0E9425
:101260000D0980E1D89FB00111246C2BC801DF91DA
:10127000CF911F910F910C940D0940E061E082E83D
:101280009BE00E9426098BE39FE10197F1F7089507
:10129000CF93DF9300D000D01F921F92CDB7DEB75F
:1012A00098E0E2E8F2E0DE01119601900D929A9545
:1012B000E1F790918A0B961708F46FEF262F30E034
:1012C000220F331F41E050E04C0F5D1F240F351FEC
:1012D000F9016081680F606840E082E89BE0289631
:1012E0000FB6F894DEBF0FBECDBFDF91CF910C9447
:1012F0002609CF93DF93EC010E943D09BE0182E8ED
:101300009BE00E940C0261E080E00E94480961EECF
:101310007AE082E89BE00E940C0285E090E00E9467
:10132000250664EF71E080E090E00E947E0460EDAD
:1013300077E080E090E00E947E040E94B104685E45
:1013400073408109910960938309709384098093A4
:10135000850990938609DF91CF910895CF93DF930C
:10136000EC010E943D09BE0182E89BE00E940C0254
:1013700061E080E00E94480967EE7AE082E89BE045
:101380000E940C0284E090E00E94250664EF71E068
:1013900080E090E00E947E0460ED77E080E090E0E5
:1013A0000E947E040E94B104685E73408109910925
:1013B00060938309709384098093850990938609CB
:1013C000DF91CF91089541E00E94260981E090E0ED
:1013D00008950F931F93CF93DF93FC010481158130
:1013E0000115110539F4FB011082DF91CF911F9196
:1013F0000F910895415051094017510708F48A018F
:10140000EB01FC0160817181A801CE010E94602482
:10141000C00FD11F1882E9CF0C94E121CF92DF9247
:10142000EF92FF920F931F93CF93DF93EB017B011A
:1014300024E0E20EF11C8B016C01C61AD70AC6012A
:10144000800F911F0E94D921F80181938F01EE1521
:10145000FF05A9F7CE01DF91CF911F910F91FF906A
:10146000EF90DF90CF9008959F92AF92BF92CF926E
:10147000DF92EF92FF920F931F93CF93DF935C0164
:101480007B018B01D0E0C0E0F80191908F016501F4
:10149000CC0EDD1EC6010E94D921981621F0692DBF
:1014A000C6010E94E1212196C430D10569F7C70128
:1014B000DF91CF911F910F91FF90EF90DF90CF9030
:1014C000BF90AF909F9008950C94D921FC0180812A
:1014D0009181009711F00C949D2160E070E0CB01A8
:1014E0000895FB0101900020E9F73197AF01461BF9
:1014F000570BDC01ED91FC910280F381E02D1994F2
:1015000066E273E088E39AE00C94710ACF93DF936C
:10151000BC0188E39AE00E940C02EC010E94800A60
:101520008C0F9D1FDF91CF9108958F929F92AF9264
:10153000BF92EF92FF920F931F93CF93DF93CDB79C
:10154000DEB7A1970FB6F894DEBF0FBECDBF7C010A
:10155000FA01CB0119A2223008F42AE08E010F5DB6
:101560001F4F822E912CB12CA12CBF01A5019401FB
:101570000E940922F901CA016A300CF5605DD801A8
:101580006E938D01232B242B252B79F790E080E09F
:10159000109721F0BD01C7010E94710AA1960FB6F4
:1015A000F894DEBF0FBECDBFDF91CF911F910F9199
:1015B000FF90EF90BF90AF909F908F900895695CDF
:1015C000DECFCF92DF92EF92FF920F931F93CF93D4
:1015D000DF936B01770FEE08FF08F7FE1BC0EC01ED
:1015E0006DE20E9405028C0144275527BA014C196F
:1015F0005D096E097F092AE0CE010E94950A800FDD
:10160000911FDF91CF911F910F91FF90EF90DF908D
:10161000CF9008952AE0B701A601DF91CF911F91E5
:101620000F91FF90EF90DF90CF900C94950ACF939D
:10163000DF93AB01BC012AE088E39AE00E94950A9F
:10164000EC010E94800A8C0F9D1FDF91CF910895BD
:10165000CF93DF93BC0188E39AE00E94710AEC010A
:101660000E94800A8C0F9D1FDF91CF9108950C94EA
:10167000710A2F923F924F925F926F927F928F9258
:101680009F92AF92BF92CF92DF92EF92FF920F9311
:101690001F93CF93DF9300D000D0CDB7DEB70E9469
:1016A000B10400918309109184092091850930913A
:1016B0008609601B710B820B930B683E734081059A
:1016C000910508F4BDC00E94B10460938309709332
:1016D000840980938509909386090E94B104009142
:1016E0009409109195092091960930919709DC0190
:1016F000CB01801B910BA20BB30BC0909009D09033
:101700009109E0909209F09093098C159D05AE0522
:10171000BF0508F095C0C81AD90AEA0AFB0AC70132
:10172000B60128EE33E040E050E00E940922490172
:101730005A01C701B60120E83EEE46E350E00E94A0
:10174000092229018901C501B40120E13EE040E000
:1017500050E00E9409222CE3C22ED12CE12CF12C66
:10176000A70196010E94092229833A834B835C8357
:1017700029803A80C501B401A70196010E9409227F
:101780006B017E836D830E943D0969E273E082E80C
:101790009BE00E94370B61E080E00E9448090A301C
:1017A000110534F469E373E082E89BE00E94370B93
:1017B000B20182E89BE00E94E10A61E076E082E803
:1017C0009BE00E94370B8AE02816310434F469E369
:1017D00073E082E89BE00E94370B69817A8182E89E
:1017E0009BE00E94E10A61E076E082E89BE00E94D3
:1017F000370B8D819E810A9734F469E373E082E8A8
:101800009BE00E94370BB60182E89BE026960FB65C
:10181000F894DEBF0FBECDBFDF91CF911F910F9126
:10182000FF90EF90DF90CF90BF90AF909F908F9000
:101830007F906F905F904F903F902F900C94E10AB3
:1018400026960FB6F894DEBF0FBECDBFDF91CF91C5
:101850001F910F91FF90EF90DF90CF90BF90AF90CE
:101860009F908F907F906F905F904F903F902F90C0
:101870000895FB0144815581FC01248135812417A1
:10188000350778F080819181009759F0FB016081E4
:1018900071816115710529F00E94522421E0892B84
:1018A00009F020E0822F08950F931F93CF93DF93C9
:1018B0008C01EB01FC01808191810097E1F068814E
:1018C000798161157105A9F0428153812C813D8197
:1018D0004217530770F00E944B248C819D81F801C0
:1018E000958384831D821C82DF91CF911F910F917C
:1018F00008950E94CF2288819981F8019183808385
:101900008A819B81938382838C819D81958384834B
:10191000198218821B821A82E5CFCF93DF93EC01E4
:1019200088819981009711F00E94CF221982188234
:101930001D821C821B821A82DF91CF910895FC01C7
:1019400080819181009711F00C94CF2208950F931C
:101950001F93CF93DF93EC0188819981009759F011
:101960002A813B812617370730F081E0DF91CF9144
:101970001F910F9108958B016F5F7F4F0E94582335
:10198000009759F0998388831B830A832C813D81BA
:10199000232B59F7FC011082E8CF80E0E7CFEF92CC
:1019A000FF920F931F93CF93DF93EC017B0119827A
:1019B00018821B821A821D821C82FB01019000206A
:1019C000E9F731978F01061B170BB8010E94A70C8E
:1019D000811109C0CE01DF91CF911F910F91FF902E
:1019E000EF900C948D0C1D830C83B7018881998135
:1019F000DF91CF911F910F91FF90EF900C944B24AA
:101A00009F92AF92BF92CF92DF92EF92FF920F938D
:101A10001F93CF93DF937C016B015A018901241737
:101A2000350720F48B2D5901042F182F68E273E03D
:101A3000C7010E94CF0CD6011496CD91DC91AC1653
:101A4000BD0650F50C171D0708F4E801D601ED910D
:101A5000FC911197EC0FFD1F908010820D911C914D
:101A60000A0D1B1D0115110571F0F80101900020F0
:101A7000E9F731975F01A01AB10AB501C7010E94C9
:101A8000A70C811116C0C7010E948D0CD6018D9143
:101A90009C91C80FD91F9882C701DF91CF911F91E8
:101AA0000F91FF90EF90DF90CF90BF90AF909F90FD
:101AB0000895F701B582A482B801808191810E94C6
:101AC0004B24E4CFCF93DF93EC01FB0124813581DC
:101AD0000E94000DCE01DF91CF9108952F923F9289
:101AE0004F925F926F927F928F929F92AF92BF922E
:101AF000CF92DF92EF92FF920F931F93CF93DF93DA
:101B0000CDB7DEB7C650D1400FB6F894DEBF0FBEDA
:101B1000CDBF6BE373E088E39AE00E94370B0E942D
:101B2000800A9E012F5F3F4F390180E091E0F9016B
:101B30009C01119221503040E1F72301630194E9A7
:101B4000A92E92E0B92EF12CE12C22242394F50148
:101B50003080F2E0AF0EB11C61E0832D0E941904C9
:101B600060E0832D0E94E70384E9882E82E0982EAE
:101B700010E000E0E016F10651F0F40180810E94CF
:101B8000BB03892B21F4F601E00FF11F20820F5FC8
:101B90001F4FF2E08F0E911C0031110559F762E0E2
:101BA000832D0E9419042FEFE21AF20A30E1C30ECE
:101BB000D11C80E1E816F10451F640E359E0A0E1C0
:101BC000B9E06D917C91119777FD20C012968D91AF
:101BD0009C91139797FD1AC0FB0104E0EE0FFF1FC5
:101BE0000A95E1F7E60DF71DE80FF91F2081222382
:101BF00091F0FC0114E0EE0FFF1F1A95E1F7E60DDE
:101C0000F71DE60FF71F2081222329F014964A17AB
:101C10005B07B9F621E070E060E0DB011196CD01D1
:101C20008031910509F44BC0F301E80FF91F3081B1
:101C300031110BC0FC0134E0EE0FFF1F3A95E1F7C4
:101C4000E40DF51D3081332361F0E0E1F9E000811E
:101C500011810617170739F4028113810817190734
:101C600051F40196DDCF0817190729F40281138179
:101C700006171707B1F334964E175F0741F76DE665
:101C800073E0CE018F5F9E4F0E94CF0CCE018F5F1D
:101C90009E4F0E947909CE018F5F9E4F0E949F0C3C
:101CA00065E873E088E39AE00E94370B0E94E7083A
:101CB00085E090E00E9425060E94CA0841C02223C8
:101CC000F1F29FEF491A590AE0E16E0E711CBD0155
:101CD000509709F0A2CF81E080938C098091580938
:101CE000909159090196909359098093580968E594
:101CF00073E0CE018F5F9E4F0E94CF0CCE018F5FAD
:101D00009E4F0E94AE09CE018F5F9E4F0E949F0C96
:101D100088E593E00E94280B809158099091590919
:101D2000863091054CF4880F991FFC01E052FD4F5D
:101D300061E080810E94E70384E090E00E94250634
:101D4000CA5FDE4F0FB6F894DEBF0FBECDBFDF9186
:101D5000CF911F910F91FF90EF90DF90CF90BF90A8
:101D6000AF909F908F907F906F905F904F903F903B
:101D70002F90089585ED8093BC008091D6089091B6
:101D8000D708A091D808B091D9080796A11DB11D18
:101D900023E0B695A795979587952A95D1F7209139
:101DA000BC0024FD03C01092D40808954091D608C9
:101DB0005091D7086091D8087091D908452B462BCF
:101DC000472B69F30097A105B10541F02AE22A9556
:101DD000F1F700C00197A109B109E1CF8091D508C1
:101DE0000C9439071F920F920FB60F9211240BB665
:101DF0000F922F933F934F935F936F937F938F93A4
:101E00009F93AF93BF93EF93FF938BE999E00E9469
:101E10009802FF91EF91BF91AF919F918F917F9128
:101E20006F915F914F913F912F910F900BBE0F904B
:101E30000FBE0F901F9018951F920F920FB60F9222
:101E400011240BB60F922F938F939F93EF93FF93D1
:101E5000E091AB09F091AC098081E091B109F0917A
:101E6000B20982FD1DC090818091B4098F5F8F738C
:101E70002091B509821741F0E091B409F0E0E556F0
:101E8000F64F958F8093B409FF91EF919F918F91B9
:101E90002F910F900BBE0F900FBE0F901F901895B3
:101EA0008081F2CF1F920F920FB60F9211240BB6C2
:101EB0000F922F933F934F935F936F937F938F93E3
:101EC0009F93AF93BF93EF93FF9388E39AE00E94B1
:101ED0009802FF91EF91BF91AF919F918F917F9168
:101EE0006F915F914F913F912F910F900BBE0F908B
:101EF0000FBE0F901F9018951F920F920FB60F9262
:101F000011240BB60F922F938F939F93EF93FF9310
:101F1000E091480AF091490A8081E0914E0AF091DF
:101F20004F0A82FD1DC090818091510A8F5F8F738F
:101F30002091520A821741F0E091510AF0E0E85CEA
:101F4000F54F958F8093510AFF91EF919F918F915B
:101F50002F910F900BBE0F900FBE0F901F901895F2
:101F60008081F2CF1F920F920FB60F9211242F9300
:101F70003F938F939F93AF93BF938091FF0890916E
:101F80000009A0910109B09102093091FE0823E0F7
:101F9000230F2D3758F50196A11DB11D2093FE0882
:101FA0008093FF0890930009A0930109B093020960
:101FB0008091030990910409A0910509B091060947
:101FC0000196A11DB11D8093030990930409A0936C
:101FD0000509B0930609BF91AF919F918F913F91F1
:101FE0002F910F900FBE0F901F90189526E8230F8A
:101FF0000296A11DB11DD2CF1F920F920FB60F9264
:1020000011240F900FBE0F901F9018951F920F92E2
:102010000FB60F9211240BB60F922F933F934F934D
:102020005F936F937F938F939F93AF93BF93EF9340
:10203000FF938091B900887F803609F44DC008F085
:1020400040C0883209F4A9C028F5803109F49DC048
:10205000C8F4882309F4FBC0883009F496C0FF91C6
:10206000EF91BF91AF919F918F917F916F915F9110
:102070004F913F912F910F900BBE0F900FBE0F907D
:102080001F901895883109F488C0803241F78093F9
:10209000D20814C0803409F49DC040F48033B9F3F1
:1020A0008833E9F68093D20885ECB0C0803509F416
:1020B00085C0883509F496C0883489F60E94BA0E26
:1020C000CECF883909F48CC038F5883729F050F420
:1020D000883611F0803719F683E08093D408109287
:1020E000AD0857C0883809F47BC0803919F08038B2
:1020F00009F0B5CF8091AD08803208F071C0E09151
:10210000AD0881E08E0F8093AD088091BB00F0E0B8
:10211000E357F74F80833DC0803B39F0E0F4803ACD
:1021200009F479C0883A09F09ACF84E08093D40802
:1021300010928C0810928B08E0910809F09109091F
:10214000199580918B0881110FC081E080938B08D5
:1021500010926B0809C0803C09F4A6CF883C09F4B2
:10216000A3CF883B09F07BCFE0918C0881E08E0FF4
:1021700080938C08F0E0E559F74F80818093BB0095
:1021800090918C0880918B0829C08091AF08809332
:10219000BB0085EC8093BC0062CF9091D108809108
:1021A000D008981758F5E091D10881E08E0F809300
:1021B000D108F0E0E055F74F8081E9CFE091D108F8
:1021C00081E08E0F8093D1088091BB00F0E0E05554
:1021D000F74F80839091D1088091D0089817C8F26A
:1021E00085E8D8CFE091D10881E08E0F8093D108A7
:1021F0008091BB00F0E0E055F74F80838091D308D9
:1022000081115CCF81E08093AE0884EA8093BC00AA
:102210001092D40824CF85EC8093BC001092D4088F
:102220008091AD08803230F4E091AD08F0E0E357E2
:10223000F74F10826091AD0870E0E0910A09F091CB
:102240000B098DE898E019951092AD0808CF10920F
:10225000D20834CF10929E0910929D0988EE93E027
:10226000A0E0B0E080939F099093A009A093A109FA
:10227000B093A20920EF32E030939C0920939B0990
:102280004DEC50E05093A8094093A7094CEC50E066
:102290005093AA094093A90948EC50E05093AC0927
:1022A0004093AB0949EC50E05093AE094093AD091F
:1022B0004AEC50E05093B0094093AF094EEC50E027
:1022C0005093B2094093B1091092B4091092B50924
:1022D0001092B6091092B70910923B0A10923A0A6E
:1022E00080933C0A90933D0AA0933E0AB0933F0A24
:1022F0003093390A2093380A25EC30E03093450AB0
:102300002093440A24EC30E03093470A2093460A95
:1023100020EC30E03093490A2093480A21EC30E069
:1023200030934B0A20934A0A22EC30E030934D0A56
:1023300020934C0A26EC30E030934F0A20934E0A4B
:102340001092510A1092520A1092530A1092540A93
:102350001092D80A1092D70A8093D90A9093DA0A79
:10236000A093DB0AB093DC0A82E093E09093D60A54
:102370008093D50A1092850B1092840B8EE193E026
:102380009093830B8093820B87E28093860B80E18E
:1023900080938B0B82E080938C0B10928D0B44EF1B
:1023A00051E060E070E04093620B5093630B6093E8
:1023B000640B7093650B9AE0EAE8F2E0A0E7BBE0FB
:1023C00001900D929A95E1F710927A0B80937B0B16
:1023D0001092800B1092810B1092EF0A1092F30A68
:1023E0001092F20A1092F40A84E193E09093EE0ABC
:1023F0008093ED0AE9E0FBE01082148213821582DB
:1024000036968BE0E534F807B9F788E692E09093CA
:10241000500B80934F0B84E692E09093520B809385
:10242000510B84E08093530B8093540B8CE692E025
:1024300090934E0B80934D0B8AE090E09093560B57
:102440008093550B84EF91E09093580B8093570B3A
:1024500010925B0B10925A0B1092490B10924A0B80
:1024600010924B0B10924C0B1092590B67E973E0D2
:1024700087EE9AE00E94CF0C62EA73E081EE9AE068
:102480000C94CF0CCF93DF93CDB7DEB768970FB620
:10249000F894DEBF0FBECDBF789484B5826084BD52
:1024A00084B5816084BD85B5826085BD85B5816058
:1024B00085BD80916E00816080936E0010928100D6
:1024C0008091810082608093810080918100816091
:1024D0008093810080918000816080938000809152
:1024E000B10084608093B1008091B00081608093DE
:1024F000B000809191008260809391008091910062
:102500008160809391008091900081608093900021
:102510008091A10082608093A1008091A1008160E0
:102520008093A1008091A00081608093A0008091A1
:10253000210182608093210180912101816080933B
:1025400021018091200181608093200180917A0097
:10255000846080937A0080917A00826080937A0010
:1025600080917A00816080937A0080917A008068FF
:1025700080937A001092C10088E39AE00E9495014E
:102580008BE999E00E94950110920F0910920E09B3
:1025900010920D0910920C090E941B078FED91E01B
:1025A000909309098093080980EE91E090930B09BC
:1025B00080930A090E941B071092870B80918C0B55
:1025C000823018F098E09093870B80938A0B62E337
:1025D00070E080E090E00E947E0460918D0B82E8C4
:1025E0009BE00E94E00768EE73E080E090E00E94CC
:1025F0007E0460E382E89BE00E940D090BE416E490
:10260000C8010197F1F760E382E89BE00E940D09A1
:10261000C8010197F1F760E382E89BE00E940D0991
:1026200083E592E00197F1F760E282E89BE00E9487
:102630000D096091870B606240E082E89BE00E9498
:10264000260984E08093880B40E06CE082E89BE000
:102650000E9426090E943D0982E08093890B40E098
:1026600066E082E89BE00E94260940E062E082E8A2
:102670009BE00E9426098BE39FE10197F1F788E038
:1026800080938D0B60E082E89BE00E94E0070E944F
:102690003D096DEA73E082E89BE00E94370B61E040
:1026A00080E00E9448096DEB73E082E89BE00E94A5
:1026B000370B68EE73E080E090E00E947E0403E058
:1026C00010E05BE9E52E59E0F52EDD24D394F0927D
:1026D0005D0BE0925C0BD092740B70E060E08CE0DC
:1026E0000E94CB0560ED77E080E090E00E94B706A5
:1026F00068EC70E080E090E00E947E041092800B15
:1027000080917C0B8430D1F08930C1F064EF71E0AE
:1027100080E090E00E947E0401501109C1F60E9401
:102720003D096AEE73E082E89BE00E94370B61E0AE
:1027300080E00E9448096BEF73E01FC069E170E020
:1027400086E00E94CB0570E060E082E40E94CB0549
:1027500060E070E0CB010E94B706811119C00E94B1
:102760003D096DEC73E082E89BE00E94370B61E06D
:1027700080E00E9448096CED73E082E89BE00E94D3
:10278000370B60ED77E080E090E00E947E040CC0A3
:102790001092800B80917C0B8B3009F780917E0B1F
:1027A00090917F0B892BD9F60E943D096EE074E071
:1027B00082E89BE00E94370B38EDE32E32E0F32EE7
:1027C00042EE842E42E0942EF4010081F2E08F0E5E
:1027D000911C61E0802F0E941904F7011081F2E042
:1027E000EF0EF11C61E0812F0E94190461E0802F3F
:1027F0000E94E70368EC70E080E090E00E947E04B5
:1028000060E0802F0E94E70361E0812F0E94E703D0
:1028100068EC70E080E090E00E947E0460E0812F30
:102820000E94E7032CEE821622E0920669F662E02F
:1028300087E20E94190420ECE22E22E0F22E04EB43
:1028400012E0F80180810E5F1F4F62E00E941904C0
:10285000E016F106B1F700EC12E0F80180810E5F9E
:102860001F4F62E00E941904F2E00C3C1F07A9F719
:1028700004E912E0F80180810E5F1F4F62E00E94C0
:102880001904F2E0043B1F07A9F760E979E090E042
:1028900080E00E940E0A60E379E084E090E00E940C
:1028A0000E0A04E319E088E090E07C012FEFE21AC1
:1028B000F20A0E94640A90E0F801819391938F01DB
:1028C000C7018E30910589F790E4C92E99E0D92E81
:1028D00087010F5F1F4FC7010E94640A90E0F60155
:1028E000819391936F0178010431110589F78CE48C
:1028F000E82E89E0F82EC8010E94D921F7018083D3
:10290000C80101960E94D921F7018183F2E0EF0E00
:10291000F11C0E5F1F4F0032110569F710E1E12E27
:1029200019E0F12E00E210E068012FEFC21AD20A7E
:10293000C8010E94640A90E0F701918380830E5FD2
:102940001F4FC6010E94640A90E0F70193838283BF
:10295000F4E0EF0EF11C0033110531F7BAE5EB2E70
:10296000B9E0FB2E68012FEFC21AD20AC8010E94FB
:10297000640AF70181937F0186010A33110591F7FB
:1029800000E012E07601FFEFEF1AFF0AC6010E9495
:10299000640AF80181938F016701FBE5EF16F104EA
:1029A00089F787010F5F1F4FC7010E94640AD82E65
:1029B000B7016B55710987EE9AE00E94F201FC01A4
:1029C000D08278010C37110561F778012FEFE21AF8
:1029D000F20AC8010E94640AD82EB8016C57710926
:1029E00081EE9AE00E94F201FC01D08287010D394C
:1029F000110559F7A3E4EA2EA2E0FA2E8DE990E042
:102A00008C010F5F1F4F0E94640AF70181937F01C1
:102A1000C8010E3B1105A1F7F2E2EF2EF2E0FF2E06
:102A20006801FFEFCF1ADF0AC8010E94640AF701AC
:102A300081937F0186010F3D110591F78EE194E0AE
:102A40000E94280B62E370E080E090E00E947E0428
:102A50006AE374E088E39AE00E94370B6091900982
:102A6000709191098091920990919309E8EECE2E90
:102A7000E3E0DE2EE12CF12CA70196010E94092251
:102A8000CA01B9010E94170B62E370E080E090E098
:102A90000E947E0466E474E088E39AE00E94370BAB
:102AA0006091300970913109809132099091330918
:102AB000A70196010E940922CA01B9010E94170BC1
:102AC00062E370E080E090E00E947E0460E574E0E4
:102AD00088E39AE00E94370B04E319E0F801619162
:102AE00071918F0188E39AE00E94E10AF9E00034D5
:102AF0001F07A1F70E94800A62E370E080E090E087
:102B00000E947E046BE574E088E39AE00E94370B34
:102B100000E419E0F801619171918F0188E39AE076
:102B20000E94E10AF9E00C341F07A1F70E94800A15
:102B300062E370E080E090E00E947E0465E674E06D
:102B400088E39AE00E94370B6CE4E62E69E0F62EEB
:102B500010E000E0F701619171917F0188E39AE054
:102B60000E94E10A0530110531F06CE674E088E35B
:102B70009AE00E94370B0F5F1F4F0630110551F787
:102B80000E94800A62E370E080E090E00E947E0490
:102B90006FE674E088E39AE00E94370B50E3E52E7D
:102BA00059E0F52E00E119E0F8016081718188E3B8
:102BB0009AE00E94E10A6CE674E088E39AE00E94E1
:102BC000370BF8016281738188E39AE00E94E10A81
:102BD0006CE674E088E39AE00E94370B0E94800A5A
:102BE0000C5F1F4FE016F106F9F662E370E080E03B
:102BF00090E00E947E0467E774E088E39AE00E9418
:102C0000370B8AE599E00E94280B65E874E088E3B9
:102C10009AE00E94370B80E092E00E94280B65E961
:102C200074E088E39AE00E94370B87EE9AE00E94F6
:102C3000860A67EA74E088E39AE00E94370B81EE27
:102C40009AE00E94860A87EB94E00E94280B0E947B
:102C50003D096DEA73E082E89BE00E94370B61E07A
:102C600080E00E94480969ED74E082E89BE00E94E0
:102C7000370B48EE442E43E0542E612C712C88E330
:102C80009AE00E947802181619060CF00DC168E24D
:102C900073E0CE0143960E94CF0C0E94850697FDFB
:102CA0001EC08A309105D9F089831A820F89188D48
:102CB0000F5F1F4FB801CE0143960E94A70C8823D7
:102CC00061F32B893C898F89988DBE016F5F7F4F9F
:102CD000820F931F0E944B24188F0F8BDECF64EF5F
:102CE00071E080E090E00E947E0465EE74E0CE0129
:102CF00001960E94CF0CBE016F5F7F4FCE014396BD
:102D00000E94390C182FCE0101960E949F0C1123AE
:102D100009F401C544E050E0BE016D5E7F4FCE0175
:102D200001960E94620DBE016F5F7F4FCE014396F8
:102D30000E94540CCE0101960E949F0C6AE975E036
:102D4000CE0101960E94CF0CBE016F5F7F4FCE0176
:102D500043960E94390C182FCE0101960E949F0CB9
:102D6000112321F14AE050E0BE016D5E7F4FCE019C
:102D700001960E94620DCE0101960E94660A9B0197
:102D8000AC01A8EEB3E00E94EF216093900970932C
:102D900091098093920990939309CE0101960E9424
:102DA0009F0C8AEE94E00E94280B7AC06CEA75E0D2
:102DB000CE0101960E94CF0CBE016F5F7F4FCE0106
:102DC00043960E94390C182FCE0101960E949F0C49
:102DD000112311F148E050E0BE016D5E7F4FCE013E
:102DE00001960E94620DCE0101960E94660A9B0127
:102DF000AC01A8EEB3E00E94EF216093300970931C
:102E000031098093320990933309CE0101960E94D3
:102E10009F0C87EF94E0C7CF6CEB75E0CE01019675
:102E20000E94CF0CBE016F5F7F4FCE0143960E9480
:102E3000390C182FCE0101960E949F0C112309F422
:102E40002CC149E050E0BE016D5E7F4FCE0101967E
:102E50000E94620DED80FE8010E000E00E151F055F
:102E600090F4B801CE0101960E94E101F801EE0F45
:102E7000FF1FEC5CF64F21E030E0813311F030E0D1
:102E800020E0318320830F5F1F4F0630110531F79B
:102E900082E095E00E94280BCE0101960E949F0CD3
:102EA000CE0143960E949F0C80919A09811172C0B5
:102EB0008091990981112EC787E20E94BB03892B5B
:102EC00009F028C781E080939A091092990910921D
:102ED00098090E94B10460939409709395098093B6
:102EE00096099093970910925909109258091092D7
:102EF0008F0910928E0910928D0910928C091092F0
:102F00008B0948EDE42E42E0F42E02EE12E0F801C7
:102F100080810E5F1F4F60E00E94E703F701808110
:102F2000F2E0EF0EF11C60E00E94E70380169106CC
:102F300071F70E943D0960E072E082E89BE00E9428
:102F4000370B0E94BD04882321F081E090E00E94AD
:102F5000250668EB7BE080E090E00E947E040E9402
:102F6000B104685E7340810991096093830970938D
:102F7000840980938509909386090E94390B6CE23D
:102F800071E080E090E00E947E0480919A0988239D
:102F900009F4C0C6809199098111BCC68091980935
:102FA0008111EAC40E94390B0E94B1040091940976
:102FB000109195092091960930919709601B710B2A
:102FC000820B930B00919009109191092091920925
:102FD00030919309601771078207930768F181E0C8
:102FE000809399090E943D0962E272E082E89BE0C9
:102FF0000E94370B61E080E00E9448096BE676E0B2
:1030000082E89BE00E94370B83E090E00E94250657
:1030100002EE12E038EDE32E32E0F32EF70180816C
:10302000F2E0EF0EF11C61E00E94E7030E151F05B0
:10303000A9F781E08093210281E08093590B0E94DF
:10304000B1040091490B10914A0B20914B0B309128
:103050004C0BAB01BC01401B510B620B730B8091FD
:10306000550B9091560BB0E0A0E084179507A6078A
:10307000B70708F055C610E08091530B181708F0F9
:103080000AC5E0914F0BF091500BE10FF11D62E08A
:1030900080810E9419041F5FEFCF6DEC75E0CE01B7
:1030A00001960E94CF0CBE016F5F7F4FCE01439609
:1030B0000E94390C182FCE0101960E949F0C1123FB
:1030C00041F148E050E0BE016D5E7F4FCE010196B8
:1030D0000E94620DED80FE8010E000E00E151F05DD
:1030E00080F4B801CE0101960E94E101F801EE0FD3
:1030F000FF1FE05CF64F082E000C990BC0979183E0
:1031000080830F5F1F4F0630110541F78EE095E079
:10311000C1CE6DED75E0CE0101960E94CF0CBE01CF
:103120006F5F7F4FCE0143960E94390C182FCE015E
:1031300001960E949F0C112309F46FC045E050E0F6
:10314000BE016D5E7F4FCE010D960E94620D10E0B4
:1031500000E0212C312CD12CC12CE988FA880E15E5
:103160001F0508F053C0B801CE010D960E94E10181
:1031700098012F5F3F4F59018C3231F031E0E31A53
:10318000F1080E151F05B1F568E273E0CE01079650
:103190000E94CF0C89899A8901970817190761F550
:1031A000A101BE01635F7F4FCE0101960E94620DB7
:1031B000BE016F5F7F4FCE0107960E94540CCE0177
:1031C00001960E949F0C46E0C416D1045CF4CE0127
:1031D00007960E94660AF601EE0FFF1FE45BF64FAA
:1031E0007183608315015FEFC51AD50ACE0107967A
:1031F0000E949F0C8501B1CF9801A101BE01635FC0
:103200007F4FCE0101960E94000DD2CF89E195E05B
:103210000E94280BCE010D9641CE6CEE75E0CE01DA
:1032200001960E94CF0CBE016F5F7F4FCE01439687
:103230000E94390C182FCE0101960E949F0C112379
:1032400009F47BC046E050E0BE016D5E7F4FCE01C9
:103250000D960E94620D10E000E0D12CC12C312CA3
:10326000212CB12CA12CE988FA880E151F0508F035
:1032700061C0B801CE010D960E94E1018C3239F097
:1032800081E0E81AF1080E151F0509F042C068E256
:1032900073E0CE0107960E94CF0C89899A89019725
:1032A00008171907C9F5A101BE01635F7F4FCE0161
:1032B00001960E94620DBE016F5F7F4FCE0107969F
:1032C0000E94540CCE0101960E949F0CF8E0AF16AC
:1032D000B104BCF4CE0107960E94660AF501EE0F18
:1032E000FF1FEC0DFD1DEE0FFF1FE05FF64F71831A
:1032F0006083CA94CD28D1F4EFEFAE1ABE0AD12C68
:10330000C12C1801FFEF2F1A3F0ACE0107960E9429
:103310009F0C0F5F1F4FA7CF9801A101BE01635FF4
:103320007F4FCE0101960E94000DC5CFCC24C394DF
:10333000D12CE7CF81E295E06BCF6AEF75E0CE014B
:1033400001960E94CF0CBE016F5F7F4FCE01439666
:103350000E94390C182FCE0101960E949F0C112358
:10336000A1F048E050E0BE016D5E7F4FCE010196B6
:103370000E94620D4AE050E06AE579E0CE010196D4
:103380000E94E9098AE295E085CD8F89988D892B85
:1033900009F4DFC068E375E08B899C890E944224B0
:1033A0007C01892B09F0D5C060E979E090E080E0EC
:1033B0000E94340A60E379E084E090E00E94340ADD
:1033C00004E319E088E090E0F80160810E5F1F4F90
:1033D0005C01FFEFAF1ABF0A0E940C0AC5018E30D4
:1033E000910591F7F0E4CF2EF9E0DF2EF601608130
:1033F000F2E0CF0ED11C85010F5F1F4FC5010E9467
:103400000C0A58010431110589F7A801485C564F90
:103410006A01580152E0A50EB11CF60131906F010E
:10342000C8010E94D921381621F0632DC8010E94DD
:10343000E1210F5F1F4FA016B10679F70032110589
:1034400021F7E0E1CE2EE9E0DE2E5801FFEFAF1AC2
:10345000BF0AF6016081C8010E940C0A0E5F1F4F6F
:10346000F6016281C5010E940C0AF4E0CF0ED11C66
:103470000033110551F77AE5C72E79E0D72EF60112
:1034800061916F015801FFEFAF1ABF0AC8010E9496
:103490000C0A85010A33110591F700E012E0F801EA
:1034A00061918F016501FFEFCF1ADF0AC5010E940C
:1034B0000C0A56012BE5C216D10489F710E000E092
:1034C000B80187EE9AE00E94F201FC016081C80118
:1034D000855A9F4F0E940C0A0F5F1F4F0132110542
:1034E00079F7B70181EE9AE00E94F201FC01608158
:1034F000C70184589F4F0E940C0AFFEFEF1AFF0A82
:1035000021E2E216F10469F703E412E08DE990E0AC
:10351000F80161918F016C01FFEFCF1ADF0A0E9461
:103520000C0AC6018E3B910599F702E212E0F80100
:1035300061918F017601FFEFEF1AFF0AC6010E9429
:103540000C0A67012FEDE216F10489F785E395E097
:103550002ACC6DE375E0CE0101960E94CF0CBE012E
:103560006F5F7F4FCE0143960E94390C182FCE011A
:1035700001960E949F0C112309F492CC44E050E084
:10358000BE016D5E7F4FCE0101960E94620DBE01AD
:103590006F5F7F4FCE0143960E94540CCE0101967F
:1035A0000E949F0C6EE076E0CE0101960E94CF0C47
:1035B000BE016F5F7F4FCE0143960E94390C182FDA
:1035C000CE0101960E949F0C1123A1F046E050E02D
:1035D000BE016D5E7F4FCE0101960E94620D41E2F9
:1035E00050E060E072E0CE0101960E94E90982E4B9
:1035F00095E050CC60E276E0CE0101960E94CF0CBF
:10360000BE016F5F7F4FCE0143960E94390C182F89
:10361000CE0101960E949F0C112361F048E050E01A
:10362000BE016D5E7F4FCE0101960E94620D8FE458
:1036300095E030CC64E376E0CE0101960E94CF0C99
:10364000BE016F5F7F4FCE0143960E94390C182F49
:10365000CE0101960E949F0C112361F046E050E0DC
:10366000BE016D5E7F4FCE0101960E94620D8EE518
:1036700095E010CC66E476E0CE0101960E94CF0C76
:10368000BE016F5F7F4FCE0143960E94390C182F09
:10369000CE0101960E949F0C1123A1F048E050E05A
:1036A000BE016D5E7F4FCE0101960E94620D41E228
:1036B00050E063E472E0CE0101960E94E9098BE6D6
:1036C00095E0E8CB6AE576E0CE0101960E94CF0C4A
:1036D000BE016F5F7F4FCE0143960E94390C182FB9
:1036E000CE0101960E949F0C112309F4D9CB47E02B
:1036F00050E0BE016D5E7F4FCE0101960E94620DCB
:1037000041E250E062E272E0CE0101960E94E909D6
:103710008AE795E0BFCB8F89988D892B09F4C0CBC0
:103720000B891C8968E875E0C8010E9442246C017D
:10373000892B09F0E8C063E975E088E39AE00E940C
:10374000370B609190097091910980919209909145
:103750009309A30192010E940922CA01B9010E94A2
:10376000170B65EA75E088E39AE00E94370B6091D9
:103770003009709131098091320990913309A30188
:1037800092010E940922CA01B9010E94170B65EB40
:1037900075E088E39AE00E94370B04E319E0F80132
:1037A000619171918F0188E39AE00E94E10AF9E04A
:1037B00000341F07A1F70E94800A66EC75E088E3D9
:1037C0009AE00E94370B00E419E0F80161917191D1
:1037D0008F0188E39AE00E94E10AF9E00C341F07A8
:1037E000A1F70E94800A66ED75E088E39AE00E94E6
:1037F000370B6CE4E62E69E0F62E10E000E0F701EE
:10380000619171917F0188E39AE00E94E10A05309D
:10381000110531F063EE75E088E39AE00E94370B02
:103820000F5F1F4F0630110551F70E94800A65EEA9
:1038300075E088E39AE00E94370B00E119E0F80197
:103840006081718188E39AE00E94E10A63EE75E08D
:1038500088E39AE00E94370BF8016281738188E364
:103860009AE00E94E10AF7E0CF16D10431F063EE4E
:1038700075E088E39AE00E94370B2FEFC21AD20A54
:103880000C5F1F4F38E0C316D104C9F60E94800AAE
:1038900063EF75E088E39AE00E94370B8AE599E0D0
:1038A0000E94280B63E076E088E39AE00E94370BE1
:1038B00080E092E00E94280B65E176E088E39AE0E0
:1038C0000E94370B87EE9AE00E94860A69E276E052
:1038D00088E39AE00E94370B81EE9AE00E94860A04
:1038E0006BE376E088E39AE00E94370B83E492E092
:1038F0000E94280B6FE476E088E39AE00E94370B81
:1039000082E292E050CA65E676E0C8010E94422455
:10391000892B09F0C5CA10929A091092990958ED9D
:10392000E52E52E0F52E02EE12E0F80180810E5FE6
:103930001F4F60E00E94E703F7018081F2E0EF0E85
:10394000F11C60E00E94E7038016910671F70E9467
:103950003D096DEA73E082E89BE00E94370B61E06D
:1039600080E00E94480969ED74E082E89BE00E94D3
:10397000370B82E696E017CA0E94B104C09087090F
:10398000D0908809E0908909F0908A096C197D0926
:103990008E099F0961367A4E81059105A8F1109232
:1039A00098090E943D096BE676E082E89BE00E9460
:1039B000370B61E080E00E94480961EE7AE082E81E
:1039C0009BE00E940C020E94E7080E94BD0488232D
:1039D00021F085E090E00E9425060E94CA0860ED73
:1039E00077E080E090E00E947E040E94B104685E6F
:1039F00073408109910960938309709384098093CE
:103A0000850990938609D0CA0E94B10400917F096C
:103A1000109180092091810930918209601B710BFE
:103A2000820B930B683E73408105910508F4BCCA74
:103A30000E94B10460937F0970938009809381098B
:103A4000909382090E94B10440E6C40E4AEED41E4F
:103A5000E11CF11CA7019601261B370B480B590BE3
:103A6000CA01B901A30192010E94092269018901D9
:103A700060E08EE00E9448090A30110534F469E3E1
:103A800073E082E89BE00E94370BB60182E89BE07E
:103A90000E94E10A89CAD12C8091540BD81608F0F3
:103AA00064C00D2D10E0E091510BF091520BE00F2E
:103AB000F11F61E080810E941904E091510BF091A7
:103AC000520BE00FF11F60E080810E94E70381E06C
:103AD00090E0A0E0B0E00D2C04C0880F991FAA1F51
:103AE000BB1F0A94D2F71C015C01A094B094C12CB6
:103AF0008091530BC81610F5EC2CF12CE0914F0B74
:103B0000F091500BEE0DFF1D80810E94BB039701C9
:103B10002C5F3F4FF901EE0FFF1FE351F54F892B4B
:103B200041F4808191818229932991838083C39478
:103B3000DFCF808191818A219B21F7CFE091510BCA
:103B4000F091520BE00FF11F61E080810E94E703CA
:103B50008091510B9091520B080F191F60E0F801F2
:103B600080810E941904D39497CF0DEE1AE089E268
:103B70009BE07801F701278D30A1232B31F4148EBF
:103B80002FEF3FEF368F258F11A236E0E30EF11CA9
:103B90008E159F0579F7D12CB6E03B2E8091530B03
:103BA000D81608F052C0C12CAD2CB12CAA0CBB1CED
:103BB000A5014B50554F5A012091540BC21608F0E5
:103BC00042C0F501608171810C2C02C07695679529
:103BD0000A94E2F7D29E900111242C0D311DEDEED6
:103BE000FAE080E0458D568D2417350709F484C32B
:103BF0008F5F36968A30B1F760FF23C0EDEEFAE0B2
:103C000090E080E0448D411117C0E0914D0BF091A0
:103C10004E0BE20FF31F4081389EF001399EF00DEC
:103C20001124E351F54F448F368F258F10A2178E44
:103C300061E00E94290605C0019636968A309105FA
:103C400009F7C394B9CFD394A9CF80E0F801D1A0EC
:103C5000D11001C0D82E0A5F1F4FE016F10609F0FF
:103C60005DC00E94B1046093490B70934A0B80932E
:103C70004B0B90934C0BDD2009F452C080910E0B3E
:103C8000882309F44DC080910C0B90910D0B019786
:103C900009F046C01091090B111145C080918F09A0
:103CA0008823C1F180918E098823A1F180918D092B
:103CB000882381F180918C09882361F180918B099F
:103CC000882341F181E0809399090E943D0963E4D2
:103CD00072E082E89BE00E94370B61E080E00E9486
:103CE00048096AEE77E082E89BE00E94370B82E0A9
:103CF00090E00E94250602EE12E0F80180810E5F3E
:103D00001F4F61E00E94E70380169106B1F781E042
:103D1000809321020E9427030C943F168D2D96CF8D
:103D20001092590BBBCF86E796E00E94280B612FBB
:103D300088E39AE00E9405020E94800A3090980968
:103D4000311095C064E876E088E39AE00E94370B72
:103D5000612F88E39AE00E94050280917E09113468
:103D600089F080917D09123469F080917C091334C7
:103D700049F080917B09143429F01A3209F08ECF72
:103D800080912102882309F489CF81E080939809EA
:103D900010937A090E94B10460938709709388098F
:103DA0008093890990938A09109279091092780971
:103DB000109264090E943D09123491F17CF41A3288
:103DC00009F448C01134D9F00E94BD04882309F4D5
:103DD00065CF86E090E00E94250660CF133469F13C
:103DE000143491F76FEE76E082E89BE00E94370B87
:103DF00061E080E00E9448096AEF76E00CC061EA69
:103E000076E082E89BE00E94370B61E080E00E9450
:103E100048096DEA76E082E89BE00E94370BD4CF38
:103E20006DEB76E082E89BE00E94370B61E080E07A
:103E30000E94480969EC76E0EECF6AED76E082E810
:103E40009BE00E94370B61E080E00E94480960EE31
:103E500076E0E1CF6BE077E082E89BE00E94370BF1
:103E600061E080E00E94480967E177E0D4CF80916B
:103E70007A09133209F012C210929809823409F4B7
:103E80000EC134F58A3209F4B2C1813459F160EDC2
:103E900077E080E090E00E947E040E94B104685EBA
:103EA0007340810991096093830970938409809319
:103EB0008509909386096CEC77E088E39AE00E948C
:103EC000370B60917A0988E39AE00E940502E6CEFA
:103ED000833409F41EC18434D1F60E946E0D109211
:103EE0007B09D5CFE4E3AE2EE9E0BE2EF4EBCF2E76
:103EF000F2E0DF2EF12CE12CF6018081F2E0CF0E12
:103F0000D11C0E94BB0301E010E0892B11F010E0EE
:103F100000E064E277E088E39AE00E94370BB701A3
:103F200088E39AE00E94E10A6CE277E088E39AE095
:103F30000E94370BB80188E39AE00E94E10A0E94D0
:103F4000800AF501819191915F018017910709F035
:103F500053C0FFEFEF1AFF0A26E0E216F10461F604
:103F60000E943D09332009F449C081E080938F0904
:103F700080915809909159099C012F5F3F4F3093D0
:103F800059092093580926303105DCF4880F991F10
:103F9000FC01EE51FD4F61E080810E94E70365E383
:103FA00077E088E39AE00E94370B6091580970919E
:103FB00059096150710988E39AE00E94E10A0E9460
:103FC000800A6BE477E082E89BE00E94370B61E0B7
:103FD00080E00E94480967EE7AE082E89BE00E9458
:103FE0000C020E94BD04882321F084E090E00E942E
:103FF000250610927E094BCF312CB2CF6DE577E0CC
:1040000082E89BE00E94370B61E080E00E94480953
:1040100061EE7AE082E89BE00E940C020E94E708D1
:104020000E94BD04882321F085E090E00E942506CF
:104030000E94CA08DECF06301105D9F581E08093D1
:104040008E098091580990915909019690935909C8
:10405000809358096AEF77E0CE0101960E94CF0C59
:10406000CE0101960E94AE09CE0101960E949F0CDE
:104070008091580990915909863091054CF4880F28
:10408000991FFC01E052FD4F61E080810E94E7032F
:1040900084E090E00E94250610927D09F8CE50E45D
:1040A000C52E59E0D52E60ECE62E62E0F62E10E02B
:1040B00000E0F7018081F2E0EF0EF11C0E94BB03EB
:1040C000F601419151916F010F5F1F4F21E0892B44
:1040D00009F020E081E04017510709F080E028173F
:1040E00009F4A9CF6EE078E0CE0101960E94CF0CD2
:1040F000CE0101960E947909CE0101960E949F0C83
:104100000E94E70885E090E00E9425060E94CA0808
:10411000C3CF6DE677E088E39AE00E94370BECECC2
:10412000F2E048ED52E0ACE4B9E0808132968633AB
:1041300008F0865320917B00982F9870277F922B50
:1041400090937B008770806480937C0080917A00DC
:10415000806480937A0080917A0086FDFCCF809104
:104160007800909179002D913D91821B930B97FFE0
:1041700003C0919581959109C3970CF0BFC04E176C
:104180005F0799F681E080938D098091580990919D
:1041900059090196909359098093580960E278E093
:1041A000CE0101960E94CF0CCE0101960E94AE096D
:1041B000CE0101960E949F0C809158099091590957
:1041C000863091054CF4880F991FFC01E052FD4F99
:1041D00061E080810E94E70384E090E00E94250670
:1041E00086E897E00E94280B10927C0950CEE0915F
:1041F0007809F0917909EC59F64F10826AE579E077
:1042000084E699E00E944224892B89F581E080931D
:104210008B098091580990915909019690935909F9
:104220008093580964EA77E0CE0101960E94CF0C92
:10423000CE0101960E94AE09CE0101960E949F0C0C
:104240008091580990915909863091054CF4880F56
:10425000991FFC01E052FD4F61E080810E94E7035D
:1042600084E090E00E9425061092210210CE69EBB6
:1042700077E0CE0101960E94CF0CCE0101960E94FC
:104280007909CE0101960E949F0C0E94E70885E003
:1042900090E00E9425060E94CA08E6CF8A3209F003
:1042A000FDCC1A3209F4FACC809178099091790901
:1042B000833191050CF0F2CC9C012F5F3F4F30937E
:1042C0007909209378098C59964FFC0110832C5959
:1042D000364FF901108261E080E00E94480967E1F1
:1042E00077E082E89BE00E94370B64E679E082E8A1
:1042F0009BE00E94370BD2CC61709BCC63E378E0EB
:10430000CE0101960E94CF0CCE0101960E94790940
:10431000CE0101960E949F0C0E94E70885E090E084
:104320000E9425060E94CA085BCF81EE9AE00E9497
:104330009F0C87EE9AE00C949F0C1F93FC01992729
:104340008827BC01E89411911032E9F3193010F07C
:104350001E30C8F31B3251F01D3249F4689406C078
:104360000E94C421610F711D811D911D1191105377
:104370001A30B0F33EF490958095709561957F4F1B
:104380008F4F9F4F1F910895592F482F372F262F5A
:10439000660F771F881F991F660F771F881F991F49
:1043A000620F731F841F951F660F771F881F991F49
:1043B0000895F999FECF92BD81BDF89A992780B5ED
:1043C0000895262FF999FECF1FBA92BD81BD20BD59
:1043D0000FB6F894FA9AF99A0FBE019608950E94C2
:1043E000FA21A59F900DB49F900DA49F800D911D63
:1043F00011240895A29FB001B39FC001A39F700D27
:10440000811D1124911DB29F700D811D1124911DDC
:104410000895A1E21A2EAA1BBB1BFD010DC0AA1F05
:10442000BB1FEE1FFF1FA217B307E407F50720F01D
:10443000A21BB30BE40BF50B661F771F881F991F98
:104440001A9469F760957095809590959B01AC01E1
:10445000BD01CF010895EE0FFF1F881F8BBF07908E
:10446000F691E02D19940F931F93CF93DF93823031
:10447000910510F482E090E0E091900BF091910BA7
:1044800030E020E0B0E0A0E0309799F4211531054C
:1044900009F44AC0281B390B24303105D8F58A812C
:1044A0009B816115710589F1FB0193838283FE0174
:1044B00011C0408151810281138148175907E0F0F2
:1044C0004817590799F4109761F012960C931297B8
:1044D00013961C933296CF01DF91CF911F910F91CC
:1044E00008950093900B1093910BF4CF2115310593
:1044F00051F04217530738F0A901DB019A01BD01C1
:10450000DF01F801C1CFEF01F9CF9093910B8093B8
:10451000900BCDCFFE01E20FF31F819391932250B8
:10452000310939832883D7CF20918E0B30918F0B9F
:10453000232B41F420917E0230917F0230938F0B28
:1045400020938E0B20917C0230917D022115310544
:1045500041F42DB73EB74091800250918102241B57
:10456000350BE0918E0BF0918F0BE217F307A0F45F
:104570002E1B3F0B2817390778F0AC014E5F5F4FB9
:104580002417350748F04E0F5F1F50938F0B409351
:104590008E0B819391939FCFF0E0E0E09CCFCF937F
:1045A000DF930097E9F0FC01329713821282A09109
:1045B000900BB091910BED0130E020E01097A1F449
:1045C00020813181820F931F20918E0B30918F0BB0
:1045D0002817390709F061C0F0938F0BE0938E0B19
:1045E000DF91CF910895EA01CE17DF07E8F54A8100
:1045F0005B819E0141155105B1F7E901FB83EA8317
:1046000049915991C40FD51FEC17FD0761F48081C2
:1046100091810296840F951FE90199838883828195
:1046200093819B838A83F0E0E0E012968D919C91C8
:1046300013970097B9F52D913C911197CD010296F2
:10464000820F931F20918E0B30918F0B2817390703
:1046500039F6309751F51092910B1092900BB09360
:104660008F0BA0938E0BBCCFD383C283408151812B
:10467000840F951FC817D90761F44E5F5F4F88817B
:104680009981480F591F518340838A819B8193836D
:1046900082832115310509F0B0CFF093910BE0939F
:1046A000900B9ECFFD01DC01C0CF13821282D7CFC9
:1046B0004F925F926F927F928F929F92AF92BF9232
:1046C000CF92DF92EF92FF920F931F93CF93DF93DE
:1046D0008C01009799F4CB01DF91CF911F910F913D
:1046E000FF90EF90DF90CF90BF90AF909F908F9012
:1046F0007F906F905F904F900C943322FC01E60FF7
:10470000F71F9C0122503109E217F30708F4AEC0ED
:10471000D901CD91DC911197C617D70720F1C5308B
:10472000D10578F0CE0104978617970750F0C61B85
:10473000D70B2297C193D1936D937C93CF010E94A5
:10474000CF22C801DF91CF911F910F91FF90EF9081
:10475000DF90CF90BF90AF909F908F907F906F90A1
:104760005F904F9008955B01AC1ABD0A4C018C0E0E
:104770009D1EA091900BB091910B512C412CF12CCE
:10478000E12C109731F580918E0B90918F0B88154D
:10479000990509F05CC04616570608F058C080918C
:1047A0007C0290917D02009741F48DB79EB74091B5
:1047B000800250918102841B950BE817F90708F0DD
:1047C00055C0F0938F0BE0938E0BF90171836083DA
:1047D000B8CF8D919C91119712966C901297139669
:1047E0007C901397A815B90559F56C0142E0C40EE9
:1047F000D11CCA14DB0420F1AC014A195B09DA01AF
:104800001296159780F06282738251834083D9019A
:104810006D937C93E114F10471F0D7011396FC932E
:10482000EE9312978ECF22968C0F9D1FF9019183E4
:104830008083F301EFCFF093910BE093900B81CF46
:104840004816590608F42C017D01D3019ACFCB01FB
:104850000E9433227C01009749F0AE01B8010E940A
:104860003924C8010E94CF2287016BCF10E000E0FD
:1048700068CFFB01DC0102C001900D924150504015
:10488000D8F70895FB01DC018D910190801901108A
:10489000D9F3990B0895FB01DC0101900D920020E2
:1048A000E1F70895FB01DC014150504030F08D915B
:1048B0000190801919F40020B9F7881B990B08950D
:1048C000FB01DC014150504048F001900D92002066
:1048D000C9F701C01D9241505040E0F7089511E022
:1048E000C1E6D1E000E006C0802FFE010E942B222D
:1048F0002196011DC236D10780E00807A9F7F89478
:10490000FFCF47616D652053746172746564212027
:10491000476F6F64206C75636B210000000000001E
:104920000000000147616D65204F766572212054BB
:10493000696D65277320757021000000000000007C
:104940000000000000566963746F72792120416C89
:104950006C207461736B7320646F6E6521000000BE
:1049600000000000000008090C0D3E3F40413132BC
:10497000334134353642373839432A302344000036
:10498000920B800000004000140054007EFF0600DF
:104990000100000000EF1E001F0020002100220087
:1049A00023002400250029002A002B002C002D00C4
:1049B0002E002F00300016001700180019001A00F2
:1049C0001B0002000300040005000600070036007B
:1049D0003700380039003A003B001C001D0026005B
:1049E0002800310032003300340035003C00000064
:1049F0000000BA021A0247020703780256026A024E
:104A000000000000B1078407C7085A077D076A073E
:104A10005B070000000055041504E40300000000DB
:104A2000E3091A02C70804020D0A0054696D6520E3
:104A300072656D61696E696E673A00300043686542
:104A4000636B696E67206A61636B20636F6E6E656E
:104A50006374696F6E732E2E2E004A61636B206340
:104A60006F6E6E656374696F6E73204F4B21004AE1
:104A700061636B20636F6E6E656374696F6E732024
:104A800077726F6E6721006A61636B20636865638C
:104A90006B206661696C65640057656C6C20646F9F
:104AA0006E65210054727920616761696E21004B47
:104AB0006579706164204C45442047616D6500490B
:104AC0006E697469616C697A696E672E2E2E005367
:104AD000442043617264204572726F722100436802
:104AE00065636B2053442043617264004D50332052
:104AF000506C61796572204572726F720047616D0A
:104B0000652077696C6C20636F6E74696E756500E3
:104B100054657374696E67204C4544732E2E2E00C5
:104B20002D2D2D73617665642020436F6E66696755
:104B300075726174696F6E202D2D2D00436F756E37
:104B400074646F776E3A200050656E616C74793AC8
:104B5000200053776974636865733A200042757466
:104B6000746F6E733A2000506F74733A20002C20DB
:104B7000004A61636B733A20004B65797061642071
:104B8000436F64653A20005374617274204D6573FD
:104B9000736167653A2000436F7272656374204DDC
:104BA0006573736167653A200057726F6E67204DB9
:104BB0006573736167653A20006E6F7720636F6E6F
:104BC0006E65637420746865204755492020636FC3
:104BD0006E666967757261746F7200507265737387
:104BE000205354415254005345543A004F4B3A43DA
:104BF0004F554E54444F574E004F4B3A50454E413F
:104C00004C5459004F4B3A5357495443484553006D
:104C10004F4B3A425554544F4E53004F4B3A504F1E
:104C20005453004F4B3A4A41434B53004F4B3A4B7E
:104C30004559434F4445004F4B3A53415645004D6B
:104C400053473A004F4B3A4D53473A53544152540D
:104C5000004F4B3A4D53473A434F5252454354004D
:104C60004F4B3A4D53473A57524F4E47004F4B3AEE
:104C70004D53473A564943544F5259004F4B3A4DC2
:104C800053473A444546454154004745543A434FFB
:104C90004E46494700434F4E4649473A434F554ECB
:104CA00054444F574E3A00434F4E4649473A5045B9
:104CB0004E414C54593A00434F4E4649473A535798
:104CC0004954434845533A00434F4E4649473A42B8
:104CD0005554544F4E533A00434F4E4649473A506D
:104CE0004F54533A002C00434F4E4649473A4A41ED
:104CF000434B533A00434F4E4649473A4B4559437D
:104D00004F44453A00434F4E4649473A4D53473A80
:104D100053544152543A00434F4E4649473A4D533B
:104D2000473A434F52524543543A00434F4E464947
:104D3000473A4D53473A57524F4E473A00434F4E2A
:104D40004649473A4D53473A564943544F52593AC8
:104D500000434F4E4649473A4D53473A444546452E
:104D600041543A004F4B3A52455345540054696DF3
:104D700065277320757021004B657920707265730B
:104D80007365643A20004B657920707265737365B2
:104D90006420736571206E6F742061637469766539
:104DA0003A2000537769746368207365712E00534D
:104DB00065742073776974636865732E2E2E0042C4
:104DC0007574746F6E207365712E00507265737305
:104DD00020627574746F6E732E2E2E00506F747374
:104DE0002E0041646A75737420706F74732E2E2EBA
:104DF000004A61636B20636F6E6E2E00436F6E6EB0
:104E0000656374206A61636B732E2E2E004B657987
:104E100070616420636F646500456E746572206321
:104E20006F64653A200053776974636820002073CB
:104E3000746174653A20005475726E696E67206FF4
:104E40006E20475245454E204C454420005377691B
:104E5000746368657320636F7272656374210053B5
:104E6000776974636865732077726F6E672100439A
:104E70006865636B696E6720706F74207365717508
:104E8000656E63652E2E2E00506F74656E74696FAB
:104E90006D6574657220636865636B20636F6D7008
:104EA0006C6574652E004B657970616420636F6476
:104EB0006520636F727265637421004B6579706160
:104EC0006420636F64652077726F6E6721004B65A5
:104ED00079207479706520707265737365642073CE
:104EE0006571206163746976653A2000416C6C20BD
:104EF0007461736B7320646F6E6521004275747406
:104F00006F6E2073657120636F7272656374210028
:104F1000427574746F6E207365712077726F6E675F
:104F20002100506F74656E74696F6D65746572737E
:104F3000204F4B2100506F74656E74696F6D6574FE
:0C4F40006572732077726F6E67210000AD
:020000040003F7
:10E000000D9489F10D94B2F10D94B2F10D94B2F129
:10E010000D94B2F10D94B2F10D94B2F10D94B2F1F0
:10E020000D94B2F10D94B2F10D94B2F10D94B2F1E0
:10E030000D94B2F10D94B2F10D94B2F10D94B2F1D0
:10E040000D94B2F10D94B2F10D94B2F10D94B2F1C0
:10E050000D94B2F10D94B2F10D94B2F10D94B2F1B0
:10E060000D94B2F10D94B2F10D94B2F10D94B2F1A0
:10E070000D94B2F10D94B2F10D94B2F10D94B2F190
:10E080000D94B2F10D94B2F10D94B2F10D94B2F180
:10E090000D94B2F10D94B2F10D94B2F10D94B2F170
:10E0A0000D94B2F10D94B2F10D94B2F10D94B2F160
:10E0B0000D94B2F10D94B2F10D94B2F10D94B2F150
:10E0C0000D94B2F10D94B2F10D94B2F10D94B2F140
:10E0D0000D94B2F10D94B2F10D94B2F10D94B2F130
:10E0E0000D94B2F141546D656761323536300041AF
:10E0F000726475696E6F206578706C6F72657220DE
:10E1000073746B3530305632206279204D4C530099
:10E11000426F6F746C6F616465723E004875683F52
:10E1200000436F6D70696C6564206F6E203D200048
:10E130004350552054797065202020203D20005FF9
:10E140005F4156525F415243485F5F3D2000415658
:10E1500052204C696243205665723D20004743437C
:10E160002056657273696F6E203D20004350552024
:10E1700049442020202020203D20004C6F7720663D
:10E18000757365202020203D20004869676820665F
:10E190007573652020203D200045787420667573D6
:10E1A00065202020203D20004C6F636B2066757336
:10E1B000652020203D20004D617220203720323024
:10E1C000313300312E362E3800342E332E350056A2
:10E1D00023202020414444522020206F7020636F70
:10E1E00064652020202020696E73747275637469E1
:10E1F0006F6E2061646472202020496E74657272B3
:10E20000757074006E6F20766563746F7200726A49
:10E210006D702020006A6D70200057686174207056
:10E220006F72743A00506F7274206E6F7420737541
:10E2300070706F72746564004D7573742062652030
:10E2400061206C6574746572002000577269747483
:10E25000696E672045450052656164696E672045B7
:10E26000450045452065727220636E743D00504F35
:10E27000525400303D5A65726F2061646472003FF1
:10E280003D43505520737461747300403D454550C3
:10E29000524F4D207465737400423D426C696E6B41
:10E2A000204C454400453D44756D70204545505215
:10E2B0004F4D00463D44756D7020464C415348001B
:10E2C000483D48656C70004C3D4C69737420492F83
:10E2D0004F20506F72747300513D51756974005234
:10E2E0003D44756D702052414D00563D73686F7707
:10E2F00020696E7465727275707420566563746FF0
:10E30000727300593D506F727420626C696E6B00BD
:10E310002A0011241FBECFEFD1E2DEBFCDBF01E046
:10E320000CBF12E0A0E0B2E0EEE1FDEF03E00BBFB6
:10E3300002C007900D92A030B107D9F712E0A0E01B
:10E34000B2E001C01D92AE30B107E1F70F9460F367
:10E350000D948DFE01E20EBF0FEF0DBF11241FBE05
:10E360000D9460F30D9400F020E030E040ED57E0B4
:10E3700005C0FA013197F1F72F5F3F4F2817390792
:10E38000C0F308959C01260F311DC901A0E0B0E043
:10E390002F5F3F4FABBFFC018791882361F08093D3
:10E3A000C6008091C00086FFFCCF8091C0008064D1
:10E3B0008093C000EACF08958DE08093C6008091DD
:10E3C000C00086FFFCCF8091C00080648093C000B5
:10E3D0008AE08093C6008091C00086FFFCCF8091C8
:10E3E000C00080648093C00008950F94C2F10F9420
:10E3F000DCF10895FC019081992359F09093C600B7
:10E400008091C00086FFFCCF8091C0008064809323
:10E41000C0003196992379F70895282F982F929567
:10E420009F70892F805D8A3308F0895F8093C600D2
:10E430008091C00086FFFCCF8091C00080648093F3
:10E44000C000822F8F70982F905D9A3308F0995FEB
:10E450009093C6008091C00086FFFCCF8091C000E1
:10E4600080648093C00008959C01FB01853691056E
:10E470001CF46330710594F0C90164E670E00F94F8
:10E480002EFE605D7F4F6093C6008091C00086FFC6
:10E49000FCCF8091C00080648093C0002B30310598
:10E4A00014F43297B4F0C90164E670E00F942EFEC4
:10E4B0006AE070E00F942EFE605D7F4F6093C600AF
:10E4C0008091C00086FFFCCF8091C0008064809363
:10E4D000C000C9016AE070E00F942EFEC0968093E0
:10E4E000C6008091C00086FFFCCF8091C000806490
:10E4F0008093C00008951F93182F8EE692EE60E07F
:10E500000F94C2F11093C6008091C00086FFFCCF2B
:10E510008091C00080648093C0000F94DCF11F9153
:10E5200008952F923F924F925F926F927F928F92B7
:10E530009F92AF92BF92CF92DF92EF92FF920F9392
:10E540001F93DF93CF93CDB7DEB762970FB6F894E2
:10E55000DEBF0FBECDBF382E622ECA01DB015C01CB
:10E560006D01772420E2222E2E010894411C511CBB
:10E570008BC081E0A81680E0B80681E0C80680E084
:10E58000D80628F0C601AA27BB270F940DF2BB2797
:10E59000AD2D9C2D8B2D0F940DF28A2D0F940DF225
:10E5A0002092C6008091C00086FFFCCF8091C00001
:10E5B00080648093C0009DE29093C6008091C0006B
:10E5C00086FFFCCF8091C00080648093C0002092C1
:10E5D000C6008091C00086FFFCCF8091C00080649F
:10E5E0008093C00019828601750188249924A1E0D6
:10E5F0003A1651F03A1620F0B2E03B1661F409C029
:10E600000BBFF701779007C0C7010F9477FE782EF4
:10E6100002C0F7017080872D0F940DF22092C60082
:10E620008091C00086FFFCCF8091C0008064809301
:10E63000C000872D8052F401EF70F0708F3520F408
:10E64000E40DF51D708204C0E40DF51D8EE280839B
:10E650000894E11CF11C011D111D0894811C911CE2
:10E6600090E18916910409F0C2CF80E190E0A0E02A
:10E67000B0E0A80EB91ECA1EDB1E198AC2010F9493
:10E68000FAF10F94DCF16A94662009F072CF629679
:10E690000FB6F894DEBF0FBECDBFCF91DF911F91B3
:10E6A0000F91FF90EF90DF90CF90BF90AF909F9031
:10E6B0008F907F906F905F904F903F902F90089534
:10E6C0002F923F924F925F926F927F928F929F9282
:10E6D000AF92BF92CF92DF92EF92FF920F931F9370
:10E6E000DF93CF93CDB7DEB7CD53D1400FB6F894BB
:10E6F000DEBF0FBECDBF01E20EBF0FEF0DBF94B75F
:10E70000F894A89514BE80916000886180936000A1
:10E7100010926000789493FF05C0E0910002F091A0
:10E7200001021995279A2F9A8091C00082608093E8
:10E73000C00080E18093C40088E18093C1000000A4
:10E74000EE24FF24870144E0A42EB12CCC24DD2448
:10E7500024C0C5010197F1F70894E11CF11C011DCB
:10E76000111D21E2E2162EE4F20620E0020720E06D
:10E77000120718F031E0C32ED12CC801B70127ECE5
:10E780003BE140E050E00F9441FE611571058105C9
:10E79000910519F485B1805885B98091C00087FD35
:10E7A00003C0C114D104A9F2A6014F5F5F4FC25E3E
:10E7B000DE4F59834883CE51D140C25EDE4F8881FF
:10E7C0009981CE51D140019711F00D9410FEC05D9A
:10E7D000DE4F19821882C053D14060E0C15DDE4F28
:10E7E0001882CF52D14088249924C35DDE4F19820C
:10E7F0001882CD52D140C05EDE4F188219821A8233
:10E800001B82C052D140CE5CDE4F188219821A8220
:10E810001B82C253D140EE24FF2487010BBFF701B6
:10E8200007911691C45CDE4F19830883CC53D14005
:10E830000D940BFEC25EDE4F28813981CE51D1404E
:10E840002130310509F52091C600C25EDE4F1982E4
:10E850001882CE51D14022C02F5F3F4F4F4F5F4FA4
:10E86000213082E138078AE7480780E0580780F0C6
:10E87000C45CDE4FE881F981CC53D140EF5FFF4F9C
:10E8800019F0EE27FF27099420E030E040E050E047
:10E890008091C00087FFE0CF2091C600C35DDE4FAE
:10E8A00048815981CD52D1404F5F5F4FC35DDE4FEC
:10E8B00059834883CD52D140213209F063C64A3092
:10E8C000510508F05FC60894811C911C53E0851621
:10E8D000910409F059C600E010E018C081E280936D
:10E8E000C6008091C00086FFFCCF8091C00080648C
:10E8F0008093C0002F5F3F4F2931310579F70F9486
:10E90000DCF10F5F1F4F0530110519F020E030E0FA
:10E91000E5CF10920A0210920B0210920C02109294
:10E920000D02109206021092070210920802109235
:10E930000902109202021092030210920402109235
:10E9400005028FEE90EE60E00F94F5F180E191EE1C
:10E9500060E00F94C2F18091C00087FFFCCF9091DE
:10E96000C600903608F09F759032B8F09093C600BC
:10E970008091C00086FFFCCF8091C00080648093AE
:10E98000C000A0E2A093C6008091C00086FFFCCF2B
:10E990008091C00080648093C000983409F4D7C18E
:10E9A0009934B8F4923409F459C1933458F490333B
:10E9B00019F1903308F4E3C59F33A1F1903409F0C5
:10E9C000DEC5BDC0953409F470C1963409F0D7C5D1
:10E9D00098C1923509F42BC2933538F49C3409F46C
:10E9E000F5C1913509F0CBC518C2963509F445C279
:10E9F000993509F0C4C567C483E792EE62E00F94CD
:10EA0000F5F110920602109207021092080210927D
:10EA1000090210920A0210920B0210920C0210923C
:10EA20000D0213C18FE792EE62E00F94F5F18FEEC5
:10EA300090EE60E00F94F5F181E291EE60E00F94CA
:10EA4000C2F187EB91EE60E00F94F5F180E391EE77
:10EA500060E00F94C2F184EE90EE60E00F94F5F167
:10EA60008FE391EE60E00F94C2F186E090E061E008
:10EA700070E00F9434F20F94DCF18DE591EE60E0DC
:10EA80000F94C2F189EC91EE60E00F94F5F18EE401
:10EA900091EE60E00F94C2F183EC91EE60E00F9490
:10EAA000F5F18CE691EE60E00F94C2F18EE10F94E7
:10EAB0000DF288E90F940DF281E00F940DF20F949E
:10EAC000DCF18BE791EE60E00F94C2F119E0E0E039
:10EAD000F0E010935700E4918E2F0F940DF20F94F5
:10EAE000DCF18AE891EE60E00F94C2F1E3E0F0E03F
:10EAF00010935700E4918E2F0F940DF20F94DCF1D8
:10EB000089E991EE60E00F94C2F1E2E0F0E0109349
:10EB10005700E4918E2F0F940DF20F94DCF188EAE8
:10EB200091EE60E00F94C2F1E1E0F0E01093570045
:10EB30001491812F0F940DF20F94DCF107CF8BE825
:10EB400092EE62E00F94F5F18BE492EE60E00F94A8
:10EB5000F5F10F94DCF100E010E019C0C8016F2D51
:10EB60000F947FFEFF2031F489E492EE60E00F9471
:10EB7000C2F10BC0F092C6008091C00086FFFCCFAE
:10EB80008091C00080648093C0000F5F1F4FC80158
