:100000000C945F010C9490010C9490010C9490015D
:100010000C9490010C9490010C9490010C9490011C
:100020000C9490010C94140D0C94140D0C94140D5C
:100030000C9490010C9490010C9490010C949001FC
:100040000C9490010C9490010C9490010C949001EC
:100050000C9490010C9490010C9490010C94CA0C97
:100060000C9490010C94940C0C946A0C0C949001D8
:100070000C9490010C9490010C9490010C949001BC
:100080000C9490010C9490010C9490010C949001AC
:100090000C94340C0C940A0C0C9490010C941E0DCE
:1000A0000C9490010C9490010C9490010C9490018C
:1000B0000C9490010C9490010C9490010C9490017C
:1000C0000C9490010C9490010C9490010C9490016C
:1000D0000C9490010C9490010C9490010C9490015C
:1000E0000C9490010C944A070C941D020C9440024D
:1000F0000C944E030C9448030C94F3060C946E0578
:100100000C9483030C945D030C94EF010C94DD01BB
:100110000C9475030C9488030C947B030C94EB03F0
:100120000C94F0010C944E050C9490020C946A050A
:100130000C94DC010C94420E0C9416070C945203A0
:100140000C9489030C94DD020C945A030C941D0743
:100150000C945C050C94F4060C946D030C942C0226
:100160000C9467030C9447050C9403070C948D03BF
:100170000C9456030C9412090C9460080C94BA0366
:100180000C9463050C9463030C9471030C942B047E
:100190000C946C050C947F030C944E02000021001B
:1001A000240027002A002D00300033000101000048
:1001B000040107010A0100002200250028002B008D
:1001C0002E003100340002010000050108010B017E
:1001D000000020002300260029002C002F00320000
:1001E00000010000030106010901050505050705D9
:1001F00008080808020202020A0A080804040404A3
:1002000001010101010101010303030303030303CE
:10021000040707070C0C0C0C0C0C0C0C020202025D
:1002200006060606060606060B0B0B0B0B0B0B0B46
:1002300001021020200808102040102040800201F8
:1002400002010804020101020408102040808040DD
:1002500020100804020180040201804020100804DC
:10026000020108040201010204081020408001027A
:1002700004081020408000000A0B02090C0D0E0833
:10028000070304010000000000000000000000005F
:10029000000000000000000000000000000000005E
:1002A000000012111000000000000000000000001B
:1002B000000000000000000000000000420E1124B9
:1002C0001FBECFEFD1E2DEBFCDBF00E00CBF29E003
:1002D000A0EDB6E001C01D92AE3FB207E1F716E017
:1002E000A0E0B2E0E4E9F0E400E00BBF02C0079058
:1002F0000D92A03DB107D9F711E0CFE5D1E000E0C4
:1003000006C021970109802FFE010E94041ECE35F0
:10031000D10780E00807A9F70E944F0F0C944820EE
:100320000C940000FC01A089B18982E08C93A48523
:10033000B5851C92A685B7858FEC8C93108EA48909
:10034000B58986E08C93A289B3898C9180618C9366
:10035000A289B3898C9188608C93A289B3898C918E
:1003600080688C930288F389E02D80818F7D808363
:10037000089596E0899FD0011124A75AB64F909610
:100380007C936E935F9791E091969C939197E09107
:10039000C609F091C7099091C509992339F03097A2
:1003A00051F0811108C0809175091994309719F0A6
:1003B0005C968C91FACF089508950895FC012481EC
:1003C00035816217730748F480819181009729F085
:1003D000860F971FFC018081089580E0089508959D
:1003E000AF92BF92CF92DF92EF92FF920F931F9343
:1003F000CF93DF936C017B018B01040F151FEB0181
:100400005E01AE18BF08C017D10759F06991D60137
:10041000ED91FC910190F081E02DC6011995892B99
:1004200079F7C501DF91CF911F910F91FF90EF9068
:10043000DF90CF90BF90AF900895FC01538D448D15
:10044000252F30E0842F90E0821B930B541710F07F
:10045000CF96089501970895FC01918D828D98178C
:1004600061F0A28DAE0FBF2FB11D5D968C91928D64
:100470009F5F9F73928F90E008958FEF9FEF089595
:10048000FC01918D828D981731F0828DE80FF11D5E
:10049000858D90E008958FEF9FEF0895FC01918D79
:1004A000228D892F90E0805C9F4F821B91098F7372
:1004B0009927089583E198E00E944E0221E0892B5C
:1004C00009F420E0822F089580EB98E00E944E020C
:1004D00021E0892B09F420E0822F0895FC01A48DEE
:1004E000A80FB92FB11DA35ABF4F2C91848D90E056
:1004F00001968F739927848FA689B7892C93A08939
:10050000B1898C91837080648C93938D848D9813C2
:1005100006C00288F389E02D80818F7D8083089555
:10052000EF92FF920F931F93CF93DF93EC0181E043
:10053000888F9B8D8C8D98131AC0E889F9898081EA
:1005400085FF15C09FB7F894EE89FF896083E8891D
:10055000F98980818370806480839FBF81E090E00F
:10056000DF91CF911F910F91FF90EF900895F62E9C
:100570000B8D10E00F5F1F4F0F731127E02E8C8D36
:100580008E110CC00FB607FCFACFE889F98980817B
:1005900085FFF5CFCE010E946E02F1CFEB8DEC0FFF
:1005A000FD2FF11DE35AFF4FF0829FB7F8940B8F98
:1005B000EA89FB8980818062CFCFCF93DF93EC0102
:1005C000888D8823B9F0AA89BB89E889F9898C913B
:1005D00085FD03C0808186FD0DC00FB607FCF7CFF7
:1005E0008C9185FFF2CF808185FFEDCFCE010E94F7
:1005F0006E02E9CFDF91CF91089580E090E0892BE2
:1006000029F00E94640281110E94000080E090E0C5
:10061000892B29F00E945A0281110E94000080E07B
:1006200090E0892B49F080E090E0892B29F00E942E
:10063000000081110E94000080E090E0892B49F0C9
:1006400080E090E0892B29F00E94000081110C9439
:10065000000008958150823108F05AC0E82FF0E080
:100660008827EA5CFC4F8F4F0C94041E56035A03F4
:1006700048034E03520388035D03630367036D035E
:10068000710375037B037F038803830389038D0351
:10069000809180008F778093800008958091800002
:1006A0008F7DF9CF80918000877FF5CF84B58F77DC
:1006B00084BD089584B58F7DFBCF8091B0008F7786
:1006C0008093B00008958091B0008F7DF9CF809124
:1006D00090008F77809390000895809190008F7D97
:1006E000F9CF80919000877FF5CF8091A0008F7720
:1006F0008093A00008958091A0008F7DF9CF809114
:10070000A000877FF5CF809120018F778093200113
:100710000895809120018F7DF9CF80912001877FFE
:10072000F5CFCF93DF93282F30E0F901EA58FD4F42
:100730008491F901E05DFD4FD491F901E651FE4F3E
:10074000C491CC23A1F081110E942A03EC2FF0E088
:10075000EE0FFF1FE053FE4FA591B491EC91ED23F6
:1007600081E090E009F480E0DF91CF91089580E08E
:1007700090E0FACF862F0C9491031F93CF93DF93D1
:10078000282F30E0F901EA58FD4F8491F901E05D2E
:10079000FD4FD491F901E651FE4FC491CC23A9F04D
:1007A000162F81110E942A03EC2FF0E0EE0FFF1F9D
:1007B000EA54FE4FA591B4918FB7F894EC911111C2
:1007C00008C0D095DE23DC938FBFDF91CF911F91BE
:1007D0000895DE2BF8CF862F642F0C94BD03CF93A2
:1007E000DF9390E0FC01E05DFD4F249186519E4F28
:1007F000FC0184918823C9F090E0880F991FFC01C7
:10080000E456FE4FA591B491FC01EA54FE4FC59108
:10081000D49161110DC09FB7F8948C9120958223DB
:100820008C938881282328839FBFDF91CF910895DF
:10083000623051F49FB7F8943C91822F80958323C6
:100840008C93E8812E2BEFCF8FB7F894EC912E2B61
:100850002C938FBFEACF862F642F0C94EF033FB702
:10086000F8948091890790918A07A0918B07B091A5
:100870008C0726B5A89B05C02F3F19F00196A11D36
:10088000B11D3FBFBA2FA92F982F8827BC01CD01DA
:10089000620F711D811D911D42E0660F771F881F39
:1008A000991F4A95D1F708958F929F92AF92BF9268
:1008B000CF92DF92EF92FF926B017C010E942F0496
:1008C0004B015C01C114D104E104F104B9F00E94B0
:1008D0002F04681979098A099B09683E73408105CC
:1008E000910580F321E0C21AD108E108F10888EEF1
:1008F000880E83E0981EA11CB11CE4CFFF90EF90FE
:10090000DF90CF90BF90AF909F908F9008952FB7BA
:10091000F894609185077091860780918707909180
:1009200088072FBF08950F931F938091C809909156
:10093000C909DC01ED91FC910084F185E02D199548
:10094000892B09F4D5C060E070E0CB010E9454040B
:100950002091E6098091C8099091C909DC01ED91C7
:10096000FC910284F385E02D21110BC01995809331
:10097000D2098E37D1F68091E6098F5F8093E60920
:10098000D4CF19959091E609E92FF0E0E853F64F9E
:1009900082879230B9F09930D9F09130A9F48F3F25
:1009A00099F01092E60981E08093E8091092EB0932
:1009B0001092EA098093EC091092ED0980E01F91F2
:1009C0000F910895863069F79F5F9093E609ADCF48
:1009D0008F3E39F78091D4099091D309890F9927D7
:1009E000991FE091D5099C012E0F311D8091D609E8
:1009F000820F932F911D4091D70950E0840F951FCE
:100A00002091D80930E06091D90970E0762F6627EF
:100A1000F091DA096F0F711D820F931F91958195E7
:100A200091096817790709F0BCCF1092E609E13403
:100A300019F41092ED093DC0E093E909542F4427C1
:100A4000240F351F3093EB092093EA09EA53E6316E
:100A500008F044C0F0E08827EF5CFA4F8F4F0C9409
:100A6000041E5C0563056C0547056C054E056A05AB
:100A70006E056C056C056C056C056C056C056C05EC
:100A80006C056E056C056C056C056C056C0585E0E8
:100A90008093E80981E08093EC090BC089E020FD98
:100AA000F7CF84E021FDF4CF237033278AE0232B96
:100AB00079F78091EC0983CF87E020FDE9CF82E0D0
:100AC00021FDE6CFF6CF88E020FDE2CF83E021FDD7
:100AD000DFCFEFCF86E0DCCF8BE0DACF81E0809311
:100AE000E8091092EB091092EA098093EC09A1CF72
:100AF0008091ED098823E9F20E9487040091CA09D8
:100B00001091CB092091CC093091CD09601B710B5C
:100B1000820B930B0091CE091091CF092091D0093F
:100B20003091D109601771078207930710F2109274
:100B3000E6091092E8091092EB091092EA0981E0A7
:100B400039CF8093DF09272F30E07093E10960935C
:100B5000E2094091DE099091DD09490F5527551FA3
:100B6000840F952F911D4091E009840F911D820FF4
:100B7000931F680F792F711D71956195710970939D
:100B8000E3096093E409442361F08091ED0988232F
:100B900041F060E070E0CB010E9454040E94930495
:100BA000F4CF8091C8099091C909DC01ED91FC91C5
:100BB0000280F381E02D4AE050E06CED79E0199578
:100BC0000E9487046093CA097093CB098093CC0973
:100BD0009093CD098091E00991E0811101C090E0EE
:100BE0009093ED09811106C06AE070E080E090E02A
:100BF0000C9454040895BC0183E00C94A1050F9358
:100C00001F93CF93DF93C82FD62F86E0C89FF001A4
:100C10001124E75AF64F11A2878D90A181309105DA
:100C2000F1F058F082309105F1F1039709F440C0DA
:100C3000DF91CF911F910F9108956623C9F361E071
:100C400070E08C2F0E94B9010E9487046093B10963
:100C50007093B2098093B3099093B409E9CF0E94CD
:100C600087040091B1091091B2092091B309309124
:100C7000B409AB01BC01401B510B620B730B80919B
:100C8000C3099091C409B0E0A0E084179507A607B6
:100C9000B70748F462E070E08C2FDF91CF911F918D
:100CA0000F910C94B90163E070E0D111C1CFF4CF82
:100CB00070E060E0F1CF0F931F930E948704609370
:100CC000B8087093B9088093BA089093BB0880EB7A
:100CD00098E00E942C0297FF1DC00E94870400919B
:100CE000B8081091B9082091BA083091BB08601B70
:100CF000710B820B930B0091B4081091B5082091F1
:100D0000B6083091B7086017710782079307F8F2A9
:100D10008FEF9FEF1F910F91089520911107260FDC
:100D20003327331F21323105ECF420915A07FC019F
:100D300090E080E0243069F082E00895A0911107EE
:100D40002191AC014F50594FA40FB52FB11D2C93D9
:100D50000196861798F380911107680F6093110729
:100D600080E0089581E0089510925A0781E0809311
:100D700059071092340761E084E10E94BD0361E0ED
:100D800085E10E94BD03E9EBF0E080818E7F8083E6
:100D900080818D7F808388E48093B80085E4809390
:100DA000BC000895CF93DF9391E09093F0068823E1
:100DB000B9F0C091B800D091BA008091BC008A7B94
:100DC0008093BC0060E084E10E94BD0360E085E1A7
:100DD0000E94BD030E94B406D093BA00C093B8002D
:100DE000DF91CF9108950895E09194078091930742
:100DF000E81730F4F0E0E053F94F808190E0089577
:100E00008FEF9FEF089590919407809193072FEFB4
:100E10003FEF981748F4E92FF0E0E053F94F2081B5
:100E200030E09F5F90939407C901089580919307E4
:100E300090919407891B990B0895CF92DF92EF92BE
:100E4000FF920F931F93CF93DF937C01CB018A0115
:100E500020916007222389F0EB016B01C40ED51E9F
:100E6000CC15DD0569F06991D701ED91FC910190F8
:100E7000F081E02DC7011995F3CF642F0E948D06F4
:100E8000C801DF91CF911F910F91FF90EF90DF90FC
:100E9000CF900895CF93DF931F92CDB7DEB76983CC
:100EA000209160072223F9F020919107203258F019
:100EB00021E030E0FC013383228390E080E00F905A
:100EC000DF91CF91089580919207E82FF0E0EF59DC
:100ED000F84F998190838F5F809392078093910759
:100EE00081E090E0ECCF61E0CE0101960E948D069A
:100EF000F7CFCF92DF92EF92FF920F931F93CF9392
:100F0000DF93FC01C48121E020936007C093810737
:100F100010929207109291078385682B8DE499E0D7
:100F20000E944A07D0919107D13208F092C00E94E6
:100F30002F046B017C0180915A07811165C082E00A
:100F400080935A0781E0809359078FEF8093580769
:100F500010925707D0935607A1E6B7E0E6E3F7E013
:100F600080E0D81385C01092350780913507CC0FEB
:100F7000C82BC093350780913407813009F07CC0BD
:100F8000109234070E942F046B017C018091350779
:100F90008093BB0080915C0790915D07A0915E07F4
:100FA000B0915F07892B8A2B8B2B99F00E942F041D
:100FB00000915C0710915D0720915E0730915F07FB
:100FC0006C197D098E099F0906171707280739072D
:100FD000E0F18091BC0083FDD9CF85EC8093BC000B
:100FE0000E942F046B017C0180915A07823009F422
:100FF00045C0809158078F3F61F18091580780323A
:1010000041F18091580725C080915C0790915D0760
:10101000A0915E07B0915F07892B8A2B8B2B09F477
:101020008ACF0E942F0400915C0710915D072091E8
:101030005E0730915F076C197D098E099F090617BD
:1010400017072807390708F076CF80915B070E94C1
:10105000D206109292071092910710926007DF91CA
:10106000CF911F910F91FF90EF90DF90CF90089557
:101070009D9191938F5F75CF85EEB0CF80915C0786
:1010800090915D07A0915E07B0915F07892B8A2B35
:101090008B2B09F4A9CF0E942F0400915C071091BB
:1010A0005D0720915E0730915F076C197D098E09FD
:1010B0009F09061717072807390708F095CFC5CFEE
:1010C00090E080E008958091090890910A08A0912D
:1010D0000B08B0910C0840919507509196076091CC
:1010E000970770919807841B950BA60BB70B8093FD
:1010F000090890930A08A0930B08B0930C08089570
:101100000F931F93CF93DF93C3E2D3E08E01F801D7
:1011100080810E5F1F4F61E00E94BD03F3E00D323E
:101120001F07A9F764EF71E080E090E00E9454048B
:101130008881229660E00E94BD0383E0CD32D8070B
:10114000B9F7DF91CF911F910F9108950F931F93DE
:10115000CF938C01C62F0E9479076C2F6460C80161
:101160000E9479076C2F6B7FC8010E94790783EC7E
:1011700090E00197F1F7CF911F910F9108950F9390
:101180001F93CF93DF938C01D62FC42F607F642BE6
:101190000E94A60880E1D89FB00111246C2BC801E1
:1011A000DF91CF911F910F910C94A608CF93DF93FD
:1011B00000D000D01F921F92CDB7DEB788E0E3ECDD
:1011C000F2E0DE01119601900D928A95E1F780918F
:1011D000F60981111AC08FEF90E0880F991F21E066
:1011E00030E02C0F3D1F820F931FFC01608160686F
:1011F00040E08EEE99E028960FB6F894DEBF0FBE61
:10120000CDBFDF91CF910C94BF0881E0E5CF40E0E6
:1012100061E08EEE99E00E94BF088BE39FE10197A9
:10122000F1F7089541E00E94BF0881E090E0089541
:101230000F931F93CF93DF93FC0104811581011558
:10124000110539F4FB011082DF91CF911F910F91AD
:101250000895415051094017510708F48A01EB01E4
:10126000FC0160817181A801CE010E943920C00F6C
:10127000D11F1882E9CF0C94BA1DCF92DF92EF9262
:10128000FF920F931F93CF93DF93EB017B0124E039
:10129000E20EF11C8B016C01C61AD70AC601800F41
:1012A000911F0E94B21DF80181938F01EE15FF0579
:1012B000A9F7CE01DF91CF911F910F91FF90EF9091
:1012C000DF90CF9008959F92AF92BF92CF92DF921E
:1012D000EF92FF920F931F93CF93DF935C017B01FB
:1012E0008B01D0E0C0E0F80191908F016501CC0E38
:1012F000DD1EC6010E94B21D981621F0692DC6019F
:101300000E94BA1D2196C430D10569F7C701DF914B
:10131000CF911F910F91FF90EF90DF90CF90BF90F2
:10132000AF909F9008950C94B21DFC018081918133
:10133000009711F00C94761D60E070E0CB010895E9
:10134000FB0101900020E9F73197AF01461B570BD5
:10135000DC01ED91FC910280F381E02D199467E6A8
:1013600073E080EB98E00C94A0098F929F92AF926B
:10137000BF92EF92FF920F931F93CF93DF93CDB75E
:10138000DEB7A1970FB6F894DEBF0FBECDBF7C01CC
:10139000FA01CB0119A2223008F42AE08E010F5D78
:1013A0001F4F822E912CB12CA12CBF01A5019401BD
:1013B0000E94E21DF901CA016A300CF5605DD80196
:1013C0006E938D01232B242B252B79F790E080E061
:1013D000109721F0BD01C7010E94A009A1960FB688
:1013E000F894DEBF0FBECDBFDF91CF911F910F915B
:1013F000FF90EF90BF90AF909F908F900895695CA1
:10140000DECFCF92DF92EF92FF92CF93DF936C010A
:10141000990FEE08FF08F7FE1BC06DE280EB98E025
:101420000E949002EC0144275527BA014C195D092E
:101430006E097F092AE080EB98E00E94B5098C0FC5
:101440009D1FDF91CF91FF90EF90DF90CF90089597
:101450002AE0B701A60180EB98E0DF91CF91FF90E1
:10146000EF90DF90CF900C94B509CF93DF93AB0151
:10147000BC012AE080EB98E00E94B509EC010E94D3
:10148000AF098C0F9D1FDF91CF910895CF93DF930C
:10149000BC0180EB98E00E94A009EC010E94AF091A
:1014A0008C0F9D1FDF91CF9108950C94A009CF93CD
:1014B000DF93EC010E940709BE018EEE99E00E94C5
:1014C000550A0E94D60860E072E08EEE99E00E9414
:1014D000550A0E9487046E5D7340810991096093EB
:1014E0000008709301088093020890930308DF912D
:1014F000CF910895CF93DF93EC010E940709BE01BD
:101500008EEE99E00E94550A0E94D60861E272E0D0
:101510008EEE99E00E94550A0E9487046E5D73402A
:101520008109910960930008709301088093020873
:1015300090930308DF91CF910895FB014481558179
:10154000FC01248135812417350778F08081918151
:10155000009759F0FB01608171816115710529F0D7
:101560000E942B2021E0892B09F020E0822F089592
:101570000F931F93CF93DF938C01EB01FC018081CC
:1015800091810097E1F06881798161157105A9F079
:10159000428153812C813D814217530770F00E9494
:1015A00024208C819D81F801958384831D821C8277
:1015B000DF91CF911F910F9108950E94A81E8881FD
:1015C0009981F801918380838A819B8193838283AF
:1015D0008C819D8195838483198218821B821A8253
:1015E000E5CFCF93DF93EC0188819981009711F0CB
:1015F0000E94A81E198218821D821C821B821A82D8
:10160000DF91CF910895FC0180819181009711F0C5
:101610000C94A81E08950F931F93CF93DF93EC01B2
:1016200088819981009759F02A813B8126173707D5
:1016300030F081E0DF91CF911F910F9108958B01E0
:101640006F5F7F4F0E94311F009759F09983888305
:101650001B830A832C813D81232B59F7FC011082C7
:10166000E8CF80E0E7CFEF92FF920F931F93CF93E5
:10167000DF93EC017B01198218821B821A821D8282
:101680001C82FB0101900020E9F731978F01061BB6
:10169000170BB8010E940B0B811109C0CE01DF911D
:1016A000CF911F910F91FF90EF900C94F10A1D8341
:1016B0000C83B70188819981DF91CF911F910F91A0
:1016C000FF90EF900C9424209F92AF92BF92CF9204
:1016D000DF92EF92FF920F931F93CF93DF937C01E2
:1016E0006B015A0189012417350720F48B2D59010C
:1016F000042F182F69E673E0C7010E94330BD6014F
:101700001496CD91DC91AC16BD0650F50C171D0753
:1017100008F4E801D601ED91FC911197EC0FFD1F43
:10172000908010820D911C910A0D1B1D0115110551
:1017300071F0F80101900020E9F731975F01A01ADC
:10174000B10AB501C7010E940B0B811116C0C70178
:101750000E94F10AD6018D919C91C80FD91F9882E1
:10176000C701DF91CF911F910F91FF90EF90DF9014
:10177000CF90BF90AF909F900895F701B582A4825B
:10178000B801808191810E942420E4CFCF93DF9320
:10179000EC01FB01248135810E94640BCE01DF91B5
:1017A000CF91089585ED8093BC0080915C07909166
:1017B0005D07A0915E07B0915F070796A11DB11D5F
:1017C00023E0B695A795979587952A95D1F720910F
:1017D000BC0024FD03C010925A07089540915C0795
:1017E00050915D0760915E0770915F07452B462B16
:1017F000472B69F30097A105B10541F02AE22A952C
:10180000F1F700C00197A109B109E1CF80915B0711
:101810000C94D2061F920F920FB60F9211240BB6A2
:101820000F922F933F934F935F936F937F938F9379
:101830009F93AF93BF93EF93FF9383E198E00E9450
:101840006E02FF91EF91BF91AF919F918F917F9128
:101850006F915F914F913F912F910F900BBE0F9021
:101860000FBE0F901F9018951F920F920FB60F92F8
:1018700011240BB60F922F938F939F93EF93FF93A7
:10188000E0912308F09124088081E0912908F091EB
:101890002A0882FD1DC0908180912C088F5F8F7374
:1018A00020912D08821741F0E0912C08F0E0ED5EC8
:1018B000F74F958F80932C08FF91EF919F918F9117
:1018C0002F910F900BBE0F900FBE0F901F90189589
:1018D0008081F2CF1F920F920FB60F9211240BB698
:1018E0000F922F933F934F935F936F937F938F93B9
:1018F0009F93AF93BF93EF93FF9380EB98E00E9489
:101900006E02FF91EF91BF91AF919F918F917F9167
:101910006F915F914F913F912F910F900BBE0F9060
:101920000FBE0F901F9018951F920F920FB60F9237
:1019300011240BB60F922F938F939F93EF93FF93E6
:10194000E091C008F091C1088081E091C608F09153
:10195000C70882FD1DC090818091C9088F5F8F7379
:101960002091CA08821741F0E091C908F0E0E055E3
:10197000F74F958F8093C908FF91EF919F918F91B9
:101980002F910F900BBE0F900FBE0F901F901895C8
:101990008081F2CF1F920F920FB60F9211242F93D6
:1019A0003F938F939F93AF93BF93809185079091BF
:1019B0008607A0918707B09188073091840723E0BC
:1019C000230F2D3758F50196A11DB11D20938407D3
:1019D0008093850790938607A0938707B093880725
:1019E0008091890790918A07A0918B07B0918C070D
:1019F0000196A11DB11D8093890790938A07A0933A
:101A00008B07B0938C07BF91AF919F918F913F91BE
:101A10002F910F900FBE0F901F90189526E8230F5F
:101A20000296A11DB11DD2CF1F920F920FB60F9239
:101A300011240F900FBE0F901F9018951F920F92B8
:101A40000FB60F9211240BB60F922F933F934F9323
:101A50005F936F937F938F939F93AF93BF93EF9316
:101A6000FF938091B900887F803609F44DC008F05B
:101A700040C0883209F4A9C028F5803109F49DC01E
:101A8000C8F4882309F4FBC0883009F496C0FF919C
:101A9000EF91BF91AF919F918F917F916F915F91E6
:101AA0004F913F912F910F900BBE0F900FBE0F9053
:101AB0001F901895883109F488C0803241F78093CF
:101AC000580714C0803409F49DC040F48033B9F342
:101AD0008833E9F68093580785ECB0C0803509F467
:101AE00085C0883509F496C0883489F60E94D20BE7
:101AF000CECF883909F48CC038F5883729F050F4F6
:101B0000883611F0803719F683E080935A071092D7
:101B1000330757C0883809F47BC0803919F0803802
:101B200009F0B5CF80913307803208F071C0E091A1
:101B3000330781E08E0F809333078091BB00F0E084
:101B4000ED5EF84F80833DC0803B39F0E0F4803A91
:101B500009F479C0883A09F09ACF84E080935A0753
:101B60001092120710921107E0918D07F0918E07E5
:101B700019958091110781110FC081E080931107A1
:101B80001092F10609C0803C09F4A6CF883C09F404
:101B9000A3CF883B09F07BCFE091120781E08E0F45
:101BA00080931207F0E0EF50F94F80818093BB00E3
:101BB000909112078091110729C080913507809379
:101BC000BB0085EC8093BC0062CF90915707809159
:101BD0005607981758F5E091570781E08E0F8093CC
:101BE0005707F0E0EA5CF84F8081E9CFE0915707B2
:101BF00081E08E0F809357078091BB00F0E0EA5C94
:101C0000F84F808390915707809156079817C8F234
:101C100085E8D8CFE091570781E08E0F8093570772
:101C20008091BB00F0E0EA5CF84F80838091590717
:101C300081115CCF81E08093340784EA8093BC00FB
:101C400010925A0724CF85EC8093BC0010925A075B
:101C500080913307803230F4E0913307F0E0ED5E9D
:101C6000F84F10826091330770E0E0918F07F09198
:101C7000900783E197E019951092330708CF1092EF
:101C8000580734CF109216081092150888EE93E08A
:101C9000A0E0B0E08093170890931808A09319086B
:101CA000B0931A0821E333E030931408209313080B
:101CB0004DEC50E05093200840931F084CEC50E04E
:101CC000509322084093210848EC50E05093240898
:101CD0004093230849EC50E0509326084093250890
:101CE0004AEC50E050932808409327084EEC50E00F
:101CF00050932A084093290810922C0810922D081E
:101D000010922E0810922F081092B3081092B20869
:101D10008093B4089093B508A093B608B093B70821
:101D20003093B1082093B00825EC30E03093BD0823
:101D30002093BC0824EC30E03093BF082093BE0809
:101D400020EC30E03093C1082093C00821EC30E053
:101D50003093C3082093C20822EC30E03093C508CA
:101D60002093C40826EC30E03093C7082093C608BF
:101D70001092C9081092CA081092CB081092CC0891
:101D80001092500910924F09809351099093520973
:101D9000A0935309B093540983E493E090934E09C0
:101DA00080934D091092F1091092F0098FE593E0AC
:101DB0009093EF098093EE0987E28093F20980E126
:101DC0008093F70982E08093F8091092F90944EFB3
:101DD00051E060E070E04093CE095093CF096093EA
:101DE000D0097093D1099AE0EBECF2E0ACEDB9E0E8
:101DF00001900D929A95E1F71092E6098093E70918
:101E00001092EC091092ED0910925B0910925F0993
:101E100010925E091092600985E593E090935A094B
:101E200080935909E5E7F9E0108214821382158244
:101E3000369689E0E13BF807B9F789EA92E090939A
:101E4000BC098093BB0985EA92E09093BE09809318
:101E5000BD0984E08093BF098093C0098DEA92E0B8
:101E60009093BA098093B9098AE090E09093C209EF
:101E70008093C10984EF91E09093C4098093C309D2
:101E80001092C7091092C6091092B5091092B609AE
:101E90001092B7091092B8091092C5090895CF930E
:101EA000DF93CDB7DEB7CA51D1400FB6F894DEBF8D
:101EB0000FBECDBF789484B5826084BD84B5816047
:101EC00084BD85B5826085BD85B5816085BD809105
:101ED0006E00816080936E0010928100809181007D
:101EE0008260809381008091810081608093810075
:101EF000809180008160809380008091B100846037
:101F00008093B1008091B00081608093B000809197
:101F10009100826080939100809191008160809314
:101F20009100809190008160809390008091A10049
:101F300082608093A1008091A10081608093A100C4
:101F40008091A00081608093A00080912101826037
:101F500080932101809121018160809321018091F2
:101F6000200181608093200180917A0084608093B9
:101F70007A0080917A00826080937A0080917A0062
:101F8000816080937A0080917A00806880937A00E3
:101F90001092C10080EB98E00E94920183E198E0EA
:101FA0000E94920110929407109293071092920748
:101FB000109291070E94B4068CED91E090938E07E9
:101FC00080938D078DED91E09093900780938F071C
:101FD0000E94B4061092F3098091F809823018F03B
:101FE00098E09093F3098093F60962E370E080E053
:101FF00090E00E9454046091F9098EEE99E00E94ED
:10200000790768EE73E080E090E00E94540460E39A
:102010008EEE99E00E94A6080BE416E4C801019731
:10202000F1F760E38EEE99E00E94A608C8010197DF
:10203000F1F760E38EEE99E00E94A60883E592E056
:102040000197F1F760E28EEE99E00E94A608609198
:10205000F309606240E08EEE99E00E94BF0884E0E0
:102060008093F40940E06CE08EEE99E00E94BF0896
:102070000E94070982E08093F50940E066E08EEE59
:1020800099E00E94BF0840E062E08EEE99E00E9475
:10209000BF088BE39FE10197F1F788E08093F9098E
:1020A00060E08EEE99E00E9479070E9407096AE6D7
:1020B00073E08EEE99E00E94550A0E94D6086AE706
:1020C00073E08EEE99E00E94550A68EE73E080E0BE
:1020D00090E00E94540483E198E09093C9098093B2
:1020E000C80981E08093E00970E060E08CE00E9424
:1020F000A1050E9487046B017C010E949304811159
:1021000011C00E9487046C197D098E099F09613DE9
:1021100077408105910530F460E070E0CB010E94CA
:102120005404EBCF68EC70E080E090E00E9454042F
:102130001092EC098091E809843051F0893041F027
:102140000E94070966E873E08EEE99E00E94550A46
:1021500069E170E086E00E94A10543E2E42E43E0DD
:10216000F42E09E113E0F801D0800E5F1F4F61E00B
:102170008D2D0E94EF0361E08D2D0E94BD03F701BC
:10218000D080F2E0EF0EF11C61E08D2D0E94EF0394
:1021900061E08D2D0E94BD0323E00332120719F781
:1021A00033E2E32E33E0F32E89E193E0CB5EDE4FA2
:1021B00099838883C551D140CB5EDE4FE881F98198
:1021C000C551D14080813296CB5EDE4FF983E883E2
:1021D000C551D14060E00E94BD03F7018081F2E06B
:1021E000EF0EF11C60E00E94BD03CB5EDE4F288144
:1021F0003981C551D14002171307F1F662E087E239
:102200000E94EF0385ED92E0C95EDE4F99838883DB
:10221000C751D140C95EDE4FE881F981C751D14035
:1022200080813296C95EDE4FF983E883C751D14081
:1022300062E00E94EF03C95EDE4F28813981C751F9
:10224000D140215E324031F701EE12E0F801808189
:102250000E5F1F4F62E00E94EF03F2E00D3E1F078A
:10226000A9F729E1E22E23E0F22E09EF12E0F801AE
:1022700080810E5F1F4F62E00E94EF03E016F106BF
:10228000B1F769E078E090E080E00E943D0965E9FF
:1022900077E084E090E00E943D0909E917E088E0DA
:1022A00090E07C01FFEFEF1AFF0A0E94930990E093
:1022B000F801819391938F01C7018E30910589F7C1
:1022C00095EAC92E97E0D92E87010F5F1F4FC701EE
:1022D0000E94930990E0F601819391936F01780138
:1022E0000431110589F781EBE82E87E0F82EC8014B
:1022F0000E94B21DF7018083C80101960E94B21DA1
:10230000F7018183F2E0EF0EF11C0E5F1F4F0032E8
:10231000110569F7BDEBEB2EB7E0FB2E00E210E0F4
:1023200068012FEFC21AD20AC8010E94930990E0F7
:10233000F701918380830E5F1F4FC6010E949309AE
:1023400090E0F70193838283F4E0EF0EF11C0033F9
:10235000110531F7AFEDEA2EA7E0FA2E68012FEF55
:10236000C21AD20AC8010E949309F70181937F0122
:1023700086010A33110591F702E412E07601FFEFBE
:10238000EF1AFF0AC6010E949309F80181938F0199
:102390006701FBE5EF16F10489F7F1E2CF2EF2E0D9
:1023A000DF2E87010F5F1F4FC7010E949309F601BF
:1023B00081936F0178010C37110599F7E0E0CE2E7B
:1023C000E2E0DE2E78012FEFE21AF20AC8010E9445
:1023D0009309F60181936F0187010D39110591F77A
:1023E00073E6C72E72E0D72E87010F5F1F4FC7011C
:1023F0000E949309F60181936F0178010E3B11054C
:1024000099F764E8E62E62E0F62E68012FEFC21A13
:10241000D20AC8010E949309F70181937F018601C6
:102420000F3D110591F781E993E00E94460A62E3AE
:1024300070E080E090E00E94540467EA73E080EB73
:1024400098E00E94550A6091090870910A088091ED
:102450000B0890910C0858EEC52E53E0D52EE12CB8
:10246000F12CA70196010E94E21DCA01B9010E9448
:10247000350A62E370E080E090E00E94540463EB70
:1024800073E080EB98E00E94550A60919507709187
:1024900096078091970790919807A70196010E944F
:1024A000E21DCA01B9010E94350A62E370E080E0D2
:1024B00090E00E9454046DEB73E080EB98E00E9482
:1024C000550A09E917E0F801819191918F010E9465
:1024D000010AF7E0053A1F07B1F70E94AF0962E36E
:1024E00070E080E090E00E94540468EC73E080EBC0
:1024F00098E00E94550A01EB17E025EA37E0C75E35
:10250000DE4F39832883C951D140C75EDE4FE88151
:10251000F981C951D14081919191C75EDE4FF98314
:10252000E883C951D1400E94010AC75EDE4F28816D
:102530003981C951D1400217130739F70E94AF09F9
:1025400062E370E080E090E00E94540462ED73E08A
:1025500080EB98E00E94550A41EBE42E47E0F42E10
:1025600010E000E0F701819191917F010E94010A42
:102570000530110531F069ED73E080EB98E00E94C1
:10258000550A0F5F1F4F0630110561F70E94AF0912
:1025900062E370E080E090E00E9454046CED73E030
:1025A00080EB98E00E94550A0DED17E03DEB232EDD
:1025B00037E0332EF101808191810E94010A69ED9B
:1025C00073E080EB98E00E94550AF10182819381CB
:1025D0000E94010A69ED73E080EB98E00E94550AC1
:1025E0000E94AF09F4E02F0E311C0215130511F7FC
:1025F00062E370E080E090E00E94540464EE73E0D7
:1026000080EB98E00E94550A8FED97E00E94460A01
:1026100062EF73E080EB98E00E94550A82E492E05A
:102620000E94460A62E074E080EB98E00E94550A3E
:1026300081E292E00E94460A64E174E080EB98E057
:102640000E94550A80E092E00E94460A9E012F5F98
:102650003F4F390180EB98E00E944E021816190690
:102660000CF008C169E673E0CE01835F9E4F0E94C3
:10267000330B0E945B0697FD2DC08A30910551F106
:1026800089831A82CF5EDE4F08811981C151D14002
:102690000F5F1F4FB801CE01835F9E4F0E940B0B4F
:1026A000882339F3C35FDE4F28813981CD50D14073
:1026B000CF5EDE4F88819981C151D140B301820F35
:1026C000931F0E942420CF5EDE4F19830883C151DF
:1026D000D140CFCF64EF71E080E090E00E945404DD
:1026E00064E274E0C3010E94330BB301CE01835F47
:1026F0009E4F0E949D0A182FC3010E94030B1123B5
:1027000009F41DC544E050E0BE01635F7E4FC30184
:102710000E94C60BB301CE01835F9E4F0E94B80A90
:10272000C3010E94030B69ED74E0C3010E94330BE7
:10273000B301CE01835F9E4F0E949D0A182FC301F3
:102740000E94030B112309F14AE050E0BE01635FD0
:102750007E4FC3010E94C60BC3010E9495099B01D5
:10276000AC01A8EEB3E00E94C81D60930908709305
:102770000A0880930B0890930C08C3010E94030B76
:1027800089E294E00E94460A70C06BEE74E0C301D7
:102790000E94330BB301CE01835F9E4F0E949D0ABE
:1027A000182FC3010E94030B1123F9F048E050E0F9
:1027B000BE01635F7E4FC3010E94C60BC3010E942E
:1027C00095099B01AC01A8EEB3E00E94C81D60937F
:1027D0009507709396078093970790939807C30186
:1027E0000E94030B86E394E0CDCF6BEF74E0C3014E
:1027F0000E94330BB301CE01835F9E4F0E949D0A5E
:10280000182FC3010E94030B112309F45FC149E093
:1028100050E0BE01635F7E4FC3010E94C60B0D8175
:102820001E81F12CE12CE016F10688F4B701C301FA
:102830000E94DE01F701EE0FFF1FE756F84F21E07F
:1028400030E0813311F030E020E0318320833FEF2E
:10285000E31AF30A86E0E816F10429F781E494E02C
:102860000E94460AC3010E94030BCE01835F9E4F64
:102870000E94030B8091120881114EC080911108B3
:102880008111E9C687E20E949103892B09F0E3C612
:1028900081E0809312080E94870460930D08709372
:1028A0000E0880930F08909310081092DE07109284
:1028B000DD0710920808109207081092060810927F
:1028C0000508109204080E94070962E472E08EEE87
:1028D00099E00E94550A0E94D6086AE773E08EEEDE
:1028E00099E00E94550A81E090E00E94FB0568E8AB
:1028F00073E180E090E00E9454040E94870460939A
:102900000008709301088093020890930308809157
:102910001208882309F49FC630911108CD5EDE4F5E
:102920003883C351D140311196C60E94870400916B
:102930000008109101082091020830910308601BE3
:10294000710B820B930B683E73408105910508F46F
:102950004AC0C0900D08D0900E08E0900F08F0908B
:1029600010080E9487046093000870930108809308
:102970000208909303080E9487044B015C018C18A5
:102980009D08AE08BF08C0900908D0900A08E090E2
:102990000B08F0900C088C149D04AE04BF0418F5CD
:1029A0000E9407096AEA75E08EEE99E00E94550AD6
:1029B0000E94D608C701B601681979098A099B09DE
:1029C00028EE33E040E050E00E94E21DBA01A90188
:1029D0002AE08EEE99E00E94B5096AEB75E08EEE72
:1029E00099E00E94550A0E94870400910D081091F9
:1029F0000E0820910F0830911008601B710B820B9C
:102A0000930B0091090810910A0820910B0830914E
:102A10000C08601771078207930738F181E08093F3
:102A200011080E94070964E872E08EEE99E00E94A6
:102A3000550A0E94D60863EC75E08EEE99E00E947C
:102A4000550A83E090E00E94FB054DE2E42E43E04E
:102A5000F42E03E213E0F80180810E5F1F4F61E066
:102A60000E94BD03E016F106B1F781E08093C5092D
:102A70000E9487040091B5091091B6092091B70909
:102A80003091B809AB01BC01401B510B620B730BB9
:102A90008091C1099091C209B0E0A0E08417950728
:102AA000A607B70708F0DBC510E08091BF0918172B
:102AB00008F089C4E091BB09F091BC09E10FF11D58
:102AC00062E080810E94EF031F5FEFCF6CE075E052
:102AD000C3010E94330BB301CE01835F9E4F0E945E
:102AE0009D0A182FC3010E94030B112341F148E0F6
:102AF00050E0BE01635F7E4FC3010E94C60B0D8193
:102B00001E81F12CE12CE016F10678F4B701C30127
:102B10000E94DE01F701EE0FFF1FEB55F84F082E64
:102B2000000C990BC097918380839FEFE91AF90AF3
:102B3000E6E0EE16F10439F78DE494E091CE6CE115
:102B400075E0C3010E94330BB301CE01835F9E4F3A
:102B50000E949D0A182FC3010E94030B112309F440
:102B600079C045E050E0BE01635F7E4FCE01895FD2
:102B70009E4F0E94C60B10E000E0B12CA12CF12C5E
:102B8000E12CC55FDE4FC880D980CB50D1400C15F9
:102B90001D0508F057C0B801CE01895F9E4F0E9405
:102BA000DE018C3231F0F1E0CF1AD1080C151D0591
:102BB000E9F569E673E0CE018F5F9E4F0E94330B0B
:102BC000C55FDE4F88819981CB50D14001970817AE
:102BD000190779F5A501BE01695F7E4FC3010E9407
:102BE000C60BB301CE018F5F9E4F0E94B80AC3018E
:102BF0000E94030B26E0E216F10464F4CE018F5F1D
:102C00009E4F0E949509F701EE0FFF1FEF54F84FFA
:102C10007183608358013FEFA31AB30A8FEFE81A5C
:102C2000F80ACE018F5F9E4F0E94030B0F5F1F4F6C
:102C3000A8CF9801A501BE01695F7E4FC3010E9424
:102C4000640BCFCF88E594E00E94460ACE01895FED
:102C50009E4F09CE6BE275E0C3010E94330BB301B6
:102C6000CE01835F9E4F0E949D0A182FC3010E94D0
:102C7000030B112309F484C046E050E0BE01635FFA
:102C80007E4FCE01895F9E4F0E94C60B10E000E090
:102C9000F12CE12CB12CA12C912C812CC55FDE4FA5
:102CA000C880D980CB50D1400C151D0508F065C0F7
:102CB000B801CE01895F9E4F0E94DE018C3239F04F
:102CC00091E0C91AD1080C151D0509F046C069E646
:102CD00073E0CE018F5F9E4F0E94330BC55FDE4FC6
:102CE00088819981CB50D140019708171907C1F508
:102CF000A501BE01695F7E4FC3010E94C60BB301EF
:102D0000CE018F5F9E4F0E94B80AC3010E94030B41
:102D100038E083169104C4F4CE018F5F9E4F0E9469
:102D20009509F401EE0FFF1FEE0DFF1DEE0FFF1FC3
:102D3000E354F84F71836083EA94EF28D1F4FFEFF6
:102D40008F1A9F0AF12CE12C58012FEFA21AB20A18
:102D5000CE018F5F9E4F0E94030B0F5F1F4F9ECFD0
:102D60009801A501BE01695F7E4FC3010E94640BFB
:102D7000C6CFEE24E394F12CE7CF80E694E064CF55
:102D800069E375E0C3010E94330BB301CE01835F99
:102D90009E4F0E949D0A182FC3010E94030B11230E
:102DA00091F048E050E0BE01635F7E4FC3010E9496
:102DB000C60B4AE050E06FED77E0C3010E941809AE
:102DC00089E694E04DCDCF5EDE4F88819981C15177
:102DD000D140892B09F4E0C067E774E0C35FDE4FA0
:102DE00088819981CD50D1400E941B20892B09F008
:102DF000D3C069E078E090E080E00E94630965E973
:102E000077E084E090E00E94630909E917E088E038
:102E100090E0F80160810E5F1F4F7C01FFEFEF1A19
:102E2000FF0A0E943B09C7018E30910591F745EAE0
:102E3000C42E47E0D42EF6016081F2E0CF0ED11C03
:102E400087010F5F1F4FC7010E943B0978010431C2
:102E5000110589F7C8018356984F7C01680192E0FB
:102E6000C90ED11CF701B1907F01C8010E94B21DAB
:102E7000B81621F06B2DC8010E94BA1D0F5F1F4FBD
:102E80000C151D0579F70032110521F73DEBE32EF6
:102E900037E0F32E6801FFEFCF1ADF0AF7016081F8
:102EA000C8010E943B090E5F1F4FF7016281C601F6
:102EB0000E943B09F4E0EF0EF11C0033110551F7BD
:102EC0002FEDE22E27E0F22EF70161917F016801DC
:102ED000FFEFCF1ADF0AC8010E943B0986010A33BF
:102EE000110591F702E412E0F80161918F0176017A
:102EF000FFEFEF1AFF0AC6010E943B0967012BE5AD
:102F0000E216F10489F791E2C92E92E0D92EF6017A
:102F100061916F0187010F5F1F4FC7010E943B093D
:102F200078010C37110599F780E0C82E82E0D82E81
:102F3000F60161916F017801FFEFEF1AFF0AC801F6
:102F40000E943B0987010D39110591F7B3E6CB2E9D
:102F5000B2E0DB2EF60161916F0187010F5F1F4F19
:102F6000C7010E943B0978010E3B110599F7A4E8BF
:102F7000EA2EA2E0FA2EF70161917F016801FFEFCE
:102F8000CF1ADF0AC8010E943B0986010F3D1105D7
:102F900091F784E794E0F6CB6CE774E0C3010E94FC
:102FA000330BB301CE01835F9E4F0E949D0A182F01
:102FB000C3010E94030B112309F457CC44E050E0F5
:102FC000BE01635F7E4FC3010E94C60BB301CE01F9
:102FD000835F9E4F0E94B80AC3010E94030B6DE4F9
:102FE00075E0C3010E94330BB301CE01835F9E4F96
:102FF0000E949D0A182FC3010E94030B112391F018
:1030000046E050E0BE01635F7E4FC3010E94C60BE5
:1030100041E250E062E472E0C3010E94180981E8D5
:1030200094E01ECC6FE575E0C3010E94330BB30141
:10303000CE01835F9E4F0E949D0A182FC3010E94FC
:10304000030B112391F048E050E0BE01635F7E4F17
:10305000C3010E94C60B41E250E061E272E0C3018D
:103060000E9418098EE894E0FBCB63E775E0C3018A
:103070000E94330BB301CE01835F9E4F0E949D0AD5
:10308000182FC3010E94030B112391F046E050E07A
:10309000BE01635F7E4FC3010E94C60B41E250E058
:1030A00060E072E0C3010E9418098DE994E0D8CB7A
:1030B00065E875E0C3010E94330BB301CE01835F65
:1030C0009E4F0E949D0A182FC3010E94030B1123DB
:1030D00091F048E050E0BE01635F7E4FC3010E9463
:1030E000C60B41E250E063E672E0C3010E9418099A
:1030F0008AEA94E0B5CB69E975E0C3010E94330B1D
:10310000B301CE01835F9E4F0E949D0A182FC30119
:103110000E94030B112309F4A8CB47E050E0BE0145
:10312000635F7E4FC3010E94C60B41E250E064E83A
:1031300072E0C3010E94180989EB94E091CBCF5E45
:10314000DE4F88819981C151D140892B09F48DCB03
:10315000C35FDE4FE880F980CD50D14067EC74E06A
:10316000C7010E941B208C01892B09F0EFC062ED82
:1031700074E080EB98E00E94550A60910908709114
:103180000A0880910B0890910C0828EE33E040E08B
:1031900050E00E94E21DCA01B9010E94350A64EEA6
:1031A00074E080EB98E00E94550A60919507709159
:1031B0009607809197079091980728EE33E040E0BA
:1031C00050E00E94E21DCA01B9010E94350A64EF75
:1031D00074E080EB98E00E94550AF9E9EF2EF7E0E1
:1031E000FF2EF701819191917F010E94010AF5EA7A
:1031F000EF16F7E0FF06A9F70E94AF0965E075E05A
:1032000080EB98E00E94550AE5EAEE2EE7E0FE2EFC
:10321000F701819191917F010E94010AC75EDE4F03
:1032200028813981C951D140E216F30689F70E94FD
:10323000AF0965E175E080EB98E00E94550A71EBFB
:10324000C72E77E0D72EF12CE12CF60181919191D8
:103250006F010E94010AF5E0EF16F10431F062E21D
:1032600075E080EB98E00E94550A2FEFE21AF20A0F
:1032700036E0E316F10449F70E94AF0964E275E015
:1032800080EB98E00E94550A6DEBE62E67E0F62E83
:10329000F701808191810E94010A62E275E080EB72
:1032A00098E00E94550AF701828193810E94010AE9
:1032B0000730110531F062E275E080EB98E00E9482
:1032C000550A0F5F1F4FF4E0EF0EF11C0830110597
:1032D000F9F60E94AF0962E375E080EB98E00E9486
:1032E000550A8FED97E00E94460A62E475E080EB94
:1032F00098E00E94550A82E492E00E94460A64E542
:1033000075E080EB98E00E94550A81E292E00E940D
:10331000460A68E675E080EB98E00E94550A80E076
:1033200092E00E94460A6AE775E080EB98E00E940E
:10333000550A83E692E00E94460A6EE875E080EB4B
:1033400098E00E94550A84E892E01CCA64EA75E09D
:10335000C7010E941B20892B09F087CA109212080E
:103360001092110803E213E059E1E52E53E0F52E27
:10337000F7018081F2E0EF0EF11C60E00E94BD03D6
:10338000F80180810E5F1F4F60E00E94BD03CB5E9D
:10339000DE4F28813981C551D1402E153F0541F7B7
:1033A0000E9407096AE673E08EEE99E00E94550AD2
:1033B0000E94D6086AE773E08EEE99E00E94550AF3
:1033C00081EA95E0DFC9912C8091C009981608F038
:1033D00063C0E92CF12CE091BD09F091BE09EE0D1E
:1033E000FF1D61E080810E94EF03E091BD09F09133
:1033F000BE09EE0DFF1D60E080810E94BD0381E0EB
:1034000090E0A0E0B0E0092C04C0880F991FAA1F2B
:10341000BB1F0A94D2F75C016C01C094D094512C6C
:103420008091BF09581608F5052D10E0E091BB0901
:10343000F091BC09E00FF11F80810E9491030C5FA5
:103440001F4F000F111FF801E75AF64F892B41F467
:10345000808191818A299B29918380835394E0CF35
:10346000808191818C219D21F7CFE091BD09F09160
:10347000BE09EE0DFF1D61E080810E94BD038091B9
:10348000BD099091BE09E80EF91E60E0F701808148
:103490000E94EF03939498CF29E5E22E29E0F22EC3
:1034A0008701F801878D90A1892B31F4148E2FEFBD
:1034B0003FEF368F258F11A20A5F1F4F85E999E0F4
:1034C0008017910771F7D12C96E0B92E8091BF0932
:1034D000D81608F052C0C12C4D2C512C440C551C50
:1034E000F201EF59F64F2F012091C009C21608F0E2
:1034F00042C0F201608171810C2C02C07695679503
:103500000A94E2F7D29E900111242C0D311DE9E5B9
:10351000F9E080E0458D568D2417350709F4DEC2A9
:103520008F5F36968A30B1F760FF23C0E9E5F9E096
:1035300090E080E0448D411117C0E091B909F0910D
:10354000BA09E20FF31F4081B89EF001B99EF00D59
:103550001124E75AF64F448F368F258F10A2178E0D
:1035600061E00E94FF0505C0019636968A309105FC
:1035700009F7C394B9CFD394A9CFF70181A18823C8
:1035800029F0CD5EDE4F8883C351D140F6E0EF0EC7
:10359000F11C0E151F0589F70E9487046093B50979
:1035A0007093B6098093B7099093B809CD5EDE4F4A
:1035B0002881C351D140222309F451C080917A0956
:1035C000882309F44CC0809178099091790901977A
:1035D00009F045C040917509411144C08091080827
:1035E0008823C9F1809107088823A9F180910608F2
:1035F000882389F180910508882369F18091040866
:10360000882349F181E0809311080E94070963E64D
:1036100072E08EEE99E00E94550A0E94D6086FE48F
:1036200076E08EEE99E00E94550A82E090E00E94DA
:10363000FB0509E113E0F80180810E5F1F4F61E097
:103640000E94BD03CB5EDE4F28813981C551D14038
:103650002017310781F70E94FD020C942A13109263
:10366000C509BCCF8091FF074A3209F0FCC1811126
:103670001AC081E08093FF071092FE071092FD07A9
:103680001092E9070E9407096EEC75E08EEE99E052
:103690000E94550A0E94D6086FED75E08EEE99E003
:1036A0000E94550A9BCF809108081092FF07811154
:1036B00033C009E917E0B5EDEB2EB2E0FB2EF701C0
:1036C0008081F2E0EF0EF11C0E949103F80141911C
:1036D00051918F0121E030E0892B11F030E020E0A2
:1036E0002417350709F0FCC1C95EDE4F28813981F6
:1036F000C751D1402E153F0511F781E0809308088E
:103700008091DD079091DE0701969093DE0780930C
:10371000DD078FE596E061C180910708811138C00F
:10372000F5EACF2EF7E0DF2EA1EEEA2EA2E0FA2E88
:1037300010E000E0F7018081F2E0EF0EF11C0E9442
:103740009103AC01F601819191916F010F5F1F4FC1
:1037500021E08017910709F020E091E0452B09F066
:1037600090E0291719F081E896E013C106301105A1
:1037700009F781E0809307088091DD079091DE07CB
:1037800001969093DE078093DD0783E996E025C1DB
:1037900040900608411042C0EDEEF2E029EF32E021
:1037A000A1EBB7E080813296863308F086534091D2
:1037B0007B00982F9870477F942B90937B008770A5
:1037C000806480937C0080917A00806480937A008A
:1037D00080917A0086FDFCCF8091780090917900ED
:1037E0004D915D91841B950B97FF03C09195819539
:1037F0009109C3970CF077C12E173F0799F681E026
:10380000809306088091DD079091DE0701969093E2
:10381000DE078093DD078DEB96E0DFC08091050821
:103820008111F8C080E091E0F3019C0111922150D8
:103830003040E1F75301630189EF92E0CD5EDE4F46
:1038400099838883C351D140F12CE12CCD5EDE4FAA
:10385000E881F981C351D14050803296CD5EDE4F70
:10386000F983E883C351D14061E0852D0E94EF03C5
:1038700060E0852D0E94BD03E9EF8E2EE2E09E2ED2
:1038800010E000E0E016F10659F0F40180810E949A
:103890009103892B29F4F601E00FF11F21E0208329
:1038A0000F5F1F4F32E0830E911C0031110551F75D
:1038B00062E0852D0E94EF038FEFE81AF80A90E18D
:1038C000C90ED11CE0E1EE16F10409F0BFCFADEB5B
:1038D000B7E04D915C91119757FD20C012968D91E4
:1038E0009C91139797FD1AC0FA0174E0EE0FFF1F29
:1038F0007A95E1F7E60DF71DE80FF91F20812223E5
:1039000091F0FC0164E0EE0FFF1F6A95E1F7E60D10
:10391000F71DE40FF51F2081222329F01496A2152C
:10392000B305B9F6242DB30150E040E0DA01119659
:10393000CD0180319105C1F1FB01E80FF91F308104
:1039400031110BC0FC0134E0EE0FFF1F3A95E1F797
:10395000EA0DFB1D3081332361F0EDEBF7E00081D0
:1039600011810417150739F402811381801791071B
:1039700051F40196DECF8017910729F4028113815B
:1039800004171507B1F334962E163F0641F783E06E
:1039900096E00E94570A0E94800885E090E00E940D
:1039A000FB050E9463082FC0222389F3FFEFAF1AA3
:1039B000BF0A605F7F4FAD01509709F0B7CF81E03C
:1039C000809305088091DD079091DE070196909322
:1039D000DE078093DD078EEE95E00E947A0A8091E3
:1039E000DD079091DE07863091054CF4880F991F12
:1039F000FC01E95EFC4F61E080810E94BD0384E030
:103A000090E00E94FB051092FE071092FD071092B5
:103A1000E907E4CD809104088111F5CF8091FD077D
:103A20009091FE071816190674F78751984FFC01FC
:103A300010826FED77E089EE97E00E941B20892BC2
:103A400079F481E0809304088091DD079091DE078E
:103A500001969093DE078093DD078BE196E0BDCF62
:103A600080E396E096CF882309F4B8CD80910808CA
:103A70008111B4CD809107088111B0CD80910608E5
:103A80008111ACCD809105088111A8CD80910408E9
:103A90008111A4CD8091FD079091FE07833191059E
:103AA0000CF09CCD9C012F5F3F4F3093FE0720937D
:103AB000FD078751984FFC0140832751384FF9018A
:103AC00010820E94070963E476E08EEE99E00E947E
:103AD000550A0E94D60869EE77E0E0CD617041CDCD
:103AE00081E796E056CF87EA96E053CF1F93FC011B
:103AF00099278827BC01E89411911032E9F3193015
:103B000010F01E30C8F31B3251F01D3249F4689496
:103B100006C00E949D1D610F711D811D911D119197
:103B200010531A30B0F33EF49095809570956195DE
:103B30007F4F8F4F9F4F1F910895592F482F372F39
:103B4000262F660F771F881F991F660F771F881F04
:103B5000991F620F731F841F951F660F771F881FA1
:103B6000991F0895F999FECF92BD81BDF89A9927C2
:103B700080B50895262FF999FECF1FBA92BD81BD59
:103B800020BD0FB6F894FA9AF99A0FBE01960895DF
:103B90000E94D31DA59F900DB49F900DA49F800DF2
:103BA000911D11240895A29FB001B39FC001A39F4E
:103BB000700D811D1124911DB29F700D811D112466
:103BC000911D0895A1E21A2EAA1BBB1BFD010DC079
:103BD000AA1FBB1FEE1FFF1FA217B307E407F507BD
:103BE00020F0A21BB30BE40BF50B661F771F881F99
:103BF000991F1A9469F760957095809590959B012F
:103C0000AC01BD01CF010895EE0FFF1F881F8BBFD0
:103C10000790F691E02D19940F931F93CF93DF93A4
:103C20008230910510F482E090E0E091FC09F0917F
:103C3000FD0930E020E0B0E0A0E0309799F42115D4
:103C4000310509F44AC0281B390B24303105D8F559
:103C50008A819B816115710589F1FB0193838283C0
:103C6000FE0111C04081518102811381481759071B
:103C7000E0F04817590799F4109761F012960C93E9
:103C8000129713961C933296CF01DF91CF911F911B
:103C90000F9108950093FC091093FD09F4CF2115AD
:103CA000310551F04217530738F0A901DB019A01A1
:103CB000BD01DF01F801C1CFEF01F9CF9093FD09FC
:103CC0008093FC09CDCFFE01E20FF31F8193919306
:103CD0002250310939832883D7CF2091FA093091B6
:103CE000FB09232B41F42091BF023091C002309395
:103CF000FB092093FA092091BD023091BE022115E3
:103D0000310541F42DB73EB74091C1025091C20236
:103D1000241B350BE091FA09F091FB09E217F30738
:103D2000A0F42E1B3F0B2817390778F0AC014E5F2B
:103D30005F4F2417350748F04E0F5F1F5093FB0964
:103D40004093FA09819391939FCFF0E0E0E09CCFFC
:103D5000CF93DF930097E9F0FC0132971382128230
:103D6000A091FC09B091FD09ED0130E020E0109731
:103D7000A1F420813181820F931F2091FA093091A3
:103D8000FB092817390709F061C0F093FB09E0939C
:103D9000FA09DF91CF910895EA01CE17DF07E8F520
:103DA0004A815B819E0141155105B1F7E901FB8311
:103DB000EA8349915991C40FD51FEC17FD0761F4AF
:103DC000808191810296840F951FE90199838883F0
:103DD000828193819B838A83F0E0E0E012968D914B
:103DE0009C9113970097B9F52D913C911197CD01B6
:103DF0000296820F931F2091FA093091FB09281730
:103E0000390739F6309751F51092FD091092FC09E7
:103E1000B093FB09A093FA09BCCFD383C28340813E
:103E20005181840F951FC817D90761F44E5F5F4F0A
:103E300088819981480F591F518340838A819B81D2
:103E4000938382832115310509F0B0CFF093FD09EA
:103E5000E093FC099ECFFD01DC01C0CF13821282EA
:103E6000D7CF4F925F926F927F928F929F92AF9235
:103E7000BF92CF92DF92EF92FF920F931F93CF9357
:103E8000DF938C01009799F4CB01DF91CF911F91C3
:103E90000F91FF90EF90DF90CF90BF90AF909F90E9
:103EA0008F907F906F905F904F900C940C1EFC0150
:103EB000E60FF71F9C0122503109E217F30708F4BF
:103EC000AEC0D901CD91DC911197C617D70720F16B
:103ED000C530D10578F0CE0104978617970750F0CA
:103EE000C61BD70B2297C193D1936D937C93CF01BF
:103EF0000E94A81EC801DF91CF911F910F91FF90E2
:103F0000EF90DF90CF90BF90AF909F908F907F9079
:103F10006F905F904F9008955B01AC1ABD0A4C0101
:103F20008C0E9D1EA091FC09B091FD09512C412CD5
:103F3000F12CE12C109731F58091FA099091FB0951
:103F40008815990509F05CC04616570608F058C058
:103F50008091BD029091BE02009741F48DB79EB74B
:103F60004091C1025091C202841B950BE817F907DA
:103F700008F055C0F093FB09E093FA09F901718349
:103F80006083B8CF8D919C91119712966C90129787
:103F900013967C901397A815B90559F56C0142E06A
:103FA000C40ED11CCA14DB0420F1AC014A195B0910
:103FB000DA011296159780F06282738251834083F2
:103FC000D9016D937C93E114F10471F0D70113963C
:103FD000FC93EE9312978ECF22968C0F9D1FF901C2
:103FE00091838083F301EFCFF093FD09E093FC0907
:103FF00081CF4816590608F42C017D01D3019ACFD0
:10400000CB010E940C1E7C01009749F0AE01B80163
:104010000E941220C8010E94A81E87016BCF10E0E9
:1040200000E068CFFB01DC0102C001900D9241501D
:104030005040D8F70895FB01DC018D910190801963
:104040000110D9F3990B0895FB01DC0101900D9249
:104050000020E1F70895FB01DC014150504030F0B1
:104060008D910190801919F40020B9F7881B990BE4
:104070000895FB01DC014150504048F001900D9241
:104080000020C9F701C01D9241505040E0F708954B
:04409000F894FFCFD2
:1040940054727920616761696E210000000000009C
:1040A400000000000000000000000000000000000C
:1040B4000057656C6C20646F6E6521000000000081
:1040C40000000000000000000000000000000000EC
:1040D400000047616D65205374617274656421202A
:1040E400476F6F64206C75636B2100000000000053
:1040F400000000566963746F72792120416C6C2052
:104104007461736B7320646F6E652100000000009E
:104114000000000047616D65204F766572212054D0
:10412400696D652773207570210000000000000090
:10413400000000000008090C0D3E3F4041313233BD
:104144004134353642373839432A3023440000FE9F
:1041540009800000004000140054007EFF060001A6
:1041640000000000EF16001700180019001A001BC9
:1041740000020003000400050006000700360037B3
:1041840000380039003A003B001E001F00200021C7
:1041940000220023002400250029002A002B002CE3
:1041A400002D002E002F0030003200330034003583
:1041B400003C001C001D0025002800310000000008
:1041C400009002F0011D02DD024E022C02400200AA
:1041D4000000004A071D076008F30616070307F4EA
:1041E40006000000002B04EB03BA030000000012D9
:1041F40009F0016008EF010D0A004B6579706164F4
:10420400204C45442047616D6500507265737320EE
:104214005354415254004D5033204572726F7221F1
:10422400002D2D2D20436F6E666967757261746968
:104234006F6E202D2D2D00436F756E74646F776E35
:104244003A200050656E616C74793A2000537769A6
:1042540074636865733A2000427574746F6E733AC0
:104264002000506F74733A20002C20004A61636B65
:10427400733A20004B657970616420436F64653A3A
:1042840020005374617274204D6573736167653ADD
:104294002000436F7272656374204D6573736167A8
:1042A400653A200057726F6E67204D6573736167BE
:1042B400653A20005345543A004F4B3A434F554E0C
:1042C40054444F574E004F4B3A50454E414C54596D
:1042D400004F4B3A5357495443484553004F4B3AC8
:1042E400425554544F4E53004F4B3A504F54530081
:1042F4004F4B3A4A41434B53004F4B3A4B4559437A
:104304004F4445004F4B3A53415645004D53473AAD
:10431400004F4B3A4D53473A5354415254004F4B7C
:104324003A4D53473A434F5252454354004F4B3A48
:104334004D53473A57524F4E47004F4B3A4D534710
:104344003A564943544F5259004F4B3A4D53473A0A
:10435400444546454154004745543A434F4E464927
:104364004700434F4E4649473A434F554E54444FF6
:10437400574E3A00434F4E4649473A50454E414CFA
:1043840054593A00434F4E4649473A5357495443C8
:104394004845533A00434F4E4649473A42555454D0
:1043A4004F4E533A00434F4E4649473A504F5453A9
:1043B4003A002C00434F4E4649473A4A41434B5337
:1043C4003A00434F4E4649473A4B4559434F4445BB
:1043D4003A00434F4E4649473A4D53473A535441A6
:1043E40052543A00434F4E4649473A4D53473A4395
:1043F4004F52524543543A00434F4E4649473A4D73
:1044040053473A57524F4E473A00434F4E46494757
:104414003A4D53473A564943544F52593A00434F41
:104424004E4649473A4D53473A4445464541543A26
:10443400004F4B3A52455345540054696D65207200
:10444400656D61696E696E673A00207365636F6EAE
:1044540064730054696D652773207570210053657A
:104464007175656E6365207374617274656400456B
:104474006E642077697468202A206B6579004A612C
:10448400636B20636F6E6E656374696F6E73204F28
:104494004B21004A61636B20636F6E6E65637469C0
:1044A4006F6E732077726F6E6721004B6579706150
:1044B4006420636F646520636F72726563742100A6
:1044C4004B657970616420636F64652077726F6EE9
:1044D400672100456E74657220636F64653A00411C
:1044E4006C6C207461736B7320646F6E6521005370
:1044F4007769746368657320636F7272656374218E
:104504000053776974636865732077726F6E6721EF
:1045140000427574746F6E207365712077726F6ECC
:10452400672100427574746F6E2073657120636F28
:1045340072726563742100506F74656E74696F6D77
:1045440065746572732077726F6E672100506F74A3
:10455400656E74696F6D6574657273204F4B2100CD
:00000001FF
