:020000040000FA
:100000000C9462010C9493010C9493010C94930151
:100010000C9493010C9493010C9493010C94930110
:100020000C9493010C94A90F0C94A90F0C94A90F94
:100030000C9493010C9493010C9493010C949301F0
:100040000C9493010C9493010C9493010C949301E0
:100050000C9493010C9493010C9493010C945F0FF6
:100060000C9493010C94290F0C94FF0E0C949301A3
:100070000C9493010C9493010C9493010C949301B0
:100080000C9493010C9493010C9493010C949301A0
:100090000C94C90E0C949F0E0C9493010C94B30F06
:1000A0000C9493010C9493010C9493010C94930180
:1000B0000C9493010C9493010C9493010C94930170
:1000C0000C9493010C9493010C9493010C94930160
:1000D0000C9493010C9493010C9493010C94930150
:1000E0000C9493010C942E020C946E030C94DD205E
:1000F0000C9486030C943C040C9401020C945F0253
:100100000C94A5080C945B070C94F2010C94E0018C
:100110000C9478030C94FC030C949F090C946703D3
:100120000C943D020C947E030C949A030C94FB05F2
:100130000C945F030C94A1020C94EE020C94DF016A
:100140000C94D7100C9448070C94E6050C943807CF
:100150000C9439070C948C030C940D060C94CB036F
:100160000C9462070C9402060C9499030C9490036F
:100170000C9409060C9459030C9494030C94630397
:100180000C9474030C949E030C9482030C948F07BC
:100190000C940B060C94ED050C946B030C9451021B
:1001A00000002100240027002A002D003000330029
:1001B00001010000040107010A01000022002500DE
:1001C00028002B002E003100340002010000050140
:1001D00008010B01000020002300260029002C004C
:1001E0002F0032000001000003010601090105058E
:1001F0000505070508080808020202020A0A08089D
:1002000004040404010101010101010103030303CA
:1002100003030303040707070C0C0C0C0C0C0C0C59
:100220000202020206060606060606060B0B0B0B6A
:100230000B0B0B0B0102102020080810204010208F
:10024000408002010201080402010102040810209A
:100250004080804020100804020180040201804098
:100260002010080402010804020101020408102001
:100270004080010204081020408000000A0B02099F
:100280000C0D0E0807030401000000000000000030
:10029000000000000000000000000000000000005E
:1002A000000000000000121110000000000000001B
:1002B000000000000000000000000000000000003E
:1002C000D710DD2011241FBECFEFD1E2DEBFCDBF9E
:1002D00000E00CBF2BE0AEE7B8E001C01D92A03DEE
:1002E000B207E1F718E0A0E0B2E0EAE9F7E400E0E5
:1002F0000BBF02C007900D92AE37B107D9F711E0DE
:10030000C1E6D1E000E006C021970109802FFE017F
:100310000E947721C036D10780E00807A9F70E9424
:10032000F5110C94BB230C940000FC01A089B18949
:1003300082E08C93A485B5851C92A685B7858FEC49
:100340008C93108EA489B58986E08C93A289B38999
:100350008C9180618C93A289B3898C9188608C93F5
:10036000A289B3898C9180688C930288F389E02DEF
:1003700080818F7D8083089596E0899FD00111242C
:10038000A55DB44F90967C936E935F9791E09196A4
:100390009C939197E091980BF091990B9091970B0A
:1003A000992339F0309751F0811108C08091470BA3
:1003B0001994309719F05C968C91FACF08950895AE
:1003C0000895FC01248135816217730748F4808108
:1003D0009181009729F0860F971FFC018081089575
:1003E00080E008950895DB0114964D915C91159776
:1003F0006D917C91DC01ED91FC910280F381E02D07
:100400001994AF92BF92CF92DF92EF92FF920F9327
:100410001F93CF93DF936C017B018B01040F151F9A
:10042000EB015E01AE18BF08C017D10759F0699102
:10043000D601ED91FC910190F081E02DC601199556
:10044000892B79F7C501DF91CF911F910F91FF9013
:10045000EF90DF90CF90BF90AF900895FC01538D47
:10046000448D252F30E0842F90E0821B930B54178E
:1004700010F0CF96089501970895FC01918D828D1B
:10048000981761F0A28DAE0FBF2FB11D5D968C91B4
:10049000928D9F5F9F73928F90E008958FEF9FEFF3
:1004A0000895FC01918D828D981731F0828DE80FAF
:1004B000F11D858D90E008958FEF9FEF0895FC0169
:1004C000918D228D892F90E0805C9F4F821B910936
:1004D0008F739927089583ED99E00E945F0221E0D0
:1004E000892B09F420E0822F089580E79AE00E948A
:1004F0005F0221E0892B09F420E0822F0895FC019E
:10050000A48DA80FB92FB11DA35ABF4F2C91848D74
:1005100090E001968F739927848FA689B7892C93D1
:10052000A089B1898C91837080648C93938D848D24
:10053000981306C00288F389E02D80818F7D808327
:100540000895EF92FF920F931F93CF93DF93EC01E7
:1005500081E0888F9B8D8C8D98131AC0E889F9896A
:10056000808185FF15C09FB7F894EE89FF8960836D
:10057000E889F98980818370806480839FBF81E0EE
:1005800090E0DF91CF911F910F91FF90EF90089530
:10059000F62E0B8D10E00F5F1F4F0F731127E02E0B
:1005A0008C8D8E110CC00FB607FCFACFE889F98943
:1005B000808185FFF5CFCE010E947F02F1CFEB8DC8
:1005C000EC0FFD2FF11DE35AFF4FF0829FB7F89417
:1005D0000B8FEA89FB8980818062CFCFCF93DF9335
:1005E000EC01888D8823B9F0AA89BB89E889F9894B
:1005F0008C9185FD03C0808186FD0DC00FB607FC80
:10060000F7CF8C9185FFF2CF808185FFEDCFCE01B2
:100610000E947F02E9CFDF91CF91089580E090E0C2
:10062000892B29F00E94750281110E94000080E050
:1006300090E0892B29F00E946B0281110E9400003A
:1006400080E090E0892B49F080E090E0892B29F050
:100650000E94000081110E94000080E090E0892B40
:1006600049F080E090E0892B29F00E940000811180
:100670000C94000008958150823108F05AC0E82F90
:10068000F0E08827E95BFC4F8F4F0C9477216703DC
:100690006B0359035F03630399036E0374037803C9
:1006A0007E03820386038C039003990394039A03C9
:1006B0009E03809180008F778093800008958091C1
:1006C00080008F7DF9CF80918000877FF5CF84B542
:1006D0008F7784BD089584B58F7DFBCF8091B00066
:1006E0008F778093B00008958091B0008F7DF9CF0F
:1006F000809190008F778093900008958091900072
:100700008F7DF9CF80919000877FF5CF8091A000F9
:100710008F778093A00008958091A0008F7DF9CFFE
:100720008091A000877FF5CF809120018F77809303
:1007300020010895809120018F7DF9CF80912001C3
:10074000877FF5CFCF93DF93282F30E0F901E6586C
:10075000FD4F8491F901EC5CFD4FD491F901E25118
:10076000FE4FC491CC23A1F081110E943B03EC2FDA
:10077000F0E0EE0FFF1FEC52FE4FA591B491EC910B
:10078000ED2381E090E009F480E0DF91CF910895BE
:1007900080E090E0FACF862F0C94A2031F93CF93B2
:1007A000DF93282F30E0F901E658FD4F8491F901DD
:1007B000EC5CFD4FD491F901E251FE4FC491CC2382
:1007C000A9F0162F81110E943B03EC2FF0E0EE0FF1
:1007D000FF1FE654FE4FA591B4918FB7F894EC91AA
:1007E000111108C0D095DE23DC938FBFDF91CF912C
:1007F0001F910895DE2BF8CF862F642F0C94CE0323
:10080000CF93DF9390E0FC01EC5CFD4F249182518B
:100810009E4FFC0184918823C9F090E0880F991FB6
:10082000FC01E056FE4FA591B491FC01E654FE4F49
:10083000C591D49161110DC09FB7F8948C9120950A
:1008400082238C938881282328839FBFDF91CF91B7
:100850000895623051F49FB7F8943C91822F8095AF
:1008600083238C93E8812E2BEFCF8FB7F894EC91F4
:100870002E2B2C938FBFEACF862F642F0C9400046D
:100880003FB7F8948091370990913809A0913909C0
:10089000B0913A0926B5A89B05C02F3F19F00196E3
:1008A000A11DB11D3FBFBA2FA92F982F8827BC01CA
:1008B000CD01620F711D811D911D42E0660F771FF2
:1008C000881F991F4A95D1F708958F929F92AF92F2
:1008D000BF92CF92DF92EF92FF926B017C010E9458
:1008E00040044B015C01C114D104E104F104B9F0EE
:1008F0000E944004681979098A099B09683E73407F
:100900008105910580F321E0C21AD108E108F108C0
:1009100088EE880E83E0981EA11CB11CE4CFFF90E6
:10092000EF90DF90CF90BF90AF909F908F90089501
:100930002FB7F8946091330970913409809135098B
:10094000909136092FBF08950F931F93CF93DF9394
:10095000C82FD62F86E0C89FF0011124E55DF44F23
:1009600011A2878D90A181309105F1F058F082306D
:100970009105F1F1039709F440C0DF91CF911F91E8
:100980000F9108956623C9F361E070E08C2F0E94F7
:10099000BC010E9498046093830B7093840B809336
:1009A000850B9093860BE9CF0E9498040091830BEE
:1009B0001091840B2091850B3091860BAB01BC010B
:1009C000401B510B620B730B8091950B9091960B12
:1009D000B0E0A0E084179507A607B70748F462E0E7
:1009E00070E08C2FDF91CF911F910F910C94BC017F
:1009F00063E070E0D111C1CFF4CF70E060E0F1CFDF
:100A00000F931F930E9498046093780A7093790A59
:100A100080937A0A90937B0A80E79AE00E943D02D5
:100A200097FF1DC00E9498040091780A1091790ADE
:100A300020917A0A30917B0A601B710B820B930B19
:100A40000091740A1091750A2091760A3091770A04
:100A50006017710782079307F8F28FEF9FEF1F91DE
:100A60000F9108950F931F9380919A0B90919B0B78
:100A7000DC01ED91FC910084F185E02D1995892B25
:100A800009F4D5C060E070E0CB010E9465042091BC
:100A9000B80B80919A0B90919B0BDC01ED91FC912E
:100AA0000284F385E02D21110BC019958093A40BCE
:100AB0008E37D1F68091B80B8F5F8093B80BD4CF6F
:100AC00019959091B80BE92FF0E0E656F44F828724
:100AD0009230B9F09930D9F09130A9F48F3F99F064
:100AE0001092B80B81E08093BA0B1092BD0B10925C
:100AF000BC0B8093BE0B1092BF0B80E01F910F9137
:100B00000895863069F79F5F9093B80BADCF8F3E05
:100B100039F78091A60B9091A50B890F9927991F02
:100B2000E091A70B9C012E0F311D8091A80B820F25
:100B3000932F911D4091A90B50E0840F951F209198
:100B4000AA0B30E06091AB0B70E0762F6627F09136
:100B5000AC0B6F0F711D820F931F919581959109B9
:100B60006817790709F0BCCF1092B80BE13419F47B
:100B70001092BF0B3DC0E093BB0B542F4427240FB2
:100B8000351F3093BD0B2093BC0BEA53E63108F0C0
:100B900044C0F0E08827E053FA4F8F4F0C94772140
:100BA000FB0502060B06E6050B06ED0509060D061C
:100BB0000B060B060B060B060B060B060B060B06AD
:100BC0000D060B060B060B060B060B0685E0809345
:100BD000BA0B81E08093BE0B0BC089E020FDF7CFFC
:100BE00084E021FDF4CF237033278AE0232B79F7AB
:100BF0008091BE0B83CF87E020FDE9CF82E021FD0D
:100C0000E6CFF6CF88E020FDE2CF83E021FDDFCF05
:100C1000EFCF86E0DCCF8BE0DACF81E08093BA0BB8
:100C20001092BD0B1092BC0B8093BE0BA1CF809194
:100C3000BF0B8823E9F20E94980400919C0B10914D
:100C40009D0B20919E0B30919F0B601B710B820BB3
:100C5000930B0091A00B1091A10B2091A20B30914E
:100C6000A30B601771078207930710F21092B80B5D
:100C70001092BA0B1092BD0B1092BC0B81E039CFD1
:100C80008F929F92AF92BF92CF92DF92EF92FF929C
:100C9000CF936B017C010E9498044B015C01C1144D
:100CA000D104E104F10441F4C090A00BD090A10B59
:100CB000E090A20BF090A30B0E943205C82F811187
:100CC00011C00E949804681979098A099B09C616FF
:100CD000D706E806F90630F060E070E0CB010E942C
:100CE0006504EACF8C2FCF91FF90EF90DF90CF90EB
:100CF000BF90AF909F908F9008958093B10B10920A
:100D0000B30B6093B40B2091B00B9091AF0B290FF4
:100D10003327331F820F932F911D2091B20B820F27
:100D2000911D680F791F7195619571097093B50BCD
:100D30006093B60B222361F08091BF0B882341F0B2
:100D400060E070E0CB010E9465040E943205F4CFA0
:100D500080919A0B90919B0BDC01ED91FC910280AC
:100D6000F381E02D4AE050E06EEA7BE019950E94A5
:100D7000980460939C0B70939D0B80939E0B9093B3
:100D80009F0B8091B20B91E0811101C090E0909394
:100D9000BF0B811106C06AE070E080E090E00C9427
:100DA000650408952091BF08260F3327331F213291
:100DB0003105ECF420910809FC0190E080E024303A
:100DC00069F082E00895A091BF082191AC014156DD
:100DD000574FA40FB52FB11D2C930196861798F38A
:100DE0008091BF08680F6093BF0880E0089581E09C
:100DF00008951092080981E0809307091092E20893
:100E000061E084E10E94CE0361E085E10E94CE03AF
:100E1000E9EBF0E080818E7F808380818D7F80830D
:100E200088E48093B80085E48093BC000895CF9354
:100E3000DF9391E090939E088823B9F0C091B800A9
:100E4000D091BA008091BC008A7B8093BC0060E0A6
:100E500084E10E94CE0360E085E10E94CE030E94FF
:100E6000F906D093BA00C093B800DF91CF910895EE
:100E70000895E091420980914109E81730F4F0E0CB
:100E8000E258F74F808190E008958FEF9FEF08952B
:100E900090914209809141092FEF3FEF981748F454
:100EA000E92FF0E0E258F74F208130E09F5F909308
:100EB0004209C90108958091410990914209891B15
:100EC000990B0895CF92DF92EF92FF920F931F93A9
:100ED000CF93DF937C01CB018A0120910E0922235D
:100EE00089F0EB016B01C40ED51ECC15DD0569F050
:100EF0006991D701ED91FC910190F081E02DC7013E
:100F00001995F3CF642F0E94D206C801DF91CF91CB
:100F10001F910F91FF90EF90DF90CF900895CF93A6
:100F2000DF931F92CDB7DEB7698320910E0922238C
:100F3000F9F020913F09203258F021E030E0FC0127
:100F40003383228390E080E00F90DF91CF9108956A
:100F500080914009E82FF0E0E15FF64F998190839E
:100F60008F5F8093400980933F0981E090E0ECCF50
:100F700061E0CE0101960E94D206F7CFCF92DF92B8
:100F8000EF92FF920F931F93CF93DF93FC01C481E5
:100F900021E020930E09C0932F091092400910926E
:100FA0003F098385682B8DE09BE00E948F07D091DD
:100FB0003F09D13208F092C00E9440046B017C01CD
:100FC00080910809811165C082E08093080981E061
:100FD000809307098FEF8093060910920509D0933B
:100FE0000409AFE0B9E0E4EEF8E080E0D81385C092
:100FF0001092E3088091E308CC0FC82BC093E3085C
:101000008091E208813009F07CC01092E2080E94D1
:1010100040046B017C018091E3088093BB008091C8
:101020000A0990910B09A0910C09B0910D09892B27
:101030008A2B8B2B99F00E94400400910A09109191
:101040000B0920910C0930910D096C197D098E094D
:101050009F090617170728073907E0F18091BC00A0
:1010600083FDD9CF85EC8093BC000E9440046B01C6
:101070007C0180910809823009F445C080910609FD
:101080008F3F61F180910609803241F1809106091C
:1010900025C080910A0990910B09A0910C09B0918B
:1010A0000D09892B8A2B8B2B09F48ACF0E944004CF
:1010B00000910A0910910B0920910C0930910D093A
:1010C0006C197D098E099F0906171707280739072C
:1010D00008F076CF809109090E9417071092400905
:1010E00010923F0910920E09DF91CF911F910F913D
:1010F000FF90EF90DF90CF9008959D9191938F5F37
:1011000075CF85EEB0CF80910A0990910B09A0911F
:101110000C09B0910D09892B8A2B8B2B09F4A9CFCF
:101120000E94400400910A0910910B0920910C09BA
:1011300030910D096C197D098E099F090617170753
:101140002807390708F095CFC5CF90E080E00895D3
:101150008091680990916909A0916A09B0916B0921
:101160004091640950916509609166097091670921
:10117000841B950BA60BB70B8093680990936909A4
:10118000A0936A09B0936B0908950F931F93CF93AF
:10119000DF93C4E9D2E08E01F80180810E5F1F4F1A
:1011A00061E00E94CE03F2E00E391F07A9F764EF59
:1011B00071E080E090E00E9465048881229660E002
:1011C0000E94CE0382E0CE39D807B9F7DF91CF91E4
:1011D0001F910F9108950F931F93CF938C01C62FEA
:1011E0000E94BE076C2F6460C8010E94BE076C2F6E
:1011F0006B7FC8010E94BE0783EC90E00197F1F776
:10120000CF911F910F9108950F931F93CF93DF9369
:101210008C01D62FC42F607F642B0E94EB0880E1E5
:10122000D89FB00111246C2BC801DF91CF911F9181
:101230000F910C94EB0840E061E080EC9BE00E9491
:1012400004098BE39FE10197F1F70895CF93DF93B2
:10125000EC010E941B09BE0180EC9BE00E94F3019F
:1012600064EF71E080E090E00E94650460ED77E05B
:1012700080E090E00E9465040E949804685E7340DC
:10128000810991096093C3097093C4098093C509CA
:101290009093C609DF91CF910895CF93DF93EC012E
:1012A0000E941B09BE0180EC9BE00E94F30160EDEF
:1012B00077E080E090E00E9465040E949804685EF8
:1012C0007340810991096093C3097093C4098093A5
:1012D000C5099093C609DF91CF910895CF93DF930D
:1012E00000D000D01F921F92CDB7DEB798E0E2E6A3
:1012F000F2E0DE01119601900D929A95E1F790913E
:10130000C80B961708F46FEF262F30E0220F331F1B
:1013100041E050E04C0F5D1F240F351FF901608143
:10132000680F606840E080EC9BE028960FB6F89468
:10133000DEBF0FBECDBFDF91CF910C94040941E019
:101340000E94040981E090E00895CF92DF92EF922D
:10135000FF920F931F93CF93DF93EB017B0124E068
:10136000E20EF11C8B016C01C61AD70AC601800F70
:10137000911F0E942521F80181938F01EE15FF0531
:10138000A9F7CE01DF91CF911F910F91FF90EF90C0
:10139000DF90CF9008959F92AF92BF92CF92DF924D
:1013A000EF92FF920F931F93CF93DF935C017B012A
:1013B0008B01D0E0C0E0F80191908F016501CC0E67
:1013C000DD1EC6010E942521981621F0692DC60157
:1013D0000E942D212196C430D10569F7C701DF9104
:1013E000CF911F910F91FF90EF90DF90CF90BF9022
:1013F000AF909F9008950C942521FC0180819181EC
:10140000009711F00C94E92060E070E0CB010895A2
:10141000FB0101900020E9F73197AF01461B570B04
:10142000DC01ED91FC910280F381E02D199466E0DE
:1014300073E080E79AE00C94080ACF93DF93682F5B
:1014400080E79AE00E94A102EC010E94170A8C0F2B
:101450009D1FDF91CF910895CF93DF93BC0180E76B
:101460009AE00E94F301EC010E94170A8C0F9D1F65
:10147000DF91CF9108958F929F92AF92BF92EF929A
:10148000FF920F931F93CF93DF93CDB7DEB7A19752
:101490000FB6F894DEBF0FBECDBF7C01FA01CB01C1
:1014A00019A2223008F42AE08E010F5D1F4F822E10
:1014B000912CB12CA12CBF01A50194010E945521B2
:1014C000F901CA016A300CF5605DD8016E938D0197
:1014D000232B242B252B79F790E080E0109721F027
:1014E000BD01C7010E94080AA1960FB6F894DEBF9D
:1014F0000FBECDBFDF91CF911F910F91FF90EF9065
:10150000BF90AF909F908F900895695CDECFCF928F
:10151000DF92EF92FF920F931F93CF93DF936B01B4
:10152000770FEE08FF08F7FE1FC0EC01E881F98194
:101530000190F081E02D6DE219958C01442755272B
:10154000BA014C195D096E097F092AE0CE010E949B
:101550003B0A800F911FDF91CF911F910F91FF9058
:10156000EF90DF90CF9008952AE0B701A601DF91B8
:10157000CF911F910F91FF90EF90DF90CF900C943F
:101580003B0ACF93DF93BC0180E79AE00E94870A71
:10159000EC010E94170A8C0F9D1FDF91CF910895D7
:1015A000CF93DF93AB01BC012AE080E79AE00E9471
:1015B0003B0AEC010E94170A8C0F9D1FDF91CF910F
:1015C0000895CF93DF93BC0180E79AE00E94080A58
:1015D000EC010E94170A8C0F9D1FDF91CF91089597
:1015E0000C94080A2F923F924F925F926F927F92D3
:1015F0008F929F92AF92BF92CF92DF92EF92FF9223
:101600000F931F93CF93DF9300D000D0CDB7DEB7F9
:101610000E9498040091C3091091C4092091C50942
:101620003091C609601B710B820B930B683E7340AF
:101630008105910508F4B5C00E9498046093C30920
:101640007093C4098093C5099093C6090E949804B9
:1016500000916C0910916D0920916E0930916F090C
:10166000601B710B820B930BC0906809D0906909C5
:10167000E0906A09F0906B09C61AD70AE80AF90ADD
:10168000C701B60128EE33E040E050E00E9455214A
:1016900049015A01C701B60120E83EEE46E350E099
:1016A0000E94552129018901C501B40120E13EE0D4
:1016B00040E050E00E9455212CE3C22ED12CE12CB9
:1016C000F12CA70196010E94552129833A834B836F
:1016D0005C8329803A80C501B401A70196010E946C
:1016E00055216B017E836D830E941B0969E073E0C5
:1016F00080EC9BE00E94F00A61E080E00E946E09AD
:101700000A30110534F469E173E080EC9BE00E943B
:10171000F00AB20180EC9BE00E94870A62E076E06A
:1017200080EC9BE00E94F00A8AE02816310434F431
:1017300069E173E080EC9BE00E94F00A69817A81A4
:1017400080EC9BE00E94870A62E076E080EC9BE000
:101750000E94F00A8D819E810A9734F469E173E05A
:1017600080EC9BE00E94F00AB60180EC9BE026969C
:101770000FB6F894DEBF0FBECDBFDF91CF911F91A2
:101780000F91FF90EF90DF90CF90BF90AF909F9020
:101790008F907F906F905F904F903F902F900C9420
:1017A000870A26960FB6F894DEBF0FBECDBFDF9135
:1017B000CF911F910F91FF90EF90DF90CF90BF904E
:1017C000AF909F908F907F906F905F904F903F90E1
:1017D0002F900895FB0144815581FC0124813581BE
:1017E0002417350778F080819181009759F0FB012B
:1017F000608171816115710529F00E949E2321E0AD
:10180000892B09F020E0822F08950F931F93CF9327
:10181000DF938C01EB01FC01808191810097E1F065
:101820006881798161157105A9F0428153812C810C
:101830003D814217530770F00E9497238C819D8150
:10184000F801958384831D821C82DF91CF911F91C3
:101850000F9108950E941B2288819981F80191833C
:1018600080838A819B81938382838C819D819583F0
:101870008483198218821B821A82E5CFCF93DF936B
:10188000EC0188819981009711F00E941B22198236
:1018900018821D821C821B821A82DF91CF910895CB
:1018A000FC0180819181009711F00C941B22089516
:1018B0000F931F93CF93DF93EC0188819981009759
:1018C00059F02A813B812617370730F081E0DF91FC
:1018D000CF911F910F9108958B016F5F7F4F0E94F1
:1018E000A422009759F0998388831B830A832C8153
:1018F0003D81232B59F7FC011082E8CF80E0E7CF30
:10190000EF92FF920F931F93CF93DF93EC017B0134
:10191000198218821B821A821D821C82FB0101908F
:101920000020E9F731978F01061B170BB8010E94C1
:10193000580C811109C0CE01DF91CF911F910F91F9
:10194000FF90EF900C943E0C1D830C83B7018881AF
:101950009981DF91CF911F910F91FF90EF900C949F
:1019600097239F92AF92BF92CF92DF92EF92FF9216
:101970000F931F93CF93DF937C016B015A01890171
:101980002417350720F48B2D5901042F182F68E0F8
:1019900073E0C7010E94800CD6011496CD91DC91B2
:1019A000AC16BD0650F50C171D0708F4E801D6016A
:1019B000ED91FC911197EC0FFD1F908010820D911D
:1019C0001C910A0D1B1D0115110571F0F801019004
:1019D0000020E9F731975F01A01AB10AB501C701EC
:1019E0000E94580C811116C0C7010E943E0CD601FE
:1019F0008D919C91C80FD91F9882C701DF91CF911B
:101A00001F910F91FF90EF90DF90CF90BF90AF901C
:101A10009F900895F701B582A482B80180819181D9
:101A20000E949723E4CFCF93DF93EC01FB01248145
:101A300035810E94B10CCE01DF91CF9108952F9294
:101A40003F924F925F926F927F928F929F92AF924E
:101A5000BF92CF92DF92EF92FF920F931F93CF939B
:101A6000DF93CDB7DEB7C650D1400FB6F894DEBFD6
:101A70000FBECDBF6BE173E080E79AE00E94F00AF1
:101A80000E94170A9E012F5F3F4F390180E091E0CD
:101A9000F9019C01119221503040E1F723016301CB
:101AA00094E7A92E92E0B92EF12CE12C2224239464
:101AB000F5013080F2E0AF0EB11C61E0832D0E9491
:101AC000000460E0832D0E94CE0384E7882E82E02C
:101AD000982E10E000E0E016F10651F0F40180814C
:101AE0000E94A203892B21F4F601E00FF11F20824E
:101AF0000F5F1F4FF2E08F0E911C0031110559F757
:101B000062E0832D0E9400042FEFE21AF20A30E116
:101B1000C30ED11C80E1E816F10451F644E659E009
:101B2000A4E4B9E06D917C91119777FD20C01296E5
:101B30008D919C91139797FD1AC0FB0104E0EE0F65
:101B4000FF1F0A95E1F7E60DF71DE80FF91F208149
:101B5000222391F0FC0114E0EE0FFF1F1A95E1F72C
:101B6000E60DF71DE60FF71F2081222329F01496BA
:101B70004A175B07B9F621E070E060E0DB011196DF
:101B8000CD018031910509F447C0F301E80FF91F39
:101B9000308131110BC0FC0134E0EE0FFF1F3A958C
:101BA000E1F7E40DF51D3081332361F0E4E4F9E061
:101BB000008111810617170739F402811381081774
:101BC000190751F40196DDCF0817190729F402818E
:101BD000138106171707B1F334964E175F0741F7C5
:101BE0006CE573E0CE018F5F9E4F0E94800CCE01AA
:101BF0008F5F9E4F0E942609CE018F5F9E4F0E94ED
:101C0000500C6DE673E080E79AE00E94F00A0E94B3
:101C1000C5080E94A80841C0222311F39FEF491A6A
:101C2000590AE0E16E0E711CBD01509709F0A6CF74
:101C300081E08093CC098091940990919509019657
:101C4000909395098093940968E373E0CE018F5FC8
:101C50009E4F0E94800CCE018F5F9E4F0E944D09C7
:101C6000CE018F5F9E4F0E94500C809194099091FD
:101C70009509863091054CF4880F991FFC01E054BA
:101C8000FD4F61E080810E94CE0387E493E00E94D3
:101C9000E10A1092B8091092B709CA5FDE4F0FB679
:101CA000F894DEBF0FBECDBFDF91CF911F910F9192
:101CB000FF90EF90DF90CF90BF90AF909F908F906C
:101CC0007F906F905F904F903F902F90089585ED9B
:101CD0008093BC0080910A0990910B09A0910C0996
:101CE000B0910D090796A11DB11D23E0B695A795EA
:101CF000979587952A95D1F72091BC0024FD03C0C4
:101D000010920809089540910A0950910B096091B9
:101D10000C0970910D09452B462B472B69F3009751
:101D2000A105B10541F02AE22A95F1F700C001971B
:101D3000A109B109E1CF809109090C9417071F92FD
:101D40000F920FB60F9211240BB60F922F933F9361
:101D50004F935F936F937F938F939F93AF93BF93B3
:101D6000EF93FF9383ED99E00E947F02FF91EF9143
:101D7000BF91AF919F918F917F916F915F914F91A3
:101D80003F912F910F900BBE0F900FBE0F901F90A1
:101D900018951F920F920FB60F9211240BB60F9247
:101DA0002F938F939F93EF93FF93E091E309F0912B
:101DB000E4098081E091E909F091EA0982FD1DC002
:101DC00090818091EC098F5F8F732091ED098217CC
:101DD00041F0E091EC09F0E0ED52F64F958F8093E1
:101DE000EC09FF91EF919F918F912F910F900BBE76
:101DF0000F900FBE0F901F9018958081F2CF1F9209
:101E00000F920FB60F9211240BB60F922F933F93A0
:101E10004F935F936F937F938F939F93AF93BF93F2
:101E2000EF93FF9380E79AE00E947F02FF91EF918A
:101E3000BF91AF919F918F917F916F915F914F91E2
:101E40003F912F910F900BBE0F900FBE0F901F90E0
:101E500018951F920F920FB60F9211240BB60F9286
:101E60002F938F939F93EF93FF93E091800AF091CC
:101E7000810A8081E091860AF091870A82FD1DC067
:101E800090818091890A8F5F8F7320918A0A8217CF
:101E900041F0E091890AF0E0E059F54F958F809389
:101EA000890AFF91EF919F918F912F910F900BBE17
:101EB0000F900FBE0F901F9018958081F2CF1F9248
:101EC0000F920FB60F9211242F933F938F939F93EE
:101ED000AF93BF938091330990913409A091350954
:101EE000B09136093091320923E0230F2D3758F590
:101EF0000196A11DB11D209332098093330990935F
:101F00003409A0933509B09336098091370990912F
:101F10003809A0913909B0913A090196A11DB11D66
:101F20008093370990933809A0933909B0933A09FF
:101F3000BF91AF919F918F913F912F910F900FBEC5
:101F40000F901F90189526E8230F0296A11DB11D32
:101F5000D2CF1F920F920FB60F9211240F900FBE87
:101F60000F901F9018951F920F920FB60F92112489
:101F70000BB60F922F933F934F935F936F937F9383
:101F80008F939F93AF93BF93EF93FF938091B9008B
:101F9000887F803609F44DC008F040C0883209F4CB
:101FA000A9C028F5803109F49DC0C8F4882309F43C
:101FB000FBC0883009F496C0FF91EF91BF91AF91BB
:101FC0009F918F917F916F915F914F913F912F9151
:101FD0000F900BBE0F900FBE0F901F901895883179
:101FE00009F488C0803241F78093060914C0803418
:101FF00009F49DC040F48033B9F38833E9F6809347
:10200000060985ECB0C0803509F485C0883509F42F
:1020100096C0883489F60E94670ECECF883909F4BD
:102020008CC038F5883729F050F4883611F08037A5
:1020300019F683E0809308091092E10857C08838A8
:1020400009F47BC0803919F0803809F0B5CF809150
:10205000E108803208F071C0E091E10881E08E0F64
:102060008093E1088091BB00F0E0EF53F74F80834D
:102070003DC0803B39F0E0F4803A09F479C0883AF9
:1020800009F09ACF84E0809308091092C00810925A
:10209000BF08E0913D09F0913E0919958091BF0874
:1020A00081110FC081E08093BF0810929F0809C082
:1020B000803C09F4A6CF883C09F4A3CF883B09F003
:1020C0007BCFE091C00881E08E0F8093C008F0E0E4
:1020D000E156F74F80818093BB009091C0088091BA
:1020E000BF0829C08091E3088093BB0085EC8093F2
:1020F000BC0062CF9091050980910409981758F5AA
:10210000E091050981E08E0F80930509F0E0EC5124
:10211000F74F8081E9CFE091050981E08E0F809330
:1021200005098091BB00F0E0EC51F74F808390915E
:102130000509809104099817C8F285E8D8CFE09185
:10214000050981E08E0F809305098091BB00F0E0C6
:10215000EC51F74F80838091070981115CCF81E0BA
:102160008093E20884EA8093BC001092080924CF8F
:1021700085EC8093BC00109208098091E1088032C0
:1021800030F4E091E108F0E0EF53F74F10826091F6
:10219000E10870E0E0913B09F0913C0981EC98E0A6
:1021A00019951092E10808CF1092060934CF1092C9
:1021B000D6091092D50988EE93E0A0E0B0E08093B4
:1021C000D7099093D809A093D909B093DA0920EDE3
:1021D00032E03093D4092093D3094DEC50E0509372
:1021E000E0094093DF094CEC50E05093E209409342
:1021F000E10948EC50E05093E4094093E30949ECCD
:1022000050E05093E6094093E5094AEC50E05093C2
:10221000E8094093E7094EEC50E05093EA094093F7
:10222000E9091092EC091092ED091092EE09109252
:10223000EF091092730A1092720A8093740A9093B5
:10224000750AA093760AB093770A3093710A2093A7
:10225000700A25EC30E030937D0A20937C0A24EC50
:1022600030E030937F0A20937E0A20EC30E03093F8
:10227000810A2093800A21EC30E03093830A209376
:10228000820A22EC30E03093850A2093840A26ECFF
:1022900030E03093870A2093860A1092890A1092C0
:1022A0008A0A10928B0A10928C0A1092100B1092CC
:1022B0000F0B8093110B9093120BA093130BB09301
:1022C000140B82EE92E090930E0B80930D0B109204
:1022D000C30B1092C20B8EEF92E09093C10B8093D0
:1022E000C00B87E28093C40B80E18093C90B82E02E
:1022F0008093CA0B1092CB0B44EF51E060E070E08A
:102300004093A00B5093A10B6093A20B7093A30B6F
:102310009AE0EAE6F2E0AEEABBE001900D929A950F
:10232000E1F71092B80B8093B90B1092BE0B10928C
:10233000BF0B10922D0B1092310B1092300B10929C
:10234000320B84EF92E090932C0B80932B0BE7E4FD
:10235000FBE0108214821382158236968BE0E338FC
:10236000F807B9F788E492E090938E0B80938D0B79
:1023700084E492E09093900B80938F0B84E08093A1
:10238000910B8093920B8CE492E090938C0B809352
:102390008B0B8AE090E09093940B8093930B84EFE7
:1023A00091E09093960B8093950B1092990B10925D
:1023B000980B1092870B1092880B1092890B109239
:1023C0008A0B1092970B6FE773E085E29BE00E9407
:1023D000800C68E973E08FE19BE00E94800C63EA67
:1023E00073E089E19BE00C94800CCF93DF93CDB731
:1023F000DEB76C970FB6F894DEBF0FBECDBF7894F2
:1024000084B5826084BD84B5816084BD85B58260F9
:1024100085BD85B5816085BD80916E0081608093AA
:102420006E00109281008091810082608093810013
:102430008091810081608093810080918000816023
:10244000809380008091B10084608093B10080917E
:10245000B00081608093B000809191008260809391
:102460009100809191008160809391008091900013
:102470008160809390008091A10082608093A10090
:102480008091A10081608093A1008091A000816073
:102490008093A0008091210182608093210180912E
:1024A00021018160809321018091200181608093CE
:1024B000200180917A00846080937A0080917A0074
:1024C000826080937A0080917A00816080937A00A4
:1024D00080917A00806880937A001092C10080E732
:1024E0009AE00E94950183ED99E00E949501109277
:1024F0004209109241091092400910923F090E942E
:10250000F9068FED91E090933E0980933D0980EEAE
:1025100091E090933C0980933B090E94F906109248
:10252000C50B8091CA0B823018F098E09093C50BD0
:102530008093C80B62E370E080E090E00E94650445
:102540006091CB0B80EC9BE00E94BE0768EE73E0CD
:1025500080E090E00E94650460E380EC9BE00E94D4
:10256000EB080BE416E4C8010197F1F760E380EC97
:102570009BE00E94EB08C8010197F1F760E380EC53
:102580009BE00E94EB0883E592E00197F1F760E29F
:1025900080EC9BE00E94EB086091C50B606240E01C
:1025A00080EC9BE00E94040984E08093C60B40E02D
:1025B0006CE080EC9BE00E9404090E941B0982E011
:1025C0008093C70B40E066E080EC9BE00E9404092A
:1025D00040E062E080EC9BE00E9404098BE39FE115
:1025E0000197F1F788E08093CB0B60E080EC9BE0F3
:1025F0000E94BE070E941B096EEA73E080EC9BE01C
:102600000E94F00A61E080E00E946E096EEB73E0C8
:1026100080EC9BE00E94F00A68EE73E080E090E0BE
:102620000E94650403E010E063EDE62E69E0F62EFB
:10263000DD24D394F0929B0BE0929A0BD092B20BD4
:1026400070E060E08CE00E947D0660ED77E080E065
:1026500090E00E94400668EC70E080E090E00E940C
:1026600065041092BE0B8091BA0B8430D1F0893092
:10267000C1F064EF71E080E090E00E9465040150D9
:102680001109C1F60E941B096BEE73E080EC9BE020
:102690000E94F00A61E080E00E946E096CEF73E036
:1026A0001FC069E170E086E00E947D0670E060E096
:1026B00082E40E947D0660E070E0CB010E9440064B
:1026C000811119C00E941B096EEC73E080EC9BE045
:1026D0000E94F00A61E080E00E946E096DED73E0F7
:1026E00080EC9BE00E94F00A60ED77E080E090E0F3
:1026F0000E9465040CC01092BE0B8091BA0B8B3007
:1027000009F78091BC0B9091BD0B892BD9F60E94E3
:102710001B096FE074E080EC9BE00E94F00A44E942
:10272000E42E42E0F42E52EC252E52E0352EF1013B
:102730000081F2E02F0E311C61E0802F0E94000426
:10274000F7011081F2E0EF0EF11C61E0812F0E9491
:10275000000461E0802F0E94CE0368EC70E080E00E
:1027600090E00E94650460E0802F0E94CE0361E04B
:10277000812F0E94CE0368EC70E080E090E00E9420
:10278000650460E0812F0E94CE032CEC221622E02B
:10279000320669F662E087E20E9400040EE912E068
:1027A000F80180810E5F1F4F62E00E940004F2E09A
:1027B0000A3A1F07A9F736EBE32E32E0F32E0AEAB6
:1027C00012E0F80180810E5F1F4F62E00E9400045A
:1027D000E016F106B1F704E712E024E9E22E22E068
:1027E000F22EF80180810E5F1F4F62E00E9400040C
:1027F000E016F106B1F768E679E090E080E00E942B
:10280000A50964E679E084E090E00E94A50990E7DC
:10281000E92E99E0F92E88E090E08C010F5F1F4FC0
:102820000E94FB0990E0F701819391937F01C80119
:102830000E30110591F78CE7E82E89E0F82E68013B
:10284000FFEFCF1ADF0AC8010E94FB0990E0F701F1
:10285000819391937F0186010431110581F708E886
:10286000E02E09E0F02E04E110E0C8010E942521CD
:10287000F7018083C80101960E942521F701818319
:10288000F2E0EF0EF11C0E5F1F4F0032110569F7E9
:1028900014E4E12E19E0F12E00E210E068012FEFC0
:1028A000C21AD20AC8010E94FB0990E0F701918385
:1028B00080830E5F1F4FC6010E94FB0990E0F70165
:1028C00093838283F4E0EF0EF11C0033110531F79E
:1028D000B6E9EB2EB9E0FB2E68012FEFC21AD20A3F
:1028E000C8010E94FB09F70181937F0186010A3329
:1028F000110591F77601FFEFEF1AFF0AC6010E945A
:10290000FB092AE3C21AD1082091290B30912A0B26
:10291000C216D30640F42091250B3091260B2115C9
:10292000310509F0E0C11092430923E439E0F901CF
:1029300080836701FBE5EF16F104E1F687010F5F85
:102940001F4FC7010E94FB092BE5E21AF1082091F5
:10295000230B3091240BE216F30638F4E0911F0BA1
:10296000F091200B309709F0C1C110924309E3E4C4
:10297000F9E0808378010C37110501F778013FEF0A
:10298000E31AF30AC8010E94FB090C5711092091B0
:102990001D0B30911E0B0217130738F4E091190B31
:1029A000F0911A0B309709F0A4C110924309E3E4A7
:1029B000F9E0808387014DE9E416F104F9F6A1E21C
:1029C000CA2EA2E0DA2E87010F5F1F4FC7010E94B7
:1029D000FB09F60181936F0178010E3B110599F710
:1029E000F0E0EF2EF2E0FF2E68012FEFC21AD20ABC
:1029F000C8010E94FB09F70181937F0186010F3D09
:102A0000110591F78FE194E00E94E10A62E370E022
:102A100080E090E00E9465046BE374E080E79AE058
:102A20000E94F00A609168097091690980916A09B1
:102A300090916B09E8EECE2EE3E0DE2EE12CF12C36
:102A4000A70196010E945521CA01B9010E94D00A2E
:102A500062E370E080E090E00E94650467E474E067
:102A600080E79AE00E94F00A60916409709165091C
:102A70008091660990916709A70196010E945521EE
:102A8000CA01B9010E94D00A62E370E080E090E0E0
:102A90000E94650461E574E080E79AE00E94F00A14
:102AA00020E739E03C8F2B8FEB8DFC8D619171918C
:102AB000FC8FEB8F80E79AE00E94870A2B8D3C8D7C
:102AC0002C57394089F70E94170A62E370E080E0D2
:102AD00090E00E9465046CE574E080E79AE00E9453
:102AE000F00A8CE799E09A8F898FE98DFA8D6191D0
:102AF0007191FA8FE98F80E79AE00E94870A298D09
:102B00003A8D2858394089F70E94170A62E370E02D
:102B100080E090E00E94650466E674E080E79AE059
:102B20000E94F00A68E8E62E69E0F62E10E000E068
:102B3000F701619171917F0180E79AE00E94870A15
:102B40000530110531F06DE674E080E79AE00E94EF
:102B5000F00A0F5F1F4F0630110551F70E94170A48
:102B600062E370E080E090E00E94650460E774E05A
:102B700080E79AE00E94F00A54E6E52E59E0F52E2F
:102B800004E419E0F8016081718180E79AE00E9415
:102B9000870A6DE674E080E79AE00E94F00AF80187
:102BA0006281738180E79AE00E94870A6DE674E093
:102BB00080E79AE00E94F00A0E94170A0C5F1F4FFC
:102BC000E016F106F9F662E370E080E090E00E9422
:102BD000650468E774E080E79AE00E94F00A86E9FD
:102BE00099E00E94E10A66E874E080E79AE00E94BA
:102BF000F00A85E29BE00E942C0A66E974E080E717
:102C00009AE00E94F00A8FE19BE00E942C0A68EA99
:102C100074E080E79AE00E94F00A89E19BE00E945C
:102C20002C0A88EB94E00E94E10A0E941B096EEADC
:102C300073E080EC9BE00E94F00A61E080E00E947B
:102C40006E096AED74E080EC9BE00E94F00A84E675
:102C500090E09093BC098093BB099093BE09809348
:102C6000BD099093BA098093B9099093B8098093EC
:102C7000B709909343028093420248EE442E43E00A
:102C8000542E612C712C80E79AE00E945F02181686
:102C900019060CF018C168E073E0CE0143960E945B
:102CA000800C0E94000597FD27C08A30910521F114
:102CB00089831A820F89188D0F5F1F4FB801CE01CB
:102CC00043960E94580C882361F32B893C898F8995
:102CD000988DBE016F5F7F4F820F931F0E949723D5
:102CE000188F0F8BDECF2C0D3D1D21CEEE0DFF1D5D
:102CF00040CEE00FF11F5DCE64EF71E080E090E028
:102D00000E94650466EE74E0CE0101960E94800C7C
:102D1000BE016F5F7F4FCE0143960E94EA0B182FD2
:102D2000CE0101960E94500C112309F458C444E0CE
:102D300050E0BE016D5E7F4FCE0101960E94130DE3
:102D4000BE016F5F7F4FCE0143960E94050CCE01FE
:102D500001960E94500C6BE975E0CE0101960E942D
:102D6000800CBE016F5F7F4FCE0143960E94EA0B3D
:102D7000182FCE0101960E94500C112321F14AE038
:102D800050E0BE016D5E7F4FCE0101960E94130D93
:102D9000CE0101960E94FD099B01AC01A8EEB3E0B3
:102DA0000E943B21609368097093690980936A09C6
:102DB00090936B09CE0101960E94500C8BEE94E02B
:102DC0000E94E10A7CC06DEA75E0CE0101960E9486
:102DD000800CBE016F5F7F4FCE0143960E94EA0BCD
:102DE000182FCE0101960E94500C112311F148E0DA
:102DF00050E0BE016D5E7F4FCE0101960E94130D23
:102E0000CE0101960E94FD099B01AC01A8EEB3E042
:102E10000E943B2160936409709365098093660961
:102E200090936709CE0101960E94500C88EF94E0C0
:102E3000C7CF6DEB75E0CE0101960E94800CBE01FC
:102E40006F5F7F4FCE0143960E94EA0B182FCE0191
:102E500001960E94500C112309F4E2C049E050E0B1
:102E6000BE016D5E7F4FCE0101960E94130D0D8154
:102E70001E81F12CE12CE016F10690F4B701CE0191
:102E800001960E94E101F701EE0FFF1FE059F64F96
:102E900021E030E0813311F030E020E03183208305
:102EA000FFEFEF1AFF0A26E0E216F10421F783E0B4
:102EB00095E00E94E10ACE0101960E94500CCE01DD
:102EC00043960E94500C8091D20981116CC0809170
:102ED000D109811175C687E20E94A203892B09F0EE
:102EE0006FC681E08093D2091092D1091092D00967
:102EF0000E94980460936C0970936D0980936E0929
:102F000090936F0910929509109294091092CF092D
:102F10001092CE091092CD091092CC091092CB09D3
:102F200004E912E032ECE32E32E0F32EF701808167
:102F3000F2E0EF0EF11C60E00E94CE03F801808108
:102F40000E5F1F4F60E00E94CE03FCECEF16F2E034
:102F5000FF0661F70E941B0965E27BE080EC9BE0C5
:102F60000E94F30168EB7BE080E090E00E94650442
:102F70000E949804685E7340810991096093C309B7
:102F80007093C4098093C5099093C6090E94F20A00
:102F90006CE271E080E090E00E9465048091D209CB
:102FA000882309F40DC68091D109811109C6809149
:102FB000D009811147C40E94F20A0E94980481E05E
:102FC0008093970B0E9498040091870B1091880BB7
:102FD0002091890B30918A0BAB01BC01401B510B36
:102FE000620B730B8091930B9091940BB0E0A0E077
:102FF00084179507A607B70708F0E7C510E080918A
:10300000910B181708F09BC4E0918D0BF0918E0B7B
:10301000E10FF11D62E080810E9400041F5FEFCF8D
:103020006EEC75E0CE0101960E94800CBE016F5FD0
:103030007F4FCE0143960E94EA0B182FCE010196D6
:103040000E94500C112351F148E050E0BE016D5E2A
:103050007F4FCE0101960E94130D0D811E81F12C30
:10306000E12CE016F10680F4B701CE0101960E9432
:10307000E101F701EE0FFF1FE458F64F082E000C98
:10308000990BC097918380833FEFE31AF30A46E0E0
:10309000E416F10431F78FE095E00BCF6EED75E0AB
:1030A000CE0101960E94800CBE016F5F7F4FCE0162
:1030B00043960E94EA0B182FCE0101960E94500CF5
:1030C000112309F471C045E050E0BE016D5E7F4FF1
:1030D000CE010D960E94130D10E000E0912C812C82
:1030E000F12CE12CC988DA880C151D0508F055C0B3
:1030F000B801CE010D960E94E101F80131965F0101
:103100008C3231F0F1E0CF1AD1080C151D05C1F554
:1031100068E073E0CE0107960E94800C89899A8945
:1031200001970817190771F5492D582DBE01635FE6
:103130007F4FCE0101960E94130DBE016F5F7F4F3E
:10314000CE0107960E94050CCE0101960E94500CFC
:1031500026E0E216F1045CF4CE0107960E94FD0918
:10316000F701EE0FFF1FE857F64F718360839A2C2B
:103170008B2C3FEFE31AF30ACE0107960E94500C06
:103180008501B0CF9801492D582DBE01635F7F4F57
:10319000CE0101960E94B10CD0CF8AE195E00E9449
:1031A000E10ACE010D9689CE6DEE75E0CE01019655
:1031B0000E94800CBE016F5F7F4FCE0143960E943C
:1031C000EA0B182FCE0101960E94500C112309F42E
:1031D0007BC046E050E0BE016D5E7F4FCE010D9694
:1031E0000E94130D10E000E0D12CC12C912C812CF9
:1031F000F12CE12CA988BA880A151B0508F061C0DA
:10320000B801CE010D960E94E1018C3239F041E007
:10321000A41AB1080A151B0509F042C068E073E062
:10322000CE0107960E94800C89899A890197081718
:103230001907C9F5A401BE01635F7F4FCE01019656
:103240000E94130DBE016F5F7F4FCE0107960E9453
:10325000050CCE0101960E94500CF8E0EF16F10427
:10326000BCF4CE0107960E94FD09F701EE0FFF1F87
:10327000EC0DFD1DEE0FFF1FEC5BF64F71836083BD
:10328000CA94CD28D1F48FEFE81AF80AD12CC12CBA
:1032900048019FEF891A990ACE0107960E94500CA7
:1032A0000F5F1F4FA7CF9801A401BE01635F7F4F3F
:1032B000CE0101960E94B10CC5CFCC24C394D12C71
:1032C000E7CF82E295E06BCF6BEF75E0CE01019620
:1032D0000E94800CBE016F5F7F4FCE0143960E941B
:1032E000EA0B182FCE0101960E94500C112321F1F8
:1032F00048E050E0BE016D5E7F4FCE0101960E9416
:10330000130D0D811E810115110529F410929609E6
:103310008BE295E0CECD0930110510F009E010E008
:1033200069817A81A80186E999E00E94AC23F801BD
:10333000EA56F64F1082ECCF8F89988D892B09F4CD
:1033400084C069E375E08B899C890E948E23892B58
:1033500009F07BC068E679E090E080E00E94CB094C
:1033600064E679E084E090E00E94CB09F0E7EF2E7C
:10337000F9E0FF2E08E010E0F7016081F2E0EF0EC7
:10338000F11CC8010E942D210F5F1F4F0E30110547
:1033900099F7ECE7EE2EE9E0FE2EF7016081F2E00E
:1033A000EF0EF11CC8010E942D210F5F1F4F043149
:1033B000110599F774E1C72ED12C86010C58164FD0
:1033C000760122E0E20EF11CF801B1908F01C601F6
:1033D0000E942521B81621F06B2DC6010E942D21D7
:1033E000FFEFCF1ADF0AEC14FD0471F720E2C216DA
:1033F000D10419F704E419E0F8016081C6010E94C4
:103400002D21F2E0CF0ED11CF8016281C601019797
:103410000E942D210C5F1F4FF0E3CF16D10461F7FE
:1034200006E919E060E3E62EF12CF80161918F01C5
:10343000C7010E942D21FFEFEF1AFF0A2AE3E216CF
:10344000F10499F786E395E0BBCC6EE375E0CE011D
:1034500001960E94800CBE016F5F7F4FCE014396A4
:103460000E94EA0B182FCE0101960E94500C1123E6
:1034700009F425CD44E050E0BE016D5E7F4FCE01E2
:1034800001960E94130DBE016F5F7F4FCE014396E0
:103490000E94050CCE0101960E94500C6FE076E070
:1034A000CE0101960E94800CBE016F5F7F4FCE015E
:1034B00043960E94EA0B182FCE0101960E94500CF1
:1034C000112361F046E050E0BE016D5E7F4FCE01FA
:1034D00001960E94130D83E495E0EBCC61E276E067
:1034E000CE0101960E94800CBE016F5F7F4FCE011E
:1034F00043960E94EA0B182FCE0101960E94500CB1
:10350000112361F048E050E0BE016D5E7F4FCE01B7
:1035100001960E94130D80E595E0CBCC65E376E043
:10352000CE0101960E94800CBE016F5F7F4FCE01DD
:1035300043960E94EA0B182FCE0101960E94500C70
:10354000112361F046E050E0BE016D5E7F4FCE0179
:1035500001960E94130D8FE595E0ABCC67E476E011
:10356000CE0101960E94800CBE016F5F7F4FCE019D
:1035700043960E94EA0B182FCE0101960E94500C30
:10358000112361F048E050E0BE016D5E7F4FCE0137
:1035900001960E94130D8CE695E08BCC6BE576E0EE
:1035A000CE0101960E94800CBE016F5F7F4FCE015D
:1035B00043960E94EA0B182FCE0101960E94500CF0
:1035C000112309F47CCC47E050E0BE016D5E7F4FD3
:1035D000CE0101960E94130D8BE795E06ACC8F898E
:1035E000988D892B09F46BCC0B891C8969E875E0EF
:1035F000C8010E948E236C01892B09F0EAC064E99E
:1036000075E080E79AE00E94F00A60916809709185
:10361000690980916A0990916B09A30192010E9446
:103620005521CA01B9010E94D00A66EA75E080E717
:103630009AE00E94F00A6091640970916509809196
:10364000660990916709A30192010E945521CA0160
:10365000B9010E94D00A66EB75E080E79AE00E940B
:10366000F00A00E719E0F801619171918F0180E79C
:103670009AE00E94870A2B8D3C8D2017310799F71D
:103680000E94170A67EC75E080E79AE00E94F00A52
:103690000CE719E0F801619171918F0180E79AE0E0
:1036A0000E94870A298D3A8D2017310799F70E94C9
:1036B000170A67ED75E080E79AE00E94F00A58E883
:1036C000E52E59E0F52E10E000E0F70161917191CF
:1036D0007F0180E79AE00E94870A0530110531F0EA
:1036E00064EE75E080E79AE00E94F00A0F5F1F4FDA
:1036F0000630110551F70E94170A66EE75E080E763
:103700009AE00E94F00A04E419E0F80160817181F6
:1037100080E79AE00E94870A64EE75E080E79AE00D
:103720000E94F00AF8016281738180E79AE00E94AA
:10373000870AF7E0CF16D10431F064EE75E080E738
:103740009AE00E94F00A2FEFC21AD20A0C5F1F4FB4
:1037500038E0C316D104C9F60E94170A64EF75E079
:1037600080E79AE00E94F00A86E999E00E94E10A67
:1037700064E076E080E79AE00E94F00A85E29BE050
:103780000E942C0A66E176E080E79AE00E94F00A47
:103790008FE19BE00E942C0A6AE276E080E79AE0E3
:1037A0000E94F00A89E19BE00E942C0A6CE376E01B
:1037B00080E79AE00E94F00A81E292E00E94E10A2A
:1037C00060E576E080E79AE00E94F00A80E092E00F
:1037D000F7CA66E676E0C8010E948E23892B09F0BD
:1037E0006ECB1092D2091092D10904E912E042EC9A
:1037F000E42E42E0F42EF7018081F2E0EF0EF11C9E
:1038000060E00E94CE03F80180810E5F1F4F60E0F0
:103810000E94CE032E143F0471F70E941B096EEA2A
:1038200073E080EC9BE00E94F00A61E080E00E947F
:103830006E096AED74E080EC9BE00E94F00A83E67A
:1038400096E0BECA0E949804C090C709D090C809EB
:10385000E090C909F090CA096C197D098E099F0989
:1038600061367A4E8105910518F11092D0090E94B7
:103870001B096CE676E080EC9BE00E94F00A0E9457
:10388000C5080E94A80860ED77E080E090E00E9403
:1038900065040E949804685E7340810991096093F1
:1038A000C3097093C4098093C5099093C60985CB59
:1038B0000E9498040091BF091091C0092091C1098C
:1038C0003091C209601B710B820B930B683E7340F1
:1038D0008105910508F471CB0E9498046093BF099B
:1038E0007093C0098093C1099093C2090E94980403
:1038F00040E6C40E4AEED41EE11CF11CA70196015D
:10390000261B370B480B590BCA01B901A3019201C1
:103910000E9455216901890160E08EE00E946E09D4
:103920000A30110534F469E173E080EC9BE00E94F9
:10393000F00AB60180EC9BE00E94870A3ECB912CF6
:103940008091920B981608F063C0E92CF12CE0915D
:103950008F0BF091900BEE0DFF1D61E080810E94B6
:103960000004E0918F0BF091900BEE0DFF1D60E0D5
:1039700080810E94CE0381E090E0A0E0B0E0092CBD
:1039800004C0880F991FAA1FBB1F0A94D2F75C01BD
:103990006C01C094D094812C8091910B881608F50D
:1039A000082D10E0E0918D0BF0918E0BE00FF11FD0
:1039B00080810E94A2030C5F1F4F000F111FF801AE
:1039C000E55DF44F892B41F4808191818A299B29FF
:1039D000918380838394E0CF808191818C219D218C
:1039E000F7CFE0918F0BF091900BEE0DFF1D61E092
:1039F00080810E94CE0380918F0B9091900BE80EF6
:103A0000F91E60E0F70180810E940004939498CF32
:103A10000BE21BE087E69BE07801F701278D30A1E0
:103A2000232B31F4148E2FEF3FEF368F258F11A209
:103A300036E0E30EF11C8E159F0579F7D12C86E058
:103A4000B82E8091910BD81608F052C0C12C8D2C45
:103A5000912C880C991CA4014D5C544F4A01209173
:103A6000920BC21608F042C0F401608171810C2CE7
:103A700002C0769567950A94E2F7D29E90011124D0
:103A80002C0D311DEBE2FBE080E0458D568D2417B7
:103A9000350709F490C38F5F36968A30B1F760FF1F
:103AA00023C0EBE2FBE090E080E0448D411117C0C1
:103AB000E0918B0BF0918C0BE20FF31F4081B89ECD
:103AC000F001B99EF00D1124E55DF44F448F368F5F
:103AD000258F10A2178E61E00E94A40405C00196F4
:103AE00036968A30910509F7C394B9CFD394A9CFFC
:103AF00080E0F801D1A0D11001C0D82E0A5F1F4F7D
:103B0000E016F10609F05FC00E9498046093870BED
:103B10007093880B8093890B90938A0BDD2009F4B6
:103B200054C080914C0B882309F44FC080914A0BFC
:103B300090914B0B019709F048C01091470B111160
:103B400047C08091CF098823D9F18091CE0988237D
:103B5000B9F18091CD09882399F18091CC0988230E
:103B600079F18091CB09882359F181E08093D109C3
:103B70000E941B0961E272E080EC9BE00E94F00A67
:103B800061E080E00E946E0968E478E080EC9BE0F0
:103B90000E94F00A02EC12E0F80180810E5F1F4FD4
:103BA00061E00E94CE0320163106B1F784E690E072
:103BB00090934302809342029093BE098093BD0983
:103BC0000E940E0360C88D2D94CF1092970BB9CF31
:103BD00067E776E080E79AE00E94F00A812F0E9472
:103BE0001D0A9090D0099110A8C065E876E080E7A2
:103BF0009AE00E94F00A812F0E941D0A6EE277E08F
:103C000080E79AE00E94F00A8091BD099091BE0978
:103C10000E94C10A8091BB099091BC091134C9F07E
:103C20008091BD099091BE09123499F08091B90933
:103C30009091BA09133469F08091B7099091B8094D
:103C4000143439F01A3209F07CCF809142029091FD
:103C500043028436910509F074CF81E08093D00946
:103C60001093B6090E9498046093C7097093C8091D
:103C70008093C9099093CA091092B5091092B409AA
:103C80001092A0098091BB099091BC090E94C10AC1
:103C90000E941B09123451F1BCF41A3209F440C0DD
:103CA000113409F04ECF62EA76E080EC9BE00E948E
:103CB000F00A61E080E00E946E096EEA76E080EC36
:103CC0009BE00E94F00A3DCF1334E9F0143409F070
:103CD00038CF60EF76E080EC9BE00E94F00A61E074
:103CE00080E00E946E096BEF76E0E9CF6EEB76E044
:103CF00080EC9BE00E94F00A61E080E00E946E0987
:103D00006AEC76E0DCCF6BED76E080EC9BE00E9425
:103D1000F00A61E080E00E946E0961EE76E0CFCFAC
:103D20006CE077E080EC9BE00E94F00A61E080E0CC
:103D30000E946E0968E177E0C2CF8091B609133224
:103D400009F00FC21092D009823409F4BFC024F5E3
:103D50008A3209F4B1C1813471F160ED77E080E01D
:103D600090E00E9465040E949804685E7340810997
:103D700091096093C3097093C4098093C509909316
:103D8000C60967E278E080E79AE00E94F00A809135
:103D9000B6090E941D0AD5CE833409F4FAC08434D2
:103DA000E1F68091B7099091B80984369105A9F69A
:103DB0000E941F0DD2CF8091BB099091BC0984361F
:103DC000910559F6F0E7AF2EF9E0BF2EAEE9EA2EE5
:103DD000A2E0FA2E10E000E0F7018081F2E0EF0EA1
:103DE000F11C0E94A203CC24C394D12C892B11F086
:103DF000D12CC12C65E277E080E79AE00E94F00ABE
:103E0000B80180E79AE00E94870A6DE277E080E7D8
:103E10009AE00E94F00AC6010E94C10AF501819150
:103E200091915F018C159D0509F03FC00F5F1F4FF9
:103E30000630110589F60E941B099920C1F181E025
:103E40008093CF0980919409909195099C012F5FEF
:103E50003F4F309395092093940926303105B4F4EF
:103E6000880F991FFC01EE53FD4F61E080810E9495
:103E7000CE0366E377E080E79AE00E94F00A809143
:103E800094099091950901970E94C10A6CE477E02A
:103E900080EC9BE00E94F00A61E080E00E946E09E5
:103EA0001092BC091092BB0958CF912CC4CF6EE57B
:103EB00077E080EC9BE00E94F00A61E080E00E94E5
:103EC0006E090E94C5080E94A80847CF8091BD09CD
:103ED0009091BE098436910509F03FCF5CE7E52E4D
:103EE00059E0F52E6AEAC62E62E0D62E10E000E018
:103EF000F6018081F2E0CF0ED11C0E94A203F701EF
:103F0000419151917F010F5F1F4F21E0892B09F0F3
:103F100020E081E04017510709F080E0281719F0F0
:103F20006CE678E011C10630110511F781E080934D
:103F3000CE098091940990919509019690939509E5
:103F40008093940968E578E0CE0101960E94800C88
:103F5000CE0101960E944D09CE0101960E94500C9F
:103F60008091940990919509863091054CF4880FC1
:103F7000991FFC01E054FD4F61E080810E94CE0357
:103F80008EE697E00E94E10A1092BE091092BD09E8
:103F9000E4CE8091B9099091BA098436910509F06F
:103FA000DCCE6BE777E080E79AE00E94F00AE6EB70
:103FB000F2E022EC32E0A8E8B9E080813296863364
:103FC00008F0865340917B00982F9870477F942B80
:103FD00090937B008770806480937C0080917A004E
:103FE000806480937A0080917A0086FDFCCF809176
:103FF0007800909179004D915D91841B950B97FF0E
:1040000003C0919581959109C3970CF040C02E177C
:104010003F0799F684E997E00E94E10A9920C9F1E7
:1040200081E08093CD098091940990919509019642
:1040300090939509809394096CEB77E0CE010196FB
:104040000E94800CCE0101960E944D09CE0101967E
:104050000E94500C809194099091950986309105A9
:104060004CF4880F991FFC01E054FD4F61E0808102
:104070000E94CE031092BA091092B90986EC97E01B
:104080000E94E10A81EE97E00E94E10A66CE912C3F
:10409000C1CF64ED77E0CE0101960E94800CCE0185
:1040A00001960E942609CE0101960E94500C0E94A2
:1040B000C5080E94A808E6CF809142029091430271
:1040C0008436910509F049CEE091B409F091B50923
:1040D000E056F64F108266E979E080EA99E00E94A6
:1040E0008E23892B79F581E08093CB098091940907
:1040F00090919509019690939509809394096FEF9B
:1041000077E0CE0101960E94800CCE0101960E94BC
:104110004D09CE0101960E94500C80919409909116
:104120009509863091054CF4880F991FFC01E054E5
:10413000FD4F61E080810E94CE03109243021092F5
:1041400042020BCE64E178E0CE0101960E94800C21
:10415000CE0101960E942609CE0101960E94500CC4
:10416000B0CE8A3209F0EDCC1A3209F4EACC809153
:10417000B4099091B509833191050CF0E2CC9C0112
:104180002F5F3F4F3093B5092093B4098056964F67
:10419000FC0110832056364FF901108261E080E067
:1041A0000E946E0968E177E080EC9BE00E94F00AD3
:1041B00060EA79E084CD61708FCC89E19BE00E9458
:1041C000500C8FE19BE00E94500C85E29BE00C9428
:1041D000500C1F93FC0199278827BC01E89411918A
:1041E0001032E9F3193010F01E30C8F31B3251F0D1
:1041F0001D3249F4689406C00E941021610F711DA0
:10420000811D911D119110531A30B0F33EF4909519
:104210008095709561957F4F8F4F9F4F1F910895A7
:10422000592F482F372F262F660F771F881F991F6A
:10423000660F771F881F991F620F731F841F951FBA
:10424000660F771F881F991F0895F999FECF92BDB9
:1042500081BDF89A992780B50895262FF999FECF48
:104260001FBA92BD81BD20BD0FB6F894FA9AF99A93
:104270000FBE019608950E944621A59F900DB49F00
:10428000900DA49F800D911D11240895A29FB0014F
:10429000B39FC001A39F700D811D1124911DB29F7A
:1042A000700D811D1124911D0895A1E21A2EAA1BE3
:1042B000BB1BFD010DC0AA1FBB1FEE1FFF1FA217D6
:1042C000B307E407F50720F0A21BB30BE40BF50BD3
:1042D000661F771F881F991F1A9469F7609570955C
:1042E000809590959B01AC01BD01CF010895EE0F23
:1042F000FF1F881F8BBF0790F691E02D19940F9335
:104300001F93CF93DF938230910510F482E090E009
:10431000E091CE0BF091CF0B30E020E0B0E0A0E0D8
:10432000309799F42115310509F44AC0281B390B3F
:1043300024303105D8F58A819B816115710589F199
:10434000FB0193838283FE0111C040815181028170
:10435000138148175907E0F04817590799F4109747
:1043600061F012960C93129713961C933296CF011C
:10437000DF91CF911F910F9108950093CE0B109371
:10438000CF0BF4CF2115310551F04217530738F008
:10439000A901DB019A01BD01DF01F801C1CFEF01E5
:1043A000F9CF9093CF0B8093CE0BCDCFFE01E20FD0
:1043B000F31F819391932250310939832883D7CFFA
:1043C0002091CC0B3091CD0B232B41F420915E0238
:1043D00030915F023093CD0B2093CC0B20915C0287
:1043E00030915D022115310541F42DB73EB7409162
:1043F000600250916102241B350BE091CC0BF091CF
:10440000CD0BE217F307A0F42E1B3F0B281739073B
:1044100078F0AC014E5F5F4F2417350748F04E0F20
:104420005F1F5093CD0B4093CC0B819391939FCF03
:10443000F0E0E0E09CCFCF93DF930097E9F0FC0140
:10444000329713821282A091CE0BB091CF0BED0167
:1044500030E020E01097A1F420813181820F931F7A
:104460002091CC0B3091CD0B2817390709F061C092
:10447000F093CD0BE093CC0BDF91CF910895EA013F
:10448000CE17DF07E8F54A815B819E014115510592
:10449000B1F7E901FB83EA8349915991C40FD51F14
:1044A000EC17FD0761F4808191810296840F951FBE
:1044B000E90199838883828193819B838A83F0E0D9
:1044C000E0E012968D919C9113970097B9F52D918C
:1044D0003C911197CD010296820F931F2091CC0B36
:1044E0003091CD0B2817390739F6309751F51092D6
:1044F000CF0B1092CE0BB093CD0BA093CC0BBCCFB7
:10450000D383C28340815181840F951FC817D90777
:1045100061F44E5F5F4F88819981480F591F518325
:1045200040838A819B81938382832115310509F021
:10453000B0CFF093CF0BE093CE0B9ECFFD01DC010B
:10454000C0CF13821282D7CF4F925F926F927F9229
:104550008F929F92AF92BF92CF92DF92EF92FF9293
:104560000F931F93CF93DF938C01009799F4CB01A6
:10457000DF91CF911F910F91FF90EF90DF90CF903F
:10458000BF90AF909F908F907F906F905F904F9073
:104590000C947F21FC01E60FF71F9C01225031098A
:1045A000E217F30708F4AEC0D901CD91DC91119761
:1045B000C617D70720F1C530D10578F0CE01049792
:1045C0008617970750F0C61BD70B2297C193D1933C
:1045D0006D937C93CF010E941B22C801DF91CF9184
:1045E0001F910F91FF90EF90DF90CF90BF90AF9011
:1045F0009F908F907F906F905F904F9008955B0198
:10460000AC1ABD0A4C018C0E9D1EA091CE0BB09130
:10461000CF0B512C412CF12CE12C109731F58091CE
:10462000CC0B9091CD0B8815990509F05CC046160E
:10463000570608F058C080915C0290915D02009787
:1046400041F48DB79EB74091600250916102841B86
:10465000950BE817F90708F055C0F093CD0BE093E0
:10466000CC0BF90171836083B8CF8D919C91119728
:1046700012966C90129713967C901397A815B90513
:1046800059F56C0142E0C40ED11CCA14DB0420F1C0
:10469000AC014A195B09DA011296159780F0628223
:1046A000738251834083D9016D937C93E114F104AB
:1046B00071F0D7011396FC93EE9312978ECF22964A
:1046C0008C0F9D1FF90191838083F301EFCFF0934D
:1046D000CF0BE093CE0B81CF4816590608F42C017E
:1046E0007D01D3019ACFCB010E947F217C010097ED
:1046F00049F0AE01B8010E948523C8010E941B2227
:1047000087016BCF10E000E068CFFB01DC0102C045
:1047100001900D9241505040D8F70895FB01DC0103
:104720008D91019080190110D9F3990B0895FB0127
:10473000DC0101900D920020E1F70895FB01DC01FE
:104740004150504030F08D910190801919F40020B3
:10475000B9F7881B990B0895FB01DC0141505040CB
:1047600048F001900D920020C9F701C01D92415000
:104770005040E0F7089511E0C1E6D1E000E006C046
:10478000802FFE010E9477212196011DC236D1079C
:1047900080E00807A9F7F894FFCF47616D65204FC7
:1047A000766572212054696D65277320757021002C
:1047B0000000000000000000000000566963746FF4
:1047C00072792120416C6C207461736B7320646F6B
:1047D0006E65210000000000000000006400080970
:1047E0000C0D3E3F4041313233413435364237388B
:1047F00039432A3023440000D00B800000004000E1
:10480000140054007EFF06000100000000EF1E00AF
:104810001F00200021002200230024002500290081
:104820002A002B002C002D002E002F0030001C0031
:104830001D0026002800310016001700180019007E
:104840001A001B0002000300040005000600070018
:1048500036003700380039003A003B0032003300A0
:10486000340035003C0000000000A10201022E02CD
:10487000EE025F023D025102000000008F07620756
:10488000A50838075B0748073907000000003C040B
:10489000FC03CB03000000009F090102A508F20100
:1048A0000D0A0054696D652072656D61696E696EEF
:1048B000673A003000436865636B696E67206A6120
:1048C000636B20636F6E6E656374696F6E732E2EFB
:1048D0002E004A61636B20636F6E6E2E204F4B215A
:1048E000004A61636B20636F6E6E656374696F6EFF
:1048F00073204F4B21004A61636B207365712E203A
:1049000077726F6E6721006A61636B20636865630D
:104910006B206661696C65640047616D6520537446
:1049200061727465642120476F6F64206C75636BDE
:10493000210057656C6C20646F6E6521005472799C
:1049400020616761696E21004B6579706164204C5C
:1049500045442047616D6500496E697469616C6901
:104960007A696E672E2E2E005344204361726420B4
:104970004572726F722100436865636B2053442057
:1049800043617264004D503320506C617965722030
:104990004572726F720047616D652077696C6C209B
:1049A000636F6E74696E75650054657374696E67C4
:1049B000204C4544732E2E2E002D2D2D73617665CF
:1049C000642020436F6E66696775726174696F6EEB
:1049D000202D2D2D00436F756E74646F776E3A2015
:1049E0000050656E616C74793A2000537769746386
:1049F0006865733A2000427574746F6E733A2000D4
:104A0000506F74733A20002C20004A61636B733A34
:104A100020004B657970616420436F64653A200023
:104A20005374617274204D6573736167653A200039
:104A3000436F7272656374204D6573736167653A85
:104A4000200057726F6E67204D6573736167653A1A
:104A500020006E6F7720636F6E6E656374207468DC
:104A600065204755492020636F6E666967757261DE
:104A7000746F720050726573732053544152540026
:104A80005345543A004F4B3A434F554E54444F57B9
:104A90004E004F4B3A50454E414C5459004F4B3A03
:104AA0005357495443484553004F4B3A4255545489
:104AB0004F4E53004F4B3A504F5453004F4B3A4ACE
:104AC00041434B53004F4B3A4B4559434F444500EC
:104AD0004F4B3A53415645004D53473A004F4B3ADE
:104AE0004D53473A5354415254004F4B3A4D53475C
:104AF0003A434F5252454354004F4B3A4D53473A75
:104B000057524F4E47004F4B3A4D53473A56494341
:104B1000544F5259004F4B3A4D53473A444546453E
:104B20004154004745543A434F4E46494700434F8E
:104B30004E4649473A434F554E54444F574E3A001C
:104B4000434F4E4649473A50454E414C54593A001E
:104B5000434F4E4649473A53574954434845533AC1
:104B600000434F4E4649473A425554544F4E533AEC
:104B700000434F4E4649473A504F54533A002C0099
:104B8000434F4E4649473A4A41434B533A00434FFD
:104B90004E4649473A4B4559434F44453A00434FE7
:104BA0004E4649473A4D53473A53544152543A00BE
:104BB000434F4E4649473A4D53473A434F52524569
:104BC00043543A00434F4E4649473A4D53473A57AC
:104BD000524F4E473A00434F4E4649473A4D53478E
:104BE0003A564943544F52593A00434F4E4649476B
:104BF0003A4D53473A4445464541543A004F4B3AA3
:104C000052455345540054696D65277320757021D2
:104C1000004B657920707265737365643A20004BB0
:104C20006579207072657373656420736571206E99
:104C30006F74206163746976653A200053776974F4
:104C40006368207365712E005365742073776974EF
:104C5000636865732E2E2E00427574746F6E207318
:104C600065712E00507265737320627574746F6E77
:104C7000732E2E2E00506F74732E0041646A75736C
:104C80007420706F74732E2E2E004A61636B206344
:104C90006F6E6E2E00436F6E6E656374206A616383
:104CA0006B732E2E2E004B657970616420636F64E8
:104CB0006500456E74657220636F64653A20005329
:104CC000776974636820002073746174653A20000A
:104CD0005475726E696E67206F6E20475245454E5F
:104CE000204C4544200053776974636865732063E2
:104CF0006F727265637421005377697463686573BA
:104D00002077726F6E672100627574746F6E207207
:104D10006967687400436865636B696E6720706FCC
:104D2000742073657175656E63652E2E2E00506F4D
:104D300074656E74696F6D65746572206368656310
:104D40006B20636F6D706C6574652E20616E616C95
:104D50007973696E6700506F74732E204F4B21007A
:104D6000706F742072696768742073657100506F8A
:104D700074732E2077726F6E672100506F74656EAA
:104D800074696F6D6574657220636865636B206319
:104D90006F6D706C6574652E004B65797061642071
:104DA000636F646520636F727265637421004B6585
:104DB0007970616420636F64652077726F6E67211C
:104DC000004B657920747970652070726573736526
:104DD0006420736571206163746976652076323A68
:104DE0002000416C6C207461736B7320646F6E657E
:104DF0002100427574746F6E2073657120636F7249
:104E0000726563742100427574746F6E20736571EE
:084E10002077726F6E6721002C
:020000040003F7
:10E000000D9489F10D94B2F10D94B2F10D94B2F129
:10E010000D94B2F10D94B2F10D94B2F10D94B2F1F0
:10E020000D94B2F10D94B2F10D94B2F10D94B2F1E0
:10E030000D94B2F10D94B2F10D94B2F10D94B2F1D0
:10E040000D94B2F10D94B2F10D94B2F10D94B2F1C0
:10E050000D94B2F10D94B2F10D94B2F10D94B2F1B0
:10E060000D94B2F10D94B2F10D94B2F10D94B2F1A0
:10E070000D94B2F10D94B2F10D94B2F10D94B2F190
:10E080000D94B2F10D94B2F10D94B2F10D94B2F180
:10E090000D94B2F10D94B2F10D94B2F10D94B2F170
:10E0A0000D94B2F10D94B2F10D94B2F10D94B2F160
:10E0B0000D94B2F10D94B2F10D94B2F10D94B2F150
:10E0C0000D94B2F10D94B2F10D94B2F10D94B2F140
:10E0D0000D94B2F10D94B2F10D94B2F10D94B2F130
:10E0E0000D94B2F141546D656761323536300041AF
:10E0F000726475696E6F206578706C6F72657220DE
:10E1000073746B3530305632206279204D4C530099
:10E11000426F6F746C6F616465723E004875683F52
:10E1200000436F6D70696C6564206F6E203D200048
:10E130004350552054797065202020203D20005FF9
:10E140005F4156525F415243485F5F3D2000415658
:10E1500052204C696243205665723D20004743437C
:10E160002056657273696F6E203D20004350552024
:10E1700049442020202020203D20004C6F7720663D
:10E18000757365202020203D20004869676820665F
:10E190007573652020203D200045787420667573D6
:10E1A00065202020203D20004C6F636B2066757336
:10E1B000652020203D20004D617220203720323024
:10E1C000313300312E362E3800342E332E350056A2
:10E1D00023202020414444522020206F7020636F70
:10E1E00064652020202020696E73747275637469E1
:10E1F0006F6E2061646472202020496E74657272B3
:10E20000757074006E6F20766563746F7200726A49
:10E210006D702020006A6D70200057686174207056
:10E220006F72743A00506F7274206E6F7420737541
:10E2300070706F72746564004D7573742062652030
:10E2400061206C6574746572002000577269747483
:10E25000696E672045450052656164696E672045B7
:10E26000450045452065727220636E743D00504F35
:10E27000525400303D5A65726F2061646472003FF1
:10E280003D43505520737461747300403D454550C3
:10E29000524F4D207465737400423D426C696E6B41
:10E2A000204C454400453D44756D70204545505215
:10E2B0004F4D00463D44756D7020464C415348001B
:10E2C000483D48656C70004C3D4C69737420492F83
:10E2D0004F20506F72747300513D51756974005234
:10E2E0003D44756D702052414D00563D73686F7707
:10E2F00020696E7465727275707420566563746FF0
:10E30000727300593D506F727420626C696E6B00BD
:10E310002A0011241FBECFEFD1E2DEBFCDBF01E046
:10E320000CBF12E0A0E0B2E0EEE1FDEF03E00BBFB6
:10E3300002C007900D92A030B107D9F712E0A0E01B
:10E34000B2E001C01D92AE30B107E1F70F9460F367
:10E350000D948DFE01E20EBF0FEF0DBF11241FBE05
:10E360000D9460F30D9400F020E030E040ED57E0B4
:10E3700005C0FA013197F1F72F5F3F4F2817390792
:10E38000C0F308959C01260F311DC901A0E0B0E043
:10E390002F5F3F4FABBFFC018791882361F08093D3
:10E3A000C6008091C00086FFFCCF8091C0008064D1
:10E3B0008093C000EACF08958DE08093C6008091DD
:10E3C000C00086FFFCCF8091C00080648093C000B5
:10E3D0008AE08093C6008091C00086FFFCCF8091C8
:10E3E000C00080648093C00008950F94C2F10F9420
:10E3F000DCF10895FC019081992359F09093C600B7
:10E400008091C00086FFFCCF8091C0008064809323
:10E41000C0003196992379F70895282F982F929567
:10E420009F70892F805D8A3308F0895F8093C600D2
:10E430008091C00086FFFCCF8091C00080648093F3
:10E44000C000822F8F70982F905D9A3308F0995FEB
:10E450009093C6008091C00086FFFCCF8091C000E1
:10E4600080648093C00008959C01FB01853691056E
:10E470001CF46330710594F0C90164E670E00F94F8
:10E480002EFE605D7F4F6093C6008091C00086FFC6
:10E49000FCCF8091C00080648093C0002B30310598
:10E4A00014F43297B4F0C90164E670E00F942EFEC4
:10E4B0006AE070E00F942EFE605D7F4F6093C600AF
:10E4C0008091C00086FFFCCF8091C0008064809363
:10E4D000C000C9016AE070E00F942EFEC0968093E0
:10E4E000C6008091C00086FFFCCF8091C000806490
:10E4F0008093C00008951F93182F8EE692EE60E07F
:10E500000F94C2F11093C6008091C00086FFFCCF2B
:10E510008091C00080648093C0000F94DCF11F9153
:10E5200008952F923F924F925F926F927F928F92B7
:10E530009F92AF92BF92CF92DF92EF92FF920F9392
:10E540001F93DF93CF93CDB7DEB762970FB6F894E2
:10E55000DEBF0FBECDBF382E622ECA01DB015C01CB
:10E560006D01772420E2222E2E010894411C511CBB
:10E570008BC081E0A81680E0B80681E0C80680E084
:10E58000D80628F0C601AA27BB270F940DF2BB2797
:10E59000AD2D9C2D8B2D0F940DF28A2D0F940DF225
:10E5A0002092C6008091C00086FFFCCF8091C00001
:10E5B00080648093C0009DE29093C6008091C0006B
:10E5C00086FFFCCF8091C00080648093C0002092C1
:10E5D000C6008091C00086FFFCCF8091C00080649F
:10E5E0008093C00019828601750188249924A1E0D6
:10E5F0003A1651F03A1620F0B2E03B1661F409C029
:10E600000BBFF701779007C0C7010F9477FE782EF4
:10E6100002C0F7017080872D0F940DF22092C60082
:10E620008091C00086FFFCCF8091C0008064809301
:10E63000C000872D8052F401EF70F0708F3520F408
:10E64000E40DF51D708204C0E40DF51D8EE280839B
:10E650000894E11CF11C011D111D0894811C911CE2
:10E6600090E18916910409F0C2CF80E190E0A0E02A
:10E67000B0E0A80EB91ECA1EDB1E198AC2010F9493
:10E68000FAF10F94DCF16A94662009F072CF629679
:10E690000FB6F894DEBF0FBECDBFCF91DF911F91B3
:10E6A0000F91FF90EF90DF90CF90BF90AF909F9031
:10E6B0008F907F906F905F904F903F902F90089534
:10E6C0002F923F924F925F926F927F928F929F9282
:10E6D000AF92BF92CF92DF92EF92FF920F931F9370
:10E6E000DF93CF93CDB7DEB7CD53D1400FB6F894BB
:10E6F000DEBF0FBECDBF01E20EBF0FEF0DBF94B75F
:10E70000F894A89514BE80916000886180936000A1
:10E7100010926000789493FF05C0E0910002F091A0
:10E7200001021995279A2F9A8091C00082608093E8
:10E73000C00080E18093C40088E18093C1000000A4
:10E74000EE24FF24870144E0A42EB12CCC24DD2448
:10E7500024C0C5010197F1F70894E11CF11C011DCB
:10E76000111D21E2E2162EE4F20620E0020720E06D
:10E77000120718F031E0C32ED12CC801B70127ECE5
:10E780003BE140E050E00F9441FE611571058105C9
:10E79000910519F485B1805885B98091C00087FD35
:10E7A00003C0C114D104A9F2A6014F5F5F4FC25E3E
:10E7B000DE4F59834883CE51D140C25EDE4F8881FF
:10E7C0009981CE51D140019711F00D9410FEC05D9A
:10E7D000DE4F19821882C053D14060E0C15DDE4F28
:10E7E0001882CF52D14088249924C35DDE4F19820C
:10E7F0001882CD52D140C05EDE4F188219821A8233
:10E800001B82C052D140CE5CDE4F188219821A8220
:10E810001B82C253D140EE24FF2487010BBFF701B6
:10E8200007911691C45CDE4F19830883CC53D14005
:10E830000D940BFEC25EDE4F28813981CE51D1404E
:10E840002130310509F52091C600C25EDE4F1982E4
:10E850001882CE51D14022C02F5F3F4F4F4F5F4FA4
:10E86000213082E138078AE7480780E0580780F0C6
:10E87000C45CDE4FE881F981CC53D140EF5FFF4F9C
:10E8800019F0EE27FF27099420E030E040E050E047
:10E890008091C00087FFE0CF2091C600C35DDE4FAE
:10E8A00048815981CD52D1404F5F5F4FC35DDE4FEC
:10E8B00059834883CD52D140213209F063C64A3092
:10E8C000510508F05FC60894811C911C53E0851621
:10E8D000910409F059C600E010E018C081E280936D
:10E8E000C6008091C00086FFFCCF8091C00080648C
:10E8F0008093C0002F5F3F4F2931310579F70F9486
:10E90000DCF10F5F1F4F0530110519F020E030E0FA
:10E91000E5CF10920A0210920B0210920C02109294
:10E920000D02109206021092070210920802109235
:10E930000902109202021092030210920402109235
:10E9400005028FEE90EE60E00F94F5F180E191EE1C
:10E9500060E00F94C2F18091C00087FFFCCF9091DE
:10E96000C600903608F09F759032B8F09093C600BC
:10E970008091C00086FFFCCF8091C00080648093AE
:10E98000C000A0E2A093C6008091C00086FFFCCF2B
:10E990008091C00080648093C000983409F4D7C18E
:10E9A0009934B8F4923409F459C1933458F490333B
:10E9B00019F1903308F4E3C59F33A1F1903409F0C5
:10E9C000DEC5BDC0953409F470C1963409F0D7C5D1
:10E9D00098C1923509F42BC2933538F49C3409F46C
:10E9E000F5C1913509F0CBC518C2963509F445C279
:10E9F000993509F0C4C567C483E792EE62E00F94CD
:10EA0000F5F110920602109207021092080210927D
:10EA1000090210920A0210920B0210920C0210923C
:10EA20000D0213C18FE792EE62E00F94F5F18FEEC5
:10EA300090EE60E00F94F5F181E291EE60E00F94CA
:10EA4000C2F187EB91EE60E00F94F5F180E391EE77
:10EA500060E00F94C2F184EE90EE60E00F94F5F167
:10EA60008FE391EE60E00F94C2F186E090E061E008
:10EA700070E00F9434F20F94DCF18DE591EE60E0DC
:10EA80000F94C2F189EC91EE60E00F94F5F18EE401
:10EA900091EE60E00F94C2F183EC91EE60E00F9490
:10EAA000F5F18CE691EE60E00F94C2F18EE10F94E7
:10EAB0000DF288E90F940DF281E00F940DF20F949E
:10EAC000DCF18BE791EE60E00F94C2F119E0E0E039
:10EAD000F0E010935700E4918E2F0F940DF20F94F5
:10EAE000DCF18AE891EE60E00F94C2F1E3E0F0E03F
:10EAF00010935700E4918E2F0F940DF20F94DCF1D8
:10EB000089E991EE60E00F94C2F1E2E0F0E0109349
:10EB10005700E4918E2F0F940DF20F94DCF188EAE8
:10EB200091EE60E00F94C2F1E1E0F0E01093570045
:10EB30001491812F0F940DF20F94DCF107CF8BE825
:10EB400092EE62E00F94F5F18BE492EE60E00F94A8
:10EB5000F5F10F94DCF100E010E019C0C8016F2D51
:10EB60000F947FFEFF2031F489E492EE60E00F9471
:10EB7000C2F10BC0F092C6008091C00086FFFCCFAE
:10EB80008091C00080648093C0000F5F1F4FC80158
:10EB900081519F41A0E0B0E0ABBFFC01F790BAE229
:10EBA000FB1621F0E2E000301E07C1F60F94DCF105
:10EBB0000F94DCF187E592EE60E00F94F5F10F948D
:10EBC000DCF1CC24DD2400E010E01EC0C8010F946D
:10EBD00077FEF82E882331F489E492EE60E00F94FA
:10EBE000C2F10BC08093C6008091C00086FFFCCFAD
:10EBF0008091C00080648093C000FE1419F00894D6
:10EC0000C11CD11C0F5F1F4FC80181519F41A0E063
:10EC1000B0E0ABBFFC01E790FAE2EF1621F022E092
:10EC20000030120799F60F94DCF10F94DCF182E6C4
:10EC300092EE60E00F94C2F1C60161E070E00F94C3
:10EC400034F20F94DCF10F94DCF110920202109276
:10EC50000302109204021092050278CE89E992EE26
:10EC600062E00F94F5F1279A2F9A16C02F9880E052
:10EC700090E0E0EDF7E03197F1F7019684369105E9
:10EC8000C1F72F9A80E090E0E0EDF7E03197F1F7DF
:10EC9000019684369105C1F78091C00087FFE6CFC9
:10ECA0008091C00087FFFCCF64C485EA92EE62E0E9
:10ECB0000F94F5F140910202509103026091040219
