:100000000C946A010C949B010C949B010C949B0131
:100010000C949B010C949B010C949B010C949B01F0
:100020000C949B010C94EF0C0C94EF0C0C94EF0CC3
:100030000C949B010C949B010C949B010C949B01D0
:100040000C949B010C949B010C949B010C949B01C0
:100050000C949B010C949B010C949B010C94A50C9B
:100060000C949B010C946F0C0C94450C0C949B010C
:100070000C949B010C949B010C949B010C949B0190
:100080000C949B010C949B010C949B010C949B0180
:100090000C949B010C949B010C949B010C946B0D94
:1000A0000C949B010C949B010C949B010C949B0160
:1000B0000C949B010C949B010C949B010C949B0150
:1000C0000C949B010C949B010C949B010C949B0140
:1000D0000C949B010C949B010C949B010C949B0130
:1000E0000C949B010C9453030C94F8060C943A0561
:1000F0000C944A050C94D3010C94C9030C946B0620
:100100000C9461030C9459030C94B7020C945D0396
:100110000C948E070C94C0010C94D4010C94010231
:100120000C94A8070C9498030C942C030C944F0384
:100130000C9467030C9410020C9483060C94260311
:100140000C946A020C9432020C943B030C94450309
:100150000C9485090C942C050C9448050C943003E0
:100160000C94C1010C9441050C9466030C948F0E01
:100170000C946B030C944C050C9434030C9484067F
:100180000C94EB080C947F070C94D41B0C94240261
:100190000C94E0060C9409040C94A1070C94D50768
:1001A0000C9438030C9441030C9425050C944B03D8
:1001B00000002100240027002A002D003000330019
:1001C00001010000040107010A0100000A0B0209F5
:1001D0000C0D0E08070304010000000000000000E1
:1001E000000000000000000000000000000000000F
:1001F00000000000000012111000000000000000CC
:1002000000000000000000000000000000000000EE
:10021000000020002300260029002C002F003200BF
:100220000001000003010601090100002200250071
:1002300028002B002E0031003400020100000501CF
:1002400008010B0105050505070508080808020255
:1002500002020A0A08080404040401010101010160
:1002600001010303030303030303040707070C0C43
:100270000C0C0C0C0C0C020202020606060606060A
:1002800006060B0B0B0B0B0B0B0B010210202008AF
:1002900008102040102040800201020108040201E1
:1002A0000102040810204080804020100804020150
:1002B00080040201804020100804020108040201A9
:1002C0000102040810204080010204081020408030
:1002D0008F0ED41B11241FBECFEFD1E2DEBFCDBFE6
:1002E00000E00CBF27E0A4E0B5E001C01D92A53FEF
:1002F000B207E1F715E0A0E0B2E0E8EFFDE300E0CF
:100300000BBF02C007900D92A430B107D9F711E0DE
:10031000C9E6D1E000E006C021970109802FFE0167
:100320000E94921CC836D10780E00807A9F70E94F6
:10033000C90F0C94EA1E0C94000096E0899FD0012E
:100340001124AF5CB84F90967C936E935F9791E0C9
:1003500091969C939197E0919E07F0919F079091C1
:100360009D07992339F0309751F0811108C0809191
:100370004D071994309719F05C968C91FACF089537
:1003800008950895FC01248135816217730748F4AC
:1003900080819181009729F0860F971FFC01808151
:1003A000089580E008950895AF92BF92CF92DF92B2
:1003B000EF92FF920F931F93CF93DF936C017B011A
:1003C0008B01040F151FEB015E01AE18BF08C017AB
:1003D000D10759F06991D601ED91FC910190F0811E
:1003E000E02DC6011995892B79F7C501DF91CF91D1
:1003F0001F910F91FF90EF90DF90CF90BF90AF9043
:100400000895FC01538D448D252F30E0842F90E01A
:10041000821B930B541710F0CF96089501970895FF
:10042000FC01918D828D981761F0A28DAE0FBF2FC8
:10043000B11D5D968C91928D9F5F9F73928F90E01E
:1004400008958FEF9FEF0895FC01918D828D98178D
:1004500031F0828DE80FF11D858D90E008958FEFCA
:100460009FEF0895FC01918D228D892F90E0805C93
:100470009F4F821B91098F739927089588E896E012
:100480000E94320221E0892B09F420E0822F089596
:10049000FC01A48DA80FB92FB11DA35ABF4F2C91F9
:1004A000848D90E001968F739927848FA689B789F0
:1004B0002C93A089B1898C91837080648C93938DE7
:1004C000848D981306C00288F389E02D80818F7D8A
:1004D00080830895EF92FF920F931F93CF93DF9342
:1004E000EC0181E0888F9B8D8C8D98131AC0E88970
:1004F000F989808185FF15C09FB7F894EE89FF893F
:100500006083E889F98980818370806480839FBFDC
:1005100081E090E0DF91CF911F910F91FF90EF90DC
:100520000895F62E0B8D10E00F5F1F4F0F731127EC
:10053000E02E8C8D8E110CC00FB607FCFACFE88927
:10054000F989808185FFF5CFCE010E944802F1CF65
:10055000EB8DEC0FFD2FF11DE35AFF4FF0829FB79B
:10056000F8940B8FEA89FB8980818062CFCFCF938B
:10057000DF93EC01888D8823B9F0AA89BB89E889CB
:10058000F9898C9185FD03C0808186FD0DC00FB671
:1005900007FCF7CF8C9185FFF2CF808185FFEDCFEF
:1005A000CE010E944802E9CFDF91CF91089580E00B
:1005B00090E0892B29F00E943E0281110E940000E8
:1005C00080E090E0892B49F080E090E0892B29F0D1
:1005D0000E94000081110E94000080E090E0892BC1
:1005E00049F080E090E0892B29F00E940000811101
:1005F0000E94000080E090E0892B49F080E090E0CC
:10060000892B29F00E94000081110C9400000895AC
:100610008150823108F05AC0E82FF0E08827EC5E64
:10062000FC4F8F4F0C94921C3403380326032C0389
:10063000300366033B03410345034B034F0353035E
:1006400059035D036603610367036B0380918000B8
:100650008F77809380000895809180008F7DF9CFFF
:1006600080918000877FF5CF84B58F7784BD089512
:1006700084B58F7DFBCF8091B0008F778093B000E1
:1006800008958091B0008F7DF9CF809190008F7791
:10069000809390000895809190008F7DF9CF809194
:1006A0009000877FF5CF8091A0008F778093A00086
:1006B00008958091A0008F7DF9CF8091A000877F61
:1006C000F5CF809120018F7780932001089580914C
:1006D00020018F7DF9CF80912001877FF5CFCF93C7
:1006E000DF93282F30E0F901E653FE4F8491F901A2
:1006F000E657FD4FD491F901EC5BFD4FC491CC233B
:10070000A1F081110E940803EC2FF0E0EE0FFF1F13
:10071000E05FFD4FA591B491EC91ED2381E090E075
:1007200009F480E0DF91CF91089580E090E0FACF66
:10073000862F0C946F031F93CF93DF93282F30E005
:10074000F901E653FE4F8491F901E657FD4FD4912C
:10075000F901EC5BFD4FC491CC23A9F0162F811158
:100760000E940803EC2FF0E0EE0FFF1FE65DFD4F47
:10077000A591B4918FB7F894EC91111108C0D09560
:10078000DE23DC938FBFDF91CF911F910895DE2B85
:10079000F8CF862F642F0C949B03CF93DF9390E0C8
:1007A000FC01E657FD4F24918C5B9D4FFC01849129
:1007B0008823C9F090E0880F991FFC01E055FE4F97
:1007C000A591B491FC01E65DFD4FC591D4916111F5
:1007D0000DC09FB7F8948C91209582238C938881CB
:1007E000282328839FBFDF91CF910895623051F471
:1007F0009FB7F8943C91822F809583238C93E88156
:100800002E2BEFCF8FB7F894EC912E2B2C938FBF1C
:10081000EACF862F642F0C94CD033FB7F8948091D4
:10082000FB059091FC05A091FD05B091FE0526B554
:10083000A89B05C02F3F19F00196A11DB11D3FBF18
:10084000BA2FA92F982F8827BC01CD01620F711DE7
:10085000811D911D42E0660F771F881F991F4A95E1
:10086000D1F708958F929F92AF92BF92CF92DF926D
:10087000EF92FF926B017C010E940D044B015C0121
:10088000C114D104E104F104B9F00E940D04681907
:1008900079098A099B09683E73408105910580F3B7
:1008A00021E0C21AD108E108F10888EE880E83E041
:1008B000981EA11CB11CE4CFFF90EF90DF90CF9069
:1008C000BF90AF909F908F9008952FB7F89460914C
:1008D000F7057091F8058091F9059091FA052FBF01
:1008E00008950F931F938091A0079091A107DC01B9
:1008F000ED91FC910084F185E02D1995892B09F487
:10090000D5C060E070E0CB010E9432042091BE07A8
:100910008091A0079091A107DC01ED91FC910284E8
:10092000F385E02D21110BC019958093AA078E370E
:10093000D1F68091BE078F5F8093BE07D4CF199503
:100940009091BE07E92FF0E0E056F84F8287923091
:10095000B9F09930D9F09130A9F48F3F99F0109205
:10096000BE0781E08093C0071092C3071092C207B0
:100970008093C4071092C50780E01F910F910895DE
:10098000863069F79F5F9093BE07ADCF8F3E39F7F2
:100990008091AC079091AB07890F9927991FE0913F
:1009A000AD079C012E0F311D8091AE07820F932F52
:1009B000911D4091AF0750E0840F951F2091B00723
:1009C00030E06091B10770E0762F6627F091B207B2
:1009D0006F0F711D820F931F919581959109681773
:1009E000790709F0BCCF1092BE07E13419F41092D8
:1009F000C5073DC0E093C107542F4427240F351F7E
:100A00003093C3072093C207EA53E63108F044C08D
:100A1000F0E08827E15FFA4F8F4F0C94921C3A0563
:100A200041054A0525054A052C0548054C054A059A
:100A30004A054A054A054A054A054A054A054C053C
:100A40004A054A054A054A054A0585E08093C007DC
:100A500081E08093C4070BC089E020FDF7CF84E0DC
:100A600021FDF4CF237033278AE0232B79F780917F
:100A7000C40783CF87E020FDE9CF82E021FDE6CFE8
:100A8000F6CF88E020FDE2CF83E021FDDFCFEFCF7E
:100A900086E0DCCF8BE0DACF81E08093C007109254
:100AA000C3071092C2078093C407A1CF8091C507E6
:100AB0008823E9F20E9465040091A2071091A30720
:100AC0002091A4073091A507601B710B820B930B3B
:100AD0000091A6071091A7072091A8073091A907B8
:100AE000601771078207930710F21092BE071092E9
:100AF000C0071092C3071092C20781E039CF8093DC
:100B0000B707272F30E07093B9076093BA07409179
:100B1000B6079091B507490F5527551F840F952F9C
:100B2000911D4091B807840F911D820F931F680F8C
:100B3000792F711D7195619571097093BB07609351
:100B4000BC07442361F08091C507882341F060E031
:100B500070E0CB010E9432040E947104F4CF8091B6
:100B6000A0079091A107DC01ED91FC910280F38137
:100B7000E02D4AE050E064EB77E019950E946504AF
:100B80006093A2077093A3078093A4079093A5078F
:100B90008091B80791E0811101C090E09093C50762
:100BA000811106C06AE070E080E090E00C943204AD
:100BB0000895BC0183E00C947F050F931F93CF939E
:100BC000DF93C82FD62F86E0C89FF0011124EF5C79
:100BD000F84F11A2878D90A181309105F1F058F066
:100BE00082309105F1F1039709F440C0DF91CF9174
:100BF0001F910F9108956623C9F361E070E08C2F77
:100C00000E949D010E9465046093890770938A0782
:100C100080938B0790938C07E9CF0E946504009125
:100C2000890710918A0720918B0730918C07AB01BF
:100C3000BC01401B510B620B730B80919B07909181
:100C40009C07B0E0A0E084179507A607B70748F413
:100C500062E070E08C2FDF91CF911F910F910C9487
:100C60009D0163E070E0D111C1CFF4CF70E060E08E
:100C7000F1CF0F931F930E946504609390067093C9
:100C80009106809392069093930688E896E00E94DE
:100C9000100297FF1DC00E946504009190061091FC
:100CA00091062091920630919306601B710B820B86
:100CB000930B00918C0610918D0620918E06309139
:100CC0008F066017710782079307F8F28FEF9FEF87
:100CD0001F910F9108952091090630910A06281757
:100CE000390771F49091070680910806981741F032
:100CF000E0910706F0E0EA54FA4F808190E0089511
:100D00008FEF9FEF08950895EF92FF920F931F9337
:100D1000CF93DF93DC015C96ED90FC905D97E1143E
:100D2000F10479F481E090E013969C938E931297EE
:100D300090E080E0DF91CF911F910F91FF90EF90B5
:100D400008955196ED91FC91529750968C91509741
:100D5000982F90950FB75E962C915E97122F127078
:100D600021FD6095F8942081112319F1282B20830F
:100D7000E7012197F1F728E0462F50E0308160FF2E
:100D80001AC0382B3083E7012197F1F7BA01759526
:100D90006795215089F7112381F080818923808311
:100DA0000FBF5C968D919C910197F1F781E090E0E7
:100DB000C1CF2923DCCF3923E5CF9081892BEFCF19
:100DC0002091090630910A062817390771F480919D
:100DD00008062091070690E0805C9F4F821B9109D6
:100DE00060E470E00E945C1C089590E080E008954B
:100DF0002091090630910A0628173907B9F4909115
:100E0000070680910806981789F0E0910706F0E040
:100E1000EA54FA4F80812091070630E02F5F3F4F60
:100E20002F7333272093070690E008958FEF9FEFED
:100E3000089520914505260F3327331F21323105B0
:100E4000ECF420918E05FC0190E080E0243069F004
:100E500082E00895A09145052191AC014B5D5A4F68
:100E6000A40FB52FB11D2C930196861798F380918E
:100E70004505680F6093450580E0089581E0089579
:100E800010928E0581E080938D051092680561E0D7
:100E900084E10E949B0361E085E10E949B03E9EBF2
:100EA000F0E080818E7F808380818D7F808388E4E5
:100EB0008093B80085E48093BC000895CF93DF93BE
:100EC00091E0909324058823B9F0C091B800D091A7
:100ED000BA008091BC008A7B8093BC0060E084E112
:100EE0000E949B0360E085E10E949B030E944007F3
:100EF000D093BA00C093B800DF91CF910895E091EC
:100F0000060680910506E81730F4F0E0EC5FFA4F32
:100F1000808190E008958FEF9FEF089590910606ED
:100F2000809105062FEF3FEF981748F4E92FF0E086
:100F3000EC5FFA4F208130E09F5F90930606C90175
:100F400008958091050690910606891B990B0895D6
:100F5000CF92DF92EF92FF920F931F93CF93DF9385
:100F60007C01CB018A0120919405222389F0EB01B9
:100F70006B01C40ED51ECC15DD0569F06991D70152
:100F8000ED91FC910190F081E02DC7011995F3CF0F
:100F9000642F0E941907C801DF91CF911F910F9113
:100FA000FF90EF90DF90CF900895CF93DF931F9243
:100FB000CDB7DEB76983209194052223F9F0209103
:100FC0000306203258F021E030E0FC013383228315
:100FD00090E080E00F90DF91CF910895809104061A
:100FE000E82FF0E0EB56FA4F998190838F5F809362
:100FF00004068093030681E090E0ECCF61E0CE012F
:1010000001960E941907F7CFCF92DF92EF92FF92DD
:101010000F931F93CF93DF93FC01C48121E02093B2
:101020009405C093B50510920406109203068385BB
:10103000682B85E297E00E94D507D0910306D13254
:1010400008F092C00E940D046B017C0180918E0516
:10105000811165C082E080938E0581E080938D05CB
:101060008FEF80938C0510928B05D0938A05A5E9AC
:10107000B5E0EAE6F5E080E0D81385C01092690596
:1010800080916905CC0FC82BC093690580916805D4
:10109000813009F07CC0109268050E940D046B013C
:1010A0007C01809169058093BB00809190059091AF
:1010B0009105A0919205B0919305892B8A2B8B2BDA
:1010C00099F00E940D0400919005109191052091D6
:1010D0009205309193056C197D098E099F090617B9
:1010E000170728073907E0F18091BC0083FDD9CFAD
:1010F00085EC8093BC000E940D046B017C01809103
:101100008E05823009F445C080918C058F3F61F1D6
:1011100080918C05803241F180918C0525C08091B1
:10112000900590919105A0919205B0919305892B1E
:101130008A2B8B2B09F48ACF0E940D040091900515
:101140001091910520919205309193056C197D09BC
:101150008E099F09061717072807390708F076CF69
:1011600080918F050E945E0710920406109203067C
:1011700010929405DF91CF911F910F91FF90EF9006
:10118000DF90CF9008959D9191938F5F75CF85EEFD
:10119000B0CF8091900590919105A0919205B0916A
:1011A0009305892B8A2B8B2B09F4A9CF0E940D0460
:1011B0000091900510919105209192053091930531
:1011C0006C197D098E099F0906171707280739072B
:1011D00008F095CFC5CF90E080E0089580917E061D
:1011E00090917F06A0918006B091810640910B06F8
:1011F00050910C0660910D0670910E06841B950BA4
:10120000A60BB70B80937E0690937F06A093800673
:10121000B0938106089561E08DE00E949B0364EF26
:1012200071E080E090E00E94320460E08DE00C9478
:101230009B030F931F93CF938C01C62F0E9404082A
:101240006C2F6460C8010E9404086C2F6B7FC8017A
:101250000E94040883EC90E00197F1F7CF911F9171
:101260000F9108950F931F93CF93DF938C01D62F87
:10127000C42F607F642B0E94190980E1D89FB001C0
:1012800011246C2BC801DF91CF911F910F910C9409
:10129000190940E061E085EE97E00E9432098BE396
:1012A0009FE10197F1F70895CF93DF9300D000D02D
:1012B0001F921F92CDB7DEB788E0EEE1F2E0DE01CB
:1012C000119601900D928A95E1F78091ED078111B9
:1012D0001AC08FEF90E0880F991F21E030E02C0FAB
:1012E0003D1F820F931FFC016081606840E085EE26
:1012F00097E028960FB6F894DEBF0FBECDBFDF9102
:10130000CF910C94320981E0E5CF41E00E9432098F
:1013100081E090E00895CF92DF92EF92FF920F93D9
:101320001F93CF93DF93EB017B0124E0E20EF11CCE
:101330008B016C01C61AD70AC601800F911F0E944B
:101340002C1CF80181938F01EE15FF05A9F7CE0142
:10135000DF91CF911F910F91FF90EF90DF90CF9091
:1013600008959F92AF92BF92CF92DF92EF92FF9239
:101370000F931F93CF93DF935C017B018B01D0E030
:10138000C0E0F80191908F016501CC0EDD1EC60111
:101390000E942C1C981621F0692DC6010E94341C55
:1013A0002196C430D10569F7C701DF91CF911F9114
:1013B0000F91FF90EF90DF90CF90BF90AF909F90F4
:1013C0000895FC0180819181009711F00C94F01B2D
:1013D00060E070E0CB010895FB0101900020E9F787
:1013E0003197AF01461B570BDC01ED91FC91028058
:1013F000F381E02D199460EC72E088E896E00C949B
:10140000EC098F929F92AF92BF92EF92FF920F934F
:101410001F93CF93DF93CDB7DEB7A1970FB6F894A4
:10142000DEBF0FBECDBF7C01FA01CB0119A2223075
:1014300008F42AE08E010F5D1F4F822E912CB12CF3
:10144000A12CBF01A50194010E94701CF901CA01E1
:101450006A300CF5605DD8016E938D01232B242B2F
:10146000252B79F790E080E0109721F0BD01C701AE
:101470000E94EC09A1960FB6F894DEBF0FBECDBF57
:10148000DF91CF911F910F91FF90EF90BF90AF90A0
:101490009F908F900895695CDECFCF92DF92EF929C
:1014A000FF92CF93DF936C01990FEE08FF08F7FED0
:1014B0001BC06DE288E896E00E946A02EC014427B6
:1014C0005527BA014C195D096E097F092AE088E8A1
:1014D00096E00E94010A8C0F9D1FDF91CF91FF9033
:1014E000EF90DF90CF9008952AE0B701A60188E839
:1014F00096E0DF91CF91FF90EF90DF90CF900C942A
:10150000010ACF93DF93BC0188E896E00E94EC09C2
:10151000EC010E94FB098C0F9D1FDF91CF91089574
:101520000C94EC09CF93DF93EC010E944909BE01B2
:1015300085EE97E00E94900A0E94540963EC72E0E5
:1015400085EE97E00E94900A0E9465046E5D7340EC
:1015500081099109609375067093760680937706EA
:1015600090937806DF91CF910895CF93DF93EC01AC
:101570000E944909BE0185EE97E00E94900A0E94F0
:1015800054096EEC72E085EE97E00E94900A0E948A
:1015900065046E5D734081099109609375067093CF
:1015A00076068093770690937806DF91CF91089521
:1015B000FB0144815581FC012481358124173507C5
:1015C00078F080819181009759F0FB0160817181F1
:1015D0006115710529F00E94CD1E21E0892B09F0CB
:1015E00020E0822F08950F931F93CF93DF938C01F8
:1015F000EB01FC01808191810097E1F068817981A4
:1016000061157105A9F0428153812C813D814217FA
:10161000530770F00E94C61E8C819D81F80195834E
:1016200084831D821C82DF91CF911F910F910895B9
:101630000E944A1D88819981F801918380838A8163
:101640009B81938382838C819D819583848319827E
:1016500018821B821A82E5CFCF93DF93EC01888139
:101660009981009711F00E944A1D198218821D82EB
:101670001C821B821A82DF91CF910895FC01808128
:101680009181009711F00C944A1D08950F931F93B8
:10169000CF93DF93EC0188819981009759F02A81DB
:1016A0003B812617370730F081E0DF91CF911F9102
:1016B0000F9108958B016F5F7F4F0E94D31D00979C
:1016C00059F0998388831B830A832C813D81232BC6
:1016D00059F7FC011082E8CF80E0E7CFEF92FF924C
:1016E0000F931F93CF93DF93EC017B011982188234
:1016F0001B821A821D821C82FB0101900020E9F7E7
:1017000031978F01061B170BB8010E94460B811100
:1017100009C0CE01DF91CF911F910F91FF90EF9003
:101720000C942C0B1D830C83B70188819981DF9168
:10173000CF911F910F91FF90EF900C94C61E9F9236
:10174000AF92BF92CF92DF92EF92FF920F931F93CF
:10175000CF93DF937C016B015A0189012417350770
:1017600020F48B2D5901042F182F62EC72E0C70171
:101770000E946E0BD6011496CD91DC91AC16BD067D
:1017800050F50C171D0708F4E801D601ED91FC9106
:101790001197EC0FFD1F908010820D911C910A0D86
:1017A0001B1D0115110571F0F80101900020E9F7EA
:1017B00031975F01A01AB10AB501C7010E94460B1B
:1017C000811116C0C7010E942C0BD6018D919C91EE
:1017D000C80FD91F9882C701DF91CF911F910F9138
:1017E000FF90EF90DF90CF90BF90AF909F900895C3
:1017F000F701B582A482B801808191810E94C61E42
:10180000E4CFCF93DF93EC01FB01248135810E946B
:101810009F0BCE01DF91CF91089585ED8093BC00A1
:101820008091900590919105A0919205B0919305BA
:101830000796A11DB11D23E0B695A79597958795AD
:101840002A95D1F72091BC0024FD03C010928E058B
:101850000895409190055091910560919205709185
:101860009305452B462B472B69F30097A105B1053E
:1018700041F02AE22A95F1F700C00197A109B109C8
:10188000E1CF80918F050C945E071F920F920FB6E7
:101890000F9211240BB60F922F933F934F935F93A8
:1018A0006F937F938F939F93AF93BF93EF93FF9328
:1018B00088E896E00E944802FF91EF91BF91AF91B6
:1018C0009F918F917F916F915F914F913F912F9158
:1018D0000F900BBE0F900FBE0F901F9018951F9288
:1018E0000F920FB60F9211240BB60F922F938F9376
:1018F0009F93EF93FF93E0919806F0919906808172
:10190000E0919E06F0919F0682FD1DC0908180911E
:10191000A1068F5F8F732091A206821741F0E0919C
:10192000A106F0E0E857F94F958F8093A106FF914B
:10193000EF919F918F912F910F900BBE0F900FBE43
:101940000F901F9018958081F2CF1F920F920FB6C3
:101950000F9211242F933F938F939F93AF93BF9335
:101960008091F7059091F805A091F905B091FA05DD
:101970003091F60523E0230F2D3758F50196A11D70
:10198000B11D2093F6058093F7059093F805A09379
:10199000F905B093FA058091FB059091FC05A091A3
:1019A000FD05B091FE050196A11DB11D8093FB05BB
:1019B0009093FC05A093FD05B093FE05BF91AF91F8
:1019C0009F918F913F912F910F900FBE0F901F907D
:1019D000189526E8230F0296A11DB11DD2CF1F92A4
:1019E0000F920FB60F9211240BB60F922F933F93C5
:1019F0004F935F936F937F938F939F93AF93BF9317
:101A0000EF93FF93E0910906F0910A06309749F0B1
:101A1000A685B7858585968D91FF16C09C918923F3
:101A2000B1F4FF91EF91BF91AF919F918F917F9111
:101A30006F915F914F913F912F910F900BBE0F903F
:101A40000FBE0F901F9018959C91892351F7A38981
:101A5000B4899C918589809589238C9386899789FF
:101A60000197F1F7608D718DA685B785558538E0B2
:101A700020E0CB010197F1F7822F90E095958795B3
:101A8000282F4C91452309F02068315091F7868D1D
:101A900081FD20958091080690E001968F7399272B
:101AA00030910706381799F0A0910806B0E0AA54C3
:101AB000BA4F2C9380930806828D938D0197F1F78E
:101AC000A389B4898C919589892B8C93AACF868D13
:101AD0008160868FF1CF1F920F920FB60F92112463
:101AE0000BB60F922F933F934F935F936F937F9318
:101AF0008F939F93AF93BF93EF93FF938091B90020
:101B0000887F803609F44DC008F040C0883209F45F
:101B1000A9C028F5803109F49DC0C8F4882309F4D0
:101B2000FBC0883009F496C0FF91EF91BF91AF914F
:101B30009F918F917F916F915F914F913F912F91E5
:101B40000F900BBE0F900FBE0F901F90189588310D
:101B500009F488C0803241F780938C0514C080342A
:101B600009F49DC040F48033B9F38833E9F68093DB
:101B70008C0585ECB0C0803509F485C0883509F442
:101B800096C0883489F60E940D0CCECF883909F4AE
:101B90008CC038F5883729F050F4883611F080373A
:101BA00019F683E080938E051092670557C0883838
:101BB00009F47BC0803919F0803809F0B5CF8091E5
:101BC0006705803208F071C0E091670581E08E0FF3
:101BD000809367058091BB00F0E0E95BFA4F80835A
:101BE0003DC0803B39F0E0F4803A09F479C0883A8E
:101BF00009F09ACF84E080938E05109246051092EA
:101C00004505E0910106F091020619958091450580
:101C100081110FC081E0809345051092250509C010
:101C2000803C09F4A6CF883C09F4A3CF883B09F097
:101C30007BCFE091460581E08E0F80934605F0E072
:101C4000EB5DFA4F80818093BB00909146058091B7
:101C5000450529C0809169058093BB0085EC809380
:101C6000BC0062CF90918B0580918A05981758F53A
:101C7000E0918B0581E08E0F80938B05F0E0E659B3
:101C8000FA4F8081E9CFE0918B0581E08E0F809340
:101C90008B058091BB00F0E0E659FA4F808390916C
:101CA0008B0580918A059817C8F285E8D8CFE09116
:101CB0008B0581E08E0F80938B058091BB00F0E057
:101CC000E659FA4F808380918D0581115CCF81E0C8
:101CD0008093680584EA8093BC0010928E0524CF1F
:101CE00085EC8093BC0010928E0580916705803250
:101CF00030F4E0916705F0E0E95BFA4F1082609103
:101D0000670570E0E091FF05F091000687E495E03B
:101D100019951092670508CF10928C0534CF109258
:101D20008B0610928A0688EE93E0A0E0B0E08093E4
:101D30008C0690938D06A0938E06B0938F0628E7AD
:101D400032E0309389062093880625EC30E030930A
:101D500095062093940624EC30E030939706209368
:101D6000960620EC30E0309399062093980621ECFB
:101D700030E030939B0620939A0622EC30E03093BB
:101D80009D0620939C0626EC30E030939F0620931E
:101D90009E061092A1061092A2061092A30610921F
:101DA000A406109228071092270780932907909382
:101DB0002A07A0932B07B0932C072AE832E0309330
:101DC0002607209325071092E8071092E70728EBD3
:101DD00032E03093E6072093E50727E22093E907F6
:101DE00020E12093EE0722E02093EF071092F00706
:101DF0001092C9071092C8078093CA079093CB0727
:101E0000A093CC07B093CD0786EA92E09093C707E2
:101E10008093C6071092DD071092DC071092DF074F
:101E20001092DE071092E1071092E0071092E3078C
:101E30001092E2076091E4076E7F6D7F6093E40784
:101E40006695617081E068278BE00E949B0361E0EA
:101E50008BE00E94CD03E5E9F2E0E491E093D60740
:101E6000EFE4F2E0E491F0E0EE0FFF1FE65DFD4FDE
:101E7000859194919093D8078093D70760E08AE08A
:101E80000E94CD038091E40781FD04C061E08AE0F7
:101E90000E949B038AE08093D207E4E9F2E0E49198
:101EA000E093D307EEE4F2E0E491F0E0EE0FFF1FE1
:101EB000E05FFD4F259134913093D5072093D407EF
:101EC00044EF51E060E070E04093A6075093A7070D
:101ED0006093A8077093A907E6E2F2E0A4EBB7E0ED
:101EE00001900D928A95E1F71092BE0782E08093EF
:101EF000BF071092C4071092C507109233071092C3
:101F0000370710923607109238078CE992E09093C9
:101F1000320780933107EDE4F7E089E897E010821B
:101F200014821382158236968E179F07C1F784E0BC
:101F300092E0909394078093930780E092E09093CF
:101F400096078093950784E080939707809398077E
:101F500088E092E090939207809391078AE090E066
:101F600090939A078093990784EF91E090939C0750
:101F700080939B0710929F0710929E0710928D07E7
:101F800010928E0710928F071092900710929D0763
:101F90000895CF93DF93CDB7DEB7C651D1400FB6CA
:101FA000F894DEBF0FBECDBF789484B5826084BD47
:101FB00084B5816084BD85B5826085BD85B581604D
:101FC00085BD80916E00816080936E0010928100CB
:101FD0008091810082608093810080918100816086
:101FE0008093810080918000816080938000809147
:101FF000B10084608093B1008091B00081608093D3
:10200000B000809191008260809391008091910056
:102010008160809391008091900081608093900016
:102020008091A10082608093A1008091A1008160D5
:102030008093A1008091A00081608093A000809196
:102040002101826080932101809121018160809330
:1020500021018091200181608093200180917A008C
:10206000846080937A0080917A00826080937A0005
:1020700080917A00816080937A0080917A008068F4
:1020800080937A001092C100E0919806F091990631
:1020900082E08083E0919406F09195061082E091B1
:1020A0009606F09197068FEC80831092A006E0913F
:1020B0009C06F0919D0686E08083E0919A06F0915F
:1020C0009B06808180618083E0919A06F0919B0657
:1020D000808188608083E0919A06F0919B068081E0
:1020E00080688083E0919A06F0919B0680818F7DC5
:1020F0008083109206061092050610920406109234
:1021000003060E94400780EC91E0909302068093C2
:10211000010681EC91E0909300068093FF051092F8
:10212000EA078091EF07823018F098E09093EA0771
:102130008093ED0762E370E080E090E00E9432045B
:102140006091F00785EE97E00E94040868EE73E066
:1021500080E090E00E94320460E385EE97E00E9408
:1021600019090BE416E4C8010197F1F760E385EE65
:1021700097E00E941909C8010197F1F760E385EE25
:1021800097E00E94190983E592E00197F1F760E278
:1021900085EE97E00E9419096091EA07606240E0CD
:1021A00085EE97E00E94320984E08093EB0740E0DF
:1021B0006CE085EE97E00E9432090E94490982E0B6
:1021C0008093EC0740E066E085EE97E00E943209DC
:1021D00040E062E085EE97E00E9432098BE39FE1E8
:1021E0000197F1F788E08093F00760E085EE97E0D3
:1021F0000E9404080E94490969ED72E085EE97E0AB
:102200000E94900A0E94540969EE72E085EE97E000
:102210000E94900A1092E1071092E0071092DF07E7
:102220001092DE071092DD071092DC078DE991E035
:102230009093E3078093E2078091D20796EF980F7F
:10224000943048F02EEC280F243028F022EC280F90
:10225000283008F061C02DEB30E03093DD0720938B
:10226000DC072BE931E03093DF072093DE072CE217
:1022700031E03093E1072093E007943050F02EECEA
:10228000280F243030F022EC280FF0E0E0E0283076
:1022900010F4E8E6F0E02081943028F032EC380FBA
:1022A000383008F48FC031E0232B943048F09EEC96
:1022B000980F943028F08E53F0E0E0E0883010F46E
:1022C000E8E6F0E020832091D20736EF320F343079
:1022D00008F47AC08EEC820F843008F475C082EC6A
:1022E000820F883008F073C08DE690E09093DA0793
:1022F0008093D907343008F06DC02650330B81E04D
:1023000001C0880F2A95EAF78093DB078091E207E6
:102310009091E3070197F1F78091E0079091E10731
:10232000892B49F1E0910906F0910A0627E0E63C85
:10233000F20709F1309739F0A389B4899C91858916
:10234000809589238C938091E4078E7F8093E407A6
:10235000109208061092070686EC97E090930A0602
:1023600080930906E091D907F091DA078081909176
:10237000DB07892B808386EC97E09093A1078093FD
:10238000A00781E08093B80770E060E08CE00E94D5
:102390007F050E9465046B017C010E94710481111C
:1023A0002EC00E9465046C197D098E099F09613D4C
:1023B00077408105910518F560E070E0CB010E943F
:1023C0003204EBCF34E070CF8BE690E08FCF90E01B
:1023D00080E08CCF88E0223309F496CF84E0233369
:1023E00009F492CF82E0243309F48ECF82EC820F7D
:1023F000883018F42E53330B82CF81E085CF68EC00
:1024000070E080E090E00E9432041092C407809156
:10241000C007843059F0893049F00E94490965EFBE
:1024200072E085EE97E00E94900AFFCF69E170E0CC
:1024300086E00E947F0561E08CE00E94CD0361E0B0
:102440008DE00E94CD0360E08CE00E949B0360E081
:102450008DE00E949B0362E086E30E94CD0308E4C6
:1024600012E04CE352E0CB5EDE4F59834883C55106
:10247000D140CB5EDE4FA881B981C551D1408C914E
:102480001296CB5EDE4FB983A883C551D14062E07E
:102490000E94CD03CB5EDE4FE881F981C551D1406A
:1024A0000E171F0731F700E312E0D8018C910E5F81
:1024B0001F4F62E00E94CD03B2E00C331B07A9F767
:1024C000F4E7EF2EF2E0FF2E04E512E0F801808140
:1024D0000E5F1F4F62E00E94CD03E016F106B1F7D8
:1024E0006EE776E090E080E00E948B096BE076E09A
:1024F00084E090E00E948B09EFE0EE2EE6E0FE2EF5
:1025000008E010E0C8010E942C1C90E0D7018D93D8
:102510009D937D010F5F1F4F0E30110599F77BE1F1
:10252000E72E76E0F72EC8010E942C1C90E0F70100
:10253000819391937F010F5F1F4F0431110599F72C
:1025400061E3E62E66E0F62E04E110E0C8010E9489
:102550002C1CD7018C93C80101960E942C1CF701FA
:102560008183F2E0EF0EF11C0E5F1F4F0032110568
:1025700069F75FE3E52E56E0F52E00E210E0C801B2
:102580000E942C1C90E0D7018D939C930E5F1F4FEF
:10259000C80101970E942C1C90E0F701938382836D
:1025A000F4E0EF0EF11C0033110549F747E2E42E89
:1025B00046E0F42E00E310E0C8010E942C1CD70175
:1025C0008D937D010F5F1F4F0A331105A9F7FE019F
:1025D00031963F019E012D5F3F4FCD5EDE4F398327
:1025E0002883C351D14088E896E00E943202181631
:1025F00019060CF01AC162EC72E0CE01835F9E4FA7
:102600000E946E0B0E94390697FD2DC08A309105FD
:1026100051F189831A82CF5EDE4F08811981C15141
:10262000D1400F5F1F4FB801CE01835F9E4F0E94C4
:10263000460B882339F3C35FDE4F28813981CD50A3
:10264000D140CF5EDE4F88819981C151D140B30125
:10265000820F931F0E94C61ECF5EDE4F1983088330
:10266000C151D140CFCF64EF71E080E090E00E9493
:102670003204CF5EDE4F48815981C151D140C35FE2
:10268000DE4F68817981CD50D14088E896E00E9484
:10269000D4010E94FB0960E073E0C3010E946E0B4D
:1026A000B301CE01835F9E4F0E94D80A182FC30149
:1026B0000E943E0B112309F4F7C344E050E0BE0131
:1026C000635F7E4FC3010E94010CB301CE01835FA3
:1026D0009E4F0E94F30AC3010E943E0B6AE673E01C
:1026E000C3010E946E0BB301CE01835F9E4F0E9417
:1026F000D80A182FC3010E943E0B112309F14AE0AA
:1027000050E0BE01635F7E4FC3010E94010CC30114
:102710000E94E1099B01AC01A8EEB3E00E94421CBB
:1027200060937E0670937F06809380069093810667
:10273000C3010E943E0B85E093E00E94810A70C0B5
:102740006CE773E0C3010E946E0BB301CE01835F9F
:102750009E4F0E94D80A182FC3010E943E0B1123DE
:10276000F9F048E050E0BE01635F7E4FC3010E9474
:10277000010CC3010E94E1099B01AC01A8EEB3E08A
:102780000E94421C60930B0670930C0680930D060A
:1027900090930E06C3010E943E0B82E193E0CDCFE1
:1027A0006CE873E0C3010E946E0BB301CE01835F3E
:1027B0009E4F0E94D80A182FC3010E943E0B11237E
:1027C00009F44EC149E050E0BE01635F7E4FC30192
:1027D0000E94010C0D811E81F12CE12CE016F10606
:1027E00088F4B701C3010E94C201F701EE0FFF1F79
:1027F000E15FF94F21E030E0813311F030E020E07B
:10280000318320833FEFE31AF30A46E0E416F10434
:1028100029F78DE193E00E94810AC3010E943E0BDB
:10282000CE01835F9E4F0E943E0B809187068111EF
:102830004EC080918606811169C586E30E946F03B0
:10284000892B09F063C581E0809387060E946504A7
:102850006093820670938306809384069093850626
:1028600010923E0610923D0610927D0610927C0654
:1028700010927B0610927A06109279060E944909FE
:102880006CED73E085EE97E00E94900A0E94540977
:102890006AEE73E085EE97E00E94900A81E090E096
:1028A0000E94D90568E873E180E090E00E9432045C
:1028B0000E94650460937506709376068093770690
:1028C0009093780680918706882309F41FC580902D
:1028D000860681101BC50E94650400917506109143
:1028E00076062091770630917806601B710B820B7B
:1028F000930B683E73408105910508F44AC0C0906F
:102900008206D0908306E0908406F09085060E94AF
:1029100065046093750670937606809377069093AE
:1029200078060E9465041B012C012C183D084E08F6
:102930005F08C0907E06D0907F06E0908006F09001
:1029400081062C143D044E045F0418F50E944909C9
:1029500065EF73E085EE97E00E94900A0E945409AB
:10296000C701B601621973098409950928EE33E09D
:1029700040E050E00E94701CBA01A9012AE085EEF7
:1029800097E00E94010A65E074E085EE97E00E94FE
:10299000900A0E946504009182061091830620919E
:1029A000840630918506601B710B820B930B00919E
:1029B0007E0610917F062091800630918106601777
:1029C000710782079307D8F081E0809386060E9402
:1029D00049096EE074E085EE97E00E94900A0E943B
:1029E000540969E174E085EE97E00E94900A83E063
:1029F00090E00E94D90560E08DE00E949B0381E099
:102A000080939D070E94650400918D0710918E07A9
:102A100020918F0730919007AB01BC01401B510BF7
:102A2000620B730B8091990790919A07B0E0A0E038
:102A300084179507A607B70708F06BC410E08091CC
:102A40009707181708F034C3E0919307F0919407A3
:102A5000E10FF11D62E080810E94CD031F5FEFCF87
:102A60006DE973E0C3010E946E0BB301CE01835F79
:102A70009E4F0E94D80A182FC3010E943E0B1123BB
:102A800041F148E050E0BE01635F7E4FC3010E9408
:102A9000010C0D811E81F12CE12CE016F10678F479
:102AA000B701C3010E94C201F701EE0FFF1FE55EEF
:102AB000F94F082E000C990BC097918380835FEF2C
:102AC000E51AF50A86E0E816F10439F789E293E0A1
:102AD000A2CE6DEA73E0C3010E946E0BB301CE017A
:102AE000835F9E4F0E94D80A182FC3010E943E0B9D
:102AF000112309F47BC045E050E0BE01635F7E4FC7
:102B0000CE01895F9E4F0E94010C10E000E0912CE5
:102B1000812CF12CE12CC55FDE4FC880D980CB50D1
:102B2000D1400C151D0508F059C0B801CE01895FD0
:102B30009E4F0E94C201D80111965D018C3231F086
:102B4000B1E0CB1AD1080C151D05E1F562EC72E07D
:102B5000CE018F5F9E4F0E946E0BC55FDE4F888156
:102B60009981CB50D14001970817190769F5492D74
:102B7000582DBE01695F7E4FC3010E94010CB30155
:102B8000CE018F5F9E4F0E94F30AC3010E943E0B4D
:102B9000E6E0EE16F10464F4CE018F5F9E4F0E94D2
:102BA000E109F701EE0FFF1FEF5CF94F71836083BE
:102BB0009A2C8B2CFFEFEF1AFF0ACE018F5F9E4FEE
:102BC0000E943E0B8501A7CF9801492D582DBE01CB
:102BD000695F7E4FC3010E949F0BD1CF84E393E0D6
:102BE0000E94810ACE01895F9E4F18CE6CEB73E084
:102BF000C3010E946E0BB301CE01835F9E4F0E9402
:102C0000D80A182FC3010E943E0B112309F487C074
:102C100046E050E0BE01635F7E4FCE01895F9E4F6C
:102C20000E94010C10E000E0D12CC12C512C412C51
:102C3000F12CE12CC55FDE4FA880B980CB50D1408C
:102C40000A151B0508F068C0B801CE01895F9E4FC8
:102C50000E94C20198012F5F3F4F49018C3239F029
:102C600031E0A31AB1080A151B0509F045C062EC52
:102C700072E0CE018F5F9E4F0E946E0BC55FDE4FEC
:102C800088819981CB50D140019708171907B1F578
:102C9000452D542DBE01695F7E4FC3010E94010C7A
:102CA000B301CE018F5F9E4F0E94F30AC3010E94C1
:102CB0003E0B48E0E416F104C4F4CE018F5F9E4F52
:102CC0000E94E109F701EE0FFF1FEC0DFD1DEE0F55
:102CD000FF1FE15CF94F71836083CA94CD28C1F472
:102CE0005FEFE51AF50AD12CC12C582C492CCE01E6
:102CF0008F5F9E4F0E943E0B84019CCF9801452D13
:102D0000542DBE01695F7E4FC3010E949F0BC8CF47
:102D1000CC24C394D12CE9CF8CE393E061CF6AEC4F
:102D200073E0C3010E946E0BB301CE01835F9E4F1F
:102D30000E94D80A182FC3010E943E0B112319F1DB
:102D400048E050E0BE01635F7E4FC3010E94010C6A
:102D50000D811E810115110529F41092270685E4C5
:102D600093E059CD0930110510F009E010E06981B8
:102D70007A81A80187E296E00E94DB1EF801E95DF6
:102D8000F94F1082ECCFCF5EDE4F88819981C1511F
:102D9000D140892B09F444CD63E573E0C35FDE4F76
:102DA00088819981CD50D1400E94BD1E892B09F0A8
:102DB00037CD6EE776E090E080E00E94B1096BE0ED
:102DC00076E084E090E00E94B109BFE0EB2EB6E02F
:102DD000FB2E08E010E0D7016C91B2E0EB0EF11C85
:102DE000C8010E94341C0F5F1F4F0E30110599F768
:102DF000ABE1EA2EA6E0FA2EF7016081F2E0EF0ED9
:102E0000F11CC8010E94341C0F5F1F4F04311105D3
:102E100099F704E110E09801235E394F79016801C8
:102E200032E0C30ED11CD701BD907D01C8010E94C4
:102E30002C1CB81621F06B2DC8010E94341C0F5FAA
:102E40001F4F0C151D0579F70032110521F7FFE31F
:102E5000EF2EF6E0FF2EF7016081C8010E94341CBE
:102E60000E5F1F4FD70112966C91C80101970E9407
:102E7000341CB4E0EB0EF11C0033110561F707E2DE
:102E800016E0E0E3EE2EF12CF80161918F01C7010D
:102E90000E94341CFFEFEF1AFF0A2AE3E216F10446
:102EA00099F780E593E049CCCF5EDE4F8881998128
:102EB000C151D140892B09F4B3CCC35FDE4FE88008
:102EC000F980CD50D14068E573E0C7010E94BD1E76
:102ED0008C01892B09F0C5C063E673E088E896E0B1
:102EE0000E94900A60917E0670917F068091800614
:102EF0009091810628EE33E040E050E00E94701C83
:102F0000BA01A9012AE088E896E00E94010A0E941D
:102F1000FB0965E773E088E896E00E94900A6091FB
:102F20000B0670910C0680910D0690910E0628EE0E
:102F300033E040E050E00E94701CBA01A9012AE091
:102F400088E896E00E94010A0E94FB0965E873E0A8
:102F500088E896E00E94900A7FE0E72E76E0F72E60
:102F6000D7018D919D917D010E944D0ABBE1EB1629
:102F7000B6E0FB06A9F70E94FB0966E973E088E862
:102F800096E00E94900A57E2C52E56E0D52E6BE1DE
:102F9000E62E66E0F62EF701819191917F010E9465
:102FA0004D0ACE14DF04B9F70E94FB0966EA73E00C
:102FB00088E896E00E94900A41E3C42E46E0D42EB1
:102FC000F12CE12CD6018D919D916D010E944D0A4D
:102FD000B5E0EB16F10431F063EB73E088E896E0BE
:102FE0000E94900AEFEFEE1AFE0AF6E0EF16F104E7
:102FF00049F70E94FB0965EB73E088E896E00E94C0
:10300000900A3FE3E32E36E0F32ED7018D919C9199
:103010000E944D0A63EB73E088E896E00E94900AF4
:10302000F701828193810E944D0A0730110531F02A
:1030300063EB73E088E896E00E94900A0F5F1F4FF1
:10304000F4E0EF0EF11C08301105F9F60E94FB09BF
:1030500063EC73E088E896E00E94900A87E296E0CD
:103060006CCB66ED73E0C7010E94BD1E892B09F091
:10307000D7CB10928706109286060E94490969ED07
:1030800072E085EE97E00E94900A0E94540969EE72
:1030900072E085EE97E00E94900A60E08CE00E946A
:1030A0009B0360E08DE00E949B0383ED93E045CBA2
:1030B000912C80919807981608F063C0E92CF12CA8
:1030C000E0919507F0919607EE0DFF1D61E080817C
:1030D0000E94CD03E0919507F0919607EE0DFF1D3C
:1030E00060E080810E949B0381E090E0A0E0B0E07E
:1030F000092C04C0880F991FAA1FBB1F0A94D2F77E
:103100005C016C01C094D094512C809197075816A3
:1031100008F5052D10E0E0919307F0919407E00F7A
:10312000F11F80810E946F030C5F1F4F000F111F62
:10313000F801EF5CF84F892B41F4808191818A2955
:103140009B29918380835394E0CF808191818C214E
:103150009D21F7CFE0919507F0919607EE0DFF1DA9
:1031600061E080810E949B03809195079091960772
:10317000E80EF91E60E0D7018C910E94CD03939474
:1031800098CF91E3E92E97E0F92E8DE697E087013D
:10319000F801278D30A1232B31F4148E2FEF3FEF50
:1031A000368F258F11A20A5F1F4F8017910781F775
:1031B000D12C86E0B82E80919707D81608F052C01F
:1031C000C12C4D2C512C440C551CA201475C584F6E
:1031D0002A0120919807C21608F042C0D2016D91D1
:1031E0007C910C2C02C0769567950A94E2F7D29EEA
:1031F000900111242C0D311DE1E3F7E080E0458DB5
:10320000568D2417350709F4C4C28F5F36968A306D
:10321000B1F760FF23C0E1E3F7E090E080E0448D88
:10322000411117C0E0919107F0919207E20FF31F4F
:103230004081B89EF001B99EF00D1124EF5CF84F6B
:10324000448F368F258F10A2178E61E00E94DD0516
:1032500005C0019636968A30910509F7C394B9CF17
:10326000D394A9CFF70181A18111882EF6E0EF0E4A
:10327000F11CE016F106B1F70E94650460938D071A
:1032800070938E0780938F0790939007882009F49E
:1032900040C0409052074420E1F180915007909146
:1032A00051070197B1F580914D07811135C080918B
:1032B0007D06882359F180917C06882339F180911D
:1032C0007B06882319F180917A068823F9F0809192
:1032D00079068823D9F081E0809386060E94490907
:1032E00069E774E085EE97E00E94900A0E94540915
:1032F00062E874E085EE97E00E94900A82E090E038
:103300000E94D90560E08DE00E949B030E94D702D5
:103310006AC910929D07CBCF209173063091740635
:10332000233131057CF4A9014F5F5F4F5093740640
:1033300040937306215A394FD9018C93415A594F02
:10334000FA0110828A32B9F580917D068111B3CFDE
:103350000FE016E0ACE3EA2EA2E0FA2ED7018C9142
:10336000B2E0EB0EF11C0E946F03F8014191519104
:103370008F0121E030E0892B11F030E020E042178E
:10338000530709F008C2CB5EDE4F28813981C55151
:10339000D140E216F30611F781E080937D0680911B
:1033A0003D0690913E06019690933E0680933D0621
:1033B00082E994E0ADC0833221F08154833008F07B
:1033C00076CF2091730630917406233031050CF4CA
:1033D0006ECF80915F06833209F054C0C901019716
:1033E000FC01E15AF94F4081433209F060CF40912E
:1033F0007C0641115CCF1A82198248E0CD5EDE4F17
:10340000A881B981C351D1401D924A95E9F700E6E0
:1034100016E0FE013196AF01D8016D918D01DA0100
:103420006D93AD01B8016F55764068177907A4F325
:103430004FEF5FEF4C0F5D1F240F351FD9011C921A
:103440009F012A5F3F4FABE1B6E081914D915D91C5
:10345000082E000C990BC0978417950709F09EC1A0
:103460002E173F0791F781E080937C0680913D06FF
:1034700090913E06019690933E0680933D0684EB24
:1034800094E046C0813409F061C0A901415051095E
:10349000FA01E15AF94F8081813409F008CF809117
:1034A0007906811104CF1A82198288E0CD5EDE4F41
:1034B000E881F981C351D14011928A95E9F7A0E6DC
:1034C000B6E0FE013196CF016D916193BD016F555C
:1034D000764064177507C4F34FEF5FEF4C0F5D1F25
:1034E000240F351FD9011C9267E276E00E94BD1EB1
:1034F000892BC9F481E08093790680913D069091F3
:103500003E06019690933E0680933D0684E294E049
:103510000E94B50A61E08CE00E949B0384E090E089
:103520000E94D9050CC089E394E00E94920A0E948F
:103530000B0985E090E00E94D9050E94EE081092E8
:1035400074061092730610925F06B1CE823409F0B1
:103550004DC0225A394FF9018081823409F0A7CE3B
:1035600080917B068111A3CEE8E4F2E024E532E00D
:10357000A1E3B6E080813296863308F0865340910D
:103580007B00982F9870477F942B90937B008770D7
:10359000806480937C0080917A00806480937A00BC
:1035A00080917A0086FDFCCF80917800909179001F
:1035B0004D915D91841B950B97FF03C0919581956B
:1035C0009109C3970CF0EDC02E173F0799F681E0E3
:1035D00080937B0680913D0690913E0601969093E4
:1035E0003E0680933D068AED94E092CF833409F045
:1035F0005ECE225A394FD9018C91833409F057CECF
:1036000080917A06811153CE80E091E0F3019C0114
:10361000119221503040E1F713016301F4E5AF2E20
:10362000F2E0BF2EF12CE12CD5015C90B2E0AB0EA4
:10363000B11C61E0852D0E94CD0360E0852D0E94C4
:103640009B03E4E58E2EE2E09E2E10E000E0E01603
:10365000F10659F0F40180810E946F03892B29F44F
:10366000F601E00FF11F21E020830F5F1F4F32E0D2
:10367000830E911C0031110551F762E0852D0E94E7
:10368000CD034FEFE41AF40A50E1C50ED11C80E1DE
:10369000E816F10449F6AFE3B6E04D915C9111975D
:1036A00057FD20C012968D919C91139797FD1AC0DB
:1036B000FA0174E0EE0FFF1F7A95E1F7E60DF71DB2
:1036C000E80FF91F2081222399F0FC0164E0EE0F3E
:1036D000FF1F6A95E1F7E60DF71DE40FF51F208146
:1036E000222331F0149696E0AF35B907B1F6242DB8
:1036F000B30150E040E0DA011196CD01803191052F
:1037000079F1FB01E80FF91F308131110BC0FC0189
:1037100034E0EE0FFF1F3A95E1F7E20DF31D308123
:10372000332361F0EFE3F6E0008111810417150700
:1037300039F4028113818017910751F40196DECF8D
:103740008017910729F40281138104171507B1F33B
:10375000349636E0EF35F30739F781E694E0E5CEAD
:103760002223D9F3EFEF2E1A3E0A605F7F4FAD019F
:10377000509709F681E080937A0680913D069091FA
:103780003E06019690933E0680933D068CE494E0BD
:10379000BFCE61705BCD84EA94E0C7CE88EC94E044
:1037A000C4CE8DEE94E0C1CE86EA92E09093C70736
:1037B0008093C6078091090690910A06865C97401F
:1037C00071F4E091D907F091DA0790818091DB07DD
:1037D00080958923808310920A0610920906089525
:1037E0001F93FC0199278827BC01E894119110329E
:1037F000E9F3193010F01E30C8F31B3251F01D32BE
:1038000049F4689406C00E94171C610F711D811D48
:10381000911D119110531A30B0F33EF4909580959C
:10382000709561957F4F8F4F9F4F1F910895592F2E
:10383000482F372F262F660F771F881F991F660F77
:10384000771F881F991F620F731F841F951F660FB4
:10385000771F881F991F0895F999FECF92BD81BDEA
:10386000F89A992780B50895262FF999FECF1FBAA7
:1038700092BD81BD20BD0FB6F894FA9AF99A0FBE99
:10388000019608950E944D1CA59F900DB49F900D28
:10389000A49F800D911D11240895A29FB001B39F94
:1038A000C001A39F700D811D1124911DB29F700D49
:1038B000811D1124911D089597FB072E16F4009485
:1038C00007D077FD09D00E949A1C07FC05D03EF472
:1038D000909581959F4F0895709561957F4F0895BC
:1038E000A1E21A2EAA1BBB1BFD010DC0AA1FBB1F04
:1038F000EE1FFF1FA217B307E407F50720F0A21B76
:10390000B30BE40BF50B661F771F881F991F1A94E2
:1039100069F760957095809590959B01AC01BD010C
:10392000CF010895EE0FFF1F881F8BBF0790F69100
:10393000E02D1994AA1BBB1B51E107C0AA1FBB1F96
:10394000A617B70710F0A61BB70B881F991F5A952B
:10395000A9F780959095BC01CD0108950F931F9311
:10396000CF93DF938230910510F482E090E0E091F4
:10397000F307F091F40730E020E0B0E0A0E03097EA
:1039800099F42115310509F44AC0281B390B24305C
:103990003105D8F58A819B816115710589F1FB019B
:1039A00093838283FE0111C0408151810281138182
:1039B00048175907E0F04817590799F4109761F034
:1039C00012960C93129713961C933296CF01DF91A7
:1039D000CF911F910F9108950093F3071093F4076F
:1039E000F4CF2115310551F04217530738F0A901E2
:1039F000DB019A01BD01DF01F801C1CFEF01F9CF71
:103A00009093F4078093F307CDCFFE01E20FF31FED
:103A1000819391932250310939832883D7CF209104
:103A2000F1073091F207232B41F420911A023091D3
:103A30001B023093F2072093F10720911802309176
:103A400019022115310541F42DB73EB740911C02F2
:103A500050911D02241B350BE091F107F091F20704
:103A6000E217F307A0F42E1B3F0B2817390778F055
:103A7000AC014E5F5F4F2417350748F04E0F5F1FB4
:103A80005093F2074093F107819391939FCFF0E019
:103A9000E0E09CCFCF93DF930097E9F0FC013297F1
:103AA00013821282A091F307B091F407ED0130E088
:103AB00020E01097A1F420813181820F931F209183
:103AC000F1073091F2072817390709F061C0F09328
:103AD000F207E093F107DF91CF910895EA01CE1745
:103AE000DF07E8F54A815B819E0141155105B1F779
:103AF000E901FB83EA8349915991C40FD51FEC1763
:103B0000FD0761F4808191810296840F951FE90180
:103B100099838883828193819B838A83F0E0E0E0AC
:103B200012968D919C9113970097B9F52D913C9128
:103B30001197CD010296820F931F2091F1073091CA
:103B4000F2072817390739F6309751F51092F40724
:103B50001092F307B093F207A093F107BCCFD38381
:103B6000C28340815181840F951FC817D90761F422
:103B70004E5F5F4F88819981480F591F5183408361
:103B80008A819B81938382832115310509F0B0CF0F
:103B9000F093F407E093F3079ECFFD01DC01C0CF63
:103BA00013821282D7CF4F925F926F927F928F9241
:103BB0009F92AF92BF92CF92DF92EF92FF920F93BC
:103BC0001F93CF93DF938C01009799F4CB01DF9182
:103BD000CF911F910F91FF90EF90DF90CF90BF900A
:103BE000AF909F908F907F906F905F904F900C94CC
:103BF000AE1CFC01E60FF71F9C0122503109E217B1
:103C0000F30708F4AEC0D901CD91DC911197C61726
:103C1000D70720F1C530D10578F0CE01049786177B
:103C2000970750F0C61BD70B2297C193D1936D9382
:103C30007C93CF010E944A1DC801DF91CF911F9153
:103C40000F91FF90EF90DF90CF90BF90AF909F903B
:103C50008F907F906F905F904F9008955B01AC1AAA
:103C6000BD0A4C018C0E9D1EA091F307B091F40784
:103C7000512C412CF12CE12C109731F58091F1075A
:103C80009091F2078815990509F05CC04616570611
:103C900008F058C08091180290911902009741F4E1
:103CA0008DB79EB740911C0250911D02841B950B4D
:103CB000E817F90708F055C0F093F207E093F10711
:103CC000F90171836083B8CF8D919C911197129601
:103CD0006C90129713967C901397A815B90559F517
:103CE0006C0142E0C40ED11CCA14DB0420F1AC010B
:103CF0004A195B09DA011296159780F06282738285
:103D000051834083D9016D937C93E114F10471F0E8
:103D1000D7011396FC93EE9312978ECF22968C0FB9
:103D20009D1FF90191838083F301EFCFF093F40796
:103D3000E093F30781CF4816590608F42C017D0162
:103D4000D3019ACFCB010E94AE1C7C01009749F0B1
:103D5000AE01B8010E94B41EC8010E944A1D87012D
:103D60006BCF10E000E068CFFB01DC0102C00190E6
:103D70000D9241505040D8F70895FB01DC018D9120
:103D8000019080190110D9F3990B0895FB01DC0112
:103D900001900D920020E1F70895FB01DC014150F4
:103DA000504030F08D910190801919F40020B9F73E
:103DB000881B990B0895FB01DC014150504048F0ED
:103DC00001900D920020C9F701C01D924150504052
:103DD000E0F7089511E0C9E6D1E000E006C0802FC9
:103DE000FE010E94921C2196011DCA36D10780E077
:083DF0000807A9F7F894FFCFC2
:103DF80005040302090807063132334134353642D7
:103E0800373839432A3023440000F5078000000082
:103E18004000140054007EFF06000100000000EF7F
:103E280022002400260028002A002C001600180072
:103E38001A001C001E0020003700380039003A0024
:103E48003B003C002E002F003000310032003300D0
:103E5800340035003D003E003F0040004100420074
:103E680043004400000000006A02D4010102B702C6
:103E780032021002240200000000D507A807EB0850
:103E88008306A1078E077F07000000000904C90305
:103E98009803000000008406D401EB088306E006BE
:103EA800F8066B06000000008509D401EB08D30171
:103EB8000D0A0054727920616761696E21005765A7
:103EC8006C6C20646F6E6521004B657970616420AD
:103ED8004C45442047616D650050726573732053EB
:103EE80054415254004D5033204572726F72210074
:103EF8005345543A004F4B3A434F554E54444F574D
:103F08004E004F4B3A50454E414C5459004F4B3A96
:103F18005357495443484553004F4B3A425554541C
:103F28004F4E53004F4B3A504F5453004F4B3A4A61
:103F380041434B53004F4B3A4B4559434F4445007F
:103F48004F4B3A53415645004745543A434F4E4626
:103F5800494700434F4E4649473A434F554E54440C
:103F68004F574E3A00434F4E4649473A50454E4107
:103F78004C54593A00434F4E4649473A53574954CF
:103F8800434845533A00434F4E4649473A425554F1
:103F9800544F4E533A00434F4E4649473A504F54B8
:103FA800533A002C00434F4E4649473A4A41434B47
:103FB800533A00434F4E4649473A4B4559434F44BD
:103FC800453A004F4B3A52455345540047616D6599
:103FD80020537461727465642100476F6F64206CAC
:103FE80075636B210054696D652072656D61696E3A
:103FF800696E673A00207365636F6E64730047618A
:104008006D65204F766572210054696D65277320B0
:10401800757021004B657970616420636F64652059
:10402800636F727265637421004B657970616420F7
:10403800636F64652077726F6E6721004A61636BF6
:1040480020636F6E6E656374696F6E73204F4B21CA
:10405800004A61636B20636F6E6E656374696F6E8F
:10406800732077726F6E672100566963746F727977
:104078002100416C6C207461736B7320646F6E65F2
:104088002100537769746368657320636F72726582
:104098006374210053776974636865732077726F5E
:1040A8006E672100427574746F6E207365712063AA
:1040B8006F72726563742100427574746F6E207339
:1040C80065712077726F6E672100506F74656E742A
:1040D800696F6D6574657273204F4B2100506F7462
:1040E800656E74696F6D65746572732077726F6E33
:0440F800672100003C
:00000001FF
