:020000040000FA
:100000000C9462010C9493010C9493010C94930151
:100010000C9493010C9493010C9493010C94930110
:100020000C9493010C94C60F0C94C60F0C94C60F3D
:100030000C9493010C9493010C9493010C949301F0
:100040000C9493010C9493010C9493010C949301E0
:100050000C9493010C9493010C9493010C947C0FD9
:100060000C9493010C94460F0C941C0F0C94930168
:100070000C9493010C9493010C9493010C949301B0
:100080000C9493010C9493010C9493010C949301A0
:100090000C94E60E0C94BC0E0C9493010C94D00FAF
:1000A0000C9493010C9493010C9493010C94930180
:1000B0000C9493010C9493010C9493010C94930170
:1000C0000C9493010C9493010C9493010C94930160
:1000D0000C9493010C9493010C9493010C94930150
:1000E0000C9493010C9418060C94AC070C94900398
:1000F0000C9463030C9451020C9403060C94940327
:100100000C94FC030C942E020C9426060C94CB0346
:100110000C9455070C94EF210C9459030C943D0258
:100120000C9486030C9474030C946E030C94C20814
:100130000C947E030C94A1020C9401020C94780799
:100140000C9499030C946B030C945F020C94560767
:100150000C941F060C94F4100C940A060C949A0349
:100160000C94E0010C943C040C9428060C94F201CD
:100170000C945F030C9482030C94BC090C947F07CD
:100180000C949E030C9465070C9478030C946703FD
:100190000C94EE020C948C030C942A060C94DF0150
:1001A00000002100240027002A002D003000330029
:1001B00001010000040107010A01000022002500DE
:1001C00028002B002E003100340002010000050140
:1001D00008010B01000020002300260029002C004C
:1001E0002F0032000001000003010601090105058E
:1001F0000505070508080808020202020A0A08089D
:1002000004040404010101010101010103030303CA
:1002100003030303040707070C0C0C0C0C0C0C0C59
:100220000202020206060606060606060B0B0B0B6A
:100230000B0B0B0B0102102020080810204010208F
:10024000408002010201080402010102040810209A
:100250004080804020100804020180040201804098
:100260002010080402010804020101020408102001
:100270004080010204081020408000000A0B02099F
:100280000C0D0E0807030401000000000000000030
:10029000000000000000000000000000000000005E
:1002A000000000000000121110000000000000001B
:1002B000000000000000000000000000000000003E
:1002C000F410EF2111241FBECFEFD1E2DEBFCDBF6E
:1002D00000E00CBF2CE0AEEBB8E001C01D92A232F2
:1002E000B207E1F718E0A0E0B2E0E6E1FAE400E0EE
:1002F0000BBF02C007900D92AE3BB107D9F711E0DA
:10030000C1E6D1E000E006C021970109802FFE017F
:100310000E94A122C036D10780E00807A9F70E94F9
:1003200018120C94F9240C940000FC01A089B189E6
:1003300082E08C93A485B5851C92A685B7858FEC49
:100340008C93108EA489B58986E08C93A289B38999
:100350008C9180618C93A289B3898C9188608C93F5
:10036000A289B3898C9180688C930288F389E02DEF
:1003700080818F7D8083089596E0899FD00111242C
:10038000A358B44F90967C936E935F9791E09196AB
:100390009C939197E091EA0BF091EB0B9091E90B14
:1003A000992339F0309751F0811108C08091990B51
:1003B0001994309719F05C968C91FACF08950895AE
:1003C0000895FC01248135816217730748F4808108
:1003D0009181009729F0860F971FFC018081089575
:1003E00080E008950895DB0114964D915C91159776
:1003F0006D917C91DC01ED91FC910280F381E02D07
:100400001994AF92BF92CF92DF92EF92FF920F9327
:100410001F93CF93DF936C017B018B01040F151F9A
:10042000EB015E01AE18BF08C017D10759F0699102
:10043000D601ED91FC910190F081E02DC601199556
:10044000892B79F7C501DF91CF911F910F91FF9013
:10045000EF90DF90CF90BF90AF900895FC01538D47
:10046000448D252F30E0842F90E0821B930B54178E
:1004700010F0CF96089501970895FC01918D828D1B
:10048000981761F0A28DAE0FBF2FB11D5D968C91B4
:10049000928D9F5F9F73928F90E008958FEF9FEFF3
:1004A0000895FC01918D828D981731F0828DE80FAF
:1004B000F11D858D90E008958FEF9FEF0895FC0169
:1004C000918D228D892F90E0805C9F4F821B910936
:1004D0008F73992708958FE19AE00E945F0221E0CF
:1004E000892B09F420E0822F08958CEB9AE00E947A
:1004F0005F0221E0892B09F420E0822F0895FC019E
:10050000A48DA80FB92FB11DA35ABF4F2C91848D74
:1005100090E001968F739927848FA689B7892C93D1
:10052000A089B1898C91837080648C93938D848D24
:10053000981306C00288F389E02D80818F7D808327
:100540000895EF92FF920F931F93CF93DF93EC01E7
:1005500081E0888F9B8D8C8D98131AC0E889F9896A
:10056000808185FF15C09FB7F894EE89FF8960836D
:10057000E889F98980818370806480839FBF81E0EE
:1005800090E0DF91CF911F910F91FF90EF90089530
:10059000F62E0B8D10E00F5F1F4F0F731127E02E0B
:1005A0008C8D8E110CC00FB607FCFACFE889F98943
:1005B000808185FFF5CFCE010E947F02F1CFEB8DC8
:1005C000EC0FFD2FF11DE35AFF4FF0829FB7F89417
:1005D0000B8FEA89FB8980818062CFCFCF93DF9335
:1005E000EC01888D8823B9F0AA89BB89E889F9894B
:1005F0008C9185FD03C0808186FD0DC00FB607FC80
:10060000F7CF8C9185FFF2CF808185FFEDCFCE01B2
:100610000E947F02E9CFDF91CF91089580E090E0C2
:10062000892B29F00E94750281110E94000080E050
:1006300090E0892B29F00E946B0281110E9400003A
:1006400080E090E0892B49F080E090E0892B29F050
:100650000E94000081110E94000080E090E0892B40
:1006600049F080E090E0892B29F00E940000811180
:100670000C94000008958150823108F05AC0E82F90
:10068000F0E08827E95BFC4F8F4F0C94A1226703B1
:100690006B0359035F03630399036E0374037803C9
:1006A0007E03820386038C039003990394039A03C9
:1006B0009E03809180008F778093800008958091C1
:1006C00080008F7DF9CF80918000877FF5CF84B542
:1006D0008F7784BD089584B58F7DFBCF8091B00066
:1006E0008F778093B00008958091B0008F7DF9CF0F
:1006F000809190008F778093900008958091900072
:100700008F7DF9CF80919000877FF5CF8091A000F9
:100710008F778093A00008958091A0008F7DF9CFFE
:100720008091A000877FF5CF809120018F77809303
:1007300020010895809120018F7DF9CF80912001C3
:10074000877FF5CFCF93DF93282F30E0F901E6586C
:10075000FD4F8491F901EC5CFD4FD491F901E25118
:10076000FE4FC491CC23A1F081110E943B03EC2FDA
:10077000F0E0EE0FFF1FEC52FE4FA591B491EC910B
:10078000ED2381E090E009F480E0DF91CF910895BE
:1007900080E090E0FACF862F0C94A2031F93CF93B2
:1007A000DF93282F30E0F901E658FD4F8491F901DD
:1007B000EC5CFD4FD491F901E251FE4FC491CC2382
:1007C000A9F0162F81110E943B03EC2FF0E0EE0FF1
:1007D000FF1FE654FE4FA591B4918FB7F894EC91AA
:1007E000111108C0D095DE23DC938FBFDF91CF912C
:1007F0001F910895DE2BF8CF862F642F0C94CE0323
:10080000CF93DF9390E0FC01EC5CFD4F249182518B
:100810009E4FFC0184918823C9F090E0880F991FB6
:10082000FC01E056FE4FA591B491FC01E654FE4F49
:10083000C591D49161110DC09FB7F8948C9120950A
:1008400082238C938881282328839FBFDF91CF91B7
:100850000895623051F49FB7F8943C91822F8095AF
:1008600083238C93E8812E2BEFCF8FB7F894EC91F4
:100870002E2B2C938FBFEACF862F642F0C9400046D
:10088000863308F0865320917B00982F9870277F3D
:10089000922B90937B008770806480937C00809182
:1008A0007A00806480937A0080917A0086FDFCCF84
:1008B000809178009091790008953FB7F8948091E5
:1008C000770990917809A0917909B0917A0926B5B4
:1008D000A89B05C02F3F19F00196A11DB11D3FBF78
:1008E000BA2FA92F982F8827BC01CD01620F711D47
:1008F000811D911D42E0660F771F881F991F4A9541
:10090000D1F708958F929F92AF92BF92CF92DF92CC
:10091000EF92FF926B017C010E945D044B015C0130
:10092000C114D104E104F104B9F00E945D04681916
:1009300079098A099B09683E73408105910580F316
:1009400021E0C21AD108E108F10888EE880E83E0A0
:10095000981EA11CB11CE4CFFF90EF90DF90CF90C8
:10096000BF90AF909F908F9008952FB7F8946091AB
:1009700073097091740980917509909176092FBF60
:1009800008950F931F93CF93DF93C82FD62F86E040
:10099000C89FF0011124E358F44F11A2878D90A154
:1009A00081309105F1F058F082309105F1F1039713
:1009B00009F440C0DF91CF911F910F9108956623F4
:1009C000C9F361E070E08C2F0E94BC010E94B50465
:1009D0006093D50B7093D60B8093D70B9093D80B65
:1009E000E9CF0E94B5040091D50B1091D60B209150
:1009F000D70B3091D80BAB01BC01401B510B620BE4
:100A0000730B8091E70B9091E80BB0E0A0E08417A6
:100A10009507A607B70748F462E070E08C2FDF91D6
:100A2000CF911F910F910C94BC0163E070E0D11144
:100A3000C1CFF4CF70E060E0F1CF0F931F930E941D
:100A4000B5046093C40A7093C50A8093C60A909354
:100A5000C70A8CEB9AE00E943D0297FF1DC00E94DE
:100A6000B5040091C40A1091C50A2091C60A3091BC
:100A7000C70A601B710B820B930B0091C00A109187
:100A8000C10A2091C20A3091C30A60177107820718
:100A90009307F8F28FEF9FEF1F910F9108950F9337
:100AA0001F938091EC0B9091ED0BDC01ED91FC918B
:100AB0000084F185E02D1995892B09F4D5C060E0FB
:100AC00070E0CB010E94820420910A0C8091EC0B13
:100AD0009091ED0BDC01ED91FC910284F385E02D0A
:100AE00021110BC019958093F60B8E37D1F68091AA
:100AF0000A0C8F5F80930A0CD4CF199590910A0C41
:100B0000E92FF0E0E451F44F82879230B9F0993048
:100B1000D9F09130A9F48F3F99F010920A0C81E03E
:100B200080930C0C10920F0C10920E0C8093100CF2
:100B30001092110C80E01F910F910895863069F793
:100B40009F5F90930A0CADCF8F3E39F78091F80BE1
:100B50009091F70B890F9927991FE091F90B9C0150
:100B60002E0F311D8091FA0B820F932F911D409112
:100B7000FB0B50E0840F951F2091FC0B30E060913F
:100B8000FD0B70E0762F6627F091FE0B6F0F711D45
:100B9000820F931F9195819591096817790709F044
:100BA000BCCF10920A0CE13419F41092110C3DC024
:100BB000E0930D0C542F4427240F351F30930F0C56
:100BC00020930E0CEA53E63108F044C0F0E0882789
:100BD000E351FA4F8F4F0C94A12218061F062806E6
:100BE000030628060A0626062A06280628062806D8
:100BF000280628062806280628062A062806280683
:100C000028062806280685E080930C0C81E0809356
:100C1000100C0BC089E020FDF7CF84E021FDF4CF5C
:100C2000237033278AE0232B79F78091100C83CF30
:100C300087E020FDE9CF82E021FDE6CFF6CF88E016
:100C400020FDE2CF83E021FDDFCFEFCF86E0DCCFD8
:100C50008BE0DACF81E080930C0C10920F0C109295
:100C60000E0C8093100CA1CF8091110C8823E9F217
:100C70000E94B5040091EE0B1091EF0B2091F00B48
:100C80003091F10B601B710B820B930B0091F20BF7
:100C90001091F30B2091F40B3091F50B6017710755
:100CA0008207930710F210920A0C10920C0C10920B
:100CB0000F0C10920E0C81E039CF8F929F92AF9261
:100CC000BF92CF92DF92EF92FF92CF936B017C01A4
:100CD0000E94B5044B015C01C114D104E104F1048C
:100CE00041F4C090F20BD090F30BE090F40BF09035
:100CF000F50B0E944F05C82F811111C00E94B50449
:100D0000681979098A099B09C616D706E806F90603
:100D100030F060E070E0CB010E948204EACF8C2FBB
:100D2000CF91FF90EF90DF90CF90BF90AF909F90CA
:100D30008F9008958093030C1092050C6093060C1D
:100D40002091020C9091010C290F3327331F820F41
:100D5000932F911D2091040C820F911D680F791F14
:100D60007195619571097093070C6093080C2223AB
:100D700061F08091110C882341F060E070E0CB01BC
:100D80000E9482040E944F05F4CF8091EC0B909159
:100D9000ED0BDC01ED91FC910280F381E02D4AE046
:100DA00050E060E07CE019950E94B5046093EE0B82
:100DB0007093EF0B8093F00B9093F10B8091040CE8
:100DC00091E0811101C090E09093110C811106C057
:100DD0006AE070E080E090E00C9482040895209135
:100DE000FF08260F3327331F21323105ECF4209101
:100DF0004809FC0190E080E0243069F082E0089529
:100E0000A091FF082191AC014152574FA40FB52F7B
:100E1000B11D2C930196861798F38091FF08680FF7
:100E20006093FF0880E0089581E0089510924809DA
:100E300081E0809347091092220961E084E10E94D9
:100E4000CE0361E085E10E94CE03E9EBF0E0808112
:100E50008E7F808380818D7F808388E48093B8003B
:100E600085E48093BC000895CF93DF9391E0909345
:100E7000DE088823B9F0C091B800D091BA00809103
:100E8000BC008A7B8093BC0060E084E10E94CE03BA
:100E900060E085E10E94CE030E941607D093BA005D
:100EA000C093B800DF91CF9108950895E091820931
:100EB00080918109E81730F4F0E0E254F74F808127
:100EC00090E008958FEF9FEF0895909182098091AF
:100ED00081092FEF3FEF981748F4E92FF0E0E25433
:100EE000F74F208130E09F5F90938209C9010895F8
:100EF0008091810990918209891B990B0895CF9265
:100F0000DF92EF92FF920F931F93CF93DF937C01B9
:100F1000CB018A0120914E09222389F0EB016B015C
:100F2000C40ED51ECC15DD0569F06991D701ED9190
:100F3000FC910190F081E02DC7011995F3CF642F4A
:100F40000E94EF06C801DF91CF911F910F91FF9092
:100F5000EF90DF90CF900895CF93DF931F92CDB79E
:100F6000DEB7698320914E092223F9F020917F0991
:100F7000203258F021E030E0FC013383228390E0FE
:100F800080E00F90DF91CF91089580918009E82F44
:100F9000F0E0E15BF64F998190838F5F8093800949
:100FA00080937F0981E090E0ECCF61E0CE01019673
:100FB0000E94EF06F7CFCF92DF92EF92FF920F934E
:100FC0001F93CF93DF93FC01C48121E020934E094E
:100FD000C0936F091092800910927F098385682B56
:100FE00089E59BE00E94AC07D0917F09D13208F0DF
:100FF00092C00E945D046B017C01809148098111BF
:1010000065C082E08093480981E0809347098FEFB3
:101010008093460910924509D0934409AFE4B9E0A2
:10102000E4E2F9E080E0D81385C0109223098091B2
:101030002309CC0FC82BC09323098091220981304A
:1010400009F07CC0109222090E945D046B017C01B2
:10105000809123098093BB0080914A0990914B09AC
:10106000A0914C09B0914D09892B8A2B8B2B99F0BB
:101070000E945D0400914A0910914B0920914C098E
:1010800030914D096C197D098E099F0906171707C4
:1010900028073907E0F18091BC0083FDD9CF85ECAA
:1010A0008093BC000E945D046B017C018091480923
:1010B000823009F445C0809146098F3F61F18091EB
:1010C0004609803241F18091460925C080914A0944
:1010D00090914B09A0914C09B0914D09892B8A2B15
:1010E0008B2B09F48ACF0E945D0400914A0910916C
:1010F0004B0920914C0930914D096C197D098E09DD
:101100009F09061717072807390708F076CF80913F
:1011100049090E9434071092800910927F091092A9
:101120004E09DF91CF911F910F91FF90EF90DF90CB
:10113000CF9008959D9191938F5F75CF85EEB0CF3D
:1011400080914A0990914B09A0914C09B0914D09A9
:10115000892B8A2B8B2B09F4A9CF0E945D04009167
:101160004A0910914B0920914C0930914D096C1995
:101170007D098E099F09061717072807390708F008
:1011800095CFC5CF90E080E008958091130A9091AB
:10119000140AA091150AB091160A4091A409509121
:1011A000A5096091A6097091A709841B950BA60B50
:1011B000B70B8093130A9093140AA093150AB09367
:1011C000160A08950F931F93CF93DF93C3EAD2E0DB
:1011D0008E01F80180810E5F1F4F61E00E94CE03F7
:1011E000F2E00D3A1F07A9F764EF71E080E090E0AC
:1011F0000E9482048881229660E00E94CE0382E0F1
:10120000CD3AD807B9F7DF91CF911F910F9108958B
:101210000F931F93CF938C01C62F0E94DB076C2F77
:101220006460C8010E94DB076C2F6B7FC8010E94BD
:10123000DB0783EC90E00197F1F7CF911F910F91BD
:1012400008950F931F93CF93DF938C01D62FC42F54
:10125000607F642B0E94080980E1D89FB0011124AF
:101260006C2BC801DF91CF911F910F910C9408094D
:1012700040E061E082E19CE00E9421098BE39FE174
:101280000197F1F70895CF93DF93EC010E9438099D
:10129000BE0182E19CE00E94F30164EF71E080E016
:1012A00090E00E94820460ED77E080E090E00E9490
:1012B00082040E94B504685E7340810991096093BD
:1012C000060A7093070A8093080A9093090ADF912F
:1012D000CF910895CF93DF93EC010E943809BE01AE
:1012E00082E19CE00E94F30160ED77E080E090E015
:1012F0000E9482040E94B504685E734081099109CE
:101300006093060A7093070A8093080A9093090A6B
:10131000DF91CF910895CF93DF9300D000D01F923B
:101320001F92CDB7DEB798E0EDE4F2E0DE01119652
:1013300001900D929A95E1F790911A0C961708F486
:101340006FEF262F30E0220F331F41E050E04C0FAB
:101350005D1F240F351FF9016081680F606840E050
:1013600082E19CE028960FB6F894DEBF0FBECDBF99
:10137000DF91CF910C94210941E00E94210981E085
:1013800090E00895CF92DF92EF92FF920F931F9318
:10139000CF93DF93EB017B0124E0E20EF11C8B0184
:1013A0006C01C61AD70AC601800F911F0E943B220A
:1013B000F80181938F01EE15FF05A9F7CE01DF91AA
:1013C000CF911F910F91FF90EF90DF90CF900895F4
:1013D0009F92AF92BF92CF92DF92EF92FF920F93C4
:1013E0001F93CF93DF935C017B018B01D0E0C0E0C2
:1013F000F80191908F016501CC0EDD1EC6010E949F
:101400003B22981621F0692DC6010E9443222196A5
:10141000C430D10569F7C701DF91CF911F910F91BA
:10142000FF90EF90DF90CF90BF90AF909F90089586
:101430000C943B22FC0180819181009711F00C9467
:10144000FF2160E070E0CB010895FB0101900020D6
:10145000E9F73197AF01461B570BDC01ED91FC9189
:101460000280F381E02D199461EF72E08CEB9AE039
:101470000C94250ACF93DF93682F8CEB9AE00E949F
:10148000A102EC010E94340A8C0F9D1FDF91CF91C5
:101490000895CF93DF93BC018CEB9AE00E94F30197
:1014A000EC010E94340A8C0F9D1FDF91CF910895AB
:1014B0008F929F92AF92BF92EF92FF920F931F93E2
:1014C000CF93DF93CDB7DEB7A1970FB6F894DEBF09
:1014D0000FBECDBF7C01FA01CB0119A2223008F466
:1014E0002AE08E010F5D1F4F822E912CB12CA12C72
:1014F000BF01A50194010E947F22F901CA016A304F
:101500000CF5605DD8016E938D01232B242B252BC8
:1015100079F790E080E0109721F0BD01C7010E94AB
:10152000250AA1960FB6F894DEBF0FBECDBFDF919E
:10153000CF911F910F91FF90EF90BF90AF909F9030
:101540008F900895695CDECFCF92DF92EF92FF9289
:101550000F931F93CF93DF936B01770FEE08FF0874
:10156000F7FE1FC0EC01E881F9810190F081E02DC8
:101570006DE219958C0144275527BA014C195D0974
:101580006E097F092AE0CE010E94580A800F911F40
:10159000DF91CF911F910F91FF90EF90DF90CF904F
:1015A00008952AE0B701A601DF91CF911F910F9115
:1015B000FF90EF90DF90CF900C94580ACF93DF9379
:1015C000BC018CEB9AE00E94A40AEC010E94340A50
:1015D0008C0F9D1FDF91CF910895CF93DF93AB01C7
:1015E000BC012AE08CEB9AE00E94580AEC010E94B0
:1015F000340A8C0F9D1FDF91CF910895CF93DF9315
:10160000BC018CEB9AE00E94250AEC010E94340A8E
:101610008C0F9D1FDF91CF9108950C94250A2F9276
:101620003F924F925F926F927F928F929F92AF9272
:10163000BF92CF92DF92EF92FF920F931F93CF93BF
:10164000DF9300D000D0CDB7DEB70E94B504009183
:10165000060A1091070A2091080A3091090A601BB6
:10166000710B820B930B683E73408105910508F462
:10167000B5C00E94B5046093060A7093070A809370
:10168000080A9093090A0E94B5040091170A109164
:10169000180A2091190A30911A0A601B710B820BEB
:1016A000930BC090130AD090140AE090150AF090A2
:1016B000160AC61AD70AE80AF90AC701B60128EEBF
:1016C00033E040E050E00E947F2249015A01C70107
:1016D000B60120E83EEE46E350E00E947F22290159
:1016E0008901C501B40120E13EE040E050E00E94E4
:1016F0007F222CE3C22ED12CE12CF12CA7019601E4
:101700000E947F2229833A834B835C8329803A801D
:10171000C501B401A70196010E947F226B017E835F
:101720006D830E94380964EF72E082E19CE00E94C0
:101730000D0B61E080E00E948B090A30110534F442
:1017400064E073E082E19CE00E940D0BB20182E153
:101750009CE00E94A40A61ED77E082E19CE00E9497
:101760000D0B8AE02816310434F464E073E082E162
:101770009CE00E940D0B69817A8182E19CE00E94CD
:10178000A40A61ED77E082E19CE00E940D0B8D815F
:101790009E810A9734F464E073E082E19CE00E9449
:1017A0000D0BB60182E19CE026960FB6F894DEBFE1
:1017B0000FBECDBFDF91CF911F910F91FF90EF90A2
:1017C000DF90CF90BF90AF909F908F907F906F9061
:1017D0005F904F903F902F900C94A40A26960FB6DE
:1017E000F894DEBF0FBECDBFDF91CF911F910F9157
:1017F000FF90EF90DF90CF90BF90AF909F908F9031
:101800007F906F905F904F903F902F900895FB01D5
:1018100044815581FC01248135812417350778F0F6
:1018200080819181009759F0FB0160817181611580
:10183000710529F00E94DC2421E0892B09F020E0C9
:10184000822F08950F931F93CF93DF938C01EB01A9
:10185000FC01808191810097E1F0688179816115B7
:101860007105A9F0428153812C813D8142175307B4
:1018700070F00E94D5248C819D81F801958384832A
:101880001D821C82DF91CF911F910F9108950E94BC
:10189000592388819981F801918380838A819B8172
:1018A000938382838C819D8195838483198218829E
:1018B0001B821A82E5CFCF93DF93EC018881998157
:1018C000009711F00E945923198218821D821C82F0
:1018D0001B821A82DF91CF910895FC018081918152
:1018E000009711F00C94592308950F931F93CF93F1
:1018F000DF93EC0188819981009759F02A813B811F
:101900002617370730F081E0DF91CF911F910F91BB
:1019100008958B016F5F7F4F0E94E223009759F07B
:10192000998388831B830A832C813D81232B59F75C
:10193000FC011082E8CF80E0E7CFEF92FF920F9397
:101940001F93CF93DF93EC017B01198218821B82D6
:101950001A821D821C82FB0101900020E9F7319759
:101960008F01061B170BB8010E94750C811109C06D
:10197000CE01DF91CF911F910F91FF90EF900C94CA
:101980005B0C1D830C83B70188819981DF91CF9116
:101990001F910F91FF90EF900C94D5249F92AF92DE
:1019A000BF92CF92DF92EF92FF920F931F93CF934C
:1019B000DF937C016B015A0189012417350720F45C
:1019C0008B2D5901042F182F63EF72E0C7010E947D
:1019D0009D0CD6011496CD91DC91AC16BD0650F548
:1019E0000C171D0708F4E801D601ED91FC91119741
:1019F000EC0FFD1F908010820D911C910A0D1B1D94
:101A00000115110571F0F80101900020E9F73197F7
:101A10005F01A01AB10AB501C7010E94750C8111BE
:101A200016C0C7010E945B0CD6018D919C91C80F16
:101A3000D91F9882C701DF91CF911F910F91FF901D
:101A4000EF90DF90CF90BF90AF909F900895F701F7
:101A5000B582A482B801808191810E94D524E4CF0F
:101A6000CF93DF93EC01FB01248135810E94CE0CE2
:101A7000CE01DF91CF9108952F923F924F925F92C6
:101A80006F927F928F929F92AF92BF92CF92DF928E
:101A9000EF92FF920F931F93CF93DF93CDB7DEB7F3
:101AA000C650D1400FB6F894DEBF0FBECDBF66E082
:101AB00073E08CEB9AE00E940D0B0E94340A9E01A9
:101AC0002F5F3F4F390180E091E0F9019C011192B5
:101AD00021503040E1F7230163019FE5A92E92E0F8
:101AE000B92EF12CE12C22242394F5013080F2E070
:101AF000AF0EB11C61E0832D0E94000460E0832DD5
:101B00000E94CE038FE5882E82E0982E10E000E040
:101B1000E016F10651F0F40180810E94A203892BA6
:101B200021F4F601E00FF11F20820F5F1F4FF2E05A
:101B30008F0E911C0031110559F762E0832D0E9430
:101B400000042FEFE21AF20A30E1C30ED11C80E14B
:101B5000E816F10451F644EA59E0A4E8B9E06D91C1
:101B60007C91119777FD20C012968D919C911397CF
:101B700097FD1AC0FB0104E0EE0FFF1F0A95E1F785
:101B8000E60DF71DE80FF91F2081222391F0FC01DB
:101B900014E0EE0FFF1F1A95E1F7E60DF71DE60FB3
:101BA000F71F2081222329F014964A175B07B9F604
:101BB00021E070E060E0DB011196CD0180319105FC
:101BC00009F447C0F301E80FF91F308131110BC050
:101BD000FC0134E0EE0FFF1F3A95E1F7E40DF51D2F
:101BE0003081332361F0E4E8F9E0008111810617C8
:101BF000170739F4028113810817190751F4019668
:101C0000DDCF0817190729F402811381061717077A
:101C1000B1F334964E175F0741F767E473E0CE01E6
:101C20008F5F9E4F0E949D0CCE018F5F9E4F0E9442
:101C30004309CE018F5F9E4F0E946D0C68E573E0F3
:101C40008CEB9AE00E940D0B0E94E2080E94C508EE
:101C500041C0222311F39FEF491A590AE0E16E0EA9
:101C6000711CBD01509709F0A6CF81E080930F0A47
:101C70008091CC099091CD0901969093CD098093E4
:101C8000CC0963E273E0CE018F5F9E4F0E949D0CF2
:101C9000CE018F5F9E4F0E946A09CE018F5F9E4FDB
:101CA0000E946D0C8091CC099091CD0986309105F0
:101CB0004CF4880F991FFC01E555FD4F61E08081D0
:101CC0000E94CE0382E393E00E94FE0A1092010A72
:101CD0001092000ACA5FDE4F0FB6F894DEBF0FBE47
:101CE000CDBFDF91CF911F910F91FF90EF90DF90CB
:101CF000CF90BF90AF909F908F907F906F905F90AC
:101D00004F903F902F90089585ED8093BC00809177
:101D10004A0990914B09A0914C09B0914D09079641
:101D2000A11DB11D23E0B695A795979587952A9596
:101D3000D1F72091BC0024FD03C0109248090895FA
:101D400040914A0950914B0960914C0970914D099D
:101D5000452B462B472B69F30097A105B10541F0B0
:101D60002AE22A95F1F700C00197A109B109E1CF54
:101D7000809149090C9434071F920F920FB60F926D
:101D800011240BB60F922F933F934F935F936F9352
:101D90007F938F939F93AF93BF93EF93FF938FE1C5
:101DA0009AE00E947F02FF91EF91BF91AF919F91C6
:101DB0008F917F916F915F914F913F912F910F90F4
:101DC0000BBE0F900FBE0F901F9018951F920F9291
:101DD0000FB60F9211240BB60F922F938F939F93F0
:101DE000EF93FF93E0912F0AF091300A8081E09108
:101DF000350AF091360A82FD1DC090818091380A23
:101E00008F5F8F732091390A821741F0E091380A71
:101E1000F0E0E15EF54F958F8093380AFF91EF91E6
:101E20009F918F912F910F900BBE0F900FBE0F902F
:101E30001F9018958081F2CF1F920F920FB60F92CC
:101E400011240BB60F922F933F934F935F936F9391
:101E50007F938F939F93AF93BF93EF93FF938CEBFD
:101E60009AE00E947F02FF91EF91BF91AF919F9105
:101E70008F917F916F915F914F913F912F910F9033
:101E80000BBE0F900FBE0F901F9018951F920F92D0
:101E90000FB60F9211240BB60F922F938F939F932F
:101EA000EF93FF93E091CC0AF091CD0A8081E0910D
:101EB000D20AF091D30A82FD1DC090818091D50A8B
:101EC0008F5F8F732091D60A821741F0E091D50A77
:101ED000F0E0E454F54F958F8093D50AFF91EF9190
:101EE0009F918F912F910F900BBE0F900FBE0F906F
:101EF0001F9018958081F2CF1F920F920FB60F920C
:101F000011242F933F938F939F93AF93BF9380910F
:101F1000730990917409A0917509B0917609309177
:101F2000720923E0230F2D3758F50196A11DB11D2D
:101F3000209372098093730990937409A093750993
:101F4000B09376098091770990917809A0917909E9
:101F5000B0917A090196A11DB11D809377099093E4
:101F60007809A0937909B0937A09BF91AF919F91B5
:101F70008F913F912F910F900FBE0F901F9018954A
:101F800026E8230F0296A11DB11DD2CF1F920F92FA
:101F90000FB60F9211240F900FBE0F901F9018953F
:101FA0001F920F920FB60F9211240BB60F922F9320
:101FB0003F934F935F936F937F938F939F93AF93D1
:101FC000BF93EF93FF938091B900887F803609F427
:101FD0004DC008F040C0883209F4A9C028F580310E
:101FE00009F49DC0C8F4882309F4FBC0883009F4C3
:101FF00096C0FF91EF91BF91AF919F918F917F918B
:102000006F915F914F913F912F910F900BBE0F9069
:102010000FBE0F901F901895883109F488C0803248
:1020200041F78093460914C0803409F49DC040F400
:102030008033B9F38833E9F68093460985ECB0C064
:10204000803509F485C0883509F496C0883489F64E
:102050000E94840ECECF883909F48CC038F58837B9
:1020600029F050F4883611F0803719F683E0809318
:1020700048091092210957C0883809F47BC080397B
:1020800019F0803809F0B5CF80912109803208F02D
:1020900071C0E091210981E08E0F80932109809128
:1020A000BB00F0E0EF5FF64F80833DC0803B39F02E
:1020B000E0F4803A09F479C0883A09F09ACF84E0D4
:1020C00080934809109200091092FF08E0917D0961
:1020D000F0917E0919958091FF0881110FC081E070
:1020E0008093FF081092DF0809C0803C09F4A6CF56
:1020F000883C09F4A3CF883B09F07BCFE09100092D
:1021000081E08E0F80930009F0E0E152F74F80816B
:102110008093BB00909100098091FF0829C08091B5
:1021200023098093BB0085EC8093BC0062CF909123
:10213000450980914409981758F5E091450981E0D7
:102140008E0F80934509F0E0EC5DF64F8081E9CF7A
:10215000E091450981E08E0F809345098091BB0095
:10216000F0E0EC5DF64F8083909145098091440941
:102170009817C8F285E8D8CFE091450981E08E0F25
:10218000809345098091BB00F0E0EC5DF64F8083C1
:102190008091470981115CCF81E08093220984EA14
:1021A0008093BC001092480924CF85EC8093BC003A
:1021B0001092480980912109803230F4E091210980
:1021C000F0E0EF5FF64F10826091210970E0E0913E
:1021D0007B09F0917C0981E099E019951092210921
:1021E00008CF1092460934CF1092220A1092210A89
:1021F00088EE93E0A0E0B0E08093230A9093240A55
:10220000A093250AB093260A2BEB32E03093200AE4
:1022100020931F0A4DEC50E050932C0A40932B0A58
:102220004CEC50E050932E0A40932D0A48EC50E0BD
:102230005093300A40932F0A49EC50E05093320AF1
:102240004093310A4AEC50E05093340A4093330AE9
:102250004EEC50E05093360A4093350A1092380AFB
:102260001092390A10923A0A10923B0A1092BF0A51
:102270001092BE0A8093C00A9093C10AA093C20A2A
:10228000B093C30A3093BD0A2093BC0A25EC30E01A
:102290003093C90A2093C80A24EC30E03093CB0A6B
:1022A0002093CA0A20EC30E03093CD0A2093CC0A68
:1022B00021EC30E03093CF0A2093CE0A22EC30E0BC
:1022C0003093D10A2093D00A26EC30E03093D30A21
:1022D0002093D20A1092D50A1092D60A1092D70AE9
:1022E0001092D80A10925C0B10925B0B80935D0BDE
:1022F00090935E0BA0935F0BB093600B8DEC92E01C
:1023000090935A0B8093590B1092150C1092140C49
:1023100089EE92E09093130C8093120C87E28093E5
:10232000160C80E180931B0C82E080931C0C1092B1
:102330001D0C44EF51E060E070E04093F20B5093CD
:10234000F30B6093F40B7093F50B9AE0E5E5F2E084
:10235000A0E0BCE001900D929A95E1F710920A0C72
:1023600080930B0C1092100C1092110C10927F0B9A
:102370001092830B1092820B1092840B8FED92E0DF
:1023800090937E0B80937D0BE9E9FBE01082148231
:102390001382158236968BE0E53DF807B9F783E3A3
:1023A00092E09093E00B8093DF0B8FE292E09093AA
:1023B000E20B8093E10B84E08093E30B8093E40BCA
:1023C00087E392E09093DE0B8093DD0B8AE090E050
:1023D0009093E60B8093E50B84EF91E09093E80BEC
:1023E0008093E70B1092EB0B1092EA0B1092D90B33
:1023F0001092DA0B1092DB0B1092DC0B1092E90BAF
:102400006AE673E087E79BE00E949D0C63E873E057
:1024100081E79BE00E949D0C6EE873E08BE69BE0F9
:102420000E949D0C69E973E085E69BE00C949D0C8D
:10243000CF93DF93CDB7DEB76D970FB6F894DEBFBD
:102440000FBECDBF789484B5826084BD84B58160B1
:1024500084BD85B5826085BD85B5816085BD80916F
:102460006E00816080936E001092810080918100E7
:1024700082608093810080918100816080938100DF
:10248000809180008160809380008091B1008460A1
:102490008093B1008091B00081608093B000809102
:1024A000910082608093910080919100816080937F
:1024B0009100809190008160809390008091A100B4
:1024C00082608093A1008091A10081608093A1002F
:1024D0008091A00081608093A000809121018260A2
:1024E000809321018091210181608093210180915D
:1024F000200181608093200180917A008460809324
:102500007A0080917A00826080937A0080917A00CC
:10251000816080937A0080917A00806880937A004D
:102520001092C1008CEB9AE00E9495018FE19AE035
:102530000E949501109282091092810910928009DF
:1025400010927F090E9416078FED91E090937E090B
:1025500080937D0980EE91E090937C0980937B09C4
:102560000E9416071092170C80911C0C823018F0F4
:1025700098E09093170C80931A0C62E370E080E06F
:1025800090E00E94820460911D0C82E19CE00E9418
:10259000DB0768EE73E080E090E00E94820460E375
:1025A00082E19CE00E9408090BE416E4C80101974F
:1025B000F1F760E382E19CE00E940809C8010197FD
:1025C000F1F760E382E19CE00E94080983E592E074
:1025D0000197F1F760E282E19CE00E9408096091B6
:1025E000170C606240E082E19CE00E94210984E0D7
:1025F0008093180C40E06CE082E19CE00E9421098D
:102600000E94380982E08093190C40E066E082E184
:102610009CE00E94210940E062E082E19CE00E948F
:1026200021098BE39FE10197F1F788E080931D0C6E
:1026300060E082E19CE00E94DB070E9438096FEABB
:1026400073E082E19CE00E940D0B61E080E00E945B
:102650008B096FEB73E082E19CE00E940D0B68EE4A
:1026600073E080E090E00E94820403E010E0EFE17C
:10267000EE2EEAE0FE2EDD24D394F092ED0BE092F4
:10268000EC0BD092040C70E060E08CE00E949A06A3
:1026900060ED77E080E090E00E945D0668EC70E01D
:1026A00080E090E00E9482041092100C80910C0C4B
:1026B0008430D1F08930C1F064EF71E080E090E0C7
:1026C0000E94820401501109C1F60E9438096CEE83
:1026D00073E082E19CE00E940D0B61E080E00E94CB
:1026E0008B096DEF73E01FC069E170E086E00E9426
:1026F0009A0670E060E082E40E949A0660E070E072
:10270000CB010E945D06811119C00E9438096FEC4F
:1027100073E082E19CE00E940D0B61E080E00E948A
:102720008B096EED73E082E19CE00E940D0B60ED81
:1027300077E080E090E00E9482040CC01092100CC0
:1027400080910C0C8B3009F780910E0C90910F0C3E
:10275000892BD9F60E94380960E174E082E19CE09F
:102760000E940D0B63EAE62E62E0F62E7DEA672EEC
:1027700072E0772EF3010081F2E06F0E711C61E0D0
:10278000802F0E940004F7011081F2E0EF0EF11C8F
:1027900061E0812F0E94000461E0802F0E94CE033F
:1027A00068EC70E080E090E00E94820460E0802F9E
:1027B0000E94CE0361E0812F0E94CE0368EC70E09E
:1027C00080E090E00E94820460E0812F0E94CE03AE
:1027D00027EB621622E0720669F662E087E20E9449
:1027E00000040BE812E0F80180810E5F1F4F62E0E9
:1027F0000E940004F2E007391F07A9F75BE8E52E05
:1028000052E0F52E0FE712E0F80180810E5F1F4FB6
:1028100062E00E940004E016F106B1F70FE512E055
:10282000F80180810E5F1F4F62E00E940004F2E019
:102830000F371F07A9F763E17AE090E080E00E947C
:10284000C20964EA79E084E090E00E94C20948EAA3
:10285000E42E49E0F42E88E090E08C010F5F1F4FDA
:102860000E94180A90E0F701819391937F01C801BB
:102870000E30110591F734EBE32E39E0F32E6801A9
:10288000FFEFCF1ADF0AC8010E94180A90E0F70193
:10289000819391937F0186010431110581F720EC2A
:1028A000E22E29E0F22E04E110E0C8010E943B2252
:1028B000F7018083C80101960E943B22F7018183C2
:1028C000F2E0EF0EF11C0E5F1F4F0032110569F7A9
:1028D00094E8E92E99E0F92E00E210E068012FEF6C
:1028E000C21AD20AC8010E94180A90E0F701918327
:1028F00080830E5F1F4FC6010E94180A90E0F70107
:1029000093838283F4E0EF0EF11C0033110531F75D
:102910008EECE82E89E0F82E68012FEFC21AD20A59
:10292000C8010E94180AF70181937F0186010A33CA
:10293000110591F77601FFEFEF1AFF0AC6010E9419
:10294000180A2AE3C21AD10820917B0B30917C0B24
:10295000C216D30640F42091770B3091780B2115E5
:10296000310509F0D2C11092830923E839E0F90159
:1029700080836701FBE5EF16F104E1F687010F5F45
:102980001F4FC7010E94180A2BE5E21AF108209197
:10299000750B3091760BE216F30638F4E091710B6B
:1029A000F091720B309709F0B3C110928309E3E8FC
:1029B000F9E0808378010C37110501F778013FEFCA
:1029C000E31AF30AC8010E94180A0C571109209152
:1029D0006F0B3091700B0217130738F4E0916B0BFB
:1029E000F0916C0B309709F096C110928309E3E8DF
:1029F000F9E0808387014DE9E416F104F9F60EE071
:102A000012E067015FEFC51AD50AC7010E94180AD4
:102A1000F80181938F017601FEEBCF16D10489F77F
:102A200080E294E00E94FE0A62E370E080E090E0C1
:102A30000E9482046CE374E08CEB9AE00E940D0B20
:102A40006091130A7091140A8091150A9091160AE8
:102A5000B8EECB2EB3E0DB2EE12CF12CA7019601D2
:102A60000E947F22CA01B9010E94ED0A62E370E070
:102A700080E090E00E94820468E474E08CEB9AE0CD
:102A80000E940D0B6091A4097091A5098091A6097F
:102A90009091A709A70196010E947F22CA01B9015E
:102AA0000E94ED0A62E370E080E090E00E94820400
:102AB00062E574E08CEB9AE00E940D0B04EB19E0E8
:102AC00028EA39E03B8F2A8FEA8DFB8D6191719165
:102AD000FB8FEA8F8CEB9AE00E94A40A2A8D3B8D33
:102AE0000217130789F70E94340A62E370E080E05E
:102AF00090E00E9482046DE574E08CEB9AE00E9405
:102B00000D0B00EC19E044EB59E05D8F4C8FEC8D20
:102B1000FD8D61917191FD8FEC8F8CEB9AE00E949D
:102B2000A40A2C8D3D8D0217130789F70E94340AE1
:102B300062E370E080E090E00E94820467E674E067
:102B40008CEB9AE00E940D0BA0ECEA2EA9E0FA2E85
:102B500010E000E0F701619171917F018CEB9AE048
:102B60000E94A40A0530110531F06EE674E08CEB8A
:102B70009AE00E940D0B0F5F1F4F0630110551F7B1
:102B80000E94340A62E370E080E090E00E948204D8
:102B900061E774E08CEB9AE00E940D0BF4EAEF2EF3
:102BA000F9E0FF2E04E819E0F801608171818CEBF7
:102BB0009AE00E94A40A6EE674E08CEB9AE00E9410
:102BC0000D0BF801628173818CEB9AE00E94A40ADC
:102BD0006EE674E08CEB9AE00E940D0B0E94340AC2
:102BE0000C5F1F4FE016F106F9F662E370E080E03B
:102BF00090E00E94820469E774E08CEB9AE00E9406
:102C00000D0B8EEC99E00E94FE0A67E874E08CEBF5
:102C10009AE00E940D0B87E79BE00E94490A67E952
:102C200074E08CEB9AE00E940D0B81E79BE00E9420
:102C3000490A69EA74E08CEB9AE00E940D0B8BE67E
:102C40009BE00E94490A89EB94E00E94FE0A0E94E0
:102C500038096FEA73E082E19CE00E940D0B61E0AD
:102C600080E00E948B096BED74E082E19CE00E94A1
:102C70000D0B84E690E09093FB098093FA09909302
:102C8000FD098093FC099093FF098093FE099093BE
:102C9000010A8093000A90930D0280930C02E8EEE3
:102CA0002E2EE3E03E2E412C512C8CEB9AE00E941C
:102CB0005F02181619060CF018C163EF72E0CE011E
:102CC00043960E949D0C0E941D0597FD27C08A30E7
:102CD000910521F189831A820F89188D0F5F1F4F8B
:102CE000B801CE0143960E94750C882361F32B89AD
:102CF0003C898F89988DBE016F5F7F4F820F931F34
:102D00000E94D524188F0F8BDECF2C0D3D1D2FCEAA
:102D1000EE0DFF1D4ECEE00FF11F6BCE64EF71E0A4
:102D200080E090E00E94820467EE74E0CE0101969C
:102D30000E949D0CBE016F5F7F4FCE0143960E94A3
:102D4000070C182FCE0101960E946D0C112309F477
:102D500006C544E050E0BE016D5E7F4FCE01019696
:102D60000E94300DBE016F5F7F4FCE0143960E94DF
:102D7000220CCE0101960E946D0C6CE975E0CE012B
:102D800001960E949D0CBE016F5F7F4FCE0143965E
:102D90000E94070C182FCE0101960E946D0C112382
:102DA00021F14AE050E0BE016D5E7F4FCE010196F9
:102DB0000E94300DCE0101960E941A0A9B01AC01BF
:102DC000A8EEB3E00E9451226093130A7093140A94
:102DD0008093150A9093160ACE0101960E946D0CFD
:102DE0008CEE94E00E94FE0A7CC06EEA75E0CE0193
:102DF00001960E949D0CBE016F5F7F4FCE014396EE
:102E00000E94070C182FCE0101960E946D0C112311
:102E100011F148E050E0BE016D5E7F4FCE0101969A
:102E20000E94300DCE0101960E941A0A9B01AC014E
:102E3000A8EEB3E00E9451226093A4097093A50903
:102E40008093A6099093A709CE0101960E946D0C6C
:102E500089EF94E0C7CF6EEB75E0CE0101960E943A
:102E60009D0CBE016F5F7F4FCE0143960E94070C01
:102E7000182FCE0101960E946D0C112309F490C108
:102E800049E050E0BE016D5E7F4FCE0101960E9489
:102E9000300D0D811E81F12CE12CE016F10690F42D
:102EA000B701CE0101960E94E101F701EE0FFF1F6D
:102EB000E855F64F21E030E0813311F030E020E0BA
:102EC00031832083FFEFEF1AFF0A26E0E216F104B8
:102ED00021F784E095E00E94FE0ACE0101960E944F
:102EE0006D0CCE0143960E946D0C80911E0A8234B7
:102EF00009F054C066E0862E62E0962E70E0E72E60
:102F000072E0F72EEFE7CE2EE2E0DE2E10E000E0DA
:102F1000F6018081F2E0CF0ED11C0E94A20321E0D5
:102F2000009709F420E0F40121934F0198012F5FED
:102F30003F4F5901892B09F047C5F701808188234C
:102F400009F445C568EC70E080E090E00E948204DE
:102F5000C801880F991F9C012852364F790121E042
:102F600030E0F701318320836DE676E08CEB9AE068
:102F70000E940D0BB5018CEB9AE00E94A40A66E753
:102F800076E08CEB9AE00E940D0BF7018081918135
:102F90000E94DE0AF801E050FE4F108280911D0A67
:102FA00081116CC080911C0A8111E7C687E20E94E2
:102FB000A203892B09F0E1C681E080931D0A1092DB
:102FC0001C0A10921B0A0E94B5046093170A7093A2
:102FD000180A8093190A90931A0A1092CD09109238
:102FE000CC091092120A1092110A1092100A109233
:102FF0000F0A10920E0A03EA12E04DEAE42E42E0B4
:10300000F42EF7018081F2E0EF0EF11C60E00E94E7
:10301000CE03F80180810E5F1F4F60E00E94CE0357
:10302000F7EBEF16F2E0FF0661F70E94380967E759
:103030007BE082E19CE00E94F30168EB7BE080E0B2
:1030400090E00E9482040E94B504685E734081098A
:1030500091096093060A7093070A8093080A909377
:10306000090A0E940F0B6CE271E080E090E00E9480
:10307000820480911D0A882309F47FC680911C0A6E
:1030800081117BC680911B0A8111AAC40E940F0B7B
:103090000E94B5040091170A1091180A2091190A8C
:1030A00030911A0A601B710B820B930B0091130A6B
:1030B0001091140A2091150A3091160A60177107B1
:1030C00082079307E0F181E080931C0A0E9438098F
:1030D00065E67BE082E19CE00E94F30161E080E034
:1030E0000E948B0962E876E082E19CE00E940D0B71
:1030F0000DEA12E033EAE32E32E0F32EF70180818D
:10310000F2E0EF0EF11C61E00E94CE030E151F05E8
:10311000A9F784E690E090930D0280930C029093BF
:10312000010A8093000A9093FF098093FE0990930F
:10313000FD098093FC099093FB098093FA0981E0D3
:103140008093E90B0E94B5040091D90B1091DA0B22
:103150002091DB0B3091DC0BAB01BC01401B510B10
:10316000620B730B8091E50B9091E60BB0E0A0E051
:1031700084179507A607B70708F005C610E08091E9
:10318000E30B181708F0A9C4E091DF0BF091E00BF6
:10319000E10FF11D62E080810E9400041F5FEFCF0C
:1031A0006FEC75E0CE0101960E949D0CBE016F5F31
:1031B0007F4FCE0143960E94070C182FCE01019637
:1031C0000E946D0C112351F148E050E0BE016D5E8C
:1031D0007F4FCE0101960E94300D0D811E81F12C92
:1031E000E12CE016F10680F4B701CE0101960E94B1
:1031F000E101F701EE0FFF1FEC54F64F082E000C13
:10320000990BC097918380833FEFE31AF30A46E05E
:10321000E416F10431F780E195E05DCE6FED75E0E5
:10322000CE0101960E949D0CBE016F5F7F4FCE01C3
:1032300043960E94070C182FCE0101960E946D0C38
:10324000112309F471C045E050E0BE016D5E7F4F6F
:10325000CE010D960E94300D10E000E0912C812CE3
:10326000F12CE12CC988DA880C151D0508F055C031
:10327000B801CE010D960E94E101F80131965F017F
:103280008C3231F0F1E0CF1AD1080C151D05C1F5D3
:1032900063EF72E0CE0107960E949D0C89899A899E
:1032A00001970817190771F5492D582DBE01635F65
:1032B0007F4FCE0101960E94300DBE016F5F7F4FA0
:1032C000CE0107960E94220CCE0101960E946D0C41
:1032D00026E0E216F1045CF4CE0107960E941A0A79
:1032E000F701EE0FFF1FE054F64F718360839A2CB5
:1032F0008B2C3FEFE31AF30ACE0107960E946D0C68
:103300008501B0CF9801492D582DBE01635F7F4FD5
:10331000CE0101960E94CE0CD0CF8BE195E00E94A9
:10332000FE0ACE010D96DBCD6EEE75E0CE01019664
:103330000E949D0CBE016F5F7F4FCE0143960E949D
:10334000070C182FCE0101960E946D0C112309F471
:103350007BC046E050E0BE016D5E7F4FCE010D9612
:103360000E94300D10E000E0D12CC12C912C812C5A
:10337000F12CE12CA988BA880A151B0508F061C058
:10338000B801CE010D960E94E1018C3239F041E086
:10339000A41AB1080A151B0509F042C063EF72E0D8
:1033A000CE0107960E949D0C89899A89019708177A
:1033B0001907C9F5A401BE01635F7F4FCE010196D5
:1033C0000E94300DBE016F5F7F4FCE0107960E94B5
:1033D000220CCE0101960E946D0CF8E0EF16F1046C
:1033E000BCF4CE0107960E941A0AF701EE0FFF1FE8
:1033F000EC0DFD1DEE0FFF1FEC57F64F7183608340
:10340000CA94CD28D1F48FEFE81AF80AD12CC12C38
:1034100048019FEF891A990ACE0107960E946D0C08
:103420000F5F1F4FA7CF9801A401BE01635F7F4FBD
:10343000CE0101960E94CE0CC5CFCC24C394D12CD2
:10344000E7CF83E295E06BCF6CEF75E0CE0101969C
:103450000E949D0CBE016F5F7F4FCE0143960E947C
:10346000070C182FCE0101960E946D0C112321F13B
:1034700048E050E0BE016D5E7F4FCE0101960E9494
:10348000300D0D811E810115110529F41092CE0910
:103490008CE295E020CD0930110510F009E010E034
:1034A00069817A81A8018EEC99E00E94EA24F801F2
:1034B000E253F64F1082ECCF8F89988D892B09F457
:1034C00084C06AE375E08B899C890E94CC24892B97
:1034D00009F07BC063E17AE090E080E00E94E809B7
:1034E00064EA79E084E090E00E94E80998EAE92E35
:1034F00099E0F92E08E010E0F7016081F2E0EF0EAC
:10350000F11CC8010E9443220F5F1F4F0E301105AE
:1035100099F784EBE82E89E0F82EF7016081F2E05C
:10352000EF0EF11CC8010E9443220F5F1F4F0431B0
:10353000110599F714E1C12ED12C86010455164FBF
:10354000760122E0E20EF11CF801B1908F01C60174
:103550000E943B22B81621F06B2DC6010E94432227
:10356000FFEFCF1ADF0ACE14DF0471F720E2C21694
:10357000D10419F704E819E0F8016081C6010E943E
:103580004322F2E0CF0ED11CF8016281C6010197FF
:103590000E9443220C5F1F4FF0E3CF16D10461F766
:1035A0000EEC19E0B0E3EB2EF12CF80161918F01E4
:1035B000C7010E944322FFEFEF1AFF0A2AE3E21637
:1035C000F10499F787E395E00DCC6FE375E0CE0148
:1035D00001960E949D0CBE016F5F7F4FCE01439606
:1035E0000E94070C182FCE0101960E946D0C11232A
:1035F00009F477CC44E050E0BE016D5E7F4FCE0110
:1036000001960E94300DBE016F5F7F4FCE01439641
:103610000E94220CCE0101960E946D0C60E176E0C2
:10362000CE0101960E949D0CBE016F5F7F4FCE01BF
:1036300043960E94070C182FCE0101960E946D0C34
:10364000112361F046E050E0BE016D5E7F4FCE0178
:1036500001960E94300D84E495E03DCC62E276E074
:10366000CE0101960E949D0CBE016F5F7F4FCE017F
:1036700043960E94070C182FCE0101960E946D0CF4
:10368000112361F048E050E0BE016D5E7F4FCE0136
:1036900001960E94300D81E595E01DCC66E376E051
:1036A000CE0101960E949D0CBE016F5F7F4FCE013F
:1036B00043960E94070C182FCE0101960E946D0CB4
:1036C000112361F046E050E0BE016D5E7F4FCE01F8
:1036D00001960E94300D80E695E0FDCB68E476E02F
:1036E000CE0101960E949D0CBE016F5F7F4FCE01FF
:1036F00043960E94070C182FCE0101960E946D0C74
:10370000112361F048E050E0BE016D5E7F4FCE01B5
:1037100001960E94300D8DE695E0DDCB6CE576E0FC
:10372000CE0101960E949D0CBE016F5F7F4FCE01BE
:1037300043960E94070C182FCE0101960E946D0C33
:10374000112309F4CECB47E050E0BE016D5E7F4F00
:10375000CE0101960E94300D8CE795E0BCCB8F899D
:10376000988D892B09F4BDCB0B891C896AE875E01B
:10377000C8010E94CC246C01892B09F0ECC065E9DA
:1037800075E08CEB9AE00E940D0B6091130A70912A
:10379000140A8091150A9091160AA20191010E94C3
:1037A0007F22CA01B9010E94ED0A67EA75E08CEB3D
:1037B0009AE00E940D0B6091A4097091A509809177
:1037C000A6099091A709A20191010E947F22CA0136
:1037D000B9010E94ED0A67EB75E08CEB9AE00E945C
:1037E0000D0B08EA19E0F801619171918F018CEBE2
:1037F0009AE00E94A40A2A8D3B8D0217130799F7BD
:103800000E94340A68EC75E08CEB9AE00E940D0B84
:1038100004EB19E0F801619171918F018CEB9AE052
:103820000E94A40A2C8D3D8D0217130799F70E9460
:10383000340A68ED75E08CEB9AE00E940D0BA0EC69
:10384000EA2EA9E0FA2E10E000E0F70161917191F3
:103850007F018CEB9AE00E94A40A0530110531F03B
:1038600065EE75E08CEB9AE00E940D0B0F5F1F4F29
:103870000630110551F70E94340A67EE75E08CEBB3
:103880009AE00E940D0B04E819E0F8016081718153
:103890008CEB9AE00E94A40A65EE75E08CEB9AE04E
:1038A0000E940D0BF801628173818CEB9AE00E94FB
:1038B000A40AF7E0CF16D10431F065EE75E08CEB89
:1038C0009AE00E940D0B2FEFC21AD20A0C5F1F4F15
:1038D00038E0C316D104C9F60E94340A65EF75E0DA
:1038E0008CEB9AE00E940D0B8EEC99E00E94FE0A90
:1038F00065E076E08CEB9AE00E940D0B87E79BE099
:103900000E94490A67E176E08CEB9AE00E940D0B79
:1039100081E79BE00E94490A6BE276E08CEB9AE03B
:103920000E940D0B8BE69BE00E94490A6DE376E056
:103930008CEB9AE00E940D0B8EE092E00E94FE0A52
:1039400061E576E08CEB9AE00E940D0B85E69BE04A
:103950000E94490AC6CA67E676E0C8010E94CC24E4
:10396000892B09F0BECA10921D0A10921C0A03EAA4
:1039700012E0FDEAEF2EF2E0FF2EF7018081F2E087
:10398000EF0EF11C60E00E94CE03F80180810E5F13
:103990001F4F60E00E94CE036E147F0471F70E94F7
:1039A00038096FEA73E082E19CE00E940D0B61E050
:1039B00080E00E948B096BED74E082E19CE00E9444
:1039C0000D0B84E696E00ECA21E0F7012083850105
:1039D0003FEFE31AF30A0630110509F099CADECA6F
:1039E0000E94B504C0900A0AD0900B0AE0900C0A1D
:1039F000F0900D0A6C197D098E099F0961367A4E87
:103A00008105910518F110921B0A0E94380964EA99
:103A100073E082E19CE00E940D0B0E94E2080E948C
:103A2000C50860ED77E080E090E00E9482040E948B
:103A3000B504685E7340810991096093060A70932A
:103A4000070A8093080A9093090A22CB0E94B504C2
:103A50000091020A1091030A2091040A3091050A8C
:103A6000601B710B820B930B683E734081059105BF
:103A700008F40ECB0E94B5046093020A7093030A07
:103A80008093040A9093050A0E94B50440E6C40E90
:103A90004AEED41EE11CF11CA7019601261B370B30
:103AA000480B590BCA01B901A20191010E947F2262
:103AB0006901890160E08EE00E948B090A301105DE
:103AC00034F464E073E082E19CE00E940D0BB601E7
:103AD00082E19CE00E94A40ADBCA912C8091E40B55
:103AE000981608F063C0E92CF12CE091E10BF091FD
:103AF000E20BEE0DFF1D61E080810E940004E09169
:103B0000E10BF091E20BEE0DFF1D60E080810E9461
:103B1000CE0381E090E0A0E0B0E0092C04C0880F63
:103B2000991FAA1FBB1F0A94D2F75C016C01C094B5
:103B3000D094812C8091E30B881608F5082D10E0B5
:103B4000E091DF0BF091E00BE00FF11F80810E940C
:103B5000A2030C5F1F4F000F111FF801E358F44F31
:103B6000892B41F4808191818A299B2991838083CB
:103B70008394E0CF808191818C219D21F7CFE091CA
:103B8000E10BF091E20BEE0DFF1D61E080810E94E0
:103B9000CE038091E10B9091E20BE80EF91E60E0FC
:103BA000F70180810E940004939498CF0DE71BE0F9
:103BB00089EB9BE07801F701278D30A1232B31F4AD
:103BC000148E2FEF3FEF368F258F11A236E0E30ED4
:103BD000F11C8E159F0579F7D12C96E0B92E8091B6
:103BE000E30BD81608F052C0C12C8D2C912C880CF8
:103BF000991CA4014B57544F4A012091E40BC21663
:103C000008F042C0F401608171810C2C02C07695ED
:103C100067950A94E2F7D29E900111242C0D311D74
:103C2000EDE7FBE080E0458D568D2417350709F45C
:103C3000D4C38F5F36968A30B1F760FF23C0EDE7BB
:103C4000FBE090E080E0448D411117C0E091DD0B76
:103C5000F091DE0BE20FF31F4081B89EF001B99E98
:103C6000F00D1124E358F44F448F368F258F10A2A6
:103C7000178E61E00E94C10405C0019636968A3015
:103C8000910509F7C394B9CFD394A9CF80E0F80187
:103C9000D1A0D11001C0D82E0A5F1F4FE016F10647
:103CA00009F06FC00E94B5046093D90B7093DA0BD2
:103CB0008093DB0B9093DC0BDD2009F464C08091D2
:103CC0009E0B882309F45FC080919C0B90919D0B03
:103CD000019709F058C01091990B111157C08091AC
:103CE000120A882309F449C08091110A882309F433
:103CF00044C08091100A882309F43FC080910F0AC4
:103D00008823D9F180910E0A8823B9F181E080934C
:103D10001C0A0E9438096EE072E082E19CE00E9479
:103D20000D0B61E080E00E948B0967E878E082E19A
:103D30009CE00E940D0B0DEA12E0F80180810E5FFD
:103D40001F4F61E00E94CE0360167106B1F784E652
:103D500090E090930D0280930C029093010A80935F
:103D6000000A9093FF098093FE099093FD098093C8
:103D7000FC099093FB098093FA090E940E030C94AE
:103D800055168D2D84CF1092E90BA9CF63E976E00B
:103D90008CEB9AE00E940D0B812F0E943A0AF09161
:103DA0001B0AF98FF111C4C061EA76E08CEB9AE04E
:103DB0000E940D0B812F0E943A0A6AE477E08CEB97
:103DC0009AE00E940D0B8091FC099091FD090E94E0
:103DD000DE0A8091FA099091FB091134C9F08091B3
:103DE000FC099091FD09123499F08091FE0990919F
:103DF000FF09133469F08091000A9091010A14348C
:103E000039F01A3209F06BCF80910C0290910D02BB
:103E10008436910509F063CF81E080931B0A1093EB
:103E20001E0A0E94B50460930A0A70930B0A8093DD
:103E30000C0A90930D0A1092F9091092F809109249
:103E4000E4098091FA099091FB090E94DE0A0E9420
:103E50003809123451F1BCF41A3209F45CC011343F
:103E600009F03DCF6EEB76E082E19CE00E940D0B05
:103E700061E080E00E948B096AEC76E082E19CE0E0
:103E80000E940D0B2CCF1334C9F1143409F027CF45
:103E90006CE077E082E19CE00E940D0B61E080E045
:103EA0000E948B0967E177E0E9CF6AED76E082E175
:103EB0009CE00E940D0B61E080E00E948B0966EEA1
:103EC00076E082E19CE00E940D0B1092D9091092DD
:103ED000D8091092DB091092DA091092DD091092CC
:103EE000DC091092DF091092DE091092E1091092AC
:103EF000E0091092E3091092E209F1CE67EF76E053
:103F000082E19CE00E940D0B61E080E00E948B0941
:103F10006DEF76E0B3CF68E277E082E19CE00E944B
:103F20000D0B61E080E00E948B0964E377E0A6CF8F
:103F300080911E0A133209F026C210921B0A8234A5
:103F400009F4C0C024F58A3209F4C8C1813471F182
:103F500060ED77E080E090E00E9482040E94B5046A
:103F6000685E7340810991096093060A7093070A9D
:103F70008093080A9093090A66E678E08CEB9AE051
:103F80000E940D0B80911E0A0E943A0AA8CE83342B
:103F900009F4EEC08434E1F68091000A9091010AA0
:103FA00084369105A9F60E943C0DD2CF8091FA0982
:103FB0009091FB098436910559F618EAA12E19E073
:103FC000B12E0BE8E02E02E0F02E10E000E0F70149
:103FD0008081F2E0EF0EF11C0E94A203CC24C39476
:103FE000D12C892B11F0D12CC12C61E477E08CEB22
:103FF0009AE00E940D0BB8018CEB9AE00E94A40A93
:1040000069E477E08CEB9AE00E940D0BC6010E94F8
:10401000DE0AF501819191915F01C816D90609F078
:1040200040C00F5F1F4F0630110589F60E94380906
:10403000F98DFF23C1F181E08093120A8091CC09B0
:104040009091CD099C012F5F3F4F3093CD09209374
:10405000CC0926303105B4F4880F991FFC01E355D3
:10406000FD4F61E080810E94CE0362E577E08CEB3A
:104070009AE00E940D0B8091CC099091CD09019797
:104080000E94DE0A68E677E082E19CE00E940D0B68
:1040900061E080E00E948B091092FB091092FA09FE
:1040A00057CF198EC3CF6AE777E082E19CE00E9488
:1040B0000D0B61E080E00E948B090E94E2080E94E3
:1040C000C50846CF8091FC099091FD098436910581
:1040D00009F03ECFA8EDB9E0E4EBF9E090E080E034
:1040E0004D915D9161917191019621E030E06817E9
:1040F000790711F030E020E04217530719F067E923
:1041000078E034C18630910559F781E08093110A37
:104110008091CC099091CD0901969093CD0980931F
:10412000CC0969EA78E0CE0101960E949D0CCE018F
:1041300001960E946A09CE0101960E946D0C809141
:10414000CC099091CD09863091054CF4880F991FC8
:10415000FC01E555FD4F61E080810E94CE038AE8B5
:1041600097E00E94FE0A1092FD091092FC09F0CE21
:104170008091FE099091FF098436910509F0E8CEFF
:1041800067E977E08CEB9AE00E940D0B07E912E0FB
:1041900063EAE62E62E0F62E70ECC72E79E0D72EA9
:1041A0004801EAE0AE2EB12CF4018081F2E08F0EDE
:1041B000911C0E944004F601219131916F01B501DB
:1041C0000E946B22621B730B77FF03C07195619590
:1041D0007109663071050CF06CC0E814F90421F720
:1041E00040ECC42E49E0D42E5AE0A52EB12CF801A3
:1041F00080810E5F1F4F0E9440044C0160EB77E00E
:104200008CEB9AE00E940D0BC401B5010E946B2259
:104210008CEB9AE00E94A40A6FEB77E08CEB9AE0BB
:104220000E940D0BF601819191916F010E94DE0AAF
:10423000E016F106E1F683ED97E00E94FE0AF98DA3
:10424000FF23C9F181E08093100A8091CC099091FD
:10425000CD0901969093CD098093CC096BEF77E05F
:10426000CE0101960E949D0CCE0101960E946A0922
:10427000CE0101960E946D0C8091CC099091CD09E0
:10428000863091054CF4880F991FFC01E555FD4FD0
:1042900061E080810E94CE031092FF091092FE0916
:1042A00085E098E00E94FE0A80E298E00E94FE0A03
:1042B0004FCE198E95CF63E178E0CE0101960E9432
:1042C0009D0CCE0101960E944309CE0101960E94E9
:1042D0006D0C0E94E2080E94C508E6CF80910C0296
:1042E00090910D028436910509F032CEE091F809E3
:1042F000F091F909EC51F64F10826EEC79E084EE02
:1043000099E00E94CC24892B79F581E080930E0AF4
:104310008091CC099091CD0901969093CD0980931D
:10432000CC096EE378E0CE0101960E949D0CCE018F
:1043300001960E946A09CE0101960E946D0C80913F
:10434000CC099091CD09863091054CF4880F991FC6
:10435000FC01E555FD4F61E080810E94CE03109283
:104360000D0210920C02F4CD63E578E0CE010196C7
:104370000E949D0CCE0101960E944309CE01019638
:104380000E946D0C9ACE8A3209F0A9CC1A3209F437
:10439000A6CC8091F8099091F909833191050CF030
:1043A0009ECC9C012F5F3F4F3093F9092093F80971
:1043B0008C51964FFC0110832C51364FF90110821D
:1043C00061E080E00E948B0964E377E082E19CE099
:1043D0000E940D0B64EE79E051CD61704BCC85E607
:1043E0009BE00E946D0C8BE69BE00E946D0C81E7C8
:1043F0009BE00E946D0C87E79BE00C946D0C1F9373
:10440000FC0199278827BC01E89411911032E9F347
:10441000193010F01E30C8F31B3251F01D3249F430
:10442000689406C00E942622610F711D811D911D96
:10443000119110531A30B0F33EF490958095709519
:1044400061957F4F8F4F9F4F1F910895592F482F90
:10445000372F262F660F771F881F991F660F771F2C
:10446000881F991F620F731F841F951F660F771F88
:10447000881F991F0895F999FECF92BD81BDF89AC2
:10448000992780B50895262FF999FECF1FBA92BDBE
:1044900081BD20BD0FB6F894FA9AF99A0FBE019625
:1044A00008950E945C22A59F900DB49F900DA49F3B
:1044B000800D911D11240895A29FB001B39FC001EA
:1044C000A39F700D811D1124911DB29F700D811D40
:1044D0001124911D089597FB072E16F4009407D020
:1044E00077FD09D00E94A92207FC05D03EF49095E3
:1044F00081959F4F0895709561957F4F0895A1E232
:104500001A2EAA1BBB1BFD010DC0AA1FBB1FEE1F4D
:10451000FF1FA217B307E407F50720F0A21BB30B98
:10452000E40BF50B661F771F881F991F1A9469F714
:1045300060957095809590959B01AC01BD01CF0170
:104540000895EE0FFF1F881F8BBF0790F691E02D97
:104550001994AA1BBB1B51E107C0AA1FBB1FA617BA
:10456000B70710F0A61BB70B881F991F5A95A9F71C
:1045700080959095BC01CD0108950F931F93CF9323
:10458000DF938230910510F482E090E0E091200CFE
:10459000F091210C30E020E0B0E0A0E0309799F4F9
:1045A0002115310509F44AC0281B390B2430310587
:1045B000D8F58A819B816115710589F1FB0193838F
:1045C0008283FE0111C0408151810281138148170D
:1045D0005907E0F04817590799F4109761F01296BF
:1045E0000C93129713961C933296CF01DF91CF91C3
:1045F0001F910F9108950093200C1093210CF4CF7C
:104600002115310551F04217530738F0A901DB019C
:104610009A01BD01DF01F801C1CFEF01F9CF9093FD
:10462000210C8093200CCDCFFE01E20FF31F81936C
:1046300091932250310939832883D7CF20911E0CC2
:1046400030911F0C232B41F42091490230914A02F2
:1046500030931F0C20931E0C20914702309148028A
:104660002115310541F42DB73EB740914B025091D1
:104670004C02241B350BE0911E0CF0911F0CE2172D
:10468000F307A0F42E1B3F0B2817390778F0AC0175
:104690004E5F5F4F2417350748F04E0F5F1F509352
:1046A0001F0C40931E0C819391939FCFF0E0E0E0AC
:1046B0009CCFCF93DF930097E9F0FC0132971382F0
:1046C0001282A091200CB091210CED0130E020E08D
:1046D0001097A1F420813181820F931F20911E0C2D
:1046E00030911F0C2817390709F061C0F0931F0C97
:1046F000E0931E0CDF91CF910895EA01CE17DF07FA
:10470000E8F54A815B819E0141155105B1F7E90148
:10471000FB83EA8349915991C40FD51FEC17FD071C
:1047200061F4808191810296840F951FE90199833C
:104730008883828193819B838A83F0E0E0E01296F4
:104740008D919C9113970097B9F52D913C911197FC
:10475000CD010296820F931F20911E0C30911F0CE9
:104760002817390739F6309751F51092210C10921D
:10477000200CB0931F0CA0931E0CBCCFD383C2831C
:1047800040815181840F951FC817D90761F44E5F8E
:104790005F4F88819981480F591F518340838A81D7
:1047A0009B81938382832115310509F0B0CFF0936B
:1047B000210CE093200C9ECFFD01DC01C0CF1382C1
:1047C0001282D7CF4F925F926F927F928F929F9279
:1047D000AF92BF92CF92DF92EF92FF920F931F930F
:1047E000CF93DF938C01009799F4CB01DF91CF91A8
:1047F0001F910F91FF90EF90DF90CF90BF90AF90FF
:104800009F908F907F906F905F904F900C94BD22FF
:10481000FC01E60FF71F9C0122503109E217F30754
:1048200008F4AEC0D901CD91DC911197C617D70716
:1048300020F1C530D10578F0CE010497861797078F
:1048400050F0C61BD70B2297C193D1936D937C93E5
:10485000CF010E945923C801DF91CF911F910F9181
:10486000FF90EF90DF90CF90BF90AF909F908F9090
:104870007F906F905F904F9008955B01AC1ABD0AD6
:104880004C018C0E9D1EA091200CB091210C512C3E
:10489000412CF12CE12C109731F580911E0C909158
:1048A0001F0C8815990509F05CC04616570608F0DC
:1048B00058C08091470290914802009741F48DB70B
:1048C0009EB740914B0250914C02841B950BE81708
:1048D000F90708F055C0F0931F0CE0931E0CF90186
:1048E00071836083B8CF8D919C91119712966C90D3
:1048F000129713967C901397A815B90559F56C017A
:1049000042E0C40ED11CCA14DB0420F1AC014A19E8
:104910005B09DA011296159780F0628273825183E7
:104920004083D9016D937C93E114F10471F0D701B8
:104930001396FC93EE9312978ECF22968C0F9D1FA9
:10494000F90191838083F301EFCFF093210CE09381
:10495000200C81CF4816590608F42C017D01D301A3
:104960009ACFCB010E94BD227C01009749F0AE0195
:10497000B8010E94C324C8010E94592387016BCF4C
:1049800010E000E068CFFB01DC0102C001900D9255
:1049900041505040D8F70895FB01DC018D91019002
:1049A00080190110D9F3990B0895FB01DC010190E6
:1049B0000D920020E1F70895FB01DC0141505040C9
:1049C00030F08D910190801919F40020B9F7881BFF
:1049D000990B0895FB01DC014150504048F00190D3
:1049E0000D920020C9F701C01D9241505040E0F7E0
:1049F000089511E0C1E6D1E000E006C0802FFE017D
:104A00000E94A1222196011DC236D10780E008072D
:104A1000A9F7F894FFCF0101010101010101010192
:104A200001016400566963746F72792120416C6CD6
:104A3000207461736B7320646F6E65210000000049
:104A4000000000000008090C0D3E3F4041313233A8
:104A50004134353642373839432A30234400002266
:104A60000C800000004000140054007EFF0600018E
:104A700000000000EF1E001F002000210022002384
:104A8000002400250029002A002B002C002D002ED8
:104A9000002F00300002000300040005000600079C
:104AA0000016001700180019001A001B0036003706
:104AB00000380039003A003B001C001D0026002889
:104AC00000310032003300340035003C00000000AB
:104AD00000A10201022E02EE025F023D025102001D
:104AE000000000AC077F07C2085507780765075626
:104AF00007000000003C04FC03CB0300000000BCE6
:104B0000090102C208F2010D0A0054696D652072A4
:104B1000656D61696E696E673A0030004368656370
:104B20006B696E67206A61636B20636F6E6E65638D
:104B300074696F6E732E2E2E004A61636B20636F53
:104B40006E6E2E204F4B21004A61636B20636F6EA7
:104B50006E656374696F6E73204F4B21004A616309
:104B60006B207365712E2077726F6E6721006A610A
:104B7000636B20636865636B206661696C656400C4
:104B800047616D6520537461727465642120476FBD
:104B90006F64206C75636B210057656C6C20646FCB
:104BA0006E65210054727920616761696E2100474A
:104BB000616D65204F766572212054696D6527739C
:104BC00020757021004B6579706164204C4544204C
:104BD00047616D6500496E697469616C697A696ED7
:104BE000672E2E2E0053442043617264204572725A
:104BF0006F722100436865636B20534420436172E8
:104C000064004D503320506C61796572204572729A
:104C10006F720047616D652077696C6C20636F6E01
:104C200074696E75650054657374696E67204C45D0
:104C300044732E2E2E002D2D2D7361766564202059
:104C4000436F6E66696775726174696F6E202D2D92
:104C50002D00436F756E74646F776E3A2000506557
:104C60006E616C74793A2000537769746368657378
:104C70003A2000427574746F6E733A2000506F745E
:104C8000733A20002C20004A61636B733A20004B7A
:104C9000657970616420436F64653A2000537461E4
:104CA0007274204D6573736167653A2000436F72BB
:104CB00072656374204D6573736167653A200057B0
:104CC000726F6E67204D6573736167653A20006E81
:104CD0006F7720636F6E6E6563742074686520471C
:104CE00055492020636F6E666967757261746F72D3
:104CF000005072657373205354415254005345540D
:104D00003A004F4B3A434F554E54444F574E004F85
:104D10004B3A50454E414C5459004F4B3A5357492A
:104D20005443484553004F4B3A425554544F4E5309
:104D3000004F4B3A504F5453004F4B3A4A41434B6C
:104D400053004F4B3A4B4559434F4445004F4B3A64
:104D500053415645004D53473A004F4B3A4D534748
:104D60003A5354415254004F4B3A4D53473A434FF4
:104D70005252454354004F4B3A4D53473A57524FC6
:104D80004E47004F4B3A4D53473A564943544F52C2
:104D900059004F4B3A4D53473A444546454154001C
:104DA0004745543A434F4E46494700434F4E4649C4
:104DB000473A434F554E54444F574E3A00434F4E97
:104DC0004649473A50454E414C54593A00434F4E9C
:104DD0004649473A53574954434845533A00434F8D
:104DE0004E4649473A425554544F4E533A00434F6A
:104DF0004E4649473A504F54533A002C00434F4EC9
:104E00004649473A4A41434B533A00434F4E46497D
:104E1000473A4B4559434F44453A00434F4E464964
:104E2000473A4D53473A53544152543A00434F4E38
:104E30004649473A4D53473A434F52524543543AF5
:104E400000434F4E4649473A4D53473A57524F4E0B
:104E5000473A00434F4E4649473A4D53473A564921
:104E600043544F52593A00434F4E4649473A4D53E7
:104E7000473A4445464541543A004F4B3A52455310
:104E8000455400427574746F6E2020002070726566
:104E900073736564203A200054696D65277320752B
:104EA0007021202020202020004B65792070726521
:104EB000737365643A20004B657920707265737373
:104EC000656420736571206E6F7420616374697608
:104ED000653A2000537769746368207365712E000A
:104EE0005365742073776974636865732E2E2E0082
:104EF000427574746F6E207365712E005072657305
:104F00007320627574746F6E732E2E2E00506F7442
:104F1000732E0041646A75737420706F74732E2E43
:104F20002E004A61636B20636F6E6E2E00436F6EBE
:104F30006E656374206A61636B732E2E2E004B6561
:104F40007970616420636F646500456E74657220DA
:104F5000636F64653A2000537769746368200020AA
:104F600073746174653A20005475726E696E6720BF
:104F70006F6E20475245454E204C454420005377E4
:104F800069746368657320636F727265637421006E
:104F900053776974636865732077726F6E67210059
:104FA000627574746F6E2072696768740043686517
:104FB000636B696E6720706F742073657175656EC1
:104FC00063652E2E2E00706F742072656164696EA9
:104FD00067203A2000207C7C207361766564207213
:104FE000656164696E67203A00506F74656E74691C
:104FF0006F6D6574657220636865636B20636F6DA8
:10500000706C6574652E20616E616C7973696E6772
:1050100000506F74732E204F4B2100706F742072FC
:10502000696768742073657100506F74732E207700
:10503000726F6E672100506F74656E74696F6D6575
:1050400074657220636865636B20636F6D706C6557
:1050500074652E004B657970616420636F64652010
:10506000636F727265637421004B657970616420AF
:10507000636F64652077726F6E6721004B657920DE
:1050800074797065207072657373656420736571DF
:10509000206163746976652076323A2000416C6C39
:1050A000207461736B7320646F6E652100427574A8
:1050B000746F6E207365712077726F6E6721004286
:1050C0007574746F6E2073657120636F727265639F
:0450D0007421000047
:020000040003F7
:10E000000D9489F10D94B2F10D94B2F10D94B2F129
:10E010000D94B2F10D94B2F10D94B2F10D94B2F1F0
:10E020000D94B2F10D94B2F10D94B2F10D94B2F1E0
:10E030000D94B2F10D94B2F10D94B2F10D94B2F1D0
:10E040000D94B2F10D94B2F10D94B2F10D94B2F1C0
:10E050000D94B2F10D94B2F10D94B2F10D94B2F1B0
:10E060000D94B2F10D94B2F10D94B2F10D94B2F1A0
:10E070000D94B2F10D94B2F10D94B2F10D94B2F190
:10E080000D94B2F10D94B2F10D94B2F10D94B2F180
:10E090000D94B2F10D94B2F10D94B2F10D94B2F170
:10E0A0000D94B2F10D94B2F10D94B2F10D94B2F160
:10E0B0000D94B2F10D94B2F10D94B2F10D94B2F150
:10E0C0000D94B2F10D94B2F10D94B2F10D94B2F140
:10E0D0000D94B2F10D94B2F10D94B2F10D94B2F130
:10E0E0000D94B2F141546D656761323536300041AF
:10E0F000726475696E6F206578706C6F72657220DE
:10E1000073746B3530305632206279204D4C530099
:10E11000426F6F746C6F616465723E004875683F52
:10E1200000436F6D70696C6564206F6E203D200048
:10E130004350552054797065202020203D20005FF9
:10E140005F4156525F415243485F5F3D2000415658
:10E1500052204C696243205665723D20004743437C
:10E160002056657273696F6E203D20004350552024
:10E1700049442020202020203D20004C6F7720663D
:10E18000757365202020203D20004869676820665F
:10E190007573652020203D200045787420667573D6
:10E1A00065202020203D20004C6F636B2066757336
:10E1B000652020203D20004D617220203720323024
:10E1C000313300312E362E3800342E332E350056A2
:10E1D00023202020414444522020206F7020636F70
:10E1E00064652020202020696E73747275637469E1
:10E1F0006F6E2061646472202020496E74657272B3
:10E20000757074006E6F20766563746F7200726A49
:10E210006D702020006A6D70200057686174207056
:10E220006F72743A00506F7274206E6F7420737541
:10E2300070706F72746564004D7573742062652030
:10E2400061206C6574746572002000577269747483
:10E25000696E672045450052656164696E672045B7
:10E26000450045452065727220636E743D00504F35
:10E27000525400303D5A65726F2061646472003FF1
:10E280003D43505520737461747300403D454550C3
:10E29000524F4D207465737400423D426C696E6B41
:10E2A000204C454400453D44756D70204545505215
:10E2B0004F4D00463D44756D7020464C415348001B
:10E2C000483D48656C70004C3D4C69737420492F83
:10E2D0004F20506F72747300513D51756974005234
:10E2E0003D44756D702052414D00563D73686F7707
:10E2F00020696E7465727275707420566563746FF0
:10E30000727300593D506F727420626C696E6B00BD
:10E310002A0011241FBECFEFD1E2DEBFCDBF01E046
:10E320000CBF12E0A0E0B2E0EEE1FDEF03E00BBFB6
:10E3300002C007900D92A030B107D9F712E0A0E01B
:10E34000B2E001C01D92AE30B107E1F70F9460F367
:10E350000D948DFE01E20EBF0FEF0DBF11241FBE05
:10E360000D9460F30D9400F020E030E040ED57E0B4
:10E3700005C0FA013197F1F72F5F3F4F2817390792
:10E38000C0F308959C01260F311DC901A0E0B0E043
:10E390002F5F3F4FABBFFC018791882361F08093D3
:10E3A000C6008091C00086FFFCCF8091C0008064D1
:10E3B0008093C000EACF08958DE08093C6008091DD
:10E3C000C00086FFFCCF8091C00080648093C000B5
:10E3D0008AE08093C6008091C00086FFFCCF8091C8
:10E3E000C00080648093C00008950F94C2F10F9420
:10E3F000DCF10895FC019081992359F09093C600B7
:10E400008091C00086FFFCCF8091C0008064809323
:10E41000C0003196992379F70895282F982F929567
:10E420009F70892F805D8A3308F0895F8093C600D2
:10E430008091C00086FFFCCF8091C00080648093F3
:10E44000C000822F8F70982F905D9A3308F0995FEB
:10E450009093C6008091C00086FFFCCF8091C000E1
:10E4600080648093C00008959C01FB01853691056E
:10E470001CF46330710594F0C90164E670E00F94F8
:10E480002EFE605D7F4F6093C6008091C00086FFC6
:10E49000FCCF8091C00080648093C0002B30310598
:10E4A00014F43297B4F0C90164E670E00F942EFEC4
:10E4B0006AE070E00F942EFE605D7F4F6093C600AF
:10E4C0008091C00086FFFCCF8091C0008064809363
:10E4D000C000C9016AE070E00F942EFEC0968093E0
:10E4E000C6008091C00086FFFCCF8091C000806490
:10E4F0008093C00008951F93182F8EE692EE60E07F
:10E500000F94C2F11093C6008091C00086FFFCCF2B
:10E510008091C00080648093C0000F94DCF11F9153
:10E5200008952F923F924F925F926F927F928F92B7
:10E530009F92AF92BF92CF92DF92EF92FF920F9392
:10E540001F93DF93CF93CDB7DEB762970FB6F894E2
:10E55000DEBF0FBECDBF382E622ECA01DB015C01CB
:10E560006D01772420E2222E2E010894411C511CBB
:10E570008BC081E0A81680E0B80681E0C80680E084
:10E58000D80628F0C601AA27BB270F940DF2BB2797
:10E59000AD2D9C2D8B2D0F940DF28A2D0F940DF225
:10E5A0002092C6008091C00086FFFCCF8091C00001
:10E5B00080648093C0009DE29093C6008091C0006B
:10E5C00086FFFCCF8091C00080648093C0002092C1
:10E5D000C6008091C00086FFFCCF8091C00080649F
:10E5E0008093C00019828601750188249924A1E0D6
:10E5F0003A1651F03A1620F0B2E03B1661F409C029
:10E600000BBFF701779007C0C7010F9477FE782EF4
:10E6100002C0F7017080872D0F940DF22092C60082
:10E620008091C00086FFFCCF8091C0008064809301
:10E63000C000872D8052F401EF70F0708F3520F408
:10E64000E40DF51D708204C0E40DF51D8EE280839B
:10E650000894E11CF11C011D111D0894811C911CE2
:10E6600090E18916910409F0C2CF80E190E0A0E02A
:10E67000B0E0A80EB91ECA1EDB1E198AC2010F9493
:10E68000FAF10F94DCF16A94662009F072CF629679
:10E690000FB6F894DEBF0FBECDBFCF91DF911F91B3
:10E6A0000F91FF90EF90DF90CF90BF90AF909F9031
:10E6B0008F907F906F905F904F903F902F90089534
:10E6C0002F923F924F925F926F927F928F929F9282
:10E6D000AF92BF92CF92DF92EF92FF920F931F9370
:10E6E000DF93CF93CDB7DEB7CD53D1400FB6F894BB
:10E6F000DEBF0FBECDBF01E20EBF0FEF0DBF94B75F
:10E70000F894A89514BE80916000886180936000A1
:10E7100010926000789493FF05C0E0910002F091A0
:10E7200001021995279A2F9A8091C00082608093E8
:10E73000C00080E18093C40088E18093C1000000A4
:10E74000EE24FF24870144E0A42EB12CCC24DD2448
:10E7500024C0C5010197F1F70894E11CF11C011DCB
:10E76000111D21E2E2162EE4F20620E0020720E06D
:10E77000120718F031E0C32ED12CC801B70127ECE5
:10E780003BE140E050E00F9441FE611571058105C9
:10E79000910519F485B1805885B98091C00087FD35
:10E7A00003C0C114D104A9F2A6014F5F5F4FC25E3E
:10E7B000DE4F59834883CE51D140C25EDE4F8881FF
:10E7C0009981CE51D140019711F00D9410FEC05D9A
:10E7D000DE4F19821882C053D14060E0C15DDE4F28
:10E7E0001882CF52D14088249924C35DDE4F19820C
:10E7F0001882CD52D140C05EDE4F188219821A8233
:10E800001B82C052D140CE5CDE4F188219821A8220
:10E810001B82C253D140EE24FF2487010BBFF701B6
:10E8200007911691C45CDE4F19830883CC53D14005
:10E830000D940BFEC25EDE4F28813981CE51D1404E
:10E840002130310509F52091C600C25EDE4F1982E4
:10E850001882CE51D14022C02F5F3F4F4F4F5F4FA4
:10E86000213082E138078AE7480780E0580780F0C6
:10E87000C45CDE4FE881F981CC53D140EF5FFF4F9C
:10E8800019F0EE27FF27099420E030E040E050E047
:10E890008091C00087FFE0CF2091C600C35DDE4FAE
:10E8A00048815981CD52D1404F5F5F4FC35DDE4FEC
:10E8B00059834883CD52D140213209F063C64A3092
:10E8C000510508F05FC60894811C911C53E0851621
:10E8D000910409F059C600E010E018C081E280936D
:10E8E000C6008091C00086FFFCCF8091C00080648C
:10E8F0008093C0002F5F3F4F2931310579F70F9486
:10E90000DCF10F5F1F4F0530110519F020E030E0FA
:10E91000E5CF10920A0210920B0210920C02109294
:10E920000D02109206021092070210920802109235
:10E930000902109202021092030210920402109235
:10E9400005028FEE90EE60E00F94F5F180E191EE1C
:10E9500060E00F94C2F18091C00087FFFCCF9091DE
:10E96000C600903608F09F759032B8F09093C600BC
:10E970008091C00086FFFCCF8091C00080648093AE
:10E98000C000A0E2A093C6008091C00086FFFCCF2B
:10E990008091C00080648093C000983409F4D7C18E
:10E9A0009934B8F4923409F459C1933458F490333B
:10E9B00019F1903308F4E3C59F33A1F1903409F0C5
:10E9C000DEC5BDC0953409F470C1963409F0D7C5D1
:10E9D00098C1923509F42BC2933538F49C3409F46C
:10E9E000F5C1913509F0CBC518C2963509F445C279
:10E9F000993509F0C4C567C483E792EE62E00F94CD
