:020000040000FA
:100000000C945F010C9490010C9490010C9490015D
:100010000C9490010C9490010C9490010C9490011C
:100020000C9490010C94030D0C94030D0C94030D8F
:100030000C9490010C9490010C9490010C949001FC
:100040000C9490010C9490010C9490010C949001EC
:100050000C9490010C9490010C9490010C94B90CA8
:100060000C9490010C94830C0C94590C0C949001FA
:100070000C9490010C9490010C9490010C949001BC
:100080000C9490010C9490010C9490010C949001AC
:100090000C94230C0C94F90B0C9490010C940D0D02
:1000A0000C9490010C9490010C9490010C9490018C
:1000B0000C9490010C9490010C9490010C9490017C
:1000C0000C9490010C9490010C9490010C9490016C
:1000D0000C9490010C9490010C9490010C9490015C
:1000E0000C9490010C94DD010C945C050C947B0342
:1000F0000C9448030C94EB030C944E020C94830371
:100100000C946A050C948D030C945D030C941D02F1
:100110000C9489030C944E030C945A030C946703BB
:100120000C9452030C942C020C941D070C944E0555
:100130000C9490020C947F030C94F0010C94DC015D
:100140000C9456030C94BA030C944A070C94630362
:100150000C9471030C94EF010C94F3060C9475034A
:100160000C946C050C94DD020C94310E0C946E050D
:100170000C9460080C9488030C9412090C944705A5
:100180000C94F4060C9403070C9440020C9416078C
:100190000C942B040C9463050C946D030000210057
:1001A000240027002A002D00300033000101000048
:1001B000040107010A0100002200250028002B008D
:1001C0002E003100340002010000050108010B017E
:1001D000000020002300260029002C002F00320000
:1001E00000010000030106010901050505050705D9
:1001F00008080808020202020A0A080804040404A3
:1002000001010101010101010303030303030303CE
:10021000040707070C0C0C0C0C0C0C0C020202025D
:1002200006060606060606060B0B0B0B0B0B0B0B46
:1002300001021020200808102040102040800201F8
:1002400002010804020101020408102040808040DD
:1002500020100804020180040201804020100804DC
:10026000020108040201010204081020408001027A
:1002700004081020408000000A0B02090C0D0E0833
:10028000070304010000000000000000000000005F
:10029000000000000000000000000000000000005E
:1002A000000012111000000000000000000000001B
:1002B000000000000000000000000000310E1124CA
:1002C0001FBECFEFD1E2DEBFCDBF00E00CBF29E003
:1002D000AEE3B6E001C01D92AC36B207E1F716E01E
:1002E000A0E0B2E0EEEFFDE300E00BBF02C007903C
:1002F0000D92AE33B107D9F711E0CFE5D1E000E0C0
:1003000006C021970109802FFE010E94B91CCE353D
:10031000D10780E00807A9F70E943E0F0C94FD1E4C
:100320000C940000FC01A089B18982E08C93A48523
:10033000B5851C92A685B7858FEC8C93108EA48909
:10034000B58986E08C93A289B3898C9180618C9366
:10035000A289B3898C9188608C93A289B3898C918E
:1003600080688C930288F389E02D80818F7D808363
:10037000089596E0899FD0011124A953B74F909614
:100380007C936E935F9791E091969C939197E09107
:100390003409F091350990913309992339F0309758
:1003A00051F0811108C08091E3081994309719F039
:1003B0005C968C91FACF089508950895FC012481EC
:1003C00035816217730748F480819181009729F085
:1003D000860F971FFC018081089580E0089508959D
:1003E000AF92BF92CF92DF92EF92FF920F931F9343
:1003F000CF93DF936C017B018B01040F151FEB0181
:100400005E01AE18BF08C017D10759F06991D60137
:10041000ED91FC910190F081E02DC6011995892B99
:1004200079F7C501DF91CF911F910F91FF90EF9068
:10043000DF90CF90BF90AF900895FC01538D448D15
:10044000252F30E0842F90E0821B930B541710F07F
:10045000CF96089501970895FC01918D828D98178C
:1004600061F0A28DAE0FBF2FB11D5D968C91928D64
:100470009F5F9F73928F90E008958FEF9FEF089595
:10048000FC01918D828D981731F0828DE80FF11D5E
:10049000858D90E008958FEF9FEF0895FC01918D79
:1004A000228D892F90E0805C9F4F821B91098F7372
:1004B0009927089581E897E00E944E0221E0892B58
:1004C00009F420E0822F08958EE198E00E944E0208
:1004D00021E0892B09F420E0822F0895FC01A48DEE
:1004E000A80FB92FB11DA35ABF4F2C91848D90E056
:1004F00001968F739927848FA689B7892C93A08939
:10050000B1898C91837080648C93938D848D9813C2
:1005100006C00288F389E02D80818F7D8083089555
:10052000EF92FF920F931F93CF93DF93EC0181E043
:10053000888F9B8D8C8D98131AC0E889F9898081EA
:1005400085FF15C09FB7F894EE89FF896083E8891D
:10055000F98980818370806480839FBF81E090E00F
:10056000DF91CF911F910F91FF90EF900895F62E9C
:100570000B8D10E00F5F1F4F0F731127E02E8C8D36
:100580008E110CC00FB607FCFACFE889F98980817B
:1005900085FFF5CFCE010E946E02F1CFEB8DEC0FFF
:1005A000FD2FF11DE35AFF4FF0829FB7F8940B8F98
:1005B000EA89FB8980818062CFCFCF93DF93EC0102
:1005C000888D8823B9F0AA89BB89E889F9898C913B
:1005D00085FD03C0808186FD0DC00FB607FCF7CFF7
:1005E0008C9185FFF2CF808185FFEDCFCE010E94F7
:1005F0006E02E9CFDF91CF91089580E090E0892BE2
:1006000029F00E94640281110E94000080E090E0C5
:10061000892B29F00E945A0281110E94000080E07B
:1006200090E0892B49F080E090E0892B29F00E942E
:10063000000081110E94000080E090E0892B49F0C9
:1006400080E090E0892B29F00E94000081110C9439
:10065000000008958150823108F05AC0E82FF0E080
:100660008827EA5CFC4F8F4F0C94B91C56035A0341
:1006700048034E03520388035D03630367036D035E
:10068000710375037B037F038803830389038D0351
:10069000809180008F778093800008958091800002
:1006A0008F7DF9CF80918000877FF5CF84B58F77DC
:1006B00084BD089584B58F7DFBCF8091B0008F7786
:1006C0008093B00008958091B0008F7DF9CF809124
:1006D00090008F77809390000895809190008F7D97
:1006E000F9CF80919000877FF5CF8091A0008F7720
:1006F0008093A00008958091A0008F7DF9CF809114
:10070000A000877FF5CF809120018F778093200113
:100710000895809120018F7DF9CF80912001877FFE
:10072000F5CFCF93DF93282F30E0F901EA58FD4F42
:100730008491F901E05DFD4FD491F901E651FE4F3E
:10074000C491CC23A1F081110E942A03EC2FF0E088
:10075000EE0FFF1FE053FE4FA591B491EC91ED23F6
:1007600081E090E009F480E0DF91CF91089580E08E
:1007700090E0FACF862F0C9491031F93CF93DF93D1
:10078000282F30E0F901EA58FD4F8491F901E05D2E
:10079000FD4FD491F901E651FE4FC491CC23A9F04D
:1007A000162F81110E942A03EC2FF0E0EE0FFF1F9D
:1007B000EA54FE4FA591B4918FB7F894EC911111C2
:1007C00008C0D095DE23DC938FBFDF91CF911F91BE
:1007D0000895DE2BF8CF862F642F0C94BD03CF93A2
:1007E000DF9390E0FC01E05DFD4F249186519E4F28
:1007F000FC0184918823C9F090E0880F991FFC01C7
:10080000E456FE4FA591B491FC01EA54FE4FC59108
:10081000D49161110DC09FB7F8948C9120958223DB
:100820008C938881282328839FBFDF91CF910895DF
:10083000623051F49FB7F8943C91822F80958323C6
:100840008C93E8812E2BEFCF8FB7F894EC912E2B61
:100850002C938FBFEACF862F642F0C94EF033FB702
:10086000F8948091F7069091F806A091F906B0915E
:10087000FA0626B5A89B05C02F3F19F00196A11DC9
:10088000B11D3FBFBA2FA92F982F8827BC01CD01DA
:10089000620F711D811D911D42E0660F771F881F39
:1008A000991F4A95D1F708958F929F92AF92BF9268
:1008B000CF92DF92EF92FF926B017C010E942F0496
:1008C0004B015C01C114D104E104F104B9F00E94B0
:1008D0002F04681979098A099B09683E73408105CC
:1008E000910580F321E0C21AD108E108F10888EEF1
:1008F000880E83E0981EA11CB11CE4CFFF90EF90FE
:10090000DF90CF90BF90AF909F908F9008952FB7BA
:10091000F8946091F3067091F4068091F506909139
:10092000F6062FBF08950F931F938091360990917B
:100930003709DC01ED91FC910084F185E02D1995DA
:10094000892B09F4D5C060E070E0CB010E9454040B
:10095000209154098091360990913709DC01ED917D
:10096000FC910284F385E02D21110BC01995809331
:1009700040098E37D1F6809154098F5F80935409D6
:10098000D4CF199590915409E92FF0E0EA5CF64F25
:1009900082879230B9F09930D9F09130A9F48F3F25
:1009A00099F01092540981E08093560910925909E8
:1009B0001092580980935A0910925B0980E01F91A8
:1009C0000F910895863069F79F5F90935409ADCFDA
:1009D0008F3E39F78091420990914109890F9927FB
:1009E000991FE09143099C012E0F311D809144090C
:1009F000820F932F911D4091450950E0840F951F60
:100A00002091460930E06091470970E0762F662713
:100A1000F09148096F0F711D820F931F9195819579
:100A200091096817790709F0BCCF10925409E13495
:100A300019F410925B093DC0E0935709542F4427E5
:100A4000240F351F3093590920935809EA53E63192
:100A500008F044C0F0E08827EF5CFA4F8F4F0C9409
:100A6000B91C5C0563056C0547056C054E056A05F8
:100A70006E056C056C056C056C056C056C056C05EC
:100A80006C056E056C056C056C056C056C0585E0E8
:100A90008093560981E080935A090BC089E020FDBC
:100AA000F7CF84E021FDF4CF237033278AE0232B96
:100AB00079F780915A0983CF87E020FDE9CF82E062
:100AC00021FDE6CFF6CF88E020FDE2CF83E021FDD7
:100AD000DFCFEFCF86E0DCCF8BE0DACF81E0809311
:100AE0005609109259091092580980935A09A1CFBA
:100AF00080915B098823E9F20E94870400913809FC
:100B00001091390920913A0930913B09601B710B12
:100B1000820B930B00913C0910913D0920913E09F5
:100B200030913F09601771078207930710F2109206
:100B3000540910925609109259091092580981E0EF
:100B400039CF80934D09272F30E070934F09609380
:100B5000500940914C0990914B09490F5527551F59
:100B6000840F952F911D40914E09840F911D820F86
:100B7000931F680F792F711D71956195710970939D
:100B8000510960935209442361F080915B098823E5
:100B900041F060E070E0CB010E9454040E94930495
:100BA000F4CF8091360990913709DC01ED91FC91E9
:100BB0000280F381E02D4AE050E06AE479E0199583
:100BC0000E948704609338097093390980933A0929
:100BD00090933B0980914E0991E0811101C090E012
:100BE00090935B09811106C06AE070E080E090E0BC
:100BF0000C9454040895BC0183E00C94A1050F9358
:100C00001F93CF93DF93C82FD62F86E0C89FF001A4
:100C10001124E953F74F11A2878D90A181309105DE
:100C2000F1F058F082309105F1F1039709F440C0DA
:100C3000DF91CF911F910F9108956623C9F361E071
:100C400070E08C2F0E94B9010E94870460931F09F5
:100C5000709320098093210990932209E9CF0E9483
:100C6000870400911F0910912009209121093091DA
:100C70002209AB01BC01401B510B620B730B80912D
:100C8000310990913209B0E0A0E084179507A607DA
:100C9000B70748F462E070E08C2FDF91CF911F918D
:100CA0000F910C94B90163E070E0D111C1CFF4CF82
:100CB00070E060E0F1CF0F931F930E948704609370
:100CC00026087093270880932808909329088EE1BE
:100CD00098E00E942C0297FF1DC00E94870400919B
:100CE0002608109127082091280830912908601BB8
:100CF000710B820B930B0091220810912308209115
:100D00002408309125086017710782079307F8F2CD
:100D10008FEF9FEF1F910F91089520917F06260F6F
:100D20003327331F21323105ECF42091C806FC0132
:100D300090E080E0243069F082E00895A0917F0681
:100D40002191AC01415A594FA40FB52FB11D2C93DD
:100D50000196861798F380917F06680F60937F064F
:100D600080E0089581E008951092C80681E08093A4
:100D7000C7061092A20661E084E10E94BD0361E013
:100D800085E10E94BD03E9EBF0E080818E7F8083E6
:100D900080818D7F808388E48093B80085E4809390
:100DA000BC000895CF93DF9391E090935E06882373
:100DB000B9F0C091B800D091BA008091BC008A7B94
:100DC0008093BC0060E084E10E94BD0360E085E1A7
:100DD0000E94BD030E94B406D093BA00C093B8002D
:100DE000DF91CF9108950895E09102078091010766
:100DF000E81730F4F0E0E25CF94F808190E008956C
:100E00008FEF9FEF089590910207809101072FEFD8
:100E10003FEF981748F4E92FF0E0E25CF94F2081AA
:100E200030E09F5F90930207C90108958091010708
:100E300090910207891B990B0895CF92DF92EF9250
:100E4000FF920F931F93CF93DF937C01CB018A0115
:100E50002091CE06222389F0EB016B01C40ED51E32
:100E6000CC15DD0569F06991D701ED91FC910190F8
:100E7000F081E02DC7011995F3CF642F0E948D06F4
:100E8000C801DF91CF911F910F91FF90EF90DF90FC
:100E9000CF900895CF93DF931F92CDB7DEB76983CC
:100EA0002091CE062223F9F02091FF06203258F03F
:100EB00021E030E0FC013383228390E080E00F905A
:100EC000DF91CF91089580910007E82FF0E0E15382
:100ED000F94F998190838F5F809300078093FF067D
:100EE00081E090E0ECCF61E0CE0101960E948D069A
:100EF000F7CFCF92DF92EF92FF920F931F93CF9392
:100F0000DF93FC01C48121E02093CE06C093EF065D
:100F1000109200071092FF068385682B8BEB98E0F8
:100F20000E944A07D091FF06D13208F092C00E9479
:100F30002F046B017C018091C806811165C082E09D
:100F40008093C80681E08093C7068FEF8093C60622
:100F50001092C506D093C406AFECB6E0E4EAF6E022
:100F600080E0D81385C01092A3068091A306CC0F11
:100F7000C82BC093A3068091A206813009F07CC0E3
:100F80001092A2060E942F046B017C018091A3069F
:100F90008093BB008091CA069091CB06A091CC06AD
:100FA000B091CD06892B8A2B8B2B99F00E942F04B0
:100FB0000091CA061091CB062091CC063091CD0647
:100FC0006C197D098E099F0906171707280739072D
:100FD000E0F18091BC0083FDD9CF85EC8093BC000B
:100FE0000E942F046B017C018091C806823009F4B5
:100FF00045C08091C6068F3F61F18091C606803260
:1010000041F18091C60625C08091CA069091CB0619
:10101000A091CC06B091CD06892B8A2B8B2B09F49D
:101020008ACF0E942F040091CA061091CB0620910E
:10103000CC063091CD066C197D098E099F090617E3
:1010400017072807390708F076CF8091C9060E9454
:10105000D206109200071092FF061092CE06DF9182
:10106000CF911F910F91FF90EF90DF90CF90089557
:101070009D9191938F5F75CF85EEB0CF8091CA0619
:101080009091CB06A091CC06B091CD06892B8A2BEE
:101090008B2B09F4A9CF0E942F040091CA0610914E
:1010A000CB062091CC063091CD066C197D098E09B6
:1010B0009F09061717072807390708F095CFC5CFEE
:1010C00090E080E008958091770790917807A09153
:1010D0007907B0917A074091030750910407609116
:1010E000050770910607841B950BA60BB70B809321
:1010F000770790937807A0937907B0937A070895BC
:101100000F931F93CF93DF93C3E2D3E08E01F801D7
:1011100080810E5F1F4F61E00E94BD03F3E00D323E
:101120001F07A9F764EF71E080E090E00E9454048B
:101130008881229660E00E94BD0383E0CD32D8070B
:10114000B9F7DF91CF911F910F9108950F931F93DE
:10115000CF938C01C62F0E9479076C2F6460C80161
:101160000E9479076C2F6B7FC8010E94790783EC7E
:1011700090E00197F1F7CF911F910F9108950F9390
:101180001F93CF93DF938C01D62FC42F607F642BE6
:101190000E94A60880E1D89FB00111246C2BC801E1
:1011A000DF91CF911F910F910C94A608CF93DF93FD
:1011B00000D000D01F921F92CDB7DEB788E0E3ECDD
:1011C000F2E0DE01119601900D928A95E1F780918F
:1011D000640981111AC08FEF90E0880F991F21E0F8
:1011E00030E02C0F3D1F820F931FFC01608160686F
:1011F00040E08CE599E028960FB6F894DEBF0FBE6C
:10120000CDBFDF91CF910C94BF0881E0E5CF40E0E6
:1012100061E08CE599E00E94BF088BE39FE10197B4
:10122000F1F7089541E00E94BF0881E090E0089541
:101230000F931F93CF93DF93FC0104811581011558
:10124000110539F4FB011082DF91CF911F910F91AD
:101250000895415051094017510708F48A01EB01E4
:10126000FC0160817181A801CE010E94EE1EC00FB9
:10127000D11F1882E9CF0C946F1CCF92DF92EF92AE
:10128000FF920F931F93CF93DF93EB017B0124E039
:10129000E20EF11C8B016C01C61AD70AC601800F41
:1012A000911F0E94671CF80181938F01EE15FF05C5
:1012B000A9F7CE01DF91CF911F910F91FF90EF9091
:1012C000DF90CF9008959F92AF92BF92CF92DF921E
:1012D000EF92FF920F931F93CF93DF935C017B01FB
:1012E0008B01D0E0C0E0F80191908F016501CC0E38
:1012F000DD1EC6010E94671C981621F0692DC601EB
:101300000E946F1C2196C430D10569F7C701DF9197
:10131000CF911F910F91FF90EF90DF90CF90BF90F2
:10132000AF909F9008950C94671CFC01808191817F
:10133000009711F00C942B1C60E070E0CB01089535
:10134000FB0101900020E9F73197AF01461B570BD5
:10135000DC01ED91FC910280F381E02D199467E6A8
:1013600073E08EE198E00C94A0098F929F92AF9267
:10137000BF92EF92FF920F931F93CF93DF93CDB75E
:10138000DEB7A1970FB6F894DEBF0FBECDBF7C01CC
:10139000FA01CB0119A2223008F42AE08E010F5D78
:1013A0001F4F822E912CB12CA12CBF01A5019401BD
:1013B0000E94971CF901CA016A300CF5605DD801E2
:1013C0006E938D01232B242B252B79F790E080E061
:1013D000109721F0BD01C7010E94A009A1960FB688
:1013E000F894DEBF0FBECDBFDF91CF911F910F915B
:1013F000FF90EF90BF90AF909F908F900895695CA1
:10140000DECFCF92DF92EF92FF92CF93DF936C010A
:10141000990FEE08FF08F7FE1BC06DE28EE198E021
:101420000E949002EC0144275527BA014C195D092E
:101430006E097F092AE08EE198E00E94B5098C0FC1
:101440009D1FDF91CF91FF90EF90DF90CF90089597
:101450002AE0B701A6018EE198E0DF91CF91FF90DD
:10146000EF90DF90CF900C94B509CF93DF93BC0140
:101470008EE198E00E94A009EC010E94AF098C0F58
:101480009D1FDF91CF9108950C94A009CF93DF9316
:10149000EC010E940709BE018CE599E00E94440A14
:1014A0000E94D60860E072E08CE599E00E94440A50
:1014B0000E9487046E5D73408109910960936E07F5
:1014C00070936F078093700790937107DF91CF91AE
:1014D0000895CF93DF93EC010E940709BE018CE5CC
:1014E00099E00E94440A0E94D60861E272E08CE50D
:1014F00099E00E94440A0E9487046E5D734081094E
:10150000910960936E0770936F07809370079093B3
:101510007107DF91CF910895FB0144815581FC0152
:10152000248135812417350778F0808191810097D7
:1015300059F0FB01608171816115710529F00E94EC
:10154000E01E21E0892B09F020E0822F08950F93FF
:101550001F93CF93DF938C01EB01FC01808191817C
:101560000097E1F06881798161157105A9F04281E8
:1015700053812C813D814217530770F00E94D91E80
:101580008C819D81F801958384831D821C82DF916B
:10159000CF911F910F9108950E945D1D88819981BF
:1015A000F801918380838A819B81938382838C81DC
:1015B0009D8195838483198218821B821A82E5CFCC
:1015C000CF93DF93EC0188819981009711F00E94FD
:1015D0005D1D198218821D821C821B821A82DF9176
:1015E000CF910895FC0180819181009711F00C94B6
:1015F0005D1D08950F931F93CF93DF93EC018881B6
:101600009981009759F02A813B812617370730F0DE
:1016100081E0DF91CF911F910F9108958B016F5F52
:101620007F4F0E94E61D009759F0998388831B83A2
:101630000A832C813D81232B59F7FC011082E8CFCE
:1016400080E0E7CFEF92FF920F931F93CF93DF934A
:10165000EC017B01198218821B821A821D821C8276
:10166000FB0101900020E9F731978F01061B170B52
:10167000B8010E94FA0A811109C0CE01DF91CF9111
:101680001F910F91FF90EF900C94E00A1D830C8343
:10169000B70188819981DF91CF911F910F91FF90C0
:1016A000EF900C94D91E9F92AF92BF92CF92DF928F
:1016B000EF92FF920F931F93CF93DF937C016B0107
:1016C0005A0189012417350720F48B2D5901042F65
:1016D000182F69E673E0C7010E94220BD601149609
:1016E000CD91DC91AC16BD0650F50C171D0708F422
:1016F000E801D601ED91FC911197EC0FFD1F908050
:1017000010820D911C910A0D1B1D0115110571F020
:10171000F80101900020E9F731975F01A01AB10AA2
:10172000B501C7010E94FA0A811116C0C7010E94C3
:10173000E00AD6018D919C91C80FD91F9882C701EC
:10174000DF91CF911F910F91FF90EF90DF90CF909D
:10175000BF90AF909F900895F701B582A482B80121
:10176000808191810E94D91EE4CFCF93DF93EC0159
:10177000FB01248135810E94530BCE01DF91CF9173
:10178000089585ED8093BC008091CA069091CB06A8
:10179000A091CC06B091CD060796A11DB11D23E006
:1017A000B695A795979587952A95D1F72091BC0076
:1017B00024FD03C01092C80608954091CA065091B6
:1017C000CB066091CC067091CD06452B462B472B5E
:1017D00069F30097A105B10541F02AE22A95F1F7D6
:1017E00000C00197A109B109E1CF8091C9060C940D
:1017F000D2061F920F920FB60F9211240BB60F92C2
:101800002F933F934F935F936F937F938F939F9308
:10181000AF93BF93EF93FF9381E897E00E946E022E
:10182000FF91EF91BF91AF919F918F917F916F91B8
:101830005F914F913F912F910F900BBE0F900FBE74
:101840000F901F9018951F920F920FB60F921124B0
:101850000BB60F922F938F939F93EF93FF93E0918B
:101860009107F09192078081E0919707F091980796
:1018700082FD1DC0908180919A078F5F8F732091A8
:101880009B07821741F0E0919A07F0E0EF57F84F7D
:10189000958F80939A07FF91EF919F918F912F9150
:1018A0000F900BBE0F900FBE0F901F901895808168
:1018B000F2CF1F920F920FB60F9211240BB60F9218
:1018C0002F933F934F935F936F937F938F939F9348
:1018D000AF93BF93EF93FF938EE198E00E946E0267
:1018E000FF91EF91BF91AF919F918F917F916F91F8
:1018F0005F914F913F912F910F900BBE0F900FBEB4
:101900000F901F9018951F920F920FB60F921124EF
:101910000BB60F922F938F939F93EF93FF93E091CA
:101920002E08F0912F088081E0913408F09135085D
:1019300082FD1DC09081809137088F5F8F73209149
:101940003808821741F0E0913708F0E0E25EF74F87
:10195000958F80933708FF91EF919F918F912F91F1
:101960000F900BBE0F900FBE0F901F9018958081A7
:10197000F2CF1F920F920FB60F9211242F933F9325
:101980008F939F93AF93BF938091F3069091F4064A
:10199000A091F506B091F6063091F20623E0230FF0
:1019A0002D3758F50196A11DB11D2093F2068093A5
:1019B000F3069093F406A093F506B093F606809193
:1019C000F7069091F806A091F906B091FA060196F3
:1019D000A11DB11D8093F7069093F806A093F90618
:1019E000B093FA06BF91AF919F918F913F912F9144
:1019F0000F900FBE0F901F90189526E8230F0296A8
:101A0000A11DB11DD2CF1F920F920FB60F921124BC
:101A10000F900FBE0F901F9018951F920F920FB648
:101A20000F9211240BB60F922F933F934F935F9316
:101A30006F937F938F939F93AF93BF93EF93FF9396
:101A40008091B900887F803609F44DC008F040C00D
:101A5000883209F4A9C028F5803109F49DC0C8F482
:101A6000882309F4FBC0883009F496C0FF91EF91F8
:101A7000BF91AF919F918F917F916F915F914F91A6
:101A80003F912F910F900BBE0F900FBE0F901F90A4
:101A90001895883109F488C0803241F78093C606D2
:101AA00014C0803409F49DC040F48033B9F3883306
:101AB000E9F68093C60685ECB0C0803509F485C090
:101AC000883509F496C0883489F60E94C10BCECFC0
:101AD000883909F48CC038F5883729F050F48836F5
:101AE00011F0803719F683E08093C8061092A106A2
:101AF00057C0883809F47BC0803919F0803809F064
:101B0000B5CF8091A106803208F071C0E091A106A6
:101B100081E08E0F8093A1068091BB00F0E0EF572B
:101B2000F94F80833DC0803B39F0E0F4803A09F4FE
:101B300079C0883A09F09ACF84E08093C806109261
:101B4000800610927F06E091FB06F091FC06199545
:101B500080917F0681110FC081E080937F061092F3
:101B60005F0609C0803C09F4A6CF883C09F4A3CFE6
:101B7000883B09F07BCFE091800681E08E0F809357
:101B80008006F0E0E15AF94F80818093BB0090918C
:101B9000800680917F0629C08091A3068093BB00B8
:101BA00085EC8093BC0062CF9091C5068091C406FD
:101BB000981758F5E091C50681E08E0F8093C50611
:101BC000F0E0EC55F94F8081E9CFE091C50681E066
:101BD0008E0F8093C5068091BB00F0E0EC55F94F65
:101BE00080839091C5068091C4069817C8F285E855
:101BF000D8CFE091C50681E08E0F8093C506809115
:101C0000BB00F0E0EC55F94F80838091C70681114D
:101C10005CCF81E08093A20684EA8093BC0010929E
:101C2000C80624CF85EC8093BC001092C806809132
:101C3000A106803230F4E091A106F0E0EF57F94FB1
:101C400010826091A10670E0E091FD06F091FE0621
:101C500081E896E019951092A10608CF1092C60669
:101C600034CF109284071092830788EE93E0A0E0AF
:101C7000B0E08093850790938607A0938707B09381
:101C8000880721E333E030938207209381074DECEE
:101C900050E050938E0740938D074CEC50E05093EA
:101CA000900740938F0748EC50E050939207409381
:101CB000910749EC50E050939407409393074AEC06
:101CC00050E050939607409395074EEC50E05093A8
:101CD00098074093970710929A0710929B071092CB
:101CE0009C0710929D071092210810922008809363
:101CF000220890932308A0932408B09325083093DA
:101D00001F0820931E0825EC30E030932B08209309
:101D10002A0824EC30E030932D0820932C0820EC86
:101D200030E030932F0820932E0821EC30E03093E0
:101D300031082093300822EC30E0309333082093B0
:101D4000320826EC30E030933508209334081092A6
:101D50003708109238081092390810923A081092F9
:101D6000BE081092BD088093BF089093C008A0934E
:101D7000C108B093C20883E493E09093BC088093B9
:101D8000BB0810925F0910925E098FE593E0909373
:101D90005D0980935C0987E28093600980E180930C
:101DA000650982E0809366091092670944EF51E06B
:101DB00060E070E040933C0950933D0960933E0918
:101DC00070933F099AE0EBECF2E0AAE4B9E00190ED
:101DD0000D929A95E1F7109254098093550910924B
:101DE0005A0910925B091092C9081092CD081092FE
:101DF000CC081092CE0885E593E09093C8088093B4
:101E0000C708E3EEF8E0108214821382158236963A
:101E100089E0EF31F807B9F789EA92E090932A094F
:101E20008093290985EA92E090932C0980932B09ED
:101E300084E080932D0980932E098DEA92E090939F
:101E40002809809327098AE090E0909330098093D5
:101E50002F0984EF91E09093320980933109109219
:101E60003509109234091092230910922409109216
:101E7000250910922609109233090895CF93DF9314
:101E8000CDB7DEB7C651D1400FB6F894DEBF0FBE56
:101E9000CDBF789484B5826084BD84B5816084BDF3
:101EA00085B5826085BD85B5816085BD80916E00F8
:101EB000816080936E001092810080918100826029
:101EC0008093810080918100816080938100809166
:101ED00080008160809380008091B1008460809355
:101EE000B1008091B00081608093B000809191003A
:101EF0008260809391008091910081608093910035
:101F0000809190008160809390008091A100826018
:101F10008093A1008091A10081608093A1008091B5
:101F2000A00081608093A000809121018260809355
:101F30002101809121018160809321018091200104
:101F400081608093200180917A00846080937A0080
:101F500080917A00826080937A0080917A0081601B
:101F600080937A0080917A00806880937A00109242
:101F7000C1008EE198E00E94920181E897E00E9402
:101F8000920110920207109201071092000710921E
:101F9000FF060E94B4068CED91E09093FC068093BE
:101FA000FB068DED91E09093FE068093FD060E9466
:101FB000B4061092610980916609823018F098E0A9
:101FC000909361098093640962E370E080E090E09F
:101FD0000E945404609167098CE599E00E9479079A
:101FE00068EE73E080E090E00E94540460E38CE5CA
:101FF00099E00E94A6080BE416E4C8010197F1F7E6
:1020000060E38CE599E00E94A608C8010197F1F70A
:1020100060E38CE599E00E94A60883E592E00197D1
:10202000F1F760E28CE599E00E94A60860916109F1
:10203000606240E08CE599E00E94BF0884E08093F4
:10204000620940E06CE08CE599E00E94BF080E94C4
:10205000070982E08093630940E066E08CE599E03F
:102060000E94BF0840E062E08CE599E00E94BF0852
:102070008BE39FE10197F1F788E08093670960E0C7
:102080008CE599E00E9479070E9407096AE673E0EF
:102090008CE599E00E94440A0E94D6086AE773E042
:1020A0008CE599E00E94440A81E897E09093370913
:1020B0008093360981E080934E0970E060E08CE007
:1020C0000E94A1050E9487046B017C010E94930479
:1020D000811111C00E9487046C197D098E099F0926
:1020E000613D77408105910530F460E070E0CB01FF
:1020F0000E945404EBCF68EC70E080E090E00E9416
:10210000540410925A0980915609843051F0893054
:1021100041F00E94070966E873E08CE599E00E94AF
:10212000440A69E170E086E00E94A10513E2C12E35
:1021300013E0D12E03E213E089E1282E83E0382E4C
:10214000D101FC90B2E02B0E311C61E08F2D0E947A
:10215000EF0360E08F2D0E94BD03F801F0800E5F59
:102160001F4F61E08F2D0E94EF0360E08F2D0E94D2
:10217000BD03C214D30421F762E087E20E94EF039B
:1021800001EE12E025ED32E0CB5EDE4F398328838D
:10219000C551D140CB5EDE4FA881B981C551D14038
:1021A0008C911296CB5EDE4FB983A883C551D14086
:1021B00062E00E94EF03CB5EDE4FE881F981C551FA
:1021C000D1400E171F0731F7BDEEEB2EB2E0FB2E0C
:1021D00001EE12E0D8018C910E5F1F4F62E00E9469
:1021E000EF03E016F106B1F709EF12E0F801808184
:1021F0000E5F1F4F62E00E94EF03F3E009311F07FB
:10220000A9F767E777E090E080E00E943D0963E08E
:1022100077E084E090E00E943D0907E017E088E065
:1022200090E07C012FEFE21AF20A0E94930990E0FD
:10223000D8018D939D938D01C7018E30910589F74B
:10224000A3E1CA2EA7E0DA2E87010F5F1F4FC70157
:102250000E94930990E0F601819391936F017801B8
:102260000431110589F7FFE1EF2EF7E0FF2EC801D9
:102270000E94671CD7018C93C80101960E94671CBD
:10228000F7018183F2E0EF0EF11C0E5F1F4F003269
:10229000110569F7EBE2EE2EE7E0FE2E00E210E01A
:1022A00068012FEFC21AD20AC8010E94930990E078
:1022B000D7018D939C930E5F1F4FC6010E94930917
:1022C00090E0F70193838283F4E0EF0EF11C00337A
:1022D000110531F77DE4E72E77E0F72E68012FEF47
:1022E000C21AD20AC8010E949309D7018D937D01B9
:1022F00086010A33110591F702E412E07601BFEF7F
:10230000EB1AFB0AC6010E949309F80181938F0121
:102310006701FBE5EF16F10489F761E2C62E62E082
:10232000D62E87010F5F1F4FC7010E949309D60168
:102330008D936D0178010C37110599F750E0C52E8A
:1023400052E0D52E7801EFEFEE1AFE0AC8010E9486
:102350009309D6018D936D0187010D39110591F710
:1023600043E6C42E42E0D42E87010F5F1F4FC70102
:102370000E949309F60181936F0178010E3B1105CC
:1023800099F734E8E32E32E0F32E68012FEFC21AFA
:10239000D20AC8010E949309D7018D937D0186015D
:1023A0000F3D110591F7FE0131963F018EE198E056
:1023B0000E944E02181619060CF008C169E673E077
:1023C000CE01835F9E4F0E94220B0E945B0697FD09
:1023D0002DC08A30910551F189831A82CF5EDE4F7C
:1023E00008811981C151D1400F5F1F4FB801CE0143
:1023F000835F9E4F0E94FA0A882339F3C35FDE4F42
:1024000028813981CD50D140CF5EDE4F88819981BE
:10241000C151D140B301820F931F0E94D91ECF5EDC
:10242000DE4F19830883C151D140CFCF64EF71E0F3
:1024300080E090E00E94540461E973E0C3010E94CF
:10244000220BB301CE01835F9E4F0E948C0A182F8E
:10245000C3010E94F20A112309F423C544E050E0AD
:10246000BE01635F7E4FC3010E94B50BB301CE0175
:10247000835F9E4F0E94A70AC3010E94F20A66E48E
:1024800074E0C3010E94220BB301CE01835F9E4F13
:102490000E948C0A182FC3010E94F20A112309F12D
:1024A0004AE050E0BE01635F7E4FC3010E94B50B5E
:1024B000C3010E9495099B01AC01A8EEB3E00E9404
:1024C0007D1C6093770770937807809379079093CA
:1024D0007A07C3010E94F20A86E993E00E94350A56
:1024E00070C068E574E0C3010E94220BB301CE0105
:1024F000835F9E4F0E948C0A182FC3010E94F20A2C
:102500001123F9F048E050E0BE01635F7E4FC30144
:102510000E94B50BC3010E9495099B01AC01A8EE76
:10252000B3E00E947D1C60930307709304078093BF
:10253000050790930607C3010E94F20A83EA93E01D
:10254000CDCF68E674E0C3010E94220BB301CE0137
:10255000835F9E4F0E948C0A182FC3010E94F20ACB
:10256000112309F45FC149E050E0BE01635F7E4F73
:10257000C3010E94B50B0D811E81F12CE12CE016E8
:10258000F10688F4B701C3010E94DE01F701EE0FE6
:10259000FF1FE95FF84F21E030E0813311F030E0B8
:1025A00020E031832083FFEFEF1AFF0A26E0E216D6
:1025B000F10429F78EEA93E00E94350AC3010E94D4
:1025C000F20ACE01835F9E4F0E94F20A809180073B
:1025D00081114EC080917F078111F0C687E20E9471
:1025E0009103892B09F0EAC681E0809380070E945D
:1025F000870460937B0770937C0780937D0790939B
:102600007E0710924C0710924B071092760710929B
:1026100075071092740710927307109272070E9448
:10262000070962E472E08CE599E00E94440A0E9486
:10263000D6086AE773E08CE599E00E94440A81E0DD
:1026400090E00E94FB0568E873E180E090E00E9462
:1026500054040E94870460936E0770936F07809301
:1026600070079093710780918007882309F4A6C6AC
:10267000F0917F07CD5EDE4FF883C351D140F11159
:102680009DC60E94870400916E0710916F072091EC
:10269000700730917107601B710B820B930B683EC2
:1026A00073408105910508F44AC0C0907B07D09023
:1026B0007C07E0907D07F0907E070E94870460937E
:1026C0006E0770936F0780937007909371070E9455
:1026D00087044B015C018C189D08AE08BF08C090B0
:1026E0007707D0907807E0907907F0907A078C14FC
:1026F0009D04AE04BF0418F50E94070967E175E068
:102700008CE599E00E94440A0E94D608C701B601F0
:10271000681979098A099B0928EE33E040E050E006
:102720000E94971CBA01A9012AE08CE599E00E9459
:10273000B50967E275E08CE599E00E94440A0E94C1
:10274000870400917B0710917C0720917D073091D1
:102750007E07601B710B820B930B00917707109122
:1027600078072091790730917A07601771078207FF
:10277000930738F181E080937F070E94070964E89E
:1027800072E08CE599E00E94440A0E94D60860E35A
:1027900075E08CE599E00E94440A83E090E00E9495
:1027A000FB05EDE2EE2EE3E0FE2E03E213E0D8019E
:1027B0008C910E5F1F4F61E00E94BD03E016F10691
:1027C000B1F781E0809333090E94870400912309C7
:1027D000109124092091250930912609AB01BC01F3
:1027E000401B510B620B730B80912F0990913009A4
:1027F000B0E0A0E084179507A607B70708F0E2C588
:1028000010E080912D09181708F08FC4E091290974
:10281000F0912A09E10FF11D62E080810E94EF032F
:102820001F5FEFCF69E774E0C3010E94220BB30181
:10283000CE01835F9E4F0E948C0A182FC3010E9415
:10284000F20A112341F148E050E0BE01635F7E4F80
:10285000C3010E94B50B0D811E81F12CE12CE01605
:10286000F10678F4B701C3010E94DE01F701EE0F13
:10287000FF1FED5EF84F082E000C990BC097918357
:1028800080833FEFE31AF30A86E0E816F10439F794
:102890008AEB93E091CE69E874E0C3010E94220BB9
:1028A000B301CE01835F9E4F0E948C0A182FC30193
:1028B0000E94F20A112309F47BC045E050E0BE01FA
:1028C000635F7E4FCE01895F9E4F0E94B50B10E083
:1028D00000E0912C812CF12CE12CC55FDE4FC880EB
:1028E000D980CB50D1400C151D0508F059C0B80156
:1028F000CE01895F9E4F0E94DE01D80111965D01D5
:102900008C3231F0B1E0CB1AD1080C151D05E1F580
:1029100069E673E0CE018F5F9E4F0E94220BC55F78
:10292000DE4F88819981CB50D14001970817190754
:1029300069F5492D582DBE01695F7E4FC3010E9484
:10294000B50BB301CE018F5F9E4F0E94A70AC30152
:102950000E94F20AE6E0EE16F10464F4CE018F5F05
:102960009E4F0E949509F701EE0FFF1FE15EF84FA1
:10297000718360839A2C8B2CFFEFEF1AFF0ACE0134
:102980008F5F9E4F0E94F20A8501A7CF9801492DC3
:10299000582DBE01695F7E4FC3010E94530BD1CFFA
:1029A00085EC93E00E94350ACE01895F9E4F07CEE9
:1029B00068E974E0C3010E94220BB301CE01835F7A
:1029C0009E4F0E948C0A182FC3010E94F20A112305
:1029D00009F487C046E050E0BE01635F7E4FCE0140
:1029E000895F9E4F0E94B50B10E000E0D12CC12CF6
:1029F000512C412CF12CE12CC55FDE4FA880B98011
:102A0000CB50D1400A151B0508F068C0B801CE01B3
:102A1000895F9E4F0E94DE0198012F5F3F4F490161
:102A20008C3239F031E0A31AB1080A151B0509F000
:102A300045C069E673E0CE018F5F9E4F0E94220B76
:102A4000C55FDE4F88819981CB50D140019708172F
:102A50001907B1F5452D542DBE01695F7E4FC301A5
:102A60000E94B50BB301CE018F5F9E4F0E94A70A53
:102A7000C3010E94F20AB8E0EB16F104C4F4CE01DF
:102A80008F5F9E4F0E949509F701EE0FFF1FEC0D1F
:102A9000FD1DEE0FFF1FE55DF84F71836083CA9443
:102AA000CD28C1F49FEFE91AF90AD12CC12C582C7A
:102AB000492CCE018F5F9E4F0E94F20A84019CCF69
:102AC0009801452D542DBE01695F7E4FC3010E94C0
:102AD000530BC8CFCC24C394D12CE9CF8DEC93E019
:102AE00061CF66EA74E0C3010E94220BB301CE01FC
:102AF000835F9E4F0E948C0A182FC3010E94F20A26
:102B0000112391F048E050E0BE01635F7E4FC301A6
:102B10000E94B50B4AE050E06DE477E0C3010E94EB
:102B2000180986ED93E048CDCF5EDE4F888199810C
:102B3000C151D140892B09F4E1C064EE73E0C35F59
:102B4000DE4F88819981CD50D1400E94D01E892BC3
:102B500009F0D4C067E777E090E080E00E94630965
:102B600063E077E084E090E00E94630907E017E00B
:102B700088E090E0D8016C910E5F1F4F7C01BFEFA1
:102B8000EB1AFB0A0E943B09C7018E30910591F7B1
:102B9000E3E1CE2EE7E0DE2EF6016081F2E0CF0E1B
:102BA000D11C87010F5F1F4FC7010E943B097801AD
:102BB0000431110589F7C801855F984F7C016801D0
:102BC00092E0C90ED11CD701BD907D01C8010E94C1
:102BD000671CB81621F06B2DC8010E946F1C0F5F97
:102BE0001F4FC016D10679F70032110521F77BE29D
:102BF000E72E77E0F72E6801BFEFCB1ADB0AF7016B
:102C00006081C8010E943B090E5F1F4FD7011296D9
:102C10006C91C6010E943B09B4E0EB0EF11C00333D
:102C2000110549F76DE4E62E67E0F62EF701619194
:102C30007F016801FFEFCF1ADF0AC8010E943B093C
:102C400086010A33110591F702E412E0D8016D9173
:102C50008D017601BFEFEB1AFB0AC6010E943B090A
:102C60006701EBE5EE16F10489F751E2C52E52E05B
:102C7000D52ED6016D916D0187010F5F1F4FC701E2
:102C80000E943B0978010C37110599F740E0C42EEA
:102C900042E0D42EF60161916F017801FFEFEF1A47
:102CA000FF0AC8010E943B0987010D39110591F700
:102CB00033E6C32E32E0D32ED6016D916D0187012C
:102CC0000F5F1F4FC7010E943B0978010E3B1105A2
:102CD00099F724E8E22E22E0F22EF70161917F01BC
:102CE0006801FFEFCF1ADF0AC8010E943B09860185
:102CF0000F3D110591F781EE93E0F0CB69EE73E0A3
:102D0000C3010E94220BB301CE01835F9E4F0E943C
:102D10008C0A182FC3010E94F20A112309F451CC26
:102D200044E050E0BE01635F7E4FC3010E94B50BDB
:102D3000B301CE01835F9E4F0E94A70AC3010E9488
:102D4000F20A6AEB74E0C3010E94220BB301CE01C8
:102D5000835F9E4F0E948C0A182FC3010E94F20AC3
:102D6000112391F046E050E0BE01635F7E4FC30146
:102D70000E94B50B41E250E062E472E0C3010E94A0
:102D800018098EEE93E018CC6CEC74E0C3010E943D
:102D9000220BB301CE01835F9E4F0E948C0A182F35
:102DA000C3010E94F20A112391F048E050E0BE01F5
:102DB000635F7E4FC3010E94B50B41E250E061E2C8
:102DC00072E0C3010E9418098BEF93E0F5CB60EE2F
:102DD00074E0C3010E94220BB301CE01835F9E4FBA
:102DE0000E948C0A182FC3010E94F20A112391F04D
:102DF00046E050E0BE01635F7E4FC3010E94B50B09
:102E000041E250E060E072E0C3010E9418098AE0EC
:102E100094E0D2CB62EF74E0C3010E94220BB301B5
:102E2000CE01835F9E4F0E948C0A182FC3010E941F
:102E3000F20A112391F048E050E0BE01635F7E4F3B
:102E4000C3010E94B50B41E250E063E672E0C301AA
:102E50000E94180987E194E0AFCB66E075E0C301FA
:102E60000E94220BB301CE01835F9E4F0E948C0A09
:102E7000182FC3010E94F20A112309F4A2CB47E0E4
:102E800050E0BE01635F7E4FC3010E94B50B41E27B
:102E900050E064E872E0C3010E94180986E294E001
:102EA0008BCBCF5EDE4F88819981C151D140892B78
:102EB00009F487CBC35FDE4FE880F980CD50D14065
:102EC00064E374E0C7010E94D01E8C01892B09F0D5
:102ED000F5C06FE374E08EE198E00E94440A6091CF
:102EE0007707709178078091790790917A0728EE9B
:102EF00033E040E050E00E94971CBA01A9012AE0AB
:102F00008EE198E00E94B5090E94AF0961E574E086
:102F10008EE198E00E94440A6091030770910407D3
:102F2000809105079091060728EE33E040E050E0DD
:102F30000E94971CBA01A9012AE08EE198E00E9444
:102F4000B5090E94AF0961E674E08EE198E00E9445
:102F5000440A97E0E92E97E0F92ED7018D919D91D3
:102F60007D010E94010AB3E1EB16B7E0FB06A9F769
:102F70000E94AF0962E774E08EE198E00E94440A83
:102F800083E1E82E87E0F82EF701819191917F018E
:102F90000E94010AFFE1EF16F7E0FF06A9F70E9481
:102FA000AF0962E874E08EE198E00E94440ABFE154
:102FB000CB2EB7E0DB2EF12CE12CD6018D919D912B
:102FC0006D010E94010AB5E0EB16F10431F06FE8E3
:102FD00074E08EE198E00E94440AEFEFEE1AFE0AD8
:102FE000F6E0EF16F10449F70E94AF0961E974E0D9
:102FF0008EE198E00E94440AABE2EA2EA7E0FA2EA6
:10300000D7018D919C910E94010A6FE874E08EE1D6
:1030100098E00E94440AF701828193810E94010A8C
:103020000730110531F06FE874E08EE198E00E94FE
:10303000440A0F5F1F4FF4E0EF0EF11C083011053A
:10304000F9F60E94AF096FE974E08EE198E00E9402
:10305000440A8DE497E00E94350A6FEA74E08EE13D
:1030600098E00E94440A82E492E00E94350A61ECF2
:1030700074E08EE198E00E94440A81E292E00E94AE
:10308000350A65ED74E08EE198E00E94440A80E024
:1030900092E00E94350A67EE74E08EE198E00E94AB
:1030A000440A83E692E00E94350A6BEF74E08EE1F9
:1030B00098E00E94440A84E892E010CA61E175E059
:1030C000C7010E94D01E892B09F07BCA109280078D
:1030D00010927F0703E213E0F9E1EF2EF3E0FF2EF9
:1030E000D7018C91B2E0EB0EF11C60E00E94BD03B1
:1030F000F80180810E5F1F4F60E00E94BD03E21463
:10310000F30471F70E9407096AE673E08CE599E021
:103110000E94440A0E94D6086AE773E08CE599E0B1
:103120000E94440A8EE095E0D9C9912C80912E0925
:10313000981608F063C0E92CF12CE0912B09F0916E
:103140002C09EE0DFF1D61E080810E94EF03E091EC
:103150002B09F0912C09EE0DFF1D60E080810E948B
:10316000BD0381E090E0A0E0B0E0092C04C0880F2E
:10317000991FAA1FBB1F0A94D2F75C016C01C0946F
:10318000D094512C80912D09581608F5052D10E08A
:10319000E0912909F0912A09E00FF11F80810E9436
:1031A00091030C5F1F4F000F111FF801E953F74FF8
:1031B000892B41F4808191818A299B299183808385
:1031C0005394E0CF808191818C219D21F7CFE091B4
:1031D0002B09F0912C09EE0DFF1D61E080810E940A
:1031E000BD0380912B0990912C09E80EF91E60E037
:1031F000F70180810E94EF03939498CF67ECE62E4D
:1032000068E0F62E8701D8015F968D919C9190978A
:10321000892B59F45C961C925C97EFEFFFEF5E965A
:10322000FC93EE935D9791961C920A5F1F4F23E0EB
:1032300039E02017310739F7D12C56E0B52E8091AF
:103240002D09D81608F052C0C12C4D2C512C440C1D
:10325000551CC2018153974F2C0120912E09C21693
:1032600008F042C0D2016D917C910C2C02C0769581
:1032700067950A94E2F7D29E900111242C0D311D1E
:10328000E7ECF8E080E0458D568D2417350709F40A
:10329000DAC28F5F36968A30B1F760FF23C0E7EC61
:1032A000F8E090E080E0448D411117C0E0912709DB
:1032B000F0912809E20FF31F4081B89EF001B99EFA
:1032C000F00D1124E953F74F448F368F258F10A24C
:1032D000178E61E00E94FF0505C0019636968A3080
:1032E000910509F7C394B9CFD394A9CFF70181A170
:1032F000882329F0CD5EDE4F8883C351D140F6E0AC
:10330000EF0EF11C0E151F0589F70E9487046093CC
:103310002309709324098093250990932609CD5E93
:10332000DE4F2881C351D140222309F44BC0809144
:10333000E808882309F446C08091E6089091E708E0
:10334000019709F03FC04091E30841113EC08091D0
:103350007607882399F180917507882379F1809108
:103360007407882359F180917307882339F180917C
:103370007207882319F181E080937F070E94070973
:1033800063E672E08CE599E00E94440A0E94D60848
:103390006CEB75E08CE599E00E94440A82E090E0D5
:1033A0000E94FB0509E113E0D8018C910E5F1F4FCD
:1033B00061E00E94BD0320163106B1F70E94FD02B4
:1033C0000C94D61110923309C2CF80916D074A3206
:1033D00009F0FEC181111AC081E080936D0710923F
:1033E0006C0710926B07109257070E9407096BE356
:1033F00075E08CE599E00E94440A0E94D6086CE4CE
:1034000075E08CE599E00E94440AA1CF809176078F
:1034100010926D07811133C007E017E035EDE32E00
:1034200032E0F32ED7018C91B2E0EB0EF11C0E943A
:103430009103F801419151918F0121E030E0892BF6
:1034400011F030E020E04217530709F0FEC1CB5ED7
:10345000DE4F28813981C551D1402E153F0511F726
:1034600081E08093760780914B0790914C070196FD
:1034700090934C0780934B078CED95E063C180914E
:103480007507811138C093E1C92E97E0D92E21EE3E
:10349000E22E22E0F22E10E000E0D7018C91B2E0A3
:1034A000EB0EF11C0E949103AC01F6018191919108
:1034B0006F010F5F1F4F21E08017910709F020E097
:1034C00091E0452B09F090E0291719F082E096E091
:1034D00014C10630110509F781E0809375078091CA
:1034E0004B0790914C07019690934C0780934B07A4
:1034F0008EEE95E027C140907407411042C0EDEE7A
:10350000F2E029EF32E0AFE1B7E080813296863316
:1035100008F0865340917B00982F9870477F942B3A
:1035200090937B008770806480937C0080917A0008
:10353000806480937A0080917A0086FDFCCF809130
:103540007800909179004D915D91841B950B97FFC8
:1035500003C0919581959109C3970CF079C12E17FD
:103560003F0799F681E08093740780914B07909113
:103570004C07019690934C0780934B0784E196E0AB
:10358000E1C0809173078111FAC080E091E0D3011E
:10359000FC011D923197E9F75301630129EF32E0F5
:1035A000CD5EDE4F39832883C351D140F12CE12C0D
:1035B000CD5EDE4FA881B981C351D1405C90129697
:1035C000CD5EDE4FB983A883C351D14061E0852D24
:1035D0000E94EF0360E0852D0E94BD0389EF882ED5
:1035E00082E0982E10E000E0E016F10659F0F401B8
:1035F00080810E949103892B29F4F601E00FF11FCD
:1036000021E020830F5F1F4F32E0830E911C0031B9
:10361000110551F762E0852D0E94EF038FEFE81A44
:10362000F80A90E1C90ED11CA0E1EA16F10409F0F4
:10363000BFCF0BE4E02E07E0F02EEBE2F7E02081B5
:10364000318137FD1EC08281938197FD1AC0D90157
:1036500014E0AA0FBB1F1A95E1F7A60DB71DA80F1E
:10366000B91F1C91112391F0B4E0880F991FBA95EE
:10367000E1F7860D971D280F391FD9011C911123E1
:1036800029F03496EE16FF06D1F6142DA30130E092
:1036900020E0B9016F5F7F4FCB0180319105C1F10F
:1036A000FA01E80FF91FE081E1110BC0FC01A4E071
:1036B000EE0FFF1FAA95E1F7EA0DFB1DE081EE2357
:1036C00061F0EBE2F7E0A081B181A217B30739F412
:1036D000A281B3818A179B0751F40196DECF8A1726
:1036E0009B0729F4A281B381A217B307B1F33496E3
:1036F000EE16FF0641F780E795E00E94460A0E9419
:10370000800885E090E00E94FB050E94630830C0BD
:10371000112389F3BFEFAB1ABB0A405F5F4F9B01D8
:103720006031710509F0B5CF81E080937307809116
:103730004B0790914C07019690934C0780934B0751
:103740008BE595E00E94690A80914B0790914C07A8
:10375000863091054CF4880F991FFC01E95EFC4FFF
:1037600061E080810E94BD0384E090E00E94FB053F
:1037700010926C0710926B0710925707E8CD80915A
:1037800072078111F5CF80916B0790916C07181625
:10379000190674F7895A984FFC0110826DE477E09E
:1037A00087E597E00E94D01E892B79F481E0809311
:1037B000720780914B0790914C07019690934C07AC
:1037C00080934B0788E895E0BDCF8DE995E095CFD4
:1037D000882309F4BCCD809176078111B8CD809102
:1037E00075078111B4CD809174078111B0CD80919E
:1037F00073078111ACCD809172078111A8CD8091A2
:103800006B0790916C07833191050CF0A0CD9C0162
:103810002F5F3F4F30936C0720936B07895A984F67
:10382000DC014C93295A384FF90110820E94070994
:1038300060EB75E08CE599E00E94440A0E94D6088E
:1038400067E577E0DECD617045CD8CEC95E055CF36
:1038500087E296E052CF1F93FC0199278827BC018D
:10386000E89411911032E9F3193010F01E30C8F3CA
:103870001B3251F01D3249F4689406C00E94521C5C
:10388000610F711D811D911D119110531A30B0F3FC
:103890003EF490958095709561957F4F8F4F9F4F27
:1038A0001F910895592F482F372F262F660F771F06
:1038B000881F991F660F771F881F991F620F731F3C
:1038C000841F951F660F771F881F991F0895F99908
:1038D000FECF92BD81BDF89A992780B50895262F15
:1038E000F999FECF1FBA92BD81BD20BD0FB6F894E5
:1038F000FA9AF99A0FBE019608950E94881CA59F16
:10390000900DB49F900DA49F800D911D11240895DA
:10391000A29FB001B39FC001A39F700D811D112410
:10392000911DB29F700D811D1124911D0895A1E27A
:103930001A2EAA1BBB1BFD010DC0AA1FBB1FEE1F29
:10394000FF1FA217B307E407F50720F0A21BB30B74
:10395000E40BF50B661F771F881F991F1A9469F7F0
:1039600060957095809590959B01AC01BD01CF014C
:103970000895EE0FFF1F881F8BBF0790F691E02D73
:1039800019940F931F93CF93DF938230910510F416
:1039900082E090E0E0916A09F0916B0930E020E06C
:1039A000B0E0A0E0309799F42115310509F44AC040
:1039B000281B390B24303105D8F58A819B8161158C
:1039C000710589F1FB0193838283FE0111C040815F
:1039D00051810281138148175907E0F048175907B0
:1039E00099F4109761F012960C93129713961C930A
:1039F0003296CF01DF91CF911F910F9108950093DF
:103A00006A0910936B09F4CF2115310551F0421763
:103A1000530738F0A901DB019A01BD01DF01F8016C
:103A2000C1CFEF01F9CF90936B0980936A09CDCF95
:103A3000FE01E20FF31F81939193225031093983E4
:103A40002883D7CF2091680930916909232B41F44D
:103A50002091BF023091C002309369092093680918
:103A60002091BD023091BE022115310541F42DB7E0
:103A70003EB74091C1025091C202241B350BE09128
:103A80006809F0916909E217F307A0F42E1B3F0BB8
:103A90002817390778F0AC014E5F5F4F24173507C0
:103AA00048F04E0F5F1F5093690940936809819356
:103AB00091939FCFF0E0E0E09CCFCF93DF9300970E
:103AC000E9F0FC01329713821282A0916A09B09149
:103AD0006B09ED0130E020E01097A1F420813181E5
:103AE000820F931F209168093091690928173907BF
:103AF00009F061C0F0936909E0936809DF91CF9103
:103B00000895EA01CE17DF07E8F54A815B819E013F
:103B100041155105B1F7E901FB83EA8349915991B8
:103B2000C40FD51FEC17FD0761F4808191810296C7
:103B3000840F951FE90199838883828193819B83F8
:103B40008A83F0E0E0E012968D919C9113970097A4
:103B5000B9F52D913C911197CD010296820F931FDB
:103B600020916809309169092817390739F630978B
:103B700051F510926B0910926A09B0936909A093EC
:103B80006809BCCFD383C28340815181840F951FC4
:103B9000C817D90761F44E5F5F4F88819981480F3C
:103BA000591F518340838A819B819383828321158E
:103BB000310509F0B0CFF0936B09E0936A099ECF0D
:103BC000FD01DC01C0CF13821282D7CF4F925F92EA
:103BD0006F927F928F929F92AF92BF92CF92DF921D
:103BE000EF92FF920F931F93CF93DF938C01009777
:103BF00099F4CB01DF91CF911F910F91FF90EF903E
:103C0000DF90CF90BF90AF909F908F907F906F90FC
:103C10005F904F900C94C11CFC01E60FF71F9C01B4
:103C200022503109E217F30708F4AEC0D901CD9153
:103C3000DC911197C617D70720F1C530D10578F070
:103C4000CE0104978617970750F0C61BD70B229713
:103C5000C193D1936D937C93CF010E945D1DC801E8
:103C6000DF91CF911F910F91FF90EF90DF90CF9058
:103C7000BF90AF909F908F907F906F905F904F908C
:103C800008955B01AC1ABD0A4C018C0E9D1EA091DB
:103C90006A09B0916B09512C412CF12CE12C109741
:103CA00031F580916809909169098815990509F0A5
:103CB0005CC04616570608F058C08091BD0290912E
:103CC000BE02009741F48DB79EB74091C10250915A
:103CD000C202841B950BE817F90708F055C0F09352
:103CE0006909E0936809F90171836083B8CF8D9108
:103CF0009C91119712966C90129713967C90139743
:103D0000A815B90559F56C0142E0C40ED11CCA14BE
:103D1000DB0420F1AC014A195B09DA011296159710
:103D200080F06282738251834083D9016D937C93CA
:103D3000E114F10471F0D7011396FC93EE931297FE
:103D40008ECF22968C0F9D1FF90191838083F30102
:103D5000EFCFF0936B09E0936A0981CF48165906BB
:103D600008F42C017D01D3019ACFCB010E94C11C24
:103D70007C01009749F0AE01B8010E94C71EC8013E
:103D80000E945D1D87016BCF10E000E068CFFB0152
:103D9000DC0102C001900D9241505040D8F70895C7
:103DA000FB01DC018D91019080190110D9F3990B71
:103DB0000895FB01DC0101900D920020E1F70895C8
:103DC000FB01DC014150504030F08D910190801991
:103DD00019F40020B9F7881B990B0895FB01DC0149
:103DE0004150504048F001900D920020C9F701C0A9
:103DF0001D9241505040E0F70895F894FFCF54725F
:103E00007920616761696E210000000000000000F8
:103E1000000000000000000000000000000000574B
:103E2000656C6C20646F6E6521000000000000006E
:103E30000000000000000000000000000000000082
:103E400047616D6520537461727465642120476F0A
:103E50006F64206C75636B2100000000000000009F
:103E600000566963746F72792120416C6C20746113
:103E7000736B7320646F6E6521000000000000000A
:103E8000000047616D65204F766572212054696D91
:103E900065277320757021000000000000000000FD
:103EA00000000008090C0D3E3F40413132334134DF
:103EB000353642373839432A30234400006C0980B4
:103EC0000000004000140054007EFF0600010000C6
:103ED0000000EF16001700180019001A001B00025E
:103EE0000003000400050006000700360037003814
:103EF0000039003A003B001E001F00200021002274
:103F00000023002400250029002A002B002C002D6E
:103F1000002E002F00300032003300340035003C0A
:103F2000001C001D0025002800310000000000904A
:103F300002F0011D02DD024E022C024002000000D0
:103F4000004A071D076008F30616070307F406007A
:103F50000000002B04EB03BA03000000001209F07C
:103F6000016008EF010D0A004B6579706164204C17
:103F700045442047616D650050726573732053544A
:103F8000415254004D5033204572726F72210053DC
:103F900045543A004F4B3A434F554E54444F574EB9
:103FA000004F4B3A50454E414C5459004F4B3A53F9
:103FB00057495443484553004F4B3A425554544F88
:103FC0004E53004F4B3A504F5453004F4B3A4A41D7
:103FD000434B53004F4B3A4B4559434F4445004FD9
:103FE0004B3A53415645004D53473A004F4B3A4DDB
:103FF00053473A5354415254004F4B3A4D53473A6A
:10400000434F5252454354004F4B3A4D53473A5752
:10401000524F4E47004F4B3A4D53473A564943543F
:104020004F5259004F4B3A4D53473A44454645414C
:1040300054004745543A434F4E46494700434F4E7C
:104040004649473A434F554E54444F574E3A004322
:104050004F4E4649473A50454E414C54593A004319
:104060004F4E4649473A53574954434845533A00FF
:10407000434F4E4649473A425554544F4E533A00E7
:10408000434F4E4649473A504F54533A002C004351
:104090004F4E4649473A4A41434B533A00434F4EED
:1040A0004649473A4B4559434F44453A00434F4EE2
:1040B0004649473A4D53473A53544152543A0043C4
:1040C0004F4E4649473A4D53473A434F5252454364
:1040D000543A00434F4E4649473A4D53473A575298
:1040E0004F4E473A00434F4E4649473A4D53473AA1
:1040F000564943544F52593A00434F4E4649473A66
:104100004D53473A4445464541543A004F4B3A5285
:10411000455345540054696D652072656D61696E43
:10412000696E673A00207365636F6E64730054694B
:104130006D652773207570210053657175656E6319
:1041400065207374617274656400456E64207769DC
:104150007468202A206B6579004A61636B20636F65
:104160006E6E656374696F6E73204F4B21004A61F8
:10417000636B20636F6E6E656374696F6E73207717
:10418000726F6E6721004B657970616420636F64A4
:104190006520636F727265637421004B657970618D
:1041A0006420636F64652077726F6E672100456ECF
:1041B00074657220636F64653A00416C6C207461B1
:1041C000736B7320646F6E65210053776974636845
:1041D00065732077726F6E67210053776974636827
:1041E000657320636F727265637421004275747425
:1041F0006F6E2073657120636F7272656374210046
:10420000427574746F6E207365712077726F6E677C
:104210002100506F74656E74696F6D65746572739B
:10422000204F4B2100506F74656E74696F6D65741B
:0C4230006572732077726F6E67210000CA
:020000040003F7
:10E000000D9489F10D94B2F10D94B2F10D94B2F129
:10E010000D94B2F10D94B2F10D94B2F10D94B2F1F0
:10E020000D94B2F10D94B2F10D94B2F10D94B2F1E0
:10E030000D94B2F10D94B2F10D94B2F10D94B2F1D0
:10E040000D94B2F10D94B2F10D94B2F10D94B2F1C0
:10E050000D94B2F10D94B2F10D94B2F10D94B2F1B0
:10E060000D94B2F10D94B2F10D94B2F10D94B2F1A0
:10E070000D94B2F10D94B2F10D94B2F10D94B2F190
:10E080000D94B2F10D94B2F10D94B2F10D94B2F180
:10E090000D94B2F10D94B2F10D94B2F10D94B2F170
:10E0A0000D94B2F10D94B2F10D94B2F10D94B2F160
:10E0B0000D94B2F10D94B2F10D94B2F10D94B2F150
:10E0C0000D94B2F10D94B2F10D94B2F10D94B2F140
:10E0D0000D94B2F10D94B2F10D94B2F10D94B2F130
:10E0E0000D94B2F141546D656761323536300041AF
:10E0F000726475696E6F206578706C6F72657220DE
:10E1000073746B3530305632206279204D4C530099
:10E11000426F6F746C6F616465723E004875683F52
:10E1200000436F6D70696C6564206F6E203D200048
:10E130004350552054797065202020203D20005FF9
:10E140005F4156525F415243485F5F3D2000415658
:10E1500052204C696243205665723D20004743437C
:10E160002056657273696F6E203D20004350552024
:10E1700049442020202020203D20004C6F7720663D
:10E18000757365202020203D20004869676820665F
:10E190007573652020203D200045787420667573D6
:10E1A00065202020203D20004C6F636B2066757336
:10E1B000652020203D20004D617220203720323024
:10E1C000313300312E362E3800342E332E350056A2
:10E1D00023202020414444522020206F7020636F70
:10E1E00064652020202020696E73747275637469E1
:10E1F0006F6E2061646472202020496E74657272B3
:10E20000757074006E6F20766563746F7200726A49
:10E210006D702020006A6D70200057686174207056
:10E220006F72743A00506F7274206E6F7420737541
:10E2300070706F72746564004D7573742062652030
:10E2400061206C6574746572002000577269747483
:10E25000696E672045450052656164696E672045B7
:10E26000450045452065727220636E743D00504F35
:10E27000525400303D5A65726F2061646472003FF1
:10E280003D43505520737461747300403D454550C3
:10E29000524F4D207465737400423D426C696E6B41
:10E2A000204C454400453D44756D70204545505215
:10E2B0004F4D00463D44756D7020464C415348001B
:10E2C000483D48656C70004C3D4C69737420492F83
:10E2D0004F20506F72747300513D51756974005234
:10E2E0003D44756D702052414D00563D73686F7707
:10E2F00020696E7465727275707420566563746FF0
:10E30000727300593D506F727420626C696E6B00BD
:10E310002A0011241FBECFEFD1E2DEBFCDBF01E046
:10E320000CBF12E0A0E0B2E0EEE1FDEF03E00BBFB6
:10E3300002C007900D92A030B107D9F712E0A0E01B
:10E34000B2E001C01D92AE30B107E1F70F9460F367
:10E350000D948DFE01E20EBF0FEF0DBF11241FBE05
:10E360000D9460F30D9400F020E030E040ED57E0B4
:10E3700005C0FA013197F1F72F5F3F4F2817390792
:10E38000C0F308959C01260F311DC901A0E0B0E043
:10E390002F5F3F4FABBFFC018791882361F08093D3
:10E3A000C6008091C00086FFFCCF8091C0008064D1
:10E3B0008093C000EACF08958DE08093C6008091DD
:10E3C000C00086FFFCCF8091C00080648093C000B5
:10E3D0008AE08093C6008091C00086FFFCCF8091C8
:10E3E000C00080648093C00008950F94C2F10F9420
:10E3F000DCF10895FC019081992359F09093C600B7
:10E400008091C00086FFFCCF8091C0008064809323
:10E41000C0003196992379F70895282F982F929567
:10E420009F70892F805D8A3308F0895F8093C600D2
:10E430008091C00086FFFCCF8091C00080648093F3
:10E44000C000822F8F70982F905D9A3308F0995FEB
:10E450009093C6008091C00086FFFCCF8091C000E1
:10E4600080648093C00008959C01FB01853691056E
:10E470001CF46330710594F0C90164E670E00F94F8
:10E480002EFE605D7F4F6093C6008091C00086FFC6
:10E49000FCCF8091C00080648093C0002B30310598
:10E4A00014F43297B4F0C90164E670E00F942EFEC4
:10E4B0006AE070E00F942EFE605D7F4F6093C600AF
:10E4C0008091C00086FFFCCF8091C0008064809363
:10E4D000C000C9016AE070E00F942EFEC0968093E0
:10E4E000C6008091C00086FFFCCF8091C000806490
:10E4F0008093C00008951F93182F8EE692EE60E07F
:10E500000F94C2F11093C6008091C00086FFFCCF2B
:10E510008091C00080648093C0000F94DCF11F9153
:10E5200008952F923F924F925F926F927F928F92B7
:10E530009F92AF92BF92CF92DF92EF92FF920F9392
:10E540001F93DF93CF93CDB7DEB762970FB6F894E2
:10E55000DEBF0FBECDBF382E622ECA01DB015C01CB
:10E560006D01772420E2222E2E010894411C511CBB
:10E570008BC081E0A81680E0B80681E0C80680E084
:10E58000D80628F0C601AA27BB270F940DF2BB2797
:10E59000AD2D9C2D8B2D0F940DF28A2D0F940DF225
:10E5A0002092C6008091C00086FFFCCF8091C00001
:10E5B00080648093C0009DE29093C6008091C0006B
:10E5C00086FFFCCF8091C00080648093C0002092C1
:10E5D000C6008091C00086FFFCCF8091C00080649F
:10E5E0008093C00019828601750188249924A1E0D6
:10E5F0003A1651F03A1620F0B2E03B1661F409C029
:10E600000BBFF701779007C0C7010F9477FE782EF4
:10E6100002C0F7017080872D0F940DF22092C60082
:10E620008091C00086FFFCCF8091C0008064809301
:10E63000C000872D8052F401EF70F0708F3520F408
:10E64000E40DF51D708204C0E40DF51D8EE280839B
:10E650000894E11CF11C011D111D0894811C911CE2
:10E6600090E18916910409F0C2CF80E190E0A0E02A
:10E67000B0E0A80EB91ECA1EDB1E198AC2010F9493
:10E68000FAF10F94DCF16A94662009F072CF629679
:10E690000FB6F894DEBF0FBECDBFCF91DF911F91B3
:10E6A0000F91FF90EF90DF90CF90BF90AF909F9031
:10E6B0008F907F906F905F904F903F902F90089534
:10E6C0002F923F924F925F926F927F928F929F9282
:10E6D000AF92BF92CF92DF92EF92FF920F931F9370
:10E6E000DF93CF93CDB7DEB7CD53D1400FB6F894BB
:10E6F000DEBF0FBECDBF01E20EBF0FEF0DBF94B75F
:10E70000F894A89514BE80916000886180936000A1
:10E7100010926000789493FF05C0E0910002F091A0
:10E7200001021995279A2F9A8091C00082608093E8
:10E73000C00080E18093C40088E18093C1000000A4
:10E74000EE24FF24870144E0A42EB12CCC24DD2448
:10E7500024C0C5010197F1F70894E11CF11C011DCB
:10E76000111D21E2E2162EE4F20620E0020720E06D
:10E77000120718F031E0C32ED12CC801B70127ECE5
:10E780003BE140E050E00F9441FE611571058105C9
:10E79000910519F485B1805885B98091C00087FD35
:10E7A00003C0C114D104A9F2A6014F5F5F4FC25E3E
:10E7B000DE4F59834883CE51D140C25EDE4F8881FF
:10E7C0009981CE51D140019711F00D9410FEC05D9A
:10E7D000DE4F19821882C053D14060E0C15DDE4F28
:10E7E0001882CF52D14088249924C35DDE4F19820C
:10E7F0001882CD52D140C05EDE4F188219821A8233
:10E800001B82C052D140CE5CDE4F188219821A8220
:10E810001B82C253D140EE24FF2487010BBFF701B6
:10E8200007911691C45CDE4F19830883CC53D14005
:10E830000D940BFEC25EDE4F28813981CE51D1404E
:10E840002130310509F52091C600C25EDE4F1982E4
:10E850001882CE51D14022C02F5F3F4F4F4F5F4FA4
:10E86000213082E138078AE7480780E0580780F0C6
:10E87000C45CDE4FE881F981CC53D140EF5FFF4F9C
:10E8800019F0EE27FF27099420E030E040E050E047
:10E890008091C00087FFE0CF2091C600C35DDE4FAE
:10E8A00048815981CD52D1404F5F5F4FC35DDE4FEC
:10E8B00059834883CD52D140213209F063C64A3092
:10E8C000510508F05FC60894811C911C53E0851621
:10E8D000910409F059C600E010E018C081E280936D
:10E8E000C6008091C00086FFFCCF8091C00080648C
:10E8F0008093C0002F5F3F4F2931310579F70F9486
:10E90000DCF10F5F1F4F0530110519F020E030E0FA
:10E91000E5CF10920A0210920B0210920C02109294
:10E920000D02109206021092070210920802109235
:10E930000902109202021092030210920402109235
:10E9400005028FEE90EE60E00F94F5F180E191EE1C
:10E9500060E00F94C2F18091C00087FFFCCF9091DE
:10E96000C600903608F09F759032B8F09093C600BC
:10E970008091C00086FFFCCF8091C00080648093AE
:10E98000C000A0E2A093C6008091C00086FFFCCF2B
:10E990008091C00080648093C000983409F4D7C18E
:10E9A0009934B8F4923409F459C1933458F490333B
:10E9B00019F1903308F4E3C59F33A1F1903409F0C5
:10E9C000DEC5BDC0953409F470C1963409F0D7C5D1
:10E9D00098C1923509F42BC2933538F49C3409F46C
:10E9E000F5C1913509F0CBC518C2963509F445C279
:10E9F000993509F0C4C567C483E792EE62E00F94CD
:10EA0000F5F110920602109207021092080210927D
:10EA1000090210920A0210920B0210920C0210923C
:10EA20000D0213C18FE792EE62E00F94F5F18FEEC5
:10EA300090EE60E00F94F5F181E291EE60E00F94CA
:10EA4000C2F187EB91EE60E00F94F5F180E391EE77
:10EA500060E00F94C2F184EE90EE60E00F94F5F167
:10EA60008FE391EE60E00F94C2F186E090E061E008
:10EA700070E00F9434F20F94DCF18DE591EE60E0DC
:10EA80000F94C2F189EC91EE60E00F94F5F18EE401
:10EA900091EE60E00F94C2F183EC91EE60E00F9490
:10EAA000F5F18CE691EE60E00F94C2F18EE10F94E7
:10EAB0000DF288E90F940DF281E00F940DF20F949E
:10EAC000DCF18BE791EE60E00F94C2F119E0E0E039
:10EAD000F0E010935700E4918E2F0F940DF20F94F5
:10EAE000DCF18AE891EE60E00F94C2F1E3E0F0E03F
:10EAF00010935700E4918E2F0F940DF20F94DCF1D8
:10EB000089E991EE60E00F94C2F1E2E0F0E0109349
:10EB10005700E4918E2F0F940DF20F94DCF188EAE8
:10EB200091EE60E00F94C2F1E1E0F0E01093570045
:10EB30001491812F0F940DF20F94DCF107CF8BE825
:10EB400092EE62E00F94F5F18BE492EE60E00F94A8
:10EB5000F5F10F94DCF100E010E019C0C8016F2D51
:10EB60000F947FFEFF2031F489E492EE60E00F9471
:10EB7000C2F10BC0F092C6008091C00086FFFCCFAE
:10EB80008091C00080648093C0000F5F1F4FC80158
:10EB900081519F41A0E0B0E0ABBFFC01F790BAE229
:10EBA000FB1621F0E2E000301E07C1F60F94DCF105
:10EBB0000F94DCF187E592EE60E00F94F5F10F948D
:10EBC000DCF1CC24DD2400E010E01EC0C8010F946D
:10EBD00077FEF82E882331F489E492EE60E00F94FA
:10EBE000C2F10BC08093C6008091C00086FFFCCFAD
:10EBF0008091C00080648093C000FE1419F00894D6
:10EC0000C11CD11C0F5F1F4FC80181519F41A0E063
:10EC1000B0E0ABBFFC01E790FAE2EF1621F022E092
:10EC20000030120799F60F94DCF10F94DCF182E6C4
:10EC300092EE60E00F94C2F1C60161E070E00F94C3
:10EC400034F20F94DCF10F94DCF110920202109276
:10EC50000302109204021092050278CE89E992EE26
:10EC600062E00F94F5F1279A2F9A16C02F9880E052
:10EC700090E0E0EDF7E03197F1F7019684369105E9
:10EC8000C1F72F9A80E090E0E0EDF7E03197F1F7DF
:10EC9000019684369105C1F78091C00087FFE6CFC9
:10ECA0008091C00087FFFCCF64C485EA92EE62E0E9
:10ECB0000F94F5F140910202509103026091040219
:10ECC0007091050281E020E10F9491F2809102029F
:10ECD00090910302A0910402B091050280509F4FD1
:10ECE000AF4FBF4F8093020290930302A0930402A0
:10ECF000B093050280509041A040B04008F426CE69
:10ED0000A4CF83EB92EE62E00F94F5F140910602FE
:10ED100050910702609108027091090280E020E1A1
:10ED20000F9491F28091060290910702A09108023F
:10ED3000B091090280509F4FAF4FBF4F80930602A2
:10ED400090930702A0930802B0930902FFCD80ECD4
:10ED500092EE62E00F94F5F183E792EE60E00F949B
:10ED6000F5F18FE792EE60E00F94F5F18BE892EE0B
:10ED700060E00F94F5F189E992EE60E00F94F5F10F
:10ED800085EA92EE60E00F94F5F183EB92EE60E09D
:10ED90000F94F5F180EC92EE60E00F94F5F187ECC2
:10EDA00092EE60E00F94F5F188ED92EE60E00F9442
:10EDB000F5F18FED92EE60E00F94F5F18AEE92EEB0
:10EDC00060E00F94F5F183E093EEBDCD87EC92EE19
:10EDD00062E00F94F5F181E40F947BF282E40F94EA
:10EDE0007BF283E40F947BF284E40F947BF285E45E
:10EDF0000F947BF286E40F947BF287E40F947BF20E
:10EE000088E40F947BF28AE40F947BF28BE40F94F6
:10EE10007BF28CE40F947BF299CD88ED92EE62E068
:10EE20000F94F5F1772473948824992409C48FED05
:10EE300092EE62E00F94F5F140910A0250910B02BC
:10EE400060910C0270910D0282E020E10F9491F22A
:10EE500080910A0290910B02A0910C02B0910D02D8
:10EE600080509F4FAF4FBF4F80930A0290930B0289
:10EE7000A0930C02B0930D0269CD8AEE92EE62E08F
:10EE80000F94F5F184EE90EE60E00F94F5F18FECC5
:10EE900091EE60E00F94F5F1662477244301CC5D98
:10EEA000DE4F19821882C452D140D401C301B695F5
:10EEB000A79597958795CA5DDE4F88839983AA8326
:10EEC000BB83C652D140CC5DDE4FA881B981C4520C
:10EED000D1401196CC5DDE4FB983A883C452D14096
:10EEE000CD0162E070E00F9434F2B0E2B093C6005E
:10EEF0008091C00086FFFCCF8091C0008064809329
:10EF0000C000EDE2E093C6008091C00086FFFCCF18
:10EF10008091C00080648093C000F0E2F093C6004E
:10EF20008091C00086FFFCCF8091C00080648093F8
:10EF3000C000CA5DDE4FE880F9800A811B81C6529D
:10EF4000D140BB27A12F902F8F2D0F940DF2CA5DBA
:10EF5000DE4F8881C652D1400F940DF2B0E2FB2EF5
:10EF6000F092C6008091C00086FFFCCF8091C00067
:10EF700080648093C0000DE30093C6008091C000C0
:10EF800086FFFCCF8091C00080648093C00010E2B7
:10EF90001093C6008091C00086FFFCCF8091C00016
:10EFA00080648093C0008BBEF3012791C65DDE4F65
:10EFB0002883CA52D140A22EBB24CC24DD2408943D
:10EFC000611C711C811C911C8BBEF3018791282E42
:10EFD0003324442455240894611C711C811C911C09
:10EFE0008BBEF3013791C55DDE4F3883CB52D140E4
:10EFF0000894611C711C811C911C8BBEF30147910C
:10F00000C45DDE4F4883CC52D140ADEFEA2EAFEF66
:10F01000FA2EAFEF0A2FAFEF1A2F6E0C7F1C801E57
:10F02000911E142D032DF22CEE24EA0CFB1C0C1D5A
:10F030001D1D0F940DF220E22093C6008091C000A8
:10F0400086FFFCCF8091C00080648093C000C65DC5
:10F05000DE4F8881CA52D1400F940DF230E23093D6
:10F06000C6008091C00086FFFCCF8091C000806404
:10F070008093C000C45DDE4F8881CC52D1400F9494
:10F080000DF240E24093C6008091C00086FFFCCFA5
:10F090008091C00080648093C000C55DDE4F888190
:10F0A000CB52D1400F940DF250E25093C6008091A4
:10F0B000C00086FFFCCF8091C00080648093C000B8
:10F0C0008FEFE8168FEFF80680E0080780E018075A
:10F0D00031F484E092EE60E00F94C2F1DFC0D80119
:10F0E000C7018070907CA070B0708050904CA040A0
:10F0F000B040D1F52FEF3FE340E050E0E222F322B1
:10F1000004231523CA5DDE4FA880B980CA80DB8046
:10F11000C652D140AE0CBF1CC01ED11EAA0CBB1CD7
:10F12000CC1CDD1C8EE092EE60E00F94C2F1BB2798
:10F13000A12F902F8F2D0F940DF28E2D0F940DF285
:10F1400030E23093C6008091C00086FFFCCF8091F2
:10F15000C00080648093C0004EE34093C60080915D
:10F16000C00086FFFCCF87C08EE09EEFA0E0B0E03D
:10F17000E822F9220A231B239CE0E91694E9F90608
:10F1800090E0090790E0190709F088C0C45DDE4FE0
:10F19000A881CC52D140EA2EFF2400E010E0102FCD
:10F1A0000F2DFE2CEE24C55DDE4FB881CB52D14031
:10F1B000EB0EF11C011D111DD601C501817090706F
:10F1C000A070B070DC0199278827E80EF91E0A1F8D
:10F1D0001B1F20EF30E040E050E0A222B322C42207
:10F1E000D52241E1AA0CBB1CCC1CDD1C4A95D1F7F1
:10F1F000EA0CFB1C0C1D1D1D81E090E0A0E0B0E0BE
:10F20000282239224A225B2235E1220C331C441C7D
:10F21000551C3A95D1F7E20CF31C041D151D57013E
:10F220006801AA0CBB1CCC1CDD1C85E192EE60E0E1
:10F230000F94C2F1C801AA27BB270F940DF2BB2778
:10F24000A12F902F8F2D0F940DF28E2D0F940DF274
:10F2500090E29093C6008091C00086FFFCCF809121
:10F26000C00080648093C000AEE3A093C60080918C
:10F27000C00086FFFCCF8091C00080648093C000F6
:10F28000C601AA27BB270F940DF2BB27AD2D9C2DDD
:10F290008B2D0F940DF28A2D0F940DF20F94DCF14B
:10F2A000CC5DDE4FE881F981C452D140F99709F471
:10F2B0004DCBF4E0EF2EF12C012D112D6E0C7F1CA7
:10F2C000801E911EF2CD83E093EE62E00F94F5F183
:10F2D0008AE192EE60E00F94C2F18091C00087FF56
:10F2E000FCCF1091C6001F751093C6008091C0001E
:10F2F00086FFFCCF8091C00080648093C0000F9493
:10F30000DCF1812F81548A3108F036C1163409F4BA
:10F3100095C0173490F4133409F44EC0143430F40B
:10F320001134F1F0123409F01DC130C0143409F465
:10F3300059C0153409F016C16BC01A3409F4C4C0A1
:10F340001B3438F4173409F48FC0183409F00AC19B
:10F35000A1C01B3409F4D2C01C3409F003C1E8C0B9
:10F360008FEF81B90DC082B1809582B980E090E0C5
:10F37000E0EDF7E03197F1F70196883C9105C1F790
:10F380008091C00087FFEFCF12B8EFC08FEF84B934
:10F390000DC085B1809585B980E090E0E0EDF7E0A3
:10F3A0003197F1F70196883C9105C1F78091C00033
:10F3B00087FFEFCF15B8D9C08FEF87B90DC088B1DF
:10F3C000809588B980E090E0E0EDF7E03197F1F7C3
:10F3D0000196883C9105C1F78091C00087FFEFCF6F
:10F3E00018B8C3C08FEF8AB90DC08BB180958BB9A7
:10F3F00080E090E0E0EDF7E03197F1F70196883C8E
:10F400009105C1F78091C00087FFEFCF1BB8ADC059
:10F410008FEF8DB90DC08EB180958EB980E090E0F0
:10F42000E0EDF7E03197F1F70196883C9105C1F7DF
:10F430008091C00087FFEFCF1EB897C08FEF80BBD1
:10F440000DC081B3809581BB80E090E0E0EDF7E0F6
:10F450003197F1F70196883C9105C1F78091C00082
:10F4600087FFEFCF11BA81C08FEF83BB0DC084B38C
:10F47000809584BB80E090E0E0EDF7E03197F1F714
:10F480000196883C9105C1F78091C00087FFEFCFBE
:10F4900014BA6BC08FEF809301010FC080910201FD
:10F4A00080958093020180E090E0E0EDF7E03197F5
:10F4B000F1F70196883C9105C1F78091C00087FF64
:10F4C000EDCF1092020151C08FEF809304010FC065
:10F4D0008091050180958093050180E090E0E0ED4A
:10F4E000F7E03197F1F70196883C9105C1F78091DB
:10F4F000C00087FFEDCF1092050137C08FEF8093DA
:10F5000007010FC08091080180958093080180E079
:10F5100090E0E0EDF7E03197F1F70196883C910536
:10F52000C1F78091C00087FFEDCF109208011DC088
:10F530008FEF80930A010FC080910B01809580931B
:10F540000B0180E090E0E0EDF7E03197F1F70196F4
:10F55000883C9105C1F78091C00087FFEDCF1092E4
:10F560000B0103C085E292EEEEC98091C00087FFD7
:10F57000FCCF8091C600EAC988E392EEE4C98CE131
:10F5800091EEE1C988249924933011F1943028F444
:10F59000913089F09230B8F408C0953061F195301F
:10F5A000F0F0963009F048C043C02B3109F042C951
:10F5B00091E06BE13FC96227C15DDE4F2883CF52E6
:10F5C000D14092E037C9B22FA0E0622793E032C960
:10F5D000822F90E0A82BB92B622794E02BC92E3004
:10F5E00009F039C3622795E0C05DDE4F19821882A9
:10F5F000C053D1401FC9E1E0F0E0EC0FFD1FC05D3A
:10F60000DE4F08811981C053D140E00FF11F2083E4
:10F610000F5F1F4FC05DDE4F19830883C053D14079
:10F6200062270A171B0709F005C9D80196E002C92D
:10F63000261709F010C303C0973009F0FBC87724E0
:10F640009981933109F412C19431C8F4963009F4C8
:10F65000D8C0973050F4923009F406C1933009F4C1
:10F660006DC0913009F059C253C0913109F477C08F
:10F67000923108F0BBC0903109F04FC2F5C098310B
:10F6800009F487C0993150F4953109F4EFC09531F0
:10F6900008F4C6C1963109F040C2C2C19A3109F4DA
:10F6A0006CC09A3108F491C09B3109F45BC09D3164
:10F6B00009F033C29D81903359F48F81882311F46E
:10F6C0009EE11CC0813011F091E018C098E916C08D
:10F6D000892F807591F0903539F4E0E0F0E089E011
:10F6E0008093570094910AC0983539F4E3E0F0E034
:10F6F00089E080935700949101C090E01A821B82A8
:10F700008D818C831D829E831F8227E030E009C299
:10F710001A8288E08B8381E48C8386E58D8382E581
:10F720008E8389E48F8383E5888780E589878FE5E9
:10F730008A8782E38B872BE030E0F3C18A818139AD
:10F7400041F0823941F0803911F48FE005C080E04A
:10F7500003C082E001C08AE01A828B8344C0772410
:10F76000739482C08D81882311F48EE12CC0813086
:10F7700011F081E028C088E926C01A82E1E0F0E0BB
:10F7800089E08093570084918B831C8224E030E0D1
:10F79000C8C18B81803589F48C81883039F4E2E0EE
:10F7A000F0E089E08093570084910DC0E0E0F0E044
:10F7B00089E080935700849106C0E3E0F0E089E09F
:10F7C0008093570084911A82DFCF8D81836C99E0FA
:10F7D000E1E0F0E0082E90935700E89507B600FCB2
:10F7E000FDCF1A821B8223E030E09BC180EC8A832C
:10F7F000CE5CDE4F188219821A821B82C253D1401E
:10F800008EC18A8190E0A0E0B0E0582F44273327D2
:10F8100022278B8190E0A0E0B0E0DC0199278827C7
:10F82000282B392B4A2B5B2B8D8190E0A0E0B0E098
:10F83000282B392B4A2B5B2B8C8190E0A0E0B0E089
:10F84000BA2FA92F982F8827282B392B4A2B5B2BCF
:10F85000220F331F441F551FC05EDE4F288339839C
:10F860004A835B83C052D1401A8259C13A81C95C34
:10F87000DE4F3883C753D140CA5CDE4F1882C6536F
:10F88000D1408B81C82EDD24CA5CDE4F488159816E
:10F89000C653D140C42AD52A933109F082C0CE5C28
