:020000040000FA
:100000000C9462010C9493010C9493010C94930151
:100010000C9493010C9493010C9493010C94930110
:100020000C9493010C94C60F0C94C60F0C94C60F3D
:100030000C9493010C9493010C9493010C949301F0
:100040000C9493010C9493010C9493010C949301E0
:100050000C9493010C9493010C9493010C947C0FD9
:100060000C9493010C94460F0C941C0F0C94930168
:100070000C9493010C9493010C9493010C949301B0
:100080000C9493010C9493010C9493010C949301A0
:100090000C94E60E0C94BC0E0C9493010C94D00FAF
:1000A0000C9493010C9493010C9493010C94930180
:1000B0000C9493010C9493010C9493010C94930170
:1000C0000C9493010C9493010C9493010C94930160
:1000D0000C9493010C9493010C9493010C94930150
:1000E0000C9493010C949A030C94BC090C94670330
:1000F0000C9428060C94DF010C94F4100C94CB03A0
:100100000C9459030C9490030C946B030C945607B5
:100110000C942A060C94E0010C9451020C942606CF
:100120000C9403060C949E030C9499030C943C04C9
:100130000C941F060C94AC070C948C030C9455077C
:100140000C945F020C9478070C9463030C947F0763
:100150000C94AA210C9418060C947E030C94820330
:100160000C94FC030C94F2010C9486030C943D0255
:100170000C9474030C94C2080C946E030C9401024A
:100180000C9494030C942E020C94EE020C945F03D6
:100190000C940A060C9478030C9465070C94A10245
:1001A00000002100240027002A002D003000330029
:1001B00001010000040107010A01000022002500DE
:1001C00028002B002E003100340002010000050140
:1001D00008010B01000020002300260029002C004C
:1001E0002F0032000001000003010601090105058E
:1001F0000505070508080808020202020A0A08089D
:1002000004040404010101010101010103030303CA
:1002100003030303040707070C0C0C0C0C0C0C0C59
:100220000202020206060606060606060B0B0B0B6A
:100230000B0B0B0B0102102020080810204010208F
:10024000408002010201080402010102040810209A
:100250004080804020100804020180040201804098
:100260002010080402010804020101020408102001
:100270004080010204081020408000000A0B02099F
:100280000C0D0E0807030401000000000000000030
:10029000000000000000000000000000000000005E
:1002A000000000000000121110000000000000001B
:1002B000000000000000000000000000000000003E
:1002C000F410AA2111241FBECFEFD1E2DEBFCDBFB3
:1002D00000E00CBF2CE0A4EAB8E001C01D92A830F9
:1002E000B207E1F718E0A0E0B2E0ECE8F9E400E0E2
:1002F0000BBF02C007900D92A43AB107D9F711E0E5
:10030000C1E6D1E000E006C021970109802FFE017F
:100310000E945C22C036D10780E00807A9F70E943E
:1003200018120C94B4240C940000FC01A089B1892B
:1003300082E08C93A485B5851C92A685B7858FEC49
:100340008C93108EA489B58986E08C93A289B38999
:100350008C9180618C93A289B3898C9188608C93F5
:10036000A289B3898C9180688C930288F389E02DEF
:1003700080818F7D8083089596E0899FD00111242C
:10038000AD59B44F90967C936E935F9791E09196A0
:100390009C939197E091D00BF091D10B9091CF0B62
:1003A000992339F0309751F0811108C080917F0B6B
:1003B0001994309719F05C968C91FACF08950895AE
:1003C0000895FC01248135816217730748F4808108
:1003D0009181009729F0860F971FFC018081089575
:1003E00080E008950895DB0114964D915C91159776
:1003F0006D917C91DC01ED91FC910280F381E02D07
:100400001994AF92BF92CF92DF92EF92FF920F9327
:100410001F93CF93DF936C017B018B01040F151F9A
:10042000EB015E01AE18BF08C017D10759F0699102
:10043000D601ED91FC910190F081E02DC601199556
:10044000892B79F7C501DF91CF911F910F91FF9013
:10045000EF90DF90CF90BF90AF900895FC01538D47
:10046000448D252F30E0842F90E0821B930B54178E
:1004700010F0CF96089501970895FC01918D828D1B
:10048000981761F0A28DAE0FBF2FB11D5D968C91B4
:10049000928D9F5F9F73928F90E008958FEF9FEFF3
:1004A0000895FC01918D828D981731F0828DE80FAF
:1004B000F11D858D90E008958FEF9FEF0895FC0169
:1004C000918D228D892F90E0805C9F4F821B910936
:1004D0008F739927089585E09AE00E945F0221E0DA
:1004E000892B09F420E0822F089582EA9AE00E9485
:1004F0005F0221E0892B09F420E0822F0895FC019E
:10050000A48DA80FB92FB11DA35ABF4F2C91848D74
:1005100090E001968F739927848FA689B7892C93D1
:10052000A089B1898C91837080648C93938D848D24
:10053000981306C00288F389E02D80818F7D808327
:100540000895EF92FF920F931F93CF93DF93EC01E7
:1005500081E0888F9B8D8C8D98131AC0E889F9896A
:10056000808185FF15C09FB7F894EE89FF8960836D
:10057000E889F98980818370806480839FBF81E0EE
:1005800090E0DF91CF911F910F91FF90EF90089530
:10059000F62E0B8D10E00F5F1F4F0F731127E02E0B
:1005A0008C8D8E110CC00FB607FCFACFE889F98943
:1005B000808185FFF5CFCE010E947F02F1CFEB8DC8
:1005C000EC0FFD2FF11DE35AFF4FF0829FB7F89417
:1005D0000B8FEA89FB8980818062CFCFCF93DF9335
:1005E000EC01888D8823B9F0AA89BB89E889F9894B
:1005F0008C9185FD03C0808186FD0DC00FB607FC80
:10060000F7CF8C9185FFF2CF808185FFEDCFCE01B2
:100610000E947F02E9CFDF91CF91089580E090E0C2
:10062000892B29F00E94750281110E94000080E050
:1006300090E0892B29F00E946B0281110E9400003A
:1006400080E090E0892B49F080E090E0892B29F050
:100650000E94000081110E94000080E090E0892B40
:1006600049F080E090E0892B29F00E940000811180
:100670000C94000008958150823108F05AC0E82F90
:10068000F0E08827E95BFC4F8F4F0C945C226703F6
:100690006B0359035F03630399036E0374037803C9
:1006A0007E03820386038C039003990394039A03C9
:1006B0009E03809180008F778093800008958091C1
:1006C00080008F7DF9CF80918000877FF5CF84B542
:1006D0008F7784BD089584B58F7DFBCF8091B00066
:1006E0008F778093B00008958091B0008F7DF9CF0F
:1006F000809190008F778093900008958091900072
:100700008F7DF9CF80919000877FF5CF8091A000F9
:100710008F778093A00008958091A0008F7DF9CFFE
:100720008091A000877FF5CF809120018F77809303
:1007300020010895809120018F7DF9CF80912001C3
:10074000877FF5CFCF93DF93282F30E0F901E6586C
:10075000FD4F8491F901EC5CFD4FD491F901E25118
:10076000FE4FC491CC23A1F081110E943B03EC2FDA
:10077000F0E0EE0FFF1FEC52FE4FA591B491EC910B
:10078000ED2381E090E009F480E0DF91CF910895BE
:1007900080E090E0FACF862F0C94A2031F93CF93B2
:1007A000DF93282F30E0F901E658FD4F8491F901DD
:1007B000EC5CFD4FD491F901E251FE4FC491CC2382
:1007C000A9F0162F81110E943B03EC2FF0E0EE0FF1
:1007D000FF1FE654FE4FA591B4918FB7F894EC91AA
:1007E000111108C0D095DE23DC938FBFDF91CF912C
:1007F0001F910895DE2BF8CF862F642F0C94CE0323
:10080000CF93DF9390E0FC01EC5CFD4F249182518B
:100810009E4FFC0184918823C9F090E0880F991FB6
:10082000FC01E056FE4FA591B491FC01E654FE4F49
:10083000C591D49161110DC09FB7F8948C9120950A
:1008400082238C938881282328839FBFDF91CF91B7
:100850000895623051F49FB7F8943C91822F8095AF
:1008600083238C93E8812E2BEFCF8FB7F894EC91F4
:100870002E2B2C938FBFEACF862F642F0C9400046D
:10088000863308F0865320917B00982F9870277F3D
:10089000922B90937B008770806480937C00809182
:1008A0007A00806480937A0080917A0086FDFCCF84
:1008B000809178009091790008953FB7F8948091E5
:1008C0005D0990915E09A0915F09B091600926B51C
:1008D000A89B05C02F3F19F00196A11DB11D3FBF78
:1008E000BA2FA92F982F8827BC01CD01620F711D47
:1008F000811D911D42E0660F771F881F991F4A9541
:10090000D1F708958F929F92AF92BF92CF92DF92CC
:10091000EF92FF926B017C010E945D044B015C0130
:10092000C114D104E104F104B9F00E945D04681916
:1009300079098A099B09683E73408105910580F316
:1009400021E0C21AD108E108F10888EE880E83E0A0
:10095000981EA11CB11CE4CFFF90EF90DF90CF90C8
:10096000BF90AF909F908F9008952FB7F8946091AB
:10097000590970915A0980915B0990915C092FBFC8
:1009800008950F931F93CF93DF93C82FD62F86E040
:10099000C89FF0011124ED59F44F11A2878D90A149
:1009A00081309105F1F058F082309105F1F1039713
:1009B00009F440C0DF91CF911F910F9108956623F4
:1009C000C9F361E070E08C2F0E94BC010E94B50465
:1009D0006093BB0B7093BC0B8093BD0B9093BE0BCD
:1009E000E9CF0E94B5040091BB0B1091BC0B209184
:1009F000BD0B3091BE0BAB01BC01401B510B620B18
:100A0000730B8091CD0B9091CE0BB0E0A0E08417DA
:100A10009507A607B70748F462E070E08C2FDF91D6
:100A2000CF911F910F910C94BC0163E070E0D11144
:100A3000C1CFF4CF70E060E0F1CF0F931F930E941D
:100A4000B5046093AA0A7093AB0A8093AC0A9093A2
:100A5000AD0A82EA9AE00E943D0297FF1DC00E9403
:100A6000B5040091AA0A1091AB0A2091AC0A30910A
:100A7000AD0A601B710B820B930B0091A60A1091BB
:100A8000A70A2091A80A3091A90A60177107820766
:100A90009307F8F28FEF9FEF1F910F9108950F9337
:100AA0001F938091D20B9091D30BDC01ED91FC91BF
:100AB0000084F185E02D1995892B09F4D5C060E0FB
:100AC00070E0CB010E9482042091F00B8091D20B48
:100AD0009091D30BDC01ED91FC910284F385E02D24
:100AE00021110BC019958093DC0B8E37D1F68091C4
:100AF000F00B8F5F8093F00BD4CF19959091F00B92
:100B0000E92FF0E0EE52F44F82879230B9F099303D
:100B1000D9F09130A9F48F3F99F01092F00B81E059
:100B20008093F20B1092F50B1092F40B8093F60B5E
:100B30001092F70B80E01F910F910895863069F7AE
:100B40009F5F9093F00BADCF8F3E39F78091DE0B16
:100B50009091DD0B890F9927991FE091DF0B9C0184
:100B60002E0F311D8091E00B820F932F911D40912C
:100B7000E10B50E0840F951F2091E20B30E0609173
:100B8000E30B70E0762F6627F091E40B6F0F711D79
:100B9000820F931F9195819591096817790709F044
:100BA000BCCF1092F00BE13419F41092F70B3DC05A
:100BB000E093F30B542F4427240F351F3093F50B8C
:100BC0002093F40BEA53E63108F044C0F0E08827A4
:100BD000E351FA4F8F4F0C945C2218061F0628062B
:100BE000030628060A0626062A06280628062806D8
:100BF000280628062806280628062A062806280683
:100C000028062806280685E08093F20B81E0809371
:100C1000F60B0BC089E020FDF7CF84E021FDF4CF77
:100C2000237033278AE0232B79F78091F60B83CF4B
:100C300087E020FDE9CF82E021FDE6CFF6CF88E016
:100C400020FDE2CF83E021FDDFCFEFCF86E0DCCFD8
:100C50008BE0DACF81E08093F20B1092F50B1092CB
:100C6000F40B8093F60BA1CF8091F70B8823E9F268
:100C70000E94B5040091D40B1091D50B2091D60B96
:100C80003091D70B601B710B820B930B0091D80B2B
:100C90001091D90B2091DA0B3091DB0B60177107A3
:100CA0008207930710F21092F00B1092F20B109241
:100CB000F50B1092F40B81E039CF8F929F92AF9297
:100CC000BF92CF92DF92EF92FF92CF936B017C01A4
:100CD0000E94B5044B015C01C114D104E104F1048C
:100CE00041F4C090D80BD090D90BE090DA0BF09083
:100CF000DB0B0E944F05C82F811111C00E94B50463
:100D0000681979098A099B09C616D706E806F90603
:100D100030F060E070E0CB010E948204EACF8C2FBB
:100D2000CF91FF90EF90DF90CF90BF90AF909F90CA
:100D30008F9008958093E90B1092EB0B6093EC0B6E
:100D40002091E80B9091E70B290F3327331F820F77
:100D5000932F911D2091EA0B820F911D680F791F2F
:100D60007195619571097093ED0B6093EE0B2223E1
:100D700061F08091F70B882341F060E070E0CB01D7
:100D80000E9482040E944F05F4CF8091D20B909173
:100D9000D30BDC01ED91FC910280F381E02D4AE060
:100DA00050E066EE7BE019950E94B5046093D40B89
:100DB0007093D50B8093D60B9093D70B8091EA0B51
:100DC00091E0811101C090E09093F70B811106C072
:100DD0006AE070E080E090E00C9482040895209135
:100DE000E508260F3327331F21323105ECF420911B
:100DF0002E09FC0190E080E0243069F082E0089543
:100E0000A091E5082191AC014B53574FA40FB52F8A
:100E1000B11D2C930196861798F38091E508680F11
:100E20006093E50880E0089581E0089510922E090E
:100E300081E080932D091092080961E084E10E940D
:100E4000CE0361E085E10E94CE03E9EBF0E0808112
:100E50008E7F808380818D7F808388E48093B8003B
:100E600085E48093BC000895CF93DF9391E0909345
:100E7000C4088823B9F0C091B800D091BA0080911D
:100E8000BC008A7B8093BC0060E084E10E94CE03BA
:100E900060E085E10E94CE030E941607D093BA005D
:100EA000C093B800DF91CF9108950895E09168094B
:100EB00080916709E81730F4F0E0EC55F74F808136
:100EC00090E008958FEF9FEF0895909168098091C9
:100ED00067092FEF3FEF981748F4E92FF0E0EC5542
:100EE000F74F208130E09F5F90936809C901089512
:100EF0008091670990916809891B990B0895CF9299
:100F0000DF92EF92FF920F931F93CF93DF937C01B9
:100F1000CB018A0120913409222389F0EB016B0176
:100F2000C40ED51ECC15DD0569F06991D701ED9190
:100F3000FC910190F081E02DC7011995F3CF642F4A
:100F40000E94EF06C801DF91CF911F910F91FF9092
:100F5000EF90DF90CF900895CF93DF931F92CDB79E
:100F6000DEB76983209134092223F9F020916509C5
:100F7000203258F021E030E0FC013383228390E0FE
:100F800080E00F90DF91CF91089580916609E82F5E
:100F9000F0E0EB5CF64F998190838F5F8093660958
:100FA0008093650981E090E0ECCF61E0CE0101968D
:100FB0000E94EF06F7CFCF92DF92EF92FF920F934E
:100FC0001F93CF93DF93FC01C48121E02093340968
:100FD000C093550910926609109265098385682BA4
:100FE0008FE39BE00E94AC07D0916509D13208F0F5
:100FF00092C00E945D046B017C0180912E098111D9
:1010000065C082E080932E0981E080932D098FEFE7
:1010100080932C0910922B09D0932A09A5E3B9E0FB
:10102000EAE0F9E080E0D81385C0109209098091C8
:101030000909CC0FC82BC093090980910809813098
:1010400009F07CC0109208090E945D046B017C01CC
:10105000809109098093BB008091300990913109FA
:10106000A0913209B0913309892B8A2B8B2B99F0EF
:101070000E945D04009130091091310920913209DC
:10108000309133096C197D098E099F0906171707DE
:1010900028073907E0F18091BC0083FDD9CF85ECAA
:1010A0008093BC000E945D046B017C0180912E093D
:1010B000823009F445C080912C098F3F61F1809105
:1010C0002C09803241F180912C0925C08091300992
:1010D00090913109A0913209B0913309892B8A2B63
:1010E0008B2B09F48ACF0E945D0400913009109186
:1010F000310920913209309133096C197D098E092B
:101100009F09061717072807390708F076CF80913F
:101110002F090E94340710926609109265091092F7
:101120003409DF91CF911F910F91FF90EF90DF90E5
:10113000CF9008959D9191938F5F75CF85EEB0CF3D
:101140008091300990913109A0913209B091330911
:10115000892B8A2B8B2B09F4A9CF0E945D04009167
:1011600030091091310920913209309133096C19FD
:101170007D098E099F09061717072807390708F008
:1011800095CFC5CF90E080E008958091F9099091C6
:10119000FA09A091FB09B091FC0940918A0950918C
:1011A0008B0960918C0970918D09841B950BA60B9E
:1011B000B70B8093F9099093FA09A093FB09B093B8
:1011C000FC0908950F931F93CF93DF93C7E9D2E0F3
:1011D0008E01F80180810E5F1F4F61E00E94CE03F7
:1011E000F2E0013A1F07A9F764EF71E080E090E0B8
:1011F0000E9482048881229660E00E94CE0382E0F1
:10120000C13AD807B9F7DF91CF911F910F91089597
:101210000F931F93CF938C01C62F0E94DB076C2F77
:101220006460C8010E94DB076C2F6B7FC8010E94BD
:10123000DB0783EC90E00197F1F7CF911F910F91BD
:1012400008950F931F93CF93DF938C01D62FC42F54
:10125000607F642B0E94080980E1D89FB0011124AF
:101260006C2BC801DF91CF911F910F910C9408094D
:1012700040E061E088EF9BE00E9421098BE39FE161
:101280000197F1F70895CF93DF93EC010E9438099D
:10129000BE0188EF9BE00E94F30164EF71E080E003
:1012A00090E00E94820460ED77E080E090E00E9490
:1012B00082040E94B504685E7340810991096093BD
:1012C000EC097093ED098093EE099093EF09DF919B
:1012D000CF910895CF93DF93EC010E943809BE01AE
:1012E00088EF9BE00E94F30160ED77E080E090E002
:1012F0000E9482040E94B504685E734081099109CE
:101300006093EC097093ED098093EE099093EF09D7
:10131000DF91CF910895CF93DF9300D000D01F923B
:101320001F92CDB7DEB798E0E1E4F2E0DE0111965E
:1013300001900D929A95E1F79091000C961708F4A0
:101340006FEF262F30E0220F331F41E050E04C0FAB
:101350005D1F240F351FF9016081680F606840E050
:1013600088EF9BE028960FB6F894DEBF0FBECDBF86
:10137000DF91CF910C94210941E00E94210981E085
:1013800090E00895CF92DF92EF92FF920F931F9318
:10139000CF93DF93EB017B0124E0E20EF11C8B0184
:1013A0006C01C61AD70AC601800F911F0E94F62150
:1013B000F80181938F01EE15FF05A9F7CE01DF91AA
:1013C000CF911F910F91FF90EF90DF90CF900895F4
:1013D0009F92AF92BF92CF92DF92EF92FF920F93C4
:1013E0001F93CF93DF935C017B018B01D0E0C0E0C2
:1013F000F80191908F016501CC0EDD1EC6010E949F
:10140000F621981621F0692DC6010E94FE21219631
:10141000C430D10569F7C701DF91CF911F910F91BA
:10142000FF90EF90DF90CF90BF90AF909F90089586
:101430000C94F621FC0180819181009711F00C94AD
:10144000BA2160E070E0CB010895FB01019000201B
:10145000E9F73197AF01461B570BDC01ED91FC9189
:101460000280F381E02D199465EE72E082EA9AE041
:101470000C94250ACF93DF93682F82EA9AE00E94AA
:10148000A102EC010E94340A8C0F9D1FDF91CF91C5
:101490000895CF93DF93BC0182EA9AE00E94F301A2
:1014A000EC010E94340A8C0F9D1FDF91CF910895AB
:1014B0008F929F92AF92BF92EF92FF920F931F93E2
:1014C000CF93DF93CDB7DEB7A1970FB6F894DEBF09
:1014D0000FBECDBF7C01FA01CB0119A2223008F466
:1014E0002AE08E010F5D1F4F822E912CB12CA12C72
:1014F000BF01A50194010E943A22F901CA016A3094
:101500000CF5605DD8016E938D01232B242B252BC8
:1015100079F790E080E0109721F0BD01C7010E94AB
:10152000250AA1960FB6F894DEBF0FBECDBFDF919E
:10153000CF911F910F91FF90EF90BF90AF909F9030
:101540008F900895695CDECFCF92DF92EF92FF9289
:101550000F931F93CF93DF936B01770FEE08FF0874
:10156000F7FE1FC0EC01E881F9810190F081E02DC8
:101570006DE219958C0144275527BA014C195D0974
:101580006E097F092AE0CE010E94580A800F911F40
:10159000DF91CF911F910F91FF90EF90DF90CF904F
:1015A00008952AE0B701A601DF91CF911F910F9115
:1015B000FF90EF90DF90CF900C94580ACF93DF9379
:1015C000BC0182EA9AE00E94A40AEC010E94340A5B
:1015D0008C0F9D1FDF91CF910895CF93DF93AB01C7
:1015E000BC012AE082EA9AE00E94580AEC010E94BB
:1015F000340A8C0F9D1FDF91CF910895CF93DF9315
:10160000BC0182EA9AE00E94250AEC010E94340A99
:101610008C0F9D1FDF91CF9108950C94250A2F9276
:101620003F924F925F926F927F928F929F92AF9272
:10163000BF92CF92DF92EF92FF920F931F93CF93BF
:10164000DF9300D000D0CDB7DEB70E94B504009183
:10165000EC091091ED092091EE093091EF09601B22
:10166000710B820B930B683E73408105910508F462
:10167000B5C00E94B5046093EC097093ED098093A6
:10168000EE099093EF090E94B5040091FD091091B5
:10169000FE092091FF093091000A601B710B820B3B
:1016A000930BC090F909D090FA09E090FB09F090F3
:1016B000FC09C61AD70AE80AF90AC701B60128EEDA
:1016C00033E040E050E00E943A2249015A01C7014C
:1016D000B60120E83EEE46E350E00E943A2229019E
:1016E0008901C501B40120E13EE040E050E00E94E4
:1016F0003A222CE3C22ED12CE12CF12CA701960129
:101700000E943A2229833A834B835C8329803A8062
:10171000C501B401A70196010E943A226B017E83A4
:101720006D830E94380968EE72E088EF9BE00E94AA
:101730000D0B61E080E00E948B090A30110534F442
:1017400068EF72E088EF9BE00E940D0BB20188EF1A
:101750009BE00E94A40A68EB77E088EF9BE00E9480
:101760000D0B8AE02816310434F468EF72E088EF3C
:101770009BE00E940D0B69817A8188EF9BE00E94BB
:10178000A40A68EB77E088EF9BE00E940D0B8D8147
:101790009E810A9734F468EF72E088EF9BE00E9424
:1017A0000D0BB60188EF9BE026960FB6F894DEBFCE
:1017B0000FBECDBFDF91CF911F910F91FF90EF90A2
:1017C000DF90CF90BF90AF909F908F907F906F9061
:1017D0005F904F903F902F900C94A40A26960FB6DE
:1017E000F894DEBF0FBECDBFDF91CF911F910F9157
:1017F000FF90EF90DF90CF90BF90AF909F908F9031
:101800007F906F905F904F903F902F900895FB01D5
:1018100044815581FC01248135812417350778F0F6
:1018200080819181009759F0FB0160817181611580
:10183000710529F00E94972421E0892B09F020E00E
:10184000822F08950F931F93CF93DF938C01EB01A9
:10185000FC01808191810097E1F0688179816115B7
:101860007105A9F0428153812C813D8142175307B4
:1018700070F00E9490248C819D81F801958384836F
:101880001D821C82DF91CF911F910F9108950E94BC
:10189000142388819981F801918380838A819B81B7
:1018A000938382838C819D8195838483198218829E
:1018B0001B821A82E5CFCF93DF93EC018881998157
:1018C000009711F00E941423198218821D821C8235
:1018D0001B821A82DF91CF910895FC018081918152
:1018E000009711F00C94142308950F931F93CF9336
:1018F000DF93EC0188819981009759F02A813B811F
:101900002617370730F081E0DF91CF911F910F91BB
:1019100008958B016F5F7F4F0E949D23009759F0C0
:10192000998388831B830A832C813D81232B59F75C
:10193000FC011082E8CF80E0E7CFEF92FF920F9397
:101940001F93CF93DF93EC017B01198218821B82D6
:101950001A821D821C82FB0101900020E9F7319759
:101960008F01061B170BB8010E94750C811109C06D
:10197000CE01DF91CF911F910F91FF90EF900C94CA
:101980005B0C1D830C83B70188819981DF91CF9116
:101990001F910F91FF90EF900C9490249F92AF9223
:1019A000BF92CF92DF92EF92FF920F931F93CF934C
:1019B000DF937C016B015A0189012417350720F45C
:1019C0008B2D5901042F182F67EE72E0C7010E947A
:1019D0009D0CD6011496CD91DC91AC16BD0650F548
:1019E0000C171D0708F4E801D601ED91FC91119741
:1019F000EC0FFD1F908010820D911C910A0D1B1D94
:101A00000115110571F0F80101900020E9F73197F7
:101A10005F01A01AB10AB501C7010E94750C8111BE
:101A200016C0C7010E945B0CD6018D919C91C80F16
:101A3000D91F9882C701DF91CF911F910F91FF901D
:101A4000EF90DF90CF90BF90AF909F900895F701F7
:101A5000B582A482B801808191810E949024E4CF54
:101A6000CF93DF93EC01FB01248135810E94CE0CE2
:101A7000CE01DF91CF9108952F923F924F925F92C6
:101A80006F927F928F929F92AF92BF92CF92DF928E
:101A9000EF92FF920F931F93CF93DF93CDB7DEB7F3
:101AA000C650D1400FB6F894DEBF0FBECDBF6AEF6F
:101AB00072E082EA9AE00E940D0B0E94340A9E01B5
:101AC0002F5F3F4F390180E091E0F9019C011192B5
:101AD00021503040E1F72301630193E5A92E92E004
:101AE000B92EF12CE12C22242394F5013080F2E070
:101AF000AF0EB11C61E0832D0E94000460E0832DD5
:101B00000E94CE0383E5882E82E0982E10E000E04C
:101B1000E016F10651F0F40180810E94A203892BA6
:101B200021F4F601E00FF11F20820F5F1F4FF2E05A
:101B30008F0E911C0031110559F762E0832D0E9430
:101B400000042FEFE21AF20A30E1C30ED11C80E14B
:101B5000E816F10451F64AE859E0AAE6B9E06D91B9
:101B60007C91119777FD20C012968D919C911397CF
:101B700097FD1AC0FB0104E0EE0FFF1F0A95E1F785
:101B8000E60DF71DE80FF91F2081222391F0FC01DB
:101B900014E0EE0FFF1F1A95E1F7E60DF71DE60FB3
:101BA000F71F2081222329F014964A175B07B9F604
:101BB00021E070E060E0DB011196CD0180319105FC
:101BC00009F447C0F301E80FF91F308131110BC050
:101BD000FC0134E0EE0FFF1F3A95E1F7E40DF51D2F
:101BE0003081332361F0EAE6F9E0008111810617C4
:101BF000170739F4028113810817190751F4019668
:101C0000DDCF0817190729F402811381061717077A
:101C1000B1F334964E175F0741F76BE373E0CE01E3
:101C20008F5F9E4F0E949D0CCE018F5F9E4F0E9442
:101C30004309CE018F5F9E4F0E946D0C6CE473E0F0
:101C400082EA9AE00E940D0B0E94E2080E94C508F9
:101C500041C0222311F39FEF491A590AE0E16E0EA9
:101C6000711CBD01509709F0A6CF81E08093F50962
:101C70008091BE099091BF0901969093BF0980930E
:101C8000BE0967E173E0CE018F5F9E4F0E949D0CFD
:101C9000CE018F5F9E4F0E946A09CE018F5F9E4FDB
:101CA0000E946D0C8091BE099091BF09863091050C
:101CB0004CF4880F991FFC01E156FD4F61E08081D3
:101CC0000E94CE0386E293E00E94FE0A1092E7098A
:101CD0001092E609CA5FDE4F0FB6F894DEBF0FBE62
:101CE000CDBFDF91CF911F910F91FF90EF90DF90CB
:101CF000CF90BF90AF909F908F907F906F905F90AC
:101D00004F903F902F90089585ED8093BC00809177
:101D1000300990913109A0913209B09133090796A9
:101D2000A11DB11D23E0B695A795979587952A9596
:101D3000D1F72091BC0024FD03C010922E09089514
:101D40004091300950913109609132097091330905
:101D5000452B462B472B69F30097A105B10541F0B0
:101D60002AE22A95F1F700C00197A109B109E1CF54
:101D700080912F090C9434071F920F920FB60F9287
:101D800011240BB60F922F933F934F935F936F9352
:101D90007F938F939F93AF93BF93EF93FF9385E0D0
:101DA0009AE00E947F02FF91EF91BF91AF919F91C6
:101DB0008F917F916F915F914F913F912F910F90F4
:101DC0000BBE0F900FBE0F901F9018951F920F9291
:101DD0000FB60F9211240BB60F922F938F939F93F0
:101DE000EF93FF93E091150AF091160A8081E0913C
:101DF0001B0AF0911C0A82FD1DC0908180911E0A71
:101E00008F5F8F7320911F0A821741F0E0911E0AA5
:101E1000F0E0EB5FF54F958F80931E0AFF91EF91F5
:101E20009F918F912F910F900BBE0F900FBE0F902F
:101E30001F9018958081F2CF1F920F920FB60F92CC
:101E400011240BB60F922F933F934F935F936F9391
:101E50007F938F939F93AF93BF93EF93FF9382EA08
:101E60009AE00E947F02FF91EF91BF91AF919F9105
:101E70008F917F916F915F914F913F912F910F9033
:101E80000BBE0F900FBE0F901F9018951F920F92D0
:101E90000FB60F9211240BB60F922F938F939F932F
:101EA000EF93FF93E091B20AF091B30A8081E09141
:101EB000B80AF091B90A82FD1DC090818091BB0AD9
:101EC0008F5F8F732091BC0A821741F0E091BB0AAB
:101ED000F0E0EE55F54F958F8093BB0AFF91EF919F
:101EE0009F918F912F910F900BBE0F900FBE0F906F
:101EF0001F9018958081F2CF1F920F920FB60F920C
:101F000011242F933F938F939F93AF93BF9380910F
:101F1000590990915A09A0915B09B0915C093091DF
:101F2000580923E0230F2D3758F50196A11DB11D47
:101F3000209358098093590990935A09A0935B09FB
:101F4000B0935C0980915D0990915E09A0915F0951
:101F5000B09160090196A11DB11D80935D09909318
:101F60005E09A0935F09B0936009BF91AF919F9103
:101F70008F913F912F910F900FBE0F901F9018954A
:101F800026E8230F0296A11DB11DD2CF1F920F92FA
:101F90000FB60F9211240F900FBE0F901F9018953F
:101FA0001F920F920FB60F9211240BB60F922F9320
:101FB0003F934F935F936F937F938F939F93AF93D1
:101FC000BF93EF93FF938091B900887F803609F427
:101FD0004DC008F040C0883209F4A9C028F580310E
:101FE00009F49DC0C8F4882309F4FBC0883009F4C3
:101FF00096C0FF91EF91BF91AF919F918F917F918B
:102000006F915F914F913F912F910F900BBE0F9069
:102010000FBE0F901F901895883109F488C0803248
:1020200041F780932C0914C0803409F49DC040F41A
:102030008033B9F38833E9F680932C0985ECB0C07E
:10204000803509F485C0883509F496C0883489F64E
:102050000E94840ECECF883909F48CC038F58837B9
:1020600029F050F4883611F0803719F683E0809318
:102070002E091092070957C0883809F47BC08039AF
:1020800019F0803809F0B5CF80910709803208F047
:1020900071C0E091070981E08E0F8093070980915C
:1020A000BB00F0E0E951F74F80833DC0803B39F041
:1020B000E0F4803A09F479C0883A09F09ACF84E0D4
:1020C00080932E091092E6081092E508E0916309CA
:1020D000F091640919958091E50881110FC081E0A4
:1020E0008093E5081092C50809C0803C09F4A6CF8A
:1020F000883C09F4A3CF883B09F07BCFE091E60848
:1021000081E08E0F8093E608F0E0EB53F74F80817B
:102110008093BB009091E6088091E50829C08091EA
:1021200009098093BB0085EC8093BC0062CF90913D
:102130002B0980912A09981758F5E0912B0981E025
:102140008E0F80932B09F0E0E65FF64F8081E9CF98
:10215000E0912B0981E08E0F80932B098091BB00C9
:10216000F0E0E65FF64F808390912B0980912A0979
:102170009817C8F285E8D8CFE0912B0981E08E0F3F
:1021800080932B098091BB00F0E0E65FF64F8083DF
:1021900080912D0981115CCF81E08093080984EA48
:1021A0008093BC0010922E0924CF85EC8093BC0054
:1021B00010922E0980910709803230F4E0910709CE
:1021C000F0E0E951F74F10826091070970E0E0916B
:1021D0006109F091620987EE98E01995109207095C
:1021E00008CF10922C0934CF1092080A1092070AD7
:1021F00088EE93E0A0E0B0E08093090A90930A0A89
:10220000A0930B0AB0930C0A2FEA32E03093060A2F
:102210002093050A4DEC50E05093120A4093110AA6
:102220004CEC50E05093140A4093130A48EC50E0F1
:102230005093160A4093150A49EC50E05093180A3F
:102240004093170A4AEC50E050931A0A4093190A37
:102250004EEC50E050931C0A40931B0A10921E0A49
:1022600010921F0A1092200A1092210A1092A50AB9
:102270001092A40A8093A60A9093A70AA093A80A92
:10228000B093A90A3093A30A2093A20A25EC30E068
:102290003093AF0A2093AE0A24EC30E03093B10AB9
:1022A0002093B00A20EC30E03093B30A2093B20AB6
:1022B00021EC30E03093B50A2093B40A22EC30E0F0
:1022C0003093B70A2093B60A26EC30E03093B90A6F
:1022D0002093B80A1092BB0A1092BC0A1092BD0A51
:1022E0001092BE0A1092420B1092410B8093430B46
:1022F0009093440BA093450BB093460B81EC92E076
:102300009093400B80933F0B1092FB0B1092FA0BB3
:102310008DED92E09093F90B8093F80B87E2809318
:10232000FC0B80E18093010C82E08093020C109200
:10233000030C44EF51E060E070E04093D80B509301
:10234000D90B6093DA0B7093DB0B9AE0E9E4F2E0CF
:10235000A6EEBBE001900D929A95E1F71092F00B7A
:102360008093F10B1092F60B1092F70B1092650B05
:102370001092690B1092680B10926A0B83ED92E039
:102380009093640B8093630BEFE7FBE01082148261
:102390001382158236968BE0EB3BF807B9F787E29C
:1023A00092E09093C60B8093C50B83E292E09093EA
:1023B000C80B8093C70B84E08093C90B8093CA0B32
:1023C0008BE292E09093C40B8093C30B8AE090E081
:1023D0009093CC0B8093CB0B84EF91E09093CE0B3A
:1023E0008093CD0B1092D10B1092D00B1092BF0B9B
:1023F0001092C00B1092C10B1092C20B1092CF0B17
:102400006EE573E08DE59BE00E949D0C67E773E04D
:1024100087E59BE00E949D0C62E873E081E59BE00C
:102420000E949D0C6DE873E08BE49BE00C949D0C86
:10243000CF93DF93CDB7DEB76E970FB6F894DEBFBC
:102440000FBECDBF789484B5826084BD84B58160B1
:1024500084BD85B5826085BD85B5816085BD80916F
:102460006E00816080936E001092810080918100E7
:1024700082608093810080918100816080938100DF
:10248000809180008160809380008091B1008460A1
:102490008093B1008091B00081608093B000809102
:1024A000910082608093910080919100816080937F
:1024B0009100809190008160809390008091A100B4
:1024C00082608093A1008091A10081608093A1002F
:1024D0008091A00081608093A000809121018260A2
:1024E000809321018091210181608093210180915D
:1024F000200181608093200180917A008460809324
:102500007A0080917A00826080937A0080917A00CC
:10251000816080937A0080917A00806880937A004D
:102520001092C10082EA9AE00E94950185E09AE04B
:102530000E9495011092680910926709109266092D
:10254000109265090E9416078FED91E0909364093F
:102550008093630980EE91E0909362098093610912
:102560000E9416071092FD0B8091020C823018F029
:1025700098E09093FD0B8093000C62E370E080E0A4
:1025800090E00E9482046091030C88EF9BE00E941F
:10259000DB0768EE73E080E090E00E94820460E375
:1025A00088EF9BE00E9408090BE416E4C80101973C
:1025B000F1F760E388EF9BE00E940809C8010197EA
:1025C000F1F760E388EF9BE00E94080983E592E061
:1025D0000197F1F760E288EF9BE00E9408096091A3
:1025E000FD0B606240E088EF9BE00E94210984E0DF
:1025F0008093FE0B40E06CE088EF9BE00E94210995
:102600000E94380982E08093FF0B40E066E088EF8B
:102610009BE00E94210940E062E088EF9BE00E947D
:1026200021098BE39FE10197F1F788E08093030C88
:1026300060E088EF9BE00E94DB070E94380963EAB4
:1026400073E088EF9BE00E940D0B61E080E00E9448
:102650008B0963EB73E088EF9BE00E940D0B68EE43
:1026600073E080E090E00E94820403E010E075E0F7
:10267000E72E7AE0F72EDD24D394F092D30BE0928C
:10268000D20BD092EA0B70E060E08CE00E949A06D8
:1026900060ED77E080E090E00E945D0668EC70E01D
:1026A00080E090E00E9482041092F60B8091F20B81
:1026B0008430D1F08930C1F064EF71E080E090E0C7
:1026C0000E94820401501109C1F60E94380960EE8F
:1026D00073E088EF9BE00E940D0B61E080E00E94B8
:1026E0008B0961EF73E01FC069E170E086E00E9432
:1026F0009A0670E060E082E40E949A0660E070E072
:10270000CB010E945D06811119C00E94380963EC5B
:1027100073E088EF9BE00E940D0B61E080E00E9477
:102720008B0962ED73E088EF9BE00E940D0B60ED7A
:1027300077E080E090E00E9482040CC01092F60BDB
:102740008091F20B8B3009F78091F40B9091F50B8F
:10275000892BD9F60E94380964E074E088EF9BE089
:102760000E940D0B57E9E52E52E0F52E61EA662E28
:1027700062E0762EF3010081F2E06F0E711C61E0E1
:10278000802F0E940004F7011081F2E0EF0EF11C8F
:1027900061E0812F0E94000461E0802F0E94CE033F
:1027A00068EC70E080E090E00E94820460E0802F9E
:1027B0000E94CE0361E0812F0E94CE0368EC70E09E
:1027C00080E090E00E94820460E0812F0E94CE03AE
:1027D0002BEA621622E0720669F662E087E20E9446
:1027E00000044BE8E42E42E0F42E0FE712E0F8017B
:1027F00080810E5F1F4F62E00E940004E016F10628
:10280000B1F73FE7E32E32E0F32E03E712E0F801E1
:1028100080810E5F1F4F62E00E940004E016F10607
:10282000B1F703E512E023E7E22E22E0F22EF801F1
:1028300080810E5F1F4F62E00E940004E016F106E7
:10284000B1F769EF79E090E080E00E94C2096AE8A0
:1028500079E084E090E00E94C2099EE8E92E99E0C8
:10286000F92E88E090E08C010F5F1F4F0E94180A3C
:1028700090E0F701819391937F01C8010E3011051B
:1028800091F78AE9E82E89E0F82E6801FFEFCF1A68
:10289000DF0AC8010E94180A90E0F7018193919322
:1028A0007F0186010431110581F7B2EBEB2EB9E00F
:1028B000FB2E04E110E0C8010E94F621F70180839D
:1028C000C80101960E94F621F7018183F2E0EF0E24
:1028D000F11C0E5F1F4F0032110569F7AAE6EA2EC0
:1028E000A9E0FA2E00E210E068012FEFC21AD20A26
:1028F000C8010E94180A90E0F701918380830E5F5F
:102900001F4FC6010E94180A90E0F701938382834B
:10291000F4E0EF0EF11C0033110531F7F0ECEF2E6F
:10292000F9E0FF2E68012FEFC21AD20AC8010E94F7
:10293000180AF70181937F0186010A33110591F787
:102940007601FFEFEF1AFF0AC6010E94180A2AE378
:10295000C21AD1082091610B3091620BC216D306C6
:1029600040F420915D0B30915E0B2115310509F08B
:10297000CDC11092690929E639E0F9018083670128
:10298000FBE5EF16F104E1F687010F5F1F4FC7016A
:102990000E94180A2BE5E21AF10820915B0B309196
:1029A0005C0BE216F30638F4E091570BF091580BEC
:1029B000309709F0AEC110926909E9E6F9E0808329
:1029C00078010C37110501F778013FEFE31AF30A9C
:1029D000C8010E94180A0C5711092091550B30911B
:1029E000560B0217130738F4E091510BF091520B7C
:1029F000309709F091C110926909E9E6F9E0808306
:102A000087014DE9E416F104F9F602E012E06701EE
:102A10005FEFC51AD50AC7010E94180AF801819311
:102A20008F017601FEEBCF16D10489F784E194E0A3
:102A30000E94FE0A62E370E080E090E00E9482045F
:102A400060E374E082EA9AE00E940D0B6091F9095C
:102A50007091FA098091FB099091FC09E8EECE2E65
:102A6000E3E0DE2EE12CF12CA70196010E943A2230
:102A7000CA01B9010E94ED0A62E370E080E090E0D3
:102A80000E9482046CE374E082EA9AE00E940D0BDB
:102A900060918A0970918B0980918C0990918D09C0
:102AA000A70196010E943A22CA01B9010E94ED0ACB
:102AB00062E370E080E090E00E94820466E474E0EB
:102AC00082EA9AE00E940D0B0AE919E02EE839E04B
:102AD0003C8F2B8FEB8DFC8D61917191FC8FEB8F77
:102AE00082EA9AE00E94A40A2B8D3C8D02171307FC
:102AF00089F70E94340A62E370E080E090E00E946F
:102B0000820461E574E082EA9AE00E940D0B4AE9D2
:102B100059E05A8F498FE98DFA8D61917191FA8F41
:102B2000E98F82EA9AE00E94A40A298D3A8D265AFA
:102B3000394089F70E94340A62E370E080E090E057
:102B40000E9482046BE574E082EA9AE00E940D0B19
:102B500072EBE72E79E0F72E10E000E0F7016191CB
:102B600071917F0182EA9AE00E94A40A0530110562
:102B700031F062E674E082EA9AE00E940D0B0F5F8A
:102B80001F4F0630110551F70E94340A62E370E0CE
:102B900080E090E00E94820465E674E082EA9AE0B8
:102BA0000E940D0B0AE619E0F8016081718182EA4A
:102BB0009AE00E94A40A62E674E082EA9AE00E9427
:102BC0000D0BF8016281738182EA9AE00E94A40AE7
:102BD00062E674E082EA9AE00E940D0B0E94340AD9
:102BE0000C5F1F4FF9E00A381F07F1F662E370E04F
:102BF00080E090E00E9482046DE674E082EA9AE050
:102C00000E940D0B80EC99E00E94FE0A6BE774E0D5
:102C100082EA9AE00E940D0B8DE59BE00E94490A32
:102C20006BE874E082EA9AE00E940D0B87E59BE076
:102C30000E94490A6DE974E082EA9AE00E940D0B55
:102C400081E59BE00E94490A8DEA94E00E94FE0A19
:102C50000E94380963EA73E088EF9BE00E940D0B45
:102C600061E080E00E948B096FEC74E088EF9BE0EC
:102C70000E940D0B84E690E09093E1098093E009B7
:102C80009093E3098093E2099093E5098093E40926
:102C90009093E7098093E6099093010280930002E4
:102CA00068EE262E63E0362E412C512C82EA9AE003
:102CB0000E945F02181619060CF018C167EE72E048
:102CC000CE0143960E949D0C0E941D0597FD27C0D2
:102CD0008A30910521F189831A820F89188D0F5F3F
:102CE0001F4FB801CE0143960E94750C882361F3F3
:102CF0002B893C898F89988DBE016F5F7F4F820F32
:102D0000931F0E949024188F0F8BDECF2C0D3D1D3A
:102D100034CEEE0DFF1D53CEE00FF11F70CE64EFE9
:102D200071E080E090E00E9482046BED74E0CE01DF
:102D300001960E949D0CBE016F5F7F4FCE014396AE
:102D40000E94070C182FCE0101960E946D0C1123D2
:102D500009F4E8C444E050E0BE016D5E7F4FCE014F
:102D600001960E94300DBE016F5F7F4FCE014396EA
:102D70000E94220CCE0101960E946D0C60E975E064
:102D8000CE0101960E949D0CBE016F5F7F4FCE0168
:102D900043960E94070C182FCE0101960E946D0CDD
:102DA000112321F14AE050E0BE016D5E7F4FCE015C
:102DB00001960E94300DCE0101960E941A0A9B01D5
:102DC000AC01A8EEB3E00E940C226093F909709365
:102DD000FA098093FB099093FC09CE0101960E94A9
:102DE0006D0C80EE94E00E94FE0A7CC062EA75E001
:102DF000CE0101960E949D0CBE016F5F7F4FCE01F8
:102E000043960E94070C182FCE0101960E946D0C6C
:102E1000112311F148E050E0BE016D5E7F4FCE01FD
:102E200001960E94300DCE0101960E941A0A9B0164
:102E3000AC01A8EEB3E00E940C2260938A09709363
:102E40008B0980938C0990938D09CE0101960E9485
:102E50006D0C8DEE94E0C7CF62EB75E0CE0101966C
:102E60000E949D0CBE016F5F7F4FCE0143960E9472
:102E7000070C182FCE0101960E946D0C112309F446
:102E800072C149E050E0BE016D5E7F4FCE010196F8
:102E90000E94300D0D811E81F12CE12CE016F1060F
:102EA00090F4B701CE0101960E94E101F701EE0F07
:102EB000FF1FE257F64F21E030E0813311F030E0A0
:102EC00020E0318320832FEFE21AF20A36E0E31686
:102ED000F10421F788EF94E00E94FE0ACE010196EA
:102EE0000E946D0CCE0143960E946D0C8091040AE5
:102EF0008234B9F556EAE52E59E0F52E63E7C62E81
:102F000062E0D62E10E000E0F6018081F2E0CF0E04
:102F1000D11C0E94A20321E030E0892B11F030E0A7
:102F200020E0F701219331937F0161E676E082EAA8
:102F30009AE00E940D0B0F5F1F4FB80182EA9AE0E2
:102F40000E94A40A63EA77E082EA9AE00E940D0BED
:102F5000F7013297808191810E94DE0A06301105C7
:102F600099F68091030A81116CC08091020A811147
:102F7000DDC687E20E94A203892B09F0D7C681E053
:102F80008093030A1092020A1092010A0E94B5046B
:102F90006093FD097093FE098093FF099093000AE6
:102FA0001092BF091092BE091092F8091092F70909
:102FB0001092F6091092F5091092F40907E912E04F
:102FC00041EAE42E42E0F42EF7018081F2E0EF0EB8
:102FD000F11C60E00E94CE03F80180810E5F1F4F5C
:102FE00060E00E94CE03FBEAEF16F2E0FF0661F715
:102FF0000E9438096DE57BE088EF9BE00E94F301B9
:1030000068EB7BE080E090E00E9482040E94B504BF
:10301000685E7340810991096093EC097093ED0932
:103020008093EE099093EF090E940F0B6CE271E020
:1030300080E090E00E9482048091030A882309F4D2
:1030400075C68091020A811171C68091010A8111B1
:10305000A0C40E940F0B0E94B5040091FD091091BD
:10306000FE092091FF093091000A601B710B820B51
:10307000930B0091F9091091FA092091FB09309105
:10308000FC096017710782079307E0F181E08093E4
:10309000020A0E9438096BE47BE088EF9BE00E9403
:1030A000F30161E080E00E948B0969E676E088EF39
:1030B0009BE00E940D0B01EA12E037E9E32E32E0BB
:1030C000F32EF7018081F2E0EF0EF11C61E00E9427
:1030D000CE030E151F05A9F784E690E09093010238
:1030E000809300029093E7098093E6099093E509A5
:1030F0008093E4099093E3098093E2099093E109B6
:103100008093E00981E08093CF0B0E94B504009189
:10311000BF0B1091C00B2091C10B3091C20BAB01C2
:10312000BC01401B510B620B730B8091CB0B909138
:10313000CC0BB0E0A0E084179507A607B70708F00E
:10314000FBC510E08091C90B181708F09FC4E091EF
:10315000C50BF091C60BE10FF11D62E080810E946A
:1031600000041F5FEFCF63EC75E0CE0101960E9473
:103170009D0CBE016F5F7F4FCE0143960E94070CEE
:10318000182FCE0101960E946D0C112351F148E0D9
:1031900050E0BE016D5E7F4FCE0101960E94300D62
:1031A0000D811E81F12CE12CE016F10680F4B701AF
:1031B000CE0101960E94E101F701EE0FFF1FE656D6
:1031C000F64F082E000C990BC097918380834FEF28
:1031D000E41AF40A56E0E516F10431F784E095E0CC
:1031E0007BCE63ED75E0CE0101960E949D0CBE0181
:1031F0006F5F7F4FCE0143960E94070C182FCE01C0
:1032000001960E946D0C112309F471C045E050E055
:10321000BE016D5E7F4FCE010D960E94300D10E015
:1032200000E0912C812CF12CE12CC988DA880C1556
:103230001D0508F055C0B801CE010D960E94E101B0
:10324000F80131965F018C3231F0F1E0CF1AD108EC
:103250000C151D05C1F567EE72E0CE0107960E94C0
:103260009D0C89899A8901970817190771F5492DCD
:10327000582DBE01635F7F4FCE0101960E94300D35
:10328000BE016F5F7F4FCE0107960E94220CCE01D8
:1032900001960E946D0C26E0E216F1045CF4CE016A
:1032A00007960E941A0AF701EE0FFF1FEE54F64F21
:1032B000718360839A2C8B2C3FEFE31AF30ACE01C3
:1032C00007960E946D0C8501B0CF9801492D582DAD
:1032D000BE01635F7F4FCE0101960E94CE0CD0CF1E
:1032E0008FE095E00E94FE0ACE010D96F9CD62EEC8
:1032F00075E0CE0101960E949D0CBE016F5F7F4F6D
:10330000CE0143960E94070C182FCE0101960E9411
:103310006D0C112309F47BC046E050E0BE016D5EE8
:103320007F4FCE010D960E94300D10E000E0D12CB1
:10333000C12C912C812CF12CE12CA988BA880A157A
:103340001B0508F061C0B801CE010D960E94E10195
:103350008C3239F041E0A41AB1080A151B0509F0B6
:1033600042C067EE72E0CE0107960E949D0C8989EB
:103370009A89019708171907C9F5A401BE01635F6F
:103380007F4FCE0101960E94300DBE016F5F7F4FCF
:10339000CE0107960E94220CCE0101960E946D0C70
:1033A000F8E0EF16F104BCF4CE0107960E941A0A69
:1033B000F701EE0FFF1FEC0DFD1DEE0FFF1FE6598D
:1033C000F64F71836083CA94CD28D1F48FEFE81A49
:1033D000F80AD12CC12C48019FEF891A990ACE0115
:1033E00007960E946D0C0F5F1F4FA7CF9801A40195
:1033F000BE01635F7F4FCE0101960E94CE0CC5CF08
:10340000CC24C394D12CE7CF87E195E06BCF60EF5C
:1034100075E0CE0101960E949D0CBE016F5F7F4F4B
:10342000CE0143960E94070C182FCE0101960E94F0
:103430006D0C112321F148E050E0BE016D5E7F4F1D
:10344000CE0101960E94300D0D811E8101151105DE
:1034500029F41092C00980E295E03ECD09301105B3
:1034600010F009E010E069817A81A80180EC99E010
:103470000E94A524F801E054F64F1082ECCF8F890A
:10348000988D892B09F484C06EE275E08B899C8944
:103490000E948724892B09F07BC069EF79E090E0D6
:1034A00080E00E94E8096AE879E084E090E00E9408
:1034B000E8091EE8E12E19E0F12E08E010E0F7011E
:1034C0006081F2E0EF0EF11CC8010E94FE210F5F47
:1034D0001F4F0E30110599F7BAE9EB2EB9E0FB2E1C
:1034E000F7016081F2E0EF0EF11CC8010E94FE219D
:1034F0000F5F1F4F0431110599F7A4E1CA2ED12C9B
:1035000086010256164F760122E0E20EF11CF80108
:10351000B1908F01C6010E94F621B81621F06B2DE3
:10352000C6010E94FE21FFEFCF1ADF0ACE14DF048E
:1035300071F720E2C216D10419F70AE619E0F80182
:103540006081C6010E94FE21F2E0CF0ED11CF8017D
:103550006281C60101970E94FE210C5F1F4FF0E3BC
:10356000CF16D10461F700EC19E0F0E3EF2EF12C57
:10357000F80161918F01C7010E94FE21FFEFEF1A50
:10358000FF0A2AE3E216F10499F78BE295E02BCCCF
:1035900063E375E0CE0101960E949D0CBE016F5F52
:1035A0007F4FCE0143960E94070C182FCE01019643
:1035B0000E946D0C112309F495CC44E050E0BE014B
:1035C0006D5E7F4FCE0101960E94300DBE016F5F90
:1035D0007F4FCE0143960E94220CCE0101960E949D
:1035E0006D0C64E076E0CE0101960E949D0CBE0158
:1035F0006F5F7F4FCE0143960E94070C182FCE01BC
:1036000001960E946D0C112361F046E050E0BE016E
:103610006D5E7F4FCE0101960E94300D88E395E0EC
:103620005BCC66E176E0CE0101960E949D0CBE0166
:103630006F5F7F4FCE0143960E94070C182FCE017B
:1036400001960E946D0C112361F048E050E0BE012C
:103650006D5E7F4FCE0101960E94300D85E495E0AE
:103660003BCC6AE276E0CE0101960E949D0CBE0141
:103670006F5F7F4FCE0143960E94070C182FCE013B
:1036800001960E946D0C112361F046E050E0BE01EE
:103690006D5E7F4FCE0101960E94300D84E595E06E
:1036A0001BCC6CE376E0CE0101960E949D0CBE011E
:1036B0006F5F7F4FCE0143960E94070C182FCE01FB
:1036C00001960E946D0C112361F048E050E0BE01AC
:1036D0006D5E7F4FCE0101960E94300D81E695E030
:1036E000FBCB60E576E0CE0101960E949D0CBE0109
:1036F0006F5F7F4FCE0143960E94070C182FCE01BB
:1037000001960E946D0C112309F4ECCB47E050E0C8
:10371000BE016D5E7F4FCE0101960E94300D80E7A5
:1037200095E0DACB8F89988D892B09F4DBCB0B8957
:103730001C896EE775E0C8010E9487246C01892B03
:1037400009F0ECC069E875E082EA9AE00E940D0B8E
:103750006091F9097091FA098091FB099091FC0937
:10376000A20191010E943A22CA01B9010E94ED0A08
:103770006BE975E082EA9AE00E940D0B60918A097C
:1037800070918B0980918C0990918D09A201910112
:103790000E943A22CA01B9010E94ED0A6BEA75E063
:1037A00082EA9AE00E940D0B0EE819E0F80161919F
:1037B00071918F0182EA9AE00E94A40A2B8D3C8DC0
:1037C0000217130799F70E94340A6CEB75E082EA3E
:1037D0009AE00E940D0B0AE919E0F80161917191DC
:1037E0008F0182EA9AE00E94A40A298D3A8D20175F
:1037F000310799F70E94340A6CEC75E082EA9AE08E
:103800000E940D0BE2EBEE2EE9E0FE2E10E000E050
:10381000F701619171917F0182EA9AE00E94A40A06
:103820000530110531F069ED75E082EA9AE00E94F9
:103830000D0B0F5F1F4F0630110551F70E94340A20
:103840006BED75E082EA9AE00E940D0B0AE619E042
:10385000F8016081718182EA9AE00E94A40A69ED10
:1038600075E082EA9AE00E940D0BF8016281738193
:1038700082EA9AE00E94A40AF7E0CF16D10431F060
:1038800069ED75E082EA9AE00E940D0B2FEFC21AF3
:10389000D20A0C5F1F4F38E0C316D104C9F60E944C
:1038A000340A69EE75E082EA9AE00E940D0B80EC22
:1038B00099E00E94FE0A69EF75E082EA9AE00E94B0
:1038C0000D0B8DE59BE00E94490A6BE076E082EAF1
:1038D0009AE00E940D0B87E59BE00E94490A6FE188
:1038E00076E082EA9AE00E940D0B81E59BE00E945F
:1038F000490A61E376E082EA9AE00E940D0B82E0D9
:1039000092E00E94FE0A65E476E082EA9AE00E9474
:103910000D0B8BE49BE00E94490AE4CA6BE576E05C
:10392000C8010E948724892B09F0DCCA1092030A7F
:103930001092020A07E912E071EAE72E72E0F72E10
:10394000F7018081F2E0EF0EF11C60E00E94CE03EF
:10395000F80180810E5F1F4F60E00E94CE03FBEAFA
:10396000EF16F2E0FF0661F70E94380963EA73E0A0
:1039700088EF9BE00E940D0B61E080E00E948B09C4
:103980006FEC74E088EF9BE00E940D0B88E596E0F9
:103990002ACA0E94B504C090F009D090F109E090C5
:1039A000F209F090F3096C197D098E099F096136BF
:1039B0007A4E8105910518F11092010A0E9438098A
:1039C00068E973E088EF9BE00E940D0B0E94E2081B
:1039D0000E94C50860ED77E080E090E00E948204DC
:1039E0000E94B504685E7340810991096093EC09F7
:1039F0007093ED098093EE099093EF092CCB0E9410
:103A0000B5040091E8091091E9092091EA09309183
:103A1000EB09601B710B820B930B683E73408105B1
:103A2000910508F418CB0E94B5046093E8097093DF
:103A3000E9098093EA099093EB090E94B50440E6F6
:103A4000C40E4AEED41EE11CF11CA7019601261BF0
:103A5000370B480B590BCA01B901A20191010E9411
:103A60003A226901890160E08EE00E948B090A30E8
:103A7000110534F468EF72E088EF9BE00E940D0BB3
:103A8000B60188EF9BE00E94A40AE5CA912C8091C0
:103A9000CA0B981608F063C0E92CF12CE091C70B13
:103AA000F091C80BEE0DFF1D61E080810E940004C3
:103AB000E091C70BF091C80BEE0DFF1D60E0808117
:103AC0000E94CE0381E090E0A0E0B0E0092C04C0A9
:103AD000880F991FAA1FBB1F0A94D2F75C016C01C3
:103AE000C094D094812C8091C90B881608F5082DBC
:103AF00010E0E091C50BF091C60BE00FF11F808143
:103B00000E94A2030C5F1F4F000F111FF801ED5917
:103B1000F44F892B41F4808191818A299B299183DB
:103B200080838394E0CF808191818C219D21F7CF88
:103B3000E091C70BF091C80BEE0DFF1D61E0808195
:103B40000E94CE038091C70B9091C80BE80EF91E1E
:103B500060E0F70180810E940004939498CF03E60F
:103B60001BE08FE99BE07801F701278D30A1232B23
:103B700031F4148E2FEF3FEF368F258F11A236E0F0
:103B8000E30EF11C8E159F0579F7D12C96E0B92E26
:103B90008091C90BD81608F052C0C12C8D2C912CE5
:103BA000880C991CA4014559544F4A012091CA0B15
:103BB000C21608F042C0F401608171810C2C02C071
:103BC000769567950A94E2F7D29E900111242C0D08
:103BD000311DE3E6FBE080E0458D568D2417350767
:103BE00009F4B6C38F5F36968A30B1F760FF23C001
:103BF000E3E6FBE090E080E0448D411117C0E091E6
:103C0000C30BF091C40BE20FF31F4081B89EF0018B
:103C1000B99EF00D1124ED59F44F448F368F258F46
:103C200010A2178E61E00E94C10405C0019636966D
:103C30008A30910509F7C394B9CFD394A9CF80E016
:103C4000F801D1A0D11001C0D82E0A5F1F4FE01695
:103C5000F10609F06FC00E94B5046093BF0B70932A
:103C6000C00B8093C10B9093C20BDD2009F464C09C
:103C70008091840B882309F45FC08091820B90911E
:103C8000830B019709F058C000917F0B011157C0B9
:103C90008091F809882309F449C08091F7098823A5
:103CA00009F444C08091F609882309F43FC080914B
:103CB000F5098823D9F18091F4098823B9F181E0CD
:103CC0008093020A0E94380962E072E088EF9BE06C
:103CD0000E940D0B61E080E00E948B096EE678E0A7
:103CE00088EF9BE00E940D0B01EA12E0F801808151
:103CF0000E5F1F4F61E00E94CE0360167106B1F7A0
:103D000084E690E090930102809300029093E7098B
:103D10008093E6099093E5098093E4099093E30981
:103D20008093E2099093E1098093E0090E940E03D9
:103D30000C9456168D2D84CF1092CF0BA9CF6AE725
:103D400076E082EA9AE00E940D0B802F0E943A0AE8
:103D50001091010A1111A8C068E876E082EA9AE0A1
:103D60000E940D0B802F0E943A0A61E377E082EAFD
:103D70009AE00E940D0B8091E2099091E3090E9464
:103D8000DE0A8091E0099091E1090134C9F0809147
:103D9000E2099091E309023499F08091E40990914D
:103DA000E509033469F08091E6099091E70904344C
:103DB00039F00A3209F06CCF809100029091010233
:103DC0008436910509F064CF81E08093010A009365
:103DD000040A0E94B5046093F0097093F10980937E
:103DE000F2099093F3091092DF091092DE09109204
:103DF000CA098091E0099091E1090E94DE0A0E94BF
:103E00003809023451F1BCF40A3209F440C00134DB
:103E100009F03ECF65EA76E088EF9BE00E940D0B4B
:103E200061E080E00E948B0961EB76E088EF9BE027
:103E30000E940D0B2DCF0334E9F0043409F028CF94
:103E400063EF76E088EF9BE00E940D0B61E080E07D
:103E50000E948B096EEF76E0E9CF61EC76E088EFA7
:103E60009BE00E940D0B61E080E00E948B096DECED
:103E700076E0DCCF6EED76E088EF9BE00E940D0BE4
:103E800061E080E00E948B0964EE76E0CFCF6FE0C6
:103E900077E088EF9BE00E940D0B61E080E00E94DC
:103EA0008B096BE177E0C2CF8091040A033209F0FD
:103EB00025C21092010A823409F4C1C024F58A3265
:103EC00009F4C7C1813471F160ED77E080E090E0E2
:103ED0000E9482040E94B504685E734081099109C2
:103EE0006093EC097093ED098093EE099093EF09CC
:103EF0006DE478E082EA9AE00E940D0B8091040A5A
:103F00000E943A0AC5CE833409F4EFC08434E1F646
:103F10008091E6099091E70984369105A9F60E94FF
:103F20003C0DD2CF8091E0099091E1098436910552
:103F300059F6BEE88B2EB9E09B2E0FE7C02E02E0AB
:103F4000D02EF12CE12CF6018081F2E0CF0ED11CB5
:103F50000E94A203AA24A394B12C892B11F0B12CA6
:103F6000A12C68E277E082EA9AE00E940D0BB7018B
:103F700082EA9AE00E94A40A60E377E082EA9AE08B
:103F80000E940D0BC5010E94DE0AF40181919191FE
:103F90004F01A816B90609F041C0FFEFEF1AFF0A5A
:103FA00026E0E216F10479F60E9438091123C1F1E6
:103FB00081E08093F8098091BE099091BF099C012E
:103FC0002F5F3F4F3093BF092093BE092630310544
:103FD000B4F4880F991FFC01EF55FD4F61E080811B
:103FE0000E94CE0369E377E082EA9AE00E940D0B1B
:103FF0008091BE099091BF0901970E94DE0A6FE48B
:1040000077E088EF9BE00E940D0B61E080E00E946A
:104010008B091092E1091092E00956CF10E0C4CF4D
:1040200061E677E088EF9BE00E940D0B61E080E0A5
:104030000E948B090E94E2080E94C50845CF80912A
:10404000E2099091E3098436910509F03DCFA6EA93
:10405000B9E0EAE9F9E090E080E04D915D9161918D
:104060007191019621E030E06817790711F030E096
:1040700020E04217530719F062E978E032C1863038
:10408000910559F781E08093F7098091BE099091DD
:10409000BF0901969093BF098093BE096EE778E04F
:1040A000CE0101960E949D0CCE0101960E946A09E4
:1040B000CE0101960E946D0C8091BE099091BF09BE
:1040C000863091054CF4880F991FFC01E156FD4F95
:1040D00061E080810E94CE0381E797E00E94FE0AA2
:1040E0001092E3091092E209EFCE8091E4099091D9
:1040F000E5098436910509F0E7CE6EE777E082EABC
:104100009AE00E940D0B5BE8E52E52E0F52E67E980
:10411000C62E62E0D62E42EB59E05E8F4D8F5701DE
:104120007AE0872E912CF5018081F2E0AF0EB11C70
:104130000E944004ED8DFE8D21913191FE8FED8F17
:10414000B4010E942622621B730B77FF03C0719596
:1041500061957109633371050CF066C0CA14DB0404
:1041600011F742EBA42E49E0B42EF7018081F2E072
:10417000EF0EF11C0E9440044C0167E977E082EAEF
:104180009AE00E940D0BB40182EA9AE00E94A40A10
:1041900066EA77E082EA9AE00E940D0BF5018191D0
:1041A00091915F010E94DE0ACE14DF04F1F68AEBE2
:1041B00097E00E94FE0A1123C9F181E08093F6097D
:1041C0008091BE099091BF0901969093BF09809399
:1041D000BE0962EE77E0CE0101960E949D0CCE01F1
:1041E00001960E946A09CE0101960E946D0C809191
:1041F000BE099091BF09863091054CF4880F991F34
:10420000FC01E156FD4F61E080810E94CE031092D7
:10421000E5091092E4098CEE97E00E94FE0A87E01F
:1042200098E00E94FE0A50CE10E09BCF6AEF77E044
:10423000CE0101960E949D0CCE0101960E94430979
:10424000CE0101960E946D0C0E94E2080E94C508F2
:10425000E6CF80910002909101028436910509F029
:1042600033CEE091DE09F091DF09E653F64F10827C
:1042700060EC79E08AEC99E00E948724892B79F53B
:1042800081E08093F4098091BE099091BF09019665
:104290009093BF098093BE0965E278E0CE01019654
:1042A0000E949D0CCE0101960E946A09CE010196E2
:1042B0000E946D0C8091BE099091BF0986309105D6
:1042C0004CF4880F991FFC01E156FD4F61E080819D
:1042D0000E94CE031092010210920002F5CD6AE313
:1042E00078E0CE0101960E949D0CCE0101960E94BD
:1042F0004309CE0101960E946D0C9CCE8A3209F0D2
:10430000C7CC0A3209F4C4CC8091DE099091DF0950
:10431000833191050CF0BCCC9C012F5F3F4F309353
:10432000DF092093DE098653964FFC010083265354
:10433000364FF901108261E080E00E948B096BE149
:1043400077E088EF9BE00E940D0B6AEC79E06ECD80
:10435000617069CC8BE49BE00E946D0C81E59BE071
:104360000E946D0C87E59BE00E946D0C8DE59BE043
:104370000C946D0C1F93FC0199278827BC01E894CD
:1043800011911032E9F3193010F01E30C8F31B32CE
:1043900051F01D3249F4689406C00E94E121610F7A
:1043A000711D811D911D119110531A30B0F33EF40F
:1043B00090958095709561957F4F8F4F9F4F1F917E
:1043C0000895592F482F372F262F660F771F881FE4
:1043D000991F660F771F881F991F620F731F841F15
:1043E000951F660F771F881F991F0895F999FECFB3
:1043F00092BD81BDF89A992780B50895262FF99925
:10440000FECF1FBA92BD81BD20BD0FB6F894FA9AB7
:10441000F99A0FBE019608950E941722A59F900D4C
:10442000B49F900DA49F800D911D11240895A29F0B
:10443000B001B39FC001A39F700D811D1124911D78
:10444000B29F700D811D1124911D089597FB072EB9
:1044500016F4009407D077FD09D00E94642207FC6F
:1044600005D03EF4909581959F4F08957095619584
:104470007F4F0895A1E21A2EAA1BBB1BFD010DC0A0
:10448000AA1FBB1FEE1FFF1FA217B307E407F50704
:1044900020F0A21BB30BE40BF50B661F771F881FE0
:1044A000991F1A9469F760957095809590959B0176
:1044B000AC01BD01CF010895EE0FFF1F881F8BBF18
:1044C0000790F691E02D1994AA1BBB1B51E107C080
:1044D000AA1FBB1FA617B70710F0A61BB70B881F94
:1044E000991F5A95A9F780959095BC01CD01089523
:1044F0000F931F93CF93DF938230910510F482E0E6
:1045000090E0E091060CF091070C30E020E0B0E084
:10451000A0E0309799F42115310509F44AC0281B11
:10452000390B24303105D8F58A819B8161157105DD
:1045300089F1FB0193838283FE0111C04081518187
:104540000281138148175907E0F04817590799F479
:10455000109761F012960C93129713961C93329653
:10456000CF01DF91CF911F910F9108950093060C19
:104570001093070CF4CF2115310551F04217530762
:1045800038F0A901DB019A01BD01DF01F801C1CFBB
:10459000EF01F9CF9093070C8093060CCDCFFE016D
:1045A000E20FF31F819391932250310939832883BD
:1045B000D7CF2091040C3091050C232B41F420918E
:1045C0003D0230913E023093050C2093040C209163
:1045D0003B0230913C022115310541F42DB73EB725
:1045E00040913F0250914002241B350BE091040C96
:1045F000F091050CE217F307A0F42E1B3F0B2817D0
:10460000390778F0AC014E5F5F4F2417350748F04B
:104610004E0F5F1F5093050C4093040C81939193B0
:104620009FCFF0E0E0E09CCFCF93DF930097E9F0DD
:10463000FC01329713821282A091060CB091070CF4
:10464000ED0130E020E01097A1F420813181820F4C
:10465000931F2091040C3091050C2817390709F09D
:1046600061C0F093050CE093040CDF91CF910895A5
:10467000EA01CE17DF07E8F54A815B819E0141150B
:104680005105B1F7E901FB83EA8349915991C40FC0
:10469000D51FEC17FD0761F4808191810296840F8C
:1046A000951FE90199838883828193819B838A8303
:1046B000F0E0E0E012968D919C9113970097B9F588
:1046C0002D913C911197CD010296820F931F20915D
:1046D000040C3091050C2817390739F6309751F53D
:1046E0001092070C1092060CB093050CA093040CCA
:1046F000BCCFD383C28340815181840F951FC817DB
:10470000D90761F44E5F5F4F88819981480F591F27
:10471000518340838A819B81938382832115310554
:1047200009F0B0CFF093070CE093060C9ECFFD018B
:10473000DC01C0CF13821282D7CF4F925F926F926B
:104740007F928F929F92AF92BF92CF92DF92EF9221
:10475000FF920F931F93CF93DF938C01009799F4EF
:10476000CB01DF91CF911F910F91FF90EF90DF90E0
:10477000CF90BF90AF909F908F907F906F905F9001
:104780004F900C947822FC01E60FF71F9C012250F9
:104790003109E217F30708F4AEC0D901CD91DC91DD
:1047A0001197C617D70720F1C530D10578F0CE0193
:1047B00004978617970750F0C61BD70B2297C19313
:1047C000D1936D937C93CF010E941423C801DF9194
:1047D000CF911F910F91FF90EF90DF90CF90BF90FE
:1047E000AF909F908F907F906F905F904F900895C3
:1047F0005B01AC1ABD0A4C018C0E9D1EA091060CEB
:10480000B091070C512C412CF12CE12C109731F573
:104810008091040C9091050C8815990509F05CC0F5
:104820004616570608F058C080913B0290913C0212
:10483000009741F48DB79EB740913F0250914002DE
:10484000841B950BE817F90708F055C0F093050C89
:10485000E093040CF90171836083B8CF8D919C9132
:10486000119712966C90129713967C901397A81537
:10487000B90559F56C0142E0C40ED11CCA14DB0421
:1048800020F1AC014A195B09DA011296159780F004
:104890006282738251834083D9016D937C93E114CA
:1048A000F10471F0D7011396FC93EE9312978ECF1B
:1048B00022968C0F9D1FF90191838083F301EFCF26
:1048C000F093070CE093060C81CF4816590608F4C4
:1048D0002C017D01D3019ACFCB010E9478227C016B
:1048E000009749F0AE01B8010E947E24C8010E94E1
:1048F000142387016BCF10E000E068CFFB01DC01DF
:1049000002C001900D9241505040D8F70895FB012C
:10491000DC018D91019080190110D9F3990B089554
:10492000FB01DC0101900D920020E1F70895FB01ED
:10493000DC014150504030F08D910190801919F404
:104940000020B9F7881B990B0895FB01DC01415049
:10495000504048F001900D920020C9F701C01D920F
:1049600041505040E0F7089511E0C1E6D1E000E089
:1049700006C0802FFE010E945C222196011DC236D6
:10498000D10780E00807A9F7F894FFCF64005669C3
:1049900063746F72792120416C6C207461736B7346
:1049A00020646F6E65210000000000000000000818
:1049B000090C0D3E3F4041313233413435364237E8
:1049C0003839432A3023440000080C80000000409E
:1049D00000140054007EFF06000100000000EF1EDE
:1049E000001F0020002100220023002400250029B0
:1049F000002A002B002C002D002E002F003000027A
:104A00000003000400050006000700160017001848
:104A10000019001A001B0036003700380039003A30
:104A2000003B001C001D002600280031003200332E
:104A300000340035003C0000000000A10201022EFD
:104A400002EE025F023D02510200000000AC077F4F
:104A500007C2085507780765075607000000003CA5
:104A600004FC03CB0300000000BC090102C208F2F1
:104A7000010D0A0054696D652072656D61696E698A
:104A80006E673A003000436865636B696E67206A41
:104A900061636B20636F6E6E656374696F6E732EF6
:104AA0002E2E004A61636B20636F6E6E2E204F4B7B
:104AB00021004A61636B20636F6E6E656374696F7A
:104AC0006E73204F4B21004A61636B207365712E1A
:104AD0002077726F6E6721006A61636B206368657F
:104AE000636B206661696C65640047616D65205386
:104AF0007461727465642120476F6F64206C756304
:104B00006B210057656C6C20646F6E6521005472D8
:104B10007920616761696E210047616D65204F767C
:104B20006572212054696D65277320757021004BD3
:104B30006579706164204C45442047616D6500498A
:104B40006E697469616C697A696E672E2E2E0053E6
:104B5000442043617264204572726F722100436881
:104B600065636B2053442043617264004D503320D1
:104B7000506C61796572204572726F720047616D89
:104B8000652077696C6C20636F6E74696E75650063
:104B900054657374696E67204C4544732E2E2E0045
:104BA0002D2D2D73617665642020436F6E666967D5
:104BB00075726174696F6E202D2D2D00436F756EB7
:104BC00074646F776E3A200050656E616C74793A48
:104BD000200053776974636865733A2000427574E6
:104BE000746F6E733A2000506F74733A20002C205B
:104BF000004A61636B733A20004B657970616420F1
:104C0000436F64653A20005374617274204D65737C
:104C1000736167653A2000436F7272656374204D5B
:104C20006573736167653A200057726F6E67204D38
:104C30006573736167653A20006E6F7720636F6EEE
:104C40006E65637420746865204755492020636F42
:104C50006E666967757261746F7200507265737306
:104C6000205354415254005345543A004F4B3A4359
:104C70004F554E54444F574E004F4B3A50454E41BE
:104C80004C5459004F4B3A535749544348455300ED
:104C90004F4B3A425554544F4E53004F4B3A504F9E
:104CA0005453004F4B3A4A41434B53004F4B3A4BFE
:104CB0004559434F4445004F4B3A53415645004DEB
:104CC00053473A004F4B3A4D53473A53544152548D
:104CD000004F4B3A4D53473A434F525245435400CD
:104CE0004F4B3A4D53473A57524F4E47004F4B3A6E
:104CF0004D53473A564943544F5259004F4B3A4D42
:104D000053473A444546454154004745543A434F7A
:104D10004E46494700434F4E4649473A434F554E4A
:104D200054444F574E3A00434F4E4649473A504538
:104D30004E414C54593A00434F4E4649473A535717
:104D40004954434845533A00434F4E4649473A4237
:104D50005554544F4E533A00434F4E4649473A50EC
:104D60004F54533A002C00434F4E4649473A4A416C
:104D7000434B533A00434F4E4649473A4B455943FC
:104D80004F44453A00434F4E4649473A4D53473A00
:104D900053544152543A00434F4E4649473A4D53BB
:104DA000473A434F52524543543A00434F4E4649C7
:104DB000473A4D53473A57524F4E473A00434F4EAA
:104DC0004649473A4D53473A564943544F52593A48
:104DD00000434F4E4649473A4D53473A44454645AE
:104DE00041543A004F4B3A52455345540042757472
:104DF000746F6E200054696D6527732075702120D3
:104E00002020202020004B65792070726573736527
:104E1000643A20004B657920707265737365642075
:104E2000736571206E6F74206163746976653A20D2
:104E300000537769746368207365712E005365743D
:104E40002073776974636865732E2E2E0042757423
:104E5000746F6E207365712E0050726573732062DB
:104E60007574746F6E732E2E2E00506F74732E0037
:104E700041646A75737420706F74732E2E2E004A0D
:104E800061636B20636F6E6E2E00436F6E6E6563A1
:104E900074206A61636B732E2E2E004B65797061EE
:104EA0006420636F646500456E74657220636F648F
:104EB000653A200053776974636820002073746139
:104EC00074653A20005475726E696E67206F6E20AB
:104ED000475245454E204C45442000537769746342
:104EE00068657320636F727265637421005377691C
:104EF00074636865732077726F6E672100627574E2
:104F0000746F6E20726967687400436865636B69CB
:104F10006E6720706F742073657175656E63652EA2
:104F20002E2E00706F742072656164696E67203A7E
:104F30002000207C7C20736176656420726561644A
:104F4000696E67203A00506F74656E74696F6D65A5
:104F500074657220636865636B20636F6D706C6548
:104F600074652E20616E616C7973696E6700506F95
:104F700074732E204F4B2100706F74207269676824
:104F8000742073657100506F74732E2077726F6E8A
:104F9000672100506F74656E74696F6D657465721A
:104FA00020636865636B20636F6D706C6574652E3C
:104FB000004B657970616420636F646520636F7274
:104FC0007265637421004B657970616420636F645E
:104FD000652077726F6E6721004B65792074797058
:104FE00065207072657373656420736571206163F9
:104FF000746976652076323A2000416C6C207461C9
:10500000736B7320646F6E652100427574746F6EEC
:105010002073657120636F7272656374210042753D
:1050200074746F6E207365712077726F6E672100E4
:020000040003F7
:10E000000D9489F10D94B2F10D94B2F10D94B2F129
:10E010000D94B2F10D94B2F10D94B2F10D94B2F1F0
:10E020000D94B2F10D94B2F10D94B2F10D94B2F1E0
:10E030000D94B2F10D94B2F10D94B2F10D94B2F1D0
:10E040000D94B2F10D94B2F10D94B2F10D94B2F1C0
:10E050000D94B2F10D94B2F10D94B2F10D94B2F1B0
:10E060000D94B2F10D94B2F10D94B2F10D94B2F1A0
:10E070000D94B2F10D94B2F10D94B2F10D94B2F190
:10E080000D94B2F10D94B2F10D94B2F10D94B2F180
:10E090000D94B2F10D94B2F10D94B2F10D94B2F170
:10E0A0000D94B2F10D94B2F10D94B2F10D94B2F160
:10E0B0000D94B2F10D94B2F10D94B2F10D94B2F150
:10E0C0000D94B2F10D94B2F10D94B2F10D94B2F140
:10E0D0000D94B2F10D94B2F10D94B2F10D94B2F130
:10E0E0000D94B2F141546D656761323536300041AF
:10E0F000726475696E6F206578706C6F72657220DE
:10E1000073746B3530305632206279204D4C530099
:10E11000426F6F746C6F616465723E004875683F52
:10E1200000436F6D70696C6564206F6E203D200048
:10E130004350552054797065202020203D20005FF9
:10E140005F4156525F415243485F5F3D2000415658
:10E1500052204C696243205665723D20004743437C
:10E160002056657273696F6E203D20004350552024
:10E1700049442020202020203D20004C6F7720663D
:10E18000757365202020203D20004869676820665F
:10E190007573652020203D200045787420667573D6
:10E1A00065202020203D20004C6F636B2066757336
:10E1B000652020203D20004D617220203720323024
:10E1C000313300312E362E3800342E332E350056A2
:10E1D00023202020414444522020206F7020636F70
:10E1E00064652020202020696E73747275637469E1
:10E1F0006F6E2061646472202020496E74657272B3
:10E20000757074006E6F20766563746F7200726A49
:10E210006D702020006A6D70200057686174207056
:10E220006F72743A00506F7274206E6F7420737541
:10E2300070706F72746564004D7573742062652030
:10E2400061206C6574746572002000577269747483
:10E25000696E672045450052656164696E672045B7
:10E26000450045452065727220636E743D00504F35
:10E27000525400303D5A65726F2061646472003FF1
:10E280003D43505520737461747300403D454550C3
:10E29000524F4D207465737400423D426C696E6B41
:10E2A000204C454400453D44756D70204545505215
:10E2B0004F4D00463D44756D7020464C415348001B
:10E2C000483D48656C70004C3D4C69737420492F83
:10E2D0004F20506F72747300513D51756974005234
:10E2E0003D44756D702052414D00563D73686F7707
:10E2F00020696E7465727275707420566563746FF0
:10E30000727300593D506F727420626C696E6B00BD
:10E310002A0011241FBECFEFD1E2DEBFCDBF01E046
:10E320000CBF12E0A0E0B2E0EEE1FDEF03E00BBFB6
:10E3300002C007900D92A030B107D9F712E0A0E01B
:10E34000B2E001C01D92AE30B107E1F70F9460F367
:10E350000D948DFE01E20EBF0FEF0DBF11241FBE05
:10E360000D9460F30D9400F020E030E040ED57E0B4
:10E3700005C0FA013197F1F72F5F3F4F2817390792
:10E38000C0F308959C01260F311DC901A0E0B0E043
:10E390002F5F3F4FABBFFC018791882361F08093D3
:10E3A000C6008091C00086FFFCCF8091C0008064D1
:10E3B0008093C000EACF08958DE08093C6008091DD
:10E3C000C00086FFFCCF8091C00080648093C000B5
:10E3D0008AE08093C6008091C00086FFFCCF8091C8
:10E3E000C00080648093C00008950F94C2F10F9420
:10E3F000DCF10895FC019081992359F09093C600B7
:10E400008091C00086FFFCCF8091C0008064809323
:10E41000C0003196992379F70895282F982F929567
:10E420009F70892F805D8A3308F0895F8093C600D2
:10E430008091C00086FFFCCF8091C00080648093F3
:10E44000C000822F8F70982F905D9A3308F0995FEB
:10E450009093C6008091C00086FFFCCF8091C000E1
:10E4600080648093C00008959C01FB01853691056E
:10E470001CF46330710594F0C90164E670E00F94F8
:10E480002EFE605D7F4F6093C6008091C00086FFC6
:10E49000FCCF8091C00080648093C0002B30310598
:10E4A00014F43297B4F0C90164E670E00F942EFEC4
:10E4B0006AE070E00F942EFE605D7F4F6093C600AF
:10E4C0008091C00086FFFCCF8091C0008064809363
:10E4D000C000C9016AE070E00F942EFEC0968093E0
:10E4E000C6008091C00086FFFCCF8091C000806490
:10E4F0008093C00008951F93182F8EE692EE60E07F
:10E500000F94C2F11093C6008091C00086FFFCCF2B
:10E510008091C00080648093C0000F94DCF11F9153
:10E5200008952F923F924F925F926F927F928F92B7
:10E530009F92AF92BF92CF92DF92EF92FF920F9392
:10E540001F93DF93CF93CDB7DEB762970FB6F894E2
:10E55000DEBF0FBECDBF382E622ECA01DB015C01CB
:10E560006D01772420E2222E2E010894411C511CBB
:10E570008BC081E0A81680E0B80681E0C80680E084
:10E58000D80628F0C601AA27BB270F940DF2BB2797
:10E59000AD2D9C2D8B2D0F940DF28A2D0F940DF225
:10E5A0002092C6008091C00086FFFCCF8091C00001
:10E5B00080648093C0009DE29093C6008091C0006B
:10E5C00086FFFCCF8091C00080648093C0002092C1
:10E5D000C6008091C00086FFFCCF8091C00080649F
:10E5E0008093C00019828601750188249924A1E0D6
:10E5F0003A1651F03A1620F0B2E03B1661F409C029
:10E600000BBFF701779007C0C7010F9477FE782EF4
:10E6100002C0F7017080872D0F940DF22092C60082
:10E620008091C00086FFFCCF8091C0008064809301
:10E63000C000872D8052F401EF70F0708F3520F408
:10E64000E40DF51D708204C0E40DF51D8EE280839B
:10E650000894E11CF11C011D111D0894811C911CE2
:10E6600090E18916910409F0C2CF80E190E0A0E02A
:10E67000B0E0A80EB91ECA1EDB1E198AC2010F9493
:10E68000FAF10F94DCF16A94662009F072CF629679
:10E690000FB6F894DEBF0FBECDBFCF91DF911F91B3
:10E6A0000F91FF90EF90DF90CF90BF90AF909F9031
:10E6B0008F907F906F905F904F903F902F90089534
:10E6C0002F923F924F925F926F927F928F929F9282
:10E6D000AF92BF92CF92DF92EF92FF920F931F9370
:10E6E000DF93CF93CDB7DEB7CD53D1400FB6F894BB
:10E6F000DEBF0FBECDBF01E20EBF0FEF0DBF94B75F
:10E70000F894A89514BE80916000886180936000A1
:10E7100010926000789493FF05C0E0910002F091A0
:10E7200001021995279A2F9A8091C00082608093E8
:10E73000C00080E18093C40088E18093C1000000A4
:10E74000EE24FF24870144E0A42EB12CCC24DD2448
:10E7500024C0C5010197F1F70894E11CF11C011DCB
:10E76000111D21E2E2162EE4F20620E0020720E06D
:10E77000120718F031E0C32ED12CC801B70127ECE5
:10E780003BE140E050E00F9441FE611571058105C9
:10E79000910519F485B1805885B98091C00087FD35
:10E7A00003C0C114D104A9F2A6014F5F5F4FC25E3E
:10E7B000DE4F59834883CE51D140C25EDE4F8881FF
:10E7C0009981CE51D140019711F00D9410FEC05D9A
:10E7D000DE4F19821882C053D14060E0C15DDE4F28
:10E7E0001882CF52D14088249924C35DDE4F19820C
:10E7F0001882CD52D140C05EDE4F188219821A8233
:10E800001B82C052D140CE5CDE4F188219821A8220
:10E810001B82C253D140EE24FF2487010BBFF701B6
:10E8200007911691C45CDE4F19830883CC53D14005
:10E830000D940BFEC25EDE4F28813981CE51D1404E
:10E840002130310509F52091C600C25EDE4F1982E4
:10E850001882CE51D14022C02F5F3F4F4F4F5F4FA4
:10E86000213082E138078AE7480780E0580780F0C6
:10E87000C45CDE4FE881F981CC53D140EF5FFF4F9C
:10E8800019F0EE27FF27099420E030E040E050E047
:10E890008091C00087FFE0CF2091C600C35DDE4FAE
:10E8A00048815981CD52D1404F5F5F4FC35DDE4FEC
:10E8B00059834883CD52D140213209F063C64A3092
:10E8C000510508F05FC60894811C911C53E0851621
:10E8D000910409F059C600E010E018C081E280936D
:10E8E000C6008091C00086FFFCCF8091C00080648C
:10E8F0008093C0002F5F3F4F2931310579F70F9486
:10E90000DCF10F5F1F4F0530110519F020E030E0FA
:10E91000E5CF10920A0210920B0210920C02109294
:10E920000D02109206021092070210920802109235
:10E930000902109202021092030210920402109235
:10E9400005028FEE90EE60E00F94F5F180E191EE1C
:10E9500060E00F94C2F18091C00087FFFCCF9091DE
:10E96000C600903608F09F759032B8F09093C600BC
:10E970008091C00086FFFCCF8091C00080648093AE
:10E98000C000A0E2A093C6008091C00086FFFCCF2B
:10E990008091C00080648093C000983409F4D7C18E
:10E9A0009934B8F4923409F459C1933458F490333B
:10E9B00019F1903308F4E3C59F33A1F1903409F0C5
:10E9C000DEC5BDC0953409F470C1963409F0D7C5D1
:10E9D00098C1923509F42BC2933538F49C3409F46C
:10E9E000F5C1913509F0CBC518C2963509F445C279
:10E9F000993509F0C4C567C483E792EE62E00F94CD
:10EA0000F5F110920602109207021092080210927D
:10EA1000090210920A0210920B0210920C0210923C
:10EA20000D0213C18FE792EE62E00F94F5F18FEEC5
:10EA300090EE60E00F94F5F181E291EE60E00F94CA
:10EA4000C2F187EB91EE60E00F94F5F180E391EE77
:10EA500060E00F94C2F184EE90EE60E00F94F5F167
:10EA60008FE391EE60E00F94C2F186E090E061E008
:10EA700070E00F9434F20F94DCF18DE591EE60E0DC
:10EA80000F94C2F189EC91EE60E00F94F5F18EE401
:10EA900091EE60E00F94C2F183EC91EE60E00F9490
