:100000000C9462010C9493010C9493010C94930151
:100010000C9493010C9493010C9493010C94930110
:100020000C9493010C94E70F0C94E70F0C94E70FDA
:100030000C9493010C9493010C9493010C949301F0
:100040000C9493010C9493010C9493010C949301E0
:100050000C9493010C9493010C9493010C949D0FB8
:100060000C9493010C94670F0C943D0F0C94930126
:100070000C9493010C9493010C9493010C949301B0
:100080000C9493010C9493010C9493010C949301A0
:100090000C94070F0C94DD0E0C9493010C94F10F4B
:1000A0000C9493010C9493010C9493010C94930180
:1000B0000C9493010C9493010C9493010C94930170
:1000C0000C9493010C9493010C9493010C94930160
:1000D0000C9493010C9493010C9493010C94930150
:1000E0000C9493010C9471020C9463020C94A2037F
:1000F0000C9413020C9400030C9486050C948F0549
:100100000C9491050C94DF010C9415110C94A6032A
:100110000C948D050C948A030C944F020C9480036C
:100120000C94B3020C9471050C9490030C946B0323
:100130000C94DC090C9440020C94E0010C94AC0388
:100140000C949E030C94DD030C9454070C945307F9
:100150000C946A050C94C0080C9479030C947F05E8
:100160000C947D070C9476070C949C200C947D03D2
:100170000C94B0030C94AB030C9486030C94AA0764
:100180000C9498030C9494030C9463070C9404024D
:100190000C940E040C944E040C9471030C9475038F
:1001A00000002100240027002A002D003000330029
:1001B00001010000040107010A01000022002500DE
:1001C00028002B002E003100340002010000050140
:1001D00008010B01000020002300260029002C004C
:1001E0002F0032000001000003010601090105058E
:1001F0000505070508080808020202020A0A08089D
:1002000004040404010101010101010103030303CA
:1002100003030303040707070C0C0C0C0C0C0C0C59
:100220000202020206060606060606060B0B0B0B6A
:100230000B0B0B0B0102102020080810204010208F
:10024000408002010201080402010102040810209A
:100250004080804020100804020180040201804098
:100260002010080402010804020101020408102001
:100270004080010204081020408000000A0B02099F
:100280000C0D0E0807030401000000000000000030
:10029000000000000000000000000000000000005E
:1002A000000000000000121110000000000000001B
:1002B000000000000000000000000000000000003E
:1002C00015119C2011241FBECFEFD1E2DEBFCDBFA0
:1002D00000E00CBF2AE0ACE9B7E001C01D92A03EEF
:1002E000B207E1F717E0A0E0B2E0E0E1F7E400E0F8
:1002F0000BBF02C007900D92AC39B107D9F711E0DE
:10030000C1E6D1E000E006C021970109802FFE017F
:100310000E943221C036D10780E00807A9F70E9469
:100320002D120C9476230C940000FC01A089B18955
:1003300082E08C93A485B5851C92A685B7858FEC49
:100340008C93108EA489B58986E08C93A289B38999
:100350008C9180618C93A289B3898C9188608C93F5
:10036000A289B3898C9180688C930288F389E02DEF
:1003700080818F7D8083089596E0899FD00111242C
:10038000A55CB54F90967C936E935F9791E09196A4
:100390009C939197E091A80AF091A90A9091A70ADD
:1003A000992339F0309751F0811108C08091570A94
:1003B0001994309719F05C968C91FACF08950895AE
:1003C0000895FC01248135816217730748F4808108
:1003D0009181009729F0860F971FFC018081089575
:1003E00080E00895FC01248135816217730720F4B1
:1003F00080819181009729F41092590889E598E04D
:100400000895860F971F08950895DB0114964D9166
:100410005C9115976D917C91DC01ED91FC910280CE
:10042000F381E02D1994AF92BF92CF92DF92EF92B9
:10043000FF920F931F93CF93DF936C017B018B018E
:10044000040F151FEB015E01AE18BF08C017D107DE
:1004500059F06991D601ED91FC910190F081E02D68
:10046000C6011995892B79F7C501DF91CF911F91AD
:100470000F91FF90EF90DF90CF90BF90AF900895D5
:10048000FC01538D448D252F30E0842F90E0821B9A
:10049000930B541710F0CF96089501970895FC011F
:1004A000918D828D981761F0A28DAE0FBF2FB11D77
:1004B0005D968C91928D9F5F9F73928F90E00895CF
:1004C0008FEF9FEF0895FC01918D828D981731F089
:1004D000828DE80FF11D858D90E008958FEF9FEFDD
:1004E0000895FC01918D228D892F90E0805C9F4FB3
:1004F000821B91098F739927089589EE98E00E94D5
:10050000710221E0892B09F420E0822F089586E80A
:1005100099E00E94710221E0892B09F420E0822FEA
:100520000895FC01A48DA80FB92FB11DA35ABF4F88
:100530002C91848D90E001968F739927848FA689E2
:10054000B7892C93A089B1898C91837080648C9336
:10055000938D848D981306C00288F389E02D8081E5
:100560008F7D80830895EF92FF920F931F93CF9317
:10057000DF93EC0181E0888F9B8D8C8D98131AC0DE
:10058000E889F989808185FF15C09FB7F894EE89C5
:10059000FF896083E889F989808183708064808322
:1005A0009FBF81E090E0DF91CF911F910F91FF906D
:1005B000EF900895F62E0B8D10E00F5F1F4F0F7315
:1005C0001127E02E8C8D8E110CC00FB607FCFACFD0
:1005D000E889F989808185FFF5CFCE010E949102DB
:1005E000F1CFEB8DEC0FFD2FF11DE35AFF4FF082A1
:1005F0009FB7F8940B8FEA89FB8980818062CFCF07
:10060000CF93DF93EC01888D8823B9F0AA89BB8949
:10061000E889F9898C9185FD03C0808186FD0DC034
:100620000FB607FCF7CF8C9185FFF2CF808185FF55
:10063000EDCFCE010E949102E9CFDF91CF910895D5
:1006400080E090E0892B29F00E94870281110E94AE
:10065000000080E090E0892B29F00E947D0281114A
:100660000E94000080E090E0892B49F080E090E05B
:10067000892B29F00E94000081110E94000080E077
:1006800090E0892B49F080E090E0892B29F00E94CE
:10069000000081110C94000008958150823108F00F
:1006A0005AC0E82FF0E08827E75AFC4F8F4F0C9490
:1006B000322179037D036B0371037503AB03800360
:1006C00086038A039003940398039E03A203AB035B
:1006D000A603AC03B003809180008F7780938000E5
:1006E0000895809180008F7DF9CF80918000877F71
:1006F000F5CF84B58F7784BD089584B58F7DFBCF0A
:100700008091B0008F778093B00008958091B00001
:100710008F7DF9CF809190008F778093900008951E
:10072000809190008F7DF9CF80919000877FF5CFE9
:100730008091A0008F778093A00008958091A00001
:100740008F7DF9CF8091A000877FF5CF8091200128
:100750008F77809320010895809120018F7DF9CFBC
:1007600080912001877FF5CFCF93DF93282F30E052
:10077000F901E658FD4F8491F901EC5CFD4FD491ED
:10078000F901E251FE4FC491CC23A1F081110E94E6
:100790004D03EC2FF0E0EE0FFF1FEC52FE4FA59142
:1007A000B491EC91ED2381E090E009F480E0DF91D9
:1007B000CF91089580E090E0FACF862F0C94B40397
:1007C0001F93CF93DF93282F30E0F901E658FD4FB8
:1007D0008491F901EC5CFD4FD491F901E251FE4F97
:1007E000C491CC23A9F0162F81110E944D03EC2F48
:1007F000F0E0EE0FFF1FE654FE4FA591B4918FB7C6
:10080000F894EC91111108C0D095DE23DC938FBFD2
:10081000DF91CF911F910895DE2BF8CF862F642FA3
:100820000C94E003CF93DF9390E0FC01EC5CFD4F70
:10083000249182519E4FFC0184918823C9F090E05D
:10084000880F991FFC01E056FE4FA591B491FC0161
:10085000E654FE4FC591D49161110DC09FB7F89435
:100860008C91209582238C938881282328839FBF95
:10087000DF91CF910895623051F49FB7F8943C9185
:10088000822F809583238C93E8812E2BEFCF8FB717
:10089000F894EC912E2B2C938FBFEACF862F642FE8
:1008A0000C9412043FB7F894809155089091560823
:1008B000A0915708B091580826B5A89B05C02F3FB6
:1008C00019F00196A11DB11D3FBFBA2FA92F982F76
:1008D0008827BC01CD01620F711D811D911D42E071
:1008E000660F771F881F991F4A95D1F708958F9239
:1008F0009F92AF92BF92CF92DF92EF92FF926B01E5
:100900007C010E9452044B015C01C114D104E1043A
:10091000F104B9F00E945204681979098A099B0907
:10092000683E73408105910580F321E0C21AD10829
:10093000E108F10888EE880E83E0981EA11CB11C26
:10094000E4CFFF90EF90DF90CF90BF90AF909F905B
:100950008F9008952FB7F8946091510870915208C4
:1009600080915308909154082FBF08950F931F93BF
:100970008091AA0A9091AB0ADC01ED91FC91008470
:10098000F185E02D1995892B09F4D5C060E070E060
:10099000CB010E9477042091C80A8091AA0A909105
:1009A000AB0ADC01ED91FC910284F385E02D21116D
:1009B0000BC019958093B40A8E37D1F68091C80A7E
:1009C0008F5F8093C80AD4CF19959091C80AE92FF8
:1009D000F0E0E655F54F82879230B9F09930D9F0C2
:1009E0009130A9F48F3F99F01092C80A81E080936A
:1009F000CA0A1092CD0A1092CC0A8093CE0A1092A5
:100A0000CF0A80E01F910F910895863069F79F5FAC
:100A10009093C80AADCF8F3E39F78091B60A909176
:100A2000B50A890F9927991FE091B70A9C012E0FEB
:100A3000311D8091B80A820F932F911D4091B90A00
:100A400050E0840F951F2091BA0A30E06091BB0AF4
:100A500070E0762F6627F091BC0A6F0F711D820F30
:100A6000931F9195819591096817790709F0BCCF7B
:100A70001092C80AE13419F41092CF0A3DC0E093F5
:100A8000CB0A542F4427240F351F3093CD0A2093CF
:100A9000CC0AEA53E63108F044C0F0E08827EC5A6B
:100AA000FA4F8F4F0C9432217F0586058F056A051A
:100AB0008F0571058D0591058F058F058F058F05B4
:100AC0008F058F058F058F0591058F058F058F0584
:100AD0008F058F0585E08093CA0A81E08093CE0A56
:100AE0000BC089E020FDF7CF84E021FDF4CF237017
:100AF00033278AE0232B79F78091CE0A83CF87E0D2
:100B000020FDE9CF82E021FDE6CFF6CF88E020FD91
:100B1000E2CF83E021FDDFCFEFCF86E0DCCF8BE0BB
:100B2000DACF81E08093CA0A1092CD0A1092CC0AE3
:100B30008093CE0AA1CF8091CF0A8823E9F20E9448
:100B4000AA040091AC0A1091AD0A2091AE0A30912E
:100B5000AF0A601B710B820B930B0091B00A1091CE
:100B6000B10A2091B20A3091B30A60177107820767
:100B7000930710F21092C80A1092CA0A1092CD0A76
:100B80001092CC0A81E039CF8093C10A272F30E040
:100B90007093C30A6093C40A4091C00A9091BF0A3F
:100BA000490F5527551F840F952F911D4091C20A5B
:100BB000840F911D820F931F680F792F711D7195FE
:100BC000619571097093C50A6093C60A442361F068
:100BD0008091CF0A882341F060E070E0CB010E9451
:100BE00077040E94B604F4CF8091AA0A9091AB0AD0
:100BF000DC01ED91FC910280F381E02D4AE050E0B0
:100C00006EEB7AE019950E94AA046093AC0A709387
:100C1000AD0A8093AE0A9093AF0A8091C20A91E028
:100C2000811101C090E09093CF0A811106C06AE063
:100C300070E080E090E00C9477040895BC0183E0BC
:100C40000C94C4050F931F93CF93DF93C82FD62F17
:100C500086E0C89FF0011124E55CF54F11A2878D55
:100C600090A181309105F1F058F082309105F1F1B9
:100C7000039709F440C0DF91CF911F910F91089520
:100C80006623C9F361E070E08C2F0E94BC010E94D2
:100C9000AA046093930A7093940A8093950A9093A0
:100CA000960AE9CF0E94AA040091930A1091940A2F
:100CB0002091950A3091960AAB01BC01401B510B63
:100CC000620B730B8091A50A9091A60AB0E0A0E098
:100CD00084179507A607B70748F462E070E08C2FE9
:100CE000DF91CF911F910F910C94BC0163E070E0F4
:100CF000D111C1CFF4CF70E060E0F1CF0F931F931B
:100D00000E94AA0460938E0970938F0980939009C2
:100D10009093910986E899E00E944F0297FF1DC0C9
:100D20000E94AA0400918E0910918F0920919009C8
:100D300030919109601B710B820B930B00918A0912
:100D400010918B0920918C0930918D0960177107E2
:100D500082079307F8F28FEF9FEF1F910F9108958D
:100D60008F929F92AF92BF92CF92DF92EF92FF92BB
:100D7000CF936B017C010E94AA044B015C01C1145A
:100D8000D104E104F10441F4C090B00AD090B10A5A
:100D9000E090B20AF090B30A0E94B604C82F811105
:100DA00011C00E94AA04681979098A099B09C6160C
:100DB000D706E806F90630F060E070E0CB010E944B
:100DC0007704EACF8C2FCF91FF90EF90DF90CF90F8
:100DD000BF90AF909F908F9008952091DD07260FD0
:100DE0003327331F21323105ECF420912608FC0112
:100DF00090E080E0243069F082E00895A091DD0762
:100E00002191AC014354584FA40FB52FB11D2C9321
:100E10000196861798F38091DD07680F6093DD07D0
:100E200080E0089581E008951092260881E0809383
:100E300025081092000861E084E10E94E00361E06F
:100E400085E10E94E003E9EBF0E080818E7F808302
:100E500080818D7F808388E48093B80085E48093CF
:100E6000BC000895CF93DF9391E09093BC07882353
:100E7000B9F0C091B800D091BA008091BC008A7BD3
:100E80008093BC0060E084E10E94E00360E085E1C3
:100E90000E94E0030E941407D093BA00C093B800E8
:100EA000DF91CF9108950895E091610880916008E5
:100EB000E81730F4F0E0E456F84F808190E00895B0
:100EC0008FEF9FEF089590916108809160082FEF58
:100ED0003FEF981748F4E92FF0E0E456F84F2081EF
:100EE00030E09F5F90936108C90108958091600888
:100EF00090916108891B990B0895CF92DF92EF9230
:100F0000FF920F931F93CF93DF937C01CB018A0154
:100F100020912C08222389F0EB016B01C40ED51E11
:100F2000CC15DD0569F06991D701ED91FC91019037
:100F3000F081E02DC7011995F3CF642F0E94ED06D3
:100F4000C801DF91CF911F910F91FF90EF90DF903B
:100F5000CF900895CF93DF931F92CDB7DEB769830B
:100F600020912C082223F9F020915E08203258F0BD
:100F700021E030E0FC013383228390E080E00F9099
:100F8000DF91CF91089580915F08E82FF0E0E35D55
:100F9000F74F998190838F5F80935F0880935E08FD
:100FA00081E090E0ECCF61E0CE0101960E94ED0679
:100FB000F7CFCF92DF92EF92FF920F931F93CF93D1
:100FC000DF93FC01C48121E020932C08C0934D08DD
:100FD00010925F0810925E088385682B83E29AE086
:100FE0000E94AA07D0915E08D13208F092C00E94F8
:100FF00052046B017C0180912608811165C082E05A
:101000008093260881E0809325088FEF8093240841
:1010100010922308D0932208ADE2B8E0E2E0F8E0B5
:1010200080E0D81385C01092010880910108CC0F90
:10103000C82BC093010880910008813009F07CC062
:10104000109200080E9452046B017C0180910108FB
:101050008093BB008091280890912908A0912A08CC
:10106000B0912B08892B8A2B8B2B99F00E9452046C
:10107000009128081091290820912A0830912B0806
:101080006C197D098E099F0906171707280739076C
:10109000E0F18091BC0083FDD9CF85EC8093BC004A
:1010A0000E9452046B017C0180912608823009F471
:1010B00045C0809124088F3F61F1809124088032DF
:1010C00041F18091240825C0809128089091290839
:1010D000A0912A08B0912B08892B8A2B8B2B09F41D
:1010E0008ACF0E945204009128081091290820916B
:1010F0002A0830912B086C197D098E099F09061763
:1011000017072807390708F076CF809127080E9433
:10111000320710925F0810925E0810922C08DF913F
:10112000CF911F910F91FF90EF90DF90CF90089596
:101130009D9191938F5F75CF85EEB0CF80912808F8
:1011400090912908A0912A08B0912B08892B8A2B0D
:101150008B2B09F4A9CF0E9452040091280810910A
:10116000290820912A0830912B086C197D098E09D5
:101170009F09061717072807390708F095CFC5CF2D
:1011800090E080E008958091DE089091DF08A091C2
:10119000E008B091E1084091820850918308609185
:1011A000840870918508841B950BA60BB70B809360
:1011B000DE089093DF08A093E008B093E10808955B
:1011C0000F931F93CF93DF93C1EED2E08E01F8010E
:1011D00080810E5F1F4F61E00E94E003F2E00B3E52
:1011E0001F07A9F764EF71E080E090E00E947704A8
:1011F0008881229660E00E94E00382E0CB3ED8071F
:10120000B9F7DF91CF911F910F9108950F931F931D
:10121000CF938C01C62F0E94D9076C2F6460C80140
:101220000E94D9076C2F6B7FC8010E94D90783ECFD
:1012300090E00197F1F7CF911F910F9108950F93CF
:101240001F93CF93DF938C01D62FC42F607F642B25
:101250000E94060980E1D89FB00111246C2BC801BF
:10126000DF91CF911F910F910C940609CF93DF93DB
:1012700000D000D01F921F92CDB7DEB798E0E1E812
:10128000F2E0DE01119601900D929A95E1F79091AE
:10129000D80A961708F46FEF262F30E0220F331F7D
:1012A00041E050E04C0F5D1F240F351FF9016081B4
:1012B000680F606840E080ED9AE028960FB6F894D9
:1012C000DEBF0FBECDBFDF91CF910C941F0940E070
:1012D00061E080ED9AE00E941F098BE39FE1019796
:1012E000F1F70895CF93DF93EC010E946709BE01E7
:1012F00080ED9AE00E94050261E080E00E943609DC
:101300006FE27AE080ED9AE00E94050285E090E0CD
:101310000E941E0664EF71E080E090E00E94770476
:1013200060ED77E080E090E00E9477040E94AA04DC
:10133000685E7340810991096093BA087093BB0895
:101340008093BC089093BD08DF91CF910895CF930F
:10135000DF93EC010E946709BE0180ED9AE00E94D4
:10136000050261E080E00E94360965E37AE080EDE5
:101370009AE00E94050284E090E00E941E0664EF5D
:1013800071E080E090E00E94770460ED77E080E01B
:1013900090E00E9477040E94AA04685E734081096D
:1013A00091096093BA087093BB088093BC0890932E
:1013B000BD08DF91CF91089541E00E941F0981E0AF
:1013C00090E008950F931F93CF93DF93FC01048166
:1013D00015810115110539F4FB011082DF91CF91C0
:1013E0001F910F910895415051094017510708F47A
:1013F0008A01EB01FC0160817181A801CE010E948C
:101400006723C00FD11F1882E9CF0C94E820CF9238
:10141000DF92EF92FF920F931F93CF93DF93EB0135
:101420007B0124E0E20EF11C8B016C01C61AD70A85
:10143000C601800F911F0E94E020F80181938F0167
:10144000EE15FF05A9F7CE01DF91CF911F910F9106
:10145000FF90EF90DF90CF9008959F92AF92BF9250
:10146000CF92DF92EF92FF920F931F93CF93DF9370
:101470005C017B018B01D0E0C0E0F80191908F010D
:101480006501CC0EDD1EC6010E94E020981621F0F9
:10149000692DC6010E94E8202196C430D10569F764
:1014A000C701DF91CF911F910F91FF90EF90DF90D7
:1014B000CF90BF90AF909F9008950C94E020FC01D6
:1014C00080819181009711F00C94A42060E070E07D
:1014D000CB010895FB0101900020E9F73197AF019E
:1014E000461B570BDC01ED91FC910280F381E02D4E
:1014F000199465E273E086E899E00C946A0ACF9348
:10150000DF93BC0186E899E00E940502EC010E948D
:10151000790A8C0F9D1FDF91CF9108958F929F9232
:10152000AF92BF92EF92FF920F931F93CF93DF93EF
:10153000CDB7DEB7A1970FB6F894DEBF0FBECDBF13
:101540007C01FA01CB0119A2223008F42AE08E01B5
:101550000F5D1F4F822E912CB12CA12CBF01A50134
:1015600094010E941021F901CA016A300CF5605DF6
:10157000D8016E938D01232B242B252B79F790E036
:1015800080E0109721F0BD01C7010E946A0AA19670
:101590000FB6F894DEBF0FBECDBFDF91CF911F9184
:1015A0000F91FF90EF90BF90AF909F908F90089514
:1015B000695CDECFCF92DF92EF92FF920F931F9381
:1015C000CF93DF936B01770FEE08FF08F7FE1FC084
:1015D000EC01E881F9810190F081E02D6DE219952F
:1015E0008C0144275527BA014C195D096E097F0902
:1015F0002AE0CE010E948E0A800F911FDF91CF91C9
:101600001F910F91FF90EF90DF90CF9008952AE007
:10161000B701A601DF91CF911F910F91FF90EF903D
:10162000DF90CF900C948E0ACF93DF93AB01BC0177
:101630002AE086E899E00E948E0AEC010E94790A6D
:101640008C0F9D1FDF91CF910895CF93DF93BC0145
:1016500086E899E00E946A0AEC010E94790A8C0FE0
:101660009D1FDF91CF9108950C946A0A2F923F92AB
:101670004F925F926F927F928F929F92AF92BF92A2
:10168000CF92DF92EF92FF920F931F93CF93DF934E
:1016900000D000D0CDB7DEB70E94AA040091BA08EE
:1016A0001091BB082091BC083091BD08601B710BE4
:1016B000820B930B683E73408105910508F4BDC011
:1016C0000E94AA046093BA087093BB088093BC0878
:1016D0009093BD080E94AA040091E2081091E308CB
:1016E0002091E4083091E508DC01CB01801B910BCF
:1016F000A20BB30BC090DE08D090DF08E090E008AA
:10170000F090E1088C159D05AE05BF0508F095C069
:10171000C81AD90AEA0AFB0AC701B60128EE33E063
:1017200040E050E00E94102149015A01C701B60172
:1017300020E83EEE46E350E00E9410212901890195
:10174000C501B40120E13EE040E050E00E941021DC
:101750002CE3C22ED12CE12CF12CA70196010E9482
:10176000102129833A834B835C8329803A80C50109
:10177000B401A70196010E9410216B017E836D8345
:101780000E94670968E273E080ED9AE00E94340BE2
:1017900061E080E00E9436090A30110534F468E304
:1017A00073E080ED9AE00E94340BB20180ED9AE084
:1017B0000E94DA0A6DEC75E080ED9AE00E94340B2D
:1017C0008AE02816310434F468E373E080ED9AE08F
:1017D0000E94340B69817A8180ED9AE00E94DA0AD6
:1017E0006DEC75E080ED9AE00E94340B8D819E8156
:1017F0000A9734F468E373E080ED9AE00E94340BBA
:10180000B60180ED9AE026960FB6F894DEBF0FBEC3
:10181000CDBFDF91CF911F910F91FF90EF90DF909F
:10182000CF90BF90AF909F908F907F906F905F9080
:101830004F903F902F900C94DA0A26960FB6F894AA
:10184000DEBF0FBECDBFDF91CF911F910F91FF90F3
:10185000EF90DF90CF90BF90AF909F908F907F9050
:101860006F905F904F903F902F900895FB014481BF
:101870005581FC01248135812417350778F080815A
:101880009181009759F0FB016081718161157105AB
:1018900029F00E94592321E0892B09F020E0822FB2
:1018A00008950F931F93CF93DF938C01EB01FC01FD
:1018B000808191810097E1F06881798161157105DE
:1018C000A9F0428153812C813D814217530770F06A
:1018D0000E9452238C819D81F801958384831D820F
:1018E0001C82DF91CF911F910F9108950E94D62104
:1018F00088819981F801918380838A819B81938378
:1019000082838C819D8195838483198218821B82B6
:101910001A82E5CFCF93DF93EC01888199810097FC
:1019200011F00E94D621198218821D821C821B820E
:101930001A82DF91CF910895FC01808191810097F7
:1019400011F00C94D62108950F931F93CF93DF933A
:10195000EC0188819981009759F02A813B812617F3
:10196000370730F081E0DF91CF911F910F910895FB
:101970008B016F5F7F4F0E945F22009759F0998320
:1019800088831B830A832C813D81232B59F7FC011B
:101990001082E8CF80E0E7CFEF92FF920F931F9382
:1019A000CF93DF93EC017B01198218821B821A828C
:1019B0001D821C82FB0101900020E9F731978F0105
:1019C000061B170BB8010E94A40C811109C0CE019F
:1019D000DF91CF911F910F91FF90EF900C948A0CA3
:1019E0001D830C83B70188819981DF91CF911F916D
:1019F0000F91FF90EF900C9452239F92AF92BF9261
:101A0000CF92DF92EF92FF920F931F93CF93DF93CA
:101A10007C016B015A0189012417350720F48B2DB5
:101A20005901042F182F67E273E0C7010E94CC0C04
:101A3000D6011496CD91DC91AC16BD0650F50C176D
:101A40001D0708F4E801D601ED91FC911197EC0F08
:101A5000FD1F908010820D911C910A0D1B1D011518
:101A6000110571F0F80101900020E9F731975F014D
:101A7000A01AB10AB501C7010E94A40C811116C0B9
:101A8000C7010E948A0CD6018D919C91C80FD91F65
:101A90009882C701DF91CF911F910F91FF90EF9036
:101AA000DF90CF90BF90AF909F900895F701B582DF
:101AB000A482B801808191810E945223E4CFCF9308
:101AC000DF93EC01FB01248135810E94FD0CCE01E6
:101AD000DF91CF9108952F923F924F925F926F9234
:101AE0007F928F929F92AF92BF92CF92DF92EF92AE
:101AF000FF920F931F93CF93DF93CDB7DEB7C650FE
:101B0000D1400FB6F894DEBF0FBECDBF9E012F5F50
:101B10003F4F390180E091E0F9019C011192215081
:101B20003040E1F72301630193E9A92E92E0B92E39
:101B3000F12CE12C22242394F5013080F2E0AF0E49
:101B4000B11C61E0832D0E94120460E0832D0E948D
:101B5000E00383E9882E82E0982E10E000E0E01692
:101B6000F10651F0F40180810E94B403892B21F425
:101B7000F601E00FF11F20820F5F1F4FF2E08F0E82
:101B8000911C0031110559F762E0832D0E94120467
:101B90002FEFE21AF20A30E1C30ED11C80E1E81601
:101BA000F10451F642E858E0A2E6B8E06D917C916C
:101BB000119777FD20C012968D919C91139797FDF8
:101BC0001AC0FB0104E0EE0FFF1F0A95E1F7E60DD6
:101BD000F71DE80FF91F2081222391F0FC0114E08A
:101BE000EE0FFF1F1A95E1F7E60DF71DE60FF71F41
:101BF0002081222329F014964A175B07B9F621E0C9
:101C000070E060E0DB011196CD018031910509F4AF
:101C100045C0F301E80FF91F308131110BC0FC0101
:101C200034E0EE0FFF1F3A95E1F7E40DF51D30812A
:101C3000332361F0E2E6F8E000811181061717070F
:101C400039F4028113810817190751F40196DDCF89
:101C50000817190729F40281138106171707B1F332
:101C600034964E175F0741F76FE473E0CE018F5F44
:101C70009E4F0E94CC0CCE018F5F9E4F0E94720936
:101C8000CE018F5F9E4F0E949C0C0E94E00885E071
:101C900090E00E941E060E94C3083DC0222321F34B
:101CA0009FEF491A590AE0E16E0E711CBD01509771
:101CB00009F0A8CF81E08093DA088091AA0890917A
:101CC000AB0801969093AB088093AA086AE373E08F
:101CD000CE018F5F9E4F0E94CC0CCE018F5F9E4F36
:101CE0000E94A709CE018F5F9E4F0E949C0C80919D
:101CF000AA089091AB08863091054CF4880F991F83
:101D0000FC01EB52FD4F61E080810E94E00384E022
:101D100090E00E941E06CA5FDE4F0FB6F894DEBF49
:101D20000FBECDBFDF91CF911F910F91FF90EF902C
:101D3000DF90CF90BF90AF909F908F907F906F90EB
:101D40005F904F903F902F90089585ED8093BC0059
:101D50008091280890912908A0912A08B0912B0819
:101D60000796A11DB11D23E0B695A7959795879578
:101D70002A95D1F72091BC0024FD03C010922608BB
:101D80000895409128085091290860912A0870917F
:101D90002B08452B462B472B69F30097A105B1056E
:101DA00041F02AE22A95F1F700C00197A109B10993
:101DB000E1CF809127080C9432071F920F920FB643
:101DC0000F9211240BB60F922F933F934F935F9373
:101DD0006F937F938F939F93AF93BF93EF93FF93F3
:101DE00089EE98E00E949102FF91EF91BF91AF912F
:101DF0009F918F917F916F915F914F913F912F9123
:101E00000F900BBE0F900FBE0F901F9018951F9252
:101E10000F920FB60F9211240BB60F922F938F9340
:101E20009F93EF93FF93E091F908F091FA08808176
:101E3000E091FF08F091000982FD1DC09081809122
:101E400002098F5F8F7320910309821741F0E0919F
:101E50000209F0E0E751F74F958F80930209FF9157
:101E6000EF919F918F912F910F900BBE0F900FBE0E
:101E70000F901F9018958081F2CF1F920F920FB68E
:101E80000F9211240BB60F922F933F934F935F93B2
:101E90006F937F938F939F93AF93BF93EF93FF9332
:101EA00086E899E00E949102FF91EF91BF91AF9176
:101EB0009F918F917F916F915F914F913F912F9162
:101EC0000F900BBE0F900FBE0F901F9018951F9292
:101ED0000F920FB60F9211240BB60F922F938F9380
:101EE0009F93EF93FF93E0919609F091970980817A
:101EF000E0919C09F0919D0982FD1DC09081809127
:101F00009F098F5F8F732091A009821741F0E091A4
:101F10009F09F0E0EA57F64F958F80939F09FF9154
:101F2000EF919F918F912F910F900BBE0F900FBE4D
:101F30000F901F9018958081F2CF1F920F920FB6CD
:101F40000F9211242F933F938F939F93AF93BF933F
:101F50008091510890915208A0915308B091540873
:101F60003091500823E0230F2D3758F50196A11D1D
:101F7000B11D209350088093510890935208A0936C
:101F80005308B09354088091550890915608A09139
:101F90005708B09158080196A11DB11D80935508AE
:101FA00090935608A0935708B0935808BF91AF91EB
:101FB0009F918F913F912F910F900FBE0F901F9087
:101FC000189526E8230F0296A11DB11DD2CF1F92AE
:101FD0000F920FB60F9211240F900FBE0F901F900B
:101FE00018951F920F920FB60F9211240BB60F92F5
:101FF0002F933F934F935F936F937F938F939F9311
:10200000AF93BF93EF93FF938091B900887F8036A1
:1020100009F44DC008F040C0883209F4A9C028F581
:10202000803109F49DC0C8F4882309F4FBC08830CE
:1020300009F496C0FF91EF91BF91AF919F918F915D
:102040007F916F915F914F913F912F910F900BBEB8
:102050000F900FBE0F901F901895883109F488C01B
:10206000803241F78093240814C0803409F49DC065
:1020700040F48033B9F38833E9F68093240885EC83
:10208000B0C0803509F485C0883509F496C088341D
:1020900089F60E94A50ECECF883909F48CC038F598
:1020A000883729F050F4883611F0803719F683E02C
:1020B000809326081092FF0757C0883809F47BC028
:1020C000803919F0803809F0B5CF8091FF07803250
:1020D00008F071C0E091FF0781E08E0F8093FF0749
:1020E0008091BB00F0E0E152F84F80833DC0803B1F
:1020F00039F0E0F4803A09F479C0883A09F09ACFCF
:1021000084E0809326081092DE071092DD07E091AC
:102110005C08F0915D0819958091DD0781110FC071
:1021200081E08093DD071092BD0709C0803C09F46F
:10213000A6CF883C09F4A3CF883B09F07BCFE09180
:10214000DE0781E08E0F8093DE07F0E0E354F84F66
:1021500080818093BB009091DE078091DD0729C0CC
:10216000809101088093BB0085EC8093BC0062CF16
:102170009091230880912208981758F5E091230840
:1021800081E08E0F80932308F0E0EE5FF74F8081AF
:10219000E9CFE091230881E08E0F8093230880919E
:1021A000BB00F0E0EE5FF74F8083909123088091B1
:1021B00022089817C8F285E8D8CFE091230881E07B
:1021C0008E0F809323088091BB00F0E0EE5FF74F05
:1021D00080838091250881115CCF81E08093000885
:1021E00084EA8093BC001092260824CF85EC80936B
:1021F000BC00109226088091FF07803230F4E091F5
:10220000FF07F0E0E152F84F10826091FF0770E0A5
:10221000E0915A08F0915B088FED97E019951092C4
:10222000FF0708CF1092240834CF1092EC081092C8
:10223000EB0888EE93E0A0E0B0E08093ED08909387
:10224000EE08A093EF08B093F0082FEE32E0309341
:10225000EA082093E9084DEC50E05093F6084093CB
:10226000F5084CEC50E05093F8084093F70848EC20
:1022700050E05093FA084093F90849EC50E050932D
:10228000FC084093FB084AEC50E05093FE08409352
:10229000FD084EEC50E0509300094093FF08109267
:1022A0000209109203091092040910920509109274
:1022B00089091092880980938A0990938B09A093C9
:1022C0008C09B0938D09309387092093860925ECFA
:1022D00030E0309393092093920924EC30E030935E
:1022E00095092093940920EC30E0309397092093CE
:1022F000960921EC30E0309399092093980922EC5B
:1023000030E030939B0920939A0926EC30E030931B
:102310009D0920939C0910929F091092A009109288
:10232000A1091092A2091092260A1092250A809300
:10233000270A9093280AA093290AB0932A0A81E0D9
:1023400093E09093240A8093230A1092D30A109268
:10235000D20A8DE193E09093D10A8093D00A87E26C
:102360008093D40A80E18093D90A82E08093DA0ACC
:102370001092DB0A44EF51E060E070E04093B00A55
:102380005093B10A6093B20A7093B30A9AE0E9E8F5
:10239000F2E0AEEBBAE001900D929A95E1F710925F
:1023A000C80A8093C90A1092CE0A1092CF0A1092DE
:1023B0003D0A1092410A1092400A1092420A83E1AB
:1023C00093E090933C0A80933B0AE7E5FAE01082A1
:1023D00014821382158236968AE0E339F807B9F73A
:1023E00087E692E090939E0A80939D0A83E692E0AE
:1023F0009093A00A80939F0A84E08093A10A80931F
:10240000A20A8BE692E090939C0A80939B0A8AE052
:1024100090E09093A40A8093A30A84EF91E09093B4
:10242000A60A8093A50A1092A90A1092A80A1092EF
:10243000970A1092980A1092990A10929A0A10928A
:10244000A70A67E673E085E39AE00E94CC0C62E796
:1024500073E08FE29AE00C94CC0CCF93DF93CDB76E
:10246000DEB76C970FB6F894DEBF0FBECDBF789481
:1024700084B5826084BD84B5816084BD85B5826089
:1024800085BD85B5816085BD80916E00816080933A
:102490006E001092810080918100826080938100A3
:1024A00080918100816080938100809180008160B3
:1024B000809380008091B10084608093B10080910E
:1024C000B00081608093B000809191008260809321
:1024D00091008091910081608093910080919000A3
:1024E0008160809390008091A10082608093A10020
:1024F0008091A10081608093A1008091A000816003
:102500008093A000809121018260809321018091BD
:10251000210181608093210180912001816080935D
:10252000200180917A00846080937A0080917A0003
:10253000826080937A0080917A00816080937A0033
:1025400080917A00806880937A001092C10086E8BA
:1025500099E00E94950189EE98E00E949501109201
:1025600061081092600810925F0810925E080E9445
:1025700014078FED91E090935D0880935C0880EEE6
:1025800091E090935B0880935A080E941407109280
:10259000D50A8091DA0A823018F098E09093D50A33
:1025A0008093D80A62E370E080E090E00E947704B4
:1025B0006091DB0A80ED9AE00E94D90768EE73E033
:1025C00080E090E00E94770460E380ED9AE00E9452
:1025D00006090BE416E4C8010197F1F760E380ED0A
:1025E0009AE00E940609C8010197F1F760E380EDC7
:1025F0009AE00E94060983E592E00197F1F760E214
:1026000080ED9AE00E9406096091D50A606240E080
:1026100080ED9AE00E941F0984E08093D60A40E092
:102620006CE080ED9AE00E941F090E94670982E039
:102630008093D70A40E066E080ED9AE00E941F098F
:1026400040E062E080ED9AE00E941F098BE39FE189
:102650000197F1F788E08093DB0A60E080ED9AE073
:102660000E94D9070E9467096DE773E080ED9AE048
:102670000E94340B61E080E00E9436096DE873E04F
:1026800080ED9AE00E94340B68EE73E080E090E009
:102690000E94770403E010E069EEE62E68E0F62E73
:1026A000DD24D394F092AB0AE092AA0AD092C20A37
:1026B00070E060E08CE00E94C40560ED77E080E0AF
:1026C00090E00E94B00668EC70E080E090E00E942C
:1026D00077041092CE0A8091CA0A8430D1F08930F2
:1026E000C1F064EF71E080E090E00E947704015057
:1026F0001109C1F60E9467096AEB73E080ED9AE068
:102700000E94340B61E080E00E9436096BEC73E0BC
:102710001FC069E170E086E00E94C40570E060E0DF
:1027200082E40E94C40560E070E0CB010E94B00624
:10273000811119C00E9467096DE973E080ED9AE08C
:102740000E94340B61E080E00E9436096CEA73E07D
:1027500080ED9AE00E94340B60ED77E080E090E03D
:102760000E9477040CC01092CE0A8091CA0A8B3066
:1027700009F78091CC0A9091CD0A892BD9F60E9455
:1027800067096AED73E080ED9AE00E94340B51EE28
:10279000E52E52E0F52E07ED12E0F80180810E5F84
:1027A0001F4F61E00E941204F7018081F2E0EF0EFA
:1027B000F11C61E00E94120422E0013E120769F759
:1027C00031EEE32E32E0F32E47ED242E42E0342E9C
:1027D000F101D080F2E02F0E311C61E08D2D0E94BE
:1027E000E00368EE73E080E090E00E94770460E030
:1027F0008D2D0E94E003F701D080F2E0EF0EF11C76
:1028000061E08D2D0E94E00368EE73E080E090E0CF
:102810000E94770460E08D2D0E94E00302151305ED
:10282000B9F662E087E20E9412040FEB12E023EB9C
:1028300032E03A8F298FE98DFA8D80813296FA8FB6
:10284000E98F62E00E941204298D3A8D0217130766
:1028500091F70FEB12E0F80180810E5F1F4F62E0ED
:102860000E941204F2E00B3C1F07A9F703E912E0F3
:1028700023EBE22E22E0F22EF80180810E5F1F4F43
:1028800062E00E941204E016F106B1F76EED78E006
:1028900090E080E00E94070A62E878E084E090E03F
:1028A0000E94070A06E818E088E090E07C01FFEF4C
:1028B000EF1AFF0A0E945D0A90E0F801819391935C
:1028C0008F01C7018E30910589F792E9C92E98E0F2
:1028D000D92E87010F5F1F4FC7010E945D0A90E04C
:1028E000F601819391936F0178010431110589F705
:1028F0008EE9E82E88E0F82EC8010E94E020F7015A
:102900008083C80101960E94E020F7018183F2E0F4
:10291000EF0EF11C0E5F1F4F0032110569F712E632
:10292000E12E18E0F12E00E210E068012FEFC21A4C
:10293000D20AC8010E945D0A90E0F701918380836A
:102940000E5F1F4FC6010E945D0A90E0F70193835E
:102950008283F4E0EF0EF11C0033110531F7BCEA7D
:10296000EB2EB8E0FB2E68012FEFC21AD20AC80185
:102970000E945D0AF70181937F0186010A331105E8
:1029800091F700E012E07601FFEFEF1AFF0AC601AF
:102990000E945D0AF80181938F016701FBE5EF1644
:1029A000F10489F787010F5F1F4FC7010E945D0A7D
:1029B000D82EB7016B55710985E39AE00E94F201A8
:1029C000FC01D08278010C37110561F778012FEFF7
:1029D000E21AF20AC8010E945D0AD82EB8016C57AB
:1029E00071098FE29AE00E94F201FC01D082870116
:1029F0000D39110559F7A1E2EA2EA2E0FA2E8DE970
:102A000090E08C010F5F1F4F0E945D0AF7018193D8
:102A10007F01C8010E3B1105A1F7F2E4EF2EF2E0B1
:102A2000FF2E6801FFEFCF1ADF0AC8010E945D0A7E
:102A3000F70181937F0186010F3D110591F78AEE21
:102A400093E00E94250B62E370E080E090E00E943A
:102A5000770466E074E086E899E00E94340B6091A8
:102A6000DE087091DF088091E0089091E108E8EEBF
:102A7000CE2EE3E0DE2EE12CF12CA70196010E9480
:102A80001021CA01B9010E94140B62E370E080E0DA
:102A900090E00E94770462E174E086E899E00E9489
:102AA000340B609182087091830880918408909122
:102AB0008508A70196010E941021CA01B9010E9450
:102AC000140B62E370E080E090E00E9477046CE118
:102AD00074E086E899E00E94340B06E818E0F801FB
:102AE000619171918F0186E899E00E94DA0AF8E01D
:102AF00002391F07A1F70E94790A62E370E080E0C3
:102B000090E00E94770467E274E086E899E00E9412
:102B1000340B22E938E03C8F2B8FEB8DFC8D6191DB
:102B20007191FC8FEB8F86E899E00E94DA0A2B8D79
:102B30003C8D2E59384089F70E94790A62E370E093
:102B400080E090E00E94770461E374E086E899E019
:102B50000E94340B5EE9E52E58E0F52E10E000E00F
:102B6000F701619171917F0186E899E00E94DA0A8C
:102B70000530110531F068E374E086E899E00E94C1
:102B8000340B0F5F1F4F0630110551F70E94790A71
:102B900062E370E080E090E00E9477046BE374E011
:102BA00086E899E00E94340B42E8E42E48E0F42ED7
:102BB00002E618E0F8016081718186E899E00E94E0
:102BC000DA0A68E374E086E899E00E94340BF801C1
:102BD0006281738186E899E00E94DA0A68E374E012
:102BE00086E899E00E94340B0E94790A0C5F1F4F1F
:102BF000E016F106F9F662E370E080E090E00E94F2
:102C0000770463E474E086E899E00E94340B8CEA70
:102C100098E00E94250B61E574E086E899E00E9447
:102C2000340B80E092E00E94250B61E674E086E8B8
:102C300099E00E94340B85E39AE00E947F0A63E7E3
:102C400074E086E899E00E94340B8FE29AE00E94DB
:102C50007F0A83E894E00E94250B0E9467096DE7D4
:102C600073E080ED9AE00E94340B61E080E00E9406
:102C7000360965EA74E080ED9AE00E94340B30E694
:102C8000432E3AEE532E66246A94762C86E899E019
:102C90000E947102181619060CF00DC167E273E06C
:102CA000CE0143960E94CC0C0E947E0697FD1EC06A
:102CB0008A309105D9F089831A820F89188D0F5FA8
:102CC0001F4FB801CE0143960E94A40C882361F3E4
:102CD0002B893C898F89988DBE016F5F7F4F820F52
:102CE000931F0E945223188F0F8BDECF64EF71E089
:102CF00080E090E00E94770461EB74E0CE010196E1
:102D00000E94CC0CBE016F5F7F4FCE0143960E94A4
:102D1000360C182FCE0101960E949C0C112309F449
:102D2000FCC444E050E0BE016D5E7F4FCE010196D1
:102D30000E945F0DBE016F5F7F4FCE0143960E94E0
:102D4000510CCE0101960E949C0C66E675E0CE0106
:102D500001960E94CC0CBE016F5F7F4FCE0143965F
:102D60000E94360C182FCE0101960E949C0C112354
:102D700021F14AE050E0BE016D5E7F4FCE01019629
:102D80000E945F0DCE0101960E945F0A9B01AC017B
:102D9000A8EEB3E00E94F6206093DE087093DF088F
:102DA0008093E0089093E108CE0101960E949C0C6C
:102DB00086EB94E00E94250B7AC068E775E0CE01AF
:102DC00001960E94CC0CBE016F5F7F4FCE014396EF
:102DD0000E94360C182FCE0101960E949C0C1123E4
:102DE00011F148E050E0BE016D5E7F4FCE010196CB
:102DF0000E945F0DCE0101960E945F0A9B01AC010B
:102E0000A8EEB3E00E94F6206093820870938308D6
:102E10008093840890938508CE0101960E949C0CB3
:102E200083EC94E0C7CF68E875E0CE0101960E947C
:102E3000CC0CBE016F5F7F4FCE0143960E94360CD3
:102E4000182FCE0101960E949C0C112309F427C172
:102E500049E050E0BE016D5E7F4FCE0101960E94B9
:102E60005F0DED80FE8010E000E00E151F0590F470
:102E7000B801CE0101960E94E101F801EE0FFF1F9B
:102E8000EA57F74F21E030E0813311F030E020E0E5
:102E9000318320830F5F1F4F0630110531F78EEC11
:102EA00094E00E94250BCE0101960E949C0CCE015D
:102EB00043960E949C0C8091E808811172C0809119
:102EC000E70881119DC687E20E94B403892B09F0AF
:102ED00097C681E08093E8081092E7081092E60810
:102EE0000E94AA046093E2087093E3088093E408C8
:102EF0009093E5081092AB081092AA081092DD0892
:102F00001092DC081092DB081092DA081092D908AF
:102F100011EEE12E12E0F12E07ED12E0F8018081B2
:102F20000E5F1F4F60E00E94E003F7018081F2E036
:102F3000EF0EF11C60E00E94E0032016310671F7ED
:102F40000E94670960E072E080ED9AE00E94340B15
:102F50000E94B604882321F081E090E00E941E06C2
:102F600068EB7BE080E090E00E9477040E94AA0476
:102F7000685E7340810991096093BA087093BB0839
:102F80008093BC089093BD080E94360B6CE271E000
:102F900080E090E00E9477048091E808882309F49B
:102FA0002FC68091E70881112BC68091E608811118
:102FB0000E94360B0E94AA040091E2081091E308D7
:102FC0002091E4083091E508601B710B820B930B94
:102FD0000091DE081091DF082091E0083091E108AF
:102FE000601771078207930748F181E08093E70833
:102FF0000E94670962E472E080ED9AE00E94340B5F
:1030000061E080E00E94360967E376E080ED9AE0B7
:103010000E94340B83E090E00E941E06BBEEEB2E74
:10302000B2E0FB2E01EE12E0F80180810E5F1F4F2F
:1030300061E00E94E003E016F106B1F781E08093C1
:10304000A70A0E94AA040091970A1091980A209159
:10305000990A30919A0AAB01BC01401B510B620BDB
:10306000730B8091A30A9091A40AB0E0A0E08417AA
:103070009507A607B70708F0C8C510E08091A10A18
:10308000181708F080C4E0919D0AF0919E0AE10FA4
:10309000F11D62E080810E9412041F5FEFCF69E999
:1030A00075E0CE0101960E94CC0CBE016F5F7F4F90
:1030B000CE0143960E94360C182FCE0101960E9435
:1030C0009C0C112341F148E050E0BE016D5E7F4F42
:1030D000CE0101960E945F0DED80FE8010E000E0C1
:1030E0000E151F0580F4B801CE0101960E94E10182
:1030F000F801EE0FFF1FEE56F74F082E000C990B4C
:10310000C097918380830F5F1F4F0630110541F7F1
:103110008AED94E0C6CE69EA75E0CE0101960E9480
:10312000CC0CBE016F5F7F4FCE0143960E94360CE0
:10313000182FCE0101960E949C0C112309F46FC038
:1031400045E050E0BE016D5E7F4FCE010D960E94BE
:103150005F0D10E000E0B12CA12CF12CE12CC9880E
:10316000DA880C151D0508F053C0B801CE010D9684
:103170000E94E1018C3231F0F1E0CF1AD1080C1538
:103180001D05C9F567E273E0CE0107960E94CC0CDD
:1031900089899A8901970817190781F5A501BE0148
:1031A000635F7F4FCE0101960E945F0DBE016F5F8E
:1031B0007F4FCE0107960E94510CCE0101960E94CE
:1031C0009C0C26E0E216F1045CF4CE0107960E9406
:1031D0005F0AF701EE0FFF1FE256F74F718360831E
:1031E00058013FEFA31AB30A4FEFE41AF40ACE01D5
:1031F00007960E949C0C0F5F1F4FB1CF9801A5014D
:10320000BE01635F7F4FCE0101960E94FD0CCECFC1
:1032100085EE94E00E94250BCE010D9646CE68EB1C
:1032200075E0CE0101960E94CC0CBE016F5F7F4F0E
:10323000CE0143960E94360C182FCE0101960E94B3
:103240009C0C112309F47BC046E050E0BE016D5E8A
:103250007F4FCE010D960E945F0D10E000E0D12C53
:10326000C12C912C812CF12CE12CA988BA880A154B
:103270001B0508F061C0B801CE010D960E94E10166
:103280008C3239F051E0A51AB1080A151B0509F076
:1032900042C067E273E0CE0107960E94CC0C898998
:1032A0009A89019708171907C9F5A401BE01635F40
:1032B0007F4FCE0101960E945F0DBE016F5F7F4F71
:1032C000CE0107960E94510CCE0101960E949C0CE3
:1032D000F8E0EF16F104BCF4CE0107960E945F0AF5
:1032E000F701EE0FFF1FEC0DFD1DEE0FFF1FEE5956
:1032F000F74F71836083CA94CD28D1F49FEFE91A08
:10330000F90AD12CC12C4801EFEF8E1A9E0ACE018A
:1033100007960E949C0C0F5F1F4FA7CF9801A40136
:10332000BE01635F7F4FCE0101960E94FD0CC5CFA9
:10333000CC24C394D12CE7CF8DEE94E06BCF66EC18
:1033400075E0CE0101960E94CC0CBE016F5F7F4FED
:10335000CE0143960E94360C182FCE0101960E9492
:103360009C0C1123A1F048E050E0BE016D5E7F4F40
:10337000CE0101960E945F0D4AE050E06CEA78E0D1
:10338000CE0101960E94E20986EF94E08ACD8F89F2
:10339000988D892B09F4DFC064E075E08B899C89E6
:1033A0000E9449237C01892B09F0D5C06EED78E09D
:1033B00090E080E00E942D0A62E878E084E090E0EE
:1033C0000E942D0A06E818E088E090E0F80160818C
:1033D0000E5F1F4F6C01FFEFCF1ADF0A0E94050A34
:1033E000C6018E30910591F732E9A32E38E0B32E55
:1033F000F5016081F2E0AF0EB11C86010F5F1F4F37
:10340000C6010E94050A68010431110589F7A80167
:103410004657574F6A01580152E0A50EB11CF601FC
:1034200091906F01C8010E94E020981621F0692D4B
:10343000C8010E94E8200F5F1F4FA016B10679F760
:103440000032110521F722E6C22E28E0D22E5801C3
:10345000FFEFAF1ABF0AF6016081C8010E94050A9A
:103460000E5F1F4FF6016281C5010E94050AF4E05C
:10347000CF0ED11C0033110551F79CEAA92E98E01C
:10348000B92EF50161915F016801FFEFCF1ADF0AE4
:10349000C8010E94050A86010A33110591F700E070
:1034A00012E0F80161918F015601FFEFAF1ABF0AD8
:1034B000C6010E94050A65012BE5A216B10489F731
:1034C00010E000E0B80185E39AE00E94F201FC01FF
:1034D0006081C801855A9F4F0E94050A0F5F1F4FE8
:1034E0000132110579F7B7018FE29AE00E94F201EB
:1034F000FC016081C70184589F4F0E94050AFFEFBD
:10350000EF1AFF0A21E2E216F10469F701E212E084
:103510008DE990E0F80161918F016C01FFEFCF1A06
:10352000DF0A0E94050AC6018E3B910599F702E465
:1035300012E0F80161918F017601FFEFEF1AFF0AA7
:10354000C6010E94050A67012FEDE216F10489F712
:1035500081E095E02FCC69E075E0CE0101960E94F4
:10356000CC0CBE016F5F7F4FCE0143960E94360C9C
:10357000182FCE0101960E949C0C112309F497CCC0
:1035800044E050E0BE016D5E7F4FCE0101960E9487
:103590005F0DBE016F5F7F4FCE0143960E94510CBD
:1035A000CE0101960E949C0C6AED75E0CE01019659
:1035B0000E94CC0CBE016F5F7F4FCE0143960E94EC
:1035C000360C182FCE0101960E949C0C1123A1F0FD
:1035D00046E050E0BE016D5E7F4FCE0101960E9435
:1035E0005F0D41E250E060E072E0CE0101960E9482
:1035F000E2098EE095E055CC6CEE75E0CE010196C7
:103600000E94CC0CBE016F5F7F4FCE0143960E949B
:10361000360C182FCE0101960E949C0C112361F0EC
:1036200048E050E0BE016D5E7F4FCE0101960E94E2
:103630005F0D8BE195E035CC60E076E0CE01019640
:103640000E94CC0CBE016F5F7F4FCE0143960E945B
:10365000360C182FCE0101960E949C0C112361F0AC
:1036600046E050E0BE016D5E7F4FCE0101960E94A4
:103670005F0D8AE295E015CC62E176E0CE0101961D
:103680000E94CC0CBE016F5F7F4FCE0143960E941B
:10369000360C182FCE0101960E949C0C1123A1F02C
:1036A00048E050E0BE016D5E7F4FCE0101960E9462
:1036B0005F0D41E250E061E272E0CE0101960E94AE
:1036C000E20987E395E0EDCB66E276E0CE01019674
:1036D0000E94CC0CBE016F5F7F4FCE0143960E94CB
:1036E000360C182FCE0101960E949C0C112309F470
:1036F000DECB47E050E0BE016D5E7F4FCE0101960C
:103700000E945F0D41E250E062E472E0CE0101965A
:103710000E94E20986E495E0C4CB8F89988D892BBD
:1037200009F4C5CB0B891C8964E575E0C8010E94CA
:1037300049236C01892B09F0EDC06FE575E086E83F
:1037400099E00E94340B6091DE087091DF0880914F
:10375000E0089091E10828EE33E040E050E00E945C
:103760001021CA01B9010E94140B61E775E086E8D7
:1037700099E00E94340B60918208709183088091D7
:1037800084089091850828EE33E040E050E00E94E4
:103790001021CA01B9010E94140B61E875E086E8A6
:1037A00099E00E94340B06E818E0F80161917191EC
:1037B0008F0186E899E00E94DA0AF8E002391F07D3
:1037C000A1F70E94790A62E975E086E899E00E9413
:1037D000340B02E918E0F801619171918F0186E8DC
:1037E00099E00E94DA0A2B8D3C8D2017310799F75A
:1037F0000E94790A62EA75E086E899E00E94340B3B
:103800008EE9E82E88E0F82E10E000E0F7016191E3
:1038100071917F0186E899E00E94DA0A053011056E
:1038200031F06FEA75E086E899E00E94340B0F5F93
:103830001F4F0630110551F70E94790A61EB75E0C0
:1038400086E899E00E94340B02E618E0F8016081F6
:10385000718186E899E00E94DA0A6FEA75E086E8ED
:1038600099E00E94340BF8016281738186E899E047
:103870000E94DA0AF7E0CF16D10431F06FEA75E062
:1038800086E899E00E94340B2FEFC21AD20A0C5F2F
:103890001F4F38E0C316D104C9F60E94790A6FEBB6
:1038A00075E086E899E00E94340B8CEA98E00E946B
:1038B000250B6FEC75E086E899E00E94340B80E000
:1038C00092E00E94250B61EE75E086E899E00E9487
:1038D000340B85E39AE00E947F0A65EF75E086E885
:1038E00099E00E94340B8FE29AE00E947F0A67E021
:1038F00076E086E899E00E94340B81E292E00E9433
:10390000250B6BE176E086E899E00E94340B82E4B7
:1039100092E050CA61E376E0C8010E944923892BF6
:1039200009F0C5CA1092E8081092E70801EEE02EEF
:1039300002E0F02E07ED12E0F80180810E5F1F4FCC
:1039400060E00E94E003F7018081F2E0EF0EF11CDD
:1039500060E00E94E0030215130571F70E946709F9
:103960006DE773E080ED9AE00E94340B61E080E047
:103970000E94360965EA74E080ED9AE00E94340BFB
:103980008EE296E017CA912C8091A20A981608F050
:1039900063C0E92CF12CE0919F0AF091A00AEE0D92
:1039A000FF1D61E080810E941204E0919F0AF09166
:1039B000A00AEE0DFF1D60E080810E94E00381E01F
:1039C00090E0A0E0B0E0092C04C0880F991FAA1F66
:1039D000BB1F0A94D2F75C016C01C094D094812C77
:1039E0008091A10A881608F5082D10E0E0919D0A43
:1039F000F0919E0AE00FF11F80810E94B4030C5FDA
:103A00001F4F000F111FF801E55CF54F892B41F4A2
:103A1000808191818A299B29918380838394E0CF3F
:103A2000808191818C219D21F7CFE0919F0AF091B7
:103A3000A00AEE0DFF1D61E080810E94E0038091ED
:103A40009F0A9091A00AE80EF91E60E0F7018081BC
:103A50000E941204939498CFFBE3EF2EFAE0FF2E1E
:103A600087E79AE08701F801278D30A1232B31F4F5
:103A7000148E2FEF3FEF368F258F11A20A5F1F4F55
:103A80008017910781F7D12CE6E0BE2E8091A10A24
:103A9000D81608F052C0C12C8D2C912C880C991C82
:103AA000A4014D5B554F4A012091A20AC21608F0AD
:103AB00042C0F401608171810C2C02C0769567953B
:103AC0000A94E2F7D29E900111242C0D311DEBE3F4
:103AD000FAE080E0458D568D2417350709F427C399
:103AE0008F5F36968A30B1F760FF23C0EBE3FAE0D0
:103AF00090E080E0448D411117C0E0919B0AF09165
:103B00009C0AE20FF31F4081B89EF001B99EF00DB0
:103B10001124E55CF54F448F368F258F10A2178E48
:103B200061E00E94220605C0019636968A30910512
:103B300009F7C394B9CFD394A9CF80E0F701D1A0FE
:103B4000D11001C0D82EF6E0EF0EF11C0E151F05A6
:103B500009F059C00E94AA046093970A7093980ACA
:103B60008093990A90939A0ADD2009F44EC08091BF
:103B70005C0A882309F449C080915A0A90915B0A33
:103B8000019709F042C01091570A111141C080916C
:103B9000DD088823A9F18091DC08882389F18091D0
:103BA000DB08882369F18091DA08882349F1809144
:103BB000D908882329F181E08093E7080E946709EA
:103BC00061E272E080ED9AE00E94340B61E080E0F7
:103BD0000E9436096CE377E080ED9AE00E94340B96
:103BE00082E090E00E941E0607ED12E0F80180815D
:103BF0000E5F1F4F61E00E94E00320163106B1F70F
:103C00000E94200343C88D2D99CF1092A70ABFCFE1
:103C1000B090E608B11081C08FEB810F843018F0AE
:103C20001A3209F0B4CF81E08093E6081093D808E7
:103C30000E94AA046093D4087093D5088093D60894
:103C40009093D7081092D3081092D2081092BE0811
:103C50000E9467091234D1F17CF41A3209F450C081
:103C60001134D9F00E94B604882309F490CF86E07D
:103C700090E00E941E068BCF1334A9F1143491F703
:103C800061EA76E080ED9AE00E94340B61E080E02A
:103C90000E94360962EB76E00CC062E476E080EDCB
:103CA0009AE00E94340B61E080E00E94360962E5F0
:103CB00076E080ED9AE00E94340B4092DE0850924C
:103CC000DF086092E0087092E108CCCF62E676E00F
:103CD00080ED9AE00E94340B61E080E00E9436099A
:103CE00062E776E0E6CF63E876E080ED9AE00E9456
:103CF000340B61E080E00E94360962E976E0D9CFBA
:103D000063EC76E080ED9AE00E94340B61E080E0A5
:103D10000E9436096FEC76E0CCCF0E94AA04C090D6
:103D2000D408D090D508E090D608F090D7086C1948
:103D30007D098E099F0961367A4E8105910508F14A
:103D40001092E6080E94670967E376E080ED9AE04A
:103D50000E94340B61E080E00E9436096FE27AE055
:103D600080ED9AE00E9405020E94E0080E94B604DD
:103D7000882321F085E090E00E941E060E94C3087F
:103D80005DC00E94AA042091B6083091B708409106
:103D9000B8085091B908621B730B840B950B683EF1
:103DA000734081059105A0F10E94AA046093B608B2
:103DB0007093B7088093B8089093B9080E94AA043A
:103DC00040E6C40E4AEED41EE11CF11CA701960188
:103DD000261B370B480B590BCA01B90128EE33E0FB
:103DE00040E050E00E941021690160E08EE00E94F6
:103DF00036093AE0C316D10434F468E373E080ED89
:103E00009AE00E94340BB60180ED9AE00E94DA0A33
:103E10008091D808133209F05CC11092E608823410
:103E200009F4A4C004F58A3209F407C166E8E62E55
:103E300068E0F62E03EB12E08134E9F060ED77E004
:103E400080E090E00E9477040E94AA04685E7340BC
:103E5000810991096093BA087093BB088093BC08EC
:103E60009093BD0894CE833409F4A5C0843431F70F
:103E70000E946B0DE3CFF80180810E5F1F4F0E94FF
:103E8000B403F701419151917F0121E030E0892B8A
:103E900011F030E020E02417350709F050C0298DDB
:103EA0003A8D2017310739F70E946709BB2009F4C2
:103EB00048C081E08093DD088091AA089091AB080A
:103EC0009C012F5F3F4F3093AB082093AA08263008
:103ED0003105DCF4880F991FFC01E952FD4F61E0C8
:103EE00080810E94E0036CED76E086E899E00E9414
:103EF000340B6091AA087091AB086150710986E893
:103F000099E00E94DA0A0E94790A62EF76E080ED79
:103F10009AE00E94340B61E080E00E94360965E37C
:103F20007AE080ED9AE00E9405020E94B6048823A0
:103F300009F484CF84E090E00E941E067FCFB12C6C
:103F4000B3CF64E077E002CF06301105C9F481E019
:103F50008093DC088091AA089091AB080196909319
:103F6000AB088093AA086CE477E084C032E9E32EC2
:103F700038E0F32E4FEBC42E42E0D42E10E000E0E8
:103F8000F6018081F2E0CF0ED11C0E94B403F7014C
:103F9000419151917F010F5F1F4F21E0892B09F063
:103FA00020E081E04017510709F080E0281761F216
:103FB00060E677E07FC0EBECF2E027ED32E0AEE9BF
:103FC000B8E080813296863308F0865340917B00BA
:103FD000982F9870477F942B90937B008770806414
:103FE00080937C0080917A00806480937A00809135
:103FF0007A0086FDFCCF80917800909179004D91F8
:104000005D91841B950B97FF03C091958195910954
:10401000C3970CF08EC02E173F0799F681E080936E
:10402000DB088091AA089091AB0801969093AB08A9
:104030008093AA0868E877E01DC0E091D208F0916B
:10404000D308E254F74F10826CEA78E08EEB98E0E8
:104050000E944923892B61F581E08093D9088091E2
:10406000AA089091AB0801969093AB088093AA0898
:1040700064E177E0CE0101960E94CC0CCE0101965E
:104080000E94A709CE0101960E949C0C8091AA086B
:104090009091AB08863091050CF04CCF880F991F9A
:1040A000FC01EB52FD4F61E080810E94E00342CFB2
:1040B00069E277E0CE0101960E94CC0CCE01019618
:1040C0000E947209CE0101960E949C0C0E94E00899
:1040D00051CE8A3209F05BCD1A3209F458CD809165
:1040E000D2089091D308833191050CF050CD9C01FA
:1040F0002F5F3F4F3093D3082093D2088254974FBD
:10410000FC0110832254374FF901108261E080E0F6
:104110000E9436096FEC76E080ED9AE00E94340B45
:104120006EEB78E080ED9AE00E94340B30CD617048
:10413000F8CC62E777E0BECF8FE29AE00E949C0C59
:1041400085E39AE00C949C0C1F93FC019927882727
:10415000BC01E89411911032E9F3193010F01E30CF
:10416000C8F31B3251F01D3249F4689406C00E9416
:10417000CB20610F711D811D911D119110531A30BB
:10418000B0F33EF490958095709561957F4F8F4F79
:104190009F4F1F910895592F482F372F262F660FB5
:1041A000771F881F991F660F771F881F991F620F3F
:1041B000731F841F951F660F771F881F991F08950F
:1041C000F999FECF92BD81BDF89A992780B50895DF
:1041D000262FF999FECF1FBA92BD81BD20BD0FB623
:1041E000F894FA9AF99A0FBE019608950E94012157
:1041F000A59F900DB49F900DA49F800D911D11243B
:104200000895A29FB001B39FC001A39F700D811DAF
:104210001124911DB29F700D811D1124911D0895CF
:10422000A1E21A2EAA1BBB1BFD010DC0AA1FBB1FBA
:10423000EE1FFF1FA217B307E407F50720F0A21B2C
:10424000B30BE40BF50B661F771F881F991F1A9499
:1042500069F760957095809590959B01AC01BD01C3
:10426000CF010895EE0FFF1F881F8BBF0790F691B7
:10427000E02D19940F931F93CF93DF938230910514
:1042800010F482E090E0E091DE0AF091DF0A30E085
:1042900020E0B0E0A0E0309799F42115310509F451
:1042A0004AC0281B390B24303105D8F58A819B81FF
:1042B0006115710589F1FB0193838283FE0111C0B1
:1042C000408151810281138148175907E0F0481756
:1042D000590799F4109761F012960C931297139660
:1042E0001C933296CF01DF91CF911F910F910895CA
:1042F0000093DE0A1093DF0AF4CF2115310551F047
:104300004217530738F0A901DB019A01BD01DF0113
:10431000F801C1CFEF01F9CF9093DF0A8093DE0A55
:10432000CDCFFE01E20FF31F81939193225031090B
:1043300039832883D7CF2091DC0A3091DD0A232BE3
:1043400041F420917D0230917E023093DD0A20936A
:10435000DC0A20917B0230917C022115310541F469
:104360002DB73EB740917F0250918002241B350B40
:10437000E091DC0AF091DD0AE217F307A0F42E1BAE
:104380003F0B2817390778F0AC014E5F5F4F2417B9
:10439000350748F04E0F5F1F5093DD0A4093DC0A4B
:1043A000819391939FCFF0E0E0E09CCFCF93DF9398
:1043B0000097E9F0FC01329713821282A091DE0A85
:1043C000B091DF0AED0130E020E01097A1F42081E8
:1043D0003181820F931F2091DC0A3091DD0A28176A
:1043E000390709F061C0F093DD0AE093DC0ADF9140
:1043F000CF910895EA01CE17DF07E8F54A815B8186
:104400009E0141155105B1F7E901FB83EA8349910A
:104410005991C40FD51FEC17FD0761F4808191817C
:104420000296840F951FE901998388838281938185
:104430009B838A83F0E0E0E012968D919C91139724
:104440000097B9F52D913C911197CD010296820FFD
:10445000931F2091DC0A3091DD0A2817390739F6BD
:10446000309751F51092DF0A1092DE0AB093DD0A00
:10447000A093DC0ABCCFD383C28340815181840FD7
:10448000951FC817D90761F44E5F5F4F88819981E6
:10449000480F591F518340838A819B819383828374
:1044A0002115310509F0B0CFF093DF0AE093DE0A61
:1044B0009ECFFD01DC01C0CF13821282D7CF4F9275
:1044C0005F926F927F928F929F92AF92BF92CF92A4
:1044D000DF92EF92FF920F931F93CF93DF938C01A4
:1044E000009799F4CB01DF91CF911F910F91FF902D
:1044F000EF90DF90CF90BF90AF909F908F907F9084
:104500006F905F904F900C943A21FC01E60FF71FDB
:104510009C0122503109E217F30708F4AEC0D9011B
:10452000CD91DC911197C617D70720F1C530D10581
:1045300078F0CE0104978617970750F0C61BD70B6B
:104540002297C193D1936D937C93CF010E94D62182
:10455000C801DF91CF911F910F91FF90EF90DF90F5
:10456000CF90BF90AF909F908F907F906F905F9013
:104570004F9008955B01AC1ABD0A4C018C0E9D1E34
:10458000A091DE0AB091DF0A512C412CF12CE12CD4
:10459000109731F58091DC0A9091DD0A8815990514
:1045A00009F05CC04616570608F058C080917B029F
:1045B00090917C02009741F48DB79EB740917F02A5
:1045C00050918002841B950BE817F90708F055C03D
:1045D000F093DD0AE093DC0AF90171836083B8CFC0
:1045E0008D919C91119712966C90129713967C90D6
:1045F0001397A815B90559F56C0142E0C40ED11CFA
:10460000CA14DB0420F1AC014A195B09DA011296E5
:10461000159780F06282738251834083D9016D9334
:104620007C93E114F10471F0D7011396FC93EE939F
:1046300012978ECF22968C0F9D1FF9019183808354
:10464000F301EFCFF093DF0AE093DE0A81CF481643
:10465000590608F42C017D01D3019ACFCB010E94A9
:104660003A217C01009749F0AE01B8010E94402335
:10467000C8010E94D62187016BCF10E000E068CF0F
:10468000FB01DC0102C001900D9241505040D8F76F
:104690000895FB01DC018D91019080190110D9F37F
:1046A000990B0895FB01DC0101900D920020E1F7C8
:1046B0000895FB01DC014150504030F08D91019094
:1046C000801919F40020B9F7881B990B0895FB0194
:1046D000DC014150504048F001900D920020C9F794
:1046E00001C01D9241505040E0F7089511E0C1E62D
:1046F000D1E000E006C0802FFE010E943221219609
:10470000011DC236D10780E00807A9F7F894FFCF52
:1047100047616D6520537461727465642120476F31
:104720006F64206C75636B210000000000000000C6
:1047300000566963746F72792120416C6C2074613A
:10474000736B7320646F6E65210000000000000031
:10475000000047616D65204F766572212054696DB8
:104760006527732075702100000000000000000024
:1047700000000008090C0D3E3F4041313233413406
:10478000353642373839432A3023440000E00A8066
:104790000000004000140054007EFF0600010000ED
:1047A0000000EF1E001F0020002100220023002433
:1047B00000250029002A002B002C002D002E002FA0
:1047C00000300016001700180019001A001B000224
:1047D000000300040005000600070036003700381B
:1047E0000039003A003B0032003300340035003C11
:1047F000001C001D0025002800310000000000B34F
:104800000213024002000371024F02630200000023
:1048100000AA077D07C008530776076307540700FF
:104820000000004E040E04DD0300000000DC09134C
:1048300002C00804020D0A0054696D652072656D9E
:1048400061696E696E673A0030004A61636B20638C
:104850006F6E6E656374696F6E73204F4B21004AF3
:1048600061636B20636F6E6E656374696F6E732036
:1048700077726F6E67210057656C6C20646F6E6590
:10488000210054727920616761696E21004B65795E
:10489000706164204C45442047616D6500496E6934
:1048A0007469616C697A696E672E2E2E00534420FC
:1048B00043617264204572726F72210043686563C0
:1048C0006B2053442043617264004D503320506C80
:1048D00061796572204572726F720047616D652063
:1048E000636F6E74696E7565730054657374696E79
:1048F00067204C4544732E2E2E002D2D2D7361768E
:1049000065642020436F6E66696775726174696FB4
:104910006E202D2D2D00436F756E74646F776E3A87
:10492000200050656E616C74793A20005377697489
:10493000636865733A2000427574746F6E733A2031
:1049400000506F74733A20002C20004A61636B732F
:104950003A20004B657970616420436F64653A20AA
:10496000005374617274204D6573736167653A20FA
:1049700000436F7272656374204D65737361676580
:104980003A200057726F6E67204D657373616765DB
:104990003A20006E6F7720636F6E6E6563742074CB
:1049A0006865204755492020636F6E666967757298
:1049B00061746F7200507265737320535441525486
:1049C000005345543A004F4B3A434F554E54444FD1
:1049D000574E004F4B3A50454E414C5459004F4BA7
:1049E0003A5357495443484553004F4B3A42555464
:1049F000544F4E53004F4B3A504F5453004F4B3A85
:104A00004A41434B53004F4B3A4B4559434F444562
:104A1000004F4B3A53415645004D53473A004F4BD8
:104A20003A4D53473A5354415254004F4B3A4D5329
:104A3000473A434F5252454354004F4B3A4D534728
:104A40003A57524F4E47004F4B3A4D53473A56490B
:104A500043544F5259004F4B3A4D53473A44454601
:104A6000454154004745543A434F4E464947004359
:104A70004F4E4649473A434F554E54444F574E3A8E
:104A800000434F4E4649473A50454E414C54593ADF
:104A900000434F4E4649473A5357495443484553BC
:104AA0003A00434F4E4649473A425554544F4E53AD
:104AB0003A00434F4E4649473A504F54533A002C20
:104AC00000434F4E4649473A4A41434B533A00430D
:104AD0004F4E4649473A4B4559434F44453A0043A8
:104AE0004F4E4649473A4D53473A53544152543A30
:104AF00000434F4E4649473A4D53473A434F52526F
:104B00004543543A00434F4E4649473A4D53473A7E
:104B100057524F4E473A00434F4E4649473A4D533E
:104B2000473A564943544F52593A00434F4E46492B
:104B3000473A4D53473A4445464541543A004F4B56
:104B40003A52455345540054696D6527732075707A
:104B500021005377697463682073657175656E63AE
:104B600065005365742073776974636865732E2ECE
:104B70002E00427574746F6E2073657175656E6377
:104B80006500507265737320627574746F6E732E56
:104B90002E2E00506F74656E74696F6D657465724A
:104BA000730041646A75737420706F74732E2E2EB7
:104BB000004A61636B20636F6E6E656374696F6E2C
:104BC0007300436F6E6E656374206A61636B732E4E
:104BD0002E2E004B657970616420636F646500451B
:104BE0006E74657220636F64653A20005475726E4E
:104BF000696E67206F6E20475245454E204C4544F4
:104C00002000537769746368657320636F727265FF
:104C10006374210053776974636865732077726FDA
:104C20006E6721004B657970616420636F64652055
:104C3000636F727265637421004B657970616420E3
:104C4000636F64652077726F6E672100416C6C2022
:104C50007461736B7320646F6E65210042757474A8
:104C60006F6E2073657120636F72726563742100CB
:104C7000427574746F6E207365712077726F6E6702
:104C80002100506F74656E74696F6D657465727321
:104C90002077726F6E672100506F74656E74696F54
:0C4CA0006D6574657273204F4B2100009D
:00000001FF
