:020000040000FA
:100000000C9462010C9493010C9493010C94930151
:100010000C9493010C9493010C9493010C94930110
:100020000C9493010C94AA0E0C94AA0E0C94AA0E94
:100030000C9493010C9493010C9493010C949301F0
:100040000C9493010C9493010C9493010C949301E0
:100050000C9493010C9493010C9493010C94600EF6
:100060000C9493010C942A0E0C94000E0C949301A2
:100070000C9493010C9493010C9493010C949301B0
:100080000C9493010C9493010C9493010C949301A0
:100090000C94CA0D0C94A00D0C9493010C94B40E06
:1000A0000C9493010C9493010C9493010C94930180
:1000B0000C9493010C9493010C9493010C94930170
:1000C0000C9493010C9493010C9493010C94930160
:1000D0000C9493010C9493010C9493010C94930150
:1000E0000C9493010C9471020C9439070C946302E4
:1000F0000C94A2030C9413020C9400030C94860538
:100100000C948F050C9417070C9491050C94DF0147
:100110000C94D80F0C94A6030C948D050C948A03B0
:100120000C9426070C944F020C946D070C948003DA
:100130000C94B3020C9471050C9490030C949F09D9
:100140000C946B030C9440020C94E0010C94AC03EF
:100150000C949E030C94DD030C946A050C947903B3
:100160000C947F050C94511F0C9440070C947D0354
:100170000C94B0030C94AB030C9483080C9486038A
:100180000C9498030C9416070C9494030C9404029A
:100190000C940E040C944E040C9471030C9475038F
:1001A00000002100240027002A002D003000330029
:1001B00001010000040107010A01000022002500DE
:1001C00028002B002E003100340002010000050140
:1001D00008010B01000020002300260029002C004C
:1001E0002F0032000001000003010601090105058E
:1001F0000505070508080808020202020A0A08089D
:1002000004040404010101010101010103030303CA
:1002100003030303040707070C0C0C0C0C0C0C0C59
:100220000202020206060606060606060B0B0B0B6A
:100230000B0B0B0B0102102020080810204010208F
:10024000408002010201080402010102040810209A
:100250004080804020100804020180040201804098
:100260002010080402010804020101020408102001
:100270004080010204081020408000000A0B02099F
:100280000C0D0E0807030401000000000000000030
:10029000000000000000000000000000000000005E
:1002A000000000000000121110000000000000001B
:1002B000000000000000000000000000000000003E
:1002C000D80F511F11241FBECFEFD1E2DEBFCDBF2B
:1002D00000E00CBF2AE0A4E3B7E001C01D92A43700
:1002E000B207E1F717E0A0E0B2E0EAE7F4E400E0EB
:1002F0000BBF02C007900D92A433B107D9F711E0EC
:10030000C1E6D1E000E006C021970109802FFE017F
:100310000E94E71FC036D10780E00807A9F70E94B6
:10032000F0100C942B220C940000FC01A089B189E0
:1003300082E08C93A485B5851C92A685B7858FEC49
:100340008C93108EA489B58986E08C93A289B38999
:100350008C9180618C93A289B3898C9188608C93F5
:10036000A289B3898C9180688C930288F389E02DEF
:1003700080818F7D8083089596E0899FD00111242C
:10038000A153B64F90967C936E935F9791E09196B0
:100390009C939197E0913C0AF0913D0A90913B0A21
:1003A000992339F0309751F0811108C08091EB0901
:1003B0001994309719F05C968C91FACF08950895AE
:1003C0000895FC01248135816217730748F4808108
:1003D0009181009729F0860F971FFC018081089575
:1003E00080E00895FC01248135816217730720F4B1
:1003F00080819181009729F41092F10781EF97E0B5
:100400000895860F971F08950895DB0114964D9166
:100410005C9115976D917C91DC01ED91FC910280CE
:10042000F381E02D1994AF92BF92CF92DF92EF92B9
:10043000FF920F931F93CF93DF936C017B018B018E
:10044000040F151FEB015E01AE18BF08C017D107DE
:1004500059F06991D601ED91FC910190F081E02D68
:10046000C6011995892B79F7C501DF91CF911F91AD
:100470000F91FF90EF90DF90CF90BF90AF900895D5
:10048000FC01538D448D252F30E0842F90E0821B9A
:10049000930B541710F0CF96089501970895FC011F
:1004A000918D828D981761F0A28DAE0FBF2FB11D77
:1004B0005D968C91928D9F5F9F73928F90E00895CF
:1004C0008FEF9FEF0895FC01918D828D981731F089
:1004D000828DE80FF11D858D90E008958FEF9FEFDD
:1004E0000895FC01918D228D892F90E0805C9F4FB3
:1004F000821B91098F73992708958DE798E00E94D8
:10050000710221E0892B09F420E0822F08958AE10D
:1005100099E00E94710221E0892B09F420E0822FEA
:100520000895FC01A48DA80FB92FB11DA35ABF4F88
:100530002C91848D90E001968F739927848FA689E2
:10054000B7892C93A089B1898C91837080648C9336
:10055000938D848D981306C00288F389E02D8081E5
:100560008F7D80830895EF92FF920F931F93CF9317
:10057000DF93EC0181E0888F9B8D8C8D98131AC0DE
:10058000E889F989808185FF15C09FB7F894EE89C5
:10059000FF896083E889F989808183708064808322
:1005A0009FBF81E090E0DF91CF911F910F91FF906D
:1005B000EF900895F62E0B8D10E00F5F1F4F0F7315
:1005C0001127E02E8C8D8E110CC00FB607FCFACFD0
:1005D000E889F989808185FFF5CFCE010E949102DB
:1005E000F1CFEB8DEC0FFD2FF11DE35AFF4FF082A1
:1005F0009FB7F8940B8FEA89FB8980818062CFCF07
:10060000CF93DF93EC01888D8823B9F0AA89BB8949
:10061000E889F9898C9185FD03C0808186FD0DC034
:100620000FB607FCF7CF8C9185FFF2CF808185FF55
:10063000EDCFCE010E949102E9CFDF91CF910895D5
:1006400080E090E0892B29F00E94870281110E94AE
:10065000000080E090E0892B29F00E947D0281114A
:100660000E94000080E090E0892B49F080E090E05B
:10067000892B29F00E94000081110E94000080E077
:1006800090E0892B49F080E090E0892B29F00E94CE
:10069000000081110C94000008958150823108F00F
:1006A0005AC0E82FF0E08827E75AFC4F8F4F0C9490
:1006B000E71F79037D036B0371037503AB038003AD
:1006C00086038A039003940398039E03A203AB035B
:1006D000A603AC03B003809180008F7780938000E5
:1006E0000895809180008F7DF9CF80918000877F71
:1006F000F5CF84B58F7784BD089584B58F7DFBCF0A
:100700008091B0008F778093B00008958091B00001
:100710008F7DF9CF809190008F778093900008951E
:10072000809190008F7DF9CF80919000877FF5CFE9
:100730008091A0008F778093A00008958091A00001
:100740008F7DF9CF8091A000877FF5CF8091200128
:100750008F77809320010895809120018F7DF9CFBC
:1007600080912001877FF5CFCF93DF93282F30E052
:10077000F901E658FD4F8491F901EC5CFD4FD491ED
:10078000F901E251FE4FC491CC23A1F081110E94E6
:100790004D03EC2FF0E0EE0FFF1FEC52FE4FA59142
:1007A000B491EC91ED2381E090E009F480E0DF91D9
:1007B000CF91089580E090E0FACF862F0C94B40397
:1007C0001F93CF93DF93282F30E0F901E658FD4FB8
:1007D0008491F901EC5CFD4FD491F901E251FE4F97
:1007E000C491CC23A9F0162F81110E944D03EC2F48
:1007F000F0E0EE0FFF1FE654FE4FA591B4918FB7C6
:10080000F894EC91111108C0D095DE23DC938FBFD2
:10081000DF91CF911F910895DE2BF8CF862F642FA3
:100820000C94E003CF93DF9390E0FC01EC5CFD4F70
:10083000249182519E4FFC0184918823C9F090E05D
:10084000880F991FFC01E056FE4FA591B491FC0161
:10085000E654FE4FC591D49161110DC09FB7F89435
:100860008C91209582238C938881282328839FBF95
:10087000DF91CF910895623051F49FB7F8943C9185
:10088000822F809583238C93E8812E2BEFCF8FB717
:10089000F894EC912E2B2C938FBFEACF862F642FE8
:1008A0000C9412043FB7F8948091ED079091EE07F5
:1008B000A091EF07B091F00726B5A89B05C02F3F88
:1008C00019F00196A11DB11D3FBFBA2FA92F982F76
:1008D0008827BC01CD01620F711D811D911D42E071
:1008E000660F771F881F991F4A95D1F708958F9239
:1008F0009F92AF92BF92CF92DF92EF92FF926B01E5
:100900007C010E9452044B015C01C114D104E1043A
:10091000F104B9F00E945204681979098A099B0907
:10092000683E73408105910580F321E0C21AD10829
:10093000E108F10888EE880E83E0981EA11CB11C26
:10094000E4CFFF90EF90DF90CF90BF90AF909F905B
:100950008F9008952FB7F8946091E9077091EA0796
:100960008091EB079091EC072FBF08950F931F9391
:1009700080913E0A90913F0ADC01ED91FC91008448
:10098000F185E02D1995892B09F4D5C060E070E060
:10099000CB010E94770420915C0A80913E0A9091DD
:1009A0003F0ADC01ED91FC910284F385E02D2111D9
:1009B0000BC019958093480A8E37D1F680915C0A56
:1009C0008F5F80935C0AD4CF199590915C0AE92FD0
:1009D000F0E0E25CF54F82879230B9F09930D9F0BF
:1009E0009130A9F48F3F99F010925C0A81E08093D6
:1009F0005E0A1092610A1092600A8093620A109255
:100A0000630A80E01F910F910895863069F79F5F18
:100A100090935C0AADCF8F3E39F780914A0A90914E
:100A2000490A890F9927991FE0914B0A9C012E0FC3
:100A3000311D80914C0A820F932F911D40914D0AD8
:100A400050E0840F951F20914E0A30E060914F0ACC
:100A500070E0762F6627F091500A6F0F711D820F9C
:100A6000931F9195819591096817790709F0BCCF7B
:100A700010925C0AE13419F41092630A3DC0E093CD
:100A80005F0A542F4427240F351F3093610A2093A7
:100A9000600AEA53E63108F044C0F0E08827EC5AD7
:100AA000FA4F8F4F0C94E71F7F0586058F056A0567
:100AB0008F0571058D0591058F058F058F058F05B4
:100AC0008F058F058F058F0591058F058F058F0584
:100AD0008F058F0585E080935E0A81E08093620A2E
:100AE0000BC089E020FDF7CF84E021FDF4CF237017
:100AF00033278AE0232B79F78091620A83CF87E03E
:100B000020FDE9CF82E021FDE6CFF6CF88E020FD91
:100B1000E2CF83E021FDDFCFEFCF86E0DCCF8BE0BB
:100B2000DACF81E080935E0A1092610A1092600A27
:100B30008093620AA1CF8091630A8823E9F20E9420
:100B4000AA040091400A1091410A2091420A309172
:100B5000430A601B710B820B930B0091440A1091A6
:100B6000450A2091460A3091470A601771078207AB
:100B7000930710F210925C0A10925E0A1092610ABA
:100B80001092600A81E039CF8093550A272F30E018
:100B90007093570A6093580A4091540A9091530AEF
:100BA000490F5527551F840F952F911D4091560AC7
:100BB000840F911D820F931F680F792F711D7195FE
:100BC000619571097093590A60935A0A442361F040
:100BD0008091630A882341F060E070E0CB010E94BD
:100BE00077040E94B604F4CF80913E0A90913F0AA8
:100BF000DC01ED91FC910280F381E02D4AE050E0B0
:100C000062E57AE019950E94AA046093400A709305
:100C1000410A8093420A9093430A8091560A91E0D8
:100C2000811101C090E09093630A811106C06AE0CF
:100C300070E080E090E00C9477040895BC0183E0BC
:100C40000C94C4050F931F93CF93DF93C82FD62F17
:100C500086E0C89FF0011124E153F64F11A2878D61
:100C600090A181309105F1F058F082309105F1F1B9
:100C7000039709F440C0DF91CF911F910F91089520
:100C80006623C9F361E070E08C2F0E94BC010E94D2
:100C9000AA046093270A7093280A8093290A9093E4
:100CA0002A0AE9CF0E94AA040091270A1091280A73
:100CB0002091290A30912A0AAB01BC01401B510B3B
:100CC000620B730B8091390A90913A0AB0E0A0E070
:100CD00084179507A607B70748F462E070E08C2FE9
:100CE000DF91CF911F910F910C94BC0163E070E0F4
:100CF000D111C1CFF4CF70E060E0F1CF0F931F931B
:100D00000E94AA0460932209709323098093240906
:100D1000909325098AE199E00E944F0297FF1DC038
:100D20000E94AA040091220910912309209124090C
:100D300030912509601B710B820B930B00911E09EA
:100D400010911F0920912009309121096017710726
:100D500082079307F8F28FEF9FEF1F910F9108958D
:100D600020917507260F3327331F21323105ECF40C
:100D70002091BE07FC0190E080E0243069F082E021
:100D80000895A09175072191AC014B5A584FA40FBB
:100D9000B52FB11D2C930196861798F38091750796
:100DA000680F6093750780E0089581E008951092C0
:100DB000BE0781E08093BD071092980761E084E14F
:100DC0000E94E00361E085E10E94E003E9EBF0E0CE
:100DD00080818E7F808380818D7F808388E4809373
:100DE000B80085E48093BC000895CF93DF9391E031
:100DF000909354078823B9F0C091B800D091BA00FD
:100E00008091BC008A7B8093BC0060E084E10E94FA
:100E1000E00360E085E10E94E0030E94D706D093E2
:100E2000BA00C093B800DF91CF9108950895E09182
:100E3000F9078091F807E81730F4F0E0EC5CF84F20
:100E4000808190E008958FEF9FEF08959091F907CA
:100E50008091F8072FEF3FEF981748F4E92FF0E063
:100E6000EC5CF84F208130E09F5F9093F907C90157
:100E700008958091F8079091F907891B990B0895BF
:100E8000CF92DF92EF92FF920F931F93CF93DF9356
:100E90007C01CB018A012091C407222389F0EB0158
:100EA0006B01C40ED51ECC15DD0569F06991D70123
:100EB000ED91FC910190F081E02DC7011995F3CFE0
:100EC000642F0E94B006C801DF91CF911F910F914E
:100ED000FF90EF90DF90CF900895CF93DF931F9214
:100EE000CDB7DEB769832091C4072223F9F02091A2
:100EF000F607203258F021E030E0FC0133832283F2
:100F000090E080E00F90DF91CF9108958091F707F6
:100F1000E82FF0E0EB53F84F998190838F5F809337
:100F2000F7078093F60781E090E0ECCF61E0CE0117
:100F300001960E94B006F7CFCF92DF92EF92FF9218
:100F40000F931F93CF93DF93FC01C48121E0209383
:100F5000C407C093E5071092F7071092F607838540
:100F6000682B87EB99E00E946D07D091F607D1328C
:100F700008F092C00E9452046B017C018091BE0770
:100F8000811165C082E08093BE0781E08093BD0738
:100F90008FEF8093BC071092BB07D093BA07A5ECE4
:100FA000B7E0EAE9F7E080E0D81385C0109299072E
:100FB00080919907CC0FC82BC0939907809198070F
:100FC000813009F07CC0109298070E9452046B0196
:100FD0007C01809199078093BB008091C00790911C
:100FE000C107A091C207B091C307892B8A2B8B2B15
:100FF00099F00E9452040091C0071091C1072091FE
:10100000C2073091C3076C197D098E099F09061725
:10101000170728073907E0F18091BC0083FDD9CF7D
:1010200085EC8093BC000E9452046B017C0180918E
:10103000BE07823009F445C08091BC078F3F61F143
:101040008091BC07803241F18091BC0725C080911E
:10105000C0079091C107A091C207B091C307892B27
:101060008A2B8B2B09F48ACF0E9452040091C0076F
:101070001091C1072091C2073091C3076C197D09F7
:101080008E099F09061717072807390708F076CF3A
:101090008091BF070E94F5061092F7071092F6079D
:1010A0001092C407DF91CF911F910F91FF90EF90A5
:1010B000DF90CF9008959D9191938F5F75CF85EECE
:1010C000B0CF8091C0079091C107A091C207B091A5
:1010D000C307892B8A2B8B2B09F4A9CF0E945204BA
:1010E0000091C0071091C1072091C2073091C3073A
:1010F0006C197D098E099F090617170728073907FC
:1011000008F095CFC5CF90E080E0089580917308F6
:1011100090917408A0917508B091760840911A08D2
:1011200050911B0860911C0870911D08841B950B41
:10113000A60BB70B8093730890937408A09375085F
:10114000B093760808950F931F93CF93DF93C1EE6A
:10115000D2E08E01F80180810E5F1F4F61E00E9496
:10116000E003F2E00B3E1F07A9F764EF71E080E0B7
:1011700090E00E9477048881229660E00E94E0035C
:1011800082E0CB3ED807B9F7DF91CF911F910F9145
:1011900008950F931F93CF938C01C62F0E949C0735
:1011A0006C2F6460C8010E949C076C2F6B7FC80184
:1011B0000E949C0783EC90E00197F1F7CF911F917B
:1011C0000F9108950F931F93CF93DF938C01D62F28
:1011D000C42F607F642B0E94C90880E1D89FB001B2
:1011E00011246C2BC801DF91CF911F910F910C94AA
:1011F000C908CF93DF9300D000D01F921F92CDB7C4
:10120000DEB798E0E1E8F2E0DE01119601900D9280
:101210009A95E1F790916C0A961708F46FEF262FD4
:1012200030E0220F331F41E050E04C0F5D1F240FD0
:10123000351FF9016081680F606840E084E69AE03C
:1012400028960FB6F894DEBF0FBECDBFDF91CF91C9
:101250000C94E20840E061E084E69AE00E94E20833
:101260008BE39FE10197F1F70895CF93DF93EC01B2
:101270000E942A09BE0184E69AE00E94050261E00C
:1012800080E00E94F90863EC79E084E69AE00E942D
:10129000050285E090E00E941E0664EF71E080E0A8
:1012A00090E00E94770460ED77E080E090E00E949B
:1012B00077040E94AA04685E7340810991096093D3
:1012C0006A0870936B0880936C0890936D08DF91A7
:1012D000CF910895CF93DF93EC010E942A09BE01BC
:1012E00084E69AE00E94050261E080E00E94F9082D
:1012F00069EC79E084E69AE00E94050284E090E0DF
:101300000E941E0664EF71E080E090E00E94770486
:1013100060ED77E080E090E00E9477040E94AA04EC
:10132000685E73408109910960936A0870936B0845
:1013300080936C0890936D08DF91CF91089541E000
:101340000E94E20881E090E008950F931F93CF93ED
:10135000DF93FC01048115810115110539F4FB01AE
:101360001082DF91CF911F910F9108954150510943
:101370004017510708F48A01EB01FC01608171817B
:10138000A801CE010E941C22C00FD11F1882E9CFF4
:101390000C949D1FCF92DF92EF92FF920F931F93B9
:1013A000CF93DF93EB017B0124E0E20EF11C8B0174
:1013B0006C01C61AD70AC601800F911F0E94951FA3
:1013C000F80181938F01EE15FF05A9F7CE01DF919A
:1013D000CF911F910F91FF90EF90DF90CF900895E4
:1013E0009F92AF92BF92CF92DF92EF92FF920F93B4
:1013F0001F93CF93DF935C017B018B01D0E0C0E0B2
:10140000F80191908F016501CC0EDD1EC6010E948E
:10141000951F981621F0692DC6010E949D1F2196E7
:10142000C430D10569F7C701DF91CF911F910F91AA
:10143000FF90EF90DF90CF90BF90AF909F90089576
:101440000C94951FFC0180819181009711F00C9400
:10145000591F60E070E0CB010895FB01019000206E
:10146000E9F73197AF01461B570BDC01ED91FC9179
:101470000280F381E02D199465E273E08AE199E03E
:101480000C942D0ACF93DF93BC018AE199E00E946E
:101490000502EC010E943C0A8C0F9D1FDF91CF9149
:1014A00008958F929F92AF92BF92EF92FF920F9307
:1014B0001F93CF93DF93CDB7DEB7A1970FB6F89404
:1014C000DEBF0FBECDBF7C01FA01CB0119A22230D5
:1014D00008F42AE08E010F5D1F4F822E912CB12C53
:1014E000A12CBF01A50194010E94C51FF901CA01E9
:1014F0006A300CF5605DD8016E938D01232B242B8F
:10150000252B79F790E080E0109721F0BD01C7010D
:101510000E942D0AA1960FB6F894DEBF0FBECDBF74
:10152000DF91CF911F910F91FF90EF90BF90AF90FF
:101530009F908F900895695CDECFCF92DF92EF92FB
:10154000FF920F931F93CF93DF936B01770FEE08FA
:10155000FF08F7FE1FC0EC01E881F9810190F081DE
:10156000E02D6DE219958C0144275527BA014C19DD
:101570005D096E097F092AE0CE010E94510A800FA1
:10158000911FDF91CF911F910F91FF90EF90DF900E
:10159000CF9008952AE0B701A601DF91CF911F9166
:1015A0000F91FF90EF90DF90CF900C94510ACF9362
:1015B000DF93AB01BC012AE08AE199E00E94510A65
:1015C000EC010E943C0A8C0F9D1FDF91CF91089582
:1015D000CF93DF93BC018AE199E00E942D0AEC01D0
:1015E0000E943C0A8C0F9D1FDF91CF9108950C94AF
:1015F0002D0AFB0144815581FC012481358124178A
:10160000350778F080819181009759F0FB01608166
:1016100071816115710529F00E940E2221E0892B4C
:1016200009F020E0822F08950F931F93CF93DF934B
:101630008C01EB01FC01808191810097E1F06881D0
:10164000798161157105A9F0428153812C813D8119
:101650004217530770F00E9407228C819D81F80188
:10166000958384831D821C82DF91CF911F910F91FE
:1016700008950E948B2088819981F801918380834D
:101680008A819B81938382838C819D8195838483CE
:10169000198218821B821A82E5CFCF93DF93EC0167
:1016A00088819981009711F00E948B2019821882FD
:1016B0001D821C821B821A82DF91CF910895FC014A
:1016C00080819181009711F00C948B2008950F93E5
:1016D0001F93CF93DF93EC0188819981009759F094
:1016E0002A813B812617370730F081E0DF91CF91C7
:1016F0001F910F9108958B016F5F7F4F0E941421FE
:10170000009759F0998388831B830A832C813D813C
:10171000232B59F7FC011082E8CF80E0E7CFEF924E
:10172000FF920F931F93CF93DF93EC017B011982FC
:1017300018821B821A821D821C82FB0101900020EC
:10174000E9F731978F01061B170BB8010E94670B51
:10175000811109C0CE01DF91CF911F910F91FF90B0
:10176000EF900C944D0B1D830C83B70188819981F8
:10177000DF91CF911F910F91FF90EF900C94072272
:101780009F92AF92BF92CF92DF92EF92FF920F9310
:101790001F93CF93DF937C016B015A0189012417BA
:1017A000350720F48B2D5901042F182F67E273E0C1
:1017B000C7010E948F0BD6011496CD91DC91AC1617
:1017C000BD0650F50C171D0708F4E801D601ED9190
:1017D000FC911197EC0FFD1F908010820D911C91D0
:1017E0000A0D1B1D0115110571F0F8010190002073
:1017F000E9F731975F01A01AB10AB501C7010E944C
:10180000670B811116C0C7010E944D0BD6018D9147
:101810009C91C80FD91F9882C701DF91CF911F916A
:101820000F91FF90EF90DF90CF90BF90AF909F907F
:101830000895F701B582A482B801808191810E9448
:101840000722E4CFCF93DF93EC01FB0124813581A4
:101850000E94C00BCE01DF91CF9108952F923F924D
:101860004F925F926F927F928F929F92AF92BF92B0
:10187000CF92DF92EF92FF920F931F93CF93DF935C
:10188000CDB7DEB7C650D1400FB6F894DEBF0FBE5D
:10189000CDBF9E012F5F3F4F390180E091E0F901FC
:1018A0009C01119221503040E1F72301630193E93B
:1018B000A92E92E0B92EF12CE12C22242394F501DB
:1018C0003080F2E0AF0EB11C61E0832D0E94120463
:1018D00060E0832D0E94E00383E9882E82E0982E49
:1018E00010E000E0E016F10651F0F40180810E9462
:1018F000B403892B21F4F601E00FF11F20820F5F62
:101900001F4FF2E08F0E911C0031110559F762E074
:10191000832D0E9412042FEFE21AF20A30E1C30E67
:10192000D11C80E1E816F10451F64AE158E0AAEF33
:10193000B7E06D917C91119777FD20C012968D9143
:101940009C91139797FD1AC0FB0104E0EE0FFF1F57
:101950000A95E1F7E60DF71DE80FF91F2081222314
:1019600091F0FC0114E0EE0FFF1F1A95E1F7E60D70
:10197000F71DE60FF71F2081222329F014964A173E
:101980005B07B9F621E070E060E0DB011196CD0164
:101990008031910509F445C0F301E80FF91F30814A
:1019A00031110BC0FC0134E0EE0FFF1F3A95E1F757
:1019B000E40DF51D3081332361F0EAEFF7E000819B
:1019C00011810617170739F40281138108171907C7
:1019D00051F40196DDCF0817190729F4028113810C
:1019E00006171707B1F334964E175F0741F76DE3FB
:1019F00073E0CE018F5F9E4F0E948F0BCE018F5FF1
:101A00009E4F0E943509CE018F5F9E4F0E945F0B53
:101A10000E94A30885E090E00E941E060E948608AE
:101A20003DC0222321F39FEF491A590AE0E16E0ECF
:101A3000711CBD01509709F0A8CF81E080936F0819
:101A400080914208909143080196909343088093B7
:101A5000420868E273E0CE018F5F9E4F0E948F0BB9
:101A6000CE018F5F9E4F0E946A09CE018F5F9E4F0D
:101A70000E945F0B80914208909143088630910547
:101A80004CF4880F991FFC01EB52FD4F61E08081FF
:101A90000E94E00384E090E00E941E06CA5FDE4FD1
:101AA0000FB6F894DEBF0FBECDBFDF91CF911F916F
:101AB0000F91FF90EF90DF90CF90BF90AF909F90ED
:101AC0008F907F906F905F904F903F902F900895F0
:101AD00085ED8093BC008091C0079091C107A091D3
:101AE000C207B091C3070796A11DB11D23E0B695AB
:101AF000A795979587952A95D1F72091BC0024FD4D
:101B000003C01092BE0708954091C0075091C107CD
:101B10006091C2077091C307452B462B472B69F391
:101B20000097A105B10541F02AE22A95F1F700C01E
:101B30000197A109B109E1CF8091BF070C94F50687
:101B40001F920F920FB60F9211240BB60F922F9384
:101B50003F934F935F936F937F938F939F93AF9335
:101B6000BF93EF93FF938DE798E00E949102FF915E
:101B7000EF91BF91AF919F918F917F916F915F9105
:101B80004F913F912F910F900BBE0F900FBE0F9072
:101B90001F9018951F920F920FB60F9211240BB63B
:101BA0000F922F938F939F93EF93FF93E0918D0864
:101BB000F0918E088081E0919308F091940882FD65
:101BC0001DC09081809196088F5F8F732091970838
:101BD000821741F0E0919608F0E0E358F74F958FB7
:101BE00080939608FF91EF919F918F912F910F9085
:101BF0000BBE0F900FBE0F901F9018958081F2CFF3
:101C00001F920F920FB60F9211240BB60F922F93C3
:101C10003F934F935F936F937F938F939F93AF9374
:101C2000BF93EF93FF938AE199E00E949102FF91A5
:101C3000EF91BF91AF919F918F917F916F915F9144
:101C40004F913F912F910F900BBE0F900FBE0F90B1
:101C50001F9018951F920F920FB60F9211240BB67A
:101C60000F922F938F939F93EF93FF93E0912A0905
:101C7000F0912B098081E0913009F091310982FDCA
:101C80001DC09081809133098F5F8F73209134093B
:101C9000821741F0E0913309F0E0E65EF64F958F50
:101CA00080933309FF91EF919F918F912F910F9026
:101CB0000BBE0F900FBE0F901F9018958081F2CF32
:101CC0001F920F920FB60F9211242F933F938F9371
:101CD0009F93AF93BF938091E9079091EA07A091FA
:101CE000EB07B091EC073091E80723E0230F2D3785
:101CF00058F50196A11DB11D2093E8078093E907CF
:101D00009093EA07A093EB07B093EC078091ED075F
:101D10009091EE07A091EF07B091F0070196A11DF9
:101D2000B11D8093ED079093EE07A093EF07B0935A
:101D3000F007BF91AF919F918F913F912F910F909D
:101D40000FBE0F901F90189526E8230F0296A11D35
:101D5000B11DD2CF1F920F920FB60F9211240F9088
:101D60000FBE0F901F9018951F920F920FB60F92F3
:101D700011240BB60F922F933F934F935F936F9362
:101D80007F938F939F93AF93BF93EF93FF93809134
:101D9000B900887F803609F44DC008F040C0883211
:101DA00009F4A9C028F5803109F49DC0C8F488233E
:101DB00009F4FBC0883009F496C0FF91EF91BF9100
:101DC000AF919F918F917F916F915F914F913F91D3
:101DD0002F910F900BBE0F900FBE0F901F90189574
:101DE000883109F488C0803241F78093BC0714C061
:101DF000803409F49DC040F48033B9F38833E9F6A8
:101E00008093BC0785ECB0C0803509F485C0883567
:101E100009F496C0883489F60E94680DCECF8839BF
:101E200009F48CC038F5883729F050F4883611F061
:101E3000803719F683E08093BE071092970757C04A
:101E4000883809F47BC0803919F0803809F0B5CFA3
:101E500080919707803208F071C0E091970781E088
:101E60008E0F809397078091BB00F0E0E958F84F00
:101E700080833DC0803B39F0E0F4803A09F479C0BA
:101E8000883A09F09ACF84E08093BE0710927607D3
:101E900010927507E091F207F091F3071995809180
:101EA000750781110FC081E0809375071092550767
:101EB00009C0803C09F4A6CF883C09F4A3CF883B35
:101EC00009F07BCFE091760781E08E0F8093760753
:101ED000F0E0EB5AF84F80818093BB009091760739
:101EE0008091750729C0809199078093BB0085EC8C
:101EF0008093BC0062CF9091BB078091BA0798177E
:101F000058F5E091BB0781E08E0F8093BB07F0E0AE
:101F1000E656F84F8081E9CFE091BB0781E08E0F54
:101F20008093BB078091BB00F0E0E656F84F8083BA
:101F30009091BB078091BA079817C8F285E8D8CF6F
:101F4000E091BB0781E08E0F8093BB078091BB00BF
:101F5000F0E0E656F84F80838091BD0781115CCF99
:101F600081E08093980784EA8093BC001092BE07BA
:101F700024CF85EC8093BC001092BE078091970718
:101F8000803230F4E0919707F0E0E958F84F108282
:101F90006091970770E0E091F407F091F50787E70B
:101FA00097E019951092970708CF1092BC0734CF8D
:101FB0001092800810927F0888EE93E0A0E0B0E0D5
:101FC0008093810890938208A0938308B09384083B
:101FD0002FEE32E030937E0820937D084DEC50E0E8
:101FE00050938A08409389084CEC50E050938C0839
:101FF00040938B0848EC50E050938E0840938D0836
:1020000049EC50E05093900840938F084AEC50E020
:1020100050939208409391084EEC50E050939408EE
:10202000409393081092960810929708109298087F
:102030001092990810921D0910921C0980931E0994
:1020400090931F09A0932009B093210930931B0995
:1020500020931A0925EC30E03093270920932609B4
:1020600024EC30E0309329092093280920EC30E05B
:1020700030932B0920932A0921EC30E030932D096D
:1020800020932C0922EC30E030932F0920932E0965
:1020900026EC30E030933109209330091092330957
:1020A0001092340910923509109236091092BA092B
:1020B0001092B9098093BB099093BC09A093BD0904
:1020C000B093BE0981E093E09093B8098093B7097B
:1020D0001092670A1092660A8DE193E09093650A68
:1020E0008093640A87E28093680A80E180936D0A96
:1020F00082E080936E0A10926F0A44EF51E060E034
:1021000070E04093440A5093450A6093460A7093E6
:10211000470A9AE0E9E8F2E0A2E5BAE001900D9200
:102120009A95E1F710925C0A80935D0A1092620A18
:102130001092630A1092D1091092D5091092D40915
:102140001092D60983E193E09093D0098093CF0950
:10215000EBEEF9E0108214821382158236968AE043
:10216000E732F807B9F787E692E09093320A809356
:10217000310A83E692E09093340A8093330A84E034
:102180008093350A8093360A8BE692E09093300A6A
:1021900080932F0A8AE090E09093380A8093370A60
:1021A00084EF91E090933A0A8093390A10923D0AA5
:1021B00010923C0A10922B0A10922C0A10922D0AAF
:1021C00010922E0A10923B0A65E573E089EC99E0C3
:1021D0000E948F0B60E673E083EC99E00C948F0B08
:1021E000CF93DF93CDB7DEB7A1970FB6F894DEBFDC
:1021F0000FBECDBF789484B5826084BD84B5816004
:1022000084BD85B5826085BD85B5816085BD8091C1
:102210006E00816080936E00109281008091810039
:102220008260809381008091810081608093810031
:10223000809180008160809380008091B1008460F3
:102240008093B1008091B00081608093B000809154
:1022500091008260809391008091910081608093D1
:102260009100809190008160809390008091A10006
:1022700082608093A1008091A10081608093A10081
:102280008091A00081608093A000809121018260F4
:1022900080932101809121018160809321018091AF
:1022A000200181608093200180917A008460809376
:1022B0007A0080917A00826080937A0080917A001F
:1022C000816080937A0080917A00806880937A00A0
:1022D0001092C1008AE199E00E9495018DE798E093
:1022E0000E9495011092F9071092F8071092F707D3
:1022F0001092F6070E94D7068FED91E09093F307B6
:102300008093F20780EE91E09093F5078093F407B5
:102310000E94D7061092690A80916E0A823018F0E6
:1023200098E09093690A80936C0A62E370E080E021
:1023300090E00E94770460916F0A84E69AE00E9420
:102340009C0768EE73E080E090E00E94770460E311
:1023500084E69AE00E94C9080BE416E4C8010197DC
:10236000F1F760E384E69AE00E94C908C80101978A
:10237000F1F760E384E69AE00E94C90883E592E001
:102380000197F1F760E284E69AE00E94C908609143
:10239000690A606240E084E69AE00E94E20884E014
:1023A00080936A0A40E06CE084E69AE00E94E208CA
:1023B0000E942A0982E080936B0A40E066E084E68E
:1023C0009AE00E94E20840E062E084E69AE00E941F
:1023D000E2088BE39FE10197F1F788E080936F0AB1
:1023E00060E084E69AE00E949C070E942A096BE65E
:1023F00073E084E69AE00E94F70A61E080E00E94C0
:10240000F9086BE773E084E69AE00E94F70A68EE49
:1024100073E080E090E00E9477048DE798E090936D
:102420003F0A80933E0A81E08093560A70E060E0A4
:102430008CE00E94C4050E94AA046B017C010E94EA
:10244000B604811111C00E94AA046C197D098E097D
:102450009F09613D77408105910530F460E070E0AF
:10246000CB010E947704EBCF68EC70E080E090E055
:102470000E9477041092620A80915E0A843081F093
:10248000893071F00E942A0967E873E084E69AE0D7
:102490000E94F70A68EE73E080E090E00E94770403
:1024A00069E170E086E00E94C40521EEA22E22E0E0
:1024B000B22E31EEE32E32E0F32E07ED12E0F801FA
:1024C000D0800E5F1F4F61E08D2D0E94120461E0ED
:1024D0008D2D0E94E003F701D080F2E0EF0EF11C99
:1024E00061E08D2D0E94120461E08D2D0E94E003B9
:1024F000A016B10621F781EEE82E82E0F82E97EDC6
:10250000292E92E0392EF1018081F2E02F0E311C4C
:1025100060E00E94E003F7018081F2E0EF0EF11C21
:1025200060E00E94E0032016310669F762E087E26E
:102530000E9412040FEB12E023EB32E03A8F298F56
:10254000E98DFA8D80813296FA8FE98F62E00E94E0
:102550001204298D3A8D0217130791F70FEB12E041
:10256000F80180810E5F1F4F62E00E941204F2E0CA
:102570000B3C1F07A9F703E912E0B3EBEB2EB2E027
:10258000FB2EF80180810E5F1F4F62E00E94120453
:10259000E016F106B1F763E778E090E080E00E9492
:1025A000CA096AE178E084E090E00E94CA090EE17D
:1025B00018E088E090E07C01FFEFEF1AFF0A0E942C
:1025C000200A90E0F801819391938F01C7018E302A
:1025D000910589F7AAE2CA2EA8E0DA2E87010F5FDB
:1025E0001F4FC7010E94200A90E0F601819391934A
:1025F0006F0178010431110589F7F6E3EF2EF8E059
:10260000FF2EC8010E94951FF7018083C801019623
:102610000E94951FF7018183F2E0EF0EF11C0E5F1F
:102620001F4F0032110569F7EAEFEE2EE7E0FE2EAC
:1026300000E210E068012FEFC21AD20AC8010E941E
:10264000200A90E0F701918380830E5F1F4FC6013F
:102650000E94200A90E0F70193838283F4E0EF0E5A
:10266000F11C0033110531F774E4E72E78E0F72E02
:1026700068012FEFC21AD20AC8010E94200AF7018E
:1026800081937F0186010A33110591F700E012E082
:102690007601FFEFEF1AFF0AC6010E94200AF80137
:1026A00081938F016701FBE5EF16F10489F787013C
:1026B0000F5F1F4FC7010E94200AD82EB7016B552C
:1026C000710989EC99E00E94F201FC01D082780145
:1026D0000C37110561F778012FEFE21AF20AC801F1
:1026E0000E94200AD82EB8016C57710983EC99E03A
:1026F0000E94F201FC01D08287010D39110559F7C2
:1027000061E2E62E62E0F62E8DE990E08C010F5F2B
:102710001F4F0E94200AF70181937F01C8010E3BE1
:102720001105A1F752E4E52E52E0F52E6801FFEF06
:10273000CF1ADF0AC8010E94200AF70181937F01A6
:1027400086010F3D110591F782E993E00E94E80AA6
:1027500062E370E080E090E00E9477046EEA73E04C
:102760008AE199E00E94F70A6091730870917408F9
:10277000809175089091760848EEC42E43E0D42EDF
:10278000E12CF12CA70196010E94C51FCA01B901D5
:102790000E94D70A62E370E080E090E00E94770434
:1027A0006AEB73E08AE199E00E94F70A60911A08E7
:1027B00070911B0880911C0890911D08A70196013B
:1027C0000E94C51FCA01B9010E94D70A62E370E0E6
:1027D00080E090E00E94770464EC73E08AE199E085
:1027E0000E94F70A0EE118E0F801619171918F01E2
:1027F0008AE199E00E949D0AF8E00A321F07A1F7DA
:102800000E943C0A62E370E080E090E00E9477045E
:102810006FEC73E08AE199E00E94F70A06E318E0A2
:102820002AE238E03C8F2B8FEB8DFC8D619171910A
:10283000FC8FEB8F8AE199E00E949D0A2B8D3C8DE5
:102840000217130789F70E943C0A62E370E080E0F8
:1028500090E00E94770469ED73E08AE199E00E94BC
:10286000F70A36E3E32E38E0F32E10E000E0F7013C
:10287000619171917F018AE199E00E949D0A053082
:10288000110531F060EE73E08AE199E00E94F70AE9
:102890000F5F1F4F0630110551F70E943C0A62E39B
:1028A00070E080E090E00E94770463EE73E08AE1DC
:1028B00099E00E94F70A0AEF17E0F8016081718140
:1028C0008AE199E00E949D0A60EE73E08AE199E056
:1028D0000E94F70AF801628173818AE199E00E94FF
:1028E0009D0A60EE73E08AE199E00E94F70A0E9477
:1028F0003C0A0C5F1F4FF8E00A311F07F1F662E354
:1029000070E080E090E00E9477046BEE73E08AE173
:1029100099E00E94F70A84E498E00E94E80A69EFCF
:1029200073E08AE199E00E94F70A80E092E00E9459
:10293000E80A69E074E08AE199E00E94F70A89EC0C
:1029400099E00E94420A6BE174E08AE199E00E94FA
:10295000F70A83EC99E00E94420A8BE294E00E941D
:10296000E80A8AE199E00E947102181619060CF033
:102970000FC167E273E0CE0143960E948F0B0E9465
:102980007E0697FD1EC08A309105D9F089831A8290
:102990000F89188D0F5F1F4FB801CE0143960E941B
:1029A000670B882361F32B893C898F89988DBE0141
:1029B0006F5F7F4F820F931F0E940722188F0F8B2C
:1029C000DECF64EF71E080E090E00E9477046DE478
:1029D00074E0CE0101960E948F0BBE016F5F7F4FA6
:1029E000CE0143960E94F90A182FCE0101960E944B
:1029F0005F0B112309F495C544E050E0BE016D5E04
:102A00007F4FCE0101960E94220CBE016F5F7F4F67
:102A1000CE0143960E94140BCE0101960E945F0BDB
:102A200062E075E0CE0101960E948F0BBE016F5FE0
:102A30007F4FCE0143960E94F90A182FCE010196CE
:102A40000E945F0B112321F14AE050E0BE016D5E50
:102A50007F4FCE0101960E94220CCE0101960E946A
:102A6000220A9B01AC01A8EEB3E00E94AB1F609369
:102A70007308709374088093750890937608CE015C
:102A800001960E945F0B82E594E00E94E80A7CC0F8
:102A900064E175E0CE0101960E948F0BBE016F5F6D
:102AA0007F4FCE0143960E94F90A182FCE0101965E
:102AB0000E945F0B112311F148E050E0BE016D5EF2
:102AC0007F4FCE0101960E94220CCE0101960E94FA
:102AD000220A9B01AC01A8EEB3E00E94AB1F6093F9
:102AE0001A0870931B0880931C0890931D08CE0150
:102AF00001960E945F0B8FE594E0C7CF64E275E01A
:102B0000CE0101960E948F0BBE016F5F7F4FCE01F9
:102B100043960E94F90A182FCE0101960E945F0B7E
:102B2000112309F4B8C149E050E0BE016D5E7F4F4A
:102B3000CE0101960E94220C0D811E81F12CE12C08
:102B4000E016F10690F4B701CE0101960E94E10172
:102B5000F701EE0FFF1FE25EF74F21E030E0813317
:102B600011F030E020E0318320832FEFE21AF20AE7
:102B700036E0E316F10421F78AE694E00E94E80AC1
:102B8000CE0101960E945F0BCE0143960E945F0B1F
:102B900080917C08811150C080917B08811132C7DF
:102BA00087E20E94B403892B09F02CC781E080934F
:102BB0007C080E94AA046093770870937808809339
:102BC000790890937A081092430810924208109264
:102BD0007208109271081092700810926F0810928B
:102BE0006E080E942A0960E072E084E69AE00E9482
:102BF000F70A81E090E00E941E0664EF71E080E039
:102C000090E00E94770468EB7BE080E090E00E9417
:102C100077040E94AA04685E734081099109609359
:102C20006A0870936B0880936C0890936D0880918C
:102C30007C08882309F4E6C6F0917B08FD8FF1112A
:102C4000E1C60E94AA0400916A0810916B082091C5
:102C50006C0830916D08601B710B820B930B683E02
:102C600073408105910508F4A1C0C0907708D09009
:102C70007808E0907908F0907A080E94AA0460939E
:102C80006A0870936B0880936C0890936D080E949B
:102C9000AA04DC01CB018C199D09AE09BF09809003
:102CA000730890907408A0907508B0907608881505
:102CB0009905AA05BB0508F079C0881A990AAA0ADD
:102CC000BB0AC501B40128EE33E040E050E00E94A9
:102CD000C51F69017A01C501B40120E83EEE46E353
:102CE00050E00E94C51F29013F8F2E8FC701B601FA
:102CF00020E13EE040E050E00E94C51F2CE330E0C0
:102D000040E050E00E94C51F490139A328A3C70134
:102D1000B6012CE330E040E050E00E94C51F6B019B
:102D20008B010E942A0963ED75E084E69AE00E9417
:102D3000F70A61E080E00E94F9084E8D5F8D4A300D
:102D4000510534F463EE75E084E69AE00E94F70AD8
:102D5000B20184E69AE00E949D0A69E675E084E685
:102D60009AE00E94F70A88A199A10A9734F463EEC9
:102D700075E084E69AE00E94F70AB40184E69AE0DE
:102D80000E949D0A69E675E084E69AE00E94F70ACF
:102D90000A30110534F463EE75E084E69AE00E948F
:102DA000F70AB60184E69AE00E949D0A0E94AA04EE
:102DB00000917708109178082091790830917A086D
:102DC000601B710B820B930B0091730810917408B8
:102DD0002091750830917608601771078207930774
:102DE00048F181E080937B080E942A0962E472E046
:102DF00084E69AE00E94F70A61E080E00E94F90808
:102E000065EE75E084E69AE00E94F70A83E090E0C0
:102E10000E941E06BBEEEB2EB2E0FB2E01EE12E08E
:102E2000F80180810E5F1F4F61E00E94E003E01611
:102E3000F106B1F781E080933B0A0E94AA04009159
:102E40002B0A10912C0A20912D0A30912E0AAB01E9
:102E5000BC01401B510B620B730B8091370A9091A0
:102E6000380AB0E0A0E084179507A607B70708F076
:102E7000CDC510E08091350A181708F088C4E0919C
:102E8000310AF091320AE10FF11D62E080810E9467
:102E900012041F5FEFCF65E375E0CE0101960E943B
:102EA0008F0BBE016F5F7F4FCE0143960E94F90AE0
:102EB000182FCE0101960E945F0B112351F148E0BB
:102EC00050E0BE016D5E7F4FCE0101960E94220C44
:102ED0000D811E81F12CE12CE016F10680F4B70182
:102EE000CE0101960E94E101F701EE0FFF1FE65DA2
:102EF000F74F082E000C990BC097918380834FEFFA
:102F0000E41AF40A56E0E516F10431F786E794E096
:102F100035CE65E475E0CE0101960E948F0BBE01AF
:102F20006F5F7F4FCE0143960E94F90A182FCE01A2
:102F300001960E945F0B112309F46FC045E050E039
:102F4000BE016D5E7F4FCE010D960E94220C10E0F7
:102F500000E0B12CA12CF12CE12CC988DA880C15E9
:102F60001D0508F053C0B801CE010D960E94E10185
:102F70008C3231F081E0C81AD1080C151D05C9F555
:102F800067E273E0CE0107960E948F0B89899A89C8
:102F900001970817190781F5A501BE01635F7F4FEF
:102FA000CE0101960E94220CBE016F5F7F4FCE01C1
:102FB00007960E94140BCE0101960E945F0B96E0CB
:102FC000E916F1045CF4CE0107960E94220AF7018B
:102FD000EE0FFF1FEA5CF74F718360835801EFEF3C
:102FE000AE1ABE0AFFEFEF1AFF0ACE0107960E9443
:102FF0005F0B0F5F1F4FB1CF9801A501BE01635F4B
:103000007F4FCE0101960E94C00BCECF81E894E0A5
:103010000E94E80ACE010D96B5CD64E575E0CE01BB
:1030200001960E948F0BBE016F5F7F4FCE014396CA
:103030000E94F90A182FCE0101960E945F0B1123FE
:1030400009F481C03E012DE0620E711C46E050E0A3
:10305000BE016D5E7F4FC3010E94220C10E000E0B4
:10306000D12CC12C912C812CF12CE12C562C472CED
:10307000A988BA880A151B0508F05EC0B801852D1D
:10308000942D0E94E1018C3239F031E0A31AB1088D
:103090000A151B0509F040C067E273E0CE010796F0
:1030A0000E948F0B89899A89019708171907B9F52A
:1030B000A401B301CE0101960E94220CBE016F5FF4
:1030C0007F4FCE0107960E94140BCE0101960E94FD
:1030D0005F0BF8E0EF16F104BCF4CE0107960E94F6
:1030E000220AF701EE0FFF1FEC0DFD1DEE0FFF1F73
:1030F000E650F84F71836083CA94CD28C9F45FEF1E
:10310000E51AF50AD12CC12C48018FEF881A980ACC
:10311000CE0107960E945F0B0F5F1F4FA9CF98014A
:10312000A401652D742DCE0101960E94C00BC6CF5F
:10313000CC24C394D12CE8CF89E894E00E94E80A1B
:10314000852D942D1FCD62E675E0CE0101960E947B
:103150008F0BBE016F5F7F4FCE0143960E94F90A2D
:10316000182FCE0101960E945F0B1123A1F048E0B9
:1031700050E0BE016D5E7F4FCE0101960E94220C91
:103180004AE050E064E478E0CE0101960E94A5098F
:1031900082E994E0F3CC8F89988D892B09F4DFC004
:1031A00060EA74E08B899C890E94FE217C01892B56
:1031B00009F0D5C063E778E090E080E00E94F00974
:1031C0006AE178E084E090E00E94F0090EE118E006
:1031D00088E090E0F80160810E5F1F4F6C01FFEF07
:1031E000CF1ADF0A0E94C809C6018E30910591F7F7
:1031F0004AE2A42E48E0B42EF5016081F2E0AF0E61
:10320000B11C86010F5F1F4FC6010E94C8096801EB
:103210000431110589F7A8014E5D574F6A01580125
:1032200052E0A50EB11CF60191906F01C8010E94F9
:10323000951F981621F0692DC8010E949D1F0F5FF0
:103240001F4FA016B10679F70032110521F73AEFAA
:10325000C32E37E0D32E5801FFEFAF1ABF0AF60195
:103260006081C8010E94C8090E5F1F4FF60162818C
:10327000C5010E94C809F4E0CF0ED11C003311052E
:1032800051F724E4A22E28E0B22EF50161915F01EE
:103290006801FFEFCF1ADF0AC8010E94C809860142
:1032A0000A33110591F700E012E0F80161918F01F6
:1032B0005601FFEFAF1ABF0AC6010E94C809650197
:1032C0002BE5A216B10489F710E000E0B80189EC03
:1032D00099E00E94F201FC016081C801855A9F4F6C
:1032E0000E94C8090F5F1F4F0132110579F7B7011E
:1032F00083EC99E00E94F201FC016081C7018458CF
:103300009F4F0E94C809FFEFEF1AFF0A21E2E21661
:10331000F10469F701E212E08DE990E0F8016191B2
:103320008F016C01FFEFCF1ADF0A0E94C809C601A6
:103330008E3B910599F702E412E0F80161918F014B
:103340007601FFEFEF1AFF0AC6010E94C809670164
:103350002FEDE216F10489F78DE994E096CB65EA4A
:1033600074E0CE0101960E948F0BBE016F5F7F4F0C
:10337000CE0143960E94F90A182FCE0101960E94B1
:103380005F0B112309F400CC44E050E0BE016D5EF8
:103390007F4FCE0101960E94220CBE016F5F7F4FCE
:1033A000CE0143960E94140BCE0101960E945F0B42
:1033B00066E775E0CE0101960E948F0BBE016F5F3C
:1033C0007F4FCE0143960E94F90A182FCE01019635
:1033D0000E945F0B1123A1F046E050E0BE016D5E3C
:1033E0007F4FCE0101960E94220C41E250E060E046
:1033F00072E0CE0101960E94A5098AEA94E0BECB54
:1034000068E875E0CE0101960E948F0BBE016F5FE8
:103410007F4FCE0143960E94F90A182FCE010196E4
:103420000E945F0B112361F048E050E0BE016D5E29
:103430007F4FCE0101960E94220C87EB94E09ECB39
:103440006CE975E0CE0101960E948F0BBE016F5FA3
:103450007F4FCE0143960E94F90A182FCE010196A4
:103460000E945F0B112361F046E050E0BE016D5EEB
:103470007F4FCE0101960E94220C86EC94E07ECB19
:103480006EEA75E0CE0101960E948F0BBE016F5F60
:103490007F4FCE0143960E94F90A182FCE01019664
:1034A0000E945F0B1123A1F048E050E0BE016D5E69
:1034B0007F4FCE0101960E94220C41E250E061E272
:1034C00072E0CE0101960E94A50983ED94E056CBEF
:1034D00062EC75E0CE0101960E948F0BBE016F5F1A
:1034E0007F4FCE0143960E94F90A182FCE01019614
:1034F0000E945F0B112309F447CB47E050E0BE0167
:103500006D5E7F4FCE0101960E94220C41E250E099
:1035100062E472E0CE0101960E94A50982EE94E079
:103520002DCB8F89988D892B09F42ECB0B891C8983
:1035300060EF74E0C8010E94FE216C01892B09F044
:10354000EDC06BEF74E08AE199E00E94F70A6091A8
:10355000730870917408809175089091760828EE30
:1035600033E040E050E00E94C51FCA01B9010E944B
:10357000D70A6DE075E08AE199E00E94F70A609150
:103580001A0870911B0880911C0890911D0828EE64
:1035900033E040E050E00E94C51FCA01B9010E941B
:1035A000D70A6DE175E08AE199E00E94F70A0EE121
:1035B00018E0F801619171918F018AE199E00E9410
:1035C0009D0AF8E00A321F07A1F70E943C0A6EE24A
:1035D00075E08AE199E00E94F70A0AE218E0F80132
:1035E000619171918F018AE199E00E949D0A2B8D72
:1035F0003C8D0217130799F70E943C0A6EE375E0B1
:103600008AE199E00E94F70A96E3E92E98E0F92E04
:1036100010E000E0F701619171917F018AE199E08A
:103620000E949D0A0530110531F06BE475E08AE1D6
:1036300099E00E94F70A0F5F1F4F0630110551F7FE
:103640000E943C0A6DE475E08AE199E00E94F70A65
:103650000AEF17E0F801608171818AE199E00E9428
:103660009D0A6BE475E08AE199E00E94F70AF8018F
:10367000628173818AE199E00E949D0AF7E0CF168A
:10368000D10431F06BE475E08AE199E00E94F70A19
:103690002FEFC21AD20A0C5F1F4F38E0C316D104B5
:1036A000C9F60E943C0A6BE575E08AE199E00E9448
:1036B000F70A84E498E00E94E80A6BE675E08AE184
:1036C00099E00E94F70A80E092E00E94E80A6DE724
:1036D00075E08AE199E00E94F70A89EC99E00E947E
:1036E000420A61E975E08AE199E00E94F70A83ECF9
:1036F00099E00E94420A63EA75E08AE199E00E943B
:10370000F70A81E292E00E94E80A67EB75E08AE13D
:1037100099E00E94F70A82E492E0B7C96DEC75E087
:10372000C8010E94FE21892B09F02ECA10927C0844
:1037300010927B0801EE12E087EDE82E82E0F82E71
:10374000F7018081F2E0EF0EF11C60E00E94E003DF
:10375000F80180810E5F1F4F60E00E94E0032E148D
:103760003F0471F70E942A096BE673E084E69AE051
:103770000E94F70A61E080E00E94F9086BE773E0BD
:1037800084E69AE00E94F70A8AEC95E07EC9912CC3
:103790008091360A981608F063C0E92CF12CE0916C
:1037A000330AF091340AEE0DFF1D61E080810E9422
:1037B0001204E091330AF091340AEE0DFF1D60E02F
:1037C00080810E94E00381E090E0A0E0B0E0092C5D
:1037D00004C0880F991FAA1FBB1F0A94D2F75C016F
:1037E0006C01C094D094812C8091350A881608F51C
:1037F000082D10E0E091310AF091320AE00FF11F3C
:1038000080810E94B4030C5F1F4F000F111FF8014D
:10381000E153F64F892B41F4808191818A299B29BC
:10382000918380838394E0CF808191818C219D213D
:10383000F7CFE091330AF091340AEE0DFF1D61E0FD
:1038400080810E94E0038091330A9091340AE80E4F
:10385000F91E60E0F70180810E941204939498CFD2
:10386000FFECCF2EF9E0DF2E8BE09AE08601F80125
:10387000278D30A1232B31F4148E2FEF3FEF368F9D
:10388000258F11A20A5F1F4F8017910781F7B12C76
:10389000E6E09E2E8091350AB81608F052C0A12CA1
:1038A000EB2CF12CEE0CFF1CA7014952564F7A016C
:1038B0002091360AA21608F042C0F701608171819A
:1038C0000A2C02C0769567950A94E2F7B29E9001A1
:1038D00011242A0D311DEFECF9E080E0458D568D65
:1038E0002417350709F4C7C28F5F36968A30B1F7BF
:1038F00060FF23C0EFECF9E090E080E0448D4111DF
:1039000017C0E0912F0AF091300AE20FF31F4081B7
:10391000989EF001999EF00D1124E153F64F448FCB
:10392000368F258F10A2178E61E00E94220605C0F7
:10393000019636968A30910509F7A394B9CFB394CE
:10394000A9CFF60181A181118D8FF6E0CF0ED11C98
:103950000C151D05B1F70E94AA0460932B0A709301
:103960002C0A80932D0A90932E0A2D8D222309F480
:103970004DC08091F009882309F448C08091EE0978
:103980009091EF09019709F041C01091EB091111D5
:1039900040C0809172088823A9F180917108882322
:1039A00089F180917008882369F180916F088823DC
:1039B00049F180916E08882329F181E080937B088A
:1039C0000E942A0961E272E084E69AE00E94F70A06
:1039D00061E080E00E94F90864EC76E084E69AE019
:1039E0000E94F70A82E090E00E941E0607ED12E0B6
:1039F000F80180810E5F1F4F61E00E94E0032016F6
:103A00003106B1F70E9420030C94B11410923B0AC6
:103A1000C0CF80916908811174C08FEB810F843011
:103A200018F01A3209F0B5CF81E08093690810933D
:103A300068080E94AA0460936408709365088093E4
:103A400066089093670810926308109262081092BB
:103A50004E080E942A09123469F154F41A3209F40A
:103A600043C01134B1F086E090E00E941E0691CF71
:103A7000133469F11434B9F76FE476E084E69AE020
:103A80000E94F70A61E080E00E94F90860E676E0B3
:103A90000CC060EF75E084E69AE00E94F70A61E0EE
:103AA00080E00E94F90860E076E084E69AE00E94F7
:103AB000F70AD9CF60E176E084E69AE00E94F70A3F
:103AC00061E080E00E94F90860E276E0EECF61E319
:103AD00076E084E69AE00E94F70A61E080E00E94C6
:103AE000F90860E476E0E1CF61E776E084E69AE009
:103AF0000E94F70A61E080E00E94F9086DE776E035
:103B0000D4CF0E94AA04C0906408D0906508E090C9
:103B10006608F09067089B01AC012C193D094E091D
:103B20005F0969017A0131E6C3163AEED306E10472
:103B3000F10408F054C0C701B60128EE33E040E0BC
:103B400050E00E94C51F623371058105910510F593
:103B500060E67AEE80E090E06C197D098E099F099D
:103B600028EE33E040E050E00E94C51F490160E0CC
:103B70008EE00E94F9084AE08416910434F463EE62
:103B800075E084E69AE00E94F70AB40184E69AE0C0
:103B90000E949D0A80916808133209F03EC110927C
:103BA0006908823409F491C09CF58A3209F4F4C0A2
:103BB0000EE118E063EBE62E62E0F62E813481F12F
:103BC0000E94AA04685E73408109910960936A08A3
:103BD00070936B0880936C0890936D08DACE109206
:103BE000690865EE75E0CE0101960E948F0BCE014B
:103BF00001960E943509CE0101960E945F0B0E943A
:103C0000A30885E090E00E941E060E948608D8CF97
:103C1000833409F47FC0843499F60E942E0CD0CFEF
:103C2000F7018081F2E0EF0EF11C0E94B403F8016D
:103C3000419151918F0121E030E0892B11F030E06A
:103C400020E02417350709F018C1298D3A8D2E156B
:103C50003F0531F781E0809372088091420890918E
:103C600043089C012F5F3F4F309343082093420845
:103C7000263031054CF4880F991FFC01E952FD4FA5
:103C800061E080810E94E0036AE876E0CE0101965F
:103C90000E948F0BCE0101960E946A09CE01019607
:103CA0000E945F0B8DCF06301105C9F481E080932F
:103CB00071088091420890914308019690934308BF
:103CC0008093420864EE76E084C03AE2E32E38E066
:103CD000F32E4FEBC42E42E0D42E10E000E0F601AC
:103CE0008081F2E0CF0ED11C0E94B403F701419114
:103CF00051917F010F5F1F4F21E0892B09F020E0D8
:103D000081E04017510709F080E0281761F268EF61
:103D100076E069CFEBECF2E027ED32E0A6E3B8E025
:103D200080813296863308F0865340917B00982F2D
:103D30009870477F942B90937B008770806480936A
:103D40007C0080917A00806480937A0080917A0070
:103D500086FDFCCF80917800909179004D915D9126
:103D6000841B950B97FF03C0919581959109C3978B
:103D70000CF094C02E173F0799F681E080937008ED
:103D80008091420890914308019690934308809354
:103D900042086AE077E01DC0E0916208F091630894
:103DA000E25BF74F108264E478E08EE498E00E94D2
:103DB000FE21892B79F581E080936E08809142087D
:103DC00090914308019690934308809342086CE9D0
:103DD00076E0CE0101960E948F0BCE0101960E94E3
:103DE0006A09CE0101960E945F0B80914208909172
:103DF0004308863091054CF4880F991FFC01EB5263
:103E0000FD4F61E080810E94E00384E090E00E9429
:103E10001E06D6CE61EB76E0E6CE8A3209F0B9CD49
:103E20001A3209F4B6CD809162089091630883310B
:103E300091050CF0AECD9C012F5F3F4F309363088E
:103E400020936208825B974FFC011083225B374FFF
:103E5000F901108261E080E00E94F9086DE776E0E8
:103E600084E69AE00E94F70A6EE478E084E69AE03D
:103E70000E94F70A8ECD617058CD64ED76E0CE01D8
:103E800001960E948F0BCE0101960E943509CE014A
:103E900001960E945F0B0E94A308B7CE6DE177E008
:103EA000A2CE83EC99E00E945F0B89EC99E00C9420
:103EB0005F0B1F93FC0199278827BC01E89411919F
:103EC0001032E9F3193010F01E30C8F31B3251F0F4
:103ED0001D3249F4689406C00E94801F610F711D55
:103EE000811D911D119110531A30B0F33EF490953D
:103EF0008095709561957F4F8F4F9F4F1F910895CB
:103F0000592F482F372F262F660F771F881F991F8D
:103F1000660F771F881F991F620F731F841F951FDD
:103F2000660F771F881F991F0895F999FECF92BDDC
:103F300081BDF89A992780B50895262FF999FECF6B
:103F40001FBA92BD81BD20BD0FB6F894FA9AF99AB6
:103F50000FBE019608950E94B61FA59F900DB49FB5
:103F6000900DA49F800D911D11240895A29FB00172
:103F7000B39FC001A39F700D811D1124911DB29F9D
:103F8000700D811D1124911D0895A1E21A2EAA1B06
:103F9000BB1BFD010DC0AA1FBB1FEE1FFF1FA217F9
:103FA000B307E407F50720F0A21BB30BE40BF50BF6
:103FB000661F771F881F991F1A9469F7609570957F
:103FC000809590959B01AC01BD01CF010895EE0F46
:103FD000FF1F881F8BBF0790F691E02D19940F9358
:103FE0001F93CF93DF938230910510F482E090E02D
:103FF000E091720AF091730A30E020E0B0E0A0E0B6
:10400000309799F42115310509F44AC0281B390B62
:1040100024303105D8F58A819B816115710589F1BC
:10402000FB0193838283FE0111C040815181028193
:10403000138148175907E0F04817590799F410976A
:1040400061F012960C93129713961C933296CF013F
:10405000DF91CF911F910F9108950093720A1093F1
:10406000730AF4CF2115310551F04217530738F088
:10407000A901DB019A01BD01DF01F801C1CFEF0108
:10408000F9CF9093730A8093720ACDCFFE01E20FAD
:10409000F31F819391932250310939832883D7CF1D
:1040A0002091700A3091710A232B41F420917D02F6
:1040B00030917E023093710A2093700A20917B0226
:1040C00030917C022115310541F42DB73EB7409166
:1040D0007F0250918002241B350BE091700AF09111
:1040E000710AE217F307A0F42E1B3F0B28173907BC
:1040F00078F0AC014E5F5F4F2417350748F04E0F44
:104100005F1F5093710A4093700A819391939FCFE0
:10411000F0E0E0E09CCFCF93DF930097E9F0FC0163
:10412000329713821282A091720AB091730AED0144
:1041300030E020E01097A1F420813181820F931F9D
:104140002091700A3091710A2817390709F061C06F
:10415000F093710AE093700ADF91CF910895EA011C
:10416000CE17DF07E8F54A815B819E0141155105B5
:10417000B1F7E901FB83EA8349915991C40FD51F37
:10418000EC17FD0761F4808191810296840F951FE1
:10419000E90199838883828193819B838A83F0E0FC
:1041A000E0E012968D919C9113970097B9F52D91AF
:1041B0003C911197CD010296820F931F2091700AB6
:1041C0003091710A2817390739F6309751F5109256
:1041D000730A1092720AB093710AA093700ABCCF4E
:1041E000D383C28340815181840F951FC817D9079B
:1041F00061F44E5F5F4F88819981480F591F518349
:1042000040838A819B81938382832115310509F044
:10421000B0CFF093730AE093720A9ECFFD01DC01E8
:10422000C0CF13821282D7CF4F925F926F927F924C
:104230008F929F92AF92BF92CF92DF92EF92FF92B6
:104240000F931F93CF93DF938C01009799F4CB01C9
:10425000DF91CF911F910F91FF90EF90DF90CF9062
:10426000BF90AF909F908F907F906F905F904F9096
:104270000C94EF1FFC01E60FF71F9C01225031093F
:10428000E217F30708F4AEC0D901CD91DC91119784
:10429000C617D70720F1C530D10578F0CE010497B5
:1042A0008617970750F0C61BD70B2297C193D1935F
:1042B0006D937C93CF010E948B20C801DF91CF9139
:1042C0001F910F91FF90EF90DF90CF90BF90AF9034
:1042D0009F908F907F906F905F904F9008955B01BB
:1042E000AC1ABD0A4C018C0E9D1EA091720AB091B1
:1042F000730A512C412CF12CE12C109731F580914F
:10430000700A9091710A8815990509F05CC04616EB
:10431000570608F058C080917B0290917C0200976C
:1043200041F48DB79EB740917F0250918002841B6B
:10433000950BE817F90708F055C0F093710AE09360
:10434000700AF90171836083B8CF8D919C911197A8
:1043500012966C90129713967C901397A815B90536
:1043600059F56C0142E0C40ED11CCA14DB0420F1E3
:10437000AC014A195B09DA011296159780F0628246
:10438000738251834083D9016D937C93E114F104CE
:1043900071F0D7011396FC93EE9312978ECF22966D
:1043A0008C0F9D1FF90191838083F301EFCFF09370
:1043B000730AE093720A81CF4816590608F42C015B
:1043C0007D01D3019ACFCB010E94EF1F7C010097A2
:1043D00049F0AE01B8010E94F521C8010E948B206E
:1043E00087016BCF10E000E068CFFB01DC0102C069
:1043F00001900D9241505040D8F70895FB01DC0127
:104400008D91019080190110D9F3990B0895FB014A
:10441000DC0101900D920020E1F70895FB01DC0121
:104420004150504030F08D910190801919F40020D6
:10443000B9F7881B990B0895FB01DC0141505040EE
:1044400048F001900D920020C9F701C01D92415023
:104450005040E0F7089511E0C1E6D1E000E006C069
:10446000802FFE010E94E71F2196011DC236D10751
:1044700080E00807A9F7F894FFCF47616D652053E6
:104480007461727465642120476F6F64206C75637A
:104490006B21000000000000000000566963746F8B
:1044A00072792120416C6C207461736B7320646F8E
:1044B0006E652100000000000000000047616D658E
:1044C000204F766572212054696D652773207570C1
:1044D0002100000000000000000000000008090C9E
:1044E0000D3E3F4041313233413435364237383961
:1044F000432A3023440000740A8000000040001466
:104500000054007EFF06000100000000EF1E001FA7
:104510000020002100220023002400250029002A79
:10452000002B002C002D002E002F0030001600174D
:1045300000180019001A001B000200030004000507
:10454000000600070036003700380039003A003B0B
:104550000032003300340035003C001C001D0025F3
:10456000002800310000000000B3021302400200E6
:104570000371024F026302000000006D07400783D1
:10458000081607390726071707000000004E040E1B
:1045900004DD03000000009F091302830804020DDC
:1045A0000A004A61636B20636F6E6E656374696FA6
:1045B0006E73204F4B21004A61636B20636F6E6EF8
:1045C000656374696F6E732077726F6E6721005731
:1045D000656C6C20646F6E65210054727920616790
:1045E00061696E21004B6579706164204C454420FF
:1045F00047616D6500507265737320535441525486
:10460000004D5033204572726F7221002D2D2D7395
:10461000617665642020436F6E66696775726174A8
:10462000696F6E202D2D2D00436F756E74646F774A
:104630006E3A200050656E616C74793A20005377B1
:104640006974636865733A2000427574746F6E73A1
:104650003A2000506F74733A20002C20004A6163A6
:104660006B733A20004B657970616420436F646519
:104670003A20005374617274204D657373616765ED
:104680003A2000436F7272656374204D65737361E5
:1046900067653A200057726F6E67204D65737361CE
:1046A00067653A20006E6F7720636F6E6E65637486
:1046B00020746865204755492020636F6E666967DE
:1046C000757261746F72005345543A004F4B3A4310
:1046D0004F554E54444F574E004F4B3A50454E4164
:1046E0004C5459004F4B3A53574954434845530093
:1046F0004F4B3A425554544F4E53004F4B3A504F44
:104700005453004F4B3A4A41434B53004F4B3A4BA3
:104710004559434F4445004F4B3A53415645004D90
:1047200053473A004F4B3A4D53473A535441525432
:10473000004F4B3A4D53473A434F52524543540072
:104740004F4B3A4D53473A57524F4E47004F4B3A13
:104750004D53473A564943544F5259004F4B3A4DE7
:1047600053473A444546454154004745543A434F20
:104770004E46494700434F4E4649473A434F554EF0
:1047800054444F574E3A00434F4E4649473A5045DE
:104790004E414C54593A00434F4E4649473A5357BD
:1047A0004954434845533A00434F4E4649473A42DD
:1047B0005554544F4E533A00434F4E4649473A5092
:1047C0004F54533A002C00434F4E4649473A4A4112
:1047D000434B533A00434F4E4649473A4B455943A2
:1047E0004F44453A00434F4E4649473A4D53473AA6
:1047F00053544152543A00434F4E4649473A4D5361
:10480000473A434F52524543543A00434F4E46496C
:10481000473A4D53473A57524F4E473A00434F4E4F
:104820004649473A4D53473A564943544F52593AED
:1048300000434F4E4649473A4D53473A4445464553
:1048400041543A004F4B3A52455345540054696D18
:10485000652072656D61696E696E673A003000545B
:10486000696D6527732075702100537769746368DB
:104870002073657175656E63650053657420737789
:104880006974636865732E2E2E00427574746F6EA2
:104890002073657175656E63650050726573732072
:1048A000627574746F6E732E2E2E00506F74656E69
:1048B00074696F6D65746572730041646A757374B1
:1048C00020706F74732E2E2E004A61636B20636F0D
:1048D0006E6E656374696F6E7300436F6E6E6563B1
:1048E00074206A61636B732E2E2E004B65797061A4
:1048F0006420636F646500456E74657220636F6445
:10490000653A2000537769746368657320636F723A
:104910007265637421004B657970616420636F6414
:104920006520636F727265637421004B65797061F5
:104930006420636F64652077726F6E672100416C3D
:104940006C207461736B7320646F6E652100537704
:104950006974636865732077726F6E6721004275B2
:1049600074746F6E2073657120636F727265637407
:104970002100427574746F6E207365712077726FB9
:104980006E672100506F74656E74696F6D65746534
:104990007273204F4B2100506F74656E74696F6D98
:0E49A00065746572732077726F6E6721000078
:020000040003F7
:10E000000D9489F10D94B2F10D94B2F10D94B2F129
:10E010000D94B2F10D94B2F10D94B2F10D94B2F1F0
:10E020000D94B2F10D94B2F10D94B2F10D94B2F1E0
:10E030000D94B2F10D94B2F10D94B2F10D94B2F1D0
:10E040000D94B2F10D94B2F10D94B2F10D94B2F1C0
:10E050000D94B2F10D94B2F10D94B2F10D94B2F1B0
:10E060000D94B2F10D94B2F10D94B2F10D94B2F1A0
:10E070000D94B2F10D94B2F10D94B2F10D94B2F190
:10E080000D94B2F10D94B2F10D94B2F10D94B2F180
:10E090000D94B2F10D94B2F10D94B2F10D94B2F170
:10E0A0000D94B2F10D94B2F10D94B2F10D94B2F160
:10E0B0000D94B2F10D94B2F10D94B2F10D94B2F150
:10E0C0000D94B2F10D94B2F10D94B2F10D94B2F140
:10E0D0000D94B2F10D94B2F10D94B2F10D94B2F130
:10E0E0000D94B2F141546D656761323536300041AF
:10E0F000726475696E6F206578706C6F72657220DE
:10E1000073746B3530305632206279204D4C530099
:10E11000426F6F746C6F616465723E004875683F52
:10E1200000436F6D70696C6564206F6E203D200048
:10E130004350552054797065202020203D20005FF9
:10E140005F4156525F415243485F5F3D2000415658
:10E1500052204C696243205665723D20004743437C
:10E160002056657273696F6E203D20004350552024
:10E1700049442020202020203D20004C6F7720663D
:10E18000757365202020203D20004869676820665F
:10E190007573652020203D200045787420667573D6
:10E1A00065202020203D20004C6F636B2066757336
:10E1B000652020203D20004D617220203720323024
:10E1C000313300312E362E3800342E332E350056A2
:10E1D00023202020414444522020206F7020636F70
:10E1E00064652020202020696E73747275637469E1
:10E1F0006F6E2061646472202020496E74657272B3
:10E20000757074006E6F20766563746F7200726A49
:10E210006D702020006A6D70200057686174207056
:10E220006F72743A00506F7274206E6F7420737541
:10E2300070706F72746564004D7573742062652030
:10E2400061206C6574746572002000577269747483
:10E25000696E672045450052656164696E672045B7
:10E26000450045452065727220636E743D00504F35
:10E27000525400303D5A65726F2061646472003FF1
:10E280003D43505520737461747300403D454550C3
:10E29000524F4D207465737400423D426C696E6B41
:10E2A000204C454400453D44756D70204545505215
:10E2B0004F4D00463D44756D7020464C415348001B
:10E2C000483D48656C70004C3D4C69737420492F83
:10E2D0004F20506F72747300513D51756974005234
:10E2E0003D44756D702052414D00563D73686F7707
:10E2F00020696E7465727275707420566563746FF0
:10E30000727300593D506F727420626C696E6B00BD
:10E310002A0011241FBECFEFD1E2DEBFCDBF01E046
:10E320000CBF12E0A0E0B2E0EEE1FDEF03E00BBFB6
:10E3300002C007900D92A030B107D9F712E0A0E01B
:10E34000B2E001C01D92AE30B107E1F70F9460F367
:10E350000D948DFE01E20EBF0FEF0DBF11241FBE05
:10E360000D9460F30D9400F020E030E040ED57E0B4
:10E3700005C0FA013197F1F72F5F3F4F2817390792
:10E38000C0F308959C01260F311DC901A0E0B0E043
:10E390002F5F3F4FABBFFC018791882361F08093D3
:10E3A000C6008091C00086FFFCCF8091C0008064D1
:10E3B0008093C000EACF08958DE08093C6008091DD
:10E3C000C00086FFFCCF8091C00080648093C000B5
:10E3D0008AE08093C6008091C00086FFFCCF8091C8
:10E3E000C00080648093C00008950F94C2F10F9420
:10E3F000DCF10895FC019081992359F09093C600B7
:10E400008091C00086FFFCCF8091C0008064809323
:10E41000C0003196992379F70895282F982F929567
:10E420009F70892F805D8A3308F0895F8093C600D2
:10E430008091C00086FFFCCF8091C00080648093F3
:10E44000C000822F8F70982F905D9A3308F0995FEB
:10E450009093C6008091C00086FFFCCF8091C000E1
:10E4600080648093C00008959C01FB01853691056E
:10E470001CF46330710594F0C90164E670E00F94F8
:10E480002EFE605D7F4F6093C6008091C00086FFC6
:10E49000FCCF8091C00080648093C0002B30310598
:10E4A00014F43297B4F0C90164E670E00F942EFEC4
:10E4B0006AE070E00F942EFE605D7F4F6093C600AF
:10E4C0008091C00086FFFCCF8091C0008064809363
:10E4D000C000C9016AE070E00F942EFEC0968093E0
:10E4E000C6008091C00086FFFCCF8091C000806490
:10E4F0008093C00008951F93182F8EE692EE60E07F
:10E500000F94C2F11093C6008091C00086FFFCCF2B
:10E510008091C00080648093C0000F94DCF11F9153
:10E5200008952F923F924F925F926F927F928F92B7
:10E530009F92AF92BF92CF92DF92EF92FF920F9392
:10E540001F93DF93CF93CDB7DEB762970FB6F894E2
:10E55000DEBF0FBECDBF382E622ECA01DB015C01CB
:10E560006D01772420E2222E2E010894411C511CBB
:10E570008BC081E0A81680E0B80681E0C80680E084
:10E58000D80628F0C601AA27BB270F940DF2BB2797
:10E59000AD2D9C2D8B2D0F940DF28A2D0F940DF225
:10E5A0002092C6008091C00086FFFCCF8091C00001
:10E5B00080648093C0009DE29093C6008091C0006B
:10E5C00086FFFCCF8091C00080648093C0002092C1
:10E5D000C6008091C00086FFFCCF8091C00080649F
:10E5E0008093C00019828601750188249924A1E0D6
:10E5F0003A1651F03A1620F0B2E03B1661F409C029
:10E600000BBFF701779007C0C7010F9477FE782EF4
:10E6100002C0F7017080872D0F940DF22092C60082
:10E620008091C00086FFFCCF8091C0008064809301
:10E63000C000872D8052F401EF70F0708F3520F408
:10E64000E40DF51D708204C0E40DF51D8EE280839B
:10E650000894E11CF11C011D111D0894811C911CE2
:10E6600090E18916910409F0C2CF80E190E0A0E02A
:10E67000B0E0A80EB91ECA1EDB1E198AC2010F9493
:10E68000FAF10F94DCF16A94662009F072CF629679
:10E690000FB6F894DEBF0FBECDBFCF91DF911F91B3
:10E6A0000F91FF90EF90DF90CF90BF90AF909F9031
:10E6B0008F907F906F905F904F903F902F90089534
:10E6C0002F923F924F925F926F927F928F929F9282
:10E6D000AF92BF92CF92DF92EF92FF920F931F9370
:10E6E000DF93CF93CDB7DEB7CD53D1400FB6F894BB
:10E6F000DEBF0FBECDBF01E20EBF0FEF0DBF94B75F
:10E70000F894A89514BE80916000886180936000A1
:10E7100010926000789493FF05C0E0910002F091A0
:10E7200001021995279A2F9A8091C00082608093E8
:10E73000C00080E18093C40088E18093C1000000A4
:10E74000EE24FF24870144E0A42EB12CCC24DD2448
:10E7500024C0C5010197F1F70894E11CF11C011DCB
:10E76000111D21E2E2162EE4F20620E0020720E06D
:10E77000120718F031E0C32ED12CC801B70127ECE5
:10E780003BE140E050E00F9441FE611571058105C9
:10E79000910519F485B1805885B98091C00087FD35
:10E7A00003C0C114D104A9F2A6014F5F5F4FC25E3E
:10E7B000DE4F59834883CE51D140C25EDE4F8881FF
:10E7C0009981CE51D140019711F00D9410FEC05D9A
:10E7D000DE4F19821882C053D14060E0C15DDE4F28
:10E7E0001882CF52D14088249924C35DDE4F19820C
:10E7F0001882CD52D140C05EDE4F188219821A8233
:10E800001B82C052D140CE5CDE4F188219821A8220
:10E810001B82C253D140EE24FF2487010BBFF701B6
:10E8200007911691C45CDE4F19830883CC53D14005
:10E830000D940BFEC25EDE4F28813981CE51D1404E
:10E840002130310509F52091C600C25EDE4F1982E4
:10E850001882CE51D14022C02F5F3F4F4F4F5F4FA4
:10E86000213082E138078AE7480780E0580780F0C6
:10E87000C45CDE4FE881F981CC53D140EF5FFF4F9C
:10E8800019F0EE27FF27099420E030E040E050E047
:10E890008091C00087FFE0CF2091C600C35DDE4FAE
:10E8A00048815981CD52D1404F5F5F4FC35DDE4FEC
:10E8B00059834883CD52D140213209F063C64A3092
:10E8C000510508F05FC60894811C911C53E0851621
:10E8D000910409F059C600E010E018C081E280936D
:10E8E000C6008091C00086FFFCCF8091C00080648C
:10E8F0008093C0002F5F3F4F2931310579F70F9486
:10E90000DCF10F5F1F4F0530110519F020E030E0FA
:10E91000E5CF10920A0210920B0210920C02109294
:10E920000D02109206021092070210920802109235
:10E930000902109202021092030210920402109235
:10E9400005028FEE90EE60E00F94F5F180E191EE1C
:10E9500060E00F94C2F18091C00087FFFCCF9091DE
:10E96000C600903608F09F759032B8F09093C600BC
:10E970008091C00086FFFCCF8091C00080648093AE
:10E98000C000A0E2A093C6008091C00086FFFCCF2B
:10E990008091C00080648093C000983409F4D7C18E
:10E9A0009934B8F4923409F459C1933458F490333B
:10E9B00019F1903308F4E3C59F33A1F1903409F0C5
:10E9C000DEC5BDC0953409F470C1963409F0D7C5D1
:10E9D00098C1923509F42BC2933538F49C3409F46C
:10E9E000F5C1913509F0CBC518C2963509F445C279
:10E9F000993509F0C4C567C483E792EE62E00F94CD
:10EA0000F5F110920602109207021092080210927D
:10EA1000090210920A0210920B0210920C0210923C
:10EA20000D0213C18FE792EE62E00F94F5F18FEEC5
:10EA300090EE60E00F94F5F181E291EE60E00F94CA
:10EA4000C2F187EB91EE60E00F94F5F180E391EE77
:10EA500060E00F94C2F184EE90EE60E00F94F5F167
:10EA60008FE391EE60E00F94C2F186E090E061E008
:10EA700070E00F9434F20F94DCF18DE591EE60E0DC
:10EA80000F94C2F189EC91EE60E00F94F5F18EE401
:10EA900091EE60E00F94C2F183EC91EE60E00F9490
:10EAA000F5F18CE691EE60E00F94C2F18EE10F94E7
:10EAB0000DF288E90F940DF281E00F940DF20F949E
:10EAC000DCF18BE791EE60E00F94C2F119E0E0E039
:10EAD000F0E010935700E4918E2F0F940DF20F94F5
:10EAE000DCF18AE891EE60E00F94C2F1E3E0F0E03F
:10EAF00010935700E4918E2F0F940DF20F94DCF1D8
:10EB000089E991EE60E00F94C2F1E2E0F0E0109349
:10EB10005700E4918E2F0F940DF20F94DCF188EAE8
:10EB200091EE60E00F94C2F1E1E0F0E01093570045
:10EB30001491812F0F940DF20F94DCF107CF8BE825
:10EB400092EE62E00F94F5F18BE492EE60E00F94A8
:10EB5000F5F10F94DCF100E010E019C0C8016F2D51
:10EB60000F947FFEFF2031F489E492EE60E00F9471
:10EB7000C2F10BC0F092C6008091C00086FFFCCFAE
:10EB80008091C00080648093C0000F5F1F4FC80158
:10EB900081519F41A0E0B0E0ABBFFC01F790BAE229
:10EBA000FB1621F0E2E000301E07C1F60F94DCF105
:10EBB0000F94DCF187E592EE60E00F94F5F10F948D
:10EBC000DCF1CC24DD2400E010E01EC0C8010F946D
:10EBD00077FEF82E882331F489E492EE60E00F94FA
:10EBE000C2F10BC08093C6008091C00086FFFCCFAD
:10EBF0008091C00080648093C000FE1419F00894D6
:10EC0000C11CD11C0F5F1F4FC80181519F41A0E063
:10EC1000B0E0ABBFFC01E790FAE2EF1621F022E092
:10EC20000030120799F60F94DCF10F94DCF182E6C4
:10EC300092EE60E00F94C2F1C60161E070E00F94C3
:10EC400034F20F94DCF10F94DCF110920202109276
:10EC50000302109204021092050278CE89E992EE26
:10EC600062E00F94F5F1279A2F9A16C02F9880E052
:10EC700090E0E0EDF7E03197F1F7019684369105E9
:10EC8000C1F72F9A80E090E0E0EDF7E03197F1F7DF
:10EC9000019684369105C1F78091C00087FFE6CFC9
:10ECA0008091C00087FFFCCF64C485EA92EE62E0E9
:10ECB0000F94F5F140910202509103026091040219
:10ECC0007091050281E020E10F9491F2809102029F
:10ECD00090910302A0910402B091050280509F4FD1
:10ECE000AF4FBF4F8093020290930302A0930402A0
:10ECF000B093050280509041A040B04008F426CE69
:10ED0000A4CF83EB92EE62E00F94F5F140910602FE
:10ED100050910702609108027091090280E020E1A1
:10ED20000F9491F28091060290910702A09108023F
:10ED3000B091090280509F4FAF4FBF4F80930602A2
:10ED400090930702A0930802B0930902FFCD80ECD4
:10ED500092EE62E00F94F5F183E792EE60E00F949B
:10ED6000F5F18FE792EE60E00F94F5F18BE892EE0B
:10ED700060E00F94F5F189E992EE60E00F94F5F10F
:10ED800085EA92EE60E00F94F5F183EB92EE60E09D
:10ED90000F94F5F180EC92EE60E00F94F5F187ECC2
:10EDA00092EE60E00F94F5F188ED92EE60E00F9442
:10EDB000F5F18FED92EE60E00F94F5F18AEE92EEB0
:10EDC00060E00F94F5F183E093EEBDCD87EC92EE19
:10EDD00062E00F94F5F181E40F947BF282E40F94EA
:10EDE0007BF283E40F947BF284E40F947BF285E45E
:10EDF0000F947BF286E40F947BF287E40F947BF20E
:10EE000088E40F947BF28AE40F947BF28BE40F94F6
:10EE10007BF28CE40F947BF299CD88ED92EE62E068
:10EE20000F94F5F1772473948824992409C48FED05
:10EE300092EE62E00F94F5F140910A0250910B02BC
:10EE400060910C0270910D0282E020E10F9491F22A
:10EE500080910A0290910B02A0910C02B0910D02D8
:10EE600080509F4FAF4FBF4F80930A0290930B0289
:10EE7000A0930C02B0930D0269CD8AEE92EE62E08F
:10EE80000F94F5F184EE90EE60E00F94F5F18FECC5
:10EE900091EE60E00F94F5F1662477244301CC5D98
:10EEA000DE4F19821882C452D140D401C301B695F5
:10EEB000A79597958795CA5DDE4F88839983AA8326
:10EEC000BB83C652D140CC5DDE4FA881B981C4520C
:10EED000D1401196CC5DDE4FB983A883C452D14096
:10EEE000CD0162E070E00F9434F2B0E2B093C6005E
:10EEF0008091C00086FFFCCF8091C0008064809329
:10EF0000C000EDE2E093C6008091C00086FFFCCF18
:10EF10008091C00080648093C000F0E2F093C6004E
:10EF20008091C00086FFFCCF8091C00080648093F8
:10EF3000C000CA5DDE4FE880F9800A811B81C6529D
:10EF4000D140BB27A12F902F8F2D0F940DF2CA5DBA
:10EF5000DE4F8881C652D1400F940DF2B0E2FB2EF5
:10EF6000F092C6008091C00086FFFCCF8091C00067
:10EF700080648093C0000DE30093C6008091C000C0
:10EF800086FFFCCF8091C00080648093C00010E2B7
:10EF90001093C6008091C00086FFFCCF8091C00016
:10EFA00080648093C0008BBEF3012791C65DDE4F65
:10EFB0002883CA52D140A22EBB24CC24DD2408943D
:10EFC000611C711C811C911C8BBEF3018791282E42
:10EFD0003324442455240894611C711C811C911C09
:10EFE0008BBEF3013791C55DDE4F3883CB52D140E4
:10EFF0000894611C711C811C911C8BBEF30147910C
:10F00000C45DDE4F4883CC52D140ADEFEA2EAFEF66
:10F01000FA2EAFEF0A2FAFEF1A2F6E0C7F1C801E57
:10F02000911E142D032DF22CEE24EA0CFB1C0C1D5A
:10F030001D1D0F940DF220E22093C6008091C000A8
:10F0400086FFFCCF8091C00080648093C000C65DC5
:10F05000DE4F8881CA52D1400F940DF230E23093D6
:10F06000C6008091C00086FFFCCF8091C000806404
:10F070008093C000C45DDE4F8881CC52D1400F9494
:10F080000DF240E24093C6008091C00086FFFCCFA5
:10F090008091C00080648093C000C55DDE4F888190
:10F0A000CB52D1400F940DF250E25093C6008091A4
:10F0B000C00086FFFCCF8091C00080648093C000B8
:10F0C0008FEFE8168FEFF80680E0080780E018075A
:10F0D00031F484E092EE60E00F94C2F1DFC0D80119
:10F0E000C7018070907CA070B0708050904CA040A0
:10F0F000B040D1F52FEF3FE340E050E0E222F322B1
:10F1000004231523CA5DDE4FA880B980CA80DB8046
:10F11000C652D140AE0CBF1CC01ED11EAA0CBB1CD7
