:100000000C9462010C9493010C9493010C94930151
:100010000C9493010C9493010C9493010C94930110
:100020000C9493010C94C60F0C94C60F0C94C60F3D
:100030000C9493010C9493010C9493010C949301F0
:100040000C9493010C9493010C9493010C949301E0
:100050000C9493010C9493010C9493010C947C0FD9
:100060000C9493010C94460F0C941C0F0C94930168
:100070000C9493010C9493010C9493010C949301B0
:100080000C9493010C9493010C9493010C949301A0
:100090000C94E60E0C94BC0E0C9493010C94D00FAF
:1000A0000C9493010C9493010C9493010C94930180
:1000B0000C9493010C9493010C9493010C94930170
:1000C0000C9493010C9493010C9493010C94930160
:1000D0000C9493010C9493010C9493010C94930150
:1000E0000C9493010C949A030C94BC090C94670330
:1000F0000C9428060C94DF010C94F4100C94CB03A0
:100100000C9459030C9490030C946B030C945607B5
:100110000C942A060C94E0010C9451020C942606CF
:100120000C9403060C949E030C9499030C943C04C9
:100130000C941F060C94AC070C948C030C9455077C
:100140000C945F020C9478070C9463030C947F0763
:100150000C94C1210C9418060C947E030C94820319
:100160000C94FC030C94F2010C9486030C943D0255
:100170000C9474030C94C2080C946E030C9401024A
:100180000C9494030C942E020C94EE020C945F03D6
:100190000C940A060C9478030C9465070C94A10245
:1001A00000002100240027002A002D003000330029
:1001B00001010000040107010A01000022002500DE
:1001C00028002B002E003100340002010000050140
:1001D00008010B01000020002300260029002C004C
:1001E0002F0032000001000003010601090105058E
:1001F0000505070508080808020202020A0A08089D
:1002000004040404010101010101010103030303CA
:1002100003030303040707070C0C0C0C0C0C0C0C59
:100220000202020206060606060606060B0B0B0B6A
:100230000B0B0B0B0102102020080810204010208F
:10024000408002010201080402010102040810209A
:100250004080804020100804020180040201804098
:100260002010080402010804020101020408102001
:100270004080010204081020408000000A0B02099F
:100280000C0D0E0807030401000000000000000030
:10029000000000000000000000000000000000005E
:1002A000000000000000121110000000000000001B
:1002B000000000000000000000000000000000003E
:1002C000F410C12111241FBECFEFD1E2DEBFCDBF9C
:1002D00000E00CBF2CE0A2EBB8E001C01D92A631FB
:1002E000B207E1F718E0A0E0B2E0EAEBF9E400E0E1
:1002F0000BBF02C007900D92A23BB107D9F711E0E6
:10030000C1E6D1E000E006C021970109802FFE017F
:100310000E947322C036D10780E00807A9F70E9427
:1003200018120C94CB240C940000FC01A089B18914
:1003300082E08C93A485B5851C92A685B7858FEC49
:100340008C93108EA489B58986E08C93A289B38999
:100350008C9180618C93A289B3898C9188608C93F5
:10036000A289B3898C9180688C930288F389E02DEF
:1003700080818F7D8083089596E0899FD00111242C
:10038000AF58B44F90967C936E935F9791E091969F
:100390009C939197E091DE0BF091DF0B9091DD0B38
:1003A000992339F0309751F0811108C080918D0B5D
:1003B0001994309719F05C968C91FACF08950895AE
:1003C0000895FC01248135816217730748F4808108
:1003D0009181009729F0860F971FFC018081089575
:1003E00080E008950895DB0114964D915C91159776
:1003F0006D917C91DC01ED91FC910280F381E02D07
:100400001994AF92BF92CF92DF92EF92FF920F9327
:100410001F93CF93DF936C017B018B01040F151F9A
:10042000EB015E01AE18BF08C017D10759F0699102
:10043000D601ED91FC910190F081E02DC601199556
:10044000892B79F7C501DF91CF911F910F91FF9013
:10045000EF90DF90CF90BF90AF900895FC01538D47
:10046000448D252F30E0842F90E0821B930B54178E
:1004700010F0CF96089501970895FC01918D828D1B
:10048000981761F0A28DAE0FBF2FB11D5D968C91B4
:10049000928D9F5F9F73928F90E008958FEF9FEFF3
:1004A0000895FC01918D828D981731F0828DE80FAF
:1004B000F11D858D90E008958FEF9FEF0895FC0169
:1004C000918D228D892F90E0805C9F4F821B910936
:1004D0008F739927089583E19AE00E945F0221E0DB
:1004E000892B09F420E0822F089580EB9AE00E9486
:1004F0005F0221E0892B09F420E0822F0895FC019E
:10050000A48DA80FB92FB11DA35ABF4F2C91848D74
:1005100090E001968F739927848FA689B7892C93D1
:10052000A089B1898C91837080648C93938D848D24
:10053000981306C00288F389E02D80818F7D808327
:100540000895EF92FF920F931F93CF93DF93EC01E7
:1005500081E0888F9B8D8C8D98131AC0E889F9896A
:10056000808185FF15C09FB7F894EE89FF8960836D
:10057000E889F98980818370806480839FBF81E0EE
:1005800090E0DF91CF911F910F91FF90EF90089530
:10059000F62E0B8D10E00F5F1F4F0F731127E02E0B
:1005A0008C8D8E110CC00FB607FCFACFE889F98943
:1005B000808185FFF5CFCE010E947F02F1CFEB8DC8
:1005C000EC0FFD2FF11DE35AFF4FF0829FB7F89417
:1005D0000B8FEA89FB8980818062CFCFCF93DF9335
:1005E000EC01888D8823B9F0AA89BB89E889F9894B
:1005F0008C9185FD03C0808186FD0DC00FB607FC80
:10060000F7CF8C9185FFF2CF808185FFEDCFCE01B2
:100610000E947F02E9CFDF91CF91089580E090E0C2
:10062000892B29F00E94750281110E94000080E050
:1006300090E0892B29F00E946B0281110E9400003A
:1006400080E090E0892B49F080E090E0892B29F050
:100650000E94000081110E94000080E090E0892B40
:1006600049F080E090E0892B29F00E940000811180
:100670000C94000008958150823108F05AC0E82F90
:10068000F0E08827E95BFC4F8F4F0C9473226703DF
:100690006B0359035F03630399036E0374037803C9
:1006A0007E03820386038C039003990394039A03C9
:1006B0009E03809180008F778093800008958091C1
:1006C00080008F7DF9CF80918000877FF5CF84B542
:1006D0008F7784BD089584B58F7DFBCF8091B00066
:1006E0008F778093B00008958091B0008F7DF9CF0F
:1006F000809190008F778093900008958091900072
:100700008F7DF9CF80919000877FF5CF8091A000F9
:100710008F778093A00008958091A0008F7DF9CFFE
:100720008091A000877FF5CF809120018F77809303
:1007300020010895809120018F7DF9CF80912001C3
:10074000877FF5CFCF93DF93282F30E0F901E6586C
:10075000FD4F8491F901EC5CFD4FD491F901E25118
:10076000FE4FC491CC23A1F081110E943B03EC2FDA
:10077000F0E0EE0FFF1FEC52FE4FA591B491EC910B
:10078000ED2381E090E009F480E0DF91CF910895BE
:1007900080E090E0FACF862F0C94A2031F93CF93B2
:1007A000DF93282F30E0F901E658FD4F8491F901DD
:1007B000EC5CFD4FD491F901E251FE4FC491CC2382
:1007C000A9F0162F81110E943B03EC2FF0E0EE0FF1
:1007D000FF1FE654FE4FA591B4918FB7F894EC91AA
:1007E000111108C0D095DE23DC938FBFDF91CF912C
:1007F0001F910895DE2BF8CF862F642F0C94CE0323
:10080000CF93DF9390E0FC01EC5CFD4F249182518B
:100810009E4FFC0184918823C9F090E0880F991FB6
:10082000FC01E056FE4FA591B491FC01E654FE4F49
:10083000C591D49161110DC09FB7F8948C9120950A
:1008400082238C938881282328839FBFDF91CF91B7
:100850000895623051F49FB7F8943C91822F8095AF
:1008600083238C93E8812E2BEFCF8FB7F894EC91F4
:100870002E2B2C938FBFEACF862F642F0C9400046D
:10088000863308F0865320917B00982F9870277F3D
:10089000922B90937B008770806480937C00809182
:1008A0007A00806480937A0080917A0086FDFCCF84
:1008B000809178009091790008953FB7F8948091E5
:1008C0006B0990916C09A0916D09B0916E0926B5E4
:1008D000A89B05C02F3F19F00196A11DB11D3FBF78
:1008E000BA2FA92F982F8827BC01CD01620F711D47
:1008F000811D911D42E0660F771F881F991F4A9541
:10090000D1F708958F929F92AF92BF92CF92DF92CC
:10091000EF92FF926B017C010E945D044B015C0130
:10092000C114D104E104F104B9F00E945D04681916
:1009300079098A099B09683E73408105910580F316
:1009400021E0C21AD108E108F10888EE880E83E0A0
:10095000981EA11CB11CE4CFFF90EF90DF90CF90C8
:10096000BF90AF909F908F9008952FB7F8946091AB
:100970006709709168098091690990916A092FBF90
:1009800008950F931F93CF93DF93C82FD62F86E040
:10099000C89FF0011124EF58F44F11A2878D90A148
:1009A00081309105F1F058F082309105F1F1039713
:1009B00009F440C0DF91CF911F910F9108956623F4
:1009C000C9F361E070E08C2F0E94BC010E94B50465
:1009D0006093C90B7093CA0B8093CB0B9093CC0B95
:1009E000E9CF0E94B5040091C90B1091CA0B209168
:1009F000CB0B3091CC0BAB01BC01401B510B620BFC
:100A0000730B8091DB0B9091DC0BB0E0A0E08417BE
:100A10009507A607B70748F462E070E08C2FDF91D6
:100A2000CF911F910F910C94BC0163E070E0D11144
:100A3000C1CFF4CF70E060E0F1CF0F931F930E941D
:100A4000B5046093B80A7093B90A8093BA0A909378
:100A5000BB0A80EB9AE00E943D0297FF1DC00E94F6
:100A6000B5040091B80A1091B90A2091BA0A3091E0
:100A7000BB0A601B710B820B930B0091B40A10919F
:100A8000B50A2091B60A3091B70A6017710782073C
:100A90009307F8F28FEF9FEF1F910F9108950F9337
:100AA0001F938091E00B9091E10BDC01ED91FC91A3
:100AB0000084F185E02D1995892B09F4D5C060E0FB
:100AC00070E0CB010E9482042091FE0B8091E00B2C
:100AD0009091E10BDC01ED91FC910284F385E02D16
:100AE00021110BC019958093EA0B8E37D1F68091B6
:100AF000FE0B8F5F8093FE0BD4CF19959091FE0B68
:100B0000E92FF0E0E052F44F82879230B9F099304B
:100B1000D9F09130A9F48F3F99F01092FE0B81E04B
:100B20008093000C1092030C1092020C8093040C22
:100B30001092050C80E01F910F910895863069F79F
:100B40009F5F9093FE0BADCF8F3E39F78091EC0BFA
:100B50009091EB0B890F9927991FE091ED0B9C0168
:100B60002E0F311D8091EE0B820F932F911D40911E
:100B7000EF0B50E0840F951F2091F00B30E0609157
:100B8000F10B70E0762F6627F091F20B6F0F711D5D
:100B9000820F931F9195819591096817790709F044
:100BA000BCCF1092FE0BE13419F41092050C3DC03D
:100BB000E093010C542F4427240F351F3093030C6E
:100BC0002093020CEA53E63108F044C0F0E0882795
:100BD000E351FA4F8F4F0C94732218061F06280614
:100BE000030628060A0626062A06280628062806D8
:100BF000280628062806280628062A062806280683
:100C000028062806280685E08093000C81E0809362
:100C1000040C0BC089E020FDF7CF84E021FDF4CF68
:100C2000237033278AE0232B79F78091040C83CF3C
:100C300087E020FDE9CF82E021FDE6CFF6CF88E016
:100C400020FDE2CF83E021FDDFCFEFCF86E0DCCFD8
:100C50008BE0DACF81E08093000C1092030C1092AD
:100C6000020C8093040CA1CF8091050C8823E9F23B
:100C70000E94B5040091E20B1091E30B2091E40B6C
:100C80003091E50B601B710B820B930B0091E60B0F
:100C90001091E70B2091E80B3091E90B6017710779
:100CA0008207930710F21092FE0B1092000C109224
:100CB000030C1092020C81E039CF8F929F92AF9279
:100CC000BF92CF92DF92EF92FF92CF936B017C01A4
:100CD0000E94B5044B015C01C114D104E104F1048C
:100CE00041F4C090E60BD090E70BE090E80BF09059
:100CF000E90B0E944F05C82F811111C00E94B50455
:100D0000681979098A099B09C616D706E806F90603
:100D100030F060E070E0CB010E948204EACF8C2FBB
:100D2000CF91FF90EF90DF90CF90BF90AF909F90CA
:100D30008F9008958093F70B1092F90B6093FA0B44
:100D40002091F60B9091F50B290F3327331F820F5B
:100D5000932F911D2091F80B820F911D680F791F21
:100D60007195619571097093FB0B6093FC0B2223C5
:100D700061F08091050C882341F060E070E0CB01C8
:100D80000E9482040E944F05F4CF8091E00B909165
:100D9000E10BDC01ED91FC910280F381E02D4AE052
:100DA00050E064EF7BE019950E94B5046093E20B7C
:100DB0007093E30B8093E40B9093E50B8091F80B19
:100DC00091E0811101C090E09093050C811106C063
:100DD0006AE070E080E090E00C9482040895209135
:100DE000F308260F3327331F21323105ECF420910D
:100DF0003C09FC0190E080E0243069F082E0089535
:100E0000A091F3082191AC014D52574FA40FB52F7B
:100E1000B11D2C930196861798F38091F308680F03
:100E20006093F30880E0089581E0089510923C09F2
:100E300081E080933B091092160961E084E10E94F1
:100E4000CE0361E085E10E94CE03E9EBF0E0808112
:100E50008E7F808380818D7F808388E48093B8003B
:100E600085E48093BC000895CF93DF9391E0909345
:100E7000D2088823B9F0C091B800D091BA0080910F
:100E8000BC008A7B8093BC0060E084E10E94CE03BA
:100E900060E085E10E94CE030E941607D093BA005D
:100EA000C093B800DF91CF9108950895E09176093D
:100EB00080917509E81730F4F0E0EE54F74F808127
:100EC00090E008958FEF9FEF0895909176098091BB
:100ED00075092FEF3FEF981748F4E92FF0E0EE5433
:100EE000F74F208130E09F5F90937609C901089504
:100EF0008091750990917609891B990B0895CF927D
:100F0000DF92EF92FF920F931F93CF93DF937C01B9
:100F1000CB018A0120914209222389F0EB016B0168
:100F2000C40ED51ECC15DD0569F06991D701ED9190
:100F3000FC910190F081E02DC7011995F3CF642F4A
:100F40000E94EF06C801DF91CF911F910F91FF9092
:100F5000EF90DF90CF900895CF93DF931F92CDB79E
:100F6000DEB76983209142092223F9F020917309A9
:100F7000203258F021E030E0FC013383228390E0FE
:100F800080E00F90DF91CF91089580917409E82F50
:100F9000F0E0ED5BF64F998190838F5F8093740949
:100FA0008093730981E090E0ECCF61E0CE0101967F
:100FB0000E94EF06F7CFCF92DF92EF92FF920F934E
:100FC0001F93CF93DF93FC01C48121E0209342095A
:100FD000C093630910927409109273098385682B7A
:100FE0008DE49BE00E94AC07D0917309D13208F0E8
:100FF00092C00E945D046B017C0180913C098111CB
:1010000065C082E080933C0981E080933B098FEFCB
:1010100080933A0910923909D0933809A3E4B9E0D2
:10102000E8E1F9E080E0D81385C0109217098091BB
:101030001709CC0FC82BC09317098091160981306E
:1010400009F07CC0109216090E945D046B017C01BE
:10105000809117098093BB0080913E0990913F09D0
:10106000A0914009B0914109892B8A2B8B2B99F0D3
:101070000E945D0400913E0910913F0920914009B2
:10108000309141096C197D098E099F0906171707D0
:1010900028073907E0F18091BC0083FDD9CF85ECAA
:1010A0008093BC000E945D046B017C0180913C092F
:1010B000823009F445C080913A098F3F61F18091F7
:1010C0003A09803241F180913A0925C080913E0968
:1010D00090913F09A0914009B0914109892B8A2B39
:1010E0008B2B09F48ACF0E945D0400913E09109178
:1010F0003F0920914009309141096C197D098E0901
:101100009F09061717072807390708F076CF80913F
:101110003D090E94340710927409109273091092CD
:101120004209DF91CF911F910F91FF90EF90DF90D7
:10113000CF9008959D9191938F5F75CF85EEB0CF3D
:1011400080913E0990913F09A0914009B0914109D9
:10115000892B8A2B8B2B09F4A9CF0E945D04009167
:101160003E0910913F0920914009309141096C19C5
:101170007D098E099F09061717072807390708F008
:1011800095CFC5CF90E080E008958091070A9091B7
:10119000080AA091090AB0910A0A40919809509151
:1011A000990960919A0970919B09841B950BA60B74
:1011B000B70B8093070A9093080AA093090AB0938B
:1011C0000A0A08950F931F93CF93DF93C7E9D2E0E4
:1011D0008E01F80180810E5F1F4F61E00E94CE03F7
:1011E000F2E0013A1F07A9F764EF71E080E090E0B8
:1011F0000E9482048881229660E00E94CE0382E0F1
:10120000C13AD807B9F7DF91CF911F910F91089597
:101210000F931F93CF938C01C62F0E94DB076C2F77
:101220006460C8010E94DB076C2F6B7FC8010E94BD
:10123000DB0783EC90E00197F1F7CF911F910F91BD
:1012400008950F931F93CF93DF938C01D62FC42F54
:10125000607F642B0E94080980E1D89FB0011124AF
:101260006C2BC801DF91CF911F910F910C9408094D
:1012700040E061E086E09CE00E9421098BE39FE171
:101280000197F1F70895CF93DF93EC010E9438099D
:10129000BE0186E09CE00E94F30164EF71E080E013
:1012A00090E00E94820460ED77E080E090E00E9490
:1012B00082040E94B504685E7340810991096093BD
:1012C000FA097093FB098093FC099093FD09DF9163
:1012D000CF910895CF93DF93EC010E943809BE01AE
:1012E00086E09CE00E94F30160ED77E080E090E012
:1012F0000E9482040E94B504685E734081099109CE
:101300006093FA097093FB098093FC099093FD099F
:10131000DF91CF910895CF93DF9300D000D01F923B
:101320001F92CDB7DEB798E0E1E4F2E0DE0111965E
:1013300001900D929A95E1F790910E0C961708F492
:101340006FEF262F30E0220F331F41E050E04C0FAB
:101350005D1F240F351FF9016081680F606840E050
:1013600086E09CE028960FB6F894DEBF0FBECDBF96
:10137000DF91CF910C94210941E00E94210981E085
:1013800090E00895CF92DF92EF92FF920F931F9318
:10139000CF93DF93EB017B0124E0E20EF11C8B0184
:1013A0006C01C61AD70AC601800F911F0E940D2238
:1013B000F80181938F01EE15FF05A9F7CE01DF91AA
:1013C000CF911F910F91FF90EF90DF90CF900895F4
:1013D0009F92AF92BF92CF92DF92EF92FF920F93C4
:1013E0001F93CF93DF935C017B018B01D0E0C0E0C2
:1013F000F80191908F016501CC0EDD1EC6010E949F
:101400000D22981621F0692DC6010E941522219601
:10141000C430D10569F7C701DF91CF911F910F91BA
:10142000FF90EF90DF90CF90BF90AF909F90089586
:101430000C940D22FC0180819181009711F00C9495
:10144000D12160E070E0CB010895FB010190002004
:10145000E9F73197AF01461B570BDC01ED91FC9189
:101460000280F381E02D199465EE72E080EB9AE042
:101470000C94250ACF93DF93682F80EB9AE00E94AB
:10148000A102EC010E94340A8C0F9D1FDF91CF91C5
:101490000895CF93DF93BC0180EB9AE00E94F301A3
:1014A000EC010E94340A8C0F9D1FDF91CF910895AB
:1014B0008F929F92AF92BF92EF92FF920F931F93E2
:1014C000CF93DF93CDB7DEB7A1970FB6F894DEBF09
:1014D0000FBECDBF7C01FA01CB0119A2223008F466
:1014E0002AE08E010F5D1F4F822E912CB12CA12C72
:1014F000BF01A50194010E945122F901CA016A307D
:101500000CF5605DD8016E938D01232B242B252BC8
:1015100079F790E080E0109721F0BD01C7010E94AB
:10152000250AA1960FB6F894DEBF0FBECDBFDF919E
:10153000CF911F910F91FF90EF90BF90AF909F9030
:101540008F900895695CDECFCF92DF92EF92FF9289
:101550000F931F93CF93DF936B01770FEE08FF0874
:10156000F7FE1FC0EC01E881F9810190F081E02DC8
:101570006DE219958C0144275527BA014C195D0974
:101580006E097F092AE0CE010E94580A800F911F40
:10159000DF91CF911F910F91FF90EF90DF90CF904F
:1015A00008952AE0B701A601DF91CF911F910F9115
:1015B000FF90EF90DF90CF900C94580ACF93DF9379
:1015C000BC0180EB9AE00E94A40AEC010E94340A5C
:1015D0008C0F9D1FDF91CF910895CF93DF93AB01C7
:1015E000BC012AE080EB9AE00E94580AEC010E94BC
:1015F000340A8C0F9D1FDF91CF910895CF93DF9315
:10160000BC0180EB9AE00E94250AEC010E94340A9A
:101610008C0F9D1FDF91CF9108950C94250A2F9276
:101620003F924F925F926F927F928F929F92AF9272
:10163000BF92CF92DF92EF92FF920F931F93CF93BF
:10164000DF9300D000D0CDB7DEB70E94B504009183
:10165000FA091091FB092091FC093091FD09601BEA
:10166000710B820B930B683E73408105910508F462
:10167000B5C00E94B5046093FA097093FB0980938A
:10168000FC099093FD090E94B50400910B0A10918A
:101690000C0A20910D0A30910E0A601B710B820B0F
:1016A000930BC090070AD090080AE090090AF090C6
:1016B0000A0AC61AD70AE80AF90AC701B60128EECB
:1016C00033E040E050E00E94512249015A01C70135
:1016D000B60120E83EEE46E350E00E945122290187
:1016E0008901C501B40120E13EE040E050E00E94E4
:1016F00051222CE3C22ED12CE12CF12CA701960112
:101700000E94512229833A834B835C8329803A804B
:10171000C501B401A70196010E9451226B017E838D
:101720006D830E94380968EE72E086E09CE00E94BA
:101730000D0B61E080E00E948B090A30110534F442
:1017400068EF72E086E09CE00E940D0BB20186E03B
:101750009CE00E94A40A65EC77E086E09CE00E9491
:101760000D0B8AE02816310434F468EF72E086E04D
:101770009CE00E940D0B69817A8186E09CE00E94CA
:10178000A40A65EC77E086E09CE00E940D0B8D8159
:101790009E810A9734F468EF72E086E09CE00E9434
:1017A0000D0BB60186E09CE026960FB6F894DEBFDE
:1017B0000FBECDBFDF91CF911F910F91FF90EF90A2
:1017C000DF90CF90BF90AF909F908F907F906F9061
:1017D0005F904F903F902F900C94A40A26960FB6DE
:1017E000F894DEBF0FBECDBFDF91CF911F910F9157
:1017F000FF90EF90DF90CF90BF90AF909F908F9031
:101800007F906F905F904F903F902F900895FB01D5
:1018100044815581FC01248135812417350778F0F6
:1018200080819181009759F0FB0160817181611580
:10183000710529F00E94AE2421E0892B09F020E0F7
:10184000822F08950F931F93CF93DF938C01EB01A9
:10185000FC01808191810097E1F0688179816115B7
:101860007105A9F0428153812C813D8142175307B4
:1018700070F00E94A7248C819D81F8019583848358
:101880001D821C82DF91CF911F910F9108950E94BC
:101890002B2388819981F801918380838A819B81A0
:1018A000938382838C819D8195838483198218829E
:1018B0001B821A82E5CFCF93DF93EC018881998157
:1018C000009711F00E942B23198218821D821C821E
:1018D0001B821A82DF91CF910895FC018081918152
:1018E000009711F00C942B2308950F931F93CF931F
:1018F000DF93EC0188819981009759F02A813B811F
:101900002617370730F081E0DF91CF911F910F91BB
:1019100008958B016F5F7F4F0E94B423009759F0A9
:10192000998388831B830A832C813D81232B59F75C
:10193000FC011082E8CF80E0E7CFEF92FF920F9397
:101940001F93CF93DF93EC017B01198218821B82D6
:101950001A821D821C82FB0101900020E9F7319759
:101960008F01061B170BB8010E94750C811109C06D
:10197000CE01DF91CF911F910F91FF90EF900C94CA
:101980005B0C1D830C83B70188819981DF91CF9116
:101990001F910F91FF90EF900C94A7249F92AF920C
:1019A000BF92CF92DF92EF92FF920F931F93CF934C
:1019B000DF937C016B015A0189012417350720F45C
:1019C0008B2D5901042F182F67EE72E0C7010E947A
:1019D0009D0CD6011496CD91DC91AC16BD0650F548
:1019E0000C171D0708F4E801D601ED91FC91119741
:1019F000EC0FFD1F908010820D911C910A0D1B1D94
:101A00000115110571F0F80101900020E9F73197F7
:101A10005F01A01AB10AB501C7010E94750C8111BE
:101A200016C0C7010E945B0CD6018D919C91C80F16
:101A3000D91F9882C701DF91CF911F910F91FF901D
:101A4000EF90DF90CF90BF90AF909F900895F701F7
:101A5000B582A482B801808191810E94A724E4CF3D
:101A6000CF93DF93EC01FB01248135810E94CE0CE2
:101A7000CE01DF91CF9108952F923F924F925F92C6
:101A80006F927F928F929F92AF92BF92CF92DF928E
:101A9000EF92FF920F931F93CF93DF93CDB7DEB7F3
:101AA000C650D1400FB6F894DEBF0FBECDBF6AEF6F
:101AB00072E080EB9AE00E940D0B0E94340A9E01B6
:101AC0002F5F3F4F390180E091E0F9019C011192B5
:101AD00021503040E1F72301630193E5A92E92E004
:101AE000B92EF12CE12C22242394F5013080F2E070
:101AF000AF0EB11C61E0832D0E94000460E0832DD5
:101B00000E94CE0383E5882E82E0982E10E000E04C
:101B1000E016F10651F0F40180810E94A203892BA6
:101B200021F4F601E00FF11F20820F5F1F4FF2E05A
:101B30008F0E911C0031110559F762E0832D0E9430
:101B400000042FEFE21AF20A30E1C30ED11C80E14B
:101B5000E816F10451F648E959E0A8E7B9E06D91BB
:101B60007C91119777FD20C012968D919C911397CF
:101B700097FD1AC0FB0104E0EE0FFF1F0A95E1F785
:101B8000E60DF71DE80FF91F2081222391F0FC01DB
:101B900014E0EE0FFF1F1A95E1F7E60DF71DE60FB3
:101BA000F71F2081222329F014964A175B07B9F604
:101BB00021E070E060E0DB011196CD0180319105FC
:101BC00009F447C0F301E80FF91F308131110BC050
:101BD000FC0134E0EE0FFF1F3A95E1F7E40DF51D2F
:101BE0003081332361F0E8E7F9E0008111810617C5
:101BF000170739F4028113810817190751F4019668
:101C0000DDCF0817190729F402811381061717077A
:101C1000B1F334964E175F0741F76BE373E0CE01E3
:101C20008F5F9E4F0E949D0CCE018F5F9E4F0E9442
:101C30004309CE018F5F9E4F0E946D0C6CE473E0F0
:101C400080EB9AE00E940D0B0E94E2080E94C508FA
:101C500041C0222311F39FEF491A590AE0E16E0EA9
:101C6000711CBD01509709F0A6CF81E08093030A53
:101C70008091C0099091C10901969093C109809308
:101C8000C00967E173E0CE018F5F9E4F0E949D0CFB
:101C9000CE018F5F9E4F0E946A09CE018F5F9E4FDB
:101CA0000E946D0C8091C0099091C1098630910508
:101CB0004CF4880F991FFC01E156FD4F61E08081D3
:101CC0000E94CE0386E293E00E94FE0A1092F5097C
:101CD0001092F409CA5FDE4F0FB6F894DEBF0FBE54
:101CE000CDBFDF91CF911F910F91FF90EF90DF90CB
:101CF000CF90BF90AF909F908F907F906F905F90AC
:101D00004F903F902F90089585ED8093BC00809177
:101D10003E0990913F09A0914009B0914109079671
:101D2000A11DB11D23E0B695A795979587952A9596
:101D3000D1F72091BC0024FD03C010923C09089506
:101D400040913E0950913F096091400970914109CD
:101D5000452B462B472B69F30097A105B10541F0B0
:101D60002AE22A95F1F700C00197A109B109E1CF54
:101D700080913D090C9434071F920F920FB60F9279
:101D800011240BB60F922F933F934F935F936F9352
:101D90007F938F939F93AF93BF93EF93FF9383E1D1
:101DA0009AE00E947F02FF91EF91BF91AF919F91C6
:101DB0008F917F916F915F914F913F912F910F90F4
:101DC0000BBE0F900FBE0F901F9018951F920F9291
:101DD0000FB60F9211240BB60F922F938F939F93F0
:101DE000EF93FF93E091230AF091240A8081E09120
:101DF000290AF0912A0A82FD1DC0908180912C0A47
:101E00008F5F8F7320912D0A821741F0E0912C0A89
:101E1000F0E0ED5EF54F958F80932C0AFF91EF91E6
:101E20009F918F912F910F900BBE0F900FBE0F902F
:101E30001F9018958081F2CF1F920F920FB60F92CC
:101E400011240BB60F922F933F934F935F936F9391
:101E50007F938F939F93AF93BF93EF93FF9380EB09
:101E60009AE00E947F02FF91EF91BF91AF919F9105
:101E70008F917F916F915F914F913F912F910F9033
:101E80000BBE0F900FBE0F901F9018951F920F92D0
:101E90000FB60F9211240BB60F922F938F939F932F
:101EA000EF93FF93E091C00AF091C10A8081E09125
:101EB000C60AF091C70A82FD1DC090818091C90AAF
:101EC0008F5F8F732091CA0A821741F0E091C90A8F
:101ED000F0E0E055F54F958F8093C90AFF91EF919F
:101EE0009F918F912F910F900BBE0F900FBE0F906F
:101EF0001F9018958081F2CF1F920F920FB60F920C
:101F000011242F933F938F939F93AF93BF9380910F
:101F1000670990916809A0916909B0916A093091A7
:101F2000660923E0230F2D3758F50196A11DB11D39
:101F3000209366098093670990936809A0936909C3
:101F4000B0936A0980916B0990916C09A0916D0919
:101F5000B0916E090196A11DB11D80936B099093FC
:101F60006C09A0936D09B0936E09BF91AF919F91D9
:101F70008F913F912F910F900FBE0F901F9018954A
:101F800026E8230F0296A11DB11DD2CF1F920F92FA
:101F90000FB60F9211240F900FBE0F901F9018953F
:101FA0001F920F920FB60F9211240BB60F922F9320
:101FB0003F934F935F936F937F938F939F93AF93D1
:101FC000BF93EF93FF938091B900887F803609F427
:101FD0004DC008F040C0883209F4A9C028F580310E
:101FE00009F49DC0C8F4882309F4FBC0883009F4C3
:101FF00096C0FF91EF91BF91AF919F918F917F918B
:102000006F915F914F913F912F910F900BBE0F9069
:102010000FBE0F901F901895883109F488C0803248
:1020200041F780933A0914C0803409F49DC040F40C
:102030008033B9F38833E9F680933A0985ECB0C070
:10204000803509F485C0883509F496C0883489F64E
:102050000E94840ECECF883909F48CC038F58837B9
:1020600029F050F4883611F0803719F683E0809318
:102070003C091092150957C0883809F47BC0803993
:1020800019F0803809F0B5CF80911509803208F039
:1020900071C0E091150981E08E0F80931509809140
:1020A000BB00F0E0EB50F74F80833DC0803B39F040
:1020B000E0F4803A09F479C0883A09F09ACF84E0D4
:1020C00080933C091092F4081092F308E091710992
:1020D000F091720919958091F30881110FC081E088
:1020E0008093F3081092D30809C0803C09F4A6CF6E
:1020F000883C09F4A3CF883B09F07BCFE091F4083A
:1021000081E08E0F8093F408F0E0ED52F74F80816C
:102110008093BB009091F4088091F30829C08091CE
:1021200017098093BB0085EC8093BC0062CF90912F
:10213000390980913809981758F5E091390981E0FB
:102140008E0F80933909F0E0E85EF64F8081E9CF89
:10215000E091390981E08E0F809339098091BB00AD
:10216000F0E0E85EF64F808390913909809138095C
:102170009817C8F285E8D8CFE091390981E08E0F31
:10218000809339098091BB00F0E0E85EF64F8083D0
:1021900080913B0981115CCF81E08093160984EA2C
:1021A0008093BC0010923C0924CF85EC8093BC0046
:1021B00010923C0980911509803230F4E0911509A4
:1021C000F0E0EB50F74F10826091150970E0E0915C
:1021D0006F09F091700985EF98E019951092150933
:1021E00008CF10923A0934CF1092160A1092150AAD
:1021F00088EE93E0A0E0B0E08093170A9093180A6D
:10220000A093190AB0931A0A2FEA32E03093140A05
:102210002093130A4DEC50E05093200A40931F0A7C
:102220004CEC50E05093220A4093210A48EC50E0D5
:102230005093240A4093230A49EC50E05093260A15
:102240004093250A4AEC50E05093280A4093270A0D
:102250004EEC50E050932A0A4093290A10922C0A1F
:1022600010922D0A10922E0A10922F0A1092B30A81
:102270001092B20A8093B40A9093B50AA093B60A5A
:10228000B093B70A3093B10A2093B00A25EC30E03E
:102290003093BD0A2093BC0A24EC30E03093BF0A8F
:1022A0002093BE0A20EC30E03093C10A2093C00A8C
:1022B00021EC30E03093C30A2093C20A22EC30E0D4
:1022C0003093C50A2093C40A26EC30E03093C70A45
:1022D0002093C60A1092C90A1092CA0A1092CB0A19
:1022E0001092CC0A1092500B10924F0B8093510B0E
:1022F0009093520BA093530BB093540B81EC92E04C
:1023000090934E0B80934D0B1092090C1092080C79
:102310008DED92E09093070C8093060C87E28093FA
:102320000A0C80E180930F0C82E08093100C1092D5
:10233000110C44EF51E060E070E04093E60B5093E5
:10234000E70B6093E80B7093E90B9AE0E9E4F2E0A5
:10235000A4EFBBE001900D929A95E1F71092FE0B6D
:102360008093FF0B1092040C1092050C1092730BCB
:102370001092770B1092760B1092780B83ED92E00F
:102380009093720B8093710BEDE8FBE01082148246
:102390001382158236968BE0E93CF807B9F787E29D
:1023A00092E09093D40B8093D30B83E292E09093CE
:1023B000D60B8093D50B84E08093D70B8093D80BFA
:1023C0008BE292E09093D20B8093D10B8AE090E065
:1023D0009093DA0B8093D90B84EF91E09093DC0B10
:1023E0008093DB0B1092DF0B1092DE0B1092CD0B63
:1023F0001092CE0B1092CF0B1092D00B1092DD0BDF
:102400006EE573E08BE69BE00E949D0C67E773E04E
:1024100085E69BE00E949D0C62E873E08FE59BE0FF
:102420000E949D0C6DE873E089E59BE00C949D0C87
:10243000CF93DF93CDB7DEB76E970FB6F894DEBFBC
:102440000FBECDBF789484B5826084BD84B58160B1
:1024500084BD85B5826085BD85B5816085BD80916F
:102460006E00816080936E001092810080918100E7
:1024700082608093810080918100816080938100DF
:10248000809180008160809380008091B1008460A1
:102490008093B1008091B00081608093B000809102
:1024A000910082608093910080919100816080937F
:1024B0009100809190008160809390008091A100B4
:1024C00082608093A1008091A10081608093A1002F
:1024D0008091A00081608093A000809121018260A2
:1024E000809321018091210181608093210180915D
:1024F000200181608093200180917A008460809324
:102500007A0080917A00826080937A0080917A00CC
:10251000816080937A0080917A00806880937A004D
:102520001092C10080EB9AE00E94950183E19AE04D
:102530000E94950110927609109275091092740903
:10254000109273090E9416078FED91E09093720923
:102550008093710980EE91E09093700980936F09E8
:102560000E94160710920B0C8091100C823018F00C
:1025700098E090930B0C80930E0C62E370E080E087
:1025800090E00E9482046091110C86E09CE00E9421
:10259000DB0768EE73E080E090E00E94820460E375
:1025A00086E09CE00E9408090BE416E4C80101974C
:1025B000F1F760E386E09CE00E940809C8010197FA
:1025C000F1F760E386E09CE00E94080983E592E071
:1025D0000197F1F760E286E09CE00E9408096091B3
:1025E0000B0C606240E086E09CE00E94210984E0E0
:1025F00080930C0C40E06CE086E09CE00E94210996
:102600000E94380982E080930D0C40E066E086E08D
:102610009CE00E94210940E062E086E09CE00E948C
:1026200021098BE39FE10197F1F788E08093110C7A
:1026300060E086E09CE00E94DB070E94380963EAC4
:1026400073E086E09CE00E940D0B61E080E00E9458
:102650008B0963EB73E086E09CE00E940D0B68EE53
:1026600073E080E090E00E94820403E010E0E3E188
:10267000EE2EEAE0FE2EDD24D394F092E10BE09200
:10268000E00BD092F80B70E060E08CE00E949A06BC
:1026900060ED77E080E090E00E945D0668EC70E01D
:1026A00080E090E00E9482041092040C8091000C63
:1026B0008430D1F08930C1F064EF71E080E090E0C7
:1026C0000E94820401501109C1F60E94380960EE8F
:1026D00073E086E09CE00E940D0B61E080E00E94C8
:1026E0008B0961EF73E01FC069E170E086E00E9432
:1026F0009A0670E060E082E40E949A0660E070E072
:10270000CB010E945D06811119C00E94380963EC5B
:1027100073E086E09CE00E940D0B61E080E00E9487
:102720008B0962ED73E086E09CE00E940D0B60ED8A
:1027300077E080E090E00E9482040CC01092040CCC
:102740008091000C8B3009F78091020C9091030C62
:10275000892BD9F60E94380964E074E086E09CE099
:102760000E940D0B5BEAC52E52E0D52E67E9E62EDE
:1027700062E0F62E71EA672E72E0772EF301008197
:10278000F2E06F0E711C61E0802F0E940004F701DF
:102790001081F2E0EF0EF11C61E0812F0E94000435
:1027A00061E0802F0E94CE0368EC70E080E090E052
:1027B0000E94820460E0802F0E94CE0361E0812F9E
:1027C0000E94CE0368EC70E080E090E00E948204FA
:1027D00060E0812F0E94CE03C614D70479F662E030
:1027E00087E20E9400044BE8E42E42E0F42E0FE75B
:1027F00012E0F80180810E5F1F4F62E00E9400042A
:10280000E016F106B1F73FE7E32E32E0F32E03E7DF
:1028100012E0F80180810E5F1F4F62E00E94000409
:10282000E016F106B1F703E512E023E7E22E22E01D
:10283000F22EF80180810E5F1F4F62E00E940004BB
:10284000E016F106B1F767E07AE090E080E00E94E0
:10285000C20968E979E084E090E00E94C2099CE93D
:10286000E92E99E0F92E88E090E08C010F5F1F4F70
:102870000E94180A90E0F701819391937F01C801AB
:102880000E30110591F788EAE82E89E0F82E6801EC
:10289000FFEFCF1ADF0AC8010E94180A90E0F70183
:1028A000819391937F0186010431110581F7B4EB87
:1028B000EB2EB9E0FB2E04E110E0C8010E940D22CE
:1028C000F7018083C80101960E940D22F7018183E0
:1028D000F2E0EF0EF11C0E5F1F4F0032110569F799
:1028E000A8E7EA2EA9E0FA2E00E210E068012FEF37
:1028F000C21AD20AC8010E94180A90E0F701918317
:1029000080830E5F1F4FC6010E94180A90E0F701F6
:1029100093838283F4E0EF0EF11C0033110531F74D
:10292000F2ECEF2EF9E0FF2E68012FEFC21AD20A67
:10293000C8010E94180AF70181937F0186010A33BA
:10294000110591F77601FFEFEF1AFF0AC6010E9409
:10295000180A2AE3C21AD10820916F0B3091700B2C
:10296000C216D30640F420916B0B30916C0B2115ED
:10297000310509F0CDC11092770927E739E0F90157
:1029800080836701FBE5EF16F104E1F687010F5F35
:102990001F4FC7010E94180A2BE5E21AF108209187
:1029A000690B30916A0BE216F30638F4E091650B7F
:1029B000F091660B309709F0AEC110927709E7E706
:1029C000F9E0808378010C37110501F778013FEFBA
:1029D000E31AF30AC8010E94180A0C571109209142
:1029E000630B3091640B0217130738F4E0915F0B0F
:1029F000F091600B309709F091C110927709E7E7E9
:102A0000F9E0808387014DE9E416F104F9F602E06C
:102A100012E067015FEFC51AD50AC7010E94180AC4
:102A2000F80181938F017601FEEBCF16D10489F76F
:102A300084E194E00E94FE0A62E370E080E090E0AE
:102A40000E94820460E374E080EB9AE00E940D0B28
:102A50006091070A7091080A8091090A90910A0A08
:102A6000E8EECE2EE3E0DE2EE12CF12CA70196015C
:102A70000E945122CA01B9010E94ED0A62E370E08E
:102A800080E090E00E9482046CE374E080EB9AE0C6
:102A90000E940D0B609198097091990980919A0993
:102AA00090919B09A70196010E945122CA01B90188
:102AB0000E94ED0A62E370E080E090E00E948204F0
:102AC00066E474E080EB9AE00E940D0B2CE939E09B
:102AD0003A8F298FE98DFA8D61917191FA8FE98F83
:102AE00080EB9AE00E94A40A298D3A8D285A394039
:102AF00089F70E94340A62E370E080E090E00E946F
:102B0000820461E574E080EB9AE00E940D0B04EB17
:102B100019E088EA99E09C8F8B8FEB8DFC8D619199
:102B20007191FC8FEB8F80EB9AE00E94A40A2B8DB1
:102B30003C8D0217130789F70E94340A62E370E0A4
:102B400080E090E00E9482046BE574E080EB9AE004
:102B50000E940D0B74EBE72E79E0F72E10E000E0F9
:102B6000F701619171917F0180EB9AE00E94A40AC4
:102B70000530110531F062E674E080EB9AE00E94C6
:102B80000D0B0F5F1F4F0630110551F70E94340ADD
:102B900062E370E080E090E00E94820465E674E009
:102BA00080EB9AE00E940D0B08E719E0F8016081C4
:102BB000718180EB9AE00E94A40A62E674E080EBE7
:102BC0009AE00E940D0BF8016281738180EB9AE01C
:102BD0000E94A40A62E674E080EB9AE00E940D0B6A
:102BE0000E94340A0C5F1F4FF9E008391F07F1F605
:102BF00062E370E080E090E00E9482046DE674E0A1
:102C000080EB9AE00E940D0B82EC99E00E94FE0A94
:102C10006BE774E080EB9AE00E940D0B8BE69BE083
:102C20000E94490A6BE874E080EB9AE00E940D0B69
:102C300085E69BE00E94490A6DE974E080EB9AE02A
:102C40000E940D0B8FE59BE00E94490A8DEA94E0FB
:102C50000E94FE0A0E94380963EA73E086E09CE065
:102C60000E940D0B61E080E00E948B096FEC74E024
:102C700086E09CE00E940D0B84E690E09093EF09C3
:102C80008093EE099093F1098093F0099093F309F2
:102C90008093F2099093F5098093F40990930102CF
:102CA0008093000268EE262E63E0362E412C512CD4
:102CB00080EB9AE00E945F02181619060CF018C10A
:102CC00067EE72E0CE0143960E949D0C0E941D05A6
:102CD00097FD27C08A30910521F189831A820F89D7
:102CE000188D0F5F1F4FB801CE0143960E94750CDF
:102CF000882361F32B893C898F89988DBE016F5F92
:102D00007F4F820F931F0E94A724188F0F8BDECF57
:102D10002C0D3D1D34CEEE0DFF1D53CEE00FF11FE7
:102D200070CE64EF71E080E090E00E9482046BED71
:102D300074E0CE0101960E949D0CBE016F5F7F4F33
:102D4000CE0143960E94070C182FCE0101960E94D7
:102D50006D0C112309F4E3C444E050E0BE016D5E44
:102D60007F4FCE0101960E94300DBE016F5F7F4FF5
:102D7000CE0143960E94220CCE0101960E946D0C5A
:102D800060E975E0CE0101960E949D0CBE016F5F67
:102D90007F4FCE0143960E94070C182FCE0101965B
:102DA0000E946D0C112321F14AE050E0BE016D5EDE
:102DB0007F4FCE0101960E94300DCE0101960E94F8
:102DC0001A0A9B01AC01A8EEB3E00E942322609393
:102DD000070A7093080A8093090A90930A0ACE01A1
:102DE00001960E946D0C80EE94E00E94FE0A7CC069
:102DF00062EA75E0CE0101960E949D0CBE016F5FF4
:102E00007F4FCE0143960E94070C182FCE010196EA
:102E10000E946D0C112311F148E050E0BE016D5E7F
:102E20007F4FCE0101960E94300DCE0101960E9487
:102E30001A0A9B01AC01A8EEB3E00E942322609322
:102E400098097093990980939A0990939B09CE01F0
:102E500001960E946D0C8DEE94E0C7CF62EB75E099
:102E6000CE0101960E949D0CBE016F5F7F4FCE0187
:102E700043960E94070C182FCE0101960E946D0CFC
:102E8000112309F46DC149E050E0BE016D5E7F4F32
:102E9000CE0101960E94300D0D811E81F12CE12C96
:102EA000E016F10690F4B701CE0101960E94E1010F
:102EB000F701EE0FFF1FE456F64F21E030E08133BB
:102EC00011F030E020E0318320832FEFE21AF20A84
:102ED00036E0E316F10421F788EF94E00E94FE0A41
:102EE000CE0101960E946D0CCE0143960E946D0C9E
:102EF0008091120A8234A1F55CECE52E59E0F52EA2
:102F000063E7C62E62E0D62E10E000E0F601808175
:102F1000F2E0CF0ED11C0E94A2030F5F1F4F892B3E
:102F2000C9F4F7011182108261E676E080EB9AE045
:102F30000E940D0BB80180EB9AE00E94A40A6AE699
:102F400076E080EB9AE00E940D0BF7018081918181
:102F50000E94DE0AF2E0EF0EF11C06301105B1F618
:102F60008091110A81116AC08091100A8111D9C61D
:102F700087E20E94A203892B09F0D3C681E08093E7
:102F8000110A1092100A10920F0A0E94B504609361
:102F90000B0A70930C0A80930D0A90930E0A1092FC
:102FA000C1091092C0091092060A1092050A1092E7
:102FB000040A1092030A1092020A07E912E041EA99
:102FC000E42E42E0F42EF7018081F2E0EF0EF11CD6
:102FD00060E00E94CE03F80180810E5F1F4F60E029
:102FE0000E94CE03E614F70471F70E9438096BE6DD
:102FF0007BE086E09CE00E94F30168EB7BE080E0F0
:1030000090E00E9482040E94B504685E73408109CA
:1030100091096093FA097093FB098093FC099093DE
:10302000FD090E940F0B6CE271E080E090E00E94CD
:1030300082048091110A882309F473C68091100AD2
:1030400081116FC680910F0A81119EC40E940F0BDF
:103050000E94B50400910B0A10910C0A20910D0AF0
:1030600030910E0A601B710B820B930B0091070AC3
:103070001091080A2091090A30910A0A6017710715
:1030800082079307E0F181E08093100A0E943809DB
:1030900069E57BE086E09CE00E94F30161E080E06E
:1030A0000E948B0966E776E086E09CE00E940D0BAB
:1030B00001EA12E037E9E32E32E0F32EF7018081D6
:1030C000F2E0EF0EF11C61E00E94CE030E151F0529
:1030D000A9F784E690E09093010280930002909318
:1030E000F5098093F4099093F3098093F209909382
:1030F000F1098093F0099093EF098093EE0981E044
:103100008093DD0B0E94B5040091CD0B1091CE0B86
:103110002091CF0B3091D00BAB01BC01401B510B68
:10312000620B730B8091D90B9091DA0BB0E0A0E0A9
:1031300084179507A607B70708F0F9C510E0809136
:10314000D70B181708F09DC4E091D30BF091D40B66
:10315000E10FF11D62E080810E9400041F5FEFCF4C
:1031600063EC75E0CE0101960E949D0CBE016F5F7D
:103170007F4FCE0143960E94070C182FCE01019677
:103180000E946D0C112351F148E050E0BE016D5ECC
:103190007F4FCE0101960E94300D0D811E81F12CD2
:1031A000E12CE016F10680F4B701CE0101960E94F1
:1031B000E101F701EE0FFF1FE855F64F082E000C56
:1031C000990BC097918380834FEFE41AF40A56E07D
:1031D000E516F10431F784E095E080CE63ED75E00B
:1031E000CE0101960E949D0CBE016F5F7F4FCE0104
:1031F00043960E94070C182FCE0101960E946D0C79
:10320000112309F471C045E050E0BE016D5E7F4FAF
:10321000CE010D960E94300D10E000E0912C812C23
:10322000F12CE12CC988DA880C151D0508F055C071
:10323000B801CE010D960E94E101F80131965F01BF
:103240008C3231F0F1E0CF1AD1080C151D05C1F513
:1032500067EE72E0CE0107960E949D0C89899A89DB
:1032600001970817190771F5492D582DBE01635FA5
:103270007F4FCE0101960E94300DBE016F5F7F4FE0
:10328000CE0107960E94220CCE0101960E946D0C81
:1032900026E0E216F1045CF4CE0107960E941A0AB9
:1032A000F701EE0FFF1FEC54F64F718360839A2CE9
:1032B0008B2C3FEFE31AF30ACE0107960E946D0CA8
:1032C0008501B0CF9801492D582DBE01635F7F4F16
:1032D000CE0101960E94CE0CD0CF8FE095E00E94E7
:1032E000FE0ACE010D96FECD62EE75E0CE0101968E
:1032F0000E949D0CBE016F5F7F4FCE0143960E94DE
:10330000070C182FCE0101960E946D0C112309F4B1
:103310007BC046E050E0BE016D5E7F4FCE010D9652
:103320000E94300D10E000E0D12CC12C912C812C9A
:10333000F12CE12CA988BA880A151B0508F061C098
:10334000B801CE010D960E94E1018C3239F041E0C6
:10335000A41AB1080A151B0509F042C067EE72E015
:10336000CE0107960E949D0C89899A8901970817BA
:103370001907C9F5A401BE01635F7F4FCE01019615
:103380000E94300DBE016F5F7F4FCE0107960E94F5
:10339000220CCE0101960E946D0CF8E0EF16F104AC
:1033A000BCF4CE0107960E941A0AF701EE0FFF1F28
:1033B000EC0DFD1DEE0FFF1FE858F64F7183608383
:1033C000CA94CD28D1F48FEFE81AF80AD12CC12C79
:1033D00048019FEF891A990ACE0107960E946D0C49
:1033E0000F5F1F4FA7CF9801A401BE01635F7F4FFE
:1033F000CE0101960E94CE0CC5CFCC24C394D12C13
:10340000E7CF87E195E06BCF60EF75E0CE010196E5
:103410000E949D0CBE016F5F7F4FCE0143960E94BC
:10342000070C182FCE0101960E946D0C112321F17B
:1034300048E050E0BE016D5E7F4FCE0101960E94D4
:10344000300D0D811E810115110529F41092C2095C
:1034500080E295E043CD0930110510F009E010E05D
:1034600069817A81A80182EC99E00E94BC24F8016C
:10347000EE53F64F1082ECCF8F89988D892B09F48B
:1034800084C06EE275E08B899C890E949E24892B02
:1034900009F07BC067E07AE090E080E00E94E809F4
:1034A00068E979E084E090E00E94E8091CE9E12EF7
:1034B00019E0F12E08E010E0F7016081F2E0EF0E74
:1034C000F11CC8010E9415220F5F1F4F0E3011051D
:1034D00099F7B8EAEB2EB9E0FB2EF7016081F2E034
:1034E000EF0EF11CC8010E9415220F5F1F4F04311F
:1034F000110599F7A4E1CA2ED12C86010056164F6A
:10350000760122E0E20EF11CF801B1908F01C601B4
:103510000E940D22B81621F06B2DC6010E941522C3
:10352000FFEFCF1ADF0ACE14DF0471F720E2C216D4
:10353000D10419F708E719E0F8016081C6010E947B
:103540001522F2E0CF0ED11CF8016281C60101976D
:103550000E9415220C5F1F4FF0E3CF16D10461F7D4
:1035600002EC19E0F0E3EF2EF12CF80161918F01EC
:10357000C7010E941522FFEFEF1AFF0A2AE3E216A5
:10358000F10499F78BE295E030CC63E375E0CE016E
:1035900001960E949D0CBE016F5F7F4FCE01439646
:1035A0000E94070C182FCE0101960E946D0C11236A
:1035B00009F49ACC44E050E0BE016D5E7F4FCE012D
:1035C00001960E94300DBE016F5F7F4FCE01439682
:1035D0000E94220CCE0101960E946D0C64E076E000
:1035E000CE0101960E949D0CBE016F5F7F4FCE0100
:1035F00043960E94070C182FCE0101960E946D0C75
:10360000112361F046E050E0BE016D5E7F4FCE01B8
:1036100001960E94300D88E395E060CC66E176E08B
:10362000CE0101960E949D0CBE016F5F7F4FCE01BF
:1036300043960E94070C182FCE0101960E946D0C34
:10364000112361F048E050E0BE016D5E7F4FCE0176
:1036500001960E94300D85E495E040CC6AE276E068
:10366000CE0101960E949D0CBE016F5F7F4FCE017F
:1036700043960E94070C182FCE0101960E946D0CF4
:10368000112361F046E050E0BE016D5E7F4FCE0138
:1036900001960E94300D84E595E020CC6CE376E045
:1036A000CE0101960E949D0CBE016F5F7F4FCE013F
:1036B00043960E94070C182FCE0101960E946D0CB4
:1036C000112361F048E050E0BE016D5E7F4FCE01F6
:1036D00001960E94300D81E695E000CC60E576E031
:1036E000CE0101960E949D0CBE016F5F7F4FCE01FF
:1036F00043960E94070C182FCE0101960E946D0C74
:10370000112309F4F1CB47E050E0BE016D5E7F4F1D
:10371000CE0101960E94300D80E795E0DFCB8F89C6
:10372000988D892B09F4E0CB0B891C896EE775E035
:10373000C8010E949E246C01892B09F0ECC069E845
:1037400075E080EB9AE00E940D0B6091070A709182
:10375000080A8091090A90910A0AA20191010E9427
:103760005122CA01B9010E94ED0A6BE975E080EBB4
:103770009AE00E940D0B60919809709199098091CF
:103780009A0990919B09A20191010E945122CA01BC
:10379000B9010E94ED0A6BEA75E080EB9AE00E94A5
:1037A0000D0B0CE919E0F801619171918F0180EB2B
:1037B0009AE00E94A40A298D3A8D2017310799F7C3
:1037C0000E94340A6CEB75E080EB9AE00E940D0BCE
:1037D00008EA19E0F801619171918F0180EB9AE09C
:1037E0000E94A40A2B8D3C8D0217130799F70E94A3
:1037F000340A6CEC75E080EB9AE00E940D0BE4EB70
:10380000EE2EE9E0FE2E10E000E0F70161917191EB
:103810007F0180EB9AE00E94A40A0530110531F087
:1038200069ED75E080EB9AE00E940D0B0F5F1F4F72
:103830000630110551F70E94340A6BED75E080EBFC
:103840009AE00E940D0B08E719E0F8016081718190
:1038500080EB9AE00E94A40A69ED75E080EB9AE0A3
:103860000E940D0BF8016281738180EB9AE00E9447
:10387000A40AF7E0CF16D10431F069ED75E080EBD2
:103880009AE00E940D0B2FEFC21AD20A0C5F1F4F55
:1038900038E0C316D104C9F60E94340A69EE75E017
:1038A00080EB9AE00E940D0B82EC99E00E94FE0AE8
:1038B00069EF75E080EB9AE00E940D0B8BE69BE0D0
:1038C0000E94490A6BE076E080EB9AE00E940D0BC3
:1038D00085E69BE00E94490A6FE176E080EB9AE082
:1038E0000E940D0B8FE59BE00E94490A61E376E0A0
:1038F00080EB9AE00E940D0B82E092E00E94FE0AAB
:1039000065E476E080EB9AE00E940D0B89E59BE090
:103910000E94490AE9CA6BE576E0C8010E949E242C
:10392000892B09F0E1CA1092110A1092100A07E9D6
:1039300012E071EAE72E72E0F72EF7018081F2E0E3
:10394000EF0EF11C60E00E94CE03F80180810E5F53
:103950001F4F60E00E94CE03E614F70471F70E9447
:10396000380963EA73E086E09CE00E940D0B61E099
:1039700080E00E948B096FEC74E086E09CE00E947E
:103980000D0B88E596E031CA0E94B504C090FE098F
:10399000D090FF09E090000AF090010A6C197D09AF
:1039A0008E099F0961367A4E8105910518F11092B2
:1039B0000F0A0E94380968E973E086E09CE00E94E3
:1039C0000D0B0E94E2080E94C50860ED77E080E0E0
:1039D00090E00E9482040E94B504685E73408109F1
:1039E00091096093FA097093FB098093FC09909305
:1039F000FD092ECB0E94B5040091F6091091F7093C
:103A00002091F8093091F909601B710B820B930B1F
:103A1000683E73408105910508F41ACB0E94B504F5
:103A20006093F6097093F7098093F8099093F90968
:103A30000E94B50430E6C30E3AEED31EE11CF11C21
:103A4000A7019601261B370B480B590BCA01B90178
:103A5000A20191010E9451226901890160E08EE07A
:103A60000E948B090A30110534F468EF72E086E099
:103A70009CE00E940D0BB60186E09CE00E94A40A27
:103A8000E7CA912C8091D80B981608F063C0E92CF6
:103A9000F12CE091D50BF091D60BEE0DFF1D61E0FE
:103AA00080810E940004E091D50BF091D60BEE0DC1
:103AB000FF1D60E080810E94CE0381E090E0A0E0E5
:103AC000B0E0092C04C0880F991FAA1FBB1F0A94DD
:103AD000D2F75C016C01C094D094812C8091D70BFB
:103AE000881608F5082D10E0E091D30BF091D40B67
:103AF000E00FF11F80810E94A2030C5F1F4F000F97
:103B0000111FF801EF58F44F892B41F48081918106
:103B10008A299B29918380838394E0CF808191813E
:103B20008C219D21F7CFE091D50BF091D60BEE0DB6
:103B3000FF1D61E080810E94CE038091D50B9091A2
:103B4000D60BE80EF91E60E0F70180810E940004A8
:103B5000939498CF01E71BE08DEA9BE07801F70191
:103B6000278D30A1232B31F4148E2FEF3FEF368FAA
:103B7000258F11A236E0E30EF11C8E159F0579F713
:103B8000D12C96E0B92E8091D70BD81608F052C0F0
:103B9000C12C8D2C912C880C991CA4014758544F92
:103BA0004A012091D80BC21608F042C0F40160818E
:103BB00071810C2C02C0769567950A94E2F7D29E2B
:103BC000900111242C0D311DE1E7FBE080E0458DD3
:103BD000568D2417350709F4D2C38F5F36968A3085
:103BE000B1F760FF23C0E1E7FBE090E080E0448DA7
:103BF000411117C0E091D10BF091D20BE20FF31FEE
:103C00004081B89EF001B99EF00D1124EF58F44F99
:103C1000448F368F258F10A2178E61E00E94C10459
:103C200005C0019636968A30910509F7C394B9CF3D
:103C3000D394A9CF80E0F801D1A0D11001C0D82E33
:103C40000A5F1F4FE016F10609F06FC00E94B5042D
:103C50006093CD0B7093CE0B8093CF0B9093D00BD2
:103C6000DD2009F464C08091920B882309F45FC0C1
:103C70008091900B9091910B019709F058C00091A1
:103C80008D0B011157C08091060A882309F449C0A1
:103C90008091050A882309F444C08091040A88238E
:103CA00009F43FC08091030A8823D9F18091020A68
:103CB0008823B9F181E08093100A0E94380962E0FC
:103CC00072E086E09CE00E940D0B61E080E00E94C3
:103CD0008B096BE778E086E09CE00E940D0B01EA1F
:103CE00012E0F80180810E5F1F4F61E00E94CE0359
:103CF00060167106B1F784E690E09093010280931C
:103D000000029093F5098093F4099093F30980934E
:103D1000F2099093F1098093F0099093EF09809351
:103D2000EE090E940E030C9458168D2D84CF10922C
:103D3000DD0BA9CF67E876E080EB9AE00E940D0BDF
:103D4000802F0E943A0A10910F0A1111C4C065E930
:103D500076E080EB9AE00E940D0B802F0E943A0AD9
:103D60006EE377E080EB9AE00E940D0B8091F00902
:103D70009091F1090E94DE0A8091EE099091EF097D
:103D80000134C9F08091F0099091F109023499F061
:103D90008091F2099091F309033469F08091F4095C
:103DA0009091F509043439F00A3209F06CCF809112
:103DB0000002909101028436910509F064CF81E000
:103DC00080930F0A0093120A0E94B5046093FE09C3
:103DD0007093FF098093000A9093010A1092ED09F5
:103DE0001092EC091092D8098091EE099091EF0998
:103DF0000E94DE0A0E943809023451F1BCF40A32F2
:103E000009F45CC0013409F03ECF62EB76E086E055
:103E10009CE00E940D0B61E080E00E948B096EEB3C
:103E200076E086E09CE00E940D0B2DCF0334C9F1B3
:103E3000043409F028CF60E077E086E09CE00E943F
:103E40000D0B61E080E00E948B096BE077E0E9CF29
:103E50006EEC76E086E09CE00E940D0B61E080E075
:103E60000E948B096AED76E086E09CE00E940D0BD3
:103E70001092CD091092CC091092CF091092CE0960
:103E80001092D1091092D0091092D3091092D20940
:103E90001092D5091092D4091092D7091092D60920
:103EA000F2CE6BEE76E086E09CE00E940D0B61E0C6
:103EB00080E00E948B0961EF76E0B3CF6CE177E0A0
:103EC00086E09CE00E940D0B61E080E00E948B097F
:103ED00068E277E0A6CF8091120A033209F025C28A
:103EE00010920F0A823409F4C1C024F58A3209F411
:103EF000C7C1813471F160ED77E080E090E00E940D
:103F000082040E94B504685E734081099109609340
:103F1000FA097093FB098093FC099093FD096AE507
:103F200078E080EB9AE00E940D0B8091120A0E94CB
:103F30003A0AA9CE833409F4EFC08434E1F68091C3
:103F4000F4099091F50984369105A9F60E943C0D7B
:103F5000D2CF8091EE099091EF098436910559F600
:103F6000BCE98B2EB9E09B2E0FE7C02E02E0D02ECD
:103F7000F12CE12CF6018081F2E0CF0ED11C0E94E1
:103F8000A203AA24A394B12C892B11F0B12CA12C4B
:103F900065E377E080EB9AE00E940D0BB70180EBC0
:103FA0009AE00E94A40A6DE377E080EB9AE00E9419
:103FB0000D0BC5010E94DE0AF401819191914F0120
:103FC000A816B90609F041C0FFEFEF1AFF0A26E074
:103FD000E216F10479F60E9438091123C1F181E05B
:103FE0008093060A8091C0099091C1099C012F5FBE
:103FF0003F4F3093C1092093C00926303105B4F4F6
:10400000880F991FFC01EF55FD4F61E080810E94F0
:10401000CE0366E477E080EB9AE00E940D0B80917E
:10402000C0099091C10901970E94DE0A6CE577E012
:1040300086E09CE00E940D0B61E080E00E948B090D
:104040001092EF091092EE0956CF10E0C4CF6EE641
:1040500077E086E09CE00E940D0B61E080E00E942A
:104060008B090E94E2080E94C50845CF8091F009A3
:104070009091F1098436910509F03DCFACECB9E09F
:10408000E8EAF9E090E080E04D915D9161917191F5
:10409000019621E030E06817790711F030E020E068
:1040A0004217530719F06FE978E032C18630910565
:1040B00059F781E08093050A8091C0099091C10968
:1040C00001969093C1098093C0096BE878E0CE0116
:1040D00001960E949D0CCE0101960E946A09CE01B4
:1040E00001960E946D0C8091C0099091C1098630A3
:1040F00091054CF4880F991FFC01E156FD4F61E0DA
:1041000080810E94CE038EE797E00E94FE0A109203
:10411000F1091092F009EFCE8091F2099091F30924
:104120008436910509F0E7CE6BE877E080EB9AE002
:104130000E940D0B5BE8E52E52E0F52E67E9C62ED6
:1041400062E0D62E44EB59E05E8F4D8F57017AE046
:10415000872E912CF5018081F2E0AF0EB11C0E94F8
:104160004004ED8DFE8D21913191FE8FED8FB401D4
:104170000E943D22621B730B77FF03C0719561950E
:104180007109633371050CF066C0CA14DB0411F7C2
:1041900044EBA42E49E0B42EF7018081F2E0EF0E4B
:1041A000F11C0E9440044C0164EA77E080EB9AE045
:1041B0000E940D0BB40180EB9AE00E94A40A63EB0D
:1041C00077E080EB9AE00E940D0BF50181919191CF
:1041D0005F010E94DE0ACE14DF04F1F687EC97E05F
:1041E0000E94FE0A1123C9F181E08093040A8091A4
:1041F000C0099091C10901969093C1098093C009AB
:104200006FEE77E0CE0101960E949D0CCE010196E3
:104210000E946A09CE0101960E946D0C8091C0092E
:104220009091C109863091054CF4880F991FFC01CB
:10423000E156FD4F61E080810E94CE031092F309A8
:104240001092F20989EF97E00E94FE0A84E198E05B
:104250000E94FE0A50CE10E09BCF67E078E0CE01CE
:1042600001960E949D0CCE0101960E944309CE0149
:1042700001960E946D0C0E94E2080E94C508E6CFDC
:1042800080910002909101028436910509F033CEAD
:10429000E091EC09F091ED09E852F64F108262ECE2
:1042A00079E088ED99E00E949E24892B79F581E0E0
:1042B0008093020A8091C0099091C1090196909360
:1042C000C1098093C00962E378E0CE0101960E94A3
:1042D0009D0CCE0101960E946A09CE0101960E94B2
:1042E0006D0C8091C0099091C109863091054CF404
:1042F000880F991FFC01E156FD4F61E080810E940B
:10430000CE031092010210920002F5CD67E478E02E
:10431000CE0101960E949D0CCE0101960E94430998
:10432000CE0101960E946D0C9CCE8A3209F0ABCC76
:104330000A3209F4A8CC8091EC099091ED098331FF
:1043400091050CF0A0CC9C012F5F3F4F3093ED09FD
:104350002093EC098852964FFC0100832852364F77
:10436000F901108261E080E00E948B0968E277E049
:1043700086E09CE00E940D0B68ED79E052CD617003
:104380004DCC89E59BE00E946D0C8FE59BE00E947F
:104390006D0C85E69BE00E946D0C8BE69BE00C9417
:1043A0006D0C1F93FC0199278827BC01E89411919B
:1043B0001032E9F3193010F01E30C8F31B3251F0FF
:1043C0001D3249F4689406C00E94F821610F711DE6
:1043D000811D911D119110531A30B0F33EF4909548
:1043E0008095709561957F4F8F4F9F4F1F910895D6
:1043F000592F482F372F262F660F771F881F991F99
:10440000660F771F881F991F620F731F841F951FE8
:10441000660F771F881F991F0895F999FECF92BDE7
:1044200081BDF89A992780B50895262FF999FECF76
:104430001FBA92BD81BD20BD0FB6F894FA9AF99AC1
:104440000FBE019608950E942E22A59F900DB49F45
:10445000900DA49F800D911D11240895A29FB0017D
:10446000B39FC001A39F700D811D1124911DB29FA8
:10447000700D811D1124911D089597FB072E16F4D0
:10448000009407D077FD09D00E947B2207FC05D05D
:104490003EF4909581959F4F0895709561957F4F5B
:1044A0000895A1E21A2EAA1BBB1BFD010DC0AA1F75
:1044B000BB1FEE1FFF1FA217B307E407F50720F08D
:1044C000A21BB30BE40BF50B661F771F881F991F08
:1044D0001A9469F760957095809590959B01AC0151
:1044E000BD01CF010895EE0FFF1F881F8BBF0790FE
:1044F000F691E02D1994AA1BBB1B51E107C0AA1F1E
:10450000BB1FA617B70710F0A61BB70B881F991F74
:104510005A95A9F780959095BC01CD0108950F9308
:104520001F93CF93DF938230910510F482E090E0E7
:10453000E091140CF091150C30E020E0B0E0A0E028
:10454000309799F42115310509F44AC0281B390B1D
:1045500024303105D8F58A819B816115710589F177
:10456000FB0193838283FE0111C04081518102814E
:10457000138148175907E0F04817590799F4109725
:1045800061F012960C93129713961C933296CF01FA
:10459000DF91CF911F910F9108950093140C109308
:1045A000150CF4CF2115310551F04217530738F09F
:1045B000A901DB019A01BD01DF01F801C1CFEF01C3
:1045C000F9CF9093150C8093140CCDCFFE01E20F20
:1045D000F31F819391932250310939832883D7CFD8
:1045E0002091120C3091130C232B41F420913D02A9
:1045F00030913E023093130C2093120C20913B0219
:1046000030913C022115310541F42DB73EB7409160
:104610003F0250914002241B350BE091120CF091A7
:10462000130CE217F307A0F42E1B3F0B28173907D2
:1046300078F0AC014E5F5F4F2417350748F04E0FFE
:104640005F1F5093130C4093120C819391939FCF53
:10465000F0E0E0E09CCFCF93DF930097E9F0FC011E
:10466000329713821282A091140CB091150CED01B7
:1046700030E020E01097A1F420813181820F931F58
:104680002091120C3091130C2817390709F061C0E2
:10469000F093130CE093120CDF91CF910895EA018F
:1046A000CE17DF07E8F54A815B819E014115510570
:1046B000B1F7E901FB83EA8349915991C40FD51FF2
:1046C000EC17FD0761F4808191810296840F951F9C
:1046D000E90199838883828193819B838A83F0E0B7
:1046E000E0E012968D919C9113970097B9F52D916A
:1046F0003C911197CD010296820F931F2091120CCD
:104700003091130C2817390739F6309751F510926C
:10471000150C1092140CB093130CA093120CBCCF78
:10472000D383C28340815181840F951FC817D90755
:1047300061F44E5F5F4F88819981480F591F518303
:1047400040838A819B81938382832115310509F0FF
:10475000B0CFF093150CE093140C9ECFFD01DC015B
:10476000C0CF13821282D7CF4F925F926F927F9207
:104770008F929F92AF92BF92CF92DF92EF92FF9271
:104780000F931F93CF93DF938C01009799F4CB0184
:10479000DF91CF911F910F91FF90EF90DF90CF901D
:1047A000BF90AF909F908F907F906F905F904F9051
:1047B0000C948F22FC01E60FF71F9C012250310957
:1047C000E217F30708F4AEC0D901CD91DC9111973F
:1047D000C617D70720F1C530D10578F0CE01049770
:1047E0008617970750F0C61BD70B2297C193D1931A
:1047F0006D937C93CF010E942B23C801DF91CF9151
:104800001F910F91FF90EF90DF90CF90BF90AF90EE
:104810009F908F907F906F905F904F9008955B0175
:10482000AC1ABD0A4C018C0E9D1EA091140CB091C7
:10483000150C512C412CF12CE12C109731F5809165
:10484000120C9091130C8815990509F05CC046165E
:10485000570608F058C080913B0290913C020097A7
:1048600041F48DB79EB740913F0250914002841BA6
:10487000950BE817F90708F055C0F093130CE09377
:10488000120CF90171836083B8CF8D919C911197BF
:1048900012966C90129713967C901397A815B905F1
:1048A00059F56C0142E0C40ED11CCA14DB0420F19E
:1048B000AC014A195B09DA011296159780F0628201
:1048C000738251834083D9016D937C93E114F10489
:1048D00071F0D7011396FC93EE9312978ECF229628
:1048E0008C0F9D1FF90191838083F301EFCFF0932B
:1048F000150CE093140C81CF4816590608F42C01CE
:104900007D01D3019ACFCB010E948F227C010097B9
:1049100049F0AE01B8010E949524C8010E942B23E2
:1049200087016BCF10E000E068CFFB01DC0102C023
:1049300001900D9241505040D8F70895FB01DC01E1
:104940008D91019080190110D9F3990B0895FB0105
:10495000DC0101900D920020E1F70895FB01DC01DC
:104960004150504030F08D910190801919F4002091
:10497000B9F7881B990B0895FB01DC0141505040A9
:1049800048F001900D920020C9F701C01D924150DE
:104990005040E0F7089511E0C1E6D1E000E006C024
:1049A000802FFE010E9473222196011DC236D1077D
:0A49B00080E00807A9F7F894FFCF94
:1049BA006400566963746F72792120416C6C2074AB
:1049CA0061736B7320646F6E652100000000000044
:1049DA0000000008090C0D3E3F404131323341349A
:1049EA00353642373839432A3023440000160C80C2
:1049FA000000004000140054007EFF060001000081
:104A0A000000EF1E001F00200021002200230024C6
:104A1A0000250029002A002B002C002D002E002F33
:104A2A00003000020003000400050006000700161B
:104A3A00001700180019001A001B0036003700384A
:104A4A000039003A003B001C001D002600280031F6
:104A5A000032003300340035003C0000000000A1A1
:104A6A000201022E02EE025F023D02510200000024
:104A7A0000AC077F07C20855077807650756070085
:104A8A000000003C04FC03CB0300000000BC090149
:104A9A0002C208F2010D0A0054696D652072656D43
:104AAA0061696E696E673A003000436865636B69D5
:104ABA006E67206A61636B20636F6E6E65637469EB
:104ACA006F6E732E2E2E004A61636B20636F6E6EBB
:104ADA002E204F4B21004A61636B20636F6E6E6517
:104AEA006374696F6E73204F4B21004A61636B20B8
:104AFA007365712E2077726F6E6721006A61636B2E
:104B0A0020636865636B206661696C656400476150
:104B1A006D6520537461727465642120476F6F64F8
:104B2A00206C75636B210057656C6C20646F6E6531
:104B3A00210054727920616761696E210047616DB5
:104B4A0065204F766572212054696D65277320753B
:104B5A007021004B6579706164204C45442047619F
:104B6A006D6500496E697469616C697A696E672E50
:104B7A002E2E0053442043617264204572726F7274
:104B8A002100436865636B205344204361726400CB
:104B9A004D503320506C61796572204572726F7284
:104BAA000047616D652077696C6C20636F6E74696C
:104BBA006E75650054657374696E67204C4544735D
:104BCA002E2E2E002D2D2D73617665642020436FC5
:104BDA006E66696775726174696F6E202D2D2D007E
:104BEA00436F756E74646F776E3A200050656E611C
:104BFA006C74793A200053776974636865733A2054
:104C0A0000427574746F6E733A2000506F74733A71
:104C1A0020002C20004A61636B733A20004B6579AF
:104C2A0070616420436F64653A2000537461727442
:104C3A00204D6573736167653A2000436F72726530
:104C4A006374204D6573736167653A200057726F0C
:104C5A006E67204D6573736167653A20006E6F77E2
:104C6A0020636F6E6E6563742074686520475549CA
:104C7A002020636F6E666967757261746F72005087
:104C8A0072657373205354415254005345543A0089
:104C9A004F4B3A434F554E54444F574E004F4B3AA1
:104CAA0050454E414C5459004F4B3A53574954437F
:104CBA00484553004F4B3A425554544F4E53004FB8
:104CCA004B3A504F5453004F4B3A4A41434B5300CF
:104CDA004F4B3A4B4559434F4445004F4B3A53418A
:104CEA005645004D53473A004F4B3A4D53473A53B6
:104CFA0054415254004F4B3A4D53473A434F525244
:104D0A00454354004F4B3A4D53473A57524F4E473B
:104D1A00004F4B3A4D53473A564943544F52590064
:104D2A004F4B3A4D53473A4445464541540047454F
:104D3A00543A434F4E46494700434F4E4649473A35
:104D4A00434F554E54444F574E3A00434F4E4649EF
:104D5A00473A50454E414C54593A00434F4E464902
:104D6A00473A53574954434845533A00434F4E46EE
:104D7A0049473A425554544F4E533A00434F4E46D0
:104D8A0049473A504F54533A002C00434F4E464934
:104D9A00473A4A41434B533A00434F4E4649473AF2
:104DAA004B4559434F44453A00434F4E4649473ACB
:104DBA004D53473A53544152543A00434F4E464991
:104DCA00473A4D53473A434F52524543543A0043A8
:104DDA004F4E4649473A4D53473A57524F4E473A34
:104DEA0000434F4E4649473A4D53473A5649435472
:104DFA004F52593A00434F4E4649473A4D53473A64
:104E0A004445464541543A004F4B3A52455345545E
:104E1A0000427574746F6E2020002070726573737F
:104E2A006564203A200054696D65277320757021E6
:104E3A00202020202020004B657920707265737332
:104E4A0065643A20004B65792070726573736564F6
:104E5A0020736571206E6F74206163746976653A98
:104E6A002000537769746368207365712E00536557
:104E7A00742073776974636865732E2E2E004275E9
:104E8A0074746F6E207365712E005072657373208F
:104E9A00627574746F6E732E2E2E00506F74732E9B
:104EAA000041646A75737420706F74732E2E2E001D
:104EBA004A61636B20636F6E6E2E00436F6E6E6580
:104ECA006374206A61636B732E2E2E004B657970B2
:104EDA00616420636F646500456E74657220636F58
:104EEA0064653A20005377697463682000207374FC
:104EFA006174653A20005475726E696E67206F6E30
:104F0A0020475245454E204C45442000537769744A
:104F1A006368657320636F727265637421005377E7
:104F2A006974636865732077726F6E6721006275B2
:104F3A0074746F6E20726967687400436865636B86
:104F4A00696E6720706F742073657175656E63652D
:104F5A002E2E2E00706F742072656164696E672050
:104F6A003A2000207C7C207361766564207265613A
:104F7A0064696E67203A00506F74656E74696F6D6C
:104F8A006574657220636865636B20636F6D706C0E
:104F9A006574652E20616E616C7973696E67005065
:104FAA006F74732E204F4B2100706F7420726967E3
:104FBA0068742073657100506F74732E2077726F56
:104FCA006E672100506F74656E74696F6D657465E4
:104FDA007220636865636B20636F6D706C657465BE
:104FEA002E004B657970616420636F646520636F7E
:104FFA00727265637421004B657970616420636F16
:10500A0064652077726F6E6721004B657920747929
:10501A0070652070726573736564207365712061B1
:10502A0063746976652076323A2000416C6C20748C
:10503A0061736B7320646F6E652100427574746FBF
:10504A006E2073657120636F72726563742100420A
:10505A007574746F6E207365712077726F6E672135
:02506A00000044
:00000001FF
