:100000000C9462010C9493010C9493010C94930151
:100010000C9493010C9493010C9493010C94930110
:100020000C9493010C94C60F0C94C60F0C94C60F3D
:100030000C9493010C9493010C9493010C949301F0
:100040000C9493010C9493010C9493010C949301E0
:100050000C9493010C9493010C9493010C947C0FD9
:100060000C9493010C94460F0C941C0F0C94930168
:100070000C9493010C9493010C9493010C949301B0
:100080000C9493010C9493010C9493010C949301A0
:100090000C94E60E0C94BC0E0C9493010C94D00FAF
:1000A0000C9493010C9493010C9493010C94930180
:1000B0000C9493010C9493010C9493010C94930170
:1000C0000C9493010C9493010C9493010C94930160
:1000D0000C9493010C9493010C9493010C94930150
:1000E0000C9493010C9418060C94AC070C94900398
:1000F0000C9463030C9451020C9403060C94940327
:100100000C94FC030C942E020C9426060C94CB0346
:100110000C9455070C94F2210C9459030C943D0255
:100120000C9486030C9474030C946E030C94C20814
:100130000C947E030C94A1020C9401020C94780799
:100140000C9499030C946B030C945F020C94560767
:100150000C941F060C94F4100C940A060C949A0349
:100160000C94E0010C943C040C9428060C94F201CD
:100170000C945F030C9482030C94BC090C947F07CD
:100180000C949E030C9465070C9478030C946703FD
:100190000C94EE020C948C030C942A060C94DF0150
:1001A00000002100240027002A002D003000330029
:1001B00001010000040107010A01000022002500DE
:1001C00028002B002E003100340002010000050140
:1001D00008010B01000020002300260029002C004C
:1001E0002F0032000001000003010601090105058E
:1001F0000505070508080808020202020A0A08089D
:1002000004040404010101010101010103030303CA
:1002100003030303040707070C0C0C0C0C0C0C0C59
:100220000202020206060606060606060B0B0B0B6A
:100230000B0B0B0B0102102020080810204010208F
:10024000408002010201080402010102040810209A
:100250004080804020100804020180040201804098
:100260002010080402010804020101020408102001
:100270004080010204081020408000000A0B02099F
:100280000C0D0E0807030401000000000000000030
:10029000000000000000000000000000000000005E
:1002A000000000000000121110000000000000001B
:1002B000000000000000000000000000000000003E
:1002C000F410F22111241FBECFEFD1E2DEBFCDBF6B
:1002D00000E00CBF2CE0A0EDB8E001C01D92A433FB
:1002E000B207E1F718E0A0E0B2E0ECE1FAE400E0E8
:1002F0000BBF02C007900D92A03DB107D9F711E0E6
:10030000C1E6D1E000E006C021970109802FFE017F
:100310000E94A422C036D10780E00807A9F70E94F6
:1003200018120C94FC240C940000FC01A089B189E3
:1003300082E08C93A485B5851C92A685B7858FEC49
:100340008C93108EA489B58986E08C93A289B38999
:100350008C9180618C93A289B3898C9188608C93F5
:10036000A289B3898C9180688C930288F389E02DEF
:1003700080818F7D8083089596E0899FD00111242C
:10038000A157B44F90967C936E935F9791E09196AE
:100390009C939197E091FC0BF091FD0B9091FB0BDE
:1003A000992339F0309751F0811108C08091AB0B3F
:1003B0001994309719F05C968C91FACF08950895AE
:1003C0000895FC01248135816217730748F4808108
:1003D0009181009729F0860F971FFC018081089575
:1003E00080E008950895DB0114964D915C91159776
:1003F0006D917C91DC01ED91FC910280F381E02D07
:100400001994AF92BF92CF92DF92EF92FF920F9327
:100410001F93CF93DF936C017B018B01040F151F9A
:10042000EB015E01AE18BF08C017D10759F0699102
:10043000D601ED91FC910190F081E02DC601199556
:10044000892B79F7C501DF91CF911F910F91FF9013
:10045000EF90DF90CF90BF90AF900895FC01538D47
:10046000448D252F30E0842F90E0821B930B54178E
:1004700010F0CF96089501970895FC01918D828D1B
:10048000981761F0A28DAE0FBF2FB11D5D968C91B4
:10049000928D9F5F9F73928F90E008958FEF9FEFF3
:1004A0000895FC01918D828D981731F0828DE80FAF
:1004B000F11D858D90E008958FEF9FEF0895FC0169
:1004C000918D228D892F90E0805C9F4F821B910936
:1004D0008F739927089581E39AE00E945F0221E0DB
:1004E000892B09F420E0822F08958EEC9AE00E9477
:1004F0005F0221E0892B09F420E0822F0895FC019E
:10050000A48DA80FB92FB11DA35ABF4F2C91848D74
:1005100090E001968F739927848FA689B7892C93D1
:10052000A089B1898C91837080648C93938D848D24
:10053000981306C00288F389E02D80818F7D808327
:100540000895EF92FF920F931F93CF93DF93EC01E7
:1005500081E0888F9B8D8C8D98131AC0E889F9896A
:10056000808185FF15C09FB7F894EE89FF8960836D
:10057000E889F98980818370806480839FBF81E0EE
:1005800090E0DF91CF911F910F91FF90EF90089530
:10059000F62E0B8D10E00F5F1F4F0F731127E02E0B
:1005A0008C8D8E110CC00FB607FCFACFE889F98943
:1005B000808185FFF5CFCE010E947F02F1CFEB8DC8
:1005C000EC0FFD2FF11DE35AFF4FF0829FB7F89417
:1005D0000B8FEA89FB8980818062CFCFCF93DF9335
:1005E000EC01888D8823B9F0AA89BB89E889F9894B
:1005F0008C9185FD03C0808186FD0DC00FB607FC80
:10060000F7CF8C9185FFF2CF808185FFEDCFCE01B2
:100610000E947F02E9CFDF91CF91089580E090E0C2
:10062000892B29F00E94750281110E94000080E050
:1006300090E0892B29F00E946B0281110E9400003A
:1006400080E090E0892B49F080E090E0892B29F050
:100650000E94000081110E94000080E090E0892B40
:1006600049F080E090E0892B29F00E940000811180
:100670000C94000008958150823108F05AC0E82F90
:10068000F0E08827E95BFC4F8F4F0C94A4226703AE
:100690006B0359035F03630399036E0374037803C9
:1006A0007E03820386038C039003990394039A03C9
:1006B0009E03809180008F778093800008958091C1
:1006C00080008F7DF9CF80918000877FF5CF84B542
:1006D0008F7784BD089584B58F7DFBCF8091B00066
:1006E0008F778093B00008958091B0008F7DF9CF0F
:1006F000809190008F778093900008958091900072
:100700008F7DF9CF80919000877FF5CF8091A000F9
:100710008F778093A00008958091A0008F7DF9CFFE
:100720008091A000877FF5CF809120018F77809303
:1007300020010895809120018F7DF9CF80912001C3
:10074000877FF5CFCF93DF93282F30E0F901E6586C
:10075000FD4F8491F901EC5CFD4FD491F901E25118
:10076000FE4FC491CC23A1F081110E943B03EC2FDA
:10077000F0E0EE0FFF1FEC52FE4FA591B491EC910B
:10078000ED2381E090E009F480E0DF91CF910895BE
:1007900080E090E0FACF862F0C94A2031F93CF93B2
:1007A000DF93282F30E0F901E658FD4F8491F901DD
:1007B000EC5CFD4FD491F901E251FE4FC491CC2382
:1007C000A9F0162F81110E943B03EC2FF0E0EE0FF1
:1007D000FF1FE654FE4FA591B4918FB7F894EC91AA
:1007E000111108C0D095DE23DC938FBFDF91CF912C
:1007F0001F910895DE2BF8CF862F642F0C94CE0323
:10080000CF93DF9390E0FC01EC5CFD4F249182518B
:100810009E4FFC0184918823C9F090E0880F991FB6
:10082000FC01E056FE4FA591B491FC01E654FE4F49
:10083000C591D49161110DC09FB7F8948C9120950A
:1008400082238C938881282328839FBFDF91CF91B7
:100850000895623051F49FB7F8943C91822F8095AF
:1008600083238C93E8812E2BEFCF8FB7F894EC91F4
:100870002E2B2C938FBFEACF862F642F0C9400046D
:10088000863308F0865320917B00982F9870277F3D
:10089000922B90937B008770806480937C00809182
:1008A0007A00806480937A0080917A0086FDFCCF84
:1008B000809178009091790008953FB7F8948091E5
:1008C000890990918A09A0918B09B0918C0926B56C
:1008D000A89B05C02F3F19F00196A11DB11D3FBF78
:1008E000BA2FA92F982F8827BC01CD01620F711D47
:1008F000811D911D42E0660F771F881F991F4A9541
:10090000D1F708958F929F92AF92BF92CF92DF92CC
:10091000EF92FF926B017C010E945D044B015C0130
:10092000C114D104E104F104B9F00E945D04681916
:1009300079098A099B09683E73408105910580F316
:1009400021E0C21AD108E108F10888EE880E83E0A0
:10095000981EA11CB11CE4CFFF90EF90DF90CF90C8
:10096000BF90AF909F908F9008952FB7F8946091AB
:1009700085097091860980918709909188092FBF18
:1009800008950F931F93CF93DF93C82FD62F86E040
:10099000C89FF0011124E157F44F11A2878D90A157
:1009A00081309105F1F058F082309105F1F1039713
:1009B00009F440C0DF91CF911F910F9108956623F4
:1009C000C9F361E070E08C2F0E94BC010E94B50465
:1009D0006093E70B7093E80B8093E90B9093EA0B1D
:1009E000E9CF0E94B5040091E70B1091E80B20912C
:1009F000E90B3091EA0BAB01BC01401B510B620BC0
:100A0000730B8091F90B9091FA0BB0E0A0E0841782
:100A10009507A607B70748F462E070E08C2FDF91D6
:100A2000CF911F910F910C94BC0163E070E0D11144
:100A3000C1CFF4CF70E060E0F1CF0F931F930E941D
:100A4000B5046093D60A7093D70A8093D80A90931E
:100A5000D90A8EEC9AE00E943D0297FF1DC00E94C9
:100A6000B5040091D60A1091D70A2091D80A309186
:100A7000D90A601B710B820B930B0091D20A109163
:100A8000D30A2091D40A3091D50A601771078207E2
:100A90009307F8F28FEF9FEF1F910F9108950F9337
:100AA0001F938091FE0B9091FF0BDC01ED91FC9167
:100AB0000084F185E02D1995892B09F4D5C060E0FB
:100AC00070E0CB010E94820420911C0C8091FE0BEF
:100AD0009091FF0BDC01ED91FC910284F385E02DF8
:100AE00021110BC019958093080C8E37D1F6809197
:100AF0001C0C8F5F80931C0CD4CF199590911C0C0B
:100B0000E92FF0E0E250F44F82879230B9F099304B
:100B1000D9F09130A9F48F3F99F010921C0C81E02C
:100B200080931E0C1092210C1092200C8093220CAA
:100B30001092230C80E01F910F910895863069F781
:100B40009F5F90931C0CADCF8F3E39F780910A0CBC
:100B50009091090C890F9927991FE0910B0C9C012A
:100B60002E0F311D80910C0C820F932F911D4091FF
:100B70000D0C50E0840F951F20910E0C30E0609119
:100B80000F0C70E0762F6627F091100C6F0F711D1F
:100B9000820F931F9195819591096817790709F044
:100BA000BCCF10921C0CE13419F41092230C3DC000
:100BB000E0931F0C542F4427240F351F3093210C32
:100BC0002093200CEA53E63108F044C0F0E0882777
:100BD000E351FA4F8F4F0C94A42218061F062806E3
:100BE000030628060A0626062A06280628062806D8
:100BF000280628062806280628062A062806280683
:100C000028062806280685E080931E0C81E0809344
:100C1000220C0BC089E020FDF7CF84E021FDF4CF4A
:100C2000237033278AE0232B79F78091220C83CF1E
:100C300087E020FDE9CF82E021FDE6CFF6CF88E016
:100C400020FDE2CF83E021FDDFCFEFCF86E0DCCFD8
:100C50008BE0DACF81E080931E0C1092210C109271
:100C6000200C8093220CA1CF8091230C8823E9F2E1
:100C70000E94B5040091000C1091010C2091020C0F
:100C80003091030C601B710B820B930B0091040CD1
:100C90001091050C2091060C3091070C601771071C
:100CA0008207930710F210921C0C10921E0C1092E7
:100CB000210C1092200C81E039CF8F929F92AF923D
:100CC000BF92CF92DF92EF92FF92CF936B017C01A4
:100CD0000E94B5044B015C01C114D104E104F1048C
:100CE00041F4C090040CD090050CE090060CF090FC
:100CF000070C0E944F05C82F811111C00E94B50436
:100D0000681979098A099B09C616D706E806F90603
:100D100030F060E070E0CB010E948204EACF8C2FBB
:100D2000CF91FF90EF90DF90CF90BF90AF909F90CA
:100D30008F9008958093150C1092170C6093180CE7
:100D40002091140C9091130C290F3327331F820F1D
:100D5000932F911D2091160C820F911D680F791F02
:100D60007195619571097093190C60931A0C222387
:100D700061F08091230C882341F060E070E0CB01AA
:100D80000E9482040E944F05F4CF8091FE0B909147
:100D9000FF0BDC01ED91FC910280F381E02D4AE034
:100DA00050E062E17CE019950E94B5046093000C6C
:100DB0007093010C8093020C9093030C8091160C9D
:100DC00091E0811101C090E09093230C811106C045
:100DD0006AE070E080E090E00C9482040895209135
:100DE0001109260F3327331F21323105ECF42091EE
:100DF0005A09FC0190E080E0243069F082E0089517
:100E0000A09111092191AC014F50574FA40FB52F5C
:100E1000B11D2C930196861798F380911109680FE4
:100E20006093110980E0089581E0089510925A09B5
:100E300081E0809359091092340961E084E10E94B5
:100E4000CE0361E085E10E94CE03E9EBF0E0808112
:100E50008E7F808380818D7F808388E48093B8003B
:100E600085E48093BC000895CF93DF9391E0909345
:100E7000F0088823B9F0C091B800D091BA008091F1
:100E8000BC008A7B8093BC0060E084E10E94CE03BA
:100E900060E085E10E94CE030E941607D093BA005D
:100EA000C093B800DF91CF9108950895E09194091F
:100EB00080919309E81730F4F0E0E053F74F808118
:100EC00090E008958FEF9FEF08959091940980919D
:100ED00093092FEF3FEF981748F4E92FF0E0E05324
:100EE000F74F208130E09F5F90939409C9010895E6
:100EF0008091930990919409891B990B0895CF9241
:100F0000DF92EF92FF920F931F93CF93DF937C01B9
:100F1000CB018A0120916009222389F0EB016B014A
:100F2000C40ED51ECC15DD0569F06991D701ED9190
:100F3000FC910190F081E02DC7011995F3CF642F4A
:100F40000E94EF06C801DF91CF911F910F91FF9092
:100F5000EF90DF90CF900895CF93DF931F92CDB79E
:100F6000DEB76983209160092223F9F0209191096D
:100F7000203258F021E030E0FC013383228390E0FE
:100F800080E00F90DF91CF91089580919209E82F32
:100F9000F0E0EF59F64F998190838F5F809392092B
:100FA0008093910981E090E0ECCF61E0CE01019661
:100FB0000E94EF06F7CFCF92DF92EF92FF920F934E
:100FC0001F93CF93DF93FC01C48121E0209360093C
:100FD000C093810910929209109291098385682B20
:100FE0008BE69BE00E94AC07D0919109D13208F0CA
:100FF00092C00E945D046B017C0180915A098111AD
:1010000065C082E080935A0981E0809359098FEF8F
:101010008093580910925709D0935609A1E6B9E078
:10102000E6E3F9E080E0D81385C01092350980919D
:101030003509CC0FC82BC093350980913409813014
:1010400009F07CC0109234090E945D046B017C01A0
:10105000809135098093BB0080915C0990915D0976
:10106000A0915E09B0915F09892B8A2B8B2B99F097
:101070000E945D0400915C0910915D0920915E0958
:1010800030915F096C197D098E099F0906171707B2
:1010900028073907E0F18091BC0083FDD9CF85ECAA
:1010A0008093BC000E945D046B017C0180915A0911
:1010B000823009F445C0809158098F3F61F18091D9
:1010C0005809803241F18091580925C080915C090E
:1010D00090915D09A0915E09B0915F09892B8A2BDF
:1010E0008B2B09F48ACF0E945D0400915C0910915A
:1010F0005D0920915E0930915F096C197D098E09A7
:101100009F09061717072807390708F076CF80913F
:101110005B090E9434071092920910929109109273
:101120006009DF91CF911F910F91FF90EF90DF90B9
:10113000CF9008959D9191938F5F75CF85EEB0CF3D
:1011400080915C0990915D09A0915E09B0915F0961
:10115000892B8A2B8B2B09F4A9CF0E945D04009167
:101160005C0910915D0920915E0930915F096C194D
:101170007D098E099F09061717072807390708F008
:1011800095CFC5CF90E080E008958091250A909199
:10119000260AA091270AB091280A4091B6095091D9
:1011A000B7096091B8097091B909841B950BA60B1A
:1011B000B70B8093250A9093260AA093270AB09331
:1011C000280A08950F931F93CF93DF93C3EAD2E0C9
:1011D0008E01F80180810E5F1F4F61E00E94CE03F7
:1011E000F2E00D3A1F07A9F764EF71E080E090E0AC
:1011F0000E9482048881229660E00E94CE0382E0F1
:10120000CD3AD807B9F7DF91CF911F910F9108958B
:101210000F931F93CF938C01C62F0E94DB076C2F77
:101220006460C8010E94DB076C2F6B7FC8010E94BD
:10123000DB0783EC90E00197F1F7CF911F910F91BD
:1012400008950F931F93CF93DF938C01D62FC42F54
:10125000607F642B0E94080980E1D89FB0011124AF
:101260006C2BC801DF91CF911F910F910C9408094D
:1012700040E061E084E29CE00E9421098BE39FE171
:101280000197F1F70895CF93DF93EC010E9438099D
:10129000BE0184E29CE00E94F30164EF71E080E013
:1012A00090E00E94820460ED77E080E090E00E9490
:1012B00082040E94B504685E7340810991096093BD
:1012C000180A7093190A80931A0A90931B0ADF91E7
:1012D000CF910895CF93DF93EC010E943809BE01AE
:1012E00084E29CE00E94F30160ED77E080E090E012
:1012F0000E9482040E94B504685E734081099109CE
:101300006093180A7093190A80931A0A90931B0A23
:10131000DF91CF910895CF93DF9300D000D01F923B
:101320001F92CDB7DEB798E0EDE4F2E0DE01119652
:1013300001900D929A95E1F790912C0C961708F474
:101340006FEF262F30E0220F331F41E050E04C0FAB
:101350005D1F240F351FF9016081680F606840E050
:1013600084E29CE028960FB6F894DEBF0FBECDBF96
:10137000DF91CF910C94210941E00E94210981E085
:1013800090E00895CF92DF92EF92FF920F931F9318
:10139000CF93DF93EB017B0124E0E20EF11C8B0184
:1013A0006C01C61AD70AC601800F911F0E943E2207
:1013B000F80181938F01EE15FF05A9F7CE01DF91AA
:1013C000CF911F910F91FF90EF90DF90CF900895F4
:1013D0009F92AF92BF92CF92DF92EF92FF920F93C4
:1013E0001F93CF93DF935C017B018B01D0E0C0E0C2
:1013F000F80191908F016501CC0EDD1EC6010E949F
:101400003E22981621F0692DC6010E94462221969F
:10141000C430D10569F7C701DF91CF911F910F91BA
:10142000FF90EF90DF90CF90BF90AF909F90089586
:101430000C943E22FC0180819181009711F00C9464
:10144000022260E070E0CB010895FB0101900020D2
:10145000E9F73197AF01461B570BDC01ED91FC9189
:101460000280F381E02D199461EF72E08EEC9AE036
:101470000C94250ACF93DF93682F8EEC9AE00E949C
:10148000A102EC010E94340A8C0F9D1FDF91CF91C5
:101490000895CF93DF93BC018EEC9AE00E94F30194
:1014A000EC010E94340A8C0F9D1FDF91CF910895AB
:1014B0008F929F92AF92BF92EF92FF920F931F93E2
:1014C000CF93DF93CDB7DEB7A1970FB6F894DEBF09
:1014D0000FBECDBF7C01FA01CB0119A2223008F466
:1014E0002AE08E010F5D1F4F822E912CB12CA12C72
:1014F000BF01A50194010E948222F901CA016A304C
:101500000CF5605DD8016E938D01232B242B252BC8
:1015100079F790E080E0109721F0BD01C7010E94AB
:10152000250AA1960FB6F894DEBF0FBECDBFDF919E
:10153000CF911F910F91FF90EF90BF90AF909F9030
:101540008F900895695CDECFCF92DF92EF92FF9289
:101550000F931F93CF93DF936B01770FEE08FF0874
:10156000F7FE1FC0EC01E881F9810190F081E02DC8
:101570006DE219958C0144275527BA014C195D0974
:101580006E097F092AE0CE010E94580A800F911F40
:10159000DF91CF911F910F91FF90EF90DF90CF904F
:1015A00008952AE0B701A601DF91CF911F910F9115
:1015B000FF90EF90DF90CF900C94580ACF93DF9379
:1015C000BC018EEC9AE00E94A40AEC010E94340A4D
:1015D0008C0F9D1FDF91CF910895CF93DF93AB01C7
:1015E000BC012AE08EEC9AE00E94580AEC010E94AD
:1015F000340A8C0F9D1FDF91CF910895CF93DF9315
:10160000BC018EEC9AE00E94250AEC010E94340A8B
:101610008C0F9D1FDF91CF9108950C94250A2F9276
:101620003F924F925F926F927F928F929F92AF9272
:10163000BF92CF92DF92EF92FF920F931F93CF93BF
:10164000DF9300D000D0CDB7DEB70E94B504009183
:10165000180A1091190A20911A0A30911B0A601B6E
:10166000710B820B930B683E73408105910508F462
:10167000B5C00E94B5046093180A7093190A80934C
:101680001A0A90931B0A0E94B5040091290A10912E
:101690002A0A20912B0A30912C0A601B710B820BB5
:1016A000930BC090250AD090260AE090270AF0906C
:1016B000280AC61AD70AE80AF90AC701B60128EEAD
:1016C00033E040E050E00E94822249015A01C70104
:1016D000B60120E83EEE46E350E00E948222290156
:1016E0008901C501B40120E13EE040E050E00E94E4
:1016F00082222CE3C22ED12CE12CF12CA7019601E1
:101700000E94822229833A834B835C8329803A801A
:10171000C501B401A70196010E9482226B017E835C
:101720006D830E94380964EF72E084E29CE00E94BD
:101730000D0B61E080E00E948B090A30110534F442
:1017400064E073E084E29CE00E940D0BB20184E24D
:101750009CE00E94A40A64EE77E084E29CE00E9490
:101760000D0B8AE02816310434F464E073E084E25F
:101770009CE00E940D0B69817A8184E29CE00E94CA
:10178000A40A64EE77E084E29CE00E940D0B8D8158
:101790009E810A9734F464E073E084E29CE00E9446
:1017A0000D0BB60184E29CE026960FB6F894DEBFDE
:1017B0000FBECDBFDF91CF911F910F91FF90EF90A2
:1017C000DF90CF90BF90AF909F908F907F906F9061
:1017D0005F904F903F902F900C94A40A26960FB6DE
:1017E000F894DEBF0FBECDBFDF91CF911F910F9157
:1017F000FF90EF90DF90CF90BF90AF909F908F9031
:101800007F906F905F904F903F902F900895FB01D5
:1018100044815581FC01248135812417350778F0F6
:1018200080819181009759F0FB0160817181611580
:10183000710529F00E94DF2421E0892B09F020E0C6
:10184000822F08950F931F93CF93DF938C01EB01A9
:10185000FC01808191810097E1F0688179816115B7
:101860007105A9F0428153812C813D8142175307B4
:1018700070F00E94D8248C819D81F8019583848327
:101880001D821C82DF91CF911F910F9108950E94BC
:101890005C2388819981F801918380838A819B816F
:1018A000938382838C819D8195838483198218829E
:1018B0001B821A82E5CFCF93DF93EC018881998157
:1018C000009711F00E945C23198218821D821C82ED
:1018D0001B821A82DF91CF910895FC018081918152
:1018E000009711F00C945C2308950F931F93CF93EE
:1018F000DF93EC0188819981009759F02A813B811F
:101900002617370730F081E0DF91CF911F910F91BB
:1019100008958B016F5F7F4F0E94E523009759F078
:10192000998388831B830A832C813D81232B59F75C
:10193000FC011082E8CF80E0E7CFEF92FF920F9397
:101940001F93CF93DF93EC017B01198218821B82D6
:101950001A821D821C82FB0101900020E9F7319759
:101960008F01061B170BB8010E94750C811109C06D
:10197000CE01DF91CF911F910F91FF90EF900C94CA
:101980005B0C1D830C83B70188819981DF91CF9116
:101990001F910F91FF90EF900C94D8249F92AF92DB
:1019A000BF92CF92DF92EF92FF920F931F93CF934C
:1019B000DF937C016B015A0189012417350720F45C
:1019C0008B2D5901042F182F63EF72E0C7010E947D
:1019D0009D0CD6011496CD91DC91AC16BD0650F548
:1019E0000C171D0708F4E801D601ED91FC91119741
:1019F000EC0FFD1F908010820D911C910A0D1B1D94
:101A00000115110571F0F80101900020E9F73197F7
:101A10005F01A01AB10AB501C7010E94750C8111BE
:101A200016C0C7010E945B0CD6018D919C91C80F16
:101A3000D91F9882C701DF91CF911F910F91FF901D
:101A4000EF90DF90CF90BF90AF909F900895F701F7
:101A5000B582A482B801808191810E94D824E4CF0C
:101A6000CF93DF93EC01FB01248135810E94CE0CE2
:101A7000CE01DF91CF9108952F923F924F925F92C6
:101A80006F927F928F929F92AF92BF92CF92DF928E
:101A9000EF92FF920F931F93CF93DF93CDB7DEB7F3
:101AA000C650D1400FB6F894DEBF0FBECDBF66E082
:101AB00073E08EEC9AE00E940D0B0E94340A9E01A6
:101AC0002F5F3F4F390180E091E0F9019C011192B5
:101AD00021503040E1F7230163019FE5A92E92E0F8
:101AE000B92EF12CE12C22242394F5013080F2E070
:101AF000AF0EB11C61E0832D0E94000460E0832DD5
:101B00000E94CE038FE5882E82E0982E10E000E040
:101B1000E016F10651F0F40180810E94A203892BA6
:101B200021F4F601E00FF11F20820F5F1F4FF2E05A
:101B30008F0E911C0031110559F762E0832D0E9430
:101B400000042FEFE21AF20A30E1C30ED11C80E14B
:101B5000E816F10451F646EB59E0A6E9B9E06D91BB
:101B60007C91119777FD20C012968D919C911397CF
:101B700097FD1AC0FB0104E0EE0FFF1F0A95E1F785
:101B8000E60DF71DE80FF91F2081222391F0FC01DB
:101B900014E0EE0FFF1F1A95E1F7E60DF71DE60FB3
:101BA000F71F2081222329F014964A175B07B9F604
:101BB00021E070E060E0DB011196CD0180319105FC
:101BC00009F447C0F301E80FF91F308131110BC050
:101BD000FC0134E0EE0FFF1F3A95E1F7E40DF51D2F
:101BE0003081332361F0E6E9F9E0008111810617C5
:101BF000170739F4028113810817190751F4019668
:101C0000DDCF0817190729F402811381061717077A
:101C1000B1F334964E175F0741F767E473E0CE01E6
:101C20008F5F9E4F0E949D0CCE018F5F9E4F0E9442
:101C30004309CE018F5F9E4F0E946D0C68E573E0F3
:101C40008EEC9AE00E940D0B0E94E2080E94C508EB
:101C500041C0222311F39FEF491A590AE0E16E0EA9
:101C6000711CBD01509709F0A6CF81E08093210A35
:101C70008091DE099091DF0901969093DF098093AE
:101C8000DE0963E273E0CE018F5F9E4F0E949D0CE0
:101C9000CE018F5F9E4F0E946A09CE018F5F9E4FDB
:101CA0000E946D0C8091DE099091DF0986309105CC
:101CB0004CF4880F991FFC01E555FD4F61E08081D0
:101CC0000E94CE0382E393E00E94FE0A1092130A60
:101CD0001092120ACA5FDE4F0FB6F894DEBF0FBE35
:101CE000CDBFDF91CF911F910F91FF90EF90DF90CB
:101CF000CF90BF90AF909F908F907F906F905F90AC
:101D00004F903F902F90089585ED8093BC00809177
:101D10005C0990915D09A0915E09B0915F090796F9
:101D2000A11DB11D23E0B695A795979587952A9596
:101D3000D1F72091BC0024FD03C010925A090895E8
:101D400040915C0950915D0960915E0970915F0955
:101D5000452B462B472B69F30097A105B10541F0B0
:101D60002AE22A95F1F700C00197A109B109E1CF54
:101D700080915B090C9434071F920F920FB60F925B
:101D800011240BB60F922F933F934F935F936F9352
:101D90007F938F939F93AF93BF93EF93FF9381E3D1
:101DA0009AE00E947F02FF91EF91BF91AF919F91C6
:101DB0008F917F916F915F914F913F912F910F90F4
:101DC0000BBE0F900FBE0F901F9018951F920F9291
:101DD0000FB60F9211240BB60F922F938F939F93F0
:101DE000EF93FF93E091410AF091420A8081E091E4
:101DF000470AF091480A82FD1DC0908180914A0AED
:101E00008F5F8F7320914B0A821741F0E0914A0A4D
:101E1000F0E0EF5CF54F958F80934A0AFF91EF91C8
:101E20009F918F912F910F900BBE0F900FBE0F902F
:101E30001F9018958081F2CF1F920F920FB60F92CC
:101E400011240BB60F922F933F934F935F936F9391
:101E50007F938F939F93AF93BF93EF93FF938EECFA
:101E60009AE00E947F02FF91EF91BF91AF919F9105
:101E70008F917F916F915F914F913F912F910F9033
:101E80000BBE0F900FBE0F901F9018951F920F92D0
:101E90000FB60F9211240BB60F922F938F939F932F
:101EA000EF93FF93E091DE0AF091DF0A8081E091E9
:101EB000E40AF091E50A82FD1DC090818091E70A55
:101EC0008F5F8F732091E80A821741F0E091E70A53
:101ED000F0E0E253F54F958F8093E70AFF91EF9181
:101EE0009F918F912F910F900BBE0F900FBE0F906F
:101EF0001F9018958081F2CF1F920F920FB60F920C
:101F000011242F933F938F939F93AF93BF9380910F
:101F1000850990918609A0918709B091880930912F
:101F2000840923E0230F2D3758F50196A11DB11D1B
:101F3000209384098093850990938609A09387094B
:101F4000B09388098091890990918A09A0918B09A1
:101F5000B0918C090196A11DB11D809389099093C0
:101F60008A09A0938B09B0938C09BF91AF919F917F
:101F70008F913F912F910F900FBE0F901F9018954A
:101F800026E8230F0296A11DB11DD2CF1F920F92FA
:101F90000FB60F9211240F900FBE0F901F9018953F
:101FA0001F920F920FB60F9211240BB60F922F9320
:101FB0003F934F935F936F937F938F939F93AF93D1
:101FC000BF93EF93FF938091B900887F803609F427
:101FD0004DC008F040C0883209F4A9C028F580310E
:101FE00009F49DC0C8F4882309F4FBC0883009F4C3
:101FF00096C0FF91EF91BF91AF919F918F917F918B
:102000006F915F914F913F912F910F900BBE0F9069
:102010000FBE0F901F901895883109F488C0803248
:1020200041F78093580914C0803409F49DC040F4EE
:102030008033B9F38833E9F68093580985ECB0C052
:10204000803509F485C0883509F496C0883489F64E
:102050000E94840ECECF883909F48CC038F58837B9
:1020600029F050F4883611F0803719F683E0809318
:102070005A091092330957C0883809F47BC0803957
:1020800019F0803809F0B5CF80913309803208F01B
:1020900071C0E091330981E08E0F80933309809104
:1020A000BB00F0E0ED5EF64F80833DC0803B39F031
:1020B000E0F4803A09F479C0883A09F09ACF84E0D4
:1020C00080935A091092120910921109E0918F0918
:1020D000F091900919958091110981110FC081E04B
:1020E000809311091092F10809C0803C09F4A6CF31
:1020F000883C09F4A3CF883B09F07BCFE09112091B
:1021000081E08E0F80931209F0E0EF50F74F80814D
:102110008093BB00909112098091110929C0809190
:1021200035098093BB0085EC8093BC0062CF909111
:10213000570980915609981758F5E091570981E0A1
:102140008E0F80935709F0E0EA5CF64F8081E9CF6B
:10215000E091570981E08E0F809357098091BB0071
:10216000F0E0EA5CF64F8083909157098091560920
:102170009817C8F285E8D8CFE091570981E08E0F13
:10218000809357098091BB00F0E0EA5CF64F8083B2
:102190008091590981115CCF81E08093340984EAF0
:1021A0008093BC0010925A0924CF85EC8093BC0028
:1021B00010925A0980913309803230F4E09133094A
:1021C000F0E0ED5EF64F10826091330970E0E0912F
:1021D0008D09F0918E0983E199E0199510923309E8
:1021E00008CF1092580934CF1092340A1092330A53
:1021F00088EE93E0A0E0B0E08093350A9093360A31
:10220000A093370AB093380A2BEB32E03093320AAE
:102210002093310A4DEC50E050933E0A40933D0A22
:102220004CEC50E05093400A40933F0A48EC50E099
:102230005093420A4093410A49EC50E05093440ABB
:102240004093430A4AEC50E05093460A4093450AB3
:102250004EEC50E05093480A4093470A10924A0AC5
:1022600010924B0A10924C0A10924D0A1092D10A09
:102270001092D00A8093D20A9093D30AA093D40AE2
:10228000B093D50A3093CF0A2093CE0A25EC30E0E4
:102290003093DB0A2093DA0A24EC30E03093DD0A35
:1022A0002093DC0A20EC30E03093DF0A2093DE0A32
:1022B00021EC30E03093E10A2093E00A22EC30E098
:1022C0003093E30A2093E20A26EC30E03093E50AEB
:1022D0002093E40A1092E70A1092E80A1092E90AA1
:1022E0001092EA0A10926E0B10926D0B80936F0B96
:1022F0009093700BA093710BB093720B8DEC92E0E6
:1023000090936C0B80936B0B1092270C1092260C01
:1023100089EE92E09093250C8093240C87E28093C1
:10232000280C80E180932D0C82E080932E0C10927B
:102330002F0C44EF51E060E070E04093040C5093A8
:10234000050C6093060C7093070C9AE0E5E5F2E04B
:10235000A2E1BCE001900D929A95E1F710921C0C5D
:1023600080931D0C1092220C1092230C1092910B52
:102370001092950B1092940B1092960B8FED92E0A9
:102380009093900B80938F0BEBEAFBE0108214820A
:102390001382158236968BE0E73EF807B9F783E3A0
:1023A00092E09093F20B8093F10B8FE292E0909386
:1023B000F40B8093F30B84E08093F50B8093F60B82
:1023C00087E392E09093F00B8093EF0B8AE090E02C
:1023D0009093F80B8093F70B84EF91E09093FA0BB6
:1023E0008093F90B1092FD0B1092FC0B1092EB0BEB
:1023F0001092EC0B1092ED0B1092EE0B1092FB0B67
:102400006AE673E089E89BE00E949D0C63E873E054
:1024100083E89BE00E949D0C6EE873E08DE79BE0F3
:102420000E949D0C69E973E087E79BE00C949D0C8A
:10243000CF93DF93CDB7DEB76D970FB6F894DEBFBD
:102440000FBECDBF789484B5826084BD84B58160B1
:1024500084BD85B5826085BD85B5816085BD80916F
:102460006E00816080936E001092810080918100E7
:1024700082608093810080918100816080938100DF
:10248000809180008160809380008091B1008460A1
:102490008093B1008091B00081608093B000809102
:1024A000910082608093910080919100816080937F
:1024B0009100809190008160809390008091A100B4
:1024C00082608093A1008091A10081608093A1002F
:1024D0008091A00081608093A000809121018260A2
:1024E000809321018091210181608093210180915D
:1024F000200181608093200180917A008460809324
:102500007A0080917A00826080937A0080917A00CC
:10251000816080937A0080917A00806880937A004D
:102520001092C1008EEC9AE00E94950181E39AE03E
:102530000E949501109294091092930910929209A9
:10254000109291090E9416078FED91E090939009E7
:1025500080938F0980EE91E090938E0980938D098E
:102560000E9416071092290C80912E0C823018F0D0
:1025700098E09093290C80932C0C62E370E080E04B
:1025800090E00E94820460912F0C84E29CE00E9403
:10259000DB0768EE73E080E090E00E94820460E375
:1025A00084E29CE00E9408090BE416E4C80101974C
:1025B000F1F760E384E29CE00E940809C8010197FA
:1025C000F1F760E384E29CE00E94080983E592E071
:1025D0000197F1F760E284E29CE00E9408096091B3
:1025E000290C606240E084E29CE00E94210984E0C2
:1025F00080932A0C40E06CE084E29CE00E94210978
:102600000E94380982E080932B0C40E066E084E26F
:102610009CE00E94210940E062E084E29CE00E948C
:1026200021098BE39FE10197F1F788E080932F0C5C
:1026300060E084E29CE00E94DB070E9438096FEAB8
:1026400073E084E29CE00E940D0B61E080E00E9458
:102650008B096FEB73E084E29CE00E940D0B68EE47
:1026600073E080E090E00E94820403E010E051E318
:10267000E52E5AE0F52EDD24D394F092FF0BE09284
:10268000FE0BD092160C70E060E08CE00E949A067F
:1026900060ED77E080E090E00E945D0668EC70E01D
:1026A00080E090E00E9482041092220C80911E0C27
:1026B0008430D1F08930C1F064EF71E080E090E0C7
:1026C0000E94820401501109C1F60E9438096CEE83
:1026D00073E084E29CE00E940D0B61E080E00E94C8
:1026E0008B096DEF73E01FC069E170E086E00E9426
:1026F0009A0670E060E082E40E949A0660E070E072
:10270000CB010E945D06811119C00E9438096FEC4F
:1027100073E084E29CE00E940D0B61E080E00E9487
:102720008B096EED73E084E29CE00E940D0B60ED7E
:1027300077E080E090E00E9482040CC01092220CAE
:1027400080911E0C8B3009F78091200C9091210C08
:10275000892BD9F60E94380960E174E084E29CE09C
:102760000E940D0B33EAE32E32E0F32E4DEA642E85
:1027700042E0742EF3010081F2E06F0E711C61E003
:10278000802F0E940004F7011081F2E0EF0EF11C8F
:1027900061E0812F0E94000461E0802F0E94CE033F
:1027A00068EC70E080E090E00E94820460E0802F9E
:1027B0000E94CE0361E0812F0E94CE0368EC70E09E
:1027C00080E090E00E94820460E0812F0E94CE03AE
:1027D00027EB621622E0720669F662E087E20E9449
:1027E00000040BE812E0F80180810E5F1F4F62E0E9
:1027F0000E940004F2E007391F07A9F70FE712E073
:10280000F80180810E5F1F4F62E00E940004F2E039
:102810000B381F07A9F70FE512E02FE7E22E22E0A1
:10282000F22EF80180810E5F1F4F62E00E940004CB
:10283000E016F106B1F765E27AE090E080E00E94F0
:10284000C20966EB79E084E090E00E94C2099AEB4D
:10285000E92E99E0F92E88E090E08C010F5F1F4F80
:102860000E94180A90E0F701819391937F01C801BB
:102870000E30110591F786ECE82E89E0F82E6801FC
:10288000FFEFCF1ADF0AC8010E94180A90E0F70193
:10289000819391937F0186010431110581F702ED47
:1028A000E02E09E0F02E04E110E0C8010E943E2273
:1028B000F7018083C80101960E943E22F7018183BF
:1028C000F2E0EF0EF11C0E5F1F4F0032110569F7A9
:1028D00016E9E12E19E0F12E00E210E068012FEF79
:1028E000C21AD20AC8010E94180A90E0F701918327
:1028F00080830E5F1F4FC6010E94180A90E0F70107
:1029000093838283F4E0EF0EF11C0033110531F75D
:10291000B0EEEB2EB9E0FB2E68012FEFC21AD20AFF
:10292000C8010E94180AF70181937F0186010A33CA
:10293000110591F77601FFEFEF1AFF0AC6010E9419
:10294000180A2AE3C21AD10820918D0B30918E0B00
:10295000C216D30640F42091890B30918A0B2115C1
:10296000310509F0CFC11092950925E939E0F90147
:1029700080836701FBE5EF16F104E1F687010F5F45
:102980001F4FC7010E94180A2BE5E21AF108209197
:10299000870B3091880BE216F30638F4E091830B35
:1029A000F091840B309709F0B0C110929509E5E9D8
:1029B000F9E0808378010C37110501F778013FEFCA
:1029C000E31AF30AC8010E94180A0C571109209152
:1029D000810B3091820B0217130738F4E0917D0BC5
:1029E000F0917E0B309709F093C110929509E5E9BB
:1029F000F9E0808387014DE9E416F104F9F60EE071
:102A000012E067015FEFC51AD50AC7010E94180AD4
:102A1000F80181938F017601FEEBCF16D10489F77F
:102A200080E294E00E94FE0A62E370E080E090E0C1
:102A30000E9482046CE374E08EEC9AE00E940D0B1D
:102A40006091250A7091260A8091270A9091280AA0
:102A5000A8EECA2EA3E0DA2EE12CF12CA7019601F4
:102A60000E948222CA01B9010E94ED0A62E370E06D
:102A700080E090E00E94820468E474E08EEC9AE0CA
:102A80000E940D0B6091B6097091B7098091B80949
:102A90009091B909A70196010E948222CA01B90149
:102AA0000E94ED0A62E370E080E090E00E94820400
:102AB00062E574E08EEC9AE00E940D0B06EC19E0E2
:102AC0002AEB39E03D8F2C8FEC8DFD8D619171915A
:102AD000FD8FEC8F8EEC9AE00E94A40A2C8D3D8D28
:102AE0000217130789F70E94340A62E370E080E05E
:102AF00090E00E9482046DE574E08EEC9AE00E9402
:102B00000D0B02ED19E046EC59E05A8F498FE98D23
:102B1000FA8D61917191FA8FE98F8EEC9AE00E94A3
:102B2000A40A298D3A8D0217130789F70E94340AE7
:102B300062E370E080E090E00E94820467E674E067
:102B40008EEC9AE00E940D0BF2EDEF2EF9E0FF2ED5
:102B500010E000E0F701619171917F018EEC9AE045
:102B60000E94A40A0530110531F06EE674E08EEC87
:102B70009AE00E940D0B0F5F1F4F0630110551F7B1
:102B80000E94340A62E370E080E090E00E948204D8
:102B900061E774E08EEC9AE00E940D0B06E919E003
:102BA000F801608171818EEC9AE00E94A40A6EE6C1
:102BB00074E08EEC9AE00E940D0BF8016281738143
:102BC0008EEC9AE00E94A40A6EE674E08EEC9AE025
:102BD0000E940D0B0E94340A0C5F1F4FF9E0063B68
:102BE0001F07F1F662E370E080E090E00E9482044B
:102BF00069E774E08EEC9AE00E940D0B80EE99E09C
:102C00000E94FE0A67E874E08EEC9AE00E940D0BC9
:102C100089E89BE00E94490A67E974E08EEC9AE03B
:102C20000E940D0B83E89BE00E94490A69EA74E068
:102C30008EEC9AE00E940D0B8DE79BE00E94490A02
:102C400089EB94E00E94FE0A0E9438096FEA73E063
:102C500084E29CE00E940D0B61E080E00E948B0901
:102C60006BED74E084E29CE00E940D0B84E690E042
:102C700090930D0A80930C0A90930F0A80930E0A8A
:102C80009093110A8093100A9093130A8093120A6A
:102C900090930D0280930C02E8EE2E2EE3E03E2E80
:102CA000412C512C8EEC9AE00E945F0218161906F6
:102CB0000CF018C163EF72E0CE0143960E949D0CA8
:102CC0000E941D0597FD27C08A30910521F1898357
:102CD0001A820F89188D0F5F1F4FB801CE014396DE
:102CE0000E94750C882361F32B893C898F89988D0C
:102CF000BE016F5F7F4F820F931F0E94D824188FF1
:102D00000F8BDECF2C0D3D1D32CEEE0DFF1D51CEB3
:102D1000E00FF11F6ECE64EF71E080E090E00E9462
:102D2000820467EE74E0CE0101960E949D0CBE0104
:102D30006F5F7F4FCE0143960E94070C182FCE0184
:102D400001960E946D0C112309F400C544E050E087
:102D5000BE016D5E7F4FCE0101960E94300DBE0117
:102D60006F5F7F4FCE0143960E94220CCE010196E9
:102D70000E946D0C6CE975E0CE0101960E949D0CDD
:102D8000BE016F5F7F4FCE0143960E94070C182F44
:102D9000CE0101960E946D0C112321F14AE050E012
:102DA000BE016D5E7F4FCE0101960E94300DCE01B7
:102DB00001960E941A0A9B01AC01A8EEB3E00E94A2
:102DC00054226093250A7093260A8093270A9093D1
:102DD000280ACE0101960E946D0C8CEE94E00E94B0
:102DE000FE0A7CC06EEA75E0CE0101960E949D0C41
:102DF000BE016F5F7F4FCE0143960E94070C182FD4
:102E0000CE0101960E946D0C112311F148E050E0B3
:102E1000BE016D5E7F4FCE0101960E94300DCE0146
:102E200001960E941A0A9B01AC01A8EEB3E00E9431
:102E300054226093B6097093B7098093B8099093B0
:102E4000B909CE0101960E946D0C89EF94E0C7CFBD
:102E50006EEB75E0CE0101960E949D0CBE016F5F86
:102E60007F4FCE0143960E94070C182FCE0101968A
:102E70000E946D0C112309F48AC149E050E0BE01A3
:102E80006D5E7F4FCE0101960E94300D0D811E8137
:102E9000F12CE12CE016F10690F4B701CE01019679
:102EA0000E94E101F701EE0FFF1FE654F64F21E00B
:102EB00030E0813311F030E020E0318320832FEFC8
:102EC000E21AF20A36E0E316F10421F784E095E015
:102ED0000E94FE0ACE0101960E946D0CCE0143961F
:102EE0000E946D0C8091300A823409F054C056E083
:102EF000852E52E0952E60E0E62E62E0F62E7FE70A
:102F0000C72E72E0D72E10E000E0F6018081F2E0DB
:102F1000CF0ED11C0E94A20321E0009709F420E00B
:102F2000F40121934F0198012F5F3F4F5901892BE5
:102F300009F041C5F7018081882309F43FC568EC99
:102F400070E080E090E00E948204C801880F991F21
:102F50009C012651364F790121E030E0F7013183A1
:102F600020836DE676E08EEC9AE00E940D0BB501B1
:102F70008EEC9AE00E94A40A66E776E08EEC9AE076
:102F80000E940D0BF701808191810E94DE0AF801F9
:102F9000E050FE4F108280912F0A81116AC080910B
:102FA0002E0A8111E1C687E20E94A203892B09F053
:102FB000DBC681E080932F0A10922E0A10922D0A10
:102FC0000E94B5046093290A70932A0A80932B0A01
:102FD00090932C0A1092DF091092DE091092240AB5
:102FE0001092230A1092220A1092210A1092200AAB
:102FF00003EA12E03DEAE32E32E0F32EF70180818E
:10300000F2E0EF0EF11C60E00E94CE03F801808137
:103010000E5F1F4F60E00E94CE036E147F0471F7B5
:103020000E94380969E87BE084E29CE00E94F30199
:1030300068EB7BE080E090E00E9482040E94B5048F
:10304000685E7340810991096093180A7093190AA8
:1030500080931A0A90931B0A0E940F0B6CE271E096
:1030600080E090E00E94820480912F0A882309F476
:103070007BC680912E0A811177C680912D0A81111D
:10308000A6C40E940F0B0E94B5040091290A10915A
:103090002A0A20912B0A30912C0A601B710B820B9B
:1030A000930B0091250A1091260A2091270A30914E
:1030B000280A6017710782079307C0F181E08093A7
:1030C0002E0A0E94380967E77BE084E29CE00E94B8
:1030D000F30161E080E00E948B0962E876E084E21F
:1030E0009CE00E940D0B03EA12E0F80180810E5F64
:1030F0001F4F61E00E94CE03F2E00D3A1F07A9F7CF
:1031000084E690E090930D0280930C029093130A52
:103110008093120A9093110A8093100A90930F0AD9
:1031200080930E0A90930D0A80930C0A81E080939D
:10313000FB0B0E94B5040091EB0B1091EC0B20915E
:10314000ED0B3091EE0BAB01BC01401B510B620B40
:10315000730B8091F70B9091F80BB0E0A0E084170F
:103160009507A607B70708F005C610E08091F50B94
:10317000181708F0A9C4E091F10BF091F20BE10FE0
:10318000F11D62E080810E9400041F5FEFCF6FECB1
:1031900075E0CE0101960E949D0CBE016F5F7F4FCE
:1031A000CE0143960E94070C182FCE0101960E9473
:1031B0006D0C112351F148E050E0BE016D5E7F4F70
:1031C000CE0101960E94300D0D811E81F12CE12C63
:1031D000E016F10680F4B701CE0101960E94E101EC
:1031E000F701EE0FFF1FEA53F64F082E000C990B64
:1031F000C097918380834FEFE41AF40A56E0E516F6
:10320000F10431F780E195E063CE6FED75E0CE011A
:1032100001960E949D0CBE016F5F7F4FCE014396C9
:103220000E94070C182FCE0101960E946D0C1123ED
:1032300009F471C045E050E0BE016D5E7F4FCE01E4
:103240000D960E94300D10E000E0912C812CF12CA5
:10325000E12CC988DA880C151D0508F055C0B801A5
:10326000CE010D960E94E101F80131965F018C328A
:1032700031F0F1E0CF1AD1080C151D05C1F563EF4F
:1032800072E0CE0107960E949D0C89899A89019768
:103290000817190771F5492D582DBE01635F7F4F3F
:1032A000CE0101960E94300DBE016F5F7F4FCE01AF
:1032B00007960E94220CCE0101960E946D0C26E01A
:1032C000E216F1045CF4CE0107960E941A0AF70197
:1032D000EE0FFF1FEE52F64F718360839A2C8B2CFA
:1032E0003FEFE31AF30ACE0107960E946D0C8501A9
:1032F000B0CF9801492D582DBE01635F7F4FCE019D
:1033000001960E94CE0CD0CF8BE195E00E94FE0A80
:10331000CE010D96E1CD6EEE75E0CE0101960E94D4
:103320009D0CBE016F5F7F4FCE0143960E94070C3C
:10333000182FCE0101960E946D0C112309F47BC059
:1033400046E050E0BE016D5E7F4FCE010D960E94BB
:10335000300D10E000E0D12CC12C912C812CF12CEF
:10336000E12CA988BA880A151B0508F061C0B801CC
:10337000CE010D960E94E1018C3239F041E0A41A91
:10338000B1080A151B0509F042C063EF72E0CE01D7
:1033900007960E949D0C89899A8901970817190739
:1033A000C9F5A401BE01635F7F4FCE0101960E9463
:1033B000300DBE016F5F7F4FCE0107960E94220C39
:1033C000CE0101960E946D0CF8E0EF16F104BCF4FA
:1033D000CE0107960E941A0AF701EE0FFF1FEC0DAF
:1033E000FD1DEE0FFF1FEA56F64F71836083CA94EE
:1033F000CD28D1F48FEFE81AF80AD12CC12C48015E
:103400009FEF891A990ACE0107960E946D0C0F5FF3
:103410001F4FA7CF9801A401BE01635F7F4FCE016C
:1034200001960E94CE0CC5CFCC24C394D12CE7CFFB
:1034300083E295E06BCF6CEF75E0CE0101960E94C0
:103440009D0CBE016F5F7F4FCE0143960E94070C1B
:10345000182FCE0101960E946D0C112321F148E036
:1034600050E0BE016D5E7F4FCE0101960E94300D8F
:103470000D811E810115110529F41092E0098CE2DD
:1034800095E026CD0930110510F009E010E06981C2
:103490007A81A80180EE99E00E94ED24F801E052C3
:1034A000F64F1082ECCF8F89988D892B09F484C058
:1034B0006AE375E08B899C890E94CF24892B09F0EF
:1034C0007BC065E27AE090E080E00E94E80966EB6C
:1034D00079E084E090E00E94E8099AEBE92E99E017
:1034E000F92E08E010E0F7016081F2E0EF0EF11C28
:1034F000C8010E9446220F5F1F4F0E30110599F739
:1035000086ECE82E89E0F82EF7016081F2E0EF0EFC
:10351000F11CC8010E9446220F5F1F4F04311105A4
:1035200099F7B4E1CB2ED12C86010254164F7601C7
:1035300022E0E20EF11CF801B1908F01C6010E9459
:103540003E22B81621F06B2DC6010E944622FFEFE5
:10355000CF1ADF0ACE14DF0471F720E2C216D104BD
:1035600019F706E919E0F8016081C6010E944622B8
:10357000F2E0CF0ED11CF8016281C60101970E94D2
:1035800046220C5F1F4FF0E3CF16D10461F700EE27
:1035900019E0A0E3EA2EF12CF80161918F01C70137
:1035A0000E944622FFEFEF1AFF0A2AE3E216F10417
:1035B00099F787E395E013CC6FE375E0CE010196B0
:1035C0000E949D0CBE016F5F7F4FCE0143960E940B
:1035D000070C182FCE0101960E946D0C112309F4DF
:1035E0007DCC44E050E0BE016D5E7F4FCE01019680
:1035F0000E94300DBE016F5F7F4FCE0143960E9447
:10360000220CCE0101960E946D0C60E176E0CE01A5
:1036100001960E949D0CBE016F5F7F4FCE014396C5
:103620000E94070C182FCE0101960E946D0C1123E9
:1036300061F046E050E0BE016D5E7F4FCE01019625
:103640000E94300D84E495E043CC62E276E0CE0146
:1036500001960E949D0CBE016F5F7F4FCE01439685
:103660000E94070C182FCE0101960E946D0C1123A9
:1036700061F048E050E0BE016D5E7F4FCE010196E3
:103680000E94300D81E595E023CC66E376E0CE0123
:1036900001960E949D0CBE016F5F7F4FCE01439645
:1036A0000E94070C182FCE0101960E946D0C112369
:1036B00061F046E050E0BE016D5E7F4FCE010196A5
:1036C0000E94300D80E695E003CC68E476E0CE0100
:1036D00001960E949D0CBE016F5F7F4FCE01439605
:1036E0000E94070C182FCE0101960E946D0C112329
:1036F00061F048E050E0BE016D5E7F4FCE01019663
:103700000E94300D8DE695E0E3CB6CE576E0CE01CE
:1037100001960E949D0CBE016F5F7F4FCE014396C4
:103720000E94070C182FCE0101960E946D0C1123E8
:1037300009F4D4CB47E050E0BE016D5E7F4FCE016F
:1037400001960E94300D8CE795E0C2CB8F89988D51
:10375000892B09F4C3CB0B891C896AE875E0C80181
:103760000E94CF246C01892B09F0ECC065E975E05B
:103770008EEC9AE00E940D0B6091250A7091260A4A
:103780008091270A9091280AA20191010E94822229
:10379000CA01B9010E94ED0A67EA75E08EEC9AE071
:1037A0000E940D0B6091B6097091B7098091B8091C
:1037B0009091B909A20191010E948222CA01B90126
:1037C0000E94ED0A67EB75E08EEC9AE00E940D0B0B
:1037D0000AEB19E0F801619171918F018EEC9AE08A
:1037E0000E94A40A2C8D3D8D2017310799F70E9465
:1037F000340A68EC75E08EEC9AE00E940D0B06EC42
:1038000019E0F801619171918F018EEC9AE00E94AC
:10381000A40A298D3A8D0217130799F70E94340ADA
:1038200068ED75E08EEC9AE00E940D0BF2EDEF2E44
:10383000F9E0FF2E10E000E0F701619171917F0146
:103840008EEC9AE00E94A40A0530110531F065EE75
:1038500075E08EEC9AE00E940D0B0F5F1F4F063053
:10386000110551F70E94340A67EE75E08EEC9AE07C
:103870000E940D0B06E919E0F801608171818EEC60
:103880009AE00E94A40A65EE75E08EEC9AE00E9430
:103890000D0BF801628173818EEC9AE00E94A40AFC
:1038A000F7E0CF16D10431F065EE75E08EEC9AE0CA
:1038B0000E940D0B2FEFC21AD20A0C5F1F4F38E087
:1038C000C316D104C9F60E94340A65EF75E08EEC88
:1038D0009AE00E940D0B80EE99E00E94FE0A65E0DE
:1038E00076E08EEC9AE00E940D0B89E89BE00E9446
:1038F000490A67E176E08EEC9AE00E940D0B83E8BE
:103900009BE00E94490A6BE276E08EEC9AE00E940E
:103910000D0B8DE79BE00E94490A6DE376E08EEC8B
:103920009AE00E940D0B8EE092E00E94FE0A61E593
:1039300076E08EEC9AE00E940D0B87E79BE00E94F8
:10394000490ACCCA67E676E0C8010E94CF24892BD9
:1039500009F0C4CA10922F0A10922E0A03EA12E04C
:10396000EDEAEE2EE2E0FE2EF7018081F2E0EF0EAE
:10397000F11C60E00E94CE03F80180810E5F1F4FB2
:1039800060E00E94CE036E147F0471F70E94380934
:103990006FEA73E084E29CE00E940D0B61E080E03E
:1039A0000E948B096BED74E084E29CE00E940D0B99
:1039B00084E696E014CA21E0F701208385013FEFF9
:1039C000E31AF30A0630110509F09FCAE4CA0E94FF
:1039D000B504C0901C0AD0901D0AE0901E0AF09019
:1039E0001F0A6C197D098E099F0961367A4E81057F
:1039F000910518F110922D0A0E94380964EA73E0CB
:103A000084E29CE00E940D0B0E94E2080E94C5081F
:103A100060ED77E080E090E00E9482040E94B504AF
:103A2000685E7340810991096093180A7093190ABE
:103A300080931A0A90931B0A26CB0E94B50400912A
:103A4000140A1091150A2091160A3091170A601B6A
:103A5000710B820B930B683E73408105910508F44E
:103A600012CB0E94B5046093140A7093150A8093D8
:103A7000160A9093170A0E94B50430E6C30E3AEE78
:103A8000D31EE11CF11CA7019601261B370B480B26
:103A9000590BCA01B901A20191010E948222690158
:103AA000890160E08EE00E948B090A30110534F430
:103AB00064E073E084E29CE00E940D0BB60184E2B6
:103AC0009CE00E94A40ADFCA912C8091F60B981604
:103AD00008F063C0E92CF12CE091F30BF091F40BAA
:103AE000EE0DFF1D61E080810E940004E091F30B68
:103AF000F091F40BEE0DFF1D60E080810E94CE037B
:103B000081E090E0A0E0B0E0092C04C0880F991F8C
:103B1000AA1FBB1F0A94D2F75C016C01C094D09419
:103B2000812C8091F50B881608F5082D10E0E091A6
:103B3000F10BF091F20BE00FF11F80810E94A203C4
:103B40000C5F1F4F000F111FF801E157F44F892B35
:103B500041F4808191818A299B2991838083839478
:103B6000E0CF808191818C219D21F7CFE091F30BF3
:103B7000F091F40BEE0DFF1D61E080810E94CE03F9
:103B80008091F30B9091F40BE80EF91E60E0F701C1
:103B900080810E940004939498CF0FE81BE0780185
:103BA000F701878D90A1892B31F4148E2FEF3FEF11
:103BB000368F258F11A236E0E30EF11C4BECE41694
:103BC0004BE0F40669F7D12C96E0B92E8091F50B05
:103BD000D81608F052C0C12C8D2C912C880C991C41
:103BE000C4018956944F4C012091F60BC21608F07F
:103BF00042C0F401608171810C2C02C076956795FA
:103C00000A94E2F7D29E900111242C0D311DEFE8A9
:103C1000FBE080E0458D568D2417350709F4DDC3A0
:103C20008F5F36968A30B1F760FF23C0EFE8FBE084
:103C300090E080E0448D411117C0E091EF0BF091CE
:103C4000F00BE20FF31F4081B89EF001B99EF00D1A
:103C50001124E157F44F448F368F258F10A2178E11
:103C600061E00E94C10405C0019636968A30910534
:103C700009F7C394B9CFD394A9CF80E0F801D1A0BC
:103C8000D11001C0D82E0A5F1F4FE016F10609F0CF
:103C90006FC00E94B5046093EB0B7093EC0B8093A4
:103CA000ED0B9093EE0BDD2009F464C08091B00B16
:103CB000882309F45FC08091AE0B9091AF0B019700
:103CC00009F058C01091AB0B111157C08091240A14
:103CD000882309F449C08091230A882309F444C049
:103CE0008091220A882309F43FC08091210A882309
:103CF000D9F18091200A8823B9F181E080932E0ABE
:103D00000E9438096EE072E084E29CE00E940D0B94
:103D100061E080E00E948B096AE978E084E29CE03F
:103D20000E940D0B0DEA12E0F80180810E5F1F4F1B
:103D300061E00E94CE0360167106B1F784E690E060
:103D400090930D0280930C029093130A8093120AB1
:103D50009093110A8093100A90930F0A80930E0A91
:103D600090930D0A80930C0A0E940E030C94521635
:103D70008D2D84CF1092FB0BA9CF63E976E08EECFA
:103D80009AE00E940D0B812F0E943A0AF0912D0AB1
:103D9000FB8FF111C4C061EA76E08EEC9AE00E94DC
:103DA0000D0B812F0E943A0A6AE477E08EEC9AE0CC
:103DB0000E940D0B80910E0A90910F0A0E94DE0A5C
:103DC00080910C0A90910D0A1134C9F080910E0A6D
:103DD00090910F0A123499F08091100A9091110A73
:103DE000133469F08091120A9091130A143439F057
:103DF0001A3209F06BCF80910C0290910D0284363B
:103E0000910509F063CF81E080932D0A1093300A69
:103E10000E94B50460931C0A70931D0A80931E0AC9
:103E200090931F0A10920B0A10920A0A1092F60938
:103E300080910C0A90910D0A0E94DE0A0E943809B6
:103E4000123451F1BCF41A3209F45CC0113409F097
:103E50003DCF6EEB76E084E29CE00E940D0B61E0CA
:103E600080E00E948B096AEC76E084E29CE00E948C
:103E70000D0B2CCF1334C9F1143409F027CF6CE0AB
:103E800077E084E29CE00E940D0B61E080E00E94FC
:103E90008B0967E177E0E9CF6AED76E084E29CE0A8
:103EA0000E940D0B61E080E00E948B0966EE76E0D7
:103EB00084E29CE00E940D0B1092EB091092EA093B
:103EC0001092ED091092EC091092EF091092EE0990
:103ED0001092F1091092F0091092F3091092F20970
:103EE0001092F5091092F409F1CE67EF76E084E2C2
:103EF0009CE00E940D0B61E080E00E948B096DEF59
:103F000076E0B3CF68E277E084E29CE00E940D0B9C
:103F100061E080E00E948B0964E377E0A6CF8091A6
:103F2000300A133209F02FC210922D0A823409F49C
:103F3000C0C024F58A3209F4D1C1813471F160ED39
:103F400077E080E090E00E9482040E94B504685E01
:103F50007340810991096093180A7093190A80933C
:103F60001A0A90931B0A69E778E08EEC9AE00E94A7
:103F70000D0B8091300A0E943A0AA8CE833409F4CE
:103F8000F7C08434E1F68091120A9091130A8436C6
:103F90009105A9F60E943C0DD2CF80910C0A909118
:103FA0000D0A8436910559F61AEBA12E19E0B12EAF
:103FB0000BE8E02E02E0F02E10E000E0F701808137
:103FC000F2E0EF0EF11C0E94A203CC24C394D12C8A
:103FD000892B11F0D12CC12C61E477E08EEC9AE0B2
:103FE0000E940D0BB8018EEC9AE00E94A40A69E4CD
:103FF00077E08EEC9AE00E940D0BC6010E94DE0A6B
:10400000F501819191915F018C159D0509F040C0EA
:104010000F5F1F4F0630110589F60E943809FB8D8E
:10402000FF23C1F181E08093240A8091DE09909101
:10403000DF099C012F5F3F4F3093DF092093DE099A
:1040400026303105B4F4880F991FFC01E355FD4F6C
:1040500061E080810E94CE0362E577E08EEC9AE019
:104060000E940D0B8091DE099091DF0901970E945B
:10407000DE0A68E677E084E29CE00E940D0B61E0D6
:1040800080E00E948B0910920D0A10920C0A57CF03
:104090001B8EC3CF6AE777E084E29CE00E940D0BA1
:1040A00061E080E00E948B090E94E2080E94C5083E
:1040B00046CF80910E0A90910F0A8436910509F03F
:1040C0003ECF06EC19E06AE877E08EEC9AE00E94B9
:1040D0000D0BF801819191918F010E94DE0A298DCB
:1040E0003A8D0217130779F7EAEEF9E086EF99E0C7
:1040F000A6ECB9E0419151912D913D9142175307A2
:1041000009F06DC18E179F07A9F781E08093230AFC
:104110008091DE099091DF0901969093DF098093E9
:10412000DE096CEB78E0CE0101960E949D0CCE0179
:1041300001960E946A09CE0101960E946D0C809141
:10414000DE099091DF09863091054CF4880F991FA4
:10415000FC01E555FD4F61E080810E94CE038DE9B1
:1041600097E00E94FE0A10920F0A10920E0AE7CE04
:104170008091100A9091110A8436910509F0DFCEE2
:104180006AEA77E08EEC9AE00E940D0B07E912E0F4
:1041900063EAE62E62E0F62E72EDC72E79E0D72EA6
:1041A0004801EAE0AE2EB12CF4018081F2E08F0EDE
:1041B000911C0E944004F601219131916F01B501DB
:1041C0000E946E22621B730B77FF03C0719561958D
:1041D0007109663071050CF06CC0E814F90421F720
:1041E00042EDC42E49E0D42E5AE0A52EB12CF801A0
:1041F00080810E5F1F4F0E9440044C0163EC77E00A
:104200008EEC9AE00E940D0BC401B5010E946E2253
:104210008EEC9AE00E94A40A62ED77E08EEC9AE0C0
:104220000E940D0BF601819191916F010E94DE0AAF
:10423000E016F106E1F686EE97E00E94FE0AFB8D9D
:10424000FF23C9F181E08093220A8091DE099091D9
:10425000DF0901969093DF098093DE096EE078E034
:10426000CE0101960E949D0CCE0101960E946A0922
:10427000CE0101960E946D0C8091DE099091DF09BC
:10428000863091054CF4880F991FFC01E555FD4FD0
:1042900061E080810E94CE031092110A1092100AF0
:1042A00088E198E00E94FE0A83E398E00E94FE0AFB
:1042B00046CE1B8E95CF66E278E0CE0101960E9435
:1042C0009D0CCE0101960E944309CE0101960E94E9
:1042D0006D0C0E94E2080E94C508E6CF80910C0296
:1042E00090910D028436910509F029CEE0910A0AD9
:1042F000F0910B0AEA50F64F108260EE79E086EFFB
:1043000099E00E94CF24892B79F581E08093200ADF
:104310008091DE099091DF0901969093DF098093E7
:10432000DE0961E578E0CE0101960E949D0CCE0188
:1043300001960E946A09CE0101960E946D0C80913F
:10434000DE099091DF09863091054CF4880F991FA2
:10435000FC01E555FD4F61E080810E94CE03109283
:104360000D0210920C02EBCD66E678E0CE010196CC
:104370000E949D0CCE0101960E944309CE01019638
:104380000E946D0C91CE8A3209F0A0CC1A3209F449
:104390009DCC80910A0A90910B0A833191050CF013
:1043A00095CC9C012F5F3F4F30930B0A20930A0A54
:1043B0008A50964FFC0110832A50364FF901108223
:1043C00061E080E00E948B0964E377E084E29CE096
:1043D0000E940D0B66EF79E048CD617042CC6AEA2D
:1043E00078E0C4CF87E79BE00E946D0C8DE79BE0EF
:1043F0000E946D0C83E89BE00E946D0C89E89BE0B5
:104400000C946D0C1F93FC0199278827BC01E8943C
:1044100011911032E9F3193010F01E30C8F31B323D
:1044200051F01D3249F4689406C00E942922610FA0
:10443000711D811D911D119110531A30B0F33EF47E
:1044400090958095709561957F4F8F4F9F4F1F91ED
:104450000895592F482F372F262F660F771F881F53
:10446000991F660F771F881F991F620F731F841F84
:10447000951F660F771F881F991F0895F999FECF22
:1044800092BD81BDF89A992780B50895262FF99994
:10449000FECF1FBA92BD81BD20BD0FB6F894FA9A27
:1044A000F99A0FBE019608950E945F22A59F900D74
:1044B000B49F900DA49F800D911D11240895A29F7B
:1044C000B001B39FC001A39F700D811D1124911DE8
:1044D000B29F700D811D1124911D089597FB072E29
:1044E00016F4009407D077FD09D00E94AC2207FC97
:1044F00005D03EF4909581959F4F089570956195F4
:104500007F4F0895A1E21A2EAA1BBB1BFD010DC00F
:10451000AA1FBB1FEE1FFF1FA217B307E407F50773
:1045200020F0A21BB30BE40BF50B661F771F881F4F
:10453000991F1A9469F760957095809590959B01E5
:10454000AC01BD01CF010895EE0FFF1F881F8BBF87
:104550000790F691E02D1994AA1BBB1B51E107C0EF
:10456000AA1FBB1FA617B70710F0A61BB70B881F03
:10457000991F5A95A9F780959095BC01CD01089592
:104580000F931F93CF93DF938230910510F482E055
:1045900090E0E091320CF091330C30E020E0B0E09C
:1045A000A0E0309799F42115310509F44AC0281B81
:1045B000390B24303105D8F58A819B81611571054D
:1045C00089F1FB0193838283FE0111C040815181F7
:1045D0000281138148175907E0F04817590799F4E9
:1045E000109761F012960C93129713961C933296C3
:1045F000CF01DF91CF911F910F9108950093320C5D
:104600001093330CF4CF2115310551F042175307A5
:1046100038F0A901DB019A01BD01DF01F801C1CF2A
:10462000EF01F9CF9093330C8093320CCDCFFE0184
:10463000E20FF31F8193919322503109398328832C
:10464000D7CF2091300C3091310C232B41F42091A5
:10465000490230914A023093310C2093300C209162
:104660004702309148022115310541F42DB73EB77C
:1046700040914B0250914C02241B350BE091300CC1
:10468000F091310CE217F307A0F42E1B3F0B281713
:10469000390778F0AC014E5F5F4F2417350748F0BB
:1046A0004E0F5F1F5093310C4093300C81939193C8
:1046B0009FCFF0E0E0E09CCFCF93DF930097E9F04D
:1046C000FC01329713821282A091320CB091330C0C
:1046D000ED0130E020E01097A1F420813181820FBC
:1046E000931F2091300C3091310C2817390709F0B5
:1046F00061C0F093310CE093300CDF91CF910895BD
:10470000EA01CE17DF07E8F54A815B819E0141157A
:104710005105B1F7E901FB83EA8349915991C40F2F
:10472000D51FEC17FD0761F4808191810296840FFB
:10473000951FE90199838883828193819B838A8372
:10474000F0E0E0E012968D919C9113970097B9F5F7
:104750002D913C911197CD010296820F931F2091CC
:10476000300C3091310C2817390739F6309751F554
:104770001092330C1092320CB093310CA093300C89
:10478000BCCFD383C28340815181840F951FC8174A
:10479000D90761F44E5F5F4F88819981480F591F97
:1047A000518340838A819B819383828321153105C4
:1047B00009F0B0CFF093330CE093320C9ECFFD01A3
:1047C000DC01C0CF13821282D7CF4F925F926F92DB
:1047D0007F928F929F92AF92BF92CF92DF92EF9291
:1047E000FF920F931F93CF93DF938C01009799F45F
:1047F000CB01DF91CF911F910F91FF90EF90DF9050
:10480000CF90BF90AF909F908F907F906F905F9070
:104810004F900C94C022FC01E60FF71F9C01225020
:104820003109E217F30708F4AEC0D901CD91DC914C
:104830001197C617D70720F1C530D10578F0CE0102
:1048400004978617970750F0C61BD70B2297C19382
:10485000D1936D937C93CF010E945C23C801DF91BB
:10486000CF911F910F91FF90EF90DF90CF90BF906D
:10487000AF909F908F907F906F905F904F90089532
:104880005B01AC1ABD0A4C018C0E9D1EA091320C2E
:10489000B091330C512C412CF12CE12C109731F5B7
:1048A0008091300C9091310C8815990509F05CC00D
:1048B0004616570608F058C080914702909148026A
:1048C000009741F48DB79EB740914B0250914C0236
:1048D000841B950BE817F90708F055C0F093310CCD
:1048E000E093300CF90171836083B8CF8D919C9176
:1048F000119712966C90129713967C901397A815A7
:10490000B90559F56C0142E0C40ED11CCA14DB0490
:1049100020F1AC014A195B09DA011296159780F073
:104920006282738251834083D9016D937C93E11439
:10493000F10471F0D7011396FC93EE9312978ECF8A
:1049400022968C0F9D1FF90191838083F301EFCF95
:10495000F093330CE093320C81CF4816590608F4DB
:104960002C017D01D3019ACFCB010E94C0227C0192
:10497000009749F0AE01B8010E94C624C8010E9408
:104980005C2387016BCF10E000E068CFFB01DC0106
:1049900002C001900D9241505040D8F70895FB019C
:1049A000DC018D91019080190110D9F3990B0895C4
:1049B000FB01DC0101900D920020E1F70895FB015D
:1049C000DC014150504030F08D910190801919F474
:1049D0000020B9F7881B990B0895FB01DC014150B9
:1049E000504048F001900D920020C9F701C01D927F
:1049F00041505040E0F7089511E0C1E6D1E000E0F9
:104A000006C0802FFE010E94A4222196011DC236FD
:0C4A1000D10780E00807A9F7F894FFCF59
:104A1C00010101010101010101010101640056695B
:104A2C0063746F72792120416C6C207461736B73A9
:104A3C0020646F6E6521000000000000000000087B
:104A4C00090C0D3E3F40413132334134353642374B
:104A5C003839432A3023440000340C8000000040D5
:104A6C0000140054007EFF06000100000000EF1E41
:104A7C00001F002000210022002300240025002913
:104A8C00002A002B002C002D002E002F00300002DD
:104A9C0000030004000500060007001600170018AC
:104AAC000019001A001B0036003700380039003A94
:104ABC00003B001C001D0026002800310032003392
:104ACC0000340035003C0000000000A10201022E61
:104ADC0002EE025F023D02510200000000AC077FB3
:104AEC0007C2085507780765075607000000003C09
:104AFC0004FC03CB0300000000BC090102C208F255
:104B0C00010D0A0054696D652072656D61696E69ED
:104B1C006E673A003000436865636B696E67206AA4
:104B2C0061636B20636F6E6E656374696F6E732E59
:104B3C002E2E004A61636B20636F6E6E2E204F4BDE
:104B4C0021004A61636B20636F6E6E656374696FDD
:104B5C006E73204F4B21004A61636B207365712E7D
:104B6C002077726F6E6721006A61636B20636865E2
:104B7C00636B206661696C65640047616D652053E9
:104B8C007461727465642120476F6F64206C756367
:104B9C006B210057656C6C20646F6E65210054723C
:104BAC007920616761696E210047616D65204F76E0
:104BBC006572212054696D65277320757021004B37
:104BCC006579706164204C45442047616D650049EE
:104BDC006E697469616C697A696E672E2E2E00534A
:104BEC00442043617264204572726F7221004368E5
:104BFC0065636B2053442043617264004D50332035
:104C0C00506C61796572204572726F720047616DEC
:104C1C00652077696C6C20636F6E74696E756500C6
:104C2C0054657374696E67204C4544732E2E2E00A8
:104C3C002D2D2D73617665642020436F6E66696738
:104C4C0075726174696F6E202D2D2D00436F756E1A
:104C5C0074646F776E3A200050656E616C74793AAB
:104C6C00200053776974636865733A200042757449
:104C7C00746F6E733A2000506F74733A20002C20BE
:104C8C00004A61636B733A20004B65797061642054
:104C9C00436F64653A20005374617274204D6573E0
:104CAC00736167653A2000436F7272656374204DBF
:104CBC006573736167653A200057726F6E67204D9C
:104CCC006573736167653A20006E6F7720636F6E52
:104CDC006E65637420746865204755492020636FA6
:104CEC006E666967757261746F720050726573736A
:104CFC00205354415254005345543A004F4B3A43BD
:104D0C004F554E54444F574E004F4B3A50454E4121
:104D1C004C5459004F4B3A53574954434845530050
:104D2C004F4B3A425554544F4E53004F4B3A504F01
:104D3C005453004F4B3A4A41434B53004F4B3A4B61
:104D4C004559434F4445004F4B3A53415645004D4E
:104D5C0053473A004F4B3A4D53473A5354415254F0
:104D6C00004F4B3A4D53473A434F52524543540030
:104D7C004F4B3A4D53473A57524F4E47004F4B3AD1
:104D8C004D53473A564943544F5259004F4B3A4DA5
:104D9C0053473A444546454154004745543A434FDE
:104DAC004E46494700434F4E4649473A434F554EAE
:104DBC0054444F574E3A00434F4E4649473A50459C
:104DCC004E414C54593A00434F4E4649473A53577B
:104DDC004954434845533A00434F4E4649473A429B
:104DEC005554544F4E533A00434F4E4649473A5050
:104DFC004F54533A002C00434F4E4649473A4A41D0
:104E0C00434B533A00434F4E4649473A4B4559435F
:104E1C004F44453A00434F4E4649473A4D53473A63
:104E2C0053544152543A00434F4E4649473A4D531E
:104E3C00473A434F52524543543A00434F4E46492A
:104E4C00473A4D53473A57524F4E473A00434F4E0D
:104E5C004649473A4D53473A564943544F52593AAB
:104E6C0000434F4E4649473A4D53473A4445464511
:104E7C0041543A004F4B3A524553455400427574D5
:104E8C00746F6E2020002070726573736564203A15
:104E9C00200054696D652773207570212020202017
:104EAC002020004B657920707265737365643A201D
:104EBC00004B65792070726573736564207365713E
:104ECC00206E6F74206163746976653A20005377A5
:104EDC0069746368207365712E0053657420737751
:104EEC006974636865732E2E2E00427574746F6E30
:104EFC00207365712E005072657373206275747423
:104F0C006F6E732E2E2E00506F74732E0041646AD8
:104F1C0075737420706F74732E2E2E004A61636B40
:104F2C0020636F6E6E2E00436F6E6E656374206A25
:104F3C0061636B732E2E2E004B6579706164206358
:104F4C006F646500456E74657220636F64653A200A
:104F5C000053776974636820002073746174653A38
:104F6C0020005475726E696E67206F6E2047524533
:104F7C00454E204C45442000537769746368657333
:104F8C0020636F7272656374210053776974636870
:104F9C0065732077726F6E6721002073617665648C
:104FAC0020627574746F6E207365712E0062757457
:104FBC00746F6E20726967687400436865636B690F
:104FCC006E6720706F742073657175656E63652EE6
:104FDC002E2E00706F742072656164696E67203AC2
:104FEC002000207C7C20736176656420726561648E
:104FFC00696E67203A00506F74656E74696F6D65E9
:10500C0074657220636865636B20636F6D706C658B
:10501C0074652E20616E616C7973696E6700506FD8
:10502C0074732E204F4B2100706F74207269676867
:10503C00742073657100506F74732E2077726F6ECD
:10504C00672100506F74656E74696F6D657465725D
:10505C0020636865636B20636F6D706C6574652E7F
:10506C00004B657970616420636F646520636F72B7
:10507C007265637421004B657970616420636F64A1
:10508C00652077726F6E6721004B6579207479709B
:10509C00652070726573736564207365712061633C
:1050AC00746976652076323A2000416C6C2074610C
:1050BC00736B7320646F6E652100427574746F6E30
:1050CC00207365712077726F6E672100427574745E
:1050DC006F6E2073657120636F727265637421004B
:00000001FF
