:020000040000FA
:100000000C9462010C9493010C9493010C94930151
:100010000C9493010C9493010C9493010C94930110
:100020000C9493010C940A100C940A100C940A106E
:100030000C9493010C9493010C9493010C949301F0
:100040000C9493010C9493010C9493010C949301E0
:100050000C9493010C9493010C9493010C94C00F95
:100060000C9493010C948A0F0C94600F0C949301E0
:100070000C9493010C9493010C9493010C949301B0
:100080000C9493010C9493010C9493010C949301A0
:100090000C942A0F0C94000F0C9493010C941410E0
:1000A0000C9493010C9493010C9493010C94930180
:1000B0000C9493010C9493010C9493010C94930170
:1000C0000C9493010C9493010C9493010C94930160
:1000D0000C9493010C9493010C9493010C94930150
:1000E0000C9493010C9400030C94B3020C94D02153
:1000F0000C9480030C9471050C9454070C948603A3
:100100000C9413020C944E040C948A030C94A203D6
:100110000C94E0010C94AC030C948F050C949105A5
:100120000C9463070C9475030C94B0030C94710247
:100130000C946A050C947D070C9486050C94530767
:100140000C9404020C9471030C94DF010C9438118C
:100150000C94A6030C947F050C948D050C946302FB
:100160000C94DC090C947D030C94C0080C94AA0731
:100170000C9490030C9440020C9494030C949E03F2
:100180000C9476070C94AB030C944F020C947903F7
:100190000C94DD030C946B030C940E040C949803E4
:1001A00000002100240027002A002D003000330029
:1001B00001010000040107010A01000022002500DE
:1001C00028002B002E003100340002010000050140
:1001D00008010B01000020002300260029002C004C
:1001E0002F0032000001000003010601090105058E
:1001F0000505070508080808020202020A0A08089D
:1002000004040404010101010101010103030303CA
:1002100003030303040707070C0C0C0C0C0C0C0C59
:100220000202020206060606060606060B0B0B0B6A
:100230000B0B0B0B0102102020080810204010208F
:10024000408002010201080402010102040810209A
:100250004080804020100804020180040201804098
:100260002010080402010804020101020408102001
:100270004080010204081020408000000A0B02099F
:100280000C0D0E0807030401000000000000000030
:10029000000000000000000000000000000000005E
:1002A000000000000000121110000000000000001B
:1002B000000000000000000000000000000000003E
:1002C0003811D02111241FBECFEFD1E2DEBFCDBF48
:1002D00000E00CBF2BE0AAEFB7E001C01D92AA34EA
:1002E000B207E1F717E0A0E0B2E0E8E8F9E400E0E7
:1002F0000BBF02C007900D92AA3FB107D9F711E0DA
:10030000C1E6D1E000E006C021970109802FFE017F
:100310000E946E22C036D10780E00807A9F70E942C
:100320005C120C94B2240C940000FC01A089B189E9
:1003300082E08C93A485B5851C92A685B7858FEC49
:100340008C93108EA489B58986E08C93A289B38999
:100350008C9180618C93A289B3898C9188608C93F5
:10036000A289B3898C9180688C930288F389E02DEF
:1003700080818F7D8083089596E0899FD00111242C
:10038000AB55B54F90967C936E935F9791E09196A5
:100390009C939197E091120BF091130B9091110B9C
:1003A000992339F0309751F0811108C08091C10A2A
:1003B0001994309719F05C968C91FACF08950895AE
:1003C0000895FC01248135816217730748F4808108
:1003D0009181009729F0860F971FFC018081089575
:1003E00080E00895FC01248135816217730720F4B1
:1003F00080819181009729F41092B70887EB98E0EB
:100400000895860F971F08950895DB0114964D9166
:100410005C9115976D917C91DC01ED91FC910280CE
:10042000F381E02D1994AF92BF92CF92DF92EF92B9
:10043000FF920F931F93CF93DF936C017B018B018E
:10044000040F151FEB015E01AE18BF08C017D107DE
:1004500059F06991D601ED91FC910190F081E02D68
:10046000C6011995892B79F7C501DF91CF911F91AD
:100470000F91FF90EF90DF90CF90BF90AF900895D5
:10048000FC01538D448D252F30E0842F90E0821B9A
:10049000930B541710F0CF96089501970895FC011F
:1004A000918D828D981761F0A28DAE0FBF2FB11D77
:1004B0005D968C91928D9F5F9F73928F90E00895CF
:1004C0008FEF9FEF0895FC01918D828D981731F089
:1004D000828DE80FF11D858D90E008958FEF9FEFDD
:1004E0000895FC01918D228D892F90E0805C9F4FB3
:1004F000821B91098F739927089587E499E00E94E0
:10050000710221E0892B09F420E0822F089584EE06
:1005100099E00E94710221E0892B09F420E0822FEA
:100520000895FC01A48DA80FB92FB11DA35ABF4F88
:100530002C91848D90E001968F739927848FA689E2
:10054000B7892C93A089B1898C91837080648C9336
:10055000938D848D981306C00288F389E02D8081E5
:100560008F7D80830895EF92FF920F931F93CF9317
:10057000DF93EC0181E0888F9B8D8C8D98131AC0DE
:10058000E889F989808185FF15C09FB7F894EE89C5
:10059000FF896083E889F989808183708064808322
:1005A0009FBF81E090E0DF91CF911F910F91FF906D
:1005B000EF900895F62E0B8D10E00F5F1F4F0F7315
:1005C0001127E02E8C8D8E110CC00FB607FCFACFD0
:1005D000E889F989808185FFF5CFCE010E949102DB
:1005E000F1CFEB8DEC0FFD2FF11DE35AFF4FF082A1
:1005F0009FB7F8940B8FEA89FB8980818062CFCF07
:10060000CF93DF93EC01888D8823B9F0AA89BB8949
:10061000E889F9898C9185FD03C0808186FD0DC034
:100620000FB607FCF7CF8C9185FFF2CF808185FF55
:10063000EDCFCE010E949102E9CFDF91CF910895D5
:1006400080E090E0892B29F00E94870281110E94AE
:10065000000080E090E0892B29F00E947D0281114A
:100660000E94000080E090E0892B49F080E090E05B
:10067000892B29F00E94000081110E94000080E077
:1006800090E0892B49F080E090E0892B29F00E94CE
:10069000000081110C94000008958150823108F00F
:1006A0005AC0E82FF0E08827E75AFC4F8F4F0C9490
:1006B0006E2279037D036B0371037503AB03800323
:1006C00086038A039003940398039E03A203AB035B
:1006D000A603AC03B003809180008F7780938000E5
:1006E0000895809180008F7DF9CF80918000877F71
:1006F000F5CF84B58F7784BD089584B58F7DFBCF0A
:100700008091B0008F778093B00008958091B00001
:100710008F7DF9CF809190008F778093900008951E
:10072000809190008F7DF9CF80919000877FF5CFE9
:100730008091A0008F778093A00008958091A00001
:100740008F7DF9CF8091A000877FF5CF8091200128
:100750008F77809320010895809120018F7DF9CFBC
:1007600080912001877FF5CFCF93DF93282F30E052
:10077000F901E658FD4F8491F901EC5CFD4FD491ED
:10078000F901E251FE4FC491CC23A1F081110E94E6
:100790004D03EC2FF0E0EE0FFF1FEC52FE4FA59142
:1007A000B491EC91ED2381E090E009F480E0DF91D9
:1007B000CF91089580E090E0FACF862F0C94B40397
:1007C0001F93CF93DF93282F30E0F901E658FD4FB8
:1007D0008491F901EC5CFD4FD491F901E251FE4F97
:1007E000C491CC23A9F0162F81110E944D03EC2F48
:1007F000F0E0EE0FFF1FE654FE4FA591B4918FB7C6
:10080000F894EC91111108C0D095DE23DC938FBFD2
:10081000DF91CF911F910895DE2BF8CF862F642FA3
:100820000C94E003CF93DF9390E0FC01EC5CFD4F70
:10083000249182519E4FFC0184918823C9F090E05D
:10084000880F991FFC01E056FE4FA591B491FC0161
:10085000E654FE4FC591D49161110DC09FB7F89435
:100860008C91209582238C938881282328839FBF95
:10087000DF91CF910895623051F49FB7F8943C9185
:10088000822F809583238C93E8812E2BEFCF8FB717
:10089000F894EC912E2B2C938FBFEACF862F642FE8
:1008A0000C9412043FB7F8948091B3089091B40867
:1008B000A091B508B091B60826B5A89B05C02F3FFA
:1008C00019F00196A11DB11D3FBFBA2FA92F982F76
:1008D0008827BC01CD01620F711D811D911D42E071
:1008E000660F771F881F991F4A95D1F708958F9239
:1008F0009F92AF92BF92CF92DF92EF92FF926B01E5
:100900007C010E9452044B015C01C114D104E1043A
:10091000F104B9F00E945204681979098A099B0907
:10092000683E73408105910580F321E0C21AD10829
:10093000E108F10888EE880E83E0981EA11CB11C26
:10094000E4CFFF90EF90DF90CF90BF90AF909F905B
:100950008F9008952FB7F8946091AF087091B00808
:100960008091B1089091B2082FBF08950F931F9303
:100970008091140B9091150BDC01ED91FC9100849A
:10098000F185E02D1995892B09F4D5C060E070E060
:10099000CB010E9477042091320B8091140B90912F
:1009A000150BDC01ED91FC910284F385E02D211102
:1009B0000BC0199580931E0B8E37D1F68091320BA8
:1009C0008F5F8093320BD4CF19959091320BE92F22
:1009D000F0E0EC5EF44F82879230B9F09930D9F0B4
:1009E0009130A9F48F3F99F01092320B81E08093FF
:1009F000340B1092370B1092360B8093380B1092F9
:100A0000390B80E01F910F910895863069F79F5F41
:100A10009093320BADCF8F3E39F78091200B9091A0
:100A20001F0B890F9927991FE091210B9C012E0F15
:100A3000311D8091220B820F932F911D4091230B2A
:100A400050E0840F951F2091240B30E06091250B1E
:100A500070E0762F6627F091260B6F0F711D820FC5
:100A6000931F9195819591096817790709F0BCCF7B
:100A70001092320BE13419F41092390B3DC0E0931F
:100A8000350B542F4427240F351F3093370B2093F9
:100A9000360BEA53E63108F044C0F0E08827EC5A00
:100AA000FA4F8F4F0C946E227F0586058F056A05DD
:100AB0008F0571058D0591058F058F058F058F05B4
:100AC0008F058F058F058F0591058F058F058F0584
:100AD0008F058F0585E08093340B81E08093380B80
:100AE0000BC089E020FDF7CF84E021FDF4CF237017
:100AF00033278AE0232B79F78091380B83CF87E067
:100B000020FDE9CF82E021FDE6CFF6CF88E020FD91
:100B1000E2CF83E021FDDFCFEFCF86E0DCCF8BE0BB
:100B2000DACF81E08093340B1092370B1092360BA2
:100B30008093380BA1CF8091390B8823E9F20E9472
:100B4000AA040091160B1091170B2091180B3091ED
:100B5000190B601B710B820B930B00911A0B1091F8
:100B60001B0B20911C0B30911D0B60177107820726
:100B7000930710F21092320B1092340B1092370B35
:100B80001092360B81E039CF80932B0B272F30E06A
:100B900070932D0B60932E0B40912A0B9091290B93
:100BA000490F5527551F840F952F911D40912C0BF0
:100BB000840F911D820F931F680F792F711D7195FE
:100BC0006195710970932F0B6093300B442361F092
:100BD0008091390B882341F060E070E0CB010E94E6
:100BE00077040E94B604F4CF8091140B9091150BFA
:100BF000DC01ED91FC910280F381E02D4AE050E0B0
:100C000068E27BE019950E94AA046093160B70932A
:100C1000170B8093180B9093190B80912C0B91E07C
:100C2000811101C090E09093390B811106C06AE0F8
:100C300070E080E090E00C9477040895BC0183E0BC
:100C40000C94C4050F931F93CF93DF93C82FD62F17
:100C500086E0C89FF0011124EB55F54F11A2878D56
:100C600090A181309105F1F058F082309105F1F1B9
:100C7000039709F440C0DF91CF911F910F91089520
:100C80006623C9F361E070E08C2F0E94BC010E94D2
:100C9000AA046093FD0A7093FE0A8093FF0A909362
:100CA000000BE9CF0E94AA040091FD0A1091FE0AF0
:100CB0002091FF0A3091000BAB01BC01401B510B8E
:100CC000620B730B80910F0B9091100BB0E0A0E0C2
:100CD00084179507A607B70748F462E070E08C2FE9
:100CE000DF91CF911F910F910C94BC0163E070E0F4
:100CF000D111C1CFF4CF70E060E0F1CF0F931F931B
:100D00000E94AA046093EC097093ED098093EE09A8
:100D10009093EF0984EE99E00E944F0297FF1DC067
:100D20000E94AA040091EC091091ED092091EE09AE
:100D30003091EF09601B710B820B930B0091E80956
:100D40001091E9092091EA093091EB0960177107C8
:100D500082079307F8F28FEF9FEF1F910F9108958D
:100D60008F929F92AF92BF92CF92DF92EF92FF92BB
:100D7000CF936B017C010E94AA044B015C01C1145A
:100D8000D104E104F10441F4C0901A0BD0901B0B84
:100D9000E0901C0BF0901D0B0E94B604C82F81112F
:100DA00011C00E94AA04681979098A099B09C6160C
:100DB000D706E806F90630F060E070E0CB010E944B
:100DC0007704EACF8C2FCF91FF90EF90DF90CF90F8
:100DD000BF90AF909F908F90089520913B08260F71
:100DE0003327331F21323105ECF420918408FC01B4
:100DF00090E080E0243069F082E00895A0913B0803
:100E00002191AC01455E574FA40FB52FB11D2C9316
:100E10000196861798F380913B08680F60933B0812
:100E200080E0089581E008951092840881E0809325
:100E3000830810925E0861E084E10E94E00361E0B3
:100E400085E10E94E003E9EBF0E080818E7F808302
:100E500080818D7F808388E48093B80085E48093CF
:100E6000BC000895CF93DF9391E090931A088823F4
:100E7000B9F0C091B800D091BA008091BC008A7BD3
:100E80008093BC0060E084E10E94E00360E085E1C3
:100E90000E94E0030E941407D093BA00C093B800E8
:100EA000DF91CF9108950895E091BF088091BE0829
:100EB000E81730F4F0E0E650F84F808190E00895B4
:100EC0008FEF9FEF08959091BF088091BE082FEF9C
:100ED0003FEF981748F4E92FF0E0E650F84F2081F3
:100EE00030E09F5F9093BF08C90108958091BE08CC
:100EF0009091BF08891B990B0895CF92DF92EF92D2
:100F0000FF920F931F93CF93DF937C01CB018A0154
:100F100020918A08222389F0EB016B01C40ED51EB3
:100F2000CC15DD0569F06991D701ED91FC91019037
:100F3000F081E02DC7011995F3CF642F0E94ED06D3
:100F4000C801DF91CF911F910F91FF90EF90DF903B
:100F5000CF900895CF93DF931F92CDB7DEB769830B
:100F600020918A082223F9F02091BC08203258F001
:100F700021E030E0FC013383228390E080E00F9099
:100F8000DF91CF9108958091BD08E82FF0E0E557FB
:100F9000F74F998190838F5F8093BD088093BC0841
:100FA00081E090E0ECCF61E0CE0101960E94ED0679
:100FB000F7CFCF92DF92EF92FF920F931F93CF93D1
:100FC000DF93FC01C48121E020938A08C093AB0821
:100FD0001092BD081092BC088385682B81E89AE0C6
:100FE0000E94AA07D091BC08D13208F092C00E949A
:100FF00052046B017C0180918408811165C082E0FC
:101000008093840881E0809383088FEF8093820827
:1010100010928108D0938008ABE8B8E0E0E6F8E0F1
:1010200080E0D81385C010925F0880915F08CC0FD4
:10103000C82BC0935F0880915E08813009F07CC0A6
:1010400010925E080E9452046B017C0180915F083F
:101050008093BB008091860890918708A0918808B2
:10106000B0918908892B8A2B8B2B99F00E9452040E
:10107000009186081091870820918808309189088E
:101080006C197D098E099F0906171707280739076C
:10109000E0F18091BC0083FDD9CF85EC8093BC004A
:1010A0000E9452046B017C0180918408823009F413
:1010B00045C0809182088F3F61F180918208803223
:1010C00041F18091820825C080918608909187081F
:1010D000A0918808B0918908892B8A2B8B2B09F461
:1010E0008ACF0E94520400918608109187082091AF
:1010F0008808309189086C197D098E099F090617A7
:1011000017072807390708F076CF809185080E94D5
:1011100032071092BD081092BC0810928A08DF9125
:10112000CF911F910F91FF90EF90DF90CF90089596
:101130009D9191938F5F75CF85EEB0CF809186089A
:1011400090918708A0918808B0918908892B8A2BF3
:101150008B2B09F4A9CF0E945204009186081091AC
:10116000870820918808309189086C197D098E09BB
:101170009F09061717072807390708F095CFC5CF2D
:1011800090E080E008958091400990914109A091FC
:101190004209B09143094091E0085091E108609103
:1011A000E2087091E308841B950BA60BB70B8093A4
:1011B000400990934109A0934209B09343090895CF
:1011C0000F931F93CF93DF93C1ECD2E08E01F80110
:1011D00080810E5F1F4F61E00E94E003F2E00B3C54
:1011E0001F07A9F764EF71E080E090E00E947704A8
:1011F0008881229660E00E94E00382E0CB3CD80721
:10120000B9F7DF91CF911F910F9108950F931F931D
:10121000CF938C01C62F0E94D9076C2F6460C80140
:101220000E94D9076C2F6B7FC8010E94D90783ECFD
:1012300090E00197F1F7CF911F910F9108950F93CF
:101240001F93CF93DF938C01D62FC42F607F642B25
:101250000E94060980E1D89FB00111246C2BC801BF
:10126000DF91CF911F910F910C940609CF93DF93DB
:1012700000D000D01F921F92CDB7DEB798E0E1E614
:10128000F2E0DE01119601900D929A95E1F79091AE
:10129000420B961708F46FEF262F30E0220F331F12
:1012A00041E050E04C0F5D1F240F351FF9016081B4
:1012B000680F606840E08AE39BE028960FB6F894D8
:1012C000DEBF0FBECDBFDF91CF910C941F0940E070
:1012D00061E08AE39BE00E941F098BE39FE1019795
:1012E000F1F70895CF93DF93EC010E946709BE01E7
:1012F0008AE39BE00E94050261E080E00E943609DB
:101300006DE87AE08AE39BE00E94050285E090E0C8
:101310000E941E0664EF71E080E090E00E94770476
:1013200060ED77E080E090E00E9477040E94AA04DC
:10133000685E7340810991096093180970931909D7
:1013400080931A0990931B09DF91CF910895CF9351
:10135000DF93EC010E946709BE018AE39BE00E94D3
:10136000050261E080E00E94360963E97AE08AE3E1
:101370009BE00E94050284E090E00E941E0664EF5C
:1013800071E080E090E00E94770460ED77E080E01B
:1013900090E00E9477040E94AA04685E734081096D
:1013A0009109609318097093190980931A09909311
:1013B0001B09DF91CF91089541E00E941F0981E050
:1013C00090E008950F931F93CF93DF93FC01048166
:1013D00015810115110539F4FB011082DF91CF91C0
:1013E0001F910F910895415051094017510708F47A
:1013F0008A01EB01FC0160817181A801CE010E948C
:10140000A324C00FD11F1882E9CF0C942422CF92BD
:10141000DF92EF92FF920F931F93CF93DF93EB0135
:101420007B0124E0E20EF11C8B016C01C61AD70A85
:10143000C601800F911F0E941C22F80181938F0129
:10144000EE15FF05A9F7CE01DF91CF911F910F9106
:10145000FF90EF90DF90CF9008959F92AF92BF9250
:10146000CF92DF92EF92FF920F931F93CF93DF9370
:101470005C017B018B01D0E0C0E0F80191908F010D
:101480006501CC0EDD1EC6010E941C22981621F0BB
:10149000692DC6010E9424222196C430D10569F726
:1014A000C701DF91CF911F910F91FF90EF90DF90D7
:1014B000CF90BF90AF909F9008950C941C22FB0199
:1014C00001900020E9F73197AF01461B570BDC0173
:1014D000ED91FC910280F381E02D199465E073E0B9
:1014E00084EE99E00C945F0ACF93DF93BC0184EE05
:1014F00099E00E940502EC010E946E0A8C0F9D1F6C
:10150000DF91CF9108958F929F92AF92BF92EF9209
:10151000FF920F931F93CF93DF93CDB7DEB7A197C1
:101520000FB6F894DEBF0FBECDBF7C01FA01CB0130
:1015300019A2223008F42AE08E010F5D1F4F822E7F
:10154000912CB12CA12CBF01A50194010E944C2229
:10155000F901CA016A300CF5605DD8016E938D0106
:10156000232B242B252B79F790E080E0109721F096
:10157000BD01C7010E945F0AA1960FB6F894DEBFB5
:101580000FBECDBFDF91CF911F910F91FF90EF90D4
:10159000BF90AF909F908F900895695CDECFCF92FF
:1015A000DF92EF92FF920F931F93CF93DF936B0124
:1015B000770FEE08FF08F7FE1FC0EC01E881F98104
:1015C0000190F081E02D6DE219958C01442755279B
:1015D000BA014C195D096E097F092AE0CE010E940B
:1015E000830A800F911FDF91CF911F910F91FF9080
:1015F000EF90DF90CF9008952AE0B701A601DF9128
:10160000CF911F910F91FF90EF90DF90CF900C94AE
:10161000830ACF93DF93AB01BC012AE084EE99E00B
:101620000E94830AEC010E946E0A8C0F9D1FDF91BD
:10163000CF910895CF93DF93BC0184EE99E00E948F
:101640005F0AEC010E946E0A8C0F9D1FDF91CF9103
:1016500008950C945F0A2F923F924F925F926F927F
:101660007F928F929F92AF92BF92CF92DF92EF9232
:10167000FF920F931F93CF93DF9300D000D0CDB78D
:10168000DEB70E94AA04009118091091190920914F
:101690001A0930911B09601B710B820B930B683E7A
:1016A00073408105910508F4CBC00E94AA046093A1
:1016B00018097093190980931A0990931B090E94C5
:1016C000AA0400913C0910913D0920913E093091F6
:1016D0003F09DC01CB01801B910BA20BB30BC09027
:1016E0004009D0904109E0904209F09043098C15DF
:1016F0009D05AE05BF0508F0A3C0C81AD90AEA0ABD
:10170000FB0AC701B60128EE33E040E050E00E943A
:101710004C2249015A01C701B60120E83EEE46E3DA
:1017200050E00E944C2229018901C501B40120E149
:101730003EE040E050E00E944C222CE3C22ED12C2F
:10174000E12CF12CA70196010E944C2229833A83B7
:101750004B835C8329803A80C501B401A7019601BF
:101760000E944C226B017E836D830E94670960E0BA
:1017700080E00E9436096FE97AE08AE39BE00E94EC
:10178000050260E087E00E94360968E073E08AE3C2
:101790009BE00E94290B61E080E00E9436090A303C
:1017A000110534F462E173E08AE39BE00E94290BA7
:1017B000B2018AE39BE00E94CF0A60EC75E08AE305
:1017C0009BE00E94290B8AE02816310434F462E180
:1017D00073E08AE39BE00E94290B69817A818AE3A6
:1017E0009BE00E94CF0A60EC75E08AE39BE00E94D8
:1017F000290B8D819E810A9734F462E173E08AE3BC
:101800009BE00E94290BB6018AE39BE026960FB667
:10181000F894DEBF0FBECDBFDF91CF911F910F9126
:10182000FF90EF90DF90CF90BF90AF909F908F9000
:101830007F906F905F904F903F902F900C94CF0AC5
:1018400026960FB6F894DEBF0FBECDBFDF91CF91C5
:101850001F910F91FF90EF90DF90CF90BF90AF90CE
:101860009F908F907F906F905F904F903F902F90C0
:101870000895FC0180819181009711F00C94E02182
:1018800060E070E0CB010895FB0144815581FC01CB
:10189000248135812417350778F080819181009764
:1018A00059F0FB01608171816115710529F00E9479
:1018B000952421E0892B09F020E0822F08950F93D1
:1018C0001F93CF93DF938C01EB01FC018081918109
:1018D0000097E1F06881798161157105A9F0428175
:1018E00053812C813D814217530770F00E948E2452
:1018F0008C819D81F801958384831D821C82DF91F8
:10190000CF911F910F9108950E9412238881998190
:10191000F801918380838A819B81938382838C8168
:101920009D8195838483198218821B821A82E5CF58
:10193000CF93DF93EC0188819981009711F00E9489
:101940001223198218821D821C821B821A82DF9147
:10195000CF910895FC0180819181009711F00C9442
:10196000122308950F931F93CF93DF93EC01888187
:101970009981009759F02A813B812617370730F06B
:1019800081E0DF91CF911F910F9108958B016F5FDF
:101990007F4F0E949B23009759F0998388831B8374
:1019A0000A832C813D81232B59F7FC011082E8CF5B
:1019B00080E0E7CFEF92FF920F931F93CF93DF93D7
:1019C0008C017B01EB0109900020E9F72197C61BF0
:1019D000D70BBE010E94B20C811109C0C801DF9172
:1019E000CF911F910F91FF90EF900C94980CF801FC
:1019F000D583C483B70180819181DF91CF911F91FD
:101A00000F91FF90EF900C948E24EF92FF920F9322
:101A10001F93CF93DF93EC017B01198218821B8205
:101A20001A821D821C82FB0101900020E9F7319788
:101A30008F01061B170BB8010E94B20C811109C05F
:101A4000CE01DF91CF911F910F91FF90EF900C94F9
:101A5000980C1D830C83B70188819981DF91CF9108
:101A60001F910F91FF90EF900C948E24AF92BF9234
:101A7000CF92DF92EF92FF920F931F93CF93DF935A
:101A80006C015B017A0189012417350720F48F2D41
:101A90007901042F182F67E073E0C6010E94050D3D
:101AA000D5011496CD91DC91EC16FD06E0F40C17EF
:101AB0001D0708F4E801D501ED91FC911197EC0F99
:101AC000FD1F108110826D917C916E0D7F1DC601EE
:101AD00061157105A1F00E94DA0CF50180819181F8
:101AE000C80FD91F1883C601DF91CF911F910F91A5
:101AF000FF90EF90DF90CF90BF90AF9008950E943D
:101B0000980CEBCFCF93DF93EC01FB01248135815F
:101B10000E94360DCE01DF91CF9108952F923F9212
:101B20004F925F926F927F928F929F92AF92BF92ED
:101B3000CF92DF92EF92FF920F931F93CF93DF9399
:101B4000CDB7DEB7C650D1400FB6F894DEBF0FBE9A
:101B5000CDBF9E012F5F3F4F390180E091E0F90139
:101B60009C01119221503040E1F72301630193E77A
:101B7000A92E92E0B92EF12CE12C22242394F50118
:101B80003080F2E0AF0EB11C61E0832D0E941204A0
:101B900060E0832D0E94E00383E7882E82E0982E88
:101BA00010E000E0E016F10651F0F40180810E949F
:101BB000B403892B21F4F601E00FF11F20820F5F9F
:101BC0001F4FF2E08F0E911C0031110559F762E0B2
:101BD000832D0E9412042FEFE21AF20A30E1C30EA5
:101BE000D11C80E1E816F10451F640EE58E0A0EC7B
:101BF000B8E06D917C91119777FD20C012968D9180
:101C00009C91139797FD1AC0FB0104E0EE0FFF1F94
:101C10000A95E1F7E60DF71DE80FF91F2081222351
:101C200091F0FC0114E0EE0FFF1F1A95E1F7E60DAD
:101C3000F71DE60FF71F2081222329F014964A177B
:101C40005B07B9F621E070E060E0DB011196CD01A1
:101C50008031910509F445C0F301E80FF91F308187
:101C600031110BC0FC0134E0EE0FFF1F3A95E1F794
:101C7000E40DF51D3081332361F0E0ECF8E00081E4
:101C800011810617170739F4028113810817190704
:101C900051F40196DDCF0817190729F40281138149
:101CA00006171707B1F334964E175F0741F769E23D
:101CB00073E0CE018F5F9E4F0E94050DCE018F5FB6
:101CC0009E4F0E947209CE018F5F9E4F0E94AA0C08
:101CD0000E94E00885E090E00E941E060E94C30872
:101CE0003DC0222321F39FEF491A590AE0E16E0E0D
:101CF000711CBD01509709F0A8CF81E0809338098D
:101D0000809108099091090901969093090980939F
:101D1000080964E173E0CE018F5F9E4F0E94050DBC
:101D2000CE018F5F9E4F0E94A709CE018F5F9E4F0D
:101D30000E94AA0C809108099091090986309105AA
:101D40004CF4880F991FFC01EB54FD4F61E080813A
:101D50000E94E00384E090E00E941E06CA5FDE4F0E
:101D60000FB6F894DEBF0FBECDBFDF91CF911F91AC
:101D70000F91FF90EF90DF90CF90BF90AF909F902A
:101D80008F907F906F905F904F903F902F9008952D
:101D900085ED8093BC008091860890918708A09182
:101DA0008808B09189080796A11DB11D23E0B6955A
:101DB000A795979587952A95D1F72091BC0024FD8A
:101DC00003C01092840808954091860850918708B6
:101DD0006091880870918908452B462B472B69F341
:101DE0000097A105B10541F02AE22A95F1F700C05C
:101DF0000197A109B109E1CF809185080C943207C0
:101E00001F920F920FB60F9211240BB60F922F93C1
:101E10003F934F935F936F937F938F939F93AF9372
:101E2000BF93EF93FF9387E499E00E949102FF91A3
:101E3000EF91BF91AF919F918F917F916F915F9142
:101E40004F913F912F910F900BBE0F900FBE0F90AF
:101E50001F9018951F920F920FB60F9211240BB678
:101E60000F922F938F939F93EF93FF93E0915709D6
:101E7000F09158098081E0915D09F0915E0982FD41
:101E80001DC09081809160098F5F8F7320916109DF
:101E9000821741F0E0916009F0E0E95BF64F958F21
:101EA00080936009FF91EF919F918F912F910F90F7
:101EB0000BBE0F900FBE0F901F9018958081F2CF30
:101EC0001F920F920FB60F9211240BB60F922F9301
:101ED0003F934F935F936F937F938F939F93AF93B2
:101EE000BF93EF93FF9384EE99E00E949102FF91DC
:101EF000EF91BF91AF919F918F917F916F915F9182
:101F00004F913F912F910F900BBE0F900FBE0F90EE
:101F10001F9018951F920F920FB60F9211240BB6B7
:101F20000F922F938F939F93EF93FF93E091F40978
:101F3000F091F5098081E091FA09F091FB0982FDA9
:101F40001DC090818091FD098F5F8F732091FE09E4
:101F5000821741F0E091FD09F0E0EC51F64F958FCA
:101F60008093FD09FF91EF919F918F912F910F9099
:101F70000BBE0F900FBE0F901F9018958081F2CF6F
:101F80001F920F920FB60F9211242F933F938F93AE
:101F90009F93AF93BF938091AF089091B008A091A9
:101FA000B108B091B2083091AE0823E0230F2D376D
:101FB00058F50196A11DB11D2093AE088093AF087E
:101FC0009093B008A093B108B093B2088091B30881
:101FD0009091B408A091B508B091B6080196A11DE2
:101FE000B11D8093B3089093B408A093B508B09343
:101FF000B608BF91AF919F918F913F912F910F9014
:102000000FBE0F901F90189526E8230F0296A11D72
:10201000B11DD2CF1F920F920FB60F9211240F90C5
:102020000FBE0F901F9018951F920F920FB60F9230
:1020300011240BB60F922F933F934F935F936F939F
:102040007F938F939F93AF93BF93EF93FF93809171
:10205000B900887F803609F44DC008F040C088324E
:1020600009F4A9C028F5803109F49DC0C8F488237B
:1020700009F4FBC0883009F496C0FF91EF91BF913D
:10208000AF919F918F917F916F915F914F913F9110
:102090002F910F900BBE0F900FBE0F901F901895B1
:1020A000883109F488C0803241F78093820814C0D7
:1020B000803409F49DC040F48033B9F38833E9F6E5
:1020C0008093820885ECB0C0803509F485C08835DE
:1020D00009F496C0883489F60E94C80ECECF88399C
:1020E00009F48CC038F5883729F050F4883611F09F
:1020F000803719F683E08093840810925D0857C0FA
:10210000883809F47BC0803919F0803809F0B5CFE0
:1021100080915D08803208F071C0E0915D0881E037
:102120008E0F80935D088091BB00F0E0E35CF74F79
:1021300080833DC0803B39F0E0F4803A09F479C0F7
:10214000883A09F09ACF84E08093840810923C0882
:1021500010923B08E091B808F091B9081995809168
:102160003B0881110FC081E080933B0810921B084F
:1021700009C0803C09F4A6CF883C09F4A3CF883B72
:1021800009F07BCFE0913C0881E08E0F80933C0802
:10219000F0E0E55EF74F80818093BB0090913C08B2
:1021A00080913B0829C080915F088093BB0085EC3B
:1021B0008093BC0062CF909181088091800898172D
:1021C00058F5E091810881E08E0F80938108F0E05E
:1021D000E05AF74F8081E9CFE091810881E08E0FCE
:1021E000809381088091BB00F0E0E05AF74F808334
:1021F00090918108809180089817C8F285E8D8CF1F
:10220000E091810881E08E0F809381088091BB006E
:10221000F0E0E05AF74F80838091830881115CCF12
:1022200081E080935E0884EA8093BC001092840869
:1022300024CF85EC8093BC001092840880915D08C7
:10224000803230F4E0915D08F0E0E35CF74F1082FB
:1022500060915D0870E0E091BA08F091BB088DE3F1
:1022600098E0199510925D0808CF1092820834CF3B
:1022700010924A091092490988EE93E0A0E0B0E07C
:1022800080934B0990934C09A0934D09B0934E094C
:102290002FEC32E030934809209347094DEC50E091
:1022A00050935409409353094CEC50E05093560915
:1022B0004093550948EC50E0509358094093570912
:1022C00049EC50E050935A09409359094AEC50E0C8
:1022D00050935C0940935B094EEC50E050935E09CB
:1022E00040935D0910926009109261091092620991
:1022F000109263091092E7091092E6098093E809A9
:102300009093E909A093EA09B093EB093093E509AA
:102310002093E40925EC30E03093F1092093F00993
:1023200024EC30E03093F3092093F20920EC30E004
:102330003093F5092093F40921EC30E03093F7094C
:102340002093F60922EC30E03093F9092093F80944
:1023500026EC30E03093FB092093FA091092FD0936
:102360001092FE091092FF091092000A1092840A3E
:102370001092830A8093850A9093860AA093870A15
:10238000B093880A81EE92E09093820A8093810A4A
:1023900010923D0B10923C0B8DEF92E090933B0B13
:1023A00080933A0B87E280933E0B80E18093430B4E
:1023B00082E08093440B1092450B44EF51E060E0C3
:1023C00070E040931A0B50931B0B60931C0B70939F
:1023D0001D0B9AE0E9E6F2E0A8E2BBE001900D9265
:1023E0009A95E1F71092320B8093330B1092380BD1
:1023F0001092390B1092A70A1092AB0A1092AA0AF7
:102400001092AC0A83EF92E09093A60A8093A50AFB
:10241000E1ECFAE0108214821382158236968AE08B
:10242000ED3FF807B9F787E492E09093080B8093AB
:10243000070B83E492E090930A0B8093090B84E0EE
:1024400080930B0B80930C0B8BE492E09093060B24
:102450008093050B8AE090E090930E0B80930D0B18
:1024600084EF91E09093100B80930F0B1092130B5D
:102470001092120B1092010B1092020B1092030B90
:102480001092040B1092110B67E073E08FE99AE051
:102490000E94050D61E473E089E99AE00E94050D50
:1024A0006AE573E083E99AE00E94050D65E673E052
:1024B0008DE89AE00C94050DCF93DF93CDB7DEB78E
:1024C000A0970FB6F894DEBF0FBECDBF789484B549
:1024D000826084BD84B5816084BD85B5826085BD20
:1024E00085B5816085BD80916E00816080936E00AE
:1024F00010928100809181008260809381008091A0
:102500008100816080938100809180008160809350
:1025100080008091B10084608093B1008091B00010
:1025200081608093B00080919100826080939100DF
:1025300080919100816080939100809190008160F2
:10254000809390008091A10082608093A10080918F
:10255000A10081608093A1008091A00081608093A0
:10256000A00080912101826080932101809121014E
:1025700081608093210180912001816080932001FE
:1025800080917A00846080937A0080917A008260E2
:1025900080937A0080917A00816080937A008091A4
:1025A0007A00806880937A001092C10084EE99E0EE
:1025B0000E94950187E499E00E9495011092BF085E
:1025C0001092BE081092BD081092BC080E94140719
:1025D0008FED91E09093B9088093B80880EE91E078
:1025E0009093BB088093BA080E94140710923F0B87
:1025F0008091440B823018F098E090933F0B8093C9
:10260000420B62E370E080E090E00E94770460910A
:10261000450B8AE39BE00E94D90768EE73E080E0F7
:1026200090E00E94770460E38AE39BE00E94060941
:102630000BE416E4C8010197F1F760E38AE39BE03D
:102640000E940609C8010197F1F760E38AE39BE065
:102650000E94060983E592E00197F1F760E28AE3C0
:102660009BE00E94060960913F0B606240E08AE3B4
:102670009BE00E941F0984E08093400B40E06CE0E7
:102680008AE39BE00E941F090E94670982E0809311
:10269000410B40E066E08AE39BE00E941F0940E0B6
:1026A00062E08AE39BE00E941F098BE39FE10197B0
:1026B000F1F788E08093450B60E08AE39BE00E949D
:1026C000D9070E94670960E773E08AE39BE00E94F4
:1026D000290B61E080E00E94360960E873E08AE33C
:1026E0009BE00E94290B68EE73E080E090E00E947E
:1026F000770403E010E077E4E72E79E0F72EDD249D
:10270000D394F092150BE092140BD0922C0B70E046
:1027100060E08CE00E94C40560ED77E080E090E02E
:102720000E94B00668EC70E080E090E00E947704C0
:102730001092380B8091340B8430D1F08930C1F085
:1027400064EF71E080E090E00E947704015011098D
:10275000C1F60E9467096DEA73E08AE39BE00E947C
:10276000290B61E080E00E9436096EEB73E01FC028
:1027700069E170E086E00E94C40570E060E082E4F8
:102780000E94C40560E070E0CB010E94B006811198
:1027900019C00E94670960E973E08AE39BE00E9428
:1027A000290B61E080E00E9436096FE973E08AE35B
:1027B0009BE00E94290B60ED77E080E090E00E94B2
:1027C00077040CC01092380B8091340B8B3009F7D2
:1027D0008091360B9091370B892BD9F60E946709AF
:1027E0006DEC73E08AE39BE00E94290B61ECE62E1E
:1027F00062E0F62E07EB12E0D8018C910E5F1F4FBE
:1028000061E00E941204F7018081F2E0EF0EF11CFA
:1028100061E00E94120422E0013C120769F701EC1A
:1028200012E057EB252E52E0352ED101FC90B2E09C
:102830002B0E311C61E08F2D0E94E00368EE73E0E7
:1028400080E090E00E94770460E08F2D0E94E0031A
:10285000F801F0800E5F1F4F61E08F2D0E94E003B2
:1028600068EE73E080E090E00E94770460E08F2DD6
:102870000E94E003F1EC2F16F2E03F06B1F662E0B1
:1028800087E20E9412044FE9E42E42E0F42E03E9AD
:1028900012E0D8018C910E5F1F4F62E00E9412047B
:1028A000E016F106B1F73BEAE32E32E0F32E0FE932
:1028B00012E0F80180810E5F1F4F62E00E94120457
:1028C000E016F106B1F703E712E023E9E22E22E079
:1028D000F22ED8018C910E5F1F4F62E00E9412040D
:1028E000E016F106B1F760E479E090E080E00E9444
:1028F000070A60EE78E084E090E00E94070A04EEA8
:1029000018E088E090E07C01BFEFEB1AFB0A0E9420
:102910005D0A90E0F801819391938F01C7018E3099
:10292000910589F790EFC92E98E0D92E87010F5FA6
:102930001F4FC7010E945D0A90E0D6018D939D93C1
:102940006D0178010431110589F78CEFE82E88E0DC
:10295000F82EC8010E941C22F7018083C80101964D
:102960000E941C22D70111968C93B2E0EB0EF11C51
:102970000E5F1F4F0032110561F710ECE12E18E0D9
:10298000F12E00E210E06801EFEFCE1ADE0AC80176
:102990000E945D0A90E0D7018D939C930E5F1F4FBC
:1029A000C6010E945D0A90E0F70193838283F4E000
:1029B000EF0EF11C0033110531F7BAE0EB2EB9E050
:1029C000FB2E68012FEFC21AD20AC8010E945D0ACD
:1029D000D7018D937D0186010A33110591F77601A8
:1029E000BFEFEB1AFB0AC6010E945D0A182FB60161
:1029F0006A53710989E99AE00E94F201FC0110838F
:102A00006701FBE5EF16F10451F787010F5F1F4FD8
:102A1000C7010E945D0AD82EB7016B55710983E981
:102A20009AE00E94F201DC01DC9278010C3711057A
:102A300061F77801EFEFEE1AFE0AC8010E945D0A05
:102A4000D82EB8016C5771098DE89AE00E94F20106
:102A5000DC01DC9287010D39110559F7A0E0EA2E5F
:102A6000A2E0FA2E8DE990E08C010F5F1F4F0E94CB
:102A70005D0AF70181937F01C8010E3B1105A1F7A3
:102A8000F1E2EF2EF2E0FF2E6801FFEFCF1ADF0A2E
:102A9000C8010E945D0AD7018D937D0186010F3D1B
:102AA000110591F78DED93E00E941A0B62E370E03F
:102AB00080E090E00E94770469EF73E084EE99E093
:102AC0000E94290B6091400970914109809142094F
:102AD00090914309E8EECE2EE3E0DE2EE12CF12CBE
:102AE000A70196010E944C22CA01B9010E94090B5C
:102AF00062E370E080E090E00E94770465E074E0BB
:102B000084EE99E00E94290B6091E0087091E10841
:102B10008091E2089091E308A70196010E944C225F
:102B2000CA01B9010E94090B62E370E080E090E005
:102B30000E9477046FE074E084EE99E00E94290B14
:102B400004EE18E0F801619171918F0184EE99E033
:102B50000E94CF0AF8E0003F1F07A1F70E946E0A0B
:102B600062E370E080E090E00E9477046AE174E044
:102B700084EE99E00E94290B20EF38E03A8F298FEC
:102B8000A98DBA8D6D917D91BA8FA98F84EE99E050
:102B90000E94CF0AE98DFA8DEC5FF84089F70E9418
:102BA0006E0A62E370E080E090E00E94770464E2E5
:102BB00074E084EE99E00E94290B6CEFE62E68E049
:102BC000F62E10E000E0D7016D917D917D0184EE3D
:102BD00099E00E94CF0A0530110531F06BE274E0F4
:102BE00084EE99E00E94290B0F5F1F4F06301105FC
:102BF00051F70E946E0A62E370E080E090E00E946C
:102C000077046EE274E084EE99E00E94290B50EEA6
:102C1000E52E58E0F52E00EC18E0F8016081718196
:102C200084EE99E00E94CF0A6BE274E084EE99E0B2
:102C30000E94290BD80112966D917C9184EE99E047
:102C40000E94CF0A6BE274E084EE99E00E94290BA7
:102C50000E946E0A0C5F1F4FE016F106F1F662E368
:102C600070E080E090E00E94770466E374E084EE18
:102C700099E00E94290B8AE099E00E941A0B64E413
:102C800074E084EE99E00E94290B89E99AE00E94A1
:102C9000740A64E574E084EE99E00E94290B83E9EC
:102CA0009AE00E94740A66E674E084EE99E00E945D
:102CB000290B8DE89AE00E94740A86E794E00E944E
:102CC0001A0B0E94670960E773E08AE39BE00E94A9
:102CD000290B61E080E00E94360968E974E08AE32C
:102CE0009BE00E94290B84EE99E00E947102181665
:102CF00019060CF00DC167E073E0CE0143960E9407
:102D0000050D0E947E0697FD1EC08A309105D9F000
:102D100089831A820F89188D0F5F1F4FB801CE016A
:102D200043960E94B20C882361F32B893C898F89DA
:102D3000988DBE016F5F7F4F820F931F0E948E247C
:102D4000188F0F8BDECF64EF71E080E090E00E947F
:102D5000770464EA74E0CE0101960E94050DBE017D
:102D60006F5F7F4FCE0143960E94440C182FCE0117
:102D700001960E94AA0C112309F4FDC444E050E01E
:102D8000BE016D5E7F4FCE0101960E94820DBE0195
:102D90006F5F7F4FCE0143960E945F0CCE0101967C
:102DA0000E94AA0C69E575E0CE0101960E94050D0E
:102DB000BE016F5F7F4FCE0143960E94440C182FD7
:102DC000CE0101960E94AA0C112321F14AE050E0A5
:102DD000BE016D5E7F4FCE0101960E94820DCE0135
:102DE00001960E94390C9B01AC01A8EEB3E00E9451
:102DF0003222609340097093410980934209909375
:102E00004309CE0101960E94AA0C89EA94E00E942F
:102E10001A0B7AC06BE675E0CE0101960E94050D93
:102E2000BE016F5F7F4FCE0143960E94440C182F66
:102E3000CE0101960E94AA0C112311F148E050E046
:102E4000BE016D5E7F4FCE0101960E94820DCE01C4
:102E500001960E94390C9B01AC01A8EEB3E00E94E0
:102E600032226093E0087093E1088093E208909327
:102E7000E308CE0101960E94AA0C86EB94E0C7CF2E
:102E80006BE775E0CE0101960E94050DBE016F5FF4
:102E90007F4FCE0143960E94440C182FCE0101961D
:102EA0000E94AA0C112309F42CC149E050E0BE0194
:102EB0006D5E7F4FCE0101960E94820DED80FE80F7
:102EC00010E000E00E151F0590F4B801CE01019648
:102ED0000E94E101F801EE0FFF1FEC51F74F21E0D6
:102EE00030E0813311F030E020E0318320830F5F48
:102EF0001F4F0630110531F781EC94E00E941A0B48
:102F0000CE0101960E94AA0CCE0143960E94AA0C03
:102F100080914609811172C08091450981112FC7A6
:102F200087E20E94B403892B09F029C781E08093CE
:102F3000460910924509109244090E94AA04609320
:102F40003C0970933D0980933E0990933F0910928C
:102F500009091092080910923B0910923A0910923F
:102F60003909109238091092370951ECE52E52E0D8
:102F7000F52E07EB12E0D8018C910E5F1F4F60E039
:102F80000E94E003F7018081F2E0EF0EF11C60E0A7
:102F90000E94E0032016310671F70E94670969E973
:102FA0007AE08AE39BE00E9405020E94B60488232F
:102FB00021F081E090E00E941E0668EB7BE080E05B
:102FC00090E00E9477040E94AA04685E7340810921
:102FD0009109609318097093190980931A099093C5
:102FE0001B090E942B0B6CE271E080E090E00E94D4
:102FF000770480914609882309F4C1C68091450968
:103000008111BDC680914409882309F4EBC40E9454
:103010002B0B81E0809342020E94AA0400913C099C
:1030200010913D0920913E0930913F09601B710BC1
:10303000820B930B009140091091410920914209A4
:1030400030914309601771078207930748F181E0C7
:10305000809345090E94670961E272E08AE39BE080
:103060000E94290B61E080E00E94360967E376E068
:103070008AE39BE00E94290B83E090E00E941E06F9
:103080003BECE32E32E0F32E01EC12E0D8018C9100
:103090000E5F1F4F61E00E94E003E016F106B1F7FA
:1030A00081E08093110B0E94AA040091010B109102
:1030B000020B2091030B3091040BAB01BC01401BB0
:1030C000510B620B730B80910D0B90910E0BB0E0C6
:1030D000A0E084179507A607B70708F056C610E0CA
:1030E00080910B0B181708F007C5E091070BF091C2
:1030F000080BE10FF11D62E080810E9412041F5F46
:10310000EFCF6CE875E0CE0101960E94050DBE017F
:103110006F5F7F4FCE0143960E94440C182FCE0163
:1031200001960E94AA0C112341F148E050E0BE0133
:103130006D5E7F4FCE0101960E94820DED80FE8074
:1031400010E000E00E151F0580F4B801CE010196D5
:103150000E94E101F801EE0FFF1FE051F74F082E2A
:10316000000C990BC097918380830F5F1F4F06302F
:10317000110541F78DEC94E0C1CE6CE975E0CE010C
:1031800001960E94050DBE016F5F7F4FCE014396F1
:103190000E94440C182FCE0101960E94AA0C112304
:1031A00009F471C045E050E0BE016D5E7F4FCE0175
:1031B0000D960E94820D10E000E0912C812CF12CE4
:1031C000E12CC988DA880C151D0508F055C0B80136
:1031D000CE010D960E94E101F80131965F018C321B
:1031E00031F0F1E0CF1AD1080C151D05C1F567E0EB
:1031F00073E0CE0107960E94050D89899A8901978F
:103200000817190771F5492D582DBE01635F7F4FCF
:10321000CE0101960E94820DBE016F5F7F4FCE01ED
:1032200007960E945F0CCE0101960E94AA0C26E030
:10323000E216F1045CF4CE0107960E94390CF70106
:10324000EE0FFF1FE450F74F718360839A2C8B2C95
:103250003FEFE31AF30ACE0107960E94AA0C8501FC
:10326000B0CF9801492D582DBE01635F7F4FCE012D
:1032700001960E94360DD0CF88ED94E00E941A0B83
:10328000CE010D963FCE6BEA75E0CE0101960E940D
:10329000050DBE016F5F7F4FCE0143960E94440C27
:1032A000182FCE0101960E94AA0C112309F47BC0AD
:1032B00046E050E0BE016D5E7F4FCE010D960E944C
:1032C000820D10E000E0D12CC12C912C812CF12C2E
:1032D000E12CA988BA880A151B0508F061C0B8015D
:1032E000CE010D960E94E1018C3239F041E0A41A22
:1032F000B1080A151B0509F042C067E073E0CE0172
:1033000007960E94050D89899A8901970817190760
:10331000C9F5A401BE01635F7F4FCE0101960E94F3
:10332000820DBE016F5F7F4FCE0107960E945F0C3A
:10333000CE0101960E94AA0CF8E0EF16F104BCF44D
:10334000CE0107960E94390CF701EE0FFF1FEC0D1E
:10335000FD1DEE0FFF1FE054F74F71836083CA9489
:10336000CD28D1F48FEFE81AF80AD12CC12C4801EE
:103370009FEF891A990ACE0107960E94AA0C0F5F47
:103380001F4FA7CF9801A401BE01635F7F4FCE01FD
:1033900001960E94360DC5CFCC24C394D12CE7CF23
:1033A00080EE94E06BCF69EB75E0CE0101960E9450
:1033B000050DBE016F5F7F4FCE0143960E94440C06
:1033C000182FCE0101960E94AA0C1123A1F048E00B
:1033D00050E0BE016D5E7F4FCE0101960E94820DCE
:1033E0004AE050E06AE079E0CE0101960E94E209ED
:1033F00089EE94E083CD8F89988D892B09F4E1C003
:1034000067EF74E08B899C890E9485247C01892B5D
:1034100009F0D7C060E479E090E080E00E942D0AD6
:1034200060EE78E084E090E00E942D0A04EE18E05F
:1034300088E090E0D8016C910E5F1F4F6C01BFEFE8
:10344000CB1ADB0A0E94050AC6018E30910591F75E
:10345000A0EFAA2EA8E0BA2EF5016081F2E0AF0E2F
:10346000B11C86010F5F1F4FC6010E94050A68014B
:103470000431110589F7A8014851574F6A015801D5
:1034800052E0A50EB11CD6019D906D01C8010E94AD
:103490001C22981621F0692DC8010E9424220F5F7A
:1034A0001F4FA016B10679F70032110521F7F0EC95
:1034B000CF2EF8E0DF2E5801BFEFAB1ABB0AF601A2
:1034C0006081C8010E94050A0E5F1F4FD601129647
:1034D0006C91C5010E94050AB4E0CB0ED11C0033EB
:1034E000110549F7EAE0CE2EE9E0DE2EF601619102
:1034F0006F015801FFEFAF1ABF0AC8010E94050A09
:1035000085010A33110591F710E000E0B80189E95F
:103510009AE00E94F201DC016C91C801CA960E94F7
:10352000050A0F5F1F4F0132110581F710E000E01F
:10353000B80183E99AE00E94F201FC016081C801B0
:10354000855A9F4F0E94050A0F5F1F4F01321105D8
:1035500079F7B7018DE89AE00E94F201DC016C91E5
:10356000C70184589F4F0E94050ABFEFEB1AFB0A60
:10357000E1E2EE16F10469F700E012E08DE990E077
:10358000D8016D918D016C01BFEFCB1ADB0A0E944F
:10359000050AC6018E3B910599F701E212E0F80198
:1035A00061918F017601FFEFEF1AFF0AC6010E94B9
:1035B000050A67012FEDE216F10489F784EF94E024
:1035C00026CC6CEF74E0CE0101960E94050DBE0181
:1035D0006F5F7F4FCE0143960E94440C182FCE019F
:1035E00001960E94AA0C112309F48ECC44E050E00D
:1035F000BE016D5E7F4FCE0101960E94820DBE011D
:103600006F5F7F4FCE0143960E945F0CCE01019603
:103610000E94AA0C6DEC75E0CE0101960E94050D8A
:10362000BE016F5F7F4FCE0143960E94440C182F5E
:10363000CE0101960E94AA0C112361F046E050E0F1
:10364000BE016D5E7F4FCE0101960E94820D81E02A
:1036500095E054CC6FED75E0CE0101960E94050D0A
:10366000BE016F5F7F4FCE0143960E94440C182F1E
:10367000CE0101960E94AA0C112361F048E050E0AF
:10368000BE016D5E7F4FCE0101960E94820D8EE0DD
:1036900095E034CC63EF75E0CE0101960E94050DF4
:1036A000BE016F5F7F4FCE0143960E94440C182FDE
:1036B000CE0101960E94AA0C112361F046E050E071
:1036C000BE016D5E7F4FCE0101960E94820D8DE19D
:1036D00095E014CC65E076E0CE0101960E94050DE0
:1036E000BE016F5F7F4FCE0143960E94440C182F9E
:1036F000CE0101960E94AA0C1123A1F048E050E0EF
:10370000BE016D5E7F4FCE0101960E94820D41E2A7
:1037100050E060E072E0CE0101960E94E2098AE288
:1037200095E0ECCB69E176E0CE0101960E94050DB3
:10373000BE016F5F7F4FCE0143960E94440C182F4D
:10374000CE0101960E94AA0C112309F4DDCB47E0BB
:1037500050E0BE016D5E7F4FCE0101960E94820D4A
:1037600041E250E061E272E0CE0101960E94E2097E
:1037700089E395E0C3CB8F89988D892B09F4C4CB5D
:103780000B891C8967E475E0C8010E9485246C01DF
:10379000892B09F0EEC062E575E084EE99E00E94A5
:1037A000290B6091400970914109809142099091E3
:1037B000430928EE33E040E050E00E944C22CA0169
:1037C000B9010E94090B64E675E084EE99E00E945D
:1037D000290B6091E0087091E1088091E2089091D6
:1037E000E30828EE33E040E050E00E944C22CA019A
:1037F000B9010E94090B64E775E084EE99E00E942C
:10380000290B04EE18E0D8016D917D918D0184EEB5
:1038100099E00E94CF0AB8E0003F1B07A1F70E9481
:103820006E0A65E875E084EE99E00E94290B00EFCE
:1038300018E0F801619171918F0184EE99E00E9486
:10384000CF0A298D3A8D2017310799F70E946E0A09
:1038500065E975E084EE99E00E94290B7CEFE72E84
:1038600078E0F72E10E000E0D7016D917D917D01A9
:1038700084EE99E00E94CF0A0530110531F062EA2A
:1038800075E084EE99E00E94290B0F5F1F4F063010
:10389000110551F70E946E0A64EA75E084EE99E022
:1038A0000E94290B00EC18E0F8016081718184EE20
:1038B00099E00E94CF0A62EA75E084EE99E00E94E6
:1038C000290BD80112966D917C9184EE99E00E94AB
:1038D000CF0AB7E0CB16D10431F062EA75E084EE8E
:1038E00099E00E94290BEFEFCE1ADE0A0C5F1F4F02
:1038F000F8E0CF16D104C1F60E946E0A62EB75E0C3
:1039000084EE99E00E94290B8AE099E00E941A0B4C
:1039100062EC75E084EE99E00E94290B89E99AE057
:103920000E94740A64ED75E084EE99E00E94290B10
:1039300083E99AE00E94740A68EE75E084EE99E0EB
:103940000E94290B8DE89AE00E94740A6AEF75E0E4
:1039500084EE99E00E94290B80E092E00E941A0B0D
:103960006EE076E084EE99E00E94290B81E292E01D
:103970004ECA64E276E0C8010E948524892B09F0D2
:10398000C3CA109246091092450961ECE62E62E026
:10399000F62E07EB12E0D8018C910E5F1F4F60E00E
:1039A0000E94E003F7018081F2E0EF0EF11C60E07D
:1039B0000E94E0032016310671F70E94670960E754
:1039C00073E08AE39BE00E94290B61E080E00E94A3
:1039D000360968E974E08AE39BE00E94290B81E2E2
:1039E00096E015CA80914202882309F415CB0E9403
:1039F00067096AE276E08AE39BE00E94290B61E0B6
:103A000080E00E943609C0904009D0904109E090C2
:103A10004209F0904309C701B60128EE33E040E0C7
:103A200050E00E944C2249015A01C701B60120E82A
:103A30003EEE46E350E00E944C222901C501B4014C
:103A400020E13EE040E050E00E944C224CE3C42ED6
:103A5000D12CE12CF12CA70196010E944C222B8F36
:103A60003C8F4D8F5E8F2B8D3C8D38A32F8FC501E2
:103A7000B401A70196010E944C226B018B013AE030
:103A80004316510434F462E173E08AE39BE00E9440
:103A9000290BB2018AE39BE00E94CF0A60EC75E03B
:103AA0008AE39BE00E94290B4F8D58A14A305105B3
:103AB00034F462E173E08AE39BE00E94290B6B8D92
:103AC0007C8D8AE39BE00E94CF0A60EC75E08AE37C
:103AD0009BE00E94290B0A30110534F462E173E087
:103AE0008AE39BE00E94290BB6018AE39BE00E94D7
:103AF000CF0A1092420290CA912C80910C0B98161A
:103B000008F063C0E92CF12CE091090BF0910A0B4D
:103B1000EE0DFF1D61E080810E941204E091090B0F
:103B2000F0910A0BEE0DFF1D60E080810E94E00322
:103B300081E090E0A0E0B0E0092C04C0880F991F5C
:103B4000AA1FBB1F0A94D2F75C016C01C094D094E9
:103B5000812C80910B0B881608F5082D10E0E09160
:103B6000070BF091080BE00FF11F80810E94B40356
:103B70000C5F1F4F000F111FF801EB55F54F892BFC
:103B800041F4808191818A299B2991838083839448
:103B9000E0CF808191818C219D21F7CFE091090BAD
:103BA000F0910A0BEE0DFF1D61E080810E94E003A1
:103BB0008091090B90910A0BE80EF91E60E0F70165
:103BC00080810E941204939498CFB5EAEB2EBAE05C
:103BD000FB2E81EE9AE06701D6015F962D913C9114
:103BE0009097232B59F45C961C925C97EFEFFFEFB4
:103BF0005E96FC93EE935D9791961C92F6E0CF0E45
:103C0000D11C8C159D0541F7B12CA6E09A2E809110
:103C10000B0BB81608F050C0A12C0B2D10E0000FB4
:103C2000111F0355154F20910C0BA21608F042C02E
:103C3000D8016D917C910A2C02C0769567950A9403
:103C4000E2F7B29E900111242A0D311DE5EAFAE057
:103C500080E0458D568D2417350709F49CC38F5F8E
:103C600036968A30B1F760FF23C0E5EAFAE090E0CB
:103C700080E0448D411117C0E091050BF091060BD7
:103C8000E20FF31F4081989EF001999EF00D1124E0
:103C9000EB55F54F448F368F258F10A2178E61E0BC
:103CA0000E94220605C0019636968A30910509F7D2
:103CB000A394B9CFB394ABCF80E0F70111A1111158
:103CC00001C0182FF6E0EF0EF11CCE14DF0409F04E
:103CD0005AC00E94AA046093010B7093020B809358
:103CE000030B9093040B112309F44FC08091C60A73
:103CF000882309F44AC08091C40A9091C50A0197AB
:103D000009F043C01091C10A111142C080913B09D2
:103D10008823A9F180913A09882389F18091390992
:103D2000882369F180913809882349F18091370906
:103D3000882329F181E0809345090E94670960E0AA
:103D400072E08AE39BE00E94290B61E080E00E9420
:103D500036096BE977E08AE39BE00E94290B82E059
:103D600090E00E941E0607EB12E0F80180810E5FD2
:103D70001F4F61E00E94E00320163106B1F70E9458
:103D800020030C947316812F98CF1092110BBECF85
:103D9000909044099110BDC08FEB810F843018F0D2
:103DA0001A3209F0B3CF81E08093440910933609A9
:103DB0000E94AA04609332097093330980933409F6
:103DC00090933509109231091092300910921C0914
:103DD0000E946709123409F453C07CF41A3209F4C2
:103DE00085C0113451F10E94B604882309F48ECFA6
:103DF00086E090E00E941E0689CF133409F463C068
:103E0000143489F763EB76E08AE39BE00E94290B88
:103E100061E080E00E94360964EC76E08AE39BE092
:103E20000E94290B65ED76E08FE99AE00E94DA0C9A
:103E300088E592E0A0E0B0E03DC062E476E08AE38D
:103E40009BE00E94290B61E080E00E94360962E558
:103E500076E08AE39BE00E94290B62E676E08FE938
:103E60009AE00E94DA0C20E737E140E050E020932E
:103E70004009309341094093420950934309B3CF1D
:103E800069E676E08AE39BE00E94290B61E080E02E
:103E90000E94360969E776E08AE39BE00E94290BDD
:103EA0006AE876E08FE99AE00E94DA0C80E797E111
:103EB000A0E0B0E08093400990934109A0934209AB
:103EC000B093430990CF61E976E08AE39BE00E94DA
:103ED000290B61E080E00E94360960EA76E08AE31F
:103EE0009BE00E94290B6FEA76E0B9CF6AED76E09D
:103EF0008AE39BE00E94290B61E080E00E94360982
:103F000066EE76E08AE39BE00E94290B63EF76E0A1
:103F1000A6CF0E94AA04C0903209D0903309E09045
:103F20003409F09035096C197D098E099F096136B5
:103F30007A4E8105910528F1109244090E94670983
:103F400060E080E00E94360967E376E08AE39BE068
:103F50000E94290B61E080E00E9436096DE87AE05A
:103F60008AE39BE00E9405020E94E0080E94B604DA
:103F7000882321F085E090E00E941E060E94C3087D
:103F800057C00E94AA0440901409509015096090EF
:103F90001609709017096419750986099709683E12
:103FA000734081059105A0F10E94AA046093140951
:103FB0007093150980931609909317090E94AA041B
:103FC00050E6C50E5AEED51EE11CF11CA701960164
:103FD000261B370B480B590BCA01B90128EE33E0F9
:103FE00040E050E00E944C22290160E08EE00E94F7
:103FF00036093AE04316510434F462E173E08AE38F
:104000009BE00E94290BB2018AE39BE00E94CF0A49
:1040100080913609133209F090C11092440982341C
:1040200009F4D8C0D4F48A3209F43BC18134E9F0F0
:1040300060ED77E080E090E00E9477040E94AA049F
:10404000685E73408109910960931809709319099A
:1040500080931A0990931B0959CE833409F4DFC069
:10406000843431F70E948E0DE3CF8AEF96E00E94F0
:104070001A0B74EEE72E78E0F72EE3E9CE2EE2E09D
:10408000DE2E10E000E0D6018C91B2E0CB0ED11C08
:104090000E94B403AA24A394B12C892B11F0B12C53
:1040A000A12C66E177E084EE99E00E94290BB8012B
:1040B00084EE99E00E94CF0A6EE177E084EE99E009
:1040C0000E94290BB50184EE99E00E94CF0A67E2B5
:1040D00077E084EE99E00E94290BF70160817181FD
:1040E00084EE99E00E94CF0A0E946E0AD7018D915A
:1040F0009C91A816B90609F04EC00F5F1F4FB2E0A1
:10410000EB0EF11C0630110509F0BDCF0E946709C6
:10411000992009F442C081E080933B09809108090D
:10412000909109099C012F5F3F4F3093090920931B
:10413000080926303105DCF4880F991FFC01E95489
:10414000FD4F61E080810E94E0036BE377E084EE45
:1041500099E00E94290B609108097091090961504A
:10416000710984EE99E00E94CF0A0E946E0A61E50F
:1041700077E08AE39BE00E94290B61E080E00E94E7
:1041800036090E94B604882309F452CF84E090E0F7
:104190000E941E064DCF912CB9CF63E677E08AE3EB
:1041A0009BE00E94290B61E080E00E943609DCCE92
:1041B00006301105C9F481E080933A09809108091D
:1041C00090910909019690930909809308096BEA77
:1041D00077E084C030EFE32E38E0F32E4FE9C42EB1
:1041E00042E0D42E10E000E0F6018081F2E0CF0E34
:1041F000D11C0E94B403D7014D915D917D010F5FE9
:104200001F4F21E0892B09F020E081E04017510782
:1042100009F080E0281761F26FEB77E07FC0EBEAEE
:10422000F2E027EB32E0ACEFB8E0808132968633E3
:1042300008F0865340917B00982F9870477F942B0D
:1042400090937B008770806480937C0080917A00DB
:10425000806480937A0080917A0086FDFCCF809103
:104260007800909179004D915D91841B950B97FF9B
:1042700003C0919581959109C3970CF08EC02E17BC
:104280003F0799F681E08093390980910809909160
:1042900009090196909309098093080961ED77E077
:1042A0001DC0E0913009F0913109E45EF64F1082B3
:1042B0006AE079E08CE199E00E948524892B61F520
:1042C00081E080933709809108099091090901964E
:1042D000909309098093080963E777E0CE0101967E
:1042E0000E94050DCE0101960E94A709CE010196FC
:1042F0000E94AA0C809108099091090986309105C5
:104300000CF044CF880F991FFC01EB54FD4F61E086
:1043100080810E94E0033ACF68E877E0CE01019601
:104320000E94050DCE0101960E947209CE010196F0
:104330000E94AA0C0E94E0081DCE8A3209F0E6CC49
:104340001A3209F4E3CC809130099091310983311C
:1043500091050CF0DBCC9C012F5F3F4F309331096E
:1043600020933009845E964FFC011083245E364F03
:10437000D9011C9261E080E00E94360966EE76E089
:104380008AE39BE00E94290B6CE179E08AE39BE0E1
:104390000E94290BBBCC617083CC64EE77E0BECF6A
:1043A0008DE89AE00E94AA0C83E99AE00E94AA0C88
:1043B00089E99AE00E94AA0C8FE99AE00C94AA0C71
:1043C0001F93FC0199278827BC01E89411911032B2
:1043D000E9F3193010F01E30C8F31B3251F01D32D2
:1043E00049F4689406C00E940722610F711D811D67
:1043F000911D119110531A30B0F33EF490958095B1
:10440000709561957F4F8F4F9F4F1F910895592F42
:10441000482F372F262F660F771F881F991F660F8B
:10442000771F881F991F620F731F841F951F660FC8
:10443000771F881F991F0895F999FECF92BD81BDFE
:10444000F89A992780B50895262FF999FECF1FBABB
:1044500092BD81BD20BD0FB6F894FA9AF99A0FBEAD
:10446000019608950E943D22A59F900DB49F900D46
:10447000A49F800D911D11240895A29FB001B39FA8
:10448000C001A39F700D811D1124911DB29F700D5D
:10449000811D1124911D0895A1E21A2EAA1BBB1B98
:1044A000FD010DC0AA1FBB1FEE1FFF1FA217B30700
:1044B000E407F50720F0A21BB30BE40BF50B661F16
:1044C000771F881F991F1A9469F7609570958095DA
:1044D00090959B01AC01BD01CF010895EE0FFF1F28
:1044E000881F8BBF0790F691E02D19940F931F93AF
:1044F000CF93DF938230910510F482E090E0E09159
:10450000480BF091490B30E020E0B0E0A0E030979C
:1045100099F42115310509F44AC0281B390B2430C0
:104520003105D8F58A819B816115710589F1FB01FF
:1045300093838283FE0111C04081518102811381E6
:1045400048175907E0F04817590799F4109761F098
:1045500012960C93129713961C933296CF01DF910B
:10456000CF911F910F9108950093480B1093490B21
:10457000F4CF2115310551F04217530738F0A90146
:10458000DB019A01BD01DF01F801C1CFEF01F9CFD5
:104590009093490B8093480BCDCFFE01E20FF31FA0
:1045A000819391932250310939832883D7CF209169
:1045B000460B3091470B232B41F420915D02309143
:1045C0005E023093470B2093460B20915B023091A3
:1045D0005C022115310541F42DB73EB740915F02D1
:1045E00050916002241B350BE091460BF091470B74
:1045F000E217F307A0F42E1B3F0B2817390778F0BA
:10460000AC014E5F5F4F2417350748F04E0F5F1F18
:104610005093470B4093460B819391939FCFF0E0CB
:10462000E0E09CCFCF93DF930097E9F0FC01329755
:1046300013821282A091480BB091490BED0130E03A
:1046400020E01097A1F420813181820F931F2091E7
:10465000460B3091470B2817390709F061C0F093DA
:10466000470BE093460BDF91CF910895EA01CE17F7
:10467000DF07E8F54A815B819E0141155105B1F7DD
:10468000E901FB83EA8349915991C40FD51FEC17C7
:10469000FD0761F4808191810296840F951FE901E5
:1046A00099838883828193819B838A83F0E0E0E011
:1046B00012968D919C9113970097B9F52D913C918D
:1046C0001197CD010296820F931F2091460B3091D6
:1046D000470B2817390739F6309751F51092490BD7
:1046E0001092480BB093470BA093460BBCCFD383DB
:1046F000C28340815181840F951FC817D90761F487
:104700004E5F5F4F88819981480F591F51834083C5
:104710008A819B81938382832115310509F0B0CF73
:10472000F093490BE093480B9ECFFD01DC01C0CF15
:1047300013821282D7CF4F925F926F927F928F92A5
:104740009F92AF92BF92CF92DF92EF92FF920F9320
:104750001F93CF93DF938C01009799F4CB01DF91E6
:10476000CF911F910F91FF90EF90DF90CF90BF906E
:10477000AF909F908F907F906F905F904F900C9430
:104780007622FC01E60FF71F9C0122503109E21747
:10479000F30708F4AEC0D901CD91DC911197C6178B
:1047A000D70720F1C530D10578F0CE0104978617E0
:1047B000970750F0C61BD70B2297C193D1936D93E7
:1047C0007C93CF010E941223C801DF91CF911F91EA
:1047D0000F91FF90EF90DF90CF90BF90AF909F90A0
:1047E0008F907F906F905F904F9008955B01AC1A0F
:1047F000BD0A4C018C0E9D1EA091480BB091490B37
:10480000512C412CF12CE12C109731F58091460B65
:104810009091470B8815990509F05CC0461657061C
:1048200008F058C080915B0290915C02009741F4BF
:104830008DB79EB740915F0250916002841B950B2B
:10484000E817F90708F055C0F093470BE093460BC3
:10485000F90171836083B8CF8D919C911197129665
:104860006C90129713967C901397A815B90559F57B
:104870006C0142E0C40ED11CCA14DB0420F1AC016F
:104880004A195B09DA011296159780F062827382E9
:1048900051834083D9016D937C93E114F10471F04D
:1048A000D7011396FC93EE9312978ECF22968C0F1E
:1048B0009D1FF90191838083F301EFCFF093490BA2
:1048C000E093480B81CF4816590608F42C017D016E
:1048D000D3019ACFCB010E9476227C01009749F048
:1048E000AE01B8010E947C24C8010E9412238701F6
:1048F0006BCF10E000E068CFFB01DC0102C001904B
:104900000D9241505040D8F70895FB01DC018D9184
:10491000019080190110D9F3990B0895FB01DC0176
:1049200001900D920020E1F70895FB01DC01415058
:10493000504030F08D910190801919F40020B9F7A2
:10494000881B990B0895FB01DC014150504048F051
:1049500001900D920020C9F701C01D9241505040B6
:10496000E0F7089511E0C1E6D1E000E006C0802F35
:10497000FE010E946E222196011DC236D10780E001
:104980000807A9F7F894FFCF566963746F7279210D
:1049900020416C6C207461736B7320646F6E6521B1
:1049A00000000000000000000047616D65204F76A8
:1049B0006572212054696D65277320757021000090
:1049C000000000000000000000000108090C0D3E7E
:1049D0003F40413132334134353642373839432A4A
:1049E00030234400004A0B800000004000140054B3
:1049F000007EFF06000100000000EF1E001F0020E7
:104A0000002100220023002400250029002A002B79
:104A1000002C002D002E002F00300016001700186B
:104A20000019001A001B0002000300040005000624
:104A300000070036003700380039003A003B0032EA
:104A4000003300340035003C001C001D0025002808
:104A500000310000000000B30213024002000371A5
:104A6000024F02630200000000AA077D07C008533E
:104A700007760763075407000000004E040E04DDAC
:104A80000300000000DC091302C00804020D0A0044
:104A900054696D652072656D3A0030004A61636B40
:104AA00020636F6E6E656374696F6E73204F4B2168
:104AB000004A61636B20636F6E6E656374696F6E2D
:104AC000732077726F6E67210047616D65205374A4
:104AD00061727465642120476F6F64206C75636B2D
:104AE000210057656C6C20646F6E652100547279EB
:104AF00020616761696E21004B6579706164204CAB
:104B000045442047616D6500496E697469616C694F
:104B10007A696E672E2E2E00534420436172642002
:104B20004572726F722100436865636B20534420A5
:104B300043617264004D503320506C61796572207E
:104B40004572726F720047616D6520636F6E7469A4
:104B50006E7565730054657374696E67204C4544C7
:104B6000732E2E2E002D2D2D73617665642020432B
:104B70006F6E66696775726174696F6E202D2D2D79
:104B800000436F756E74646F776E3A200050656EE7
:104B9000616C74793A200053776974636865733A7D
:104BA0002000427574746F6E733A2000506F7473F6
:104BB0003A20002C20004A61636B733A20004B6559
:104BC0007970616420436F64653A200053746172A8
:104BD00074204D6573736167653A2000436F72728C
:104BE000656374204D6573736167653A2000577281
:104BF0006F6E67204D6573736167653A20006E6F55
:104C00007720636F6E6E6563742074686520475506
:104C1000492020636F6E666967757261746F7200F8
:104C20005072657373205354415254005345543AA3
:104C3000004F4B3A434F554E54444F574E004F4B45
:104C40003A50454E414C5459004F4B3A53574954F2
:104C500043484553004F4B3A425554544F4E53002E
:104C60004F4B3A504F5453004F4B3A4A41434B53EA
:104C7000004F4B3A4B4559434F4445004F4B3A5335
:104C8000415645004D53473A004F4B3A4D53473A32
:104C90005354415254004F4B3A4D53473A434F52AD
:104CA00052454354004F4B3A4D53473A57524F4E9B
:104CB00047004F4B3A4D53473A564943544F525988
:104CC000004F4B3A4D53473A4445464541540047FF
:104CD00045543A434F4E46494700434F4E46494795
:104CE0003A434F554E54444F574E3A00434F4E4669
:104CF00049473A50454E414C54593A00434F4E466D
:104D000049473A53574954434845533A00434F4E55
:104D10004649473A425554544F4E533A00434F4E3A
:104D20004649473A504F54533A002C00434F4E46A1
:104D300049473A4A41434B533A00434F4E4649474D
:104D40003A4B4559434F44453A00434F4E46494735
:104D50003A4D53473A53544152543A00434F4E460A
:104D600049473A4D53473A434F52524543543A000C
:104D7000434F4E4649473A4D53473A57524F4E4795
:104D80003A00434F4E4649473A4D53473A564943F6
:104D9000544F52593A00434F4E4649473A4D5347B4
:104DA0003A4445464541543A004F4B3A52455345E3
:104DB000540053746172742067616D652E2E005427
:104DC000696D652773207570210053776974636876
:104DD0002073657175656E63650053657420737724
:104DE0006974636865732E2E2E0053776974636847
:104DF00000427574746F6E2073657175656E6365BE
:104E000000507265737320627574746F6E732E2E0A
:104E10002E00427574746F6E00506F74656E746905
:104E20006F6D65746572730041646A757374207088
:104E30006F74732E2E2E00506F74004A61636B20C6
:104E4000636F6E6E656374696F6E7300436F6E6E31
:104E5000656374206A61636B732E2E2E004A616352
:104E60006B004B657970616420636F646500456E0B
:104E700074657220636F64653A20004B65797061D8
:104E80006400436865636B696E6720737769746358
:104E9000682073657175656E63652E2E2E005377DD
:104EA0006974636820002073746174653A2000207F
:104EB0002073746F72656420706F736974696F6EAC
:104EC0003A20005475726E696E67206F6E204752EB
:104ED00045454E204C45442000537769746368650E
:104EE0007320636F72726563742100537769746312
:104EF0006865732077726F6E6721004B657970610A
:104F00006420636F646520636F727265637421004F
:104F10004B657970616420636F64652077726F6E92
:104F2000672100416C6C207461736B7320646F6E39
:104F3000652100427574746F6E2073657120636F14
:104F400072726563742100427574746F6E207365AC
:104F5000712077726F6E672100506F74656E74698F
:104F60006F6D6574657273204F4B2100506F7465CF
:104F70006E74696F6D65746572732077726F6E679A
:024F800021000E
:020000040003F7
:10E000000D9489F10D94B2F10D94B2F10D94B2F129
:10E010000D94B2F10D94B2F10D94B2F10D94B2F1F0
:10E020000D94B2F10D94B2F10D94B2F10D94B2F1E0
:10E030000D94B2F10D94B2F10D94B2F10D94B2F1D0
:10E040000D94B2F10D94B2F10D94B2F10D94B2F1C0
:10E050000D94B2F10D94B2F10D94B2F10D94B2F1B0
:10E060000D94B2F10D94B2F10D94B2F10D94B2F1A0
:10E070000D94B2F10D94B2F10D94B2F10D94B2F190
:10E080000D94B2F10D94B2F10D94B2F10D94B2F180
:10E090000D94B2F10D94B2F10D94B2F10D94B2F170
:10E0A0000D94B2F10D94B2F10D94B2F10D94B2F160
:10E0B0000D94B2F10D94B2F10D94B2F10D94B2F150
:10E0C0000D94B2F10D94B2F10D94B2F10D94B2F140
:10E0D0000D94B2F10D94B2F10D94B2F10D94B2F130
:10E0E0000D94B2F141546D656761323536300041AF
:10E0F000726475696E6F206578706C6F72657220DE
:10E1000073746B3530305632206279204D4C530099
:10E11000426F6F746C6F616465723E004875683F52
:10E1200000436F6D70696C6564206F6E203D200048
:10E130004350552054797065202020203D20005FF9
:10E140005F4156525F415243485F5F3D2000415658
:10E1500052204C696243205665723D20004743437C
:10E160002056657273696F6E203D20004350552024
:10E1700049442020202020203D20004C6F7720663D
:10E18000757365202020203D20004869676820665F
:10E190007573652020203D200045787420667573D6
:10E1A00065202020203D20004C6F636B2066757336
:10E1B000652020203D20004D617220203720323024
:10E1C000313300312E362E3800342E332E350056A2
:10E1D00023202020414444522020206F7020636F70
:10E1E00064652020202020696E73747275637469E1
:10E1F0006F6E2061646472202020496E74657272B3
:10E20000757074006E6F20766563746F7200726A49
:10E210006D702020006A6D70200057686174207056
:10E220006F72743A00506F7274206E6F7420737541
:10E2300070706F72746564004D7573742062652030
:10E2400061206C6574746572002000577269747483
:10E25000696E672045450052656164696E672045B7
:10E26000450045452065727220636E743D00504F35
:10E27000525400303D5A65726F2061646472003FF1
:10E280003D43505520737461747300403D454550C3
:10E29000524F4D207465737400423D426C696E6B41
:10E2A000204C454400453D44756D70204545505215
:10E2B0004F4D00463D44756D7020464C415348001B
:10E2C000483D48656C70004C3D4C69737420492F83
:10E2D0004F20506F72747300513D51756974005234
:10E2E0003D44756D702052414D00563D73686F7707
:10E2F00020696E7465727275707420566563746FF0
:10E30000727300593D506F727420626C696E6B00BD
:10E310002A0011241FBECFEFD1E2DEBFCDBF01E046
:10E320000CBF12E0A0E0B2E0EEE1FDEF03E00BBFB6
:10E3300002C007900D92A030B107D9F712E0A0E01B
:10E34000B2E001C01D92AE30B107E1F70F9460F367
:10E350000D948DFE01E20EBF0FEF0DBF11241FBE05
:10E360000D9460F30D9400F020E030E040ED57E0B4
:10E3700005C0FA013197F1F72F5F3F4F2817390792
:10E38000C0F308959C01260F311DC901A0E0B0E043
:10E390002F5F3F4FABBFFC018791882361F08093D3
:10E3A000C6008091C00086FFFCCF8091C0008064D1
:10E3B0008093C000EACF08958DE08093C6008091DD
:10E3C000C00086FFFCCF8091C00080648093C000B5
:10E3D0008AE08093C6008091C00086FFFCCF8091C8
:10E3E000C00080648093C00008950F94C2F10F9420
:10E3F000DCF10895FC019081992359F09093C600B7
:10E400008091C00086FFFCCF8091C0008064809323
:10E41000C0003196992379F70895282F982F929567
:10E420009F70892F805D8A3308F0895F8093C600D2
:10E430008091C00086FFFCCF8091C00080648093F3
:10E44000C000822F8F70982F905D9A3308F0995FEB
:10E450009093C6008091C00086FFFCCF8091C000E1
:10E4600080648093C00008959C01FB01853691056E
:10E470001CF46330710594F0C90164E670E00F94F8
:10E480002EFE605D7F4F6093C6008091C00086FFC6
:10E49000FCCF8091C00080648093C0002B30310598
:10E4A00014F43297B4F0C90164E670E00F942EFEC4
:10E4B0006AE070E00F942EFE605D7F4F6093C600AF
:10E4C0008091C00086FFFCCF8091C0008064809363
:10E4D000C000C9016AE070E00F942EFEC0968093E0
:10E4E000C6008091C00086FFFCCF8091C000806490
:10E4F0008093C00008951F93182F8EE692EE60E07F
:10E500000F94C2F11093C6008091C00086FFFCCF2B
:10E510008091C00080648093C0000F94DCF11F9153
:10E5200008952F923F924F925F926F927F928F92B7
:10E530009F92AF92BF92CF92DF92EF92FF920F9392
:10E540001F93DF93CF93CDB7DEB762970FB6F894E2
:10E55000DEBF0FBECDBF382E622ECA01DB015C01CB
:10E560006D01772420E2222E2E010894411C511CBB
:10E570008BC081E0A81680E0B80681E0C80680E084
:10E58000D80628F0C601AA27BB270F940DF2BB2797
:10E59000AD2D9C2D8B2D0F940DF28A2D0F940DF225
:10E5A0002092C6008091C00086FFFCCF8091C00001
:10E5B00080648093C0009DE29093C6008091C0006B
:10E5C00086FFFCCF8091C00080648093C0002092C1
:10E5D000C6008091C00086FFFCCF8091C00080649F
:10E5E0008093C00019828601750188249924A1E0D6
:10E5F0003A1651F03A1620F0B2E03B1661F409C029
:10E600000BBFF701779007C0C7010F9477FE782EF4
:10E6100002C0F7017080872D0F940DF22092C60082
:10E620008091C00086FFFCCF8091C0008064809301
:10E63000C000872D8052F401EF70F0708F3520F408
:10E64000E40DF51D708204C0E40DF51D8EE280839B
:10E650000894E11CF11C011D111D0894811C911CE2
:10E6600090E18916910409F0C2CF80E190E0A0E02A
:10E67000B0E0A80EB91ECA1EDB1E198AC2010F9493
:10E68000FAF10F94DCF16A94662009F072CF629679
:10E690000FB6F894DEBF0FBECDBFCF91DF911F91B3
:10E6A0000F91FF90EF90DF90CF90BF90AF909F9031
:10E6B0008F907F906F905F904F903F902F90089534
:10E6C0002F923F924F925F926F927F928F929F9282
:10E6D000AF92BF92CF92DF92EF92FF920F931F9370
:10E6E000DF93CF93CDB7DEB7CD53D1400FB6F894BB
:10E6F000DEBF0FBECDBF01E20EBF0FEF0DBF94B75F
:10E70000F894A89514BE80916000886180936000A1
:10E7100010926000789493FF05C0E0910002F091A0
:10E7200001021995279A2F9A8091C00082608093E8
:10E73000C00080E18093C40088E18093C1000000A4
:10E74000EE24FF24870144E0A42EB12CCC24DD2448
:10E7500024C0C5010197F1F70894E11CF11C011DCB
:10E76000111D21E2E2162EE4F20620E0020720E06D
:10E77000120718F031E0C32ED12CC801B70127ECE5
:10E780003BE140E050E00F9441FE611571058105C9
:10E79000910519F485B1805885B98091C00087FD35
:10E7A00003C0C114D104A9F2A6014F5F5F4FC25E3E
:10E7B000DE4F59834883CE51D140C25EDE4F8881FF
:10E7C0009981CE51D140019711F00D9410FEC05D9A
:10E7D000DE4F19821882C053D14060E0C15DDE4F28
:10E7E0001882CF52D14088249924C35DDE4F19820C
:10E7F0001882CD52D140C05EDE4F188219821A8233
:10E800001B82C052D140CE5CDE4F188219821A8220
:10E810001B82C253D140EE24FF2487010BBFF701B6
:10E8200007911691C45CDE4F19830883CC53D14005
:10E830000D940BFEC25EDE4F28813981CE51D1404E
:10E840002130310509F52091C600C25EDE4F1982E4
:10E850001882CE51D14022C02F5F3F4F4F4F5F4FA4
:10E86000213082E138078AE7480780E0580780F0C6
:10E87000C45CDE4FE881F981CC53D140EF5FFF4F9C
:10E8800019F0EE27FF27099420E030E040E050E047
:10E890008091C00087FFE0CF2091C600C35DDE4FAE
:10E8A00048815981CD52D1404F5F5F4FC35DDE4FEC
:10E8B00059834883CD52D140213209F063C64A3092
:10E8C000510508F05FC60894811C911C53E0851621
:10E8D000910409F059C600E010E018C081E280936D
:10E8E000C6008091C00086FFFCCF8091C00080648C
:10E8F0008093C0002F5F3F4F2931310579F70F9486
:10E90000DCF10F5F1F4F0530110519F020E030E0FA
:10E91000E5CF10920A0210920B0210920C02109294
:10E920000D02109206021092070210920802109235
:10E930000902109202021092030210920402109235
:10E9400005028FEE90EE60E00F94F5F180E191EE1C
:10E9500060E00F94C2F18091C00087FFFCCF9091DE
:10E96000C600903608F09F759032B8F09093C600BC
:10E970008091C00086FFFCCF8091C00080648093AE
:10E98000C000A0E2A093C6008091C00086FFFCCF2B
:10E990008091C00080648093C000983409F4D7C18E
:10E9A0009934B8F4923409F459C1933458F490333B
:10E9B00019F1903308F4E3C59F33A1F1903409F0C5
:10E9C000DEC5BDC0953409F470C1963409F0D7C5D1
:10E9D00098C1923509F42BC2933538F49C3409F46C
:10E9E000F5C1913509F0CBC518C2963509F445C279
:10E9F000993509F0C4C567C483E792EE62E00F94CD
:10EA0000F5F110920602109207021092080210927D
:10EA1000090210920A0210920B0210920C0210923C
:10EA20000D0213C18FE792EE62E00F94F5F18FEEC5
:10EA300090EE60E00F94F5F181E291EE60E00F94CA
:10EA4000C2F187EB91EE60E00F94F5F180E391EE77
:10EA500060E00F94C2F184EE90EE60E00F94F5F167
:10EA60008FE391EE60E00F94C2F186E090E061E008
:10EA700070E00F9434F20F94DCF18DE591EE60E0DC
:10EA80000F94C2F189EC91EE60E00F94F5F18EE401
:10EA900091EE60E00F94C2F183EC91EE60E00F9490
:10EAA000F5F18CE691EE60E00F94C2F18EE10F94E7
:10EAB0000DF288E90F940DF281E00F940DF20F949E
:10EAC000DCF18BE791EE60E00F94C2F119E0E0E039
:10EAD000F0E010935700E4918E2F0F940DF20F94F5
:10EAE000DCF18AE891EE60E00F94C2F1E3E0F0E03F
:10EAF00010935700E4918E2F0F940DF20F94DCF1D8
:10EB000089E991EE60E00F94C2F1E2E0F0E0109349
:10EB10005700E4918E2F0F940DF20F94DCF188EAE8
:10EB200091EE60E00F94C2F1E1E0F0E01093570045
:10EB30001491812F0F940DF20F94DCF107CF8BE825
:10EB400092EE62E00F94F5F18BE492EE60E00F94A8
