:020000040000FA
:100000000C9462010C9493010C9493010C94930151
:100010000C9493010C9493010C9493010C94930110
:100020000C9493010C94E70F0C94E70F0C94E70FDA
:100030000C9493010C9493010C9493010C949301F0
:100040000C9493010C9493010C9493010C949301E0
:100050000C9493010C9493010C9493010C949D0FB8
:100060000C9493010C94670F0C943D0F0C94930126
:100070000C9493010C9493010C9493010C949301B0
:100080000C9493010C9493010C9493010C949301A0
:100090000C94070F0C94DD0E0C9493010C94F10F4B
:1000A0000C9493010C9493010C9493010C94930180
:1000B0000C9493010C9493010C9493010C94930170
:1000C0000C9493010C9493010C9493010C94930160
:1000D0000C9493010C9493010C9493010C94930150
:1000E0000C9493010C9491050C948F050C940402CC
:1000F0000C949E030C9471020C9463020C94900374
:100100000C9400030C94DF010C94AB030C948A0351
:100110000C94AC030C94B0030C9413020C946B037A
:100120000C94A2030C9498030C9475030C947D0317
:100130000C9480030C940E040C9479030C944F02DD
:100140000C9486050C94AA070C94C0080C947F05A7
:100150000C9471030C9476070C94B3020C94400237
:100160000C947D070C944E040C9415110C946A05A4
:100170000C94A6030C9486030C9494030C946307CC
:100180000C9471050C94DD030C9453070C94DC095A
:100190000C9454070C94B5200C948D050C94E0013C
:1001A00000002100240027002A002D003000330029
:1001B00001010000040107010A01000022002500DE
:1001C00028002B002E003100340002010000050140
:1001D00008010B01000020002300260029002C004C
:1001E0002F0032000001000003010601090105058E
:1001F0000505070508080808020202020A0A08089D
:1002000004040404010101010101010103030303CA
:1002100003030303040707070C0C0C0C0C0C0C0C59
:100220000202020206060606060606060B0B0B0B6A
:100230000B0B0B0B0102102020080810204010208F
:10024000408002010201080402010102040810209A
:100250004080804020100804020180040201804098
:100260002010080402010804020101020408102001
:100270004080010204081020408000000A0B02099F
:100280000C0D0E0807030401000000000000000030
:10029000000000000000000000000000000000005E
:1002A000000000000000121110000000000000001B
:1002B000000000000000000000000000000000003E
:1002C0001511B52011241FBECFEFD1E2DEBFCDBF87
:1002D00000E00CBF2AE0A8E8B7E001C01D92AC3CEA
:1002E000B207E1F717E0A0E0B2E0E2E4F7E400E0F3
:1002F0000BBF02C007900D92A838B107D9F711E0E3
:10030000C1E6D1E000E006C021970109802FFE017F
:100310000E944B21C036D10780E00807A9F70E9450
:100320002D120C948F230C940000FC01A089B1893C
:1003300082E08C93A485B5851C92A685B7858FEC49
:100340008C93108EA489B58986E08C93A289B38999
:100350008C9180618C93A289B3898C9188608C93F5
:10036000A289B3898C9180688C930288F389E02DEF
:1003700080818F7D8083089596E0899FD00111242C
:10038000A95DB54F90967C936E935F9791E091969F
:100390009C939197E091940AF091950A9091930A19
:1003A000992339F0309751F0811108C08091430AA8
:1003B0001994309719F05C968C91FACF08950895AE
:1003C0000895FC01248135816217730748F4808108
:1003D0009181009729F0860F971FFC018081089575
:1003E00080E00895FC01248135816217730720F4B1
:1003F00080819181009729F41092450885E498E066
:100400000895860F971F08950895DB0114964D9166
:100410005C9115976D917C91DC01ED91FC910280CE
:10042000F381E02D1994AF92BF92CF92DF92EF92B9
:10043000FF920F931F93CF93DF936C017B018B018E
:10044000040F151FEB015E01AE18BF08C017D107DE
:1004500059F06991D601ED91FC910190F081E02D68
:10046000C6011995892B79F7C501DF91CF911F91AD
:100470000F91FF90EF90DF90CF90BF90AF900895D5
:10048000FC01538D448D252F30E0842F90E0821B9A
:10049000930B541710F0CF96089501970895FC011F
:1004A000918D828D981761F0A28DAE0FBF2FB11D77
:1004B0005D968C91928D9F5F9F73928F90E00895CF
:1004C0008FEF9FEF0895FC01918D828D981731F089
:1004D000828DE80FF11D858D90E008958FEF9FEFDD
:1004E0000895FC01918D228D892F90E0805C9F4FB3
:1004F000821B91098F739927089585ED98E00E94DA
:10050000710221E0892B09F420E0822F089582E70F
:1005100099E00E94710221E0892B09F420E0822FEA
:100520000895FC01A48DA80FB92FB11DA35ABF4F88
:100530002C91848D90E001968F739927848FA689E2
:10054000B7892C93A089B1898C91837080648C9336
:10055000938D848D981306C00288F389E02D8081E5
:100560008F7D80830895EF92FF920F931F93CF9317
:10057000DF93EC0181E0888F9B8D8C8D98131AC0DE
:10058000E889F989808185FF15C09FB7F894EE89C5
:10059000FF896083E889F989808183708064808322
:1005A0009FBF81E090E0DF91CF911F910F91FF906D
:1005B000EF900895F62E0B8D10E00F5F1F4F0F7315
:1005C0001127E02E8C8D8E110CC00FB607FCFACFD0
:1005D000E889F989808185FFF5CFCE010E949102DB
:1005E000F1CFEB8DEC0FFD2FF11DE35AFF4FF082A1
:1005F0009FB7F8940B8FEA89FB8980818062CFCF07
:10060000CF93DF93EC01888D8823B9F0AA89BB8949
:10061000E889F9898C9185FD03C0808186FD0DC034
:100620000FB607FCF7CF8C9185FFF2CF808185FF55
:10063000EDCFCE010E949102E9CFDF91CF910895D5
:1006400080E090E0892B29F00E94870281110E94AE
:10065000000080E090E0892B29F00E947D0281114A
:100660000E94000080E090E0892B49F080E090E05B
:10067000892B29F00E94000081110E94000080E077
:1006800090E0892B49F080E090E0892B29F00E94CE
:10069000000081110C94000008958150823108F00F
:1006A0005AC0E82FF0E08827E75AFC4F8F4F0C9490
:1006B0004B2179037D036B0371037503AB03800347
:1006C00086038A039003940398039E03A203AB035B
:1006D000A603AC03B003809180008F7780938000E5
:1006E0000895809180008F7DF9CF80918000877F71
:1006F000F5CF84B58F7784BD089584B58F7DFBCF0A
:100700008091B0008F778093B00008958091B00001
:100710008F7DF9CF809190008F778093900008951E
:10072000809190008F7DF9CF80919000877FF5CFE9
:100730008091A0008F778093A00008958091A00001
:100740008F7DF9CF8091A000877FF5CF8091200128
:100750008F77809320010895809120018F7DF9CFBC
:1007600080912001877FF5CFCF93DF93282F30E052
:10077000F901E658FD4F8491F901EC5CFD4FD491ED
:10078000F901E251FE4FC491CC23A1F081110E94E6
:100790004D03EC2FF0E0EE0FFF1FEC52FE4FA59142
:1007A000B491EC91ED2381E090E009F480E0DF91D9
:1007B000CF91089580E090E0FACF862F0C94B40397
:1007C0001F93CF93DF93282F30E0F901E658FD4FB8
:1007D0008491F901EC5CFD4FD491F901E251FE4F97
:1007E000C491CC23A9F0162F81110E944D03EC2F48
:1007F000F0E0EE0FFF1FE654FE4FA591B4918FB7C6
:10080000F894EC91111108C0D095DE23DC938FBFD2
:10081000DF91CF911F910895DE2BF8CF862F642FA3
:100820000C94E003CF93DF9390E0FC01EC5CFD4F70
:10083000249182519E4FFC0184918823C9F090E05D
:10084000880F991FFC01E056FE4FA591B491FC0161
:10085000E654FE4FC591D49161110DC09FB7F89435
:100860008C91209582238C938881282328839FBF95
:10087000DF91CF910895623051F49FB7F8943C9185
:10088000822F809583238C93E8812E2BEFCF8FB717
:10089000F894EC912E2B2C938FBFEACF862F642FE8
:1008A0000C9412043FB7F89480914108909142084B
:1008B000A0914308B091440826B5A89B05C02F3FDE
:1008C00019F00196A11DB11D3FBFBA2FA92F982F76
:1008D0008827BC01CD01620F711D811D911D42E071
:1008E000660F771F881F991F4A95D1F708958F9239
:1008F0009F92AF92BF92CF92DF92EF92FF926B01E5
:100900007C010E9452044B015C01C114D104E1043A
:10091000F104B9F00E945204681979098A099B0907
:10092000683E73408105910580F321E0C21AD10829
:10093000E108F10888EE880E83E0981EA11CB11C26
:10094000E4CFFF90EF90DF90CF90BF90AF909F905B
:100950008F9008952FB7F89460913D0870913E08EC
:1009600080913F08909140082FBF08950F931F93E7
:100970008091960A9091970ADC01ED91FC91008498
:10098000F185E02D1995892B09F4D5C060E070E060
:10099000CB010E9477042091B40A8091960A90912D
:1009A000970ADC01ED91FC910284F385E02D211181
:1009B0000BC019958093A00A8E37D1F68091B40AA6
:1009C0008F5F8093B40AD4CF19959091B40AE92F20
:1009D000F0E0EA56F54F82879230B9F09930D9F0BD
:1009E0009130A9F48F3F99F01092B40A81E080937E
:1009F000B60A1092B90A1092B80A8093BA0A1092F5
:100A0000BB0A80E01F910F910895863069F79F5FC0
:100A10009093B40AADCF8F3E39F78091A20A90919E
:100A2000A10A890F9927991FE091A30A9C012E0F13
:100A3000311D8091A40A820F932F911D4091A50A28
:100A400050E0840F951F2091A60A30E06091A70A1C
:100A500070E0762F6627F091A80A6F0F711D820F44
:100A6000931F9195819591096817790709F0BCCF7B
:100A70001092B40AE13419F41092BB0A3DC0E0931D
:100A8000B70A542F4427240F351F3093B90A2093F7
:100A9000B80AEA53E63108F044C0F0E08827EC5A7F
:100AA000FA4F8F4F0C944B217F0586058F056A0501
:100AB0008F0571058D0591058F058F058F058F05B4
:100AC0008F058F058F058F0591058F058F058F0584
:100AD0008F058F0585E08093B60A81E08093BA0A7E
:100AE0000BC089E020FDF7CF84E021FDF4CF237017
:100AF00033278AE0232B79F78091BA0A83CF87E0E6
:100B000020FDE9CF82E021FDE6CFF6CF88E020FD91
:100B1000E2CF83E021FDDFCFEFCF86E0DCCF8BE0BB
:100B2000DACF81E08093B60A1092B90A1092B80A1F
:100B30008093BA0AA1CF8091BB0A8823E9F20E9470
:100B4000AA040091980A1091990A20919A0A30916A
:100B50009B0A601B710B820B930B00919C0A1091F6
:100B60009D0A20919E0A30919F0A601771078207A3
:100B7000930710F21092B40A1092B60A1092B90AB2
:100B80001092B80A81E039CF8093AD0A272F30E068
:100B90007093AF0A6093B00A4091AC0A9091AB0A8F
:100BA000490F5527551F840F952F911D4091AE0A6F
:100BB000840F911D820F931F680F792F711D7195FE
:100BC000619571097093B10A6093B20A442361F090
:100BD0008091BB0A882341F060E070E0CB010E9465
:100BE00077040E94B604F4CF8091960A9091970AF8
:100BF000DC01ED91FC910280F381E02D4AE050E0B0
:100C00006AEA7AE019950E94AA046093980A7093A0
:100C1000990A80939A0A90939B0A8091AE0A91E078
:100C2000811101C090E09093BB0A811106C06AE077
:100C300070E080E090E00C9477040895BC0183E0BC
:100C40000C94C4050F931F93CF93DF93C82FD62F17
:100C500086E0C89FF0011124E95DF54F11A2878D50
:100C600090A181309105F1F058F082309105F1F1B9
:100C7000039709F440C0DF91CF911F910F91089520
:100C80006623C9F361E070E08C2F0E94BC010E94D2
:100C9000AA0460937F0A7093800A8093810A9093DC
:100CA000820AE9CF0E94AA0400917F0A1091800A6B
:100CB0002091810A3091820AAB01BC01401B510B8B
:100CC000620B730B8091910A9091920AB0E0A0E0C0
:100CD00084179507A607B70748F462E070E08C2FE9
:100CE000DF91CF911F910F910C94BC0163E070E0F4
:100CF000D111C1CFF4CF70E060E0F1CF0F931F931B
:100D00000E94AA0460937A0970937B0980937C09FE
:100D100090937D0982E799E00E944F0297FF1DC0E2
:100D20000E94AA0400917A0910917B0920917C0904
:100D300030917D09601B710B820B930B009176093A
:100D4000109177092091780930917909601771071E
:100D500082079307F8F28FEF9FEF1F910F9108958D
:100D60008F929F92AF92BF92CF92DF92EF92FF92BB
:100D7000CF936B017C010E94AA044B015C01C1145A
:100D8000D104E104F10441F4C0909C0AD0909D0A82
:100D9000E0909E0AF0909F0A0E94B604C82F81112D
:100DA00011C00E94AA04681979098A099B09C6160C
:100DB000D706E806F90630F060E070E0CB010E944B
:100DC0007704EACF8C2FCF91FF90EF90DF90CF90F8
:100DD000BF90AF909F908F9008952091C907260FE4
:100DE0003327331F21323105ECF420911208FC0126
:100DF00090E080E0243069F082E00895A091C90776
:100E00002191AC014755584FA40FB52FB11D2C931C
:100E10000196861798F38091C907680F6093C907F8
:100E200080E0089581E008951092120881E0809397
:100E300011081092EC0761E084E10E94E00361E098
:100E400085E10E94E003E9EBF0E080818E7F808302
:100E500080818D7F808388E48093B80085E48093CF
:100E6000BC000895CF93DF9391E09093A807882367
:100E7000B9F0C091B800D091BA008091BC008A7BD3
:100E80008093BC0060E084E10E94E00360E085E1C3
:100E90000E94E0030E941407D093BA00C093B800E8
:100EA000DF91CF9108950895E0914D0880914C080D
:100EB000E81730F4F0E0E857F84F808190E00895AB
:100EC0008FEF9FEF089590914D0880914C082FEF80
:100ED0003FEF981748F4E92FF0E0E857F84F2081EA
:100EE00030E09F5F90934D08C901089580914C08B0
:100EF00090914D08891B990B0895CF92DF92EF9244
:100F0000FF920F931F93CF93DF937C01CB018A0154
:100F100020911808222389F0EB016B01C40ED51E25
:100F2000CC15DD0569F06991D701ED91FC91019037
:100F3000F081E02DC7011995F3CF642F0E94ED06D3
:100F4000C801DF91CF911F910F91FF90EF90DF903B
:100F5000CF900895CF93DF931F92CDB7DEB769830B
:100F6000209118082223F9F020914A08203258F0E5
:100F700021E030E0FC013383228390E080E00F9099
:100F8000DF91CF91089580914B08E82FF0E0E75E64
:100F9000F74F998190838F5F80934B0880934A0825
:100FA00081E090E0ECCF61E0CE0101960E94ED0679
:100FB000F7CFCF92DF92EF92FF920F931F93CF93D1
:100FC000DF93FC01C48121E020931808C093390805
:100FD00010924B0810924A088385682B8FE09AE0A4
:100FE0000E94AA07D0914A08D13208F092C00E940C
:100FF00052046B017C0180911208811165C082E06E
:101000008093120881E0809311088FEF809310087D
:1010100010920F08D0930E08A9E1B8E0EEEEF7E0C9
:1010200080E0D81385C01092ED078091ED07CC0FBA
:10103000C82BC093ED078091EC07813009F07CC08C
:101040001092EC070E9452046B017C018091ED0725
:101050008093BB008091140890911508A091160808
:10106000B0911708892B8A2B8B2B99F00E94520480
:101070000091140810911508209116083091170856
:101080006C197D098E099F0906171707280739076C
:10109000E0F18091BC0083FDD9CF85EC8093BC004A
:1010A0000E9452046B017C0180911208823009F485
:1010B00045C0809110088F3F61F180911008803207
:1010C00041F18091100825C0809114089091150875
:1010D000A0911608B0911708892B8A2B8B2B09F445
:1010E0008ACF0E9452040091140810911508209193
:1010F0001608309117086C197D098E099F0906178B
:1011000017072807390708F076CF809113080E9447
:10111000320710924B0810924A0810921808DF917B
:10112000CF911F910F91FF90EF90DF90CF90089596
:101130009D9191938F5F75CF85EEB0CF809114080C
:1011400090911508A0911608B0911708892B8A2B49
:101150008B2B09F4A9CF0E9452040091140810911E
:10116000150820911608309117086C197D098E0911
:101170009F09061717072807390708F095CFC5CF2D
:1011800090E080E008958091CA089091CB08A091EA
:10119000CC08B091CD0840916E0850916F086091D5
:1011A000700870917108841B950BA60BB70B809388
:1011B000CA089093CB08A093CC08B093CD080895AB
:1011C0000F931F93CF93DF93C1EED2E08E01F8010E
:1011D00080810E5F1F4F61E00E94E003F2E00B3E52
:1011E0001F07A9F764EF71E080E090E00E947704A8
:1011F0008881229660E00E94E00382E0CB3ED8071F
:10120000B9F7DF91CF911F910F9108950F931F931D
:10121000CF938C01C62F0E94D9076C2F6460C80140
:101220000E94D9076C2F6B7FC8010E94D90783ECFD
:1012300090E00197F1F7CF911F910F9108950F93CF
:101240001F93CF93DF938C01D62FC42F607F642B25
:101250000E94060980E1D89FB00111246C2BC801BF
:10126000DF91CF911F910F910C940609CF93DF93DB
:1012700000D000D01F921F92CDB7DEB798E0E1E812
:10128000F2E0DE01119601900D929A95E1F79091AE
:10129000C40A961708F46FEF262F30E0220F331F91
:1012A00041E050E04C0F5D1F240F351FF9016081B4
:1012B000680F606840E08CEB9AE028960FB6F894CF
:1012C000DEBF0FBECDBFDF91CF910C941F0940E070
:1012D00061E08CEB9AE00E941F098BE39FE101978C
:1012E000F1F70895CF93DF93EC010E946709BE01E7
:1012F0008CEB9AE00E94050261E080E00E943609D2
:101300006BE17AE08CEB9AE00E94050285E090E0C8
:101310000E941E0664EF71E080E090E00E94770476
:1013200060ED77E080E090E00E9477040E94AA04DC
:10133000685E7340810991096093BD087093BE088F
:101340008093BF089093C008DF91CF910895CF9309
:10135000DF93EC010E946709BE018CEB9AE00E94CA
:10136000050261E080E00E94360961E27AE08CEBE0
:101370009AE00E94050284E090E00E941E0664EF5D
:1013800071E080E090E00E94770460ED77E080E01B
:1013900090E00E9477040E94AA04685E734081096D
:1013A00091096093BD087093BE088093BF08909325
:1013B000C008DF91CF91089541E00E941F0981E0AC
:1013C00090E008950F931F93CF93DF93FC01048166
:1013D00015810115110539F4FB011082DF91CF91C0
:1013E0001F910F910895415051094017510708F47A
:1013F0008A01EB01FC0160817181A801CE010E948C
:101400008023C00FD11F1882E9CF0C940121CF9205
:10141000DF92EF92FF920F931F93CF93DF93EB0135
:101420007B0124E0E20EF11C8B016C01C61AD70A85
:10143000C601800F911F0E94F920F80181938F014E
:10144000EE15FF05A9F7CE01DF91CF911F910F9106
:10145000FF90EF90DF90CF9008959F92AF92BF9250
:10146000CF92DF92EF92FF920F931F93CF93DF9370
:101470005C017B018B01D0E0C0E0F80191908F010D
:101480006501CC0EDD1EC6010E94F920981621F0E0
:10149000692DC6010E9401212196C430D10569F74A
:1014A000C701DF91CF911F910F91FF90EF90DF90D7
:1014B000CF90BF90AF909F9008950C94F920FC01BD
:1014C00080819181009711F00C94BD2060E070E064
:1014D000CB010895FB0101900020E9F73197AF019E
:1014E000461B570BDC01ED91FC910280F381E02D4E
:1014F000199465E273E082E799E00C946A0ACF934D
:10150000DF93BC0182E799E00E940502EC010E9492
:10151000790A8C0F9D1FDF91CF9108958F929F9232
:10152000AF92BF92EF92FF920F931F93CF93DF93EF
:10153000CDB7DEB7A1970FB6F894DEBF0FBECDBF13
:101540007C01FA01CB0119A2223008F42AE08E01B5
:101550000F5D1F4F822E912CB12CA12CBF01A50134
:1015600094010E942921F901CA016A300CF5605DDD
:10157000D8016E938D01232B242B252B79F790E036
:1015800080E0109721F0BD01C7010E946A0AA19670
:101590000FB6F894DEBF0FBECDBFDF91CF911F9184
:1015A0000F91FF90EF90BF90AF909F908F90089514
:1015B000695CDECFCF92DF92EF92FF920F931F9381
:1015C000CF93DF936B01770FEE08FF08F7FE1FC084
:1015D000EC01E881F9810190F081E02D6DE219952F
:1015E0008C0144275527BA014C195D096E097F0902
:1015F0002AE0CE010E948E0A800F911FDF91CF91C9
:101600001F910F91FF90EF90DF90CF9008952AE007
:10161000B701A601DF91CF911F910F91FF90EF903D
:10162000DF90CF900C948E0ACF93DF93AB01BC0177
:101630002AE082E799E00E948E0AEC010E94790A72
:101640008C0F9D1FDF91CF910895CF93DF93BC0145
:1016500082E799E00E946A0AEC010E94790A8C0FE5
:101660009D1FDF91CF9108950C946A0A2F923F92AB
:101670004F925F926F927F928F929F92AF92BF92A2
:10168000CF92DF92EF92FF920F931F93CF93DF934E
:1016900000D000D0CDB7DEB70E94AA040091BD08EB
:1016A0001091BE082091BF083091C008601B710BDB
:1016B000820B930B683E73408105910508F4BDC011
:1016C0000E94AA046093BD087093BE088093BF086F
:1016D0009093C0080E94AA040091CE081091CF08F0
:1016E0002091D0083091D108DC01CB01801B910BF7
:1016F000A20BB30BC090CA08D090CB08E090CC08E6
:10170000F090CD088C159D05AE05BF0508F095C07D
:10171000C81AD90AEA0AFB0AC701B60128EE33E063
:1017200040E050E00E94292149015A01C701B60159
:1017300020E83EEE46E350E00E942921290189017C
:10174000C501B40120E13EE040E050E00E942921C3
:101750002CE3C22ED12CE12CF12CA70196010E9482
:10176000292129833A834B835C8329803A80C501F0
:10177000B401A70196010E9429216B017E836D832C
:101780000E94670968E273E08CEB9AE00E94340BD8
:1017900061E080E00E9436090A30110534F468E304
:1017A00073E08CEB9AE00E94340BB2018CEB9AE070
:1017B0000E94DA0A61ED75E08CEB9AE00E94340B2E
:1017C0008AE02816310434F468E373E08CEB9AE085
:1017D0000E94340B69817A818CEB9AE00E94DA0ACC
:1017E00061ED75E08CEB9AE00E94340B8D819E8157
:1017F0000A9734F468E373E08CEB9AE00E94340BB0
:10180000B6018CEB9AE026960FB6F894DEBF0FBEB9
:10181000CDBFDF91CF911F910F91FF90EF90DF909F
:10182000CF90BF90AF909F908F907F906F905F9080
:101830004F903F902F900C94DA0A26960FB6F894AA
:10184000DEBF0FBECDBFDF91CF911F910F91FF90F3
:10185000EF90DF90CF90BF90AF909F908F907F9050
:101860006F905F904F903F902F900895FB014481BF
:101870005581FC01248135812417350778F080815A
:101880009181009759F0FB016081718161157105AB
:1018900029F00E94722321E0892B09F020E0822F99
:1018A00008950F931F93CF93DF938C01EB01FC01FD
:1018B000808191810097E1F06881798161157105DE
:1018C000A9F0428153812C813D814217530770F06A
:1018D0000E946B238C819D81F801958384831D82F6
:1018E0001C82DF91CF911F910F9108950E94EF21EB
:1018F00088819981F801918380838A819B81938378
:1019000082838C819D8195838483198218821B82B6
:101910001A82E5CFCF93DF93EC01888199810097FC
:1019200011F00E94EF21198218821D821C821B82F5
:101930001A82DF91CF910895FC01808191810097F7
:1019400011F00C94EF2108950F931F93CF93DF9321
:10195000EC0188819981009759F02A813B812617F3
:10196000370730F081E0DF91CF911F910F910895FB
:101970008B016F5F7F4F0E947822009759F0998307
:1019800088831B830A832C813D81232B59F7FC011B
:101990001082E8CF80E0E7CFEF92FF920F931F9382
:1019A000CF93DF93EC017B01198218821B821A828C
:1019B0001D821C82FB0101900020E9F731978F0105
:1019C000061B170BB8010E94A40C811109C0CE019F
:1019D000DF91CF911F910F91FF90EF900C948A0CA3
:1019E0001D830C83B70188819981DF91CF911F916D
:1019F0000F91FF90EF900C946B239F92AF92BF9248
:101A0000CF92DF92EF92FF920F931F93CF93DF93CA
:101A10007C016B015A0189012417350720F48B2DB5
:101A20005901042F182F67E273E0C7010E94CC0C04
:101A3000D6011496CD91DC91AC16BD0650F50C176D
:101A40001D0708F4E801D601ED91FC911197EC0F08
:101A5000FD1F908010820D911C910A0D1B1D011518
:101A6000110571F0F80101900020E9F731975F014D
:101A7000A01AB10AB501C7010E94A40C811116C0B9
:101A8000C7010E948A0CD6018D919C91C80FD91F65
:101A90009882C701DF91CF911F910F91FF90EF9036
:101AA000DF90CF90BF90AF909F900895F701B582DF
:101AB000A482B801808191810E946B23E4CFCF93EF
:101AC000DF93EC01FB01248135810E94FD0CCE01E6
:101AD000DF91CF9108952F923F924F925F926F9234
:101AE0007F928F929F92AF92BF92CF92DF92EF92AE
:101AF000FF920F931F93CF93DF93CDB7DEB7C650FE
:101B0000D1400FB6F894DEBF0FBECDBF9E012F5F50
:101B10003F4F390180E091E0F9019C011192215081
:101B20003040E1F72301630193E9A92E92E0B92E39
:101B3000F12CE12C22242394F5013080F2E0AF0E49
:101B4000B11C61E0832D0E94120460E0832D0E948D
:101B5000E00383E9882E82E0982E10E000E0E01692
:101B6000F10651F0F40180810E94B403892B21F425
:101B7000F601E00FF11F20820F5F1F4FF2E08F0E82
:101B8000911C0031110559F762E0832D0E94120467
:101B90002FEFE21AF20A30E1C30ED11C80E1E81601
:101BA000F10451F64EE658E0AEE4B8E06D917C9158
:101BB000119777FD20C012968D919C91139797FDF8
:101BC0001AC0FB0104E0EE0FFF1F0A95E1F7E60DD6
:101BD000F71DE80FF91F2081222391F0FC0114E08A
:101BE000EE0FFF1F1A95E1F7E60DF71DE60FF71F41
:101BF0002081222329F014964A175B07B9F621E0C9
:101C000070E060E0DB011196CD018031910509F4AF
:101C100045C0F301E80FF91F308131110BC0FC0101
:101C200034E0EE0FFF1F3A95E1F7E40DF51D30812A
:101C3000332361F0EEE4F8E0008111810617170705
:101C400039F4028113810817190751F40196DDCF89
:101C50000817190729F40281138106171707B1F332
:101C600034964E175F0741F76FE473E0CE018F5F44
:101C70009E4F0E94CC0CCE018F5F9E4F0E94720936
:101C8000CE018F5F9E4F0E949C0C0E94E00885E071
:101C900090E00E941E060E94C3083DC0222321F34B
:101CA0009FEF491A590AE0E16E0E711CBD01509771
:101CB00009F0A8CF81E08093C608809196089091A2
:101CC0009708019690939708809396086AE373E0CB
:101CD000CE018F5F9E4F0E94CC0CCE018F5F9E4F36
:101CE0000E94A709CE018F5F9E4F0E949C0C80919D
:101CF000960890919708863091054CF4880F991FAB
:101D0000FC01EB52FD4F61E080810E94E00384E022
:101D100090E00E941E06CA5FDE4F0FB6F894DEBF49
:101D20000FBECDBFDF91CF911F910F91FF90EF902C
:101D3000DF90CF90BF90AF909F908F907F906F90EB
:101D40005F904F903F902F90089585ED8093BC0059
:101D50008091140890911508A0911608B091170869
:101D60000796A11DB11D23E0B695A7959795879578
:101D70002A95D1F72091BC0024FD03C010921208CF
:101D800008954091140850911508609116087091BB
:101D90001708452B462B472B69F30097A105B10582
:101DA00041F02AE22A95F1F700C00197A109B10993
:101DB000E1CF809113080C9432071F920F920FB657
:101DC0000F9211240BB60F922F933F934F935F9373
:101DD0006F937F938F939F93AF93BF93EF93FF93F3
:101DE00085ED98E00E949102FF91EF91BF91AF9134
:101DF0009F918F917F916F915F914F913F912F9123
:101E00000F900BBE0F900FBE0F901F9018951F9252
:101E10000F920FB60F9211240BB60F922F938F9340
:101E20009F93EF93FF93E091E508F091E60880819E
:101E3000E091EB08F091EC0882FD1DC0908180914B
:101E4000EE088F5F8F732091EF08821741F0E091C9
:101E5000EE08F0E0EB52F74F958F8093EE08FF917C
:101E6000EF919F918F912F910F900BBE0F900FBE0E
:101E70000F901F9018958081F2CF1F920F920FB68E
:101E80000F9211240BB60F922F933F934F935F93B2
:101E90006F937F938F939F93AF93BF93EF93FF9332
:101EA00082E799E00E949102FF91EF91BF91AF917B
:101EB0009F918F917F916F915F914F913F912F9162
:101EC0000F900BBE0F900FBE0F901F9018951F9292
:101ED0000F920FB60F9211240BB60F922F938F9380
:101EE0009F93EF93FF93E0918209F09183098081A2
:101EF000E0918809F091890982FD1DC0908180914F
:101F00008B098F5F8F7320918C09821741F0E091CC
:101F10008B09F0E0EE58F64F958F80938B09FF9177
:101F2000EF919F918F912F910F900BBE0F900FBE4D
:101F30000F901F9018958081F2CF1F920F920FB6CD
:101F40000F9211242F933F938F939F93AF93BF933F
:101F500080913D0890913E08A0913F08B0914008C3
:101F600030913C0823E0230F2D3758F50196A11D31
:101F7000B11D20933C0880933D0890933E08A093A8
:101F80003F08B09340088091410890914208A09189
:101F90004308B09144080196A11DB11D80934108EA
:101FA00090934208A0934308B0934408BF91AF9127
:101FB0009F918F913F912F910F900FBE0F901F9087
:101FC000189526E8230F0296A11DB11DD2CF1F92AE
:101FD0000F920FB60F9211240F900FBE0F901F900B
:101FE00018951F920F920FB60F9211240BB60F92F5
:101FF0002F933F934F935F936F937F938F939F9311
:10200000AF93BF93EF93FF938091B900887F8036A1
:1020100009F44DC008F040C0883209F4A9C028F581
:10202000803109F49DC0C8F4882309F4FBC08830CE
:1020300009F496C0FF91EF91BF91AF919F918F915D
:102040007F916F915F914F913F912F910F900BBEB8
:102050000F900FBE0F901F901895883109F488C01B
:10206000803241F78093100814C0803409F49DC079
:1020700040F48033B9F38833E9F68093100885EC97
:10208000B0C0803509F485C0883509F496C088341D
:1020900089F60E94A50ECECF883909F48CC038F598
:1020A000883729F050F4883611F0803719F683E02C
:1020B000809312081092EB0757C0883809F47BC050
:1020C000803919F0803809F0B5CF8091EB07803264
:1020D00008F071C0E091EB0781E08E0F8093EB0771
:1020E0008091BB00F0E0E553F84F80833DC0803B1A
:1020F00039F0E0F4803A09F479C0883A09F09ACFCF
:1021000084E0809312081092CA071092C907E091E8
:102110004608F091470819958091C90781110FC0B1
:1021200081E08093C9071092A90709C0803C09F497
:10213000A6CF883C09F4A3CF883B09F07BCFE09180
:10214000CA0781E08E0F8093CA07F0E0E755F84F89
:1021500080818093BB009091CA078091C90729C0F4
:102160008091ED078093BB0085EC8093BC0062CF2B
:1021700090910F0880910E08981758F5E0910F087C
:1021800081E08E0F80930F08F0E0E251F84F8081DC
:10219000E9CFE0910F0881E08E0F80930F088091C6
:1021A000BB00F0E0E251F84F808390910F088091DE
:1021B0000E089817C8F285E8D8CFE0910F0881E0A3
:1021C0008E0F80930F088091BB00F0E0E251F84F32
:1021D00080838091110881115CCF81E08093EC07AE
:1021E00084EA8093BC001092120824CF85EC80937F
:1021F000BC00109212088091EB07803230F4E0911D
:10220000EB07F0E0E553F84F10826091EB0770E0C8
:10221000E0914808F09149088BEC97E019951092ED
:10222000EB0708CF1092100834CF1092D808109204
:10223000D70888EE93E0A0E0B0E08093D9089093AF
:10224000DA08A093DB08B093DC082FEE32E030937D
:10225000D6082093D5084DEC50E05093E208409307
:10226000E1084CEC50E05093E4084093E30848EC5C
:1022700050E05093E6084093E50849EC50E0509355
:10228000E8084093E7084AEC50E05093EA0840938E
:10229000E9084EEC50E05093EC084093EB081092A4
:1022A000EE081092EF081092F0081092F1081092C8
:1022B0007509109274098093760990937709A09319
:1022C0007809B0937909309373092093720925EC4A
:1022D00030E030937F0920937E0924EC30E0309386
:1022E00081092093800920EC30E03093830920930A
:1022F000820921EC30E0309385092093840922EC97
:1023000030E0309387092093860926EC30E0309343
:1023100089092093880910928B0910928C091092D8
:102320008D0910928E091092120A1092110A809350
:10233000130A9093140AA093150AB093160A81E029
:1023400093E09093100A80930F0A1092BF0A1092A4
:10235000BE0A8DE193E09093BD0A8093BC0A87E2A8
:102360008093C00A80E18093C50A82E08093C60A08
:102370001092C70A44EF51E060E070E040939C0A7D
:1023800050939D0A60939E0A70939F0A9AE0E9E831
:10239000F2E0AAEABAE001900D929A95E1F7109264
:1023A000B40A8093B50A1092BA0A1092BB0A10922E
:1023B000290A10922D0A10922C0A10922E0A83E1FB
:1023C00093E09093280A8093270AE3E4FAE01082CE
:1023D00014821382158236968AE0EF37F807B9F730
:1023E00087E692E090938A0A8093890A83E692E0D6
:1023F00090938C0A80938B0A84E080938D0A80935B
:102400008E0A8BE692E09093880A8093870A8AE08E
:1024100090E09093900A80938F0A84EF91E09093DC
:10242000920A8093910A1092950A1092940A10923F
:10243000830A1092840A1092850A1092860A1092DA
:10244000930A67E673E081E29AE00E94CC0C62E7AF
:1024500073E08BE19AE00C94CC0CCF93DF93CDB773
:10246000DEB76C970FB6F894DEBF0FBECDBF789481
:1024700084B5826084BD84B5816084BD85B5826089
:1024800085BD85B5816085BD80916E00816080933A
:102490006E001092810080918100826080938100A3
:1024A00080918100816080938100809180008160B3
:1024B000809380008091B10084608093B10080910E
:1024C000B00081608093B000809191008260809321
:1024D00091008091910081608093910080919000A3
:1024E0008160809390008091A10082608093A10020
:1024F0008091A10081608093A1008091A000816003
:102500008093A000809121018260809321018091BD
:10251000210181608093210180912001816080935D
:10252000200180917A00846080937A0080917A0003
:10253000826080937A0080917A00816080937A0033
:1025400080917A00806880937A001092C10082E7BF
:1025500099E00E94950185ED98E00E949501109206
:102560004D0810924C0810924B0810924A080E9495
:1025700014078FED91E0909347088093460880EE12
:1025800091E090934908809348080E9414071092A4
:10259000C10A8091C60A823018F098E09093C10A6F
:1025A0008093C40A62E370E080E090E00E947704C8
:1025B0006091C70A8CEB9AE00E94D90768EE73E03D
:1025C00080E090E00E94770460E38CEB9AE00E9448
:1025D00006090BE416E4C8010197F1F760E38CEB00
:1025E0009AE00E940609C8010197F1F760E38CEBBD
:1025F0009AE00E94060983E592E00197F1F760E214
:102600008CEB9AE00E9406096091C10A606240E08A
:102610008CEB9AE00E941F0984E08093C20A40E09C
:102620006CE08CEB9AE00E941F090E94670982E02F
:102630008093C30A40E066E08CEB9AE00E941F0999
:1026400040E062E08CEB9AE00E941F098BE39FE17F
:102650000197F1F788E08093C70A60E08CEB9AE07D
:102660000E94D9070E9467096DE773E08CEB9AE03E
:102670000E94340B61E080E00E9436096DE873E04F
:102680008CEB9AE00E94340B68EE73E080E090E0FF
:102690000E94770403E010E045EDE42E48E0F42EBC
:1026A000DD24D394F092970AE092960AD092AE0A73
:1026B00070E060E08CE00E94C40560ED77E080E0AF
:1026C00090E00E94B00668EC70E080E090E00E942C
:1026D00077041092BA0A8091B60A8430D1F089301A
:1026E000C1F064EF71E080E090E00E947704015057
:1026F0001109C1F60E9467096AEB73E08CEB9AE05E
:102700000E94340B61E080E00E9436096BEC73E0BC
:102710001FC069E170E086E00E94C40570E060E0DF
:1027200082E40E94C40560E070E0CB010E94B00624
:10273000811119C00E9467096DE973E08CEB9AE082
:102740000E94340B61E080E00E9436096CEA73E07D
:102750008CEB9AE00E94340B60ED77E080E090E033
:102760000E9477040CC01092BA0A8091B60A8B308E
:1027700009F78091B80A9091B90A892BD9F60E947D
:1027800067096EED73E08CEB9AE00E94340B21EE4A
:10279000E22E22E0F22E37ED232E32E0332EF1012D
:1027A0000081F2E02F0E311C61E0802F0E941204A4
:1027B000F7011081F2E0EF0EF11C61E0812F0E9421
:1027C000120461E0802F0E94E00368EC70E080E07A
:1027D00090E00E94770460E0802F0E94E00361E0B7
:1027E000812F0E94E00368EC70E080E090E00E949E
:1027F000770460E0812F0E94E00321EE221622E0A0
:10280000320669F662E087E20E9412040FEB12E0E2
:1028100043EB52E05A8F498FE98DFA8D80813296D1
:10282000FA8FE98F62E00E941204298D3A8D021717
:10283000130791F70FEB12E0F80180810E5F1F4F35
:1028400062E00E941204F2E00B3C1F07A9F703E9C3
:1028500012E0F80180810E5F1F4F62E00E941204B7
:10286000F2E0033B1F07A9F76AEC78E090E080E014
:102870000E94070A6EE678E084E090E00E94070A72
:1028800002E718E088E090E07C012FEFE21AF20AFC
:102890000E945D0A90E0F801819391938F01C70136
:1028A0008E30910589F79EE7C92E98E0D92E8701D1
:1028B0000F5F1F4FC7010E945D0A90E0F6018193F0
:1028C00091936F0178010431110589F78AE8E82EA8
:1028D00088E0F82EC8010E94F920F7018083C80122
:1028E00001960E94F920F7018183F2E0EF0EF11CBE
:1028F0000E5F1F4F0032110569F71EE4E12E18E04C
:10290000F12E00E210E068012FEFC21AD20AC801CE
:102910000E945D0A90E0F701918380830E5F1F4F54
:10292000C6010E945D0A90E0F70193838283F4E080
:10293000EF0EF11C0033110531F7B8E9EB2EB8E0CA
:10294000FB2E68012FEFC21AD20AC8010E945D0A4D
:10295000F70181937F0186010A33110591F700E0A9
:1029600012E07601FFEFEF1AFF0AC6010E945D0A2E
:10297000F80181938F016701FBE5EF16F10489F7F8
:1029800087010F5F1F4FC7010E945D0AD82EB70154
:102990006B55710981E29AE00E94F201FC01D0823C
:1029A00078010C37110561F778012FEFE21AF20A6E
:1029B000C8010E945D0AD82EB8016C5771098BE1DD
:1029C0009AE00E94F201FC01D08287010D391105C5
:1029D00059F7A1E2EA2EA2E0FA2E8DE990E08C01EF
:1029E0000F5F1F4F0E945D0AF70181937F01C801AD
:1029F0000E3B1105A1F7F2E4EF2EF2E0FF2E680185
:102A0000FFEFCF1ADF0AC8010E945D0AF701819328
:102A10007F0186010F3D110591F78EEE93E00E9434
:102A2000250B62E370E080E090E00E9477046AE0AA
:102A300074E082E799E00E94340B6091CA087091BB
:102A4000CB088091CC089091CD08E8EECE2EE3E043
:102A5000DE2EE12CF12CA70196010E942921CA014A
:102A6000B9010E94140B62E370E080E090E00E94E4
:102A7000770466E174E082E799E00E94340B60918C
:102A80006E0870916F088091700890917108A7018D
:102A900096010E942921CA01B9010E94140B62E328
:102AA00070E080E090E00E94770460E274E082E7EA
:102AB00099E00E94340B02E718E0F80161917191EE
:102AC0008F0182E799E00E94DA0AF8E00E371F07CB
:102AD000A1F70E94790A62E370E080E090E00E9432
:102AE00077046BE274E082E799E00E94340B2EE7F2
:102AF00038E03C8F2B8FEB8DFC8D61917191FC8FB9
:102B0000EB8F82E799E00E94DA0A2B8D3C8D2A58E0
:102B1000384089F70E94790A62E370E080E090E033
:102B20000E94770465E374E082E799E00E94340B29
:102B30005AE8E52E58E0F52E10E000E0F70161912B
:102B400071917F0182E799E00E94DA0A0530110550
:102B500031F06CE374E082E799E00E94340B0F5F80
:102B60001F4F0630110551F70E94790A62E370E0A9
:102B700080E090E00E9477046FE374E082E799E0E0
:102B80000E94340B4EE6E42E48E0F42E0EE418E0EA
:102B9000F8016081718182E799E00E94DA0A6CE3B2
:102BA00074E082E799E00E94340BF801628173813E
:102BB00082E799E00E94DA0A6CE374E082E799E028
:102BC0000E94340B0E94790A0C5F1F4FE016F10639
:102BD000F9F662E370E080E090E00E94770467E439
:102BE00074E082E799E00E94340B88E998E00E9443
:102BF000250B65E574E082E799E00E94340B80E0E4
:102C000092E00E94250B65E674E082E799E00E945D
:102C1000340B81E29AE00E947F0A67E774E082E762
:102C200099E00E94340B8BE19AE00E947F0A87E8CA
:102C300094E00E94250B0E9467096DE773E08CEB1E
:102C40009AE00E94340B61E080E00E94360969EA54
:102C500074E08CEB9AE00E94340B38EE432E33E0A4
:102C6000532E612C712C82E799E00E947102181694
:102C700019060CF00FC167E273E0CE0143960E9483
:102C8000CC0C0E947E0697FD1EC08A309105D9F0BB
:102C900089831A820F89188D0F5F1F4FB801CE01EB
:102CA00043960E94A40C882361F32B893C898F8969
:102CB000988DBE016F5F7F4F820F931F0E946B2321
:102CC000188F0F8BDECF64EF71E080E090E00E9400
:102CD000770465EB74E0CE0101960E94CC0CBE0136
:102CE0006F5F7F4FCE0143960E94360C182FCE01A6
:102CF00001960E949C0C112309F402C544E050E0A7
:102D0000BE016D5E7F4FCE0101960E945F0DBE0138
:102D10006F5F7F4FCE0143960E94510CCE0101960A
:102D20000E949C0C6AE675E0CE0101960E94CC0CD4
:102D3000BE016F5F7F4FCE0143960E94360C182F65
:102D4000CE0101960E949C0C112321F14AE050E033
:102D5000BE016D5E7F4FCE0101960E945F0DCE01D8
:102D600001960E945F0A9B01AC01A8EEB3E00E94AD
:102D70000F216093CA087093CB088093CC0890937E
:102D8000CD08CE0101960E949C0C8AEB94E00E9433
:102D9000250B7CC06CE775E0CE0101960E94CC0C3F
:102DA000BE016F5F7F4FCE0143960E94360C182FF5
:102DB000CE0101960E949C0C112311F148E050E0D5
:102DC000BE016D5E7F4FCE0101960E945F0DCE0168
:102DD00001960E945F0A9B01AC01A8EEB3E00E943D
:102DE0000F2160936E0870936F0880937008909322
:102DF0007108CE0101960E949C0C87EC94E0C7CF2D
:102E00006CE875E0CE0101960E94CC0CBE016F5FAC
:102E10007F4FCE0143960E94360C182FCE010196AB
:102E20000E949C0C112309F42BC149E050E0BE0123
:102E30006D5E7F4FCE0101960E945F0D0D811E8158
:102E4000F12CE12CE016F10690F4B701CE010196C9
:102E50000E94E101F701EE0FFF1FEE58F74F21E04E
:102E600030E0813311F030E020E031832083FFEF48
:102E7000EF1AFF0A26E0E216F10421F782ED94E052
:102E80000E94250BCE0101960E949C0CCE01439618
:102E90000E949C0C8091D408811172C08091D3084B
:102EA00081112EC787E20E94B403892B09F028C73D
:102EB00081E08093D4081092D3081092D2080E9427
:102EC000AA046093CE087093CF088093D0089093A3
:102ED000D10810929708109296081092C908109283
:102EE000C8081092C7081092C6081092C50801EED3
:102EF00012E087EDE82E82E0F82EF7018081F2E003
:102F0000EF0EF11C60E00E94E003F80180810E5F8B
:102F10001F4F60E00E94E0032E143F0471F70E94EF
:102F2000670960E072E08CEB9AE00E94340B0E942B
:102F3000B604882321F081E090E00E941E0668EB31
:102F40007BE080E090E00E9477040E94AA04685E23
:102F50007340810991096093BD087093BE08809306
:102F6000BF089093C0080E94360B6CE271E080E0CD
:102F700090E00E9477048091D408882309F4C0C6A9
:102F80008091D3088111BCC68091D2088111ECC414
:102F90000E94360B0E94AA040091CE081091CF081F
:102FA0002091D0083091D108601B710B820B930BDC
:102FB0000091CA081091CB082091CC083091CD081F
:102FC000601771078207930750F181E08093D3085F
:102FD0000E94670962E472E08CEB9AE00E94340B75
:102FE00061E080E00E9436096BE376E08CEB9AE0CA
:102FF0000E94340B83E090E00E941E060BEE12E06C
:10300000B1EEEB2EB2E0FB2EF7018081F2E0EF0E85
:10301000F11C61E00E94E0030E151F05A9F781E095
:103020008093930A0E94AA040091830A1091840A53
:103030002091850A3091860AAB01BC01401B510BDF
:10304000620B730B80918F0A9091900AB0E0A0E020
:1030500084179507A607B70708F058C610E08091B7
:103060008D0A181708F00FC5E091890AF0918A0AB5
:10307000E10FF11D62E080810E9412041F5FEFCF1B
:103080006DE975E0CE0101960E94CC0CBE016F5F28
:103090007F4FCE0143960E94360C182FCE01019629
:1030A0000E949C0C112351F148E050E0BE016D5E7E
:1030B0007F4FCE0101960E945F0D0D811E81F12C84
:1030C000E12CE016F10680F4B701CE0101960E94D2
:1030D000E101F701EE0FFF1FE258F74F082E000C39
:1030E000990BC097918380833FEFE31AF30A46E080
:1030F000E416F10431F78EED94E0C2CE6DEA75E08E
:10310000CE0101960E94CC0CBE016F5F7F4FCE01B5
:1031100043960E94360C182FCE0101960E949C0CFB
:10312000112309F46FC045E050E0BE016D5E7F4F92
:10313000CE010D960E945F0D10E000E0B12CA12C95
:10314000F12CE12CC988DA880C151D0508F053C054
:10315000B801CE010D960E94E1018C3231F051E0B0
:10316000C51AD1080C151D05C9F567E273E0CE013B
:1031700007960E94CC0C89899A890197081719072C
:1031800081F5A501BE01635F7F4FCE0101960E94CC
:103190005F0DBE016F5F7F4FCE0107960E94510CFD
:1031A000CE0101960E949C0C86E0E816F1045CF4C6
:1031B000CE0107960E945F0AF701EE0FFF1FE65748
:1031C000F74F7183608358019FEFA91AB90AEFEF97
:1031D000EE1AFE0ACE0107960E949C0C0F5F1F4F4D
:1031E000B1CF9801A501BE01635F7F4FCE0101966B
:1031F0000E94FD0CCECF89EE94E00E94250BCE01FB
:103200000D9642CE6CEB75E0CE0101960E94CC0C7F
:10321000BE016F5F7F4FCE0143960E94360C182F80
:10322000CE0101960E949C0C112309F47BC046E05C
:1032300050E0BE016D5E7F4FCE010D960E945F0D86
:1032400010E000E0D12CC12C912C812CF12CE12C30
:10325000A988BA880A151B0508F061C0B801CE011B
:103260000D960E94E1018C3239F0F1E0AF1AB108FD
:103270000A151B0509F042C067E273E0CE0107960C
:103280000E94CC0C89899A89019708171907C9F5FA
:10329000A401BE01635F7F4FCE0101960E945F0DC6
:1032A000BE016F5F7F4FCE0107960E94510CCE0189
:1032B00001960E949C0CF8E0EF16F104BCF4CE01DC
:1032C00007960E945F0AF701EE0FFF1FEC0DFD1D30
:1032D000EE0FFF1FE25BF74F71836083CA94CD2826
:1032E000D1F43FEFE31AF30AD12CC12C48014FEF80
:1032F000841A940ACE0107960E949C0C0F5F1F4F00
:10330000A7CF9801A401BE01635F7F4FCE01019654
:103310000E94FD0CC5CFCC24C394D12CE7CF81EF04
:1033200094E06BCF6AEC75E0CE0101960E94CC0C64
:10333000BE016F5F7F4FCE0143960E94360C182F5F
:10334000CE0101960E949C0C1123A1F048E050E0B0
:10335000BE016D5E7F4FCE0101960E945F0D4AE077
:1033600050E068E978E0CE0101960E94E2098AEF18
:1033700094E086CD8F89988D892B09F4DFC068E0B1
:1033800075E08B899C890E9462237C01892B09F05E
:10339000D5C06AEC78E090E080E00E942D0A6EE6ED
:1033A00078E084E090E00E942D0A02E718E088E0CF
:1033B00090E0F80160810E5F1F4F6C01FFEFCF1AA4
:1033C000DF0A0E94050AC6018E30910591F75EE77B
:1033D000A52E58E0B52EF5016081F2E0AF0EB11CCC
:1033E00086010F5F1F4FC6010E94050A6801043164
:1033F000110589F7A8014A58574F6A01580152E050
:10340000A50EB11CF60191906F01C8010E94F92030
:10341000981621F0692DC8010E9401210F5F1F4FEE
:10342000A016B10679F70032110521F74EE4C42E3B
:1034300048E0D42E5801FFEFAF1ABF0AF6016081B1
:10344000C8010E94050A0E5F1F4FF6016281C50187
:103450000E94050AF4E0CF0ED11C0033110551F78C
:1034600038E9A32E38E0B32EF50161915F016801C0
:10347000FFEFCF1ADF0AC8010E94050A86010A334E
:10348000110591F700E012E0F80161918F015601FA
:10349000FFEFAF1ABF0AC6010E94050A65012BE5BE
:1034A000A216B10489F710E000E0B80181E29AE0C9
:1034B0000E94F201FC016081C801855A9F4F0E9461
:1034C000050A0F5F1F4F0132110579F7B7018BE134
:1034D0009AE00E94F201FC016081C70184589F4F6D
:1034E0000E94050AFFEFEF1AFF0A21E2E216F1043B
:1034F00069F701E212E08DE990E0F80161918F0136
:103500006C01FFEFCF1ADF0A0E94050AC6018E3B4D
:10351000910599F702E412E0F80161918F017601BB
:10352000FFEFEF1AFF0AC6010E94050A67012FED9F
:10353000E216F10489F785E095E029CC6DE075E0AD
:10354000CE0101960E94CC0CBE016F5F7F4FCE0171
:1035500043960E94360C182FCE0101960E949C0CB7
:10356000112309F493CC44E050E0BE016D5E7F4F1F
:10357000CE0101960E945F0DBE016F5F7F4FCE01AD
:1035800043960E94510CCE0101960E949C0C6EED58
:1035900075E0CE0101960E94CC0CBE016F5F7F4F9B
:1035A000CE0143960E94360C182FCE0101960E9440
:1035B0009C0C1123A1F046E050E0BE016D5E7F4FF0
:1035C000CE0101960E945F0D41E250E060E072E0A2
:1035D000CE0101960E94E20982E195E051CC60EFB4
:1035E00075E0CE0101960E94CC0CBE016F5F7F4F4B
:1035F000CE0143960E94360C182FCE0101960E94F0
:103600009C0C112361F048E050E0BE016D5E7F4FDD
:10361000CE0101960E945F0D8FE195E031CC64E010
:1036200076E0CE0101960E94CC0CBE016F5F7F4F09
:10363000CE0143960E94360C182FCE0101960E94AF
:103640009C0C112361F046E050E0BE016D5E7F4F9F
:10365000CE0101960E945F0D8EE295E011CC66E1ED
:1036600076E0CE0101960E94CC0CBE016F5F7F4FC9
:10367000CE0143960E94360C182FCE0101960E946F
:103680009C0C1123A1F048E050E0BE016D5E7F4F1D
:10369000CE0101960E945F0D41E250E061E272E0CE
:1036A000CE0101960E94E2098BE395E0E9CB6AE244
:1036B00076E0CE0101960E94CC0CBE016F5F7F4F79
:1036C000CE0143960E94360C182FCE0101960E941F
:1036D0009C0C112309F4DACB47E050E0BE016D5E8B
:1036E0007F4FCE0101960E945F0D41E250E062E4FF
:1036F00072E0CE0101960E94E2098AE495E0C0CB17
:103700008F89988D892B09F4C1CB0B891C8968E5B9
:1037100075E0C8010E9462236C01892B09F0E9C0A1
:1037200063E675E082E799E00E94340B6091CA0875
:103730007091CB088091CC089091CD08A3019201A3
:103740000E942921CA01B9010E94140B65E775E0A6
:1037500082E799E00E94340B60916E0870916F08C7
:103760008091700890917108A30192010E94292113
:10377000CA01B9010E94140B65E875E082E799E07F
:103780000E94340B02E718E0F801619171918F01FA
:1037900082E799E00E94DA0AF8E00E371F07A1F7E6
:1037A0000E94790A66E975E082E799E00E94340B8D
:1037B0000EE718E0F801619171918F0182E799E0BD
:1037C0000E94DA0A2B8D3C8D2017310799F70E9451
:1037D000790A66EA75E082E799E00E94340B2AE8EC
:1037E000E22E28E0F22E10E000E0F70161917191E5
:1037F0007F0182E799E00E94DA0A0530110531F075
:1038000063EB75E082E799E00E94340B0F5F1F4F76
:103810000630110551F70E94790A65EB75E082E7E1
:1038200099E00E94340B0EE418E0F8016081718188
:1038300082E799E00E94DA0A63EB75E082E799E09B
:103840000E94340BF8016281738182E799E00E9443
:10385000DA0AF7E0CF16D10431F063EB75E082E7C6
:1038600099E00E94340B2FEFC21AD20A0C5F1F4F4F
:1038700038E0C316D104C9F60E94790A63EC75E0FA
:1038800082E799E00E94340B88E998E00E94250BBA
:1038900063ED75E082E799E00E94340B80E092E0EE
:1038A0000E94250B65EE75E082E799E00E94340BDB
:1038B00081E29AE00E947F0A69EF75E082E799E071
:1038C0000E94340B8BE19AE00E947F0A6BE076E065
:1038D00082E799E00E94340B81E292E00E94250B7E
:1038E0006FE176E082E799E00E94340B82E492E097
:1038F0004ECA65E376E0C8010E946223892B09F075
:10390000C5CA1092D4081092D30801EE12E097EDC8
:10391000E92E92E0F92EF7018081F2E0EF0EF11C22
:1039200060E00E94E003F80180810E5F1F4F60E0BD
:103930000E94E003F1EEEF16F2E0FF0661F70E944D
:1039400067096DE773E08CEB9AE00E94340B61E04D
:1039500080E00E94360969EA74E08CEB9AE00E94EC
:10396000340B82E396E013CA0E94AA04C090C108F7
:10397000D090C208E090C308F090C4086C197D098B
:103980008E099F0961367A4E81059105A8F1109242
:10399000D2080E9467096BE376E08CEB9AE00E9404
:1039A000340B61E080E00E9436096BE17AE08CEB39
:1039B0009AE00E9405020E94E0080E94B604882353
:1039C00021F085E090E00E941E060E94C30860ED91
:1039D00077E080E090E00E9477040E94AA04685E8D
:1039E0007340810991096093BD087093BE0880936C
:1039F000BF089093C008CECA0E94AA040091B908DB
:103A00001091BA082091BB083091BC08601B710B63
:103A1000820B930B683E73408105910508F4BACA86
:103A20000E94AA046093B9087093BA088093BB08F7
:103A30009093BC080E94AA0430E6C30E3AEED31E4F
:103A4000E11CF11CA7019601261B370B480B590BF3
:103A5000CA01B901A30192010E94292169018901CA
:103A600060E08EE00E9436090A30110534F468E304
:103A700073E08CEB9AE00E94340BB6018CEB9AE079
:103A80000E94DA0A87CA912C80918E0A981608F053
:103A900063C0E92CF12CE0918B0AF0918C0AEE0DB9
:103AA000FF1D61E080810E941204E0918B0AF09179
:103AB0008C0AEE0DFF1D60E080810E94E00381E032
:103AC00090E0A0E0B0E0092C04C0880F991FAA1F65
:103AD000BB1F0A94D2F75C016C01C094D094812C76
:103AE00080918D0A881608F5082D10E0E091890A6A
:103AF000F0918A0AE00FF11F80810E94B4030C5FED
:103B00001F4F000F111FF801E95DF54F892B41F49C
:103B1000808191818A299B29918380838394E0CF3E
:103B2000808191818C219D21F7CFE0918B0AF091CA
:103B30008C0AEE0DFF1D61E080810E94E003809100
:103B40008B0A90918C0AE80EF91E60E0F7018081E3
:103B50000E941204939498CFF7E2EF2EFAE0FF2E22
:103B600083E69AE08701F801278D30A1232B31F4F9
:103B7000148E2FEF3FEF368F258F11A20A5F1F4F54
:103B80008017910781F7D12CE6E0BE2E80918D0A37
:103B9000D81608F052C0C12C8D2C912C880C991C81
:103BA000A401415D554F4A0120918E0AC21608F0CA
:103BB00042C0F401608171810C2C02C0769567953A
:103BC0000A94E2F7D29E900111242C0D311DE7E2F8
:103BD000FAE080E0458D568D2417350709F4C0C200
:103BE0008F5F36968A30B1F760FF23C0E7E2FAE0D4
:103BF00090E080E0448D411117C0E091870AF09178
:103C0000880AE20FF31F4081B89EF001B99EF00DC3
:103C10001124E95DF54F448F368F258F10A2178E42
:103C200061E00E94220605C0019636968A30910511
:103C300009F7C394B9CFD394A9CF80E0F701D1A0FD
:103C4000D11001C0D82EF6E0EF0EF11C0E151F05A5
:103C500009F05AC00E94AA046093830A7093840AF0
:103C60008093850A9093860ADD2009F44FC08091E5
:103C7000480A882309F44AC08091460A9091470A6D
:103C8000019709F043C01091430A111142C080917D
:103C9000C9088823A9F18091C808882389F18091F7
:103CA000C708882369F18091C608882349F180916B
:103CB000C508882329F181E08093D3080E94670911
:103CC00061E272E08CEB9AE00E94340B61E080E0EC
:103CD0000E94360969E277E08CEB9AE00E94340B8F
:103CE00082E090E00E941E0607ED12E0F80180815C
:103CF0000E5F1F4F61E00E94E00320163106B1F70E
:103D00000E9420030C9433168D2D98CF1092930AA5
:103D1000BECFD090D208D11079C08FEB810F843004
:103D200018F01A3209F0B3CF81E08093D2081093D3
:103D3000B8080E94AA046093C1087093C2088093D7
:103D4000C3089093C4081092B7081092B608109256
:103D5000A2080E946709123491F17CF41A3209F426
:103D600048C01134D9F00E94B604882309F48FCFDB
:103D700086E090E00E941E068ACF133469F1143465
:103D800091F764E976E08CEB9AE00E94340B61E0F5
:103D900080E00E9436096FE976E00CC066E476E0C8
:103DA0008CEB9AE00E94340B61E080E00E943609BF
:103DB00062E576E08CEB9AE00E94340BD4CF62E6A9
:103DC00076E08CEB9AE00E94340B61E080E00E9488
:103DD00036096EE676E0EECF6FE776E08CEB9AE0A0
:103DE0000E94340B61E080E00E94360965E876E0CD
:103DF000E1CF60EB76E08CEB9AE00E94340B61E05F
:103E000080E00E9436096CEB76E0D4CF8091B80850
:103E1000133209F077C11092D208823409F4BFC07E
:103E200004F58A3209F422C102E718E063EBE62EBA
:103E300062E0F62E8134E9F060ED77E080E090E01A
:103E40000E9477040E94AA04685E73408109910968
:103E50006093BD087093BE088093BF089093C0081C
:103E600016CF833409F4C0C0843431F70E946B0D3F
:103E7000E3CFF7018081F2E0EF0EF11C0E94B40362
:103E8000F801419151918F0121E030E0892B11F02F
:103E900030E020E04217530709F050C0298D3A8DD9
:103EA0002E153F0531F70E946709DD2009F448C04F
:103EB00081E08093C90880919608909197089C01B1
:103EC0002F5F3F4F30939708209396082630310597
:103ED000DCF4880F991FFC01E952FD4F61E08081FD
:103EE0000E94E00369EC76E082E799E00E94340BDF
:103EF00060919608709197086150710982E799E086
:103F00000E94DA0A0E94790A6FED76E08CEB9AE063
:103F10000E94340B61E080E00E94360961E27AE0A1
:103F20008CEB9AE00E9405020E94B604882309F4F3
:103F300083CF84E090E00E941E067ECFD12CB3CFC9
:103F400061EF76E08CEB9AE00E94340B61E080E058
:103F50000E9436096BE17AE08CEB9AE00E94050240
:103F60000E94E0080E94B604882321F085E090E0DA
:103F70000E941E060E94C3085FCF06301105C9F4D7
:103F800081E08093C80880919608909197080196E7
:103F900090939708809396086BE477E084C03EE79F
:103FA000E32E38E0F32E4FEBC42E42E0D42E10E087
:103FB00000E0F6018081F2E0CF0ED11C0E94B40334
:103FC000F701419151917F010F5F1F4F21E0892B34
:103FD00009F020E081E04017510709F080E0281740
:103FE00061F269E377E07FC0EBECF2E027ED32E0CD
:103FF000AAE8B8E080813296863308F08653409173
:104000007B00982F9870477F942B90937B0087704C
:10401000806480937C0080917A00806480937A0031
:1040200080917A0086FDFCCF809178009091790094
:104030004D915D91841B950B97FF03C091958195E0
:104040009109C3970CF08EC02E173F0799F681E0B7
:104050008093C70880919608909197080196909355
:1040600097088093960865E777E01DC0E091B60851
:10407000F091B708EE55F74F108268E978E082EAD0
:1040800098E00E946223892B61F581E08093C50846
:104090008091960890919708019690939708809345
:1040A000960861E077E0CE0101960E94CC0CCE012B
:1040B00001960E94A709CE0101960E949C0C809156
:1040C000960890919708863091050CF032CF880FB2
:1040D000991FFC01EB52FD4F61E080810E94E003DB
:1040E00028CF66E177E0CE0101960E94CC0CCE018C
:1040F00001960E947209CE0101960E949C0C0E94BA
:10410000E00834CF8A3209F0C2CD1A3209F4BFCDAB
:104110008091B6089091B708833191050CF0B7CD26
:104120009C012F5F3F4F3093B7082093B6088E5500
:10413000974FFC0110832E55374FF901108261E033
:1041400080E00E9436096CEB76E08CEB9AE00E94EE
:10415000340B62EA78E08CEB9AE00E94340B97CD46
:1041600061705FCD6FE577E0BECF8BE19AE00E9492
:104170009C0C81E29AE00C949C0C1F93FC01992703
:104180008827BC01E89411911032E9F3193010F03E
:104190001E30C8F31B3251F01D3249F4689406C03A
:1041A0000E94E420610F711D811D911D119110531A
:1041B0001A30B0F33EF490958095709561957F4FDD
:1041C0008F4F9F4F1F910895592F482F372F262F1C
:1041D000660F771F881F991F660F771F881F991F0B
:1041E000620F731F841F951F660F771F881F991F0B
:1041F0000895F999FECF92BD81BDF89A992780B5AF
:104200000895262FF999FECF1FBA92BD81BD20BD1A
:104210000FB6F894FA9AF99A0FBE019608950E9483
:104220001A21A59F900DB49F900DA49F800D911D04
:1042300011240895A29FB001B39FC001A39F700DE8
:10424000811D1124911DB29F700D811D1124911D9E
:104250000895A1E21A2EAA1BBB1BFD010DC0AA1FC7
:10426000BB1FEE1FFF1FA217B307E407F50720F0DF
:10427000A21BB30BE40BF50B661F771F881F991F5A
:104280001A9469F760957095809590959B01AC01A3
:10429000BD01CF010895EE0FFF1F881F8BBF079050
:1042A000F691E02D19940F931F93CF93DF938230F3
:1042B000910510F482E090E0E091CA0AF091CB0AF7
:1042C00030E020E0B0E0A0E0309799F4211531050E
:1042D00009F44AC0281B390B24303105D8F58A81EE
:1042E0009B816115710589F1FB0193838283FE0136
:1042F00011C0408151810281138148175907E0F0B4
:104300004817590799F4109761F012960C93129779
:1043100013961C933296CF01DF91CF911F910F918D
:1043200008950093CA0A1093CB0AF4CF21153105E2
:1043300051F04217530738F0A901DB019A01BD0182
:10434000DF01F801C1CFEF01F9CF9093CB0A809341
:10435000CA0ACDCFFE01E20FF31F81939193225041
:10436000310939832883D7CF2091C80A3091C90AEF
:10437000232B41F420917D0230917E023093C90AB3
:104380002093C80A20917B0230917C0221153105CF
:1043900041F42DB73EB740917F0250918002241B1B
:1043A000350BE091C80AF091C90AE217F307A0F4AF
:1043B0002E1B3F0B2817390778F0AC014E5F5F4F7B
:1043C0002417350748F04E0F5F1F5093C90A4093DA
:1043D000C80A819391939FCFF0E0E0E09CCFCF9308
:1043E000DF930097E9F0FC01329713821282A091CB
:1043F000CA0AB091CB0AED0130E020E01097A1F499
:1044000020813181820F931F2091C80A3091C90AFF
:104410002817390709F061C0F093C90AE093C80A68
:10442000DF91CF910895EA01CE17DF07E8F54A81C1
:104430005B819E0141155105B1F7E901FB83EA83D8
:1044400049915991C40FD51FEC17FD0761F4808184
:1044500091810296840F951FE90199838883828157
:1044600093819B838A83F0E0E0E012968D919C918A
:1044700013970097B9F52D913C911197CD010296B4
:10448000820F931F2091C80A3091C90A2817390753
:1044900039F6309751F51092CB0A1092CA0AB093B0
:1044A000C90AA093C80ABCCFD383C283408151817B
:1044B000840F951FC817D90761F44E5F5F4F88813D
:1044C0009981480F591F518340838A819B8193832F
:1044D00082832115310509F0B0CFF093CB0AE09328
:1044E000CA0A9ECFFD01DC01C0CF13821282D7CF52
:1044F0004F925F926F927F928F929F92AF92BF92F4
:10450000CF92DF92EF92FF920F931F93CF93DF939F
:104510008C01009799F4CB01DF91CF911F910F91FE
:10452000FF90EF90DF90CF90BF90AF909F908F90D3
:104530007F906F905F904F900C945321FC01E60F99
:10454000F71F9C0122503109E217F30708F4AEC0AF
:10455000D901CD91DC911197C617D70720F1C5304D
:10456000D10578F0CE0104978617970750F0C61B47
:10457000D70B2297C193D1936D937C93CF010E9467
:10458000EF21C801DF91CF911F910F91FF90EF9024
:10459000DF90CF90BF90AF909F908F907F906F9063
:1045A0005F904F9008955B01AC1ABD0A4C018C0ED0
:1045B0009D1EA091CA0AB091CB0A512C412CF12C1E
:1045C000E12C109731F58091C80A9091C90A88159D
:1045D000990509F05CC04616570608F058C080914E
:1045E0007B0290917C02009741F48DB79EB7409179
:1045F0007F0250918002841B950BE817F90708F0A1
:1046000055C0F093C90AE093C80AF9017183608329
:10461000B8CF8D919C91119712966C90129713962A
:104620007C901397A815B90559F56C0142E0C40EAA
:10463000D11CCA14DB0420F1AC014A195B09DA0170
:104640001296159780F06282738251834083D9015C
:104650006D937C93E114F10471F0D7011396FC93F0
:10466000EE9312978ECF22968C0F9D1FF9019183A6
:104670008083F301EFCFF093CB0AE093CA0A81CF96
:104680004816590608F42C017D01D3019ACFCB01BD
:104690000E9453217C01009749F0AE01B8010E94AD
:1046A0005923C8010E94EF2187016BCF10E000E081
:1046B00068CFFB01DC0102C001900D9241505040D7
:1046C000D8F70895FB01DC018D910190801901104C
:1046D000D9F3990B0895FB01DC0101900D920020A4
:1046E000E1F70895FB01DC014150504030F08D911D
:1046F0000190801919F40020B9F7881B990B0895CF
:10470000FB01DC014150504048F001900D92002027
:10471000C9F701C01D9241505040E0F7089511E0E3
:10472000C1E6D1E000E006C0802FFE010E944B21CF
:104730002196011DC236D10780E00807A9F7F89439
:10474000FFCF47616D6520537461727465642120E9
:10475000476F6F64206C75636B21000000000000E0
:10476000000000566963746F72792120416C6C20DF
:104770007461736B7320646F6E652100000000002C
:104780000000000047616D65204F7665722120545E
:10479000696D65277320757021000000000000001E
:1047A000000000000008090C0D3E3F40413132334B
:1047B0004134353642373839432A3023440000CC5F
:1047C0000A800000004000140054007EFF06000133
:1047D00000000000EF1E001F002000210022002327
:1047E000002400250029002A002B002C002D002E7B
:1047F000002F00300016001700180019001A001BC7
:104800000002000300040005000600070036003720
:1048100000380039003A003B0032003300340035E4
:10482000003C001C001D0025002800310000000095
:1048300000B30213024002000371024F0263020040
:10484000000000AA077D07C00853077607630754D6
:1048500007000000004E040E04DD0300000000DC31
:10486000091302C00804020D0A0054696D65207224
:10487000656D61696E696E673A0030004A61636B0D
:1048800020636F6E6E656374696F6E73204F4B218A
:10489000004A61636B20636F6E6E656374696F6E4F
:1048A000732077726F6E67210057656C6C20646FA0
:1048B0006E65210054727920616761696E21004B39
:1048C0006579706164204C45442047616D650049FD
:1048D0006E697469616C697A696E672E2E2E005359
:1048E000442043617264204572726F7221004368F4
:1048F00065636B2053442043617264004D50332044
:10490000506C61796572204572726F720047616DFB
:10491000652077696C6C20636F6E74696E756500D5
:1049200054657374696E67204C4544732E2E2E00B7
:104930002D2D2D73617665642020436F6E66696747
:1049400075726174696F6E202D2D2D00436F756E29
:1049500074646F776E3A200050656E616C74793ABA
:10496000200053776974636865733A200042757458
:10497000746F6E733A2000506F74733A20002C20CD
:10498000004A61636B733A20004B65797061642063
:10499000436F64653A20005374617274204D6573EF
:1049A000736167653A2000436F7272656374204DCE
:1049B0006573736167653A200057726F6E67204DAB
:1049C0006573736167653A20006E6F7720636F6E61
:1049D0006E65637420746865204755492020636FB5
:1049E0006E666967757261746F7200507265737379
:1049F000205354415254005345543A004F4B3A43CC
:104A00004F554E54444F574E004F4B3A50454E4130
:104A10004C5459004F4B3A5357495443484553005F
:104A20004F4B3A425554544F4E53004F4B3A504F10
:104A30005453004F4B3A4A41434B53004F4B3A4B70
:104A40004559434F4445004F4B3A53415645004D5D
:104A500053473A004F4B3A4D53473A5354415254FF
:104A6000004F4B3A4D53473A434F5252454354003F
:104A70004F4B3A4D53473A57524F4E47004F4B3AE0
:104A80004D53473A564943544F5259004F4B3A4DB4
:104A900053473A444546454154004745543A434FED
:104AA0004E46494700434F4E4649473A434F554EBD
:104AB00054444F574E3A00434F4E4649473A5045AB
:104AC0004E414C54593A00434F4E4649473A53578A
:104AD0004954434845533A00434F4E4649473A42AA
:104AE0005554544F4E533A00434F4E4649473A505F
:104AF0004F54533A002C00434F4E4649473A4A41DF
:104B0000434B533A00434F4E4649473A4B4559436E
:104B10004F44453A00434F4E4649473A4D53473A72
:104B200053544152543A00434F4E4649473A4D532D
:104B3000473A434F52524543543A00434F4E464939
:104B4000473A4D53473A57524F4E473A00434F4E1C
:104B50004649473A4D53473A564943544F52593ABA
:104B600000434F4E4649473A4D53473A4445464520
:104B700041543A004F4B3A52455345540054696DE5
:104B800065277320757021005377697463682073FB
:104B900065712E005365742073776974636865735B
:104BA0002E2E2E00427574746F6E207365712E0068
:104BB000507265737320627574746F6E732E2E2E2F
:104BC00000506F74732E0041646A75737420706FA7
:104BD00074732E2E2E004A61636B20636F6E6E2EEF
:104BE00000436F6E6E656374206A61636B732E2E73
:104BF0002E004B657970616420636F646500456EBB
:104C000074657220636F64653A20005475726E6932
:104C10006E67206F6E20475245454E204C4544201C
:104C200000537769746368657320636F727265639C
:104C300074210053776974636865732077726F6EAF
:104C40006721004B657970616420636F6465206340
:104C50006F727265637421004B65797061642063C3
:104C60006F64652077726F6E672100416C6C2074F1
:104C700061736B7320646F6E652100427574746F8D
:104C80006E207365712077726F6E672100427574B4
:104C9000746F6E2073657120636F72726563742127
:104CA00000506F74656E74696F6D65746572732002
:104CB00077726F6E672100506F74656E74696F6DE7
:0A4CC0006574657273204F4B2100EC
:020000040003F7
:10E000000D9489F10D94B2F10D94B2F10D94B2F129
:10E010000D94B2F10D94B2F10D94B2F10D94B2F1F0
:10E020000D94B2F10D94B2F10D94B2F10D94B2F1E0
:10E030000D94B2F10D94B2F10D94B2F10D94B2F1D0
:10E040000D94B2F10D94B2F10D94B2F10D94B2F1C0
:10E050000D94B2F10D94B2F10D94B2F10D94B2F1B0
:10E060000D94B2F10D94B2F10D94B2F10D94B2F1A0
:10E070000D94B2F10D94B2F10D94B2F10D94B2F190
:10E080000D94B2F10D94B2F10D94B2F10D94B2F180
:10E090000D94B2F10D94B2F10D94B2F10D94B2F170
:10E0A0000D94B2F10D94B2F10D94B2F10D94B2F160
:10E0B0000D94B2F10D94B2F10D94B2F10D94B2F150
:10E0C0000D94B2F10D94B2F10D94B2F10D94B2F140
:10E0D0000D94B2F10D94B2F10D94B2F10D94B2F130
:10E0E0000D94B2F141546D656761323536300041AF
:10E0F000726475696E6F206578706C6F72657220DE
:10E1000073746B3530305632206279204D4C530099
:10E11000426F6F746C6F616465723E004875683F52
:10E1200000436F6D70696C6564206F6E203D200048
:10E130004350552054797065202020203D20005FF9
:10E140005F4156525F415243485F5F3D2000415658
:10E1500052204C696243205665723D20004743437C
:10E160002056657273696F6E203D20004350552024
:10E1700049442020202020203D20004C6F7720663D
:10E18000757365202020203D20004869676820665F
:10E190007573652020203D200045787420667573D6
:10E1A00065202020203D20004C6F636B2066757336
:10E1B000652020203D20004D617220203720323024
:10E1C000313300312E362E3800342E332E350056A2
:10E1D00023202020414444522020206F7020636F70
:10E1E00064652020202020696E73747275637469E1
:10E1F0006F6E2061646472202020496E74657272B3
:10E20000757074006E6F20766563746F7200726A49
:10E210006D702020006A6D70200057686174207056
:10E220006F72743A00506F7274206E6F7420737541
:10E2300070706F72746564004D7573742062652030
:10E2400061206C6574746572002000577269747483
:10E25000696E672045450052656164696E672045B7
:10E26000450045452065727220636E743D00504F35
:10E27000525400303D5A65726F2061646472003FF1
:10E280003D43505520737461747300403D454550C3
:10E29000524F4D207465737400423D426C696E6B41
:10E2A000204C454400453D44756D70204545505215
:10E2B0004F4D00463D44756D7020464C415348001B
:10E2C000483D48656C70004C3D4C69737420492F83
:10E2D0004F20506F72747300513D51756974005234
:10E2E0003D44756D702052414D00563D73686F7707
:10E2F00020696E7465727275707420566563746FF0
:10E30000727300593D506F727420626C696E6B00BD
:10E310002A0011241FBECFEFD1E2DEBFCDBF01E046
:10E320000CBF12E0A0E0B2E0EEE1FDEF03E00BBFB6
:10E3300002C007900D92A030B107D9F712E0A0E01B
:10E34000B2E001C01D92AE30B107E1F70F9460F367
:10E350000D948DFE01E20EBF0FEF0DBF11241FBE05
:10E360000D9460F30D9400F020E030E040ED57E0B4
:10E3700005C0FA013197F1F72F5F3F4F2817390792
:10E38000C0F308959C01260F311DC901A0E0B0E043
:10E390002F5F3F4FABBFFC018791882361F08093D3
:10E3A000C6008091C00086FFFCCF8091C0008064D1
:10E3B0008093C000EACF08958DE08093C6008091DD
:10E3C000C00086FFFCCF8091C00080648093C000B5
:10E3D0008AE08093C6008091C00086FFFCCF8091C8
:10E3E000C00080648093C00008950F94C2F10F9420
:10E3F000DCF10895FC019081992359F09093C600B7
:10E400008091C00086FFFCCF8091C0008064809323
:10E41000C0003196992379F70895282F982F929567
:10E420009F70892F805D8A3308F0895F8093C600D2
:10E430008091C00086FFFCCF8091C00080648093F3
:10E44000C000822F8F70982F905D9A3308F0995FEB
:10E450009093C6008091C00086FFFCCF8091C000E1
:10E4600080648093C00008959C01FB01853691056E
:10E470001CF46330710594F0C90164E670E00F94F8
:10E480002EFE605D7F4F6093C6008091C00086FFC6
:10E49000FCCF8091C00080648093C0002B30310598
:10E4A00014F43297B4F0C90164E670E00F942EFEC4
:10E4B0006AE070E00F942EFE605D7F4F6093C600AF
:10E4C0008091C00086FFFCCF8091C0008064809363
:10E4D000C000C9016AE070E00F942EFEC0968093E0
:10E4E000C6008091C00086FFFCCF8091C000806490
:10E4F0008093C00008951F93182F8EE692EE60E07F
:10E500000F94C2F11093C6008091C00086FFFCCF2B
:10E510008091C00080648093C0000F94DCF11F9153
:10E5200008952F923F924F925F926F927F928F92B7
:10E530009F92AF92BF92CF92DF92EF92FF920F9392
:10E540001F93DF93CF93CDB7DEB762970FB6F894E2
:10E55000DEBF0FBECDBF382E622ECA01DB015C01CB
:10E560006D01772420E2222E2E010894411C511CBB
:10E570008BC081E0A81680E0B80681E0C80680E084
:10E58000D80628F0C601AA27BB270F940DF2BB2797
:10E59000AD2D9C2D8B2D0F940DF28A2D0F940DF225
:10E5A0002092C6008091C00086FFFCCF8091C00001
:10E5B00080648093C0009DE29093C6008091C0006B
:10E5C00086FFFCCF8091C00080648093C0002092C1
:10E5D000C6008091C00086FFFCCF8091C00080649F
:10E5E0008093C00019828601750188249924A1E0D6
:10E5F0003A1651F03A1620F0B2E03B1661F409C029
:10E600000BBFF701779007C0C7010F9477FE782EF4
:10E6100002C0F7017080872D0F940DF22092C60082
:10E620008091C00086FFFCCF8091C0008064809301
:10E63000C000872D8052F401EF70F0708F3520F408
:10E64000E40DF51D708204C0E40DF51D8EE280839B
:10E650000894E11CF11C011D111D0894811C911CE2
:10E6600090E18916910409F0C2CF80E190E0A0E02A
:10E67000B0E0A80EB91ECA1EDB1E198AC2010F9493
:10E68000FAF10F94DCF16A94662009F072CF629679
:10E690000FB6F894DEBF0FBECDBFCF91DF911F91B3
:10E6A0000F91FF90EF90DF90CF90BF90AF909F9031
:10E6B0008F907F906F905F904F903F902F90089534
:10E6C0002F923F924F925F926F927F928F929F9282
:10E6D000AF92BF92CF92DF92EF92FF920F931F9370
:10E6E000DF93CF93CDB7DEB7CD53D1400FB6F894BB
:10E6F000DEBF0FBECDBF01E20EBF0FEF0DBF94B75F
:10E70000F894A89514BE80916000886180936000A1
:10E7100010926000789493FF05C0E0910002F091A0
:10E7200001021995279A2F9A8091C00082608093E8
:10E73000C00080E18093C40088E18093C1000000A4
:10E74000EE24FF24870144E0A42EB12CCC24DD2448
:10E7500024C0C5010197F1F70894E11CF11C011DCB
:10E76000111D21E2E2162EE4F20620E0020720E06D
:10E77000120718F031E0C32ED12CC801B70127ECE5
:10E780003BE140E050E00F9441FE611571058105C9
:10E79000910519F485B1805885B98091C00087FD35
:10E7A00003C0C114D104A9F2A6014F5F5F4FC25E3E
:10E7B000DE4F59834883CE51D140C25EDE4F8881FF
:10E7C0009981CE51D140019711F00D9410FEC05D9A
:10E7D000DE4F19821882C053D14060E0C15DDE4F28
:10E7E0001882CF52D14088249924C35DDE4F19820C
:10E7F0001882CD52D140C05EDE4F188219821A8233
:10E800001B82C052D140CE5CDE4F188219821A8220
:10E810001B82C253D140EE24FF2487010BBFF701B6
:10E8200007911691C45CDE4F19830883CC53D14005
:10E830000D940BFEC25EDE4F28813981CE51D1404E
:10E840002130310509F52091C600C25EDE4F1982E4
:10E850001882CE51D14022C02F5F3F4F4F4F5F4FA4
:10E86000213082E138078AE7480780E0580780F0C6
:10E87000C45CDE4FE881F981CC53D140EF5FFF4F9C
:10E8800019F0EE27FF27099420E030E040E050E047
:10E890008091C00087FFE0CF2091C600C35DDE4FAE
:10E8A00048815981CD52D1404F5F5F4FC35DDE4FEC
:10E8B00059834883CD52D140213209F063C64A3092
:10E8C000510508F05FC60894811C911C53E0851621
:10E8D000910409F059C600E010E018C081E280936D
:10E8E000C6008091C00086FFFCCF8091C00080648C
:10E8F0008093C0002F5F3F4F2931310579F70F9486
:10E90000DCF10F5F1F4F0530110519F020E030E0FA
:10E91000E5CF10920A0210920B0210920C02109294
:10E920000D02109206021092070210920802109235
:10E930000902109202021092030210920402109235
:10E9400005028FEE90EE60E00F94F5F180E191EE1C
:10E9500060E00F94C2F18091C00087FFFCCF9091DE
:10E96000C600903608F09F759032B8F09093C600BC
:10E970008091C00086FFFCCF8091C00080648093AE
:10E98000C000A0E2A093C6008091C00086FFFCCF2B
:10E990008091C00080648093C000983409F4D7C18E
:10E9A0009934B8F4923409F459C1933458F490333B
:10E9B00019F1903308F4E3C59F33A1F1903409F0C5
:10E9C000DEC5BDC0953409F470C1963409F0D7C5D1
:10E9D00098C1923509F42BC2933538F49C3409F46C
:10E9E000F5C1913509F0CBC518C2963509F445C279
:10E9F000993509F0C4C567C483E792EE62E00F94CD
:10EA0000F5F110920602109207021092080210927D
:10EA1000090210920A0210920B0210920C0210923C
:10EA20000D0213C18FE792EE62E00F94F5F18FEEC5
:10EA300090EE60E00F94F5F181E291EE60E00F94CA
:10EA4000C2F187EB91EE60E00F94F5F180E391EE77
:10EA500060E00F94C2F184EE90EE60E00F94F5F167
:10EA60008FE391EE60E00F94C2F186E090E061E008
:10EA700070E00F9434F20F94DCF18DE591EE60E0DC
:10EA80000F94C2F189EC91EE60E00F94F5F18EE401
:10EA900091EE60E00F94C2F183EC91EE60E00F9490
:10EAA000F5F18CE691EE60E00F94C2F18EE10F94E7
:10EAB0000DF288E90F940DF281E00F940DF20F949E
:10EAC000DCF18BE791EE60E00F94C2F119E0E0E039
:10EAD000F0E010935700E4918E2F0F940DF20F94F5
:10EAE000DCF18AE891EE60E00F94C2F1E3E0F0E03F
:10EAF00010935700E4918E2F0F940DF20F94DCF1D8
:10EB000089E991EE60E00F94C2F1E2E0F0E0109349
:10EB10005700E4918E2F0F940DF20F94DCF188EAE8
:10EB200091EE60E00F94C2F1E1E0F0E01093570045
:10EB30001491812F0F940DF20F94DCF107CF8BE825
:10EB400092EE62E00F94F5F18BE492EE60E00F94A8
:10EB5000F5F10F94DCF100E010E019C0C8016F2D51
:10EB60000F947FFEFF2031F489E492EE60E00F9471
:10EB7000C2F10BC0F092C6008091C00086FFFCCFAE
:10EB80008091C00080648093C0000F5F1F4FC80158
:10EB900081519F41A0E0B0E0ABBFFC01F790BAE229
:10EBA000FB1621F0E2E000301E07C1F60F94DCF105
:10EBB0000F94DCF187E592EE60E00F94F5F10F948D
:10EBC000DCF1CC24DD2400E010E01EC0C8010F946D
:10EBD00077FEF82E882331F489E492EE60E00F94FA
:10EBE000C2F10BC08093C6008091C00086FFFCCFAD
:10EBF0008091C00080648093C000FE1419F00894D6
:10EC0000C11CD11C0F5F1F4FC80181519F41A0E063
:10EC1000B0E0ABBFFC01E790FAE2EF1621F022E092
:10EC20000030120799F60F94DCF10F94DCF182E6C4
:10EC300092EE60E00F94C2F1C60161E070E00F94C3
:10EC400034F20F94DCF10F94DCF110920202109276
:10EC50000302109204021092050278CE89E992EE26
:10EC600062E00F94F5F1279A2F9A16C02F9880E052
:10EC700090E0E0EDF7E03197F1F7019684369105E9
:10EC8000C1F72F9A80E090E0E0EDF7E03197F1F7DF
:10EC9000019684369105C1F78091C00087FFE6CFC9
:10ECA0008091C00087FFFCCF64C485EA92EE62E0E9
:10ECB0000F94F5F140910202509103026091040219
:10ECC0007091050281E020E10F9491F2809102029F
:10ECD00090910302A0910402B091050280509F4FD1
:10ECE000AF4FBF4F8093020290930302A0930402A0
:10ECF000B093050280509041A040B04008F426CE69
:10ED0000A4CF83EB92EE62E00F94F5F140910602FE
:10ED100050910702609108027091090280E020E1A1
:10ED20000F9491F28091060290910702A09108023F
:10ED3000B091090280509F4FAF4FBF4F80930602A2
:10ED400090930702A0930802B0930902FFCD80ECD4
:10ED500092EE62E00F94F5F183E792EE60E00F949B
:10ED6000F5F18FE792EE60E00F94F5F18BE892EE0B
:10ED700060E00F94F5F189E992EE60E00F94F5F10F
:10ED800085EA92EE60E00F94F5F183EB92EE60E09D
:10ED90000F94F5F180EC92EE60E00F94F5F187ECC2
:10EDA00092EE60E00F94F5F188ED92EE60E00F9442
:10EDB000F5F18FED92EE60E00F94F5F18AEE92EEB0
:10EDC00060E00F94F5F183E093EEBDCD87EC92EE19
:10EDD00062E00F94F5F181E40F947BF282E40F94EA
:10EDE0007BF283E40F947BF284E40F947BF285E45E
:10EDF0000F947BF286E40F947BF287E40F947BF20E
:10EE000088E40F947BF28AE40F947BF28BE40F94F6
