:100000000C946A010C949B010C949B010C949B0131
:100010000C949B010C949B010C949B010C949B01F0
:100020000C949B010C94160D0C94160D0C94160D4B
:100030000C949B010C949B010C949B010C949B01D0
:100040000C949B010C949B010C949B010C949B01C0
:100050000C949B010C949B010C949B010C94CC0C74
:100060000C949B010C94960C0C946C0C0C949B01BE
:100070000C949B010C949B010C949B010C949B0190
:100080000C949B010C949B010C949B010C949B0180
:100090000C949B010C949B010C949B010C94920D6D
:1000A0000C949B010C949B010C949B010C949B0160
:1000B0000C949B010C949B010C949B010C949B0150
:1000C0000C949B010C949B010C949B010C949B0140
:1000D0000C949B010C949B010C949B010C949B0130
:1000E0000C949B010C94A1070C94EB080C948E07C4
:1000F0000C9445030C9434030C94A8070C947F07CC
:100100000C9430030C9448050C943A050C94830627
:100110000C944F030C94B60E0C9409040C94D40167
:100120000C94D5070C9453030C94B7020C942C0335
:100130000C94C9030C944B030C9485090C946B0329
:100140000C9432020C9424020C94C1010C943803D8
:100150000C9467030C94D3010C9410020C94980334
:100160000C94E0060C945D030C944C050C9426034F
:100170000C9441050C943B030C946B060C944103C6
:100180000C9425050C942C050C946B1D0C946603A3
:100190000C9461030C94C0010C9401020C946A024B
:1001A0000C94F8060C9459030C9484060C944A059C
:1001B00000002100240027002A002D003000330019
:1001C00001010000040107010A0100000A0B0209F5
:1001D0000C0D0E08070304010000000000000000E1
:1001E000000000000000000000000000000000000F
:1001F00000000000000012111000000000000000CC
:1002000000000000000000000000000000000000EE
:10021000000020002300260029002C002F003200BF
:100220000001000003010601090100002200250071
:1002300028002B002E0031003400020100000501CF
:1002400008010B0105050505070508080808020255
:1002500002020A0A08080404040401010101010160
:1002600001010303030303030303040707070C0C43
:100270000C0C0C0C0C0C020202020606060606060A
:1002800006060B0B0B0B0B0B0B0B010210202008AF
:1002900008102040102040800201020108040201E1
:1002A0000102040810204080804020100804020150
:1002B00080040201804020100804020108040201A9
:1002C0000102040810204080010204081020408030
:1002D000B60E6B1D11241FBECFEFD1E2DEBFCDBF26
:1002E00000E00CBF29E0ACE3B6E001C01D92AE32E5
:1002F000B207E1F716E0A0E0B2E0E6E2F1E400E0E8
:100300000BBF02C007900D92AC33B107D9F711E0D3
:10031000C9E6D1E000E006C021970109802FFE0167
:100320000E94291EC836D10780E00807A9F70E945D
:10033000F00F0C9481200C94000096E0899FD0016E
:100340001124A659B74F90967C936E935F9791E0D6
:1003500091969C939197E091D708F091D80890914D
:10036000D608992339F0309751F0811108C0809157
:1003700086081994309719F05C968C91FACF0895FD
:1003800008950895FC01248135816217730748F4AC
:1003900080819181009729F0860F971FFC01808151
:1003A000089580E008950895AF92BF92CF92DF92B2
:1003B000EF92FF920F931F93CF93DF936C017B011A
:1003C0008B01040F151FEB015E01AE18BF08C017AB
:1003D000D10759F06991D601ED91FC910190F0811E
:1003E000E02DC6011995892B79F7C501DF91CF91D1
:1003F0001F910F91FF90EF90DF90CF90BF90AF9043
:100400000895FC01538D448D252F30E0842F90E01A
:10041000821B930B541710F0CF96089501970895FF
:10042000FC01918D828D981761F0A28DAE0FBF2FC8
:10043000B11D5D968C91928D9F5F9F73928F90E01E
:1004400008958FEF9FEF0895FC01918D828D98178D
:1004500031F0828DE80FF11D858D90E008958FEFCA
:100460009FEF0895FC01918D228D892F90E0805C93
:100470009F4F821B91098F739927089581EC97E014
:100480000E94320221E0892B09F420E0822F089596
:10049000FC01A48DA80FB92FB11DA35ABF4F2C91F9
:1004A000848D90E001968F739927848FA689B789F0
:1004B0002C93A089B1898C91837080648C93938DE7
:1004C000848D981306C00288F389E02D80818F7D8A
:1004D00080830895EF92FF920F931F93CF93DF9342
:1004E000EC0181E0888F9B8D8C8D98131AC0E88970
:1004F000F989808185FF15C09FB7F894EE89FF893F
:100500006083E889F98980818370806480839FBFDC
:1005100081E090E0DF91CF911F910F91FF90EF90DC
:100520000895F62E0B8D10E00F5F1F4F0F731127EC
:10053000E02E8C8D8E110CC00FB607FCFACFE88927
:10054000F989808185FFF5CFCE010E944802F1CF65
:10055000EB8DEC0FFD2FF11DE35AFF4FF0829FB79B
:10056000F8940B8FEA89FB8980818062CFCFCF938B
:10057000DF93EC01888D8823B9F0AA89BB89E889CB
:10058000F9898C9185FD03C0808186FD0DC00FB671
:1005900007FCF7CF8C9185FFF2CF808185FFEDCFEF
:1005A000CE010E944802E9CFDF91CF91089580E00B
:1005B00090E0892B29F00E943E0281110E940000E8
:1005C00080E090E0892B49F080E090E0892B29F0D1
:1005D0000E94000081110E94000080E090E0892BC1
:1005E00049F080E090E0892B29F00E940000811101
:1005F0000E94000080E090E0892B49F080E090E0CC
:10060000892B29F00E94000081110C9400000895AC
:100610008150823108F05AC0E82FF0E08827EC5E64
:10062000FC4F8F4F0C94291E3403380326032C03F0
:10063000300366033B03410345034B034F0353035E
:1006400059035D036603610367036B0380918000B8
:100650008F77809380000895809180008F7DF9CFFF
:1006600080918000877FF5CF84B58F7784BD089512
:1006700084B58F7DFBCF8091B0008F778093B000E1
:1006800008958091B0008F7DF9CF809190008F7791
:10069000809390000895809190008F7DF9CF809194
:1006A0009000877FF5CF8091A0008F778093A00086
:1006B00008958091A0008F7DF9CF8091A000877F61
:1006C000F5CF809120018F7780932001089580914C
:1006D00020018F7DF9CF80912001877FF5CFCF93C7
:1006E000DF93282F30E0F901E653FE4F8491F901A2
:1006F000E657FD4FD491F901EC5BFD4FC491CC233B
:10070000A1F081110E940803EC2FF0E0EE0FFF1F13
:10071000E05FFD4FA591B491EC91ED2381E090E075
:1007200009F480E0DF91CF91089580E090E0FACF66
:10073000862F0C946F031F93CF93DF93282F30E005
:10074000F901E653FE4F8491F901E657FD4FD4912C
:10075000F901EC5BFD4FC491CC23A9F0162F811158
:100760000E940803EC2FF0E0EE0FFF1FE65DFD4F47
:10077000A591B4918FB7F894EC91111108C0D09560
:10078000DE23DC938FBFDF91CF911F910895DE2B85
:10079000F8CF862F642F0C949B03CF93DF9390E0C8
:1007A000FC01E657FD4F24918C5B9D4FFC01849129
:1007B0008823C9F090E0880F991FFC01E055FE4F97
:1007C000A591B491FC01E65DFD4FC591D4916111F5
:1007D0000DC09FB7F8948C91209582238C938881CB
:1007E000282328839FBFDF91CF910895623051F471
:1007F0009FB7F8943C91822F809583238C93E88156
:100800002E2BEFCF8FB7F894EC912E2B2C938FBF1C
:10081000EACF862F642F0C94CD033FB7F8948091D4
:10082000330790913407A0913507B091360726B56C
:10083000A89B05C02F3F19F00196A11DB11D3FBF18
:10084000BA2FA92F982F8827BC01CD01620F711DE7
:10085000811D911D42E0660F771F881F991F4A95E1
:10086000D1F708958F929F92AF92BF92CF92DF926D
:10087000EF92FF926B017C010E940D044B015C0121
:10088000C114D104E104F104B9F00E940D04681907
:1008900079098A099B09683E73408105910580F3B7
:1008A00021E0C21AD108E108F10888EE880E83E041
:1008B000981EA11CB11CE4CFFF90EF90DF90CF9069
:1008C000BF90AF909F908F9008952FB7F89460914C
:1008D0002F077091300780913107909132072FBF19
:1008E00008950F931F938091D9089091DA08DC0145
:1008F000ED91FC910084F185E02D1995892B09F487
:10090000D5C060E070E0CB010E9432042091F7086E
:100910008091D9089091DA08DC01ED91FC91028474
:10092000F385E02D21110BC019958093E3088E37D4
:10093000D1F68091F7088F5F8093F708D4CF19958F
:100940009091F708E92FF0E0E752F74F8287923055
:10095000B9F09930D9F09130A9F48F3F99F0109205
:10096000F70881E08093F9081092FC081092FB08C8
:100970008093FD081092FE0880E01F910F9108956A
:10098000863069F79F5F9093F708ADCF8F3E39F7B8
:100990008091E5089091E408890F9927991FE091CB
:1009A000E6089C012E0F311D8091E708820F932FDE
:1009B000911D4091E80850E0840F951F2091E908AF
:1009C00030E06091EA0870E0762F6627F091EB083E
:1009D0006F0F711D820F931F919581959109681773
:1009E000790709F0BCCF1092F708E13419F410929E
:1009F000FE083DC0E093FA08542F4427240F351F0A
:100A00003093FC082093FB08EA53E63108F044C019
:100A1000F0E08827E15FFA4F8F4F0C94291E3A05CA
:100A200041054A0525054A052C0548054C054A059A
:100A30004A054A054A054A054A054A054A054C053C
:100A40004A054A054A054A054A0585E08093F908A2
:100A500081E08093FD080BC089E020FDF7CF84E0A2
:100A600021FDF4CF237033278AE0232B79F780917F
:100A7000FD0883CF87E020FDE9CF82E021FDE6CFAE
:100A8000F6CF88E020FDE2CF83E021FDDFCFEFCF7E
:100A900086E0DCCF8BE0DACF81E08093F90810921A
:100AA000FC081092FB088093FD08A1CF8091FE08FE
:100AB0008823E9F20E9465040091DB081091DC08AC
:100AC0002091DD083091DE08601B710B820B930BC7
:100AD0000091DF081091E0082091E1083091E208D0
:100AE000601771078207930710F21092F7081092AF
:100AF000F9081092FC081092FB0881E039CF80932E
:100B0000F008272F30E07093F2086093F3084091CB
:100B1000EF089091EE08490F5527551F840F952F28
:100B2000911D4091F108840F911D820F931F680F52
:100B3000792F711D7195619571097093F408609317
:100B4000F508442361F08091FE08882341F060E0BD
:100B500070E0CB010E9432040E947104F4CF8091B6
:100B6000D9089091DA08DC01ED91FC910280F381C3
:100B7000E02D4AE050E06DEE78E019950E946504A2
:100B80006093DB087093DC088093DD089093DE08A7
:100B90008091F10891E0811101C090E09093FE08EE
:100BA000811106C06AE070E080E090E00C943204AD
:100BB0000895BC0183E00C947F050F931F93CF939E
:100BC000DF93C82FD62F86E0C89FF0011124E65985
:100BD000F74F11A2878D90A181309105F1F058F067
:100BE00082309105F1F1039709F440C0DF91CF9174
:100BF0001F910F9108956623C9F361E070E08C2F77
:100C00000E949D010E9465046093C2087093C3080E
:100C10008093C4089093C508E9CF0E9465040091B1
:100C2000C2081091C3082091C4083091C508AB01D7
:100C3000BC01401B510B620B730B8091D408909147
:100C4000D508B0E0A0E084179507A607B70748F4D9
:100C500062E070E08C2FDF91CF911F910F910C9487
:100C60009D0163E070E0D111C1CFF4CF70E060E08E
:100C7000F1CF0F931F930E9465046093C90770938F
:100C8000CA078093CB079093CC0781EC97E00E9432
:100C9000100297FF1DC00E9465040091C9071091C2
:100CA000CA072091CB073091CC07601B710B820BD8
:100CB000930B0091C5071091C6072091C70730918B
:100CC000C8076017710782079307F8F28FEF9FEF4D
:100CD0001F910F91089520914107309142072817E5
:100CE000390771F490913F0780914007981741F0C0
:100CF000E0913F07F0E0E251F94F808190E00895E4
:100D00008FEF9FEF08950895EF92FF920F931F9337
:100D1000CF93DF93DC015C96ED90FC905D97E1143E
:100D2000F10479F481E090E013969C938E931297EE
:100D300090E080E0DF91CF911F910F91FF90EF90B5
:100D400008955196ED91FC91529750968C91509741
:100D5000982F90950FB75E962C915E97122F127078
:100D600021FD6095F8942081112319F1282B20830F
:100D7000E7012197F1F728E0462F50E0308160FF2E
:100D80001AC0382B3083E7012197F1F7BA01759526
:100D90006795215089F7112381F080818923808311
:100DA0000FBF5C968D919C910197F1F781E090E0E7
:100DB000C1CF2923DCCF3923E5CF9081892BEFCF19
:100DC00020914107309142072817390771F480912B
:100DD000400720913F0790E0805C9F4F821B910964
:100DE00060E470E00E94F31D089590E080E00895B3
:100DF000209141073091420728173907B9F49091A3
:100E00003F0780914007981789F0E0913F07F0E095
:100E1000E251F94F808120913F0730E02F5F3F4F33
:100E20002F73332720933F0790E008958FEF9FEFB4
:100E3000089520917D06260F3327331F2132310577
:100E4000ECF42091C606FC0190E080E0243069F0CB
:100E500082E00895A0917D062191AC01435A594F3B
:100E6000A40FB52FB11D2C930196861798F380918E
:100E70007D06680F60937D0680E0089581E0089507
:100E80001092C60681E08093C5061092A00661E02C
:100E900084E10E949B0361E085E10E949B03E9EBF2
:100EA000F0E080818E7F808380818D7F808388E4E5
:100EB0008093B80085E48093BC000895CF93DF93BE
:100EC00091E090935C068823B9F0C091B800D0916E
:100ED000BA008091BC008A7B8093BC0060E084E112
:100EE0000E949B0360E085E10E949B030E944007F3
:100EF000D093BA00C093B800DF91CF910895E091EC
:100F00003E0780913D07E81730F4F0E0E45CF94FCC
:100F1000808190E008958FEF9FEF089590913E07B4
:100F200080913D072FEF3FEF981748F4E92FF0E04D
:100F3000E45CF94F208130E09F5F90933E07C90148
:100F4000089580913D0790913E07891B990B089564
:100F5000CF92DF92EF92FF920F931F93CF93DF9385
:100F60007C01CB018A012091CC06222389F0EB0180
:100F70006B01C40ED51ECC15DD0569F06991D70152
:100F8000ED91FC910190F081E02DC7011995F3CF0F
:100F9000642F0E941907C801DF91CF911F910F9113
:100FA000FF90EF90DF90CF900895CF93DF931F9243
:100FB000CDB7DEB769832091CC062223F9F02091CA
:100FC0003B07203258F021E030E0FC0133832283DC
:100FD00090E080E00F90DF91CF91089580913C07E1
:100FE000E82FF0E0E353F94F998190838F5F80936E
:100FF0003C0780933B0781E090E0ECCF61E0CE01BD
:1010000001960E941907F7CFCF92DF92EF92FF92DD
:101010000F931F93CF93DF93FC01C48121E02093B2
:10102000CC06C093ED0610923C0710923B078385D7
:10103000682B8EE598E00E94D507D0913B07D1320E
:1010400008F092C00E940D046B017C018091C606DD
:10105000811165C082E08093C60681E08093C50659
:101060008FEF8093C4061092C306D093C206ADECF6
:10107000B6E0E2EAF6E080E0D81385C01092A1065F
:101080008091A106CC0FC82BC093A1068091A00629
:10109000813009F07CC01092A0060E940D046B0103
:1010A0007C018091A1068093BB008091C80690913D
:1010B000C906A091CA06B091CB06892B8A2B8B2B2F
:1010C00099F00E940D040091C8061091C906209164
:1010D000CA063091CB066C197D098E099F09061747
:1010E000170728073907E0F18091BC0083FDD9CFAD
:1010F00085EC8093BC000E940D046B017C01809103
:10110000C606823009F445C08091C4068F3F61F164
:101110008091C406803241F18091C40625C080913F
:10112000C8069091C906A091CA06B091CB06892B3A
:101130008A2B8B2B09F48ACF0E940D040091C806DC
:101140001091C9062091CA063091CB066C197D0911
:101150008E099F09061717072807390708F076CF69
:101160008091C7060E945E0710923C0710923B07D1
:101170001092CC06DF91CF911F910F91FF90EF90CD
:10118000DF90CF9008959D9191938F5F75CF85EEFD
:10119000B0CF8091C8069091C906A091CA06B091BF
:1011A000CB06892B8A2B8B2B09F4A9CF0E940D0427
:1011B0000091C8061091C9062091CA063091CB064D
:1011C0006C197D098E099F0906171707280739072B
:1011D00008F095CFC5CF90E080E008958091B707E3
:1011E0009091B807A091B907B091BA074091430711
:1011F000509144076091450770914607841B950BF9
:10120000A60BB70B8093B7079093B807A093B907C5
:10121000B093BA07089561E08DE00E949B0364EFEC
:1012200071E080E090E00E94320460E08DE00C9478
:101230009B030F931F93CF938C01C62F0E9404082A
:101240006C2F6460C8010E9404086C2F6B7FC8017A
:101250000E94040883EC90E00197F1F7CF911F9171
:101260000F9108950F931F93CF93DF938C01D62F87
:10127000C42F607F642B0E94190980E1D89FB001C0
:1012800011246C2BC801DF91CF911F910F910C9409
:10129000190940E061E08EE199E00E9432098BE398
:1012A0009FE10197F1F70895CF93DF9300D000D02D
:1012B0001F921F92CDB7DEB788E0E3ECF2E0DE01CB
:1012C000119601900D928A95E1F78091260981117E
:1012D0001AC08FEF90E0880F991F21E030E02C0FAB
:1012E0003D1F820F931FFC016081606840E08EE12A
:1012F00099E028960FB6F894DEBF0FBECDBFDF9100
:10130000CF910C94320981E0E5CF41E00E9432098F
:1013100081E090E008950F931F93CF93DF93FC013A
:10132000048115810115110539F4FB011082DF914B
:10133000CF911F910F9108954150510940175107C6
:1013400008F48A01EB01FC0160817181A801CE01E2
:101350000E947220C00FD11F1882E9CF0C94CB1DC0
:10136000CF92DF92EF92FF920F931F93CF93DF9371
:10137000EB017B0124E0E20EF11C8B016C01C61A2B
:10138000D70AC601800F911F0E94C31DF8018193E7
:101390008F01EE15FF05A9F7CE01DF91CF911F91C7
:1013A0000F91FF90EF90DF90CF9008959F92AF92B2
:1013B000BF92CF92DF92EF92FF920F931F93CF9342
:1013C000DF935C017B018B01D0E0C0E0F8019190DC
:1013D0008F016501CC0EDD1EC6010E94C31D98164B
:1013E00021F0692DC6010E94CB1D2196C430D10584
:1013F00069F7C701DF91CF911F910F91FF90EF9097
:10140000DF90CF90BF90AF909F9008950C94C31D34
:10141000FC0180819181009711F00C94871D60E0A0
:1014200070E0CB010895FB0101900020E9F73197AE
:10143000AF01461B570BDC01ED91FC910280F3815B
:10144000E02D199465E673E081EC97E00C94130AA3
:101450008F929F92AF92BF92EF92FF920F931F9342
:10146000CF93DF93CDB7DEB7A1970FB6F894DEBF69
:101470000FBECDBF7C01FA01CB0119A2223008F4C6
:101480002AE08E010F5D1F4F822E912CB12CA12CD2
:10149000BF01A50194010E94071EF901CA016A302B
:1014A0000CF5605DD8016E938D01232B242B252B29
:1014B00079F790E080E0109721F0BD01C7010E940C
:1014C000130AA1960FB6F894DEBF0FBECDBFDF9111
:1014D000CF911F910F91FF90EF90BF90AF909F9091
:1014E0008F900895695CDECFCF92DF92EF92FF92EA
:1014F000CF93DF936C01990FEE08FF08F7FE1BC036
:101500006DE281EC97E00E946A02EC0144275527C6
:10151000BA014C195D096E097F092AE081EC97E058
:101520000E94280A8C0F9D1FDF91CF91FF90EF90B2
:10153000DF90CF9008952AE0B701A60181EC97E0F3
:10154000DF91CF91FF90EF90DF90CF900C94280A1D
:10155000CF93DF93BC0181EC97E00E94130AEC016A
:101560000E94220A8C0F9D1FDF91CF9108950C9449
:10157000130ACF93DF93EC010E944909BE018EE16B
:1015800099E00E94B70A0E94540960E072E08EE17F
:1015900099E00E94B70A0E9465046E5D734081095C
:1015A00091096093AE077093AF078093B007909353
:1015B000B107DF91CF910895CF93DF93EC010E94A3
:1015C0004909BE018EE199E00E94B70A0E945409C0
:1015D00061E272E08EE199E00E94B70A0E94650420
:1015E0006E5D7340810991096093AE077093AF07F8
:1015F0008093B0079093B107DF91CF910895FB01DD
:1016000044815581FC01248135812417350778F008
:1016100080819181009759F0FB0160817181611592
:10162000710529F00E94642021E0892B09F020E057
:10163000822F08950F931F93CF93DF938C01EB01BB
:10164000FC01808191810097E1F0688179816115C9
:101650007105A9F0428153812C813D8142175307C6
:1016600070F00E945D208C819D81F80195838483B8
:101670001D821C82DF91CF911F910F9108950E94CE
:10168000E11E88819981F801918380838A819B8101
:10169000938382838C819D819583848319821882B0
:1016A0001B821A82E5CFCF93DF93EC018881998169
:1016B000009711F00E94E11E198218821D821C827F
:1016C0001B821A82DF91CF910895FC018081918164
:1016D000009711F00C94E11E08950F931F93CF9380
:1016E000DF93EC0188819981009759F02A813B8131
:1016F0002617370730F081E0DF91CF911F910F91CE
:1017000008958B016F5F7F4F0E946A1F009759F009
:10171000998388831B830A832C813D81232B59F76E
:10172000FC011082E8CF80E0E7CFEF92FF920F93A9
:101730001F93CF93DF93EC017B01198218821B82E8
:101740001A821D821C82FB0101900020E9F731976B
:101750008F01061B170BB8010E946D0B811109C088
:10176000CE01DF91CF911F910F91FF90EF900C94DC
:10177000530B1D830C83B70188819981DF91CF9131
:101780001F910F91FF90EF900C945D209F92AF926C
:10179000BF92CF92DF92EF92FF920F931F93CF935E
:1017A000DF937C016B015A0189012417350720F46E
:1017B0008B2D5901042F182F67E673E0C7010E9493
:1017C000950BD6011496CD91DC91AC16BD0650F563
:1017D0000C171D0708F4E801D601ED91FC91119753
:1017E000EC0FFD1F908010820D911C910A0D1B1DA6
:1017F0000115110571F0F80101900020E9F731970A
:101800005F01A01AB10AB501C7010E946D0B8111D9
:1018100016C0C7010E94530BD6018D919C91C80F31
:10182000D91F9882C701DF91CF911F910F91FF902F
:10183000EF90DF90CF90BF90AF909F900895F70109
:10184000B582A482B801808191810E945D20E4CF9D
:10185000CF93DF93EC01FB01248135810E94C60BFD
:10186000CE01DF91CF91089585ED8093BC008091EA
:10187000C8069091C906A091CA06B091CB060796FA
:10188000A11DB11D23E0B695A795979587952A953B
:10189000D1F72091BC0024FD03C01092C606089524
:1018A0004091C8065091C9066091CA067091CB0656
:1018B000452B462B472B69F30097A105B10541F055
:1018C0002AE22A95F1F700C00197A109B109E1CFF9
:1018D0008091C7060C945E071F920F920FB60F926D
:1018E00011240BB60F922F933F934F935F936F93F7
:1018F0007F938F939F93AF93BF93EF93FF9381EC6D
:1019000097E00E944802FF91EF91BF91AF919F91A4
:101910008F917F916F915F914F913F912F910F9098
:101920000BBE0F900FBE0F901F9018951F920F9235
:101930000FB60F9211240BB60F922F938F939F9394
:10194000EF93FF93E091D107F091D2078081E0916E
:10195000D707F091D80782FD1DC090818091DA07EA
:101960008F5F8F732091DB07821741F0E091DA07D8
:10197000F0E0EF53F84F958F8093DA07FF91EF91E6
:101980009F918F912F910F900BBE0F900FBE0F90D4
:101990001F9018958081F2CF1F920F920FB60F9271
:1019A00011242F933F938F939F93AF93BF93809175
:1019B0002F0790913007A0913107B09132073091F5
:1019C0002E0723E0230F2D3758F50196A11DB11DD9
:1019D00020932E0780932F0790933007A093310711
:1019E000B09332078091330790913407A091350767
:1019F000B09136070196A11DB11D809333079093D6
:101A00003407A0933507B0933607BF91AF919F91EC
:101A10008F913F912F910F900FBE0F901F901895AF
:101A200026E8230F0296A11DB11DD2CF1F920F925F
:101A30000FB60F9211240BB60F922F933F934F9333
:101A40005F936F937F938F939F93AF93BF93EF9326
:101A5000FF93E0914107F0914207309749F0A68546
:101A6000B7858585968D91FF16C09C918923B1F429
:101A7000FF91EF91BF91AF919F918F917F916F9166
:101A80005F914F913F912F910F900BBE0F900FBE22
:101A90000F901F9018959C91892351F7A389B489C1
:101AA0009C918589809589238C9386899789019754
:101AB000F1F7608D718DA685B785558538E020E0FA
:101AC000CB010197F1F7822F90E095958795282F0C
:101AD0004C91452309F02068315091F7868D81FDA6
:101AE00020958091400790E001968F73992730915F
:101AF0003F07381799F0A0914007B0E0A251B94FC5
:101B00002C9380934007828D938D0197F1F7A389E1
:101B1000B4898C919589892B8C93AACF868D81600D
:101B2000868FF1CF1F920F920FB60F9211240BB632
:101B30000F922F933F934F935F936F937F938F9366
:101B40009F93AF93BF93EF93FF938091B900887FEA
:101B5000803609F44DC008F040C0883209F4A9C0AD
:101B600028F5803109F49DC0C8F4882309F4FBC02E
:101B7000883009F496C0FF91EF91BF91AF919F918A
:101B80008F917F916F915F914F913F912F910F9026
:101B90000BBE0F900FBE0F901F901895883109F45F
:101BA00088C0803241F78093C40614C0803409F4A1
:101BB0009DC040F48033B9F38833E9F68093C406BE
:101BC00085ECB0C0803509F485C0883509F496C02D
:101BD000883489F60E94340CCECF883909F48CC041
:101BE00038F5883729F050F4883611F0803719F627
:101BF00083E08093C60610929F0657C0883809F488
:101C00007BC0803919F0803809F0B5CF80919F06EC
:101C1000803208F071C0E0919F0681E08E0F8093C2
:101C20009F068091BB00F0E0E158F94F80833DC0F2
:101C3000803B39F0E0F4803A09F479C0883A09F041
:101C40009ACF84E08093C60610927E0610927D069D
:101C5000E0913907F0913A07199580917D0681113D
:101C60000FC081E080937D0610925D0609C0803C24
:101C700009F4A6CF883C09F4A3CF883B09F07BCFB9
:101C8000E0917E0681E08E0F80937E06F0E0E35ABD
:101C9000F94F80818093BB0090917E0680917D06F4
:101CA00029C08091A1068093BB0085EC8093BC0085
:101CB00062CF9091C3068091C206981758F5E091C3
:101CC000C30681E08E0F8093C306F0E0EE55F94F16
:101CD0008081E9CFE091C30681E08E0F8093C30637
:101CE0008091BB00F0E0EE55F94F80839091C306E0
:101CF0008091C2069817C8F285E8D8CFE091C30654
:101D000081E08E0F8093C3068091BB00F0E0EE551A
:101D1000F94F80838091C50681115CCF81E080936B
:101D2000A00684EA8093BC001092C60624CF85ECFE
:101D30008093BC001092C60680919F06803230F4DA
:101D4000E0919F06F0E0E158F94F108260919F0604
:101D500070E0E0913707F09138078FE796E019952A
:101D600010929F0608CF1092C40634CF1092C40779
:101D70001092C30788EE93E0A0E0B0E08093C5071F
:101D80009093C607A093C707B093C8072DE133E02F
:101D90003093C2072093C10725EC30E03093CE0783
:101DA0002093CD0724EC30E03093D0072093CF0769
:101DB00020EC30E03093D2072093D10721EC30E0C3
:101DC0003093D4072093D30722EC30E03093D6072A
:101DD0002093D50726EC30E03093D8072093D7071F
:101DE0001092DA071092DB071092DC071092DD07E1
:101DF00010926108109260088093620890936308C3
:101E0000A0936408B09365082FE233E030935F0835
:101E100020935E0810922109109220092DE533E0ED
:101E200030931F0920931E0927E22093220920E105
:101E30002093270922E02093280910922909109263
:101E40000209109201098093030990930409A09359
:101E50000509B09306098BE493E090930009809301
:101E6000FF08109216091092150910921809109285
:101E7000170910921A091092190910921C09109250
:101E80001B0960911D096E7F6D7F60931D0966952A
:101E9000617081E068278BE00E949B0361E08BE02A
:101EA0000E94CD03E5E9F2E0E491E0930F09EFE44D
:101EB000F2E0E491F0E0EE0FFF1FE65DFD4F85914B
:101EC0009491909311098093100960E08AE00E9438
:101ED000CD0380911D0981FD04C061E08AE00E946C
:101EE0009B038AE080930B09E4E9F2E0E491E0933C
:101EF0000C09EEE4F2E0E491F0E0EE0FFF1FE05F8A
:101F0000FD4F2591349130930E0920930D0944EF34
:101F100051E060E070E04093DF085093E008609388
:101F2000E1087093E208EBECF2E0ADEEB8E001906E
:101F30000D928A95E1F71092F70882E08093F808F5
:101F40001092FD081092FE0810926C081092700812
:101F500010926F081092710881E493E090936B08DF
:101F600080936A08E6E8F8E082EC98E01082148238
:101F70001382158236968E179F07C1F789EA92E081
:101F80009093CD088093CC0885EA92E09093CF0897
:101F90008093CE0884E08093D0088093D1088DEAA6
:101FA00092E09093CB088093CA088AE090E09093E7
:101FB000D3088093D20884EF91E09093D508809362
:101FC000D4081092D8081092D7081092C608109220
:101FD000C7081092C8081092C9081092D608089530
:101FE000CF93DF93CDB7DEB7C451D1400FB6F8948D
:101FF000DEBF0FBECDBF789484B5826084BD84B54A
:10200000816084BD85B5826085BD85B5816085BDF3
:1020100080916E00816080936E00109281008091AB
:102020008100826080938100809181008160809333
:102030008100809180008160809380008091B10058
:1020400084608093B1008091B00081608093B00083
:1020500080919100826080939100809191008160D5
:102060008093910080919000816080939000809196
:10207000A10082608093A1008091A1008160809383
:10208000A1008091A00081608093A0008091210137
:1020900082608093210180912101816080932101E0
:1020A0008091200181608093200180917A0084607A
:1020B00080937A0080917A00826080937A00809188
:1020C0007A00816080937A0080917A0080688093A2
:1020D0007A001092C100E091D107F091D20782E01E
:1020E0008083E091CD07F091CE071082E091CF0779
:1020F000F091D0078FEC80831092D907E091D5073B
:10210000F091D60786E08083E091D307F091D40761
:10211000808180618083E091D307F091D407808132
:1021200088608083E091D307F091D4078081806834
:102130008083E091D307F091D40780818F7D8083E5
:1021400010923E0710923D0710923C0710923B07F9
:102150000E94400780EC91E090933A078093390702
:1021600081EC91E090933807809337071092230910
:1021700080912809823018F098E090932309809389
:10218000260962E370E080E090E00E9432046091F2
:1021900029098EE199E00E94040868EE73E080E06E
:1021A00090E00E94320460E38EE199E00E941909F8
:1021B0000BE416E4C8010197F1F760E38EE199E0C2
:1021C0000E941909C8010197F1F760E38EE199E0D7
:1021D0000E94190983E592E00197F1F760E28EE130
:1021E00099E00E94190960912309606240E08EE144
:1021F00099E00E94320984E08093240940E06CE079
:102200008EE199E00E9432090E94490982E08093A0
:10221000250940E066E08EE199E00E94320940E045
:1022200062E08EE199E00E9432098BE39FE1019721
:10223000F1F788E08093290960E08EE199E00E943F
:1022400004080E94490968E673E08EE199E00E9463
:10225000B70A0E94540968E773E08EE199E00E9492
:10226000B70A10921A0910921909109218091092BF
:10227000170910921609109215098DE991E09093B3
:102280001C0980931B0980910B0996EF980F9430DD
:1022900048F02EEC280F243028F022EC280F2830AC
:1022A00008F061C02DEB30E030931609209315093A
:1022B0002BE931E030931809209317092CE231E023
:1022C00030931A0920931909943050F02EEC280FFE
:1022D000243030F022EC280FF0E0E0E0283010F459
:1022E000E8E6F0E02081943028F032EC380F383006
:1022F00008F48FC031E0232B943048F09EEC980F07
:10230000943028F08E53F0E0E0E0883010F4E8E6F6
:10231000F0E0208320910B0936EF320F343008F4BF
:102320007AC08EEC820F843008F475C082EC820F84
:10233000883008F073C08DE690E090931309809385
:102340001209343008F06DC02650330B81E001C013
:10235000880F2A95EAF78093140980911B099091C0
:102360001C090197F1F78091190990911A09892B9D
:1023700049F1E0914107F091420728E0EF3FF20771
:1023800009F1309739F0A389B4899C9185898095AA
:1023900089238C9380911D098E7F80931D09109253
:1023A000400710923F078FEF98E090934207809389
:1023B0004107E0911209F09113098081909114096D
:1023C000892B80838FEF98E09093DA088093D90867
:1023D00081E08093F10870E060E08CE00E947F056E
:1023E0000E9465046B017C010E94710481112EC062
:1023F0000E9465046C197D098E099F09613D774033
:102400008105910518F560E070E0CB010E9432046F
:10241000EBCF34E070CF8BE690E08FCF90E080E0A0
:102420008CCF88E0223309F496CF84E0233309F47B
:1024300092CF82E0243309F48ECF82EC820F883071
:1024400018F42E53330B82CF81E085CF68EC70E017
:1024500080E090E00E9432041092FD088091F9081B
:10246000843051F0893041F00E94490964E873E0FA
:102470008EE199E00E94B70A69E170E086E00E946F
:102480007F0561E08CE00E94CD0361E08DE00E9459
:10249000CD0360E08CE00E949B0360E08DE00E9431
:1024A0009B0362E086E30E94CD0301EE12E085ED1E
:1024B00092E0CD5EDE4F99838883C351D140CD5EDB
:1024C000DE4FA881B981C351D1408C911296CD5E67
:1024D000DE4FB983A883C351D14062E00E94CD038F
:1024E000CD5EDE4FE881F981C351D1400E171F0741
:1024F00031F7ADEEEA2EA2E0FA2E01EE12E0D8019D
:102500008C910E5F1F4F62E00E94CD03E016F10632
:10251000B1F709EF12E0F80180810E5F1F4F62E012
:102520000E94CD03F3E009311F07A9F767EB77E0BD
:1025300090E080E00E94B00963E477E084E090E0FE
:102540000E94B00907E417E088E090E07C012FEFDB
:10255000E21AF20A0E94060A90E0D8018D939D9338
:102560008D01C7018E30910589F7F3E5CF2EF7E095
:10257000DF2E87010F5F1F4FC7010E94060A90E000
:10258000F601819391936F0178010431110589F768
:10259000EFE5EE2EE7E0FE2EC8010E94C31DD70135
:1025A0008C93C80101960E94C31DF7018183F2E05C
:1025B000EF0EF11C0E5F1F4F0032110569F77BE62D
:1025C000E72E77E0F72E00E210E068012FEFC21A45
:1025D000D20AC8010E94060A90E0D7018D939C930D
:1025E0000E5F1F4FC6010E94060A90E0F701938319
:1025F0008283F4E0EF0EF11C0033110531F76DE832
:10260000E62E67E0F62E68012FEFC21AD20AC80143
:102610000E94060AD7018D937D0186010A331105B8
:1026200091F702E412E07601BFEFEB1AFB0AC60154
:102630000E94060AF80181938F016701FBE5EF16FE
:10264000F10489F751E2C52E52E0D52E87010F5FC4
:102650001F4FC7010E94060AD6018D936D017801B4
:102660000C37110599F740E0C42E42E0D42E7801D2
:10267000EFEFEE1AFE0AC8010E94060AD6018D93FA
:102680006D0187010D39110591F734E8C32E32E051
:10269000D32E87010F5F1F4FC7010E94060AF60164
:1026A00081936F0178010E3B110599F723E6E22E25
:1026B00022E0F22E68012FEFC21AD20AC8010E944E
:1026C000060AD7018D937D0186010F3D110591F713
:1026D000FE0131963F0181EC97E00E94320218160C
:1026E00019060CF008C167E673E0CE01835F9E4FC8
:1026F0000E94950B0E94390697FD2DC08A309105E6
:1027000051F189831A82CF5EDE4F08811981C15150
:10271000D1400F5F1F4FB801CE01835F9E4F0E94D3
:102720006D0B882339F3C35FDE4F28813981CD508B
:10273000D140CF5EDE4F88819981C151D140B30134
:10274000820F931F0E945D20CF5EDE4F19830883A6
:10275000C151D140CFCF64EF71E080E090E00E94A2
:1027600032046FE873E0C3010E94950BB301CE0100
:10277000835F9E4F0E94FF0A182FC3010E94650BC2
:10278000112309F412C544E050E0BE01635F7E4F9F
:10279000C3010E94280CB301CE01835F9E4F0E94AB
:1027A0001A0BC3010E94650B64E474E0C3010E942C
:1027B000950BB301CE01835F9E4F0E94FF0A182F35
:1027C000C3010E94650B112309F14AE050E0BE01EC
:1027D000635F7E4FC3010E94280CC3010E94080A58
:1027E0009B01AC01A8EEB3E00E94D91D6093B7072E
:1027F0007093B8078093B9079093BA07C3010E94FA
:10280000650B84E993E00E94A80A70C066E574E055
:10281000C3010E94950BB301CE01835F9E4F0E94BE
:10282000FF0A182FC3010E94650B1123F9F048E03D
:1028300050E0BE01635F7E4FC3010E94280CC301BC
:102840000E94080A9B01AC01A8EEB3E00E94D91DCA
:10285000609343077093440780934507909346071E
:10286000C3010E94650B81EA93E0CDCF66E674E078
:10287000C3010E94950BB301CE01835F9E4F0E945E
:10288000FF0A182FC3010E94650B112309F44EC1E2
:1028900049E050E0BE01635F7E4FC3010E94280CF7
:1028A0000D811E81F12CE12CE016F10688F4B701B0
:1028B000C3010E94C201F701EE0FFF1FE95BF84F51
:1028C00021E030E0813311F030E020E031832083DB
:1028D000FFEFEF1AFF0A26E0E216F10429F78CEA6F
:1028E00093E00E94A80AC3010E94650BCE01835F9A
:1028F0009E4F0E94650B8091C00781114EC0809150
:10290000BF078111B5C686E30E946F03892B09F0CA
:10291000AFC681E08093C0070E9465046093BB0747
:102920007093BC078093BD079093BE0710928C07ED
:1029300010928B071092B6071092B5071092B40749
:102940001092B3071092B2070E94490962E472E044
:102950008EE199E00E94B70A0E94540968E773E08B
:102960008EE199E00E94B70A81E090E00E94D905CB
:1029700068E873E180E090E00E9432040E94650400
:102980006093AE077093AF078093B0079093B10741
:102990008091C007882309F46BC68090BF0781101F
:1029A00067C60E9465040091AE071091AF072091A1
:1029B000B0073091B107601B710B820B930B683E1F
:1029C00073408105910508F44AC0C090BB07D090C0
:1029D000BC07E090BD07F090BE070E9465046093BD
:1029E000AE077093AF078093B0079093B1070E9432
:1029F00065041B012C012C183D084E085F08C0908F
:102A0000B707D090B807E090B907F090BA072C1438
:102A10003D044E045F0418F50E94490965E175E024
:102A20008EE199E00E94B70A0E945409C701B601DD
:102A3000621973098409950928EE33E040E050E0FB
:102A40000E94071EBA01A9012AE08EE199E00E94C6
:102A5000280A65E275E08EE199E00E94B70A0E94BB
:102A600065040091BB071091BC072091BD07309110
:102A7000BE07601B710B820B930B0091B70710917F
:102A8000B8072091B9073091BA076017710782071C
:102A90009307D8F081E08093BF070E94490963E65D
:102AA00072E08EE199E00E94B70A0E9454096EE23A
:102AB00075E08EE199E00E94B70A83E090E00E9401
:102AC000D90560E08DE00E949B0381E08093D608E9
:102AD0000E9465040091C6081091C7082091C8089B
:102AE0003091C908AB01BC01401B510B620B730B49
:102AF0008091D2089091D308B0E0A0E084179507A8
:102B0000A607B70708F0B7C510E08091D0081817DE
:102B100008F07FC4E091CC08F091CD08E10FF11DE1
:102B200062E080810E94CD031F5FEFCF67E774E012
:102B3000C3010E94950BB301CE01835F9E4F0E949B
:102B4000FF0A182FC3010E94650B112341F148E0D1
:102B500050E0BE01635F7E4FC3010E94280C0D81CF
:102B60001E81F12CE12CE016F10678F4B701C301C7
:102B70000E94C201F701EE0FFF1FED5AF84F082E19
:102B8000000C990BC097918380833FEFE31AF30AFF
:102B900086E0E816F10439F788EB93E0A2CE67E807
:102BA00074E0C3010E94950BB301CE01835F9E4F79
:102BB0000E94FF0A182FC3010E94650B112309F41C
:102BC0007BC045E050E0BE01635F7E4FCE01895F70
:102BD0009E4F0E94280C10E000E0912C812CF12CDB
:102BE000E12CC55FDE4FC880D980CB50D1400C1599
:102BF0001D0508F059C0B801CE01895F9E4F0E94A3
:102C0000C201D80111965D018C3231F0B1E0CB1ACE
:102C1000D1080C151D05E1F567E673E0CE018F5F65
:102C20009E4F0E94950BC55FDE4F88819981CB50E6
:102C3000D14001970817190769F5492D582DBE0194
:102C4000695F7E4FC3010E94280CB301CE018F5FE4
:102C50009E4F0E941A0BC3010E94650BE6E0EE1620
:102C6000F10464F4CE018F5F9E4F0E94080AF701C1
:102C7000EE0FFF1FE15AF84F718360839A2C8B2C63
:102C8000FFEFEF1AFF0ACE018F5F9E4F0E94650B88
:102C90008501A7CF9801492D582DBE01695F7E4F50
:102CA000C3010E94C60BD1CF83EC93E00E94A80A17
:102CB000CE01895F9E4F18CE66E974E0C3010E9481
:102CC000950BB301CE01835F9E4F0E94FF0A182F20
:102CD000C3010E94650B112309F487C046E050E050
:102CE000BE01635F7E4FCE01895F9E4F0E94280C1C
:102CF00010E000E0D12CC12C512C412CF12CE12C06
:102D0000C55FDE4FA880B980CB50D1400A151B05A6
:102D100008F068C0B801CE01895F9E4F0E94C201D1
:102D200098012F5F3F4F49018C3239F031E0A31AEF
:102D3000B1080A151B0509F045C067E673E0CE012E
:102D40008F5F9E4F0E94950BC55FDE4F88819981F2
:102D5000CB50D140019708171907B1F5452D542DD7
:102D6000BE01695F7E4FC3010E94280CB301CE01F2
:102D70008F5F9E4F0E941A0BC3010E94650BF8E003
:102D8000EF16F104C4F4CE018F5F9E4F0E94080A33
:102D9000F701EE0FFF1FEC0DFD1DEE0FFF1FE559B4
:102DA000F84F71836083CA94CD28C1F49FEFE91A6C
:102DB000F90AD12CC12C582C492CCE018F5F9E4F83
:102DC0000E94650B84019CCF9801452D542DBE01B6
:102DD000695F7E4FC3010E94C60BC8CFCC24C39449
:102DE000D12CE9CF8BEC93E061CF64EA74E0C301AE
:102DF0000E94950BB301CE01835F9E4F0E94FF0A94
:102E0000182FC3010E94650B112391F048E050E098
:102E1000BE01635F7E4FC3010E94280C4AE050E070
:102E20006DE877E0C3010E948B0984ED93E059CDF2
:102E3000CF5EDE4F88819981C151D140892B09F441
:102E4000E1C062EE73E0C35FDE4F88819981CD50AF
:102E5000D1400E945420892B09F0D4C067EB77E061
:102E600090E080E00E94D60963E477E084E090E09F
:102E70000E94D60907E417E088E090E0D8016C9141
:102E80000E5F1F4F7C01BFEFEB1AFB0A0E94AE09D9
:102E9000C7018E30910591F723E5C22E27E0D22E8F
:102EA000F6016081F2E0CF0ED11C87010F5F1F4F4A
:102EB000C7010E94AE0978010431110589F7C801E4
:102EC000855B984F7C01680192E0C90ED11CD70147
:102ED000BD907D01C8010E94C31DB81621F06B2D65
:102EE000C8010E94CB1D0F5F1F4FC016D10679F796
:102EF0000032110521F79BE6E92E97E0F92E6801D3
:102F0000BFEFCB1ADB0AF7016081C8010E94AE094E
:102F10000E5F1F4FD70112966C91C6010E94AE0939
:102F2000B4E0EB0EF11C0033110549F78DE8E82EF3
:102F300087E0F82EF70161917F016801FFEFCF1A5A
:102F4000DF0AC8010E94AE0986010A33110591F714
:102F500002E412E0D8016D918D017601BFEFEB1A0A
:102F6000FB0AC6010E94AE096701EBE5EE16F1040B
:102F700089F711E2C12E12E0D12ED6016D916D01BB
:102F800087010F5F1F4FC7010E94AE0978010C3700
:102F9000110599F7B0E0CB2EB2E0DB2EF60161917E
:102FA0006F017801FFEFEF1AFF0AC8010E94AE0916
:102FB00087010D39110591F7A4E8CA2EA2E0DA2E97
:102FC000D6016D916D0187010F5F1F4FC7010E94F0
:102FD000AE0978010E3B110599F7F3E6EF2EF2E00A
:102FE000FF2EF70161917F016801FFEFCF1ADF0A21
:102FF000C8010E94AE0986010F3D110591F78FEDC2
:1030000093E001CC67EE73E0C3010E94950BB3011E
:10301000CE01835F9E4F0E94FF0A182FC3010E94BA
:10302000650B112309F462CC44E050E0BE01635FFC
:103030007E4FC3010E94280CB301CE01835F9E4FD7
:103040000E941A0BC3010E94650B68EB74E0C30178
:103050000E94950BB301CE01835F9E4F0E94FF0A31
:10306000182FC3010E94650B112391F046E050E038
:10307000BE01635F7E4FC3010E94280C41E250E015
:1030800062E472E0C3010E948B098CEE93E029CCCC
:103090006AEC74E0C3010E94950BB301CE01835F1B
:1030A0009E4F0E94FF0A182FC3010E94650B112337
:1030B00091F048E050E0BE01635F7E4FC3010E9483
:1030C000280C41E250E061E272E0C3010E948B09EA
:1030D00089EF93E006CC6EED74E0C3010E94950B7E
:1030E000B301CE01835F9E4F0E94FF0A182FC301D8
:1030F0000E94650B112391F046E050E0BE01635F32
:103100007E4FC3010E94280C41E250E060E072E073
:10311000C3010E948B0988E094E0E3CB60EF74E088
:10312000C3010E94950BB301CE01835F9E4F0E94A5
:10313000FF0A182FC3010E94650B112391F048E08C
:1031400050E0BE01635F7E4FC3010E94280C41E244
:1031500050E064E872E0C3010E948B0985E194E0CD
:10316000C0CB64E075E0C3010E94950BB301CE01B2
:10317000835F9E4F0E94FF0A182FC3010E94650BB8
:10318000112309F4B3CB47E050E0BE01635F7E4FEB
:10319000C3010E94280C41E250E063E672E0C301E3
:1031A0000E948B0984E294E09CCBCF5EDE4F888145
:1031B0009981C151D140892B09F498CBC35FDE4F6F
:1031C000E880F980CD50D14062E374E0C7010E94ED
:1031D00054208C01892B09F0F5C06DE374E081EC7B
:1031E00097E00E94B70A6091B7077091B807809185
:1031F000B9079091BA0728EE33E040E050E00E9412
:10320000071EBA01A9012AE081EC97E00E94280A72
:103210000E94220A6FE474E081EC97E00E94B70AF2
:10322000609143077091440780914507909146074C
:1032300028EE33E040E050E00E94071EBA01A901E9
:103240002AE081EC97E00E94280A0E94220A6FE59A
:1032500074E081EC97E00E94B70AE7E4EE2EE7E025
:10326000FE2ED7018D919D917D010E94740AB3E5D8
:10327000EB16B7E0FB06A9F70E94220A60E774E0AC
:1032800081EC97E00E94B70A73E5E72E77E0F72E0E
:10329000F701819191917F010E94740AFFE5EF1679
:1032A000F7E0FF06A9F70E94220A60E874E081ECCB
:1032B00097E00E94B70A6FE5C62E67E0D62EF12C84
:1032C000E12CD6018D919D916D010E94740AB5E0AB
:1032D000EB16F10431F06DE874E081EC97E00E94A8
:1032E000B70AEFEFEE1AFE0AF6E0EF16F10449F71F
:1032F0000E94220A6FE874E081EC97E00E94B70A0E
:103300005BE6E52E57E0F52ED7018D919C910E944A
:10331000740A6DE874E081EC97E00E94B70AF70147
:10332000828193810E94740A0730110531F06DE8A3
:1033300074E081EC97E00E94B70A0F5F1F4FF4E042
:10334000EF0EF11C08301105F9F60E94220A6DE912
:1033500074E081EC97E00E94B70A8DE897E00E9444
:10336000A80A6DEA74E081EC97E00E94B70A82E453
:1033700092E00E94A80A6FEB74E081EC97E00E9453
:10338000B70A81E292E00E94A80A63ED74E081EC42
:1033900097E00E94B70A80E092E00E94A80A65EEDA
:1033A00074E081EC97E00E94B70A84E892E00E9402
:1033B000A80A69EF74E081EC97E00E94B70A83E6FF
:1033C00092E021CA6FE075E0C7010E945420892B6A
:1033D00009F08CCA1092C0071092BF070E944909D9
:1033E00068E673E08EE199E00E94B70A0E945409F2
:1033F00068E773E08EE199E00E94B70A60E08CE034
:103400000E949B0360E08DE00E949B038CE095E0AE
:10341000FAC9912C8091D108981608F063C0E92C64
:10342000F12CE091CE08F091CF08EE0DFF1D61E088
:1034300080810E94CD03E091CE08F091CF08EE0D7F
:10344000FF1D60E080810E949B0381E090E0A0E08E
:10345000B0E0092C04C0880F991FAA1FBB1F0A9453
:10346000D2F75C016C01C094D094512C8091D008AB
:10347000581608F5052D10E0E091CC08F091CD0824
:10348000E00FF11F80810E946F030C5F1F4F000F40
:10349000111FF801E659F74F892B41F48081918182
:1034A0008A299B29918380835394E0CF80819181E5
:1034B0008C219D21F7CFE091CE08F091CF08EE0D41
:1034C000FF1D61E080810E949B038091CE08909156
:1034D000CF08E80EF91E60E0D7018C910E94CD0361
:1034E000939498CF3AE6E32E38E0F32E8701F80163
:1034F000878D90A1892B31F4148E2FEF3FEF368FFB
:10350000258F11A20A5F1F4F86EA98E08017910766
:1035100071F7D12C26E0B22E8091D008D81608F091
:1035200052C0C12C4D2C512C440C551CD201AE580C
:10353000B74F2D012091D108C21608F042C0F20108
:10354000608171810C2C02C0769567950A94E2F730
:10355000D29E900111242C0D311DEAE6F8E080E0A6
:10356000458D568D2417350709F4ADC28F5F369609
:103570008A30B1F760FF23C0EAE6F8E090E080E02F
:10358000448D411117C0E091CA08F091CB08E20FB9
:10359000F31F4081B89EF001B99EF00D1124E65949
:1035A000F74F448F368F258F10A2178E61E00E944F
:1035B000DD0505C0019636968A30910509F7C3945A
:1035C000B9CFD394A9CFD70191968C918111882E30
:1035D000B6E0EB0EF11C0E151F05A9F70E9465045D
:1035E0006093C6087093C7088093C8089093C90871
:1035F000882009F440C080918B088823E1F18091F4
:10360000890890918A080197B1F540918608411187
:1036100035C08091B607882359F18091B50788237A
:1036200039F18091B407882319F18091B307882379
:10363000F9F08091B2078823D9F081E08093BF0729
:103640000E94490964E872E08EE199E00E94B70A9D
:103650000E9454096AEB75E08EE199E00E94B70A76
:1036600082E090E00E94D90560E08DE00E949B031B
:103670000E94D70230C81092D608CBCF8091AD07F8
:103680004A3209F0E5C181111AC081E08093AD078B
:103690001092AC071092AB07109297070E9449094D
:1036A00069E375E08EE199E00E94B70A0E9454092F
:1036B0006AE475E08EE199E00E94B70AAACF809192
:1036C000B6071092AD07811133C007E417E085ED0E
:1036D000E82E82E0F82EF7018081F2E0EF0EF11C77
:1036E0000E946F03D8014D915D918D0121E030E082
:1036F000892B11F030E020E04217530709F0E5C1B3
:10370000CD5EDE4FE881F981C351D140EE15FF0552
:1037100011F781E08093B60780918B0790918C0719
:10372000019690938C0780938B078AEC95E05CC19F
:103730008091B507811138C0B3E5CB2EB7E0DB2E01
:1037400011EEE12E12E0F12E10E000E0D7018C9195
:10375000B2E0EB0EF11C0E946F03AC01F601819107
:1037600091916F010F5F1F4F21E08017910709F0C2
:1037700020E091E0452B09F090E0291719F080E056
:1037800096E007C10630110509F781E08093B5077F
:1037900080918B0790918C07019690938C07809372
:1037A0008B078CEE95E020C14090B407411042C0D9
:1037B000EDEEF2E029EF32E0AFE5B7E0808132963E
:1037C000863308F0865340917B00982F9870477F8E
:1037D000942B90937B008770806480937C00809111
:1037E0007A00806480937A0080917A0086FDFCCF15
:1037F00080917800909179004D915D91841B950B9B
:1038000097FF03C0919581959109C3970CF060C112
:103810002E173F0799F681E08093B40780918B07BC
:1038200090918C07019690938C0780938B0782E18F
:1038300096E0DAC08091B3078111E1C080E091E0A9
:10384000D301FC011D923197E9F713016301A9EF40
:10385000AA2EA2E0BA2EF12CE12CD5015C90B2E0A8
:10386000AB0EB11C61E0852D0E94CD0360E0852D7B
:103870000E949B03F9EF8F2EF2E09F2E10E000E0F4
:10388000E016F10659F0F40180810E946F03892B44
:1038900029F4F601E00FF11F21E020830F5F1F4F95
:1038A00032E0830E911C0031110551F762E0852D45
:1038B0000E94CD038FEFE81AF80A90E1C90ED11CDF
:1038C000A0E1EA16F10449F6EBE8CE2EE7E0DE2EA1
:1038D000EBE6F7E04081518157FD1FC08281938163
:1038E00097FD1BC09A0174E0220F331F7A95E1F710
:1038F000260D371D280F391FD9012C91222391F055
:1039000064E0880F991F6A95E1F7860D971D480FAF
:10391000591FDA012C91222329F03496CE16DF06A6
:10392000C9F6242DB30150E040E08A010F5F1F4F1C
:10393000C80180319105F1F1FB01E80FF91F3081D9
:1039400031110BC0FC0134E0EE0FFF1F3A95E1F797
:10395000E20DF31D3081332361F0EBE6F7E0E08008
:10396000F180E416F50639F4E280F3808E159F05A8
:1039700051F40196DECF8E159F0529F4E280F38085
:10398000E416F506B1F33496CE16DF0641F78EE65F
:1039900095E00E94B90A0E940B0985E090E00E9420
:1039A000D9050E94EE081092AC071092AB07109256
:1039B00097072FCE222359F3BFEF2B1A3B0A605FE4
:1039C0007F4FA8010031110509F0AFCF81E080934E
:1039D000B30780918B0790918C07019690938C0789
:1039E00080938B0789E595E00E94DC0A61E08CE01A
:1039F0000E949B0384E090E00E94D905D4CF80917F
:103A0000B2078111D0CF8091AB079091AC07181607
:103A100019064CF68956984FFC0110826DE877E044
:103A200087E997E00E945420892B79F481E0809304
:103A3000B20780918B0790918C07019690938C0729
:103A400080938B0786E895E0CFCF8BE995E0A1CFF7
:103A5000882309F4DECD8091B6078111DACD8091FB
:103A6000B5078111D6CD8091B4078111D2CD809157
:103A7000B3078111CECD8091B2078111CACD80915B
:103A8000AB079091AC07833191050CF0C2CD9C013E
:103A90002F5F3F4F3093AC072093AB078956984F69
:103AA000DC014C932956384FF90110820E944909D4
:103AB0006EEA75E08EE199E00E94B70A0E9454090F
:103AC00067E977E0F7CD617072CD8CED95E061CF5D
:103AD00085E296E05ECF8BE493E0909300098093BB
:103AE000FF0880914107909142078F5F984071F4E1
:103AF000E0911209F0911309908180911409809549
:103B000089238083109242071092410708951F93E2
:103B1000FC0199278827BC01E89411911032E9F340
:103B2000193010F01E30C8F31B3251F01D3249F429
:103B3000689406C00E94AE1D610F711D811D911D0C
:103B4000119110531A30B0F33EF490958095709512
:103B500061957F4F8F4F9F4F1F910895592F482F89
:103B6000372F262F660F771F881F991F660F771F25
:103B7000881F991F620F731F841F951F660F771F81
:103B8000881F991F0895F999FECF92BD81BDF89ABB
:103B9000992780B50895262FF999FECF1FBA92BDB7
:103BA00081BD20BD0FB6F894FA9AF99A0FBE01961E
:103BB00008950E94E41DA59F900DB49F900DA49FB1
:103BC000800D911D11240895A29FB001B39FC001E3
:103BD000A39F700D811D1124911DB29F700D811D39
:103BE0001124911D089597FB072E16F4009407D019
:103BF00077FD09D00E94311E07FC05D03EF4909558
:103C000081959F4F0895709561957F4F0895A1E22A
:103C10001A2EAA1BBB1BFD010DC0AA1FBB1FEE1F46
:103C2000FF1FA217B307E407F50720F0A21BB30B91
:103C3000E40BF50B661F771F881F991F1A9469F70D
:103C400060957095809590959B01AC01BD01CF0169
:103C50000895EE0FFF1F881F8BBF0790F691E02D90
:103C60001994AA1BBB1B51E107C0AA1FBB1FA617B3
:103C7000B70710F0A61BB70B881F991F5A95A9F715
:103C800080959095BC01CD0108950F931F93CF931C
:103C9000DF938230910510F482E090E0E0912C09EE
:103CA000F0912D0930E020E0B0E0A0E0309799F4E9
:103CB0002115310509F44AC0281B390B2430310580
:103CC000D8F58A819B816115710589F1FB01938388
:103CD0008283FE0111C04081518102811381481706
:103CE0005907E0F04817590799F4109761F01296B8
:103CF0000C93129713961C933296CF01DF91CF91BC
:103D00001F910F91089500932C0910932D09F4CF62
:103D10002115310551F04217530738F0A901DB0195
:103D20009A01BD01DF01F801C1CFEF01F9CF9093F6
:103D30002D0980932C09CDCFFE01E20FF31F819353
:103D400091932250310939832883D7CF20912A09B2
:103D500030912B09232B41F42091BF023091C002F6
:103D600030932B0920932A092091BD023091BE0285
:103D70002115310541F42DB73EB74091C102509154
:103D8000C202241B350BE0912A09F0912B09E2179E
:103D9000F307A0F42E1B3F0B2817390778F0AC016E
:103DA0004E5F5F4F2417350748F04E0F5F1F50934B
:103DB0002B0940932A09819391939FCFF0E0E0E093
:103DC0009CCFCF93DF930097E9F0FC0132971382E9
:103DD0001282A0912C09B0912D09ED0130E020E074
:103DE0001097A1F420813181820F931F20912A091D
:103DF00030912B092817390709F061C0F0932B097E
:103E0000E0932A09DF91CF910895EA01CE17DF07E9
:103E1000E8F54A815B819E0141155105B1F7E90141
:103E2000FB83EA8349915991C40FD51FEC17FD0715
:103E300061F4808191810296840F951FE901998335
:103E40008883828193819B838A83F0E0E0E01296ED
:103E50008D919C9113970097B9F52D913C911197F5
:103E6000CD010296820F931F20912A0930912B09D0
:103E70002817390739F6309751F510922D0910920D
:103E80002C09B0932B09A0932A09BCCFD383C283FA
:103E900040815181840F951FC817D90761F44E5F87
:103EA0005F4F88819981480F591F518340838A81D0
:103EB0009B81938382832115310509F0B0CFF09364
:103EC0002D09E0932C099ECFFD01DC01C0CF1382A8
:103ED0001282D7CF4F925F926F927F928F929F9272
:103EE000AF92BF92CF92DF92EF92FF920F931F9308
:103EF000CF93DF938C01009799F4CB01DF91CF91A1
:103F00001F910F91FF90EF90DF90CF90BF90AF90F7
:103F10009F908F907F906F905F904F900C94451E74
:103F2000FC01E60FF71F9C0122503109E217F3074D
:103F300008F4AEC0D901CD91DC911197C617D7070F
:103F400020F1C530D10578F0CE0104978617970788
:103F500050F0C61BD70B2297C193D1936D937C93DE
:103F6000CF010E94E11EC801DF91CF911F910F91F7
:103F7000FF90EF90DF90CF90BF90AF909F908F9089
:103F80007F906F905F904F9008955B01AC1ABD0ACF
:103F90004C018C0E9D1EA0912C09B0912D09512C25
:103FA000412CF12CE12C109731F580912A09909148
:103FB0002B098815990509F05CC04616570608F0CC
:103FC00058C08091BD029091BE02009741F48DB718
:103FD0009EB74091C1025091C202841B950BE81715
:103FE000F90708F055C0F0932B09E0932A09F9016D
:103FF00071836083B8CF8D919C91119712966C90CC
:10400000129713967C901397A815B90559F56C0172
:1040100042E0C40ED11CCA14DB0420F1AC014A19E1
:104020005B09DA011296159780F0628273825183E0
:104030004083D9016D937C93E114F10471F0D701B1
:104040001396FC93EE9312978ECF22968C0F9D1FA2
:10405000F90191838083F301EFCFF0932D09E09371
:104060002C0981CF4816590608F42C017D01D30193
:104070009ACFCB010E94451E7C01009749F0AE010A
:10408000B8010E944B20C8010E94E11E87016BCF3E
:1040900010E000E068CFFB01DC0102C001900D924E
:1040A00041505040D8F70895FB01DC018D910190FB
:1040B00080190110D9F3990B0895FB01DC010190DF
:1040C0000D920020E1F70895FB01DC0141505040C2
:1040D00030F08D910190801919F40020B9F7881BF8
:1040E000990B0895FB01DC014150504048F00190CC
:1040F0000D920020C9F701C01D9241505040E0F7D9
:10410000089511E0C9E6D1E000E006C0802FFE016D
:104110000E94291E2196011DCA36D10780E008079A
:06412000A9F7F894FFCF9F
:1041260054727920616761696E2100000000000009
:104136000000000000000000000000000000000079
:104146000057656C6C20646F6E65210000000000EE
:104156000000000000000000000000000000000059
:10416600000047616D652053746172746564212097
:10417600476F6F64206C75636B21000000000000C0
:1041860000000047616D65204F76657221205469F5
:104196006D65277320757021000000000000000087
:1041A60000000000566963746F72792120416C6CBF
:1041B600207461736B7320646F6E652100000000CC
:1041C6000000000000050403020908070631323327
:1041D6004134353642373839432A30234400002EDD
:1041E60009800000004000140054007EFF06000114
:1041F60000000000EF160018001A001C001E002028
:104206000022002400260028002A002C003700384F
:104216000039003A003B003C002E002F00300031F0
:104226000032003300340035003D003E003F0040C0
:10423600004100420043004400000000006A02D42E
:10424600010102B70232021002240200000000D56A
:1042560007A807EB088306A1078E077F0700000063
:10426600000904C9039803000000008406D401EB8A
:10427600088306E006F8066B06000000008509D4F0
:1042860001EB08D3010D0A004B6579706164204C7F
:1042960045442047616D6500507265737320535421
:1042A600415254004D5033204572726F72210053B3
:1042B60045543A004F4B3A434F554E54444F574E90
:1042C600004F4B3A50454E414C5459004F4B3A53D0
:1042D60057495443484553004F4B3A425554544F5F
:1042E6004E53004F4B3A504F5453004F4B3A4A41AE
:1042F600434B53004F4B3A4B4559434F4445004FB0
:104306004B3A53415645004D53473A004F4B3A4DB1
:1043160053473A5354415254004F4B3A4D53473A40
:10432600434F5252454354004F4B3A4D53473A5729
:10433600524F4E47004F4B3A4D53473A5649435416
:104346004F5259004F4B3A4D53473A444546454123
:1043560054004745543A434F4E46494700434F4E53
:104366004649473A434F554E54444F574E3A0043F9
:104376004F4E4649473A50454E414C54593A0043F0
:104386004F4E4649473A53574954434845533A00D6
:10439600434F4E4649473A425554544F4E533A00BE
:1043A600434F4E4649473A504F54533A002C004328
:1043B6004F4E4649473A4A41434B533A00434F4EC4
:1043C6004649473A4B4559434F44453A00434F4EB9
:1043D6004649473A4D53473A53544152543A00439B
:1043E6004F4E4649473A4D53473A434F525245433B
:1043F600543A00434F4E4649473A4D53473A57526F
:104406004F4E473A00434F4E4649473A4D53473A77
:10441600564943544F52593A00434F4E4649473A3C
:104426004D53473A4445464541543A004F4B3A525C
:10443600455345540054696D652072656D61696E1A
:10444600696E673A00207365636F6E647300546922
:104456006D652773207570210053657175656E63F0
:1044660065207374617274656400456E64207769B3
:104476007468202A206B6579004A61636B20636F3C
:104486006E6E656374696F6E73204F4B21004A61CF
:10449600636B20636F6E6E656374696F6E732077EE
:1044A600726F6E6721004B657970616420636F647B
:1044B6006520636F727265637421004B6579706164
:1044C6006420636F64652077726F6E672100456EA6
:1044D60074657220636F64653A00416C6C20746188
:1044E600736B7320646F6E6521005377697463681C
:1044F600657320636F727265637421005377697404
:10450600636865732077726F6E67210042757474F5
:104516006F6E2073657120636F727265637421001C
:10452600427574746F6E207365712077726F6E6753
:104536002100506F74656E74696F6D657465727372
:10454600204F4B2100506F74656E74696F6D6574F2
:0C4556006572732077726F6E67210000A1
:00000001FF
