:100000000C945F010C9490010C9490010C9490015D
:100010000C9490010C9490010C9490010C9490011C
:100020000C9490010C94260D0C94260D0C94260D26
:100030000C9490010C9490010C9490010C949001FC
:100040000C9490010C9490010C9490010C949001EC
:100050000C9490010C9490010C9490010C94DC0C85
:100060000C9490010C94A60C0C947C0C0C949001B4
:100070000C9490010C9490010C9490010C949001BC
:100080000C9490010C9490010C9490010C949001AC
:100090000C94460C0C941C0C0C9490010C94300D98
:1000A0000C9490010C9490010C9490010C9490018C
:1000B0000C9490010C9490010C9490010C9490017C
:1000C0000C9490010C9490010C9490010C9490016C
:1000D0000C9490010C9490010C9490010C9490015C
:1000E0000C9490010C944A070C941D020C9440024D
:1000F0000C944E030C9448030C94F3060C946E0578
:100100000C9483030C945D030C94EF010C94DD01BB
:100110000C9475030C9488030C947B030C94EB03F0
:100120000C94F0010C944E050C9490020C946A050A
:100130000C94DC010C94540E0C9416070C9452038E
:100140000C9489030C94DD020C945A030C941D0743
:100150000C945C050C94F4060C946D030C942C0226
:100160000C9467030C9447050C9403070C948D03BF
:100170000C9456030C9412090C9460080C94BA0366
:100180000C9463050C9463030C9471030C942B047E
:100190000C946C050C947F030C944E02000021001B
:1001A000240027002A002D00300033000101000048
:1001B000040107010A0100002200250028002B008D
:1001C0002E003100340002010000050108010B017E
:1001D000000020002300260029002C002F00320000
:1001E00000010000030106010901050505050705D9
:1001F00008080808020202020A0A080804040404A3
:1002000001010101010101010303030303030303CE
:10021000040707070C0C0C0C0C0C0C0C020202025D
:1002200006060606060606060B0B0B0B0B0B0B0B46
:1002300001021020200808102040102040800201F8
:1002400002010804020101020408102040808040DD
:1002500020100804020180040201804020100804DC
:10026000020108040201010204081020408001027A
:1002700004081020408000000A0B02090C0D0E0833
:10028000070304010000000000000000000000005F
:10029000000000000000000000000000000000005E
:1002A000000012111000000000000000000000001B
:1002B000000000000000000000000000540E1124A7
:1002C0001FBECFEFD1E2DEBFCDBF00E00CBF2AE002
:1002D000A4E0B7E001C01D92A633B207E1F717E032
:1002E000A0E0B2E0E2E5F2E400E00BBF02C007905C
:1002F0000D92A430B107D9F711E0CFE5D1E000E0CD
:1003000006C021970109802FFE010E94E31ECE3511
:10031000D10780E00807A9F70E94610F0C942721FC
:100320000C940000FC01A089B18982E08C93A48523
:10033000B5851C92A685B7858FEC8C93108EA48909
:10034000B58986E08C93A289B3898C9180618C9366
:10035000A289B3898C9188608C93A289B3898C918E
:1003600080688C930288F389E02D80818F7D808363
:10037000089596E0899FD0011124AF56B64F90960C
:100380007C936E935F9791E091969C939197E09107
:10039000FE09F091FF099091FD09992339F03097FA
:1003A00051F0811108C08091AD091994309719F06E
:1003B0005C968C91FACF089508950895FC012481EC
:1003C00035816217730748F480819181009729F085
:1003D000860F971FFC018081089580E0089508959D
:1003E000AF92BF92CF92DF92EF92FF920F931F9343
:1003F000CF93DF936C017B018B01040F151FEB0181
:100400005E01AE18BF08C017D10759F06991D60137
:10041000ED91FC910190F081E02DC6011995892B99
:1004200079F7C501DF91CF911F910F91FF90EF9068
:10043000DF90CF90BF90AF900895FC01538D448D15
:10044000252F30E0842F90E0821B930B541710F07F
:10045000CF96089501970895FC01918D828D98178C
:1004600061F0A28DAE0FBF2FB11D5D968C91928D64
:100470009F5F9F73928F90E008958FEF9FEF089595
:10048000FC01918D828D981731F0828DE80FF11D5E
:10049000858D90E008958FEF9FEF0895FC01918D79
:1004A000228D892F90E0805C9F4F821B91098F7372
:1004B000992708958BE498E00E944E0221E0892B51
:1004C00009F420E0822F089588EE98E00E944E0201
:1004D00021E0892B09F420E0822F0895FC01A48DEE
:1004E000A80FB92FB11DA35ABF4F2C91848D90E056
:1004F00001968F739927848FA689B7892C93A08939
:10050000B1898C91837080648C93938D848D9813C2
:1005100006C00288F389E02D80818F7D8083089555
:10052000EF92FF920F931F93CF93DF93EC0181E043
:10053000888F9B8D8C8D98131AC0E889F9898081EA
:1005400085FF15C09FB7F894EE89FF896083E8891D
:10055000F98980818370806480839FBF81E090E00F
:10056000DF91CF911F910F91FF90EF900895F62E9C
:100570000B8D10E00F5F1F4F0F731127E02E8C8D36
:100580008E110CC00FB607FCFACFE889F98980817B
:1005900085FFF5CFCE010E946E02F1CFEB8DEC0FFF
:1005A000FD2FF11DE35AFF4FF0829FB7F8940B8F98
:1005B000EA89FB8980818062CFCFCF93DF93EC0102
:1005C000888D8823B9F0AA89BB89E889F9898C913B
:1005D00085FD03C0808186FD0DC00FB607FCF7CFF7
:1005E0008C9185FFF2CF808185FFEDCFCE010E94F7
:1005F0006E02E9CFDF91CF91089580E090E0892BE2
:1006000029F00E94640281110E94000080E090E0C5
:10061000892B29F00E945A0281110E94000080E07B
:1006200090E0892B49F080E090E0892B29F00E942E
:10063000000081110E94000080E090E0892B49F0C9
:1006400080E090E0892B29F00E94000081110C9439
:10065000000008958150823108F05AC0E82FF0E080
:100660008827EA5CFC4F8F4F0C94E31E56035A0315
:1006700048034E03520388035D03630367036D035E
:10068000710375037B037F038803830389038D0351
:10069000809180008F778093800008958091800002
:1006A0008F7DF9CF80918000877FF5CF84B58F77DC
:1006B00084BD089584B58F7DFBCF8091B0008F7786
:1006C0008093B00008958091B0008F7DF9CF809124
:1006D00090008F77809390000895809190008F7D97
:1006E000F9CF80919000877FF5CF8091A0008F7720
:1006F0008093A00008958091A0008F7DF9CF809114
:10070000A000877FF5CF809120018F778093200113
:100710000895809120018F7DF9CF80912001877FFE
:10072000F5CFCF93DF93282F30E0F901EA58FD4F42
:100730008491F901E05DFD4FD491F901E651FE4F3E
:10074000C491CC23A1F081110E942A03EC2FF0E088
:10075000EE0FFF1FE053FE4FA591B491EC91ED23F6
:1007600081E090E009F480E0DF91CF91089580E08E
:1007700090E0FACF862F0C9491031F93CF93DF93D1
:10078000282F30E0F901EA58FD4F8491F901E05D2E
:10079000FD4FD491F901E651FE4FC491CC23A9F04D
:1007A000162F81110E942A03EC2FF0E0EE0FFF1F9D
:1007B000EA54FE4FA591B4918FB7F894EC911111C2
:1007C00008C0D095DE23DC938FBFDF91CF911F91BE
:1007D0000895DE2BF8CF862F642F0C94BD03CF93A2
:1007E000DF9390E0FC01E05DFD4F249186519E4F28
:1007F000FC0184918823C9F090E0880F991FFC01C7
:10080000E456FE4FA591B491FC01EA54FE4FC59108
:10081000D49161110DC09FB7F8948C9120958223DB
:100820008C938881282328839FBFDF91CF910895DF
:10083000623051F49FB7F8943C91822F80958323C6
:100840008C93E8812E2BEFCF8FB7F894EC912E2B61
:100850002C938FBFEACF862F642F0C94EF033FB702
:10086000F8948091BD079091BE07A091BF07B09109
:10087000C00726B5A89B05C02F3F19F00196A11D02
:10088000B11D3FBFBA2FA92F982F8827BC01CD01DA
:10089000620F711D811D911D42E0660F771F881F39
:1008A000991F4A95D1F708958F929F92AF92BF9268
:1008B000CF92DF92EF92FF926B017C010E942F0496
:1008C0004B015C01C114D104E104F104B9F00E94B0
:1008D0002F04681979098A099B09683E73408105CC
:1008E000910580F321E0C21AD108E108F10888EEF1
:1008F000880E83E0981EA11CB11CE4CFFF90EF90FE
:10090000DF90CF90BF90AF909F908F9008952FB7BA
:10091000F8946091B9077091BA078091BB079091E4
:10092000BC072FBF08950F931F938091000A9091E9
:10093000010ADC01ED91FC910084F185E02D19950F
:10094000892B09F4D5C060E070E0CB010E9454040B
:1009500020911E0A8091000A9091010ADC01ED911C
:10096000FC910284F385E02D21110BC01995809331
:100970000A0A8E37D1F680911E0A8F5F80931E0A75
:10098000D4CF199590911E0AE92FF0E0E050F64F70
:1009900082879230B9F09930D9F09130A9F48F3F25
:1009A00099F010921E0A81E08093200A1092230A87
:1009B0001092220A8093240A1092250A80E01F9147
:1009C0000F910895863069F79F5F90931E0AADCF0F
:1009D0008F3E39F780910C0A90910B0A890F992765
:1009E000991FE0910D0A9C012E0F311D80910E0A76
:1009F000820F932F911D40910F0A50E0840F951F95
:100A00002091100A30E06091110A70E0762F66277D
:100A1000F091120A6F0F711D820F931F91958195AE
:100A200091096817790709F0BCCF10921E0AE134CA
:100A300019F41092250A3DC0E093210A542F44274F
:100A4000240F351F3093230A2093220AEA53E631FC
:100A500008F044C0F0E08827EF5CFA4F8F4F0C9409
:100A6000E31E5C0563056C0547056C054E056A05CC
:100A70006E056C056C056C056C056C056C056C05EC
:100A80006C056E056C056C056C056C056C0585E0E8
:100A90008093200A81E08093240A0BC089E020FD26
:100AA000F7CF84E021FDF4CF237033278AE0232B96
:100AB00079F78091240A83CF87E020FDE9CF82E097
:100AC00021FDE6CFF6CF88E020FDE2CF83E021FDD7
:100AD000DFCFEFCF86E0DCCF8BE0DACF81E0809311
:100AE000200A1092230A1092220A8093240AA1CF8E
:100AF0008091250A8823E9F20E9487040091020A66
:100B00001091030A2091040A3091050A601B710BB1
:100B1000820B930B0091060A1091070A2091080A94
:100B20003091090A601771078207930710F210923B
:100B30001E0A1092200A1092230A1092220A81E0C3
:100B400039CF8093170A272F30E07093190A6093EA
:100B50001A0A4091160A9091150A490F5527551FF8
:100B6000840F952F911D4091180A840F911D820FBB
:100B7000931F680F792F711D71956195710970939D
:100B80001B0A60931C0A442361F08091250A882384
:100B900041F060E070E0CB010E9454040E94930495
:100BA000F4CF8091000A9091010ADC01ED91FC9153
:100BB0000280F381E02D4AE050E064E17AE019958B
:100BC0000E9487046093020A7093030A8093040AC8
:100BD0009093050A8091180A91E0811101C090E07C
:100BE0009093250A811106C06AE070E080E090E0F1
:100BF0000C9454040895BC0183E00C94A1050F9358
:100C00001F93CF93DF93C82FD62F86E0C89FF001A4
:100C10001124EF56F64F11A2878D90A181309105D6
:100C2000F1F058F082309105F1F1039709F440C0DA
:100C3000DF91CF911F910F9108956623C9F361E071
:100C400070E08C2F0E94B9010E9487046093E9092B
:100C50007093EA098093EB099093EC09E9CF0E9425
:100C600087040091E9091091EA092091EB0930917C
:100C7000EC09AB01BC01401B510B620B730B809163
:100C8000FB099091FC09B0E0A0E084179507A60746
:100C9000B70748F462E070E08C2FDF91CF911F918D
:100CA0000F910C94B90163E070E0D111C1CFF4CF82
:100CB00070E060E0F1CF0F931F930E948704609370
:100CC000F0087093F1088093F2089093F30888EE8F
:100CD00098E00E942C0297FF1DC00E94870400919B
:100CE000F0081091F1082091F2083091F308601B90
:100CF000710B820B930B0091EC081091ED08209181
:100D0000EE083091EF086017710782079307F8F239
:100D10008FEF9FEF1F910F91089520914507260FA8
:100D20003327331F21323105ECF420918E07FC016B
:100D300090E080E0243069F082E00895A0914507BA
:100D40002191AC014B5D584FA40FB52FB11D2C93D1
:100D50000196861798F380914507680F60934507C1
:100D600080E0089581E0089510928E0781E08093DD
:100D70008D071092680761E084E10E94BD0361E085
:100D800085E10E94BD03E9EBF0E080818E7F8083E6
:100D900080818D7F808388E48093B80085E4809390
:100DA000BC000895CF93DF9391E0909324078823AC
:100DB000B9F0C091B800D091BA008091BC008A7B94
:100DC0008093BC0060E084E10E94BD0360E085E1A7
:100DD0000E94BD030E94B406D093BA00C093B8002D
:100DE000DF91CF9108950895E091C8078091C707DA
:100DF000E81730F4F0E0EC5FF84F808190E0089560
:100E00008FEF9FEF08959091C8078091C7072FEF4C
:100E10003FEF981748F4E92FF0E0EC5FF84F20819E
:100E200030E09F5F9093C807C90108958091C7077C
:100E30009091C807891B990B0895CF92DF92EF928A
:100E4000FF920F931F93CF93DF937C01CB018A0115
:100E500020919407222389F0EB016B01C40ED51E6B
:100E6000CC15DD0569F06991D701ED91FC910190F8
:100E7000F081E02DC7011995F3CF642F0E948D06F4
:100E8000C801DF91CF911F910F91FF90EF90DF90FC
:100E9000CF900895CF93DF931F92CDB7DEB76983CC
:100EA000209194072223F9F02091C507203258F0B1
:100EB00021E030E0FC013383228390E080E00F905A
:100EC000DF91CF9108958091C607E82FF0E0EB56AF
:100ED000F84F998190838F5F8093C6078093C507F1
:100EE00081E090E0ECCF61E0CE0101960E948D069A
:100EF000F7CFCF92DF92EF92FF920F931F93CF9392
:100F0000DF93FC01C48121E020939407C093B507CF
:100F10001092C6071092C5078385682B85E899E073
:100F20000E944A07D091C507D13208F092C00E94B2
:100F30002F046B017C0180918E07811165C082E0D6
:100F400080938E0781E080938D078FEF80938C07CD
:100F500010928B07D0938A07A5E9B7E0EAE6F7E09D
:100F600080E0D81385C01092690780916907CC0F83
:100F7000C82BC093690780916807813009F07CC055
:100F8000109268070E942F046B017C018091690711
:100F90008093BB008091900790919107A091920758
:100FA000B0919307892B8A2B8B2B99F00E942F04E9
:100FB000009190071091910720919207309193072B
:100FC0006C197D098E099F0906171707280739072D
:100FD000E0F18091BC0083FDD9CF85EC8093BC000B
:100FE0000E942F046B017C0180918E07823009F4EE
:100FF00045C080918C078F3F61F180918C078032D2
:1010000041F180918C0725C08091900790919107C4
:10101000A0919207B0919307892B8A2B8B2B09F40F
:101020008ACF0E942F040091900710919107209180
:101030009207309193076C197D098E099F09061755
:1010400017072807390708F076CF80918F070E948D
:10105000D2061092C6071092C50710929407DF912E
:10106000CF911F910F91FF90EF90DF90CF90089557
:101070009D9191938F5F75CF85EEB0CF8091900752
:1010800090919107A0919207B0919307892B8A2B99
:101090008B2B09F4A9CF0E942F0400919007109187
:1010A000910720919207309193076C197D098E0961
:1010B0009F09061717072807390708F095CFC5CFEE
:1010C00090E080E008958091410890914208A091BD
:1010D0004308B09144084091C9075091CA076091F4
:1010E000CB077091CC07841B950BA60BB70B809395
:1010F000410890934208A0934308B0934408089590
:101100000F931F93CF93DF93C3E2D3E08E01F801D7
:1011100080810E5F1F4F61E00E94BD03F3E00D323E
:101120001F07A9F764EF71E080E090E00E9454048B
:101130008881229660E00E94BD0383E0CD32D8070B
:10114000B9F7DF91CF911F910F9108950F931F93DE
:10115000CF938C01C62F0E9479076C2F6460C80161
:101160000E9479076C2F6B7FC8010E94790783EC7E
:1011700090E00197F1F7CF911F910F9108950F9390
:101180001F93CF93DF938C01D62FC42F607F642BE6
:101190000E94A60880E1D89FB00111246C2BC801E1
:1011A000DF91CF911F910F910C94A608CF93DF93FD
:1011B00000D000D01F921F92CDB7DEB788E0E3ECDD
:1011C000F2E0DE01119601900D928A95E1F780918F
:1011D0002E0A81111AC08FEF90E0880F991F21E02D
:1011E00030E02C0F3D1F820F931FFC01608160686F
:1011F00040E086E29AE028960FB6F894DEBF0FBE74
:10120000CDBFDF91CF910C94BF0881E0E5CF40E0E6
:1012100061E086E29AE00E94BF088BE39FE10197BC
:10122000F1F7089541E00E94BF0881E090E0089541
:101230000F931F93CF93DF93FC0104811581011558
:10124000110539F4FB011082DF91CF911F910F91AD
:101250000895415051094017510708F48A01EB01E4
:10126000FC0160817181A801CE010E941821C00F8C
:10127000D11F1882E9CF0C94991ECF92DF92EF9282
:10128000FF920F931F93CF93DF93EB017B0124E039
:10129000E20EF11C8B016C01C61AD70AC601800F41
:1012A000911F0E94911EF80181938F01EE15FF0599
:1012B000A9F7CE01DF91CF911F910F91FF90EF9091
:1012C000DF90CF9008959F92AF92BF92CF92DF921E
:1012D000EF92FF920F931F93CF93DF935C017B01FB
:1012E0008B01D0E0C0E0F80191908F016501CC0E38
:1012F000DD1EC6010E94911E981621F0692DC601BF
:101300000E94991E2196C430D10569F7C701DF916B
:10131000CF911F910F91FF90EF90DF90CF90BF90F2
:10132000AF909F9008950C94911EFC018081918153
:10133000009711F00C94551E60E070E0CB01089509
:10134000FB0101900020E9F73197AF01461B570BD5
:10135000DC01ED91FC910280F381E02D199467E6A8
:1013600073E088EE98E00C94A0098F929F92AF9260
:10137000BF92EF92FF920F931F93CF93DF93CDB75E
:10138000DEB7A1970FB6F894DEBF0FBECDBF7C01CC
:10139000FA01CB0119A2223008F42AE08E010F5D78
:1013A0001F4F822E912CB12CA12CBF01A5019401BD
:1013B0000E94C11EF901CA016A300CF5605DD801B6
:1013C0006E938D01232B242B252B79F790E080E061
:1013D000109721F0BD01C7010E94A009A1960FB688
:1013E000F894DEBF0FBECDBFDF91CF911F910F915B
:1013F000FF90EF90BF90AF909F908F900895695CA1
:10140000DECFCF92DF92EF92FF920F931F93CF9395
:10141000DF936B01770FEE08FF08F7FE1FC0EC01AA
:10142000E881F9810190F081E02D6DE219958C0140
:1014300044275527BA014C195D096E097F092AE036
:10144000CE010E94B509800F911FDF91CF911F91AE
:101450000F91FF90EF90DF90CF9008952AE0B701B1
:10146000A601DF91CF911F910F91FF90EF90DF9038
:10147000CF900C94B509CF93DF93AB01BC012AE068
:1014800088EE98E00E94B509EC010E94AF098C0F2C
:101490009D1FDF91CF910895CF93DF93BC0188EE1C
:1014A00098E00E94A009EC010E94AF098C0F9D1FDB
:1014B000DF91CF9108950C94A009CF93DF93EC01B5
:1014C0000E940709BE0186E29AE00E945B0A0E9420
:1014D000D60860E072E086E29AE00E945B0A60ED66
:1014E00077E080E090E00E9454040E948704685EE8
:1014F000734081099109609338087093390880938B
:101500003A0890933B08DF91CF910895CF93DF93F2
:10151000EC010E940709BE0186E29AE00E945B0A84
:101520000E94D60861E272E086E29AE00E945B0ABD
:1015300060ED77E080E090E00E9454040E94870410
:10154000685E734081099109609338087093390887
:1015500080933A0890933B08DF91CF910895FB0167
:1015600044815581FC01248135812417350778F0A9
:1015700080819181009759F0FB0160817181611533
:10158000710529F00E940A2121E0892B09F020E051
:10159000822F08950F931F93CF93DF938C01EB015C
:1015A000FC01808191810097E1F06881798161156A
:1015B0007105A9F0428153812C813D814217530767
:1015C00070F00E9403218C819D81F80195838483B2
:1015D0001D821C82DF91CF911F910F9108950E946F
:1015E000871F88819981F801918380838A819B81FB
:1015F000938382838C819D81958384831982188251
:101600001B821A82E5CFCF93DF93EC018881998109
:10161000009711F00E94871F198218821D821C8278
:101620001B821A82DF91CF910895FC018081918104
:10163000009711F00C94871F08950F931F93CF9379
:10164000DF93EC0188819981009759F02A813B81D1
:101650002617370730F081E0DF91CF911F910F916E
:1016600008958B016F5F7F4F0E941020009759F003
:10167000998388831B830A832C813D81232B59F70F
:10168000FC011082E8CF80E0E7CFEF92FF920F934A
:101690001F93CF93DF93EC017B01198218821B8289
:1016A0001A821D821C82FB0101900020E9F731970C
:1016B0008F01061B170BB8010E941D0B811109C079
:1016C000CE01DF91CF911F910F91FF90EF900C947D
:1016D000030B1D830C83B70188819981DF91CF9122
:1016E0001F910F91FF90EF900C9403219F92AF9266
:1016F000BF92CF92DF92EF92FF920F931F93CF93FF
:10170000DF937C016B015A0189012417350720F40E
:101710008B2D5901042F182F69E673E0C7010E9431
:10172000450BD6011496CD91DC91AC16BD0650F553
:101730000C171D0708F4E801D601ED91FC911197F3
:10174000EC0FFD1F908010820D911C910A0D1B1D46
:101750000115110571F0F80101900020E9F73197AA
:101760005F01A01AB10AB501C7010E941D0B8111CA
:1017700016C0C7010E94030BD6018D919C91C80F22
:10178000D91F9882C701DF91CF911F910F91FF90D0
:10179000EF90DF90CF90BF90AF909F900895F701AA
:1017A000B582A482B801808191810E940321E4CF97
:1017B000CF93DF93EC01FB01248135810E94760BEE
:1017C000CE01DF91CF91089585ED8093BC0080918B
:1017D000900790919107A0919207B0919307079677
:1017E000A11DB11D23E0B695A795979587952A95DC
:1017F000D1F72091BC0024FD03C010928E070895FC
:1018000040919007509191076091920770919307D2
:10181000452B462B472B69F30097A105B10541F0F5
:101820002AE22A95F1F700C00197A109B109E1CF99
:1018300080918F070C94D2061F920F920FB60F92D1
:1018400011240BB60F922F933F934F935F936F9397
:101850007F938F939F93AF93BF93EF93FF938BE40B
:1018600098E00E946E02FF91EF91BF91AF919F911E
:101870008F917F916F915F914F913F912F910F9039
:101880000BBE0F900FBE0F901F9018951F920F92D6
:101890000FB60F9211240BB60F922F938F939F9335
:1018A000EF93FF93E0915B08F0915C088081E091F9
:1018B0006108F091620882FD1DC0908180916408EA
:1018C0008F5F8F7320916508821741F0E091640863
:1018D000F0E0E55BF74F958F80936408FF91EF91FF
:1018E0009F918F912F910F900BBE0F900FBE0F9075
:1018F0001F9018958081F2CF1F920F920FB60F9212
:1019000011240BB60F922F933F934F935F936F93D6
:101910007F938F939F93AF93BF93EF93FF9388EE43
:1019200098E00E946E02FF91EF91BF91AF919F915D
:101930008F917F916F915F914F913F912F910F9078
:101940000BBE0F900FBE0F901F9018951F920F9215
:101950000FB60F9211240BB60F922F938F939F9374
:10196000EF93FF93E091F808F091F9088081E091FE
:10197000FE08F091FF0882FD1DC090818091010951
:101980008F5F8F7320910209821741F0E091010966
:10199000F0E0E851F74F958F80930109FF91EF91A7
:1019A0009F918F912F910F900BBE0F900FBE0F90B4
:1019B0001F9018958081F2CF1F920F920FB60F9251
:1019C00011242F933F938F939F93AF93BF93809155
:1019D000B9079091BA07A091BB07B091BC073091AD
:1019E000B80723E0230F2D3758F50196A11DB11D2F
:1019F0002093B8078093B9079093BA07A093BB07C9
:101A0000B093BC078091BD079091BE07A091BF071E
:101A1000B091C0070196A11DB11D8093BD079093A1
:101A2000BE07A093BF07B093C007BF91AF919F912E
:101A30008F913F912F910F900FBE0F901F9018958F
:101A400026E8230F0296A11DB11DD2CF1F920F923F
:101A50000FB60F9211240F900FBE0F901F90189584
:101A60001F920F920FB60F9211240BB60F922F9365
:101A70003F934F935F936F937F938F939F93AF9316
:101A8000BF93EF93FF938091B900887F803609F46C
:101A90004DC008F040C0883209F4A9C028F5803153
:101AA00009F49DC0C8F4882309F4FBC0883009F408
:101AB00096C0FF91EF91BF91AF919F918F917F91D0
:101AC0006F915F914F913F912F910F900BBE0F90AF
:101AD0000FBE0F901F901895883109F488C080328E
:101AE00041F780938C0714C0803409F49DC040F402
:101AF0008033B9F38833E9F680938C0785ECB0C066
:101B0000803509F485C0883509F496C0883489F693
:101B10000E94E40BCECF883909F48CC038F58837A1
:101B200029F050F4883611F0803719F683E080935D
:101B30008E071092670757C0883809F47BC0803938
:101B400019F0803809F0B5CF80916707803208F02E
:101B500071C0E091670781E08E0F809367078091E5
:101B6000BB00F0E0E95BF84F80833DC0803B39F07B
:101B7000E0F4803A09F479C0883A09F09ACF84E019
:101B800080938E071092460710924507E091C30795
:101B9000F091C40719958091450781110FC081E02C
:101BA000809345071092250709C0803C09F4A6CF11
:101BB000883C09F4A3CF883B09F07BCFE09146072E
:101BC00081E08E0F80934607F0E0EB5DF84F808157
:101BD0008093BB00909146078091450729C0809172
:101BE00069078093BB0085EC8093BC0062CF909125
:101BF0008B0780918A07981758F5E0918B0781E051
:101C00008E0F80938B07F0E0E659F84F8081E9CF83
:101C1000E0918B0781E08E0F80938B078091BB0052
:101C2000F0E0E659F84F808390918B0780918A0706
:101C30009817C8F285E8D8CFE0918B0781E08E0F26
:101C400080938B078091BB00F0E0E659F84F8083CA
:101C500080918D0781115CCF81E08093680784EAD1
:101C60008093BC0010928E0724CF85EC8093BC003B
:101C700010928E0780916707803230F4E0916707F9
:101C8000F0E0E95BF84F10826091670770E0E09147
:101C9000C107F091C20787E497E019951092670792
:101CA00008CF10928C0734CF10924E0810924D0836
:101CB00088EE93E0A0E0B0E080934F089093500846
:101CC000A0935108B093520821E333E030934C08BD
:101CD00020934B084DEC50E0509358084093570820
:101CE0004CEC50E050935A084093590848EC50E0AF
:101CF00050935C0840935B0849EC50E050935E08B9
:101D000040935D084AEC50E05093600840935F08B0
:101D10004EEC50E0509362084093610810926408C2
:101D20001092650810926608109267081092EB08EE
:101D30001092EA088093EC089093ED08A093EE08C7
:101D4000B093EF083093E9082093E80825EC30E0E1
:101D50003093F5082093F40824EC30E03093F70832
:101D60002093F60820EC30E03093F9082093F8082F
:101D700021EC30E03093FB082093FA0822EC30E0AD
:101D80003093FD082093FC0826EC30E03093FF08E8
:101D90002093FE0810920109109202091092030983
:101DA000109204091092880910928709809389097A
:101DB00090938A09A0938B09B0938C0983E493E0F4
:101DC00090938609809385091092290A1092280A17
:101DD0008FE593E09093270A8093260A87E2809309
:101DE0002A0A80E180932F0A82E08093300A1092C1
:101DF000310A44EF51E060E070E04093060A5093EE
:101E0000070A6093080A7093090A9AE0EBECF2E083
:101E1000A4E1BAE001900D929A95E1F710921E0AA2
:101E200080931F0A1092240A1092250A1092930997
:101E300010929709109296091092980985E593E0FF
:101E40009093920980939109EDEAF9E0108214824F
:101E500013821582369689E0E93EF807B9F789EAD8
:101E600092E09093F4098093F30985EA92E09093CD
:101E7000F6098093F50984E08093F7098093F809C7
:101E80008DEA92E09093F2098093F1098AE090E064
:101E90009093FA098093F90984EF91E09093FC09FB
:101EA0008093FB091092FF091092FE091092ED0930
:101EB0001092EE091092EF091092F0091092FD09AC
:101EC0000895CF93DF93CDB7DEB7C252D1400FB69E
:101ED000F894DEBF0FBECDBF789484B5826084BD18
:101EE00084B5816084BD85B5826085BD85B581601E
:101EF00085BD80916E00816080936E00109281009C
:101F00008091810082608093810080918100816056
:101F10008093810080918000816080938000809117
:101F2000B10084608093B1008091B00081608093A3
:101F3000B000809191008260809391008091910027
:101F400081608093910080919000816080939000E7
:101F50008091A10082608093A1008091A1008160A6
:101F60008093A1008091A00081608093A000809167
:101F70002101826080932101809121018160809301
:101F800021018091200181608093200180917A005D
:101F9000846080937A0080917A00826080937A00D6
:101FA00080917A00816080937A0080917A008068C5
:101FB00080937A001092C10088EE98E00E9492010E
:101FC0008BE498E00E9492011092C8071092C70714
:101FD0001092C6071092C5070E94B4068CED91E0DE
:101FE0009093C4078093C3078DED91E09093C2074F
:101FF0008093C1070E94B40610922B0A8091300A88
:10200000823018F098E090932B0A80932E0A62E3B6
:1020100070E080E090E00E9454046091310A86E212
:102020009AE00E94790768EE73E080E090E00E94F9
:10203000540460E386E29AE00E94A6080BE416E4EA
:10204000C8010197F1F760E386E29AE00E94A608D2
:10205000C8010197F1F760E386E29AE00E94A608C2
:1020600083E592E00197F1F760E286E29AE00E9450
:10207000A60860912B0A606240E086E29AE00E9426
:10208000BF0884E080932C0A40E06CE086E29AE08E
:102090000E94BF080E94070982E080932D0A40E059
:1020A00066E086E29AE00E94BF0840E062E086E2D5
:1020B0009AE00E94BF088BE39FE10197F1F788E067
:1020C0008093310A60E086E29AE00E9479070E94DC
:1020D00007096AE673E086E29AE00E945B0A0E94C2
:1020E000D6086AE773E086E29AE00E945B0A68EE2F
:1020F00073E080E090E00E9454048BE498E09093B9
:10210000010A8093000A81E08093180A70E060E081
:102110008CE00E94A1050E9487046B017C010E9453
:102120009304811111C00E9487046C197D098E09E6
:102130009F09613D77408105910530F460E070E0D2
:10214000CB010E945404EBCF68EC70E080E090E09B
:102150000E9454041092240A8091200A843081F055
:10216000893071F00E94070966E873E086E29AE020
:102170000E945B0A68EE73E080E090E00E945404E5
:1021800069E170E086E00E94A10543E2E42E43E0AD
:10219000F42E09E113E0F801D0800E5F1F4F61E0DB
:1021A0008D2D0E94EF0361E08D2D0E94BD03F7018C
:1021B000D080F2E0EF0EF11C61E08D2D0E94EF0364
:1021C00061E08D2D0E94BD0323E00332120719F751
:1021D00033E2E32E33E0F32E89E193E0CB5EDE4F72
:1021E00099838883C551D140CB5EDE4FE881F98168
:1021F000C551D14080813296CB5EDE4FF983E883B2
:10220000C551D14060E00E94BD03F7018081F2E03A
:10221000EF0EF11C60E00E94BD03CB5EDE4F288113
:102220003981C551D14002171307F1F662E087E208
:102230000E94EF0301EE12E085ED92E0C95EDE4FF1
:1022400099838883C751D140C95EDE4FE881F98107
:10225000C751D14080813296C95EDE4FF983E88351
:10226000C751D14062E00E94EF03C95EDE4F288172
:102270003981C751D1400217130731F701EE12E03F
:10228000F80180810E5F1F4F62E00E94EF03F2E0D1
:102290000D3E1F07A9F729E1E22E23E0F22E09EFF8
:1022A00012E0F80180810E5F1F4F62E00E94EF0391
:1022B000E016F106B1F761E478E090E080E00E947A
:1022C0003D0969EC77E084E090E00E943D090DEC67
:1022D00017E088E090E07C01FFEFEF1AFF0A0E9410
:1022E000930990E0F801819391938F01C7018E309B
:1022F000910589F799EDC92E97E0D92E87010F5FD7
:102300001F4FC7010E94930990E0F60181939193BA
:102310006F0178010431110589F785EEE82E87E019
:10232000F82EC8010E94911EF7018083C801019612
:102330000E94911EF7018183F2E0EF0EF11C0E5F07
:102340001F4F0032110569F7B1EFEB2EB7E0FB2EFE
:1023500000E210E068012FEFC21AD20AC8010E9401
:10236000930990E0F701918380830E5F1F4FC601B0
:102370000E94930990E0F70193838283F4E0EF0ECB
:10238000F11C0033110531F7A3E1EA2EA8E0FA2E83
:1023900068012FEFC21AD20AC8010E949309F701FF
:1023A00081937F0186010A33110591F702E412E05F
:1023B0007601FFEFEF1AFF0AC6010E949309F801A8
:1023C00081938F016701FBE5EF16F10489F7F1E2D4
:1023D000CF2EF2E0DF2E87010F5F1F4FC7010E9453
:1023E0009309F60181936F0178010C37110599F774
:1023F000E0E0CE2EE2E0DE2E78012FEFE21AF20AC4
:10240000C8010E949309F60181936F0187010D397C
:10241000110591F773E6C72E72E0D72E87010F5F83
:102420001F4FC7010E949309F60181936F01780144
:102430000E3B110599F764E8E62E62E0F62E68017E
:102440002FEFC21AD20AC8010E949309F7018193A3
:102450007F0186010F3D110591F781E993E00E940C
:102460004C0A62E370E080E090E00E9454046DEA60
:1024700073E088EE98E00E945B0A609141087091D9
:102480004208809143089091440858EEC52E53E0CD
:10249000D52EE12CF12CA70196010E94C11ECA0184
:1024A000B9010E943B0A62E370E080E090E00E9484
:1024B000540469EB73E088EE98E00E945B0A609137
:1024C000C9077091CA078091CB079091CC07A701EB
:1024D00096010E94C11ECA01B9010E943B0A62E333
:1024E00070E080E090E00E94540463EC73E088EEBA
:1024F00098E00E945B0A2DEC37E0C75EDE4F39831F
:102500002883C951D140C75EDE4FE881F981C951A6
:10251000D14061917191C75EDE4FF983E883C95163
:10252000D14088EE98E00E94010AC75EDE4F288104
:102530003981C951D140295D374029F70E94AF093F
:1025400062E370E080E090E00E9454046EEC73E07F
:1025500088EE98E00E945B0A09ED17E0F8016191AE
:1025600071918F0188EE98E00E94010AF7E0053E24
:102570001F07A1F70E94AF0962E370E080E090E0DE
:102580000E94540468ED73E088EE98E00E945B0AB4
:1025900045EEE42E47E0F42E10E000E0F7016191F3
:1025A00071917F0188EE98E00E94010A05301105C3
:1025B00031F06FED73E088EE98E00E945B0A0F5FE8
:1025C0001F4F0630110551F70E94AF0962E370E01A
:1025D00080E090E00E94540462EE73E088EE98E0A0
:1025E0000E945B0A01E118E031EF232E37E0332E21
:1025F000F1016081718188EE98E00E94010A6FED1F
:1026000073E088EE98E00E945B0AF10162817381B9
:1026100088EE98E00E94010A6FED73E088EE98E082
:102620000E945B0A0E94AF09F4E02F0E311C0215D4
:102630001305F1F662E370E080E090E00E9454043C
:102640006AEE73E088EE98E00E945B0A83E198E00E
:102650000E944C0A68EF73E088EE98E00E945B0AE3
:1026600082E492E00E944C0A68E074E088EE98E010
:102670000E945B0A81E292E00E944C0A6AE174E0E7
:1026800088EE98E00E945B0A80E092E00E944C0A8B
:102690008AE294E00E944C0A88EE98E00E944E0282
:1026A000181619060CF00DC169E673E0CE01835FC0
:1026B0009E4F0E94450B0E945B0697FD2FC08A30FB
:1026C000910561F189831A82CF5EDE4F08811981FD
:1026D000C151D1400F5F1F4FB801CE01835F9E4FA4
:1026E0000E941D0B882339F3C35FDE4F2881398197
:1026F000CD50D140CF5EDE4F88819981C151D1400C
:10270000BE016F5F7F4F820F931F0E940321CF5E38
:10271000DE4F19830883C151D140CDCF64EF71E002
:1027200080E090E00E9454046CE474E08E010F5F3E
:102730001F4FC8010E94450BB801CE01835F9E4F19
:102740000E94AF0AF82EC8010E94150BFF2009F461
:10275000A4C544E050E0BE01635F7E4FC8010E9403
:10276000D80BB801CE01835F9E4F0E94CA0AC801F0
:102770000E94150B61E075E0C8010E94450BB8018D
:10278000CE01835F9E4F0E94AF0AF82EC8010E94BF
:10279000150BFF2009F14AE050E0BE01635F7E4F58
:1027A000C8010E94D80BC8010E9495099B01AC0189
:1027B000A8EEB3E00E94A71E609341087093420800
:1027C0008093430890934408C8010E94150B81E54B
:1027D00094E00E944C0A70C063E175E0C8010E9459
:1027E000450BB801CE01835F9E4F0E94AF0AF82EC1
:1027F000C8010E94150BFF20F9F048E050E0BE012F
:10280000635F7E4FC8010E94D80BC8010E949509E2
:102810009B01AC01A8EEB3E00E94A71E6093C9071C
:102820007093CA078093CB079093CC07C8010E948E
:10283000150B8EE594E0CDCF63E275E0C8010E94F0
:10284000450BB801CE01835F9E4F0E94AF0AF82E60
:10285000C8010E94150BFF2009F4D8C149E050E0DF
:10286000BE01635F7E4FC8010E94D80BED80FE80E1
:10287000D12CC12CCE14DF0488F4B601C8010E940B
:10288000DE01F601EE0FFF1FE353F84F21E030E0C9
:10289000813311F030E020E0318320832FEFC21A22
:1028A000D20A36E0C316D10429F789E694E00E94E3
:1028B0004C0AC8010E94150BCE01835F9E4F0E94F7
:1028C000150B80914A08811150C0809149088111EF
:1028D00072C787E20E949103892B09F06CC781E0DF
:1028E00080934A080E9487046093450870934608C5
:1028F000809347089093480810921208109211088C
:102900001092400810923F0810923E0810923D0825
:1029100010923C080E94070962E472E086E29AE0A5
:102920000E945B0A81E090E00E94FB0564EF71E089
:1029300080E090E00E94540468EB7BE080E090E04F
:102940000E9454040E948704685E734081099109C3
:10295000609338087093390880933A0890933B0845
:1029600080914A08882309F426C730914908CD5E32
:10297000DE4F3883C351D14031111DC70E948704F7
:10298000009138081091390820913A0830913B089D
:10299000601B710B820B930B683E734081059105A0
:1029A00008F4C1C0C0904508D0904608E0904708A0
:1029B000F09048080E9487046093380870933908A3
:1029C00080933A0890933B080E948704DC01CB0176
:1029D0008C199D09AE09BF09C0904108D0904208EA
:1029E000E0904308F09044088C159D05AE05BF05A6
:1029F00008F099C0C81AD90AEA0AFB0AC701B60149
:102A000028EE33E040E050E00E94C11E49015A0127
:102A1000C701B60120E83EEE46E350E00E94C11E29
:102A20002901C15EDE4F39832883CF51D140C501D2
:102A3000B40120E13EE040E050E00E94C11EECE322
:102A4000CE2ED12CE12CF12CA70196010E94C11EA3
:102A5000C55EDE4F288339834A835B83CB51D140E7
:102A6000C55EDE4F28813981CB51D140CF5DDE4F2D
:102A700039832883C152D140C501B401A701960111
:102A80000E94C11E6B018B010E94070962ED75E077
:102A900086E29AE00E945B0A0E94D608C15EDE4F81
:102AA00088819981CF51D1400A9734F462EE75E064
:102AB00086E29AE00E945B0AB20186E29AE00E94F6
:102AC000010A68E675E086E29AE00E945B0ACF5D43
:102AD000DE4FE881F981C152D1403A9734F462EE79
:102AE00075E086E29AE00E945B0AC55EDE4F68816F
:102AF0007981CB51D14086E29AE00E94010A68E6D2
:102B000075E086E29AE00E945B0A0A30110534F40F
:102B100062EE75E086E29AE00E945B0AB60186E208
:102B20009AE00E94010A0E948704009145081091D2
:102B300046082091470830914808601B710B820BB2
:102B4000930B009141081091420820914308309165
:102B50004408601771078207930738F181E080937A
:102B600049080E94070964E872E086E29AE00E9440
:102B70005B0A0E94D60864EE75E086E29AE00E9445
:102B80005B0A83E090E00E94FB055DE2E52E53E0E6
:102B9000F52E03E213E0F80180810E5F1F4F61E024
:102BA0000E94BD03E016F106B1F781E08093FD09B4
:102BB0000E9487040091ED091091EE092091EF0920
:102BC0003091F009AB01BC01401B510B620B730B40
:102BD0008091F9099091FA09B0E0A0E08417950777
:102BE000A607B70708F0EBC510E08091F7091817A2
:102BF00008F099C4E091F309F091F409E10FF11D97
:102C000062E080810E94EF031F5FEFCF64E375E015
:102C1000C8010E94450BB801CE01835F9E4F0E9400
:102C2000AF0AF82EC8010E94150BFF2041F148E0C1
:102C300050E0BE01635F7E4FC8010E94D80BED805B
:102C4000FE80D12CC12CCE14DF0478F4B601C8016B
:102C50000E94DE01F601EE0FFF1FE752F84F082E2B
:102C6000000C990BC097918380838FEFC81AD80A04
:102C700096E0C916D10439F785E794E018CE64E4EC
:102C800075E0C8010E94450BB801CE01835F9E4FDD
:102C90000E94AF0AF82EC8010E94150BFF2009F40C
:102CA0007AC045E050E0BE01635F7E4FCE01895F90
:102CB0009E4F0E94D80BF12CE12C912C812CD12C11
:102CC000C12CC55FDE4FA880B980CB50D140EA143B
:102CD000FB0408F058C0B701CE01895F9E4F0E94E7
:102CE000DE018C3231F0E1E0AE1AB108EA14FB04E7
:102CF000E9F569E673E0CE018F5F9E4F0E94450BB8
:102D0000C55FDE4F88819981CB50D1400197E8168D
:102D1000F90681F5A401BE01695F7E4FC8010E94DA
:102D2000D80BB801CE018F5F9E4F0E94CA0AC8011E
:102D30000E94150BF6E0CF16D10464F4CE018F5F2C
:102D40009E4F0E949509F601EE0FFF1FEB51F84FC1
:102D50007183608347012FEF821A920A3FEFC31AF3
:102D6000D30ACE018F5F9E4F0E94150B8FEFE81A9A
:102D7000F80AA7CF9701A401BE01695F7E4FC80181
:102D80000E94760BCECF80E894E00E944C0ACE01E0
:102D9000895F9E4F8FCD63E575E0C8010E94450BAA
:102DA000B801CE01835F9E4F0E94AF0AF82EC80182
:102DB0000E94150BFF2009F491C046E050E0BE01CF
:102DC000635F7E4FCE01895F9E4F0E94D80BF12C2E
:102DD000E12CD12CC12C912C812C712C612C502EEA
:102DE000412EC55FDE4FA880B980CB50D140EA1498
:102DF000FB0408F070C0B701CE01895F9E4F0E94AE
:102E0000DE018C3239F091E0A91AB108EA14FB0412
:102E100009F046C069E673E0CE018F5F9E4F0E94C5
:102E2000450BC55FDE4F88819981CB50D14001971A
:102E3000E816F906C9F5A401BE01695F7E4FC80115
:102E40000E94D80BB801CE018F5F9E4F0E94CA0A24
:102E5000C8010E94150B38E063167104C4F4CE015A
:102E60008F5F9E4F0E949509F301EE0FFF1FEC0D3F
:102E7000FD1DEE0FFF1FEF50F84F71836083CA9462
:102E8000CD2829F5FFEF6F1A7F0AD12CC12C4701FD
:102E90002FEF821A920ACE018F5F9E4F0E94150B70
:102EA0003FEFE31AF30A9DCF9701A401BE01695FCA
:102EB0007E4F852D942D0E94760B652D742DCE01AD
:102EC0008F5F9E4F0E94CA0A852D942DC2CFCC24BD
:102ED000C394D12CDCCF88E894E057CF61E675E04D
:102EE000C8010E94450BB801CE01835F9E4F0E942E
:102EF000AF0AF82EC8010E94150BFF2091F048E0A0
:102F000050E0BE01635F7E4FC8010E94D80B4AE0CB
:102F100050E063E178E0C8010E94180981E994E07B
:102F2000C6CCCF5EDE4F88819981C151D140892BBB
:102F300009F4E0C06FE974E0C35FDE4F88819981D6
:102F4000CD50D1400E94FA20892B09F0D3C061E412
:102F500078E090E080E00E94630969EC77E084E02B
:102F600090E00E9463090DEC17E088E090E0F80122
:102F700060810E5F1F4F7C01FFEFEF1AFF0A0E9476
:102F80003B09C7018E30910591F749EDC42E47E00A
:102F9000D42EF6016081F2E0CF0ED11C87010F5FC5
:102FA0001F4FC7010E943B0978010431110589F7C1
:102FB000C8018F52984F7C01680192E0C90ED11C64
:102FC000F701B1907F01C8010E94911EB81621F04F
:102FD0006B2DC8010E94991E0F5F1F4F0C151D0518
:102FE00079F70032110521F731EFE32E37E0F32EA8
:102FF0006801FFEFCF1ADF0AF7016081C8010E9464
:103000003B090E5F1F4FF7016281C6010E943B0919
:10301000F4E0EF0EF11C0033110551F723E1E22E2D
:1030200028E0F22EF70161917F016801FFEFCF1ACE
:10303000DF0AC8010E943B0986010A33110591F796
:1030400002E412E0F80161918F017601FFEFEF1ABF
:10305000FF0AC6010E943B0967012BE5E216F10455
:1030600089F791E2C92E92E0D92EF60161916F01A4
:1030700087010F5F1F4FC7010E943B0978010C3782
:10308000110599F780E0C82E82E0D82EF6016191F3
:103090006F017801FFEFEF1AFF0AC8010E943B0998
:1030A00087010D39110591F713E6C12E12E0D12EDB
:1030B000F60161916F0187010F5F1F4FC7010E94E9
:1030C0003B0978010E3B110599F7B4E8EB2EB2E00D
:1030D000FB2EF70161917F016801FFEFCF1ADF0A34
:1030E000C8010E943B0986010F3D110591F78CE94B
:1030F00094E06FCB64EA74E0C8010E94450BB8010C
:10310000CE01835F9E4F0E94AF0AF82EC8010E9435
:10311000150BFF2009F4D0CB44E050E0BE01635F03
:103120007E4FC8010E94D80BB801CE01835F9E4F2D
:103130000E94CA0AC8010E94150B65E775E0C80124
:103140000E94450BB801CE01835F9E4F0E94AF0ADB
:10315000F82EC8010E94150BFF2091F046E050E0C8
:10316000BE01635F7E4FC8010E94D80B41E250E070
:1031700062E472E0C8010E94180989EA94E097CBE2
:1031800067E875E0C8010E94450BB801CE01835F76
:103190009E4F0E94AF0AF82EC8010E94150BFF2017
:1031A00091F048E050E0BE01635F7E4FC8010E948D
:1031B000D80B41E250E061E272E0C8010E941809B8
:1031C00086EB94E074CB6BE975E0C8010E94450B77
:1031D000B801CE01835F9E4F0E94AF0AF82EC8014E
:1031E0000E94150BFF2091F046E050E0BE01635FA6
:1031F0007E4FC8010E94D80B41E250E060E072E0CF
:10320000C8010E94180985EC94E051CB6DEA75E085
:10321000C8010E94450BB801CE01835F9E4F0E94FA
:10322000AF0AF82EC8010E94150BFF2091F048E06C
:1032300050E0BE01635F7E4FC8010E94D80B41E29F
:1032400050E063E672E0C8010E94180982ED94E044
:103250002ECB61EC75E0C8010E94450BB801CE0190
:10326000835F9E4F0E94AF0AF82EC8010E94150B83
:10327000FF2009F421CB47E050E0BE01635F7E4FA1
:10328000C8010E94D80B41E250E064E872E0C80136
:103290000E94180981EE94E00ACBCF5EDE4F888150
:1032A0009981C151D140892B09F406CBC35FDE4F10
:1032B00008811981CD50D1406FEE74E0C8010E94A1
:1032C000FA206C01892B09F0F1C06AEF74E088EEF6
:1032D00098E00E945B0A60914108709142088091D9
:1032E00043089091440828EE33E040E050E00E940B
:1032F000C11ECA01B9010E943B0A6CE075E088EE6C
:1033000098E00E945B0A6091C9077091CA0780919A
:10331000CB079091CC0728EE33E040E050E00E94CC
:10332000C11ECA01B9010E943B0A6CE175E088EE3A
:1033300098E00E945B0A0DEC17E0F8016191719131
:103340008F0188EE98E00E94010AC75EDE4F288157
:103350003981C951D1402017310779F70E94AF094F
:103360006DE275E088EE98E00E945B0A09ED17E0D7
:10337000F801619171918F0188EE98E00E94010A35
:10338000F7E0053E1F07A1F70E94AF096DE375E066
:1033900088EE98E00E945B0AA5EEEA2EA7E0FA2EDE
:1033A00010E000E0F701619171917F0188EE98E0F3
:1033B0000E94010A0530110531F06AE475E088EEDB
:1033C00098E00E945B0A0F5F1F4F0630110551F70E
:1033D0000E94AF096CE475E088EE98E00E945B0AF9
:1033E00001EF17E0F8016081718188EE98E00E949A
:1033F000010A6AE475E088EE98E00E945B0AF80131
:103400006281738188EE98E00E94010AF7E0CF168E
:10341000D10431F06AE475E088EE98E00E945B0A1E
:103420002FEFC21AD20A0C5F1F4F38E0C316D10427
:10343000C9F60E94AF096AE575E088EE98E00E943F
:103440005B0A83E198E00E944C0A6AE675E088EE28
:1034500098E00E945B0A82E492E00E944C0A6CE7CA
:1034600075E088EE98E00E945B0A81E292E00E949B
:103470004C0A60E975E088EE98E00E945B0A80E003
:1034800092E00E944C0A62EA75E088EE98E00E94A1
:103490005B0A83E692E00E944C0A66EB75E088EED8
:1034A00098E00E945B0A84E892E093C96CEC75E0B6
:1034B000C8010E94FA20892B09F0FEC910924A081F
:1034C0001092490803E213E0F9E1EF2EF3E0FF2E3A
:1034D000F7018081F2E0EF0EF11C60E00E94BD0375
:1034E000F80180810E5F1F4F60E00E94BD03CB5E3C
:1034F000DE4F28813981C551D140E216F30641F7EC
:103500000E9407096AE673E086E29AE00E945B0A7D
:103510000E94D6086AE773E086E29AE00E945B0A9E
:1035200089EC95E056C9912C8091F809981608F01D
:1035300063C0E92CF12CE091F509F091F609EE0D4C
:10354000FF1D61E080810E94EF03E091F509F09199
:10355000F609EE0DFF1D60E080810E94BD0381E051
:1035600090E0A0E0B0E0092C04C0880F991FAA1FCA
:10357000BB1F0A94D2F75C016C01C094D094812CDB
:103580008091F709881608F5082D10E0E091F309FD
:10359000F091F409E00FF11F80810E9491030C5F0C
:1035A0001F4F000F111FF801EF56F64F892B41F402
:1035B000808191818A299B29918380838394E0CFA4
:1035C000808191818C219D21F7CFE091F509F091C7
:1035D000F609EE0DFF1D61E080810E94BD03809120
:1035E000F5099091F609E80EF91E60E0F701808177
:1035F0000E94EF03939498CF31E9C32E39E0D32E84
:103600008DEC99E08601F801278D30A1232B31F450
:10361000148E2FEF3FEF368F258F11A20A5F1F4FB9
:103620008017910781F7B12C26E0922E8091F7093F
:10363000B81608F052C0A12CEB2CF12CEE0CFF1C9C
:10364000C7018756964F7C012091F809A21608F011
:1036500042C0F701608171810A2C02C0769567959E
:103660000A94E2F7B29E900111242A0D311DE1E97E
:10367000F9E080E0458D568D2417350709F4E6C240
:103680008F5F36968A30B1F760FF23C0E1E9F9E039
:1036900090E080E0448D411117C0E091F109F09174
:1036A000F209E20FF31F4081989EF001999EF00D00
:1036B0001124EF56F64F448F368F258F10A2178EA8
:1036C00061E00E94FF0505C0019636968A3091059B
:1036D00009F7A394B9CFB394A9CFF60181A18823A8
:1036E00029F0CD5EDE4F8883C351D140F6E0CF0E86
:1036F000D11C0C151D0589F70E9487046093ED0904
:103700007093EE098093EF099093F009CD5EDE4F40
:103710002881C351D140222309F451C08091B209BC
:10372000882309F44CC08091B0099091B1090197A8
:1037300009F045C01091AD09111144C080914008B5
:103740008823C9F180913F088823A9F180913E0820
:10375000882389F180913D08882369F180913C0894
:10376000882349F181E0809349080E94070963E6B4
:1037700072E086E29AE00E945B0A0E94D60862E844
:1037800076E086E29AE00E945B0A82E090E00E9486
:10379000FB0509E113E0F80180810E5F1F4F61E036
:1037A0000E94BD03CB5EDE4F28813981C551D140D7
:1037B0002017310781F70E94FD020C944C131092E0
:1037C000FD09BCCF80913708882309F441C20E94CB
:1037D0008704C0903308D0903408E0903508F0900A
:1037E00036086C197D098E099F0961367A4E81056C
:1037F000910578F0109237088FEE95E00E945D0AEF
:103800000E94800885E090E00E94FB050E9463080A
:1038100095CF809140081A32B1F1811193CF8091F8
:103820003F088111C8CF80913E088111C4CF80919B
:103830003D088111C0CF80913C088111BCCF80919F
:10384000310890913208833191050CF0B4CF9C017E
:103850002F5F3F4F3093320820933108835E974F9C
:10386000FC011083235E374FF90110820E94070983
:1038700066E776E086E29AE00E945B0A0E94D6083C
:103880006DE178E007C210923708811133C00DEC6A
:1038900017E085EDE82E82E0F82EF7018081F2E056
:1038A000EF0EF11C0E949103F801419151918F019B
:1038B00021E030E0892B11F030E020E024173507BB
:1038C00009F0EDC1C95EDE4F28813981C751D14071
:1038D0002E153F0511F781E0809340088091110873
:1038E000909112080196909312088093110882E932
:1038F00096E066C180913F08811138C019EDE12E34
:1039000017E0F12E01EEC02E02E0D02E10E000E014
:10391000F6018081F2E0CF0ED11C0E949103AC0130
:10392000F701819191917F010F5F1F4F21E0801777
:10393000910709F020E091E0452B09F090E029176C
:1039400019F088EC96E016C10630110509F781E000
:1039500080933F08809111089091120801969093EE
:1039600012088093110884EB96E02AC140903E082B
:10397000411042C0EDEEF2E029EF32E0A5EEB7E0F3
:1039800080813296863308F0865340917B00982FD1
:103990009870477F942B90937B008770806480930E
:1039A0007C0080917A00806480937A0080917A0014
:1039B00086FDFCCF80917800909179004D915D91CA
:1039C000841B950B97FF03C0919581959109C3972F
:1039D0000CF068C12E173F0799F681E080933E08EE
:1039E000809111089091120801969093120880938B
:1039F00011088AED96E0E4C080913D088111FDC078
:103A00009E012F5F3F4F390180E091E0F9019C0159
:103A1000119221503040E1F75301630189EF92E0A8
:103A2000CD5EDE4F99838883C351D140F12CE12CC8
:103A3000CD5EDE4FE881F981C351D140508032968E
:103A4000CD5EDE4FF983E883C351D14061E0852D1F
:103A50000E94EF0360E0852D0E94BD03B9EF8B2E1D
:103A6000B2E09B2E10E000E0E016F10659F0F40100
:103A700080810E949103892B29F4F601E00FF11F48
:103A800021E020830F5F1F4F32E0830E911C003135
:103A9000110551F762E0852D0E94EF038FEFE81AC0
:103AA000F80A90E1C90ED11CE0E1EE16F10409F02C
:103AB000BFCF21EF37E0F9014081518157FD1EC092
:103AC0008281938197FD1AC0FA01A4E0EE0FFF1FD7
:103AD000AA95E1F7E60DF71DE80FF91FA081AA23CB
:103AE00099F0FC0174E0EE0FFF1F7A95E1F7E60D07
:103AF000F71DE40FF51FA081AA2331F02C5F3F4F83
:103B000022163306C1F6A42D30E020E0A9014F5F54
:103B10005F4FCA0180319105C1F1F301E80FF91F30
:103B2000608161110BC0FC0164E0EE0FFF1F6A951C
:103B3000E1F7EA0DFB1D6081662361F0E1EFF7E03C
:103B4000608171816217730739F46281738186170E
:103B5000970751F40196DECF8617970729F4628103
:103B6000738162177307B1F334962E163F0641F73F
:103B700086E396E00E945D0A0E94800885E090E05E
:103B80000E94FB050E94630831C0AA2389F3FFEF5E
:103B9000AF1ABF0A20E1620E711C9A014031510533
:103BA00009F0B4CF81E080933D0880911108909195
:103BB00012080196909312088093110881E296E012
:103BC0000E94860A80911108909112088630910512
:103BD0004CF4880F991FFC01E95EFC4F61E0808185
:103BE0000E94BD0384E090E00E94FB051092320821
:103BF0001092310810921D08A1CD80913C088111CE
:103C0000F5CF80913108909132081816190674F793
:103C1000835E974FFC01108263E178E08DE198E0CC
:103C20000E94FA20892B79F481E080933C088091EE
:103C30001108909112080196909312088093110830
:103C40008EE496E0BDCF83E696E094CF617039CDE7
:103C50001A3209F073CD81E0809337080E948704FF
:103C60006093330870933408809335089093360836
:103C7000109232081092310810921D080E94070914
:103C800061E076E086E29AE00E945B0A0E94D60834
:103C900062E176E086E29AE00E945B0A4FCD84EA18
:103CA00096E068CF8DEE96E065CF1F93FC019927D3
:103CB0008827BC01E89411911032E9F3193010F013
:103CC0001E30C8F31B3251F01D3249F4689406C00F
:103CD0000E947C1E610F711D811D911D1191105359
:103CE0001A30B0F33EF490958095709561957F4FB2
:103CF0008F4F9F4F1F910895592F482F372F262FF1
:103D0000660F771F881F991F660F771F881F991FDF
:103D1000620F731F841F951F660F771F881F991FDF
:103D20000895F999FECF92BD81BDF89A992780B583
:103D30000895262FF999FECF1FBA92BD81BD20BDEF
:103D40000FB6F894FA9AF99A0FBE019608950E9458
:103D5000B21EA59F900DB49F900DA49F800D911D44
:103D600011240895A29FB001B39FC001A39F700DBD
:103D7000811D1124911DB29F700D811D1124911D73
:103D80000895A1E21A2EAA1BBB1BFD010DC0AA1F9C
:103D9000BB1FEE1FFF1FA217B307E407F50720F0B4
:103DA000A21BB30BE40BF50B661F771F881F991F2F
:103DB0001A9469F760957095809590959B01AC0178
:103DC000BD01CF010895EE0FFF1F881F8BBF079025
:103DD000F691E02D19940F931F93CF93DF938230C8
:103DE000910510F482E090E0E091340AF091350AF8
:103DF00030E020E0B0E0A0E0309799F421153105E3
:103E000009F44AC0281B390B24303105D8F58A81C2
:103E10009B816115710589F1FB0193838283FE010A
:103E200011C0408151810281138148175907E0F088
:103E30004817590799F4109761F012960C9312974E
:103E400013961C933296CF01DF91CF911F910F9162
:103E500008950093340A1093350AF4CF21153105E3
:103E600051F04217530738F0A901DB019A01BD0157
:103E7000DF01F801C1CFEF01F9CF9093350A8093AC
:103E8000340ACDCFFE01E20FF31F819391932250AC
:103E9000310939832883D7CF2091320A3091330AF0
:103EA000232B41F42091BF023091C0023093330A9A
:103EB0002093320A2091BD023091BE0221153105B6
:103EC00041F42DB73EB74091C1025091C202241B6C
:103ED000350BE091320AF091330AE217F307A0F4B0
:103EE0002E1B3F0B2817390778F0AC014E5F5F4F50
:103EF0002417350748F04E0F5F1F5093330A409345
:103F0000320A819391939FCFF0E0E0E09CCFCF9372
:103F1000DF930097E9F0FC01329713821282A0919F
:103F2000340AB091350AED0130E020E01097A1F499
:103F300020813181820F931F2091320A3091330A00
:103F40002817390709F061C0F093330AE093320A69
:103F5000DF91CF910895EA01CE17DF07E8F54A8196
:103F60005B819E0141155105B1F7E901FB83EA83AD
:103F700049915991C40FD51FEC17FD0761F4808159
:103F800091810296840F951FE9019983888382812C
:103F900093819B838A83F0E0E0E012968D919C915F
:103FA00013970097B9F52D913C911197CD01029689
:103FB000820F931F2091320A3091330A2817390754
:103FC00039F6309751F51092350A1092340AB093B1
:103FD000330AA093320ABCCFD383C283408151817C
:103FE000840F951FC817D90761F44E5F5F4F888112
:103FF0009981480F591F518340838A819B81938304
:1040000082832115310509F0B0CFF093350AE09392
:10401000340A9ECFFD01DC01C0CF13821282D7CFBC
:104020004F925F926F927F928F929F92AF92BF92C8
:10403000CF92DF92EF92FF920F931F93CF93DF9374
:104040008C01009799F4CB01DF91CF911F910F91D3
:10405000FF90EF90DF90CF90BF90AF909F908F90A8
:104060007F906F905F904F900C94EB1EFC01E60FD9
:10407000F71F9C0122503109E217F30708F4AEC084
:10408000D901CD91DC911197C617D70720F1C53022
:10409000D10578F0CE0104978617970750F0C61B1C
:1040A000D70B2297C193D1936D937C93CF010E943C
:1040B000871FC801DF91CF911F910F91FF90EF9063
:1040C000DF90CF90BF90AF909F908F907F906F9038
:1040D0005F904F9008955B01AC1ABD0A4C018C0EA5
:1040E0009D1EA091340AB091350A512C412CF12C1F
:1040F000E12C109731F58091320A9091330A88159E
:10410000990509F05CC04616570608F058C0809122
:10411000BD029091BE02009741F48DB79EB74091C9
:10412000C1025091C202841B950BE817F90708F0F1
:1041300055C0F093330AE093320AF901718360832A
:10414000B8CF8D919C91119712966C9012971396FF
:104150007C901397A815B90559F56C0142E0C40E7F
:10416000D11CCA14DB0420F1AC014A195B09DA0145
:104170001296159780F06282738251834083D90131
:104180006D937C93E114F10471F0D7011396FC93C5
:10419000EE9312978ECF22968C0F9D1FF90191837B
:1041A0008083F301EFCFF093350AE093340A81CF97
:1041B0004816590608F42C017D01D3019ACFCB0192
:1041C0000E94EB1E7C01009749F0AE01B8010E94ED
:1041D000F120C8010E94871F87016BCF10E000E02B
:1041E00068CFFB01DC0102C001900D9241505040AC
:1041F000D8F70895FB01DC018D9101908019011021
:10420000D9F3990B0895FB01DC0101900D92002078
:10421000E1F70895FB01DC014150504030F08D91F1
:104220000190801919F40020B9F7881B990B0895A3
:10423000FB01DC014150504048F001900D920020FC
:10424000C9F701C01D9241505040E0F70895F8941D
:02425000FFCF9E
:1042520054727920616761696E21000000000000DC
:10426200000000000000000000000000000000004C
:104272000057656C6C20646F6E65210000000000C1
:10428200000000000000000000000000000000002C
:10429200000047616D65205374617274656421206A
:1042A200476F6F64206C75636B2100000000000093
:1042B200000000566963746F72792120416C6C2092
:1042C2007461736B7320646F6E65210000000000DF
:1042D2000000000047616D65204F76657221205411
:1042E200696D6527732075702100000000000000D1
:1042F200000000000008090C0D3E3F4041313233FE
:104302004134353642373839432A302344000036A7
:104312000A800000004000140054007EFF060001E5
:1043220000000000EF16001700180019001A001B09
:1043320000020003000400050006000700360037F3
:1043420000380039003A003B001E001F0020002107
:1043520000220023002400250029002A002B002C23
:10436200002D002E002F00300032003300340035C3
:10437200003C001C001D0025002800310000000048
:10438200009002F0011D02DD024E022C02400200EA
:104392000000004A071D076008F30616070307F42A
:1043A20006000000002B04EB03BA03000000001219
:1043B20009F0016008EF010D0A004B657970616434
:1043C200204C45442047616D65005072657373202F
:1043D2005354415254004D5033204572726F722132
:1043E200002D2D2D73617665642020436F6E666902
:1043F2006775726174696F6E202D2D2D00436F7584
:104402006E74646F776E3A200050656E616C7479D9
:104412003A200053776974636865733A20004275E5
:1044220074746F6E733A2000506F74733A20002CCC
:1044320020004A61636B733A20004B6579706164B6
:1044420020436F64653A20005374617274204D6595
:1044520073736167653A2000436F727265637420FB
:104462004D6573736167653A200057726F6E6720FE
:104472004D6573736167653A20006E6F7720636FD5
:104482006E6E656374207468652047554920206309
:104492006F6E666967757261746F72005345543A44
:1044A200004F4B3A434F554E54444F574E004F4BDB
:1044B2003A50454E414C5459004F4B3A5357495488
:1044C20043484553004F4B3A425554544F4E5300C4
:1044D2004F4B3A504F5453004F4B3A4A41434B5380
:1044E200004F4B3A4B4559434F4445004F4B3A53CB
:1044F200415645004D53473A004F4B3A4D53473AC8
:104502005354415254004F4B3A4D53473A434F5242
:1045120052454354004F4B3A4D53473A57524F4E30
:1045220047004F4B3A4D53473A564943544F52591D
:10453200004F4B3A4D53473A444546454154004794
:1045420045543A434F4E46494700434F4E4649472A
:104552003A434F554E54444F574E3A00434F4E46FE
:1045620049473A50454E414C54593A00434F4E4602
:1045720049473A53574954434845533A00434F4EEB
:104582004649473A425554544F4E533A00434F4ED0
:104592004649473A504F54533A002C00434F4E4637
:1045A20049473A4A41434B533A00434F4E464947E3
:1045B2003A4B4559434F44453A00434F4E464947CB
:1045C2003A4D53473A53544152543A00434F4E46A0
:1045D20049473A4D53473A434F52524543543A00A2
:1045E200434F4E4649473A4D53473A57524F4E472B
:1045F2003A00434F4E4649473A4D53473A5649438C
:10460200544F52593A00434F4E4649473A4D534749
:104612003A4445464541543A004F4B3A5245534578
:10462200540054696D652072656D61696E696E67CB
:104632003A00300054696D6527732075702100536C
:10464200657175656E63652074696D656F7574213A
:104652000053657175656E6365207374617274656C
:104662006400456E642077697468202A206B65793E
:10467200004A61636B20636F6E6E656374696F6E6F
:1046820073204F4B21004A61636B20636F6E6E652E
:104692006374696F6E732077726F6E6721004B656A
:1046A2007970616420636F646520636F7272656301
:1046B2007421004B657970616420636F64652077B3
:1046C200726F6E672100456E74657220636F646558
:1046D2003A00416C6C207461736B7320646F6E6579
:1046E2002100537769746368657320636F72726522
:1046F2006374210053776974636865732077726FFE
:104702006E672100427574746F6E20736571206349
:104712006F72726563742100427574746F6E2073D8
:1047220065712077726F6E672100506F74656E74C9
:10473200696F6D6574657273204F4B2100506F7401
:10474200656E74696F6D65746572732077726F6ED2
:0447520067210000DB
:00000001FF
